{"abi":[{"type":"function","name":"verifyProof","inputs":[{"name":"root","type":"bytes32","internalType":"bytes32"},{"name":"leaf","type":"tuple","internalType":"struct JellyfishMerkleTreeVerifier.Leaf","components":[{"name":"addr","type":"bytes32","internalType":"bytes32"},{"name":"valueHash","type":"bytes32","internalType":"bytes32"}]},{"name":"proof","type":"tuple","internalType":"struct JellyfishMerkleTreeVerifier.Proof","components":[{"name":"leaf","type":"tuple","internalType":"struct JellyfishMerkleTreeVerifier.Leaf","components":[{"name":"addr","type":"bytes32","internalType":"bytes32"},{"name":"valueHash","type":"bytes32","internalType":"bytes32"}]},{"name":"siblings","type":"bytes32[]","internalType":"bytes32[]"}]}],"outputs":[{"name":"","type":"bool","internalType":"bool"}],"stateMutability":"pure"}],"bytecode":{"object":"0x61056061003a600b82828239805160001a60731461002d57634e487b7160e01b600052600060045260246000fd5b30600052607381538281f3fe73000000000000000000000000000000000000000030146080604052600436106100355760003560e01c8063b9a103ec1461003a575b600080fd5b61004d6100483660046103cf565b610061565b604051901515815260200160405180910390f35b60008235158015906100765750602083013515155b156100c65781351580159061008e5750602082013515155b156100be57823582351415806100ac57506020838101359083013514155b156100b95750600061038b565b610113565b50600061038b565b8135158015906100d95750602082013515155b156101135782358235148061010657506100f66040830183610439565b905061010484358435610392565b105b156101135750600061038b565b6000823515801561012657506020830135155b15610133575060006101c2565b6040516c4a4d543a3a4c6561664e6f646560981b6020808301919091528435602d830152840135604d820152600290606d0160408051601f198184030181529082905261017f9161048a565b602060405180830381855afa15801561019c573d6000803e3d6000fd5b5050506040513d601f19601f820116820180604052508101906101bf91906104b9565b90505b60005b6101d26040850185610439565b9050811015610385576102008535826101ee6040880188610439565b6101f99291506104e8565b1c60011690565b6001036102c45760026102166040860186610439565b83818110610226576102266104fb565b90506020020135836040516020016102639291906f4a4d543a3a496e74726e616c4e6f646560801b81526010810192909252603082015260500190565b60408051601f198184030181529082905261027d9161048a565b602060405180830381855afa15801561029a573d6000803e3d6000fd5b5050506040513d601f19601f820116820180604052508101906102bd91906104b9565b915061037d565b6002826102d46040870187610439565b848181106102e4576102e46104fb565b905060200201356040516020016103209291906f4a4d543a3a496e74726e616c4e6f646560801b81526010810192909252603082015260500190565b60408051601f198184030181529082905261033a9161048a565b602060405180830381855afa158015610357573d6000803e3d6000fd5b5050506040513d601f19601f8201168201806040525081019061037a91906104b9565b91505b6001016101c5565b50841490505b9392505050565b6000828218815b81156103b85760019190911c90806103b081610511565b915050610399565b6103c4816101006104e8565b925050505b92915050565b600080600083850360808112156103e557600080fd5b843593506040601f19820112156103fb57600080fd5b50602084019150606084013567ffffffffffffffff81111561041c57600080fd5b84016060818703121561042e57600080fd5b809150509250925092565b6000808335601e1984360301811261045057600080fd5b83018035915067ffffffffffffffff82111561046b57600080fd5b6020019150600581901b360382131561048357600080fd5b9250929050565b6000825160005b818110156104ab5760208186018101518583015201610491565b506000920191825250919050565b6000602082840312156104cb57600080fd5b5051919050565b634e487b7160e01b600052601160045260246000fd5b818103818111156103c9576103c96104d2565b634e487b7160e01b600052603260045260246000fd5b600060018201610523576105236104d2565b506001019056fea2646970667358221220d3acdd6b7d124dba1d9f0fdc447ab2ac174dbc3774ac10df547cdafce905ba6364736f6c63430008140033","linkReferences":{}},"methodIdentifiers":{"verifyProof(bytes32,JellyfishMerkleTreeVerifier.Leaf,JellyfishMerkleTreeVerifier.Proof)":"b9a103ec"},"id":14}