{"abi":[{"type":"function","name":"verifyProof","inputs":[{"name":"root","type":"bytes32","internalType":"bytes32"},{"name":"leaf","type":"tuple","internalType":"struct JellyfishMerkleTreeVerifier.Leaf","components":[{"name":"addr","type":"bytes32","internalType":"bytes32"},{"name":"valueHash","type":"bytes32","internalType":"bytes32"}]},{"name":"proof","type":"tuple","internalType":"struct JellyfishMerkleTreeVerifier.Proof","components":[{"name":"leaf","type":"tuple","internalType":"struct JellyfishMerkleTreeVerifier.Leaf","components":[{"name":"addr","type":"bytes32","internalType":"bytes32"},{"name":"valueHash","type":"bytes32","internalType":"bytes32"}]},{"name":"siblings","type":"bytes32[]","internalType":"bytes32[]"}]}],"outputs":[{"name":"","type":"bool","internalType":"bool"}],"stateMutability":"pure"}],"bytecode":{"object":"0x610526610034600b8282823980515f1a607314602857634e487b7160e01b5f525f60045260245ffd5b305f52607381538281f3fe7300000000000000000000000000000000000000003014608060405260043610610034575f3560e01c8063b9a103ec14610038575b5f80fd5b61004b6100463660046103bf565b61005f565b604051901515815260200160405180910390f35b5f8235158015906100735750602083013515155b156100c15781351580159061008b5750602082013515155b156100ba57823582351415806100a957506020838101359083013514155b156100b557505f61037c565b61010d565b505f61037c565b8135158015906100d45750602082013515155b1561010d5782358235148061010157506100f16040830183610423565b90506100ff84358435610383565b105b1561010d57505f61037c565b5f823515801561011f57506020830135155b1561012b57505f6101b8565b6040516c4a4d543a3a4c6561664e6f646560981b6020808301919091528435602d830152840135604d820152600290606d0160408051601f198184030181529082905261017791610470565b602060405180830381855afa158015610192573d5f803e3d5ffd5b5050506040513d601f19601f820116820180604052508101906101b59190610486565b90505b5f5b6101c76040850185610423565b9050811015610376576101f58535826101e36040880188610423565b6101ee9291506104b1565b1c60011690565b6001036102b757600261020b6040860186610423565b8381811061021b5761021b6104c4565b90506020020135836040516020016102589291906f4a4d543a3a496e74726e616c4e6f646560801b81526010810192909252603082015260500190565b60408051601f198184030181529082905261027291610470565b602060405180830381855afa15801561028d573d5f803e3d5ffd5b5050506040513d601f19601f820116820180604052508101906102b09190610486565b915061036e565b6002826102c76040870187610423565b848181106102d7576102d76104c4565b905060200201356040516020016103139291906f4a4d543a3a496e74726e616c4e6f646560801b81526010810192909252603082015260500190565b60408051601f198184030181529082905261032d91610470565b602060405180830381855afa158015610348573d5f803e3d5ffd5b5050506040513d601f19601f8201168201806040525081019061036b9190610486565b91505b6001016101ba565b50841490505b9392505050565b5f828218815b81156103a85760019190911c90806103a0816104d8565b915050610389565b6103b4816101006104b1565b925050505b92915050565b5f805f83850360808112156103d2575f80fd5b843593506040601f19820112156103e7575f80fd5b50602084019150606084013567ffffffffffffffff811115610407575f80fd5b840160608187031215610418575f80fd5b809150509250925092565b5f808335601e19843603018112610438575f80fd5b83018035915067ffffffffffffffff821115610452575f80fd5b6020019150600581901b3603821315610469575f80fd5b9250929050565b5f82518060208501845e5f920191825250919050565b5f60208284031215610496575f80fd5b5051919050565b634e487b7160e01b5f52601160045260245ffd5b818103818111156103b9576103b961049d565b634e487b7160e01b5f52603260045260245ffd5b5f600182016104e9576104e961049d565b506001019056fea26469706673582212202eddb74a2c9600b17e7f346f639386d821e6ed281c25cd5f3a2fc5b7ae70a3fb64736f6c63430008190033","linkReferences":{}},"methodIdentifiers":{"verifyProof(bytes32,JellyfishMerkleTreeVerifier.Leaf,JellyfishMerkleTreeVerifier.Proof)":"b9a103ec"},"id":47}