{"abi":[{"type":"constructor","inputs":[],"stateMutability":"nonpayable"},{"type":"function","name":"bit","inputs":[{"name":"value","type":"uint256","internalType":"uint256"},{"name":"bitOffset","type":"uint256","internalType":"uint256"}],"outputs":[{"name":"","type":"bool","internalType":"bool"}],"stateMutability":"view"},{"type":"function","name":"emptyTreeHashes_","inputs":[{"name":"","type":"uint256","internalType":"uint256"}],"outputs":[{"name":"","type":"bytes32","internalType":"bytes32"}],"stateMutability":"view"},{"type":"function","name":"getRootHash","inputs":[{"name":"proof","type":"bytes32[]","internalType":"bytes32[]"},{"name":"entry","type":"tuple","internalType":"struct TreeEntry","components":[{"name":"key","type":"uint256","internalType":"uint256"},{"name":"value","type":"bytes32","internalType":"bytes32"},{"name":"leafIndex","type":"uint64","internalType":"uint64"}]},{"name":"account","type":"address","internalType":"address"}],"outputs":[{"name":"","type":"bytes32","internalType":"bytes32"}],"stateMutability":"view"},{"type":"function","name":"hashBranch","inputs":[{"name":"left","type":"bytes32","internalType":"bytes32"},{"name":"right","type":"bytes32","internalType":"bytes32"}],"outputs":[{"name":"result","type":"bytes32","internalType":"bytes32"}],"stateMutability":"view"},{"type":"function","name":"hashLeaf","inputs":[{"name":"leafIndex","type":"uint64","internalType":"uint64"},{"name":"value","type":"bytes32","internalType":"bytes32"}],"outputs":[{"name":"","type":"bytes32","internalType":"bytes32"}],"stateMutability":"view"},{"type":"function","name":"reverse","inputs":[{"name":"input","type":"uint256","internalType":"uint256"}],"outputs":[{"name":"v","type":"uint256","internalType":"uint256"}],"stateMutability":"view"}],"bytecode":{"object":"0x608060405234801561001057600080fd5b50600060208190527f94bb15542026f4f607416f019dffe21bb39bbb32cc92085ab615660a6b5fbef47fad3228b676f7d3cd4284a5443f17f1962b36e491b30a40b2405849e597ba5fb5557f7952661ab5d63534c5ea72f81887d8dd6bf514b14c8e9fb714b6feb02efb96a07fada5013122d395ba3c54772283fb069b10426056ef8ca54750cb9bb552a59e7d557f3d75808db532e9685bcc7969ad0f5f0872086b24e02b28cdc7df6e3cc1bd23717fabbb5caa7dda850e60932de0934eb1f9d0f59695050f761dc64e443e5030a569557f29463426092df4c7af14bff4977d825e35d93d5b2c7555997ae0bc5da503b1b37f101e368776582e57ab3d116ffe2517c0a585cd5b23174b01e275c2d8329c3d83557f55bdf8e79ad5207ea317d92c4009cea29fe9bb66e0d6cfd5b50cfe202bb7c17b7f52d75039926638d3c558b2bdefb945d5be8dae29dedd1c313212a4d472d9fde5557f7b269aa0a2836697c2a36aa7e91d61a4e8f3eec4fddda4f0e28f2c00d895f2d97f2b232c97452f0950c94e2539fdc7e69d21166113cf7a9bcb99b220a3fe5d720a557fe7d36ccea1ac417362907ff9752ae7beaf3380bc77c554f4c0189915c6e2f1567f62103cf3131c85df57aad364d21cba02556d3092d6cb54c298c2e7726a7870bd557fd2d9e3c2060d41b9ef514403cbdf1ed473acf7d6b10518ab0ae119ac3813ad647f870253054e3d98b71abec8fff9ebf8a15d167f15909091a800d4acaab9266d2b557f769e4e5aa4e1968762b761d7213bc1ec97486a83b6d9d10a821dbed37e619ab17f5b8b9143058ba3a137192c563ca6541845e62f0a2f9a667aac4db2fa3c334e3c557f01081746734e83cb0afcc9e884dc71e2dc893b74190ae67233b10a333818aaba7f324fdf7bfe7bd2828491073f0b7868a9a19ee3eff384c2805040be3e426447f5557fdcc6d61671642128e20c498ad0ea7e5f02178699a2a3fa4b6d341f78ec1b6f277f3e9abaca0aad9ede81f4474766c846d8539f70688e1c8f521bbe1597874e3dc4557f90aa631a0a952345a6c37faf9f9615bcb79bf3c3e482fb90e7e2943682e95cd67f9115655cbcdb654012cf1b2f7e5dbf11c9ef14e152a19d5f8ea75a329092d5a6557f351c803e4a5f9ccdb38e88c63a7f1e6d419d7784da4da58a4ddbba22bb947b887fd0a75bf7ea87fba36ff8a17b4519c45fb727609e6c9161b106680b25b3e2705f557f6ff95284d7a2af72fa9bfaf68175bfc726d44d6de42cd55e0956cd3c5a54e7897f7ca5987043ac53676c6e30f77ff1a34e98a5fae86b27e5d0cf74ac1711b8a8db557f3305aeb5575f473f2bc6561a8a2aa6699de7a9bc0dd1db31843577ede186d0257fe9bc119772df33ac6a685b572c53e6a4988bbdde79a460a23bed029791109f39557fb52a7e7f9609d0f7d208055602c4ccca8436034dcabe8f2dff33148f3beb170e7f7536f03fc5db63ca945db399fd3b92bff9b5879a5c0d7d84d2973ef5c841ea06557f3b21dff05c1fd42478a06e331e850399ab3bcac1ca96f778b11e4f9195c5f3eb7f020abee21eef15c21bc31a406c2b8ac3afc5df94a4b02b38abb286f4334e6c5b557f5ff91c6907e8ec45ac5dcbc8614d6bd6bc4e87b9612615e4a11492260ace68617fa29f2962b8badecbf4d3036e28fcd7dcf22db126f130193790f7698ee4d3dd84557ff3ca9084d4a47253a68d42ea65f1ff30e14dd9cde00196702f72812934a9c8077f1cb7ce0668e72b96f704af9e1445a9dc6f6ac599eec355bfcfe4d3befbb001be557f5371c89c3ba241f45231cbbb2fd462b0db55f8c6385c795a538f704f5b25a8d07f50a82f9cbcdfaca82fe46b4a494d325ee6dc33d1fa55b218ab142e6cc2c8a58b557f070e2ea800ceefac5daa980cb1250c7869deb40128d5d009a7ad762b9598f1627f9998fe8c12a1a1395171fc2449145bb1f0c273bfc80ab4ea62eb7a9cb439450c557f5952f729ded9dee4a4ef3c5d9598e2ad950293d8061fa1e53adcf4117c09f9c97f52774d722ab93275a0199da6072cca5400bf7f03bf064dd4a2b1af238c418d49557f15fe4d78d71575df893b49acc33d9113557af357fe3888749b0a210fcf8761ec7fb44b86596a635358e7aa60b17d32860c3f1efe2d3e53fb82c0bb23213b9c4be3557f3d07e28efe5e4e7a7e2f3c557f280f5b9ba24f584fee580357611b9f9365cbe57fdc275f13e83bcad5305f77e8f2f06c8d9840ee8b7d606ee958f86f59784b2de3557f890017f43434b2a4b995a376e455eb4d6692bc1a9a9bd995f011fdc864dc0ac17f1da244b7f8b81d82e17fde46fbf307da20557945243b38ef4c87c9487b59901b557f2bb086a86d75b83950f62dcbd2be938574b7c7721284009e5a481a0085493d467fb0bad370a213ac7dcb3dfe3423b8d60077054da2a57d974f5e9768ef98fd60b6557ff486448dfd67d7b5ff80d2ee7df1d05eb6845f4b1bd7e59a2950b048740380ce7fed3d8ee28c5f40179e0b53bf87b486c0b1a6ccfb36f03b3c762c723793e06631557f93d401e5c105a345c1090360796ffedc81377468ded6e3b8c5d0f6e0bc9bd2327f15129b35860f89ea2ac5b4ba3d68417e9ec4bae78e7eab8959d5f8f3ad42ee79557fbd59a52d343e78ea0917b3666f048c251c567d4757a7ed6920aee1a0494f34d47ff548adfdedfd2f8b2416994318306c690dadb026395430e32e9a141187933c86557fb410a350abfe2bff5cfe602dfd4f62f5c178f6fd7905a48a5d57016e748464d27fb84e4298f3a6292774b798b43a202ce92291460f19fe80ed2d2d7e8e4674dcba557f9bf2f7c5ff739af9dcb04ff3f4ddb2daaa2ded109fc37224abbf097e79db883a7f24d30d6da666a4009a2a398534c9f4ad83932433c3c6d78b8e8d1c3efb30a9bc557f2b2b011623060371c1287ac5d0b972ea0acc3e0625479c62f58b1dae9a4e4f0e7fcdbf706faff1444e72b0106ae4486b0256043747c99858ded580d001655540f5557f16fddc72c53f0168b0bc75315f71955b5a616dd9e976dc1d70857ef851bcf87f7f569e75fc77c1a856f6daaf9e69d8a9566ca34aa47f9133711ce065a571af0cfd557f4f6ddfa4e7a78272d476c78a8e20d75e67b34817fea9699e157a4327999aeabd7f20b8703968a1421b7417fbc8615cbe909dc21c5d6ab0d6fd4579bae332adc937557f8a48da19397975fa48f382dadf0db0543f8a1429890791f8edf9d85701cc090c7f660960054c44c4d83c420af65c54e6f3437517cffaa9996495231fee01bdba41557fefcc3ad578210006391a5bdcc14416df8c665ef18a34a6fbee768c81366170e27f2a400e8b310fbd326e4c5c4aed5c8212a6b2bd98d80dbef0077b1b2ee20907d4557fdfc2706b3b0046eb44b04dd01f9c68396c69566bd878ef15fa1602af6d0c32717ffaaf1897615a4d5824a81780f33dd422a304cae5e7b14f0f9215d1a3deeea9e2557fe575e6bcc863d5a637946f9499aa671c1a026553ff44eaeb6bce593ad7be95097fd554518f31b5833712aff068198f0745641f5708162a7286bfaa31c5f461f1ba557ffb885db102e10d3c885c8b9ec215c1d3f54414aba4a3725387bd27ca4a3b57887fd54e89dee95b843939c00dce8c49063df67efe61a3c8ec818ccaee72d7b7f5a3557f307bad1feb84aacf221f357bd44fd8424dcd9ad91be7b7c75c2c2688dd09a2dc7fd6866844f1a8c30f9968e80fa46697288da4b41c675b67a51469639e5afc2435557f26faa4b413c6184fe577e5c181cc658ab8a6b794497220eb9e870a53cf9c86167f5bbfe49fc46bd3c0efd63509af9eb2a12636d52d97f4d1cf52bf53227ef389c2557f97dac09f6227af3c8fa4b84c8ac7f4ca78d0e5a5acd81fa5419263a0b770e7b07f49bfe3c65dd9f3794050d39474bec15417a1630abed1727c133877e89823c14f557fed615f12b68ea966366a3d9cfaae12560ba721dde64ef42db4e3c28eebe9e7dc7f64d962e4eec2a0d2e4053fc69d3b480f61c5923c09e4bad52cdeec343ff95073557f46fb536a51cb284ce7220e10c61fb7a9581dce2cf33678082b7ccffeb078e86f7fe7cae067b01565dd4b0755dfbf1d7c22c5312c3cf1fbed6e1243374844e8ea87557f65be4a061edada9664ed7eabcbb82306dd1dc4d257215dee2cff096683d7ee317f2bfb33747d039531bb279f93c386332ae05e0c10b395017fd2d93fe9fc4c6e23557f553c120a031f25e775c510e9204b85b2d744ac64f6890c0e372f98ae68111b5d7f1c0457050ca41a86014d854f2d228a8ef35463cc39136c54a5e4f4078eeef5c1557f913523e30ee062c2f014307dbb77442447cdc6384556ce5385ce30ae99fe3f1d7f775c7d9143a499372f77b03579dcbb57f9394ad88b4be4180d4b72ba058cd69d557f5968fcade071909e6b28fe49443318733f443cfc997908d18cad658f51d563aa7f706825d676d3ce2a83ed578770284ddbf9eabdba0c4e14bba165c41389b73c56557e63d4b6834eb27132e3db7dbca5271a1c1be3ec0278e1476238f9567bd2c9237f28c3dd0e618e8bddf8cf30cd1a2e788f719d9c1f097596a24acbe0c7cb1e05c6557f27bff7a116ef02256b937f0d6e189954fcda55ebdbd0311add6710f24587acef7fa20a1f31e7e0c47a407717c0b73e822e9ce414e0fc1925c4df69c43f77ac765e557f3d030a55a63d3686af9d9206fc11e989bb754d091e31def3b766a99926d7cc0f7f9e91c95f108ead30341468db9696e39ed81de6a68bc8c6702bcb66393fce6e75557fbcac725d366e063158fec8b765ef34dbfe4661a16a024d068b7e8b8c69c969e27f3884095ca26754c19839d1d65ed3564b4558896672ae6763c55fd1245d56ef7b557f667b4cc062dbb7ea73ce2d3765852659ba0d9e50feae1c8f0e03d90c63343fcc7f34c816dab9c312a23fa45b66dbf9c10a2294a4455b7a50973d5e33fd47c39f4a557f7d7b6e62b251d75925ae34a3064b6619b1e92bc0d1b08a578bbb69841f101bd07f0de8d66b2bd125dbab6c2314a8cd08ca7e2ac381b265aefa7ce27c5d9d75d933557f62402e1ce7d21d56d7ab8acca37aef7210e13b48f7ee4e418d4b738a3ea7ed227fe6bccefd92fc2fa71227cbd31f39b085fabc5c0f7b7d07eb4a639c53ad5822f4557f83ff1784605dce2361c0feb2bd4e19825cf31f381832b10d19aff4b7a505a1377f4e349fca397a2203dbb3e457a82dc8ae1a5129362fdfcdae82619128ca92c033557fa1791b1f9a05aebc8712ca3318786e23245322f1a7a9c6a8a19c456b0d5065d67f463154dffd5ddce82baa6ddaa825ffda4b4cc1dd8abd5af72f421c487b1335db557f751b8b069eaa1f8fec4ff9e0f88b85de603f9412e043446d9a36cf5bfccfa3867fa68e398350be805d9560b1ec3307f811e9f6dda9bf8906288e5b598ec4ea1928557f8a06e0ee48a723bcc78357aeb142fbd67253990fff5285233dfa1a9596a2a1af7ffb34942ebc6f77e2a4779d58cebad9f418cb83cee5ae5135ce8e901b843c3496557f52f8a45813f1cbfa0f1d666813acc882dfa8bdd659ed3921504d3832c55235c27f13878d49584e1449cb7c4d09e4633874e2c2915817f025fd56e9ac92bf634fe9557ff377ceca19baadcbb37e12850efab50729c0a4398aaa904c36606f8de7475ab67fefaa5c7cc1adb414582a0dc440bee1ceb90207c7493c33cc335d47995e044104557f511e6d6a77e31301e6612b256f21e2e6260d825a75795a537b71500966d929db7fa81c3a5a553fab8c561679d85bb19e6a7eb0218b4839501a326c84cd4158b2d5557fbe3ffa66a40a99ac70a97f9548e8dd728d30e7c8dff5fc914408324343e0f08d7f5ee7521a899a1bbd499ad817e1d673d594eb84ef5130440e43abd9ab11104867557f607319f7dd524f9f0a2be78b462620c8760962b79f957e2218ad41725ee895837f5c51f339e19e5238fd1fe3ad8516ae4df2bc1dce47a36fc5eb7f2877185d9eda557f58fda4e0001cbc69d76f7607af089bef317f4bfa318f283bb11e9b345e1bdfc97f55a5bd2f1561a275dba97a3e23bf64b586a74cc4c4a2dc9f1c147ffdbbce1122557f6c98a54803f13fd7476030a83df64f2c1d4bf7b755219ffb738b58cce3061bda7f3511b8eb393fd3b4ce4300791eee67b9f8a8531a570ff8912fc2b075959b0a2b557f403c1833bcfc771436f27308f2513b2c06c42209f263b5c1c2cb25e050173aea7f2852b577eb917e124a16ffd8dc1efc55441aabd0717d5d636c873192a2f58242557f5fa220b7bb9dfc2d0fa7f744c2b4b71e8f1133350ddfc2c7fa0c39a2534caba47f12f11d7a24fd4754d73b8fe1da0aca1fd3f1aa67e379acf825ea7817ded4a9be557fac896816663c28007c11f8dec98e39861f9cfd40061292e311ed89aae4426db07ff02924c33170f8ea85c75f37820cb709ac1ad023d409a00f0c3417335c3c2e55557fc76d7cdea8ad8572209136bc24ee3f2b3c704e179faefc961e2a2c66b09767717f8279194eb4b29c3028809787a815b5fcda9c911d6a8c1dab7e4ef293adf594b9557f5782ce904f9bbf33717f9911a788f29dd82643c16e92cd1b301112b9d2d8c3417f5fdb3bae7605635c99696d6886565eb14e12e4f81036089e8c08d464cdbe1627557f849a22938ab76a28353d6ff6682777b19b345f48f292868015f4484f1ece8bfc7f8908f5b1fa9c621f1c60f18c20e096502b8355321351f8d252a3551a3ba770df557fea4416c46e8e978e4d24bf68f1bbc36a7c6a24e937d67128061ecdd0efc013207fb4c4e2b6245313ebc2e84fd30cd4004aef84bd2a40151a93462f49c26e7506fb557fabda90ce54b015a1919b04fc7385313a93d650e01abc97d4ea2939a4a8abf3577f901ca3aca1b292c5c6a1550922e912fc3d21ed9dbcca3b2c46ab298fe770ee3b557f458b081dc3dcffd435d8880848adad8f0f2ac329ad64215763e0a3086228db5a7faf2119b7c214ae78969ba62732e44d4a27b5c140e313a2cf0e18ed8e715c9309557f7b45ad842b671d75792baf30a75e45bc97f9b6dc37f86d1e6b30c0902d1bd24e7f1f7174d3d8fdbe34b9aeded13c683edd11ea2390304ae93f2846b80eb92f3a3d557ffe02e60c0135882add8584bef8b28564cceb75a3c7602dd00fcd95d73e26d4877ffec8fc345c07e1cb780845776a87475444a9ad5d006d1c0ba391a7299932fc3d557f2e40946b9ba6a5cdbeb090bbdd67917de698da5551ccf5d9fbe3a17abe14368b7f9aeb295f3776ed2ed0cfac59c56dc7082ddda9b6fb55b3bce5672dd474eab0b0557fba45e0f142fa48a7ab346c2dc38450a03b0e8e606f1032218b368e4466c6cda77fbc1b1bcc71127fe45b676f9e483b926bd80482bed59dc990c5f13506110621ee557fb2b4f4707aa7b1518159e7928ae8ee061e200a31eda791a6dedce41745a4ac787f3f5212df9218f2b491a27f248ede579de03abbd94c4b33b8082cf0a227f4d8aa557f94ae11cc3b8f36815124a4b0a5e7334fbcb9fce317bb1390e421334bd6cf6fd97fce88c2024293c40081d827eb1442391a6e97fee8350fa59e1b7b8acfc8713900557f9ebbff604be1d295ff131fc099d9dcc073d050fa52c8d5e48f76df65d26452817fecf130467c3ca6d7c047f2161ca24c032bbc3d4b2a77446d9e0dac48aff2d09a557f5e4a188a19954a007601c5864cba12194e52e1e6fb099068d4ef70e94c5d34a67fdbda1a136d50200849f8280b0c8c10720f88f3c1e0a6bdc54afc86d4ba2fcea3557fbc3f4808d7fbfcc52be674774332cddcbfc478d038fecc181566a051e636e9a07f66f4851715b29678b0cca267bfde816a0838d4b72ddc17590aadfd30fc1f1d13557f5ae26f7f062461e4ad9150ba7090b06ccf15e88f780d880900909c0e6651ef0c7f252b89bf90b319923f6559e774e32f611a27a81d0f532f5b807532a98a9da5df557f1ae48f07b56715ca2f319da11bb21e386a58350a725db6ff1a6a0632246130ae7f26fa9be578b8b817d2c38c2bf2937eb5c8c883596c0de630888dc7b5a78fc741557fa32add3446a75a8aaa1407817fc03fce86dcbb2488ccc52fd1187be7235e480c7f2fb528e6d471a01e3882e5387da3916bb9170371273d83f39d41ca7d6cf645dd557f66bda0fdd030f223d61b3fe7b17edafcfb0a4b866aa65272eedc3939dfbc4df27f38a644c74784d8c3ea245c3a1a2e10a4b1f65348c8ba4914eba002c10f9841cd557fd13c036805f47f6d024e6864983ea60b99ad6a06ea66b347d87d164c3099456b7f0630a341adb3ad67be2247788989a78092dfe1bdc3c736fed4044992d522638e557fe87e8e29e310a425b5ee5d75bd0e85fae12987660bbcdb36420831aa877a02407faa9c48affdb922d59f20f1d42ac3e33fda279577a858e81575cb3e6bb2721cd3557f369913efa08788a5b6e658878ba7f4c435f2d74a24d4575616d8f398c4279d307f72c829b6ff1176aa52fa1b14a601e30df23c347f3efcd72b6af910346dd8917d557fc1fc63a024a455c3b92631e1e2be341a1671c1c69f57f746397002f8e8fd78447f850851725d682f1253eaf508bb01a9accd1b7e85e9304c89ea15b305a8e841ad557f6c245e27871a203f13f4dfa0965350aaa954ad29085223d481f077d0b54cfb257fd535fbefa7125c4a47f58bb6d6723c954e19556f2eca67da8b68ae7ef937dd77557fb5a4e34bdf9f72712ca3f129a728dd026268647f96806263768d9c327fde0edf7f81562e4f3949fbdc22d278b4fedbaa5dce7e2385b03e958e7f52fd6ed7b68fff557f1155662f3ba0306ca84578c4d5f0e033e2f32dec05fdf3260dcc5392feee0aef7fff91e8593b941cc006a9af6dd29cf00c1d93d745cd30e13d28db6ad34229c727557f5cee98caad5c7c7b2944d8e6eb191d5be6e58ea21484ec484dd9e60322e60e197fd97cbaa9a69d46aa3f57910da3a2981ddacb51cc9a918902a0ba29b879ca9213557f727ba92c1966ab8d657ef2cdc02ae30e95fccc8877d529b49c308de9d2f2da627f493f012b4fee264d1b91d564c0d88212eeb0a4de487e2b0da91b21ef0a242cef557f88b03a75bde9d0116ef5451bfc3a39695856b188ddfefa0e4eafb3ee554a269b7fd376c0dc9e6a0a44867c5e1fefd6ecef82bbd522b0a13a792fef5100445ee323557f37e159bb27c8ba678da8a85626c732e666c067e515149afd90954b600a5cac4f7f82dba07ff31d1c675816f9969faac321de6f27d903da0f4c49327d1f3945e7fc557f3046f54f449775c20052e9a9ac10c9ceb6913a0e19a887d02c423bf30a1ade457f01c4951e729acbc05299798279cd10e5be143681a3d883a027edec470c12b1a9557f2e08022b2967de107f9a1bc230904ced7ab67554257bce6e9ea479a99b0c4e957f9db7038e59677010ca8f72fa448bad1b4f3c53346b666689163ccac31db46772557fdb4883208ab757afe85f3fb2297cb7305c3d01bcaaccf8d956b8139411244c187f4a7203f705e51df4a56139a9b86b4a0970bed7ab7a3446eaffe2289989c1645c557f2a39fae44e6a832a8fc09ce44c99a6fbcc4189e018e54771d3b230142a9152687f422cccb7cea5c0e46f340bb7b21b81debac329f72e31669c20ff0f3a05cc2b5b557f662ead16353a65f7cafb0363528e7f9776d83628a23ad1559ea8cbeeffee562e7f682158d08466d11c566d5712d4396197fdd67e65be71d83c97ef719ec468867b557f34166debf87062b5154a9ec9332f52062c2adf3864d482134c8c6a9818170f7c7faa071f48f62aaaa1f6320aaa7bd2ad2d552d05160892c14d699d38c9920d5f99557fe44b29e69468bc5f7589c2c2ecf56db5aaefaa38ade46a180c5b99a0515fd86c7f366a7b92acda364086cc991f618bf9f10b629ec0f7ae94543f96b691b69ec992557f22385e3ecaf622f2f812d9f096ad752185ee8b8c54f25b4263fa7836888175927ff3261457f4fd0b7c00a1511877ab27b74183ac470be8db3a7ecdc64335f6f979557fec5ee649cb1f99c3cbd2b11ad341b9c0ebb41f26c9046e9fbfc53e890500d54d7f2dc7a963308417ad45132da282495eb244f38a7db03940a4d808be607669c622557f37a16cf3dd5c6e3d89c541c617a0d0f77d687ccfab1b76b5104ed8f531242b157f3c1fcba39712202dbd455253568bf32dd0a3bedb5c3ff0de4b22d4e45e50dc92557fd7f3ad3ff135f3d8411498a0b3755e03af7b60469b76b35eec9b480cf0127c3e7faa31d2a33b224bee3888830916f2f56f41bb5a40ed8a3273c6e72e6992d6223a557f10d6d96785d486e4d96761778700177536372e04a32e1b707eb3e644698c58497f6ce4024642c4779dc119f2ece9b9cc34663ef4cfd6a7942d809a7de1813aca7d557ff80ea428d7e07005a3f297625ae8a14653f9afd1be5d7275400cfa8d1b67abf57fd4a194d790fcc0f5af64ad0623a90db8616ce232c92824f4b3df27138fd65b44557fa9383b95636efd30b1f6ff709eea46efe10a76d3e3b3ea5dcc9aced69fb678277faa8101e6bcc25d8e6c1c04375f2c0e9336e0b38a69ca3c5c1594014f9e6556ff557f828d31fab8708ebe604d60aaad6e8befbf8f7233fabe2af7001ba808514744867fa58e64716096e1e13583668e642bb90b4cbafc88ab1bb05b08a75fc65d12c990557ffae85a1cdd55662e0cf9c12e19c874b932e1dbd4e334e8b98ca44a7920a3ba297fa4216fadf8963db747830f6f7dffe386c78451377c8e7bc59e38f7340fc2e7bb557fc3bf7e2d44787cb559519141a4a1df6000be4018856188bd606ab5b12e4b0c187f915da9abdae48b56e38f1c8581eb1f6060cdb1aac1fd60a1040a8eab69db2431557fe4919631d0f624b9cd70f43f201eb6c7a8a3629e03df57265bae1f7cc07abd387f23aec33011cec136936404546e8d71610b1ea813717b1b6bf3b77b689326a34b557fb6af8e47dcff8068508cba35fd2a67be41537c4b800a438ebc7c329dd44b7d7d7f7786f24ec8e68c1f537753be90a834aeb9797aa2ade11dc9f54973d24a879c0e557f563627ce3e3d74e5d12beca851b89a6a57b488c89fdd5b6c803de3d07256c0917f93c4565fc7413e23aa19da3dcfb22c55a18536d0bf6400e7e5a27ac61b7d8b4c557f05bb69c64a48298baff04b70f19898ead2a9a22d08d8a37790b0b3e30e7263197f0268ef3855c7ede1fa90865cb7be57f1e39b20db2aafdd81fc63c1af98b87bcb557f36d70ddbce6a61dedfe197d77c291be0a8cdfbb849943d6fe9e0187fbca0baeb7f9fdc47a4dc677ac109a2707b2ba7a0ffa79dac07a74cd31f7e4a5082892891be557fe17b321345876464ca81d19236912ab467e0bc6671391bc88323fb3edf5ea1bd7fc7713b32d1b096c489857db2ad0b9de70d32806514c7ccfa228c3b89481aa0d7557f141d36918359d4a3b785e241ef98807dbd984e00dad24f2781dc87a79ae0171b7f68ff5aa0d3d395b63c7d13437473fd851e32c1d1471eea4ef3a8cfd334da6c8c557fad842069a2226ac8a4af5fe449bbda223449199d979441a0353ae4a04feb3d527fde31a920dbdd1f015b2a842f0275dc8dec6a82ff94d9b796a36f23c64a3c8332557f73cc944dbb843eee36b0cbdb25b268b9940390112d6c5867b12a14fb55cfd38b7fd4f97b7188f5e51283de9c7987c054bc565b916a9584807585b410167243cee6557fdb20ab3ad2ae2245b1859768404c69140969271808da30e399510d30a68209a67f6515432d9c8ed80ddc22d864380ff3c9b81ae737e57d049dd92abee2d8e1a7da557f898e46d51e2cd328c3fdd68ab59b3d1251496c151596973056245caf2394a2dc7fa8988ce170d37bbb1b7200883263a98c2ac48ac55fe73abbd3479758330ceab8557fc2b50393323af4cc3fdba0be867f76d500e77eccd44c9af7d50fd53a51256f377fd999b6a905cb253021254361eb51ac2428d229184f9dd8342bc05b348b9500fb557f44feae9f59306da5f3415743c1fa74177ec087a83bf7d9e27e357a5c5101d8007ff9cab2ea5fc2898ca670240c87501f552f715e74f50142c35920c55eb3c0ea1a557f99c73ac1b891357d930d40541aad7c32ee01e7506c25a659a2f6eb1091b153937f70f88e1f9b04f987c2714986c6fb97553c3d8824b005ea55460b0e8ed8b2a316557fa3ab34f6a0e72911c75d2ebedc0a2110a0f64bdd986c66a5e1ef974fcdec7b227f130e7a9555e59f2848b31c1782763e19b7a6b507f6deb72e7f4c13b21a120525557f846997cb70d3df079d34c15a0328c07ee0c22cf575c027c240064cefa10aaf4b7f5ecb015e7fcbaa75266dab115316acc324b61fa178afc595a7bbec2ad3268d87557fa766e76df91de995c6d112d65fff3685e863e45786da9f4c5808e1eb6dc2ffc87f3b89c29c4caf7575979389485122ae4100900f9090cd77b6d161c2f64169409d557fdbfaad393b49f469cdf4e94fa08dc39ce1b6500ef215078237d303e6cb294b597fa5d5eae9cf47406d963386d74a98ee01af32de1818181a5359249edf4812075b557fc62306bac17e5638da4c463336929f6631d641a077f2f169ae10587974fd0b907f99e400e42ce03899e6007b0d418a083bb33f84a616d66b9b8f963ec3ca3632ec557f879df3f243797ef924d4e4430443d1389256a085726fd63ffb2118ab78da8a967ff72dc72dbe9c1e753144ea6bbbd109e2a14732e3b55cb86dc7d1fdc2db15b299557f95afd8d6299c48500ecd68787b6482cede1d86db5062be284476c962f2432cb17f5d280adc813f90de504365b6cc48706c3d4507f0c05b56a081ccdfba73f4b422557f152e243edb060a45e36db5f9a7b441a0816e8cd5dedbdc33eed6a0e7ffade54e7f8839e33ea8bc27e2dca8c9b90c78bcf651bd5273f6d53154cb494f42572e41d8557f652dd32861ca3df609f85071ad2cb2a1e29c8771cd2424df015f3ac2573057837f66ce4e8e12a5403828e3fb3176b429cb926ef9dc29fd04c1b3c13ed2787d98d6557fd9d166fa543545352f634e4b64f3f406390c45db8b71cebc9b34378eb8447c137f363806242423d19f6cb56e019805eacfbc87c7b959d1032a5958652d03be30de557f4f7e78304c85155bd0d0286705e9f4d9ab0dbba6be657150bace0a7b85ca8d667f900f28469a4137321d026221002b57270ad418d26926ef723849c0bcd6cdc117557fb56571368d19519fb46dd228bf726a46d80d554bf21077c0c247017be1172a5f7f4c9b269dcc3d575a1d9f2039b01be756f8ae1c3ddecdabbb43e6a4657207c06e557f6f17b1fae5d675ed9bf1bc56cc1df69e69af7afaad7af59e35f20c78e2ea9d7c7f4b27a0a1b175d046eecd99aeeed90568a095f963493e083767ecdc655a43c3b7557f62c531c949c6540629a0c8dfc7e3e8c101d703ba4245ee0c7bbe4dd8ea8a3c217ff9e69fd05720899c19b83104ad102cfafb66e5e0a21180d323a1e83353f9e1e0557f1fe1091af9dc87a072c1c6022e3d81b7837d91e3cfbb9325bed1a6a0d47427af7f3679420a2689a4b6c6d0b9c4069e3f877187fcc89f27afc2fb846ffbea23ad35557f55a4f533d6dac9a11cd491c152c384babde2a8a9b26a33d6a986bf46643eb3cb7fcf923b997c39e6c18233b94170f5a105c93f697ce85cb0a5320d2806a760737e557f12485a190b3d5d04f7f1fdafa1e93a215b5d58e248ce50c7bb99f78630ac5e1f7fe585684885dce7d85c10ed3cc985cc75b9408a1ecf965bf1ea5397d776956bc5557f955660ba9db3d36aba12c604c70beca63a40c71be7c136ccaec702740181c4df7fc31a1bad33c21a925a7cbfea0dfbf3efd190315a315a36625f45edd0ff7b2992557fa34f1f178ecf9f00bcac16498fa5afadba54394e7d034b0a754e8cbf23686bce7f08156d83fa739acf21d9c28b7c2ac21129250725d61cbfed47acb6bae4991243557fcc53b87b50a5e102d2e1c366040f15ae6d9fb918bfae1fe9b93b1ffba789f4d17fe5f0063c1029cda3916753b401644c6cf5a2638073f3d047231d47d090ece503557f8828f94f4f8c8f04e0a49df2d0f65f18adec69084de7c074dfcfac9a181916fe7fb2e2b84e9c287c35516c8c03da30b8438afb348d4d79934a428878aa29874ca0557f2a29dfb789019e2a7cb8954624561e28db729fd7f96f1a9e3d80cddb9a3419b97fc3d9a32b5f9abf2e77ff081fbeb655fa62cbf6667e0bbe74f867e4f1f5642c93557f58352c98ae7f81539d08c0faa55688dd2c4bf1dbbd4c1f9bf097577136853b0e7f3e3016b5978c836f9869cebbdbfaa2c27c638aad0c828f51d9bb63eec5167396557f8a974664ccdf5bf982e35fa4a807eb66150c171274d54f47b85ac4dc9549d2257fda30d2751527b90f4bd5f13c25eda282f5bf413e3754522a401e5e8883bfc8cd557f3864bb3bf364ad835f35774bcbff61fb1a2c414bc98af4a624fc4173b8828f827f5d7e50d1571f2e7c1381593c23b8a9cdfa405e25693bd4ad2d1270b55e8d0b74557fb2c80f33312f266cbf386bfdf82a74e71c8e4b50e30828a59df7ca1c6c28ac5b7fae14f6e8f5575ba7c518684c9d4c820db6176fa6bd250f1959022f7c90c0dbf2557f050f9c2e1144bd28e4f09c8de6a5872f625aeb41c12faf0dabf09265018dc4ad7fe10e19f0b201c62ef6ff34e196b5cf4a058efb6d658b4514b98c6c0f289ab7ed557fc3d65393ed3a849346ea8b0e24c60f2cea676bf4735ffaa1363f97c28dc6e50e7f3422d683ab9e553a75f8aca05c7b3308366f771e4a606093673fe7cc580103d8557f5b447234b328dcad7e1ab69312579b43251820db248947f4b99643368ec373387f8f4c8eb8508f29f90be6bf2e490bf1ab5cf40f7c26e724b9d176defc6c8acfc8557f651b4804d24b95de3b375dc8bb20e90a9f7eff785da8d84ab79cf04342f457087fc80035073c01629196a7a9efbf58618468a20dd5c4261a2f4aaecf5fe4936f0d557fadc43c534046af6c70f1c7c366e7bde9cf417fd62516cf274d4accf75273d1d67fb6c77d91e1853c9460797543e6950962a973fa1ff748bd1983124d001970f0fe557ff279cfb23404b9050675c8e0c8050d98c03f47260d9c37e75b4ad96fca8fbdd47fa46c9a5e42ee711d67cec634bfb278f07133f8b3c236b826c53d763ec9766625557ff07f2da83753db9fd6fa4514ebe43e82a7b6a3fe4955f51ac170bb8108a7434a7f8f0cd9a2d737556152d2ab62be8e7bbfcf483da76c49623e1c8057e78c24bc08557fe643d4e12c499e47021c30ee2940689435768e9c2f62c0cec60ca4f83e9892c07fcf031daed8cd54ba3768cfa822100cb933a5add739734bf57b9a27bf97d0fcbc557f8b10fdccf3a4ae8c8f955e4bb6e96bf7e83aa1747faf0f7d1b3f15e3ca299f2b7fb88c5d4b0162e6d8f1494e129e56e6073848a255f4954dcff5bb9329f31dbee4557f05f218091c86c01ac8550c1aedd16b7d93221a3cfa8e9f14a5bbe9938d7543ff7febb71b7f661fdff5064d547ea9effc0133cb1d381f9e8c95e47c736203888b77557f692f3b9ecf7682df49f47a5e4ab30e7e7a623650bbd5cf3fe515b380d606ab017f783926abdcd8d43537324cb7332cc2fd6f4cb94df1d7b2e3e38cdc7be93a3e6d557ff3c455276c2bb31e2024e0df0a2895d286918659a28136d9d52ed47254b9531c7f734e32370a77d0a5416ba277ec49e3743e7e06b5ee23b7d72e04723b65bfbefa557fddbbeb7da840fb7cce492c77c234471b2c4756cfced86527ddbadb35ee3783537fba82e861786ed4a069a1bd35b14fb83966b187c5c9dcb2b719c2ee2eed04cddb557f90156419b5feceafd068406226dd91afb8cf2eb435f1a6a18e54c57efad9b8de7fbaf93649af43ca550cabc4bd9b00b2cb8300bebbb63c955780c0fe18daa3aa1d557f9cd4125af6be61fe5e2aa36e0515879d39cb9cb73c0b40fcf8502775136ca05d7fd6f751104ddfead9549c96fabdbd4d2fc6876c8cd9a49ea4a821de938f71a011557f0a253041b99ce28b86dde27b93187c6cdae856956bcf108f6f8ca7de76202d727f3568ac4853d98daec689c5f2aa7d3141dd0256607e02057f4de3da3f333907ff557f15dd747feda5303671a00ac081129033adbde666436e35250b05812ce7225bca7fb0dd6ab64c91b13c13faf41aed0cf4d2ab8c259821710faa2ebcf849f80109e2557fc02ae0a01e3069647714226a4d6ffe0f416698bcc4fd4c3f0c1bc0391519d26e7ff8dec45b09ba9ff7b8cfbab28344500f078807be21a2488d2e39ae8bd13efee8557fe12befa530480449b164522e1f449e36a845132d2fae947fad6c3cd798b93c3b7fdcaacc0f954b66868c185f40924dc966087335bada145e013334bcdf29235b3b557fd9ad7840a0b04c36f0639f93d97666c08df9713be41e315bd6341eff2460dc5c7f63778d86b7c1cc63d461cf2a2a5f819646c4ddbe8bca8e30d55538fbb429377a557feadaa256f8de320fa2ec43bd99c410d190733b30297b50e36b5080345bf288d27f26cb023a62a4a4bd48cfdc20a3f744248a60764b748e90bf99d02300bca97b98557f2888a5034a5782cb1de792c5cab2ea8c95ec393694895929add4aa2d55d25d617f251c035367d261dff4c2c6306f23c24cd6a64dbe9598388376ea7aaabda9ab80557f95085d567f1c0ab86f7d146d697f390d4f77610177e8a17e016a0efa4da6d1be7f2979da46fa520d2a89531bdd54b474ac7be6cfa626f970e2f1d2fb85348157f5557f0c6a2909792a08f0c17d3017d375ad664e2567bdf7935f7dfa03b0aee0dda7d57f2dfee5ab4595cb76d8156844c96b8cecf30721d368c1b7381b308a81b5b8ed36557f1a9b629afbf4b183e5011786029348abb367ab062456acec116cd6ff210df9ed7fb2d3fbfd36f4dc9c1b4c13d0ee8b8f48c9d60724bca4b05f2f6de7304d7d2453557f12ae4581b7af256b70c040b4329b12214b114e5c7b5c00d48c5e240c0549e7ac7feb82697131d673ceff9b77f3f2da8ccc6d5a23400e1742340a8e47d81b39c2b2557feb867ea531c8fa0ee36cad6fff1bed461950b5d6ebed07c5adab76929e5912997fddf72b2f62b0846ca7da60f0df0f94cdb28e603ef5291f65615841a7468c44c0557f8212e0d37184b7fd6e4369a638f99e30af798a9c5d4ccfbde51885e042473b1f7f6b02e248a9e436441474617807e267a743af2dc77080985794afbc3a33c25d4b557f7ef9e666413b6e346ac0a5e9d80ef1612d6edd04ef14629564faab10b296a72d7f6d80f7e12c1c0692af0f8e8de3e6d36283e3918239a2284b2fee2fcc48737cdb557f487d10feda54c78ef4c60f09d1ce4460b8557e2cc86bf1a9d12b63425d98a73f7f3992491d0536d94062aad80f95ec43a4dcd28bab9efffb32d0ccec38ce243967557fc268b135329d80e827c3988d766e327a14ce181ac633a3622ce86eb9c313c10b7f8c35a7cc018a07c32696c158fec83de2008ea9d1893ad89d5bf86e4b097790f8557fcc026cc79a65875f9074a4449426d47ca79a6fdc4697fa9617af1904402de30c7f7ea9ef6961c72f24c672381b2c6f42f72eebb176da225658897880d3448d61f8557f919a6ed5d2eb768d312b3cf64f6e1c91235b48c329f41fc91f32fa03d9bda5527fd4f821b75bd9255c55bd5e52a772607447a07e2025198568f195f2ae4cce3c8b557fed06115c713cd6fe2ad4cb59701453c53dcb6c8841ab725230bbe1cb55d5ffc27fd008911bd2dcc165bf3c5aee9550c1c4dc935a06b7f54c4324664df48d868234557fefe11a46f29433a69259289b36663e9a2ac2dccfd959339c39894331f2fe953b7f324620eecbf610ce15fba7682f3e419cd61065ea9a9880d4bec7a2ac557733ae557f8f42939d0de45b67b6912e60a2f1ec7eb2b5ee06ee7df22bd74f149b8573daf67f717303329b90af548093aec5568fdd4f1276adac8b1cd7d4f50ceda88f99ecc5557fefcce2f150331e37a9e8362d2969c0bff63633b0ef9fdbbf466404db2749e3c67f490733d88662093f7c070e935a22912d21e4b35345a064e9e6420a5855603926557fc136b465b68f78a83db6d05f639bb37a45fff5567d91b954ec6d0be266c77d497f7c263fa0a5ccb147804e1651fd02a4a91952936ded9df2b9563f58d3237deb6a557f50467238efe4b40ba2245059360401100f78a799696815c7144aa01defaa5ba47fd66e2ad9c622d8fba62695dddfb1dae629a4779e0b6cb52d0a48eef9e5021d6f557f3a07dfbba08ddb467e7f55361ed63fd02daa847db2596f199338b9b3223e45e27fee35841c17548388587a784902063d05d55a9b0c2bd1d722019b21d0acb575d2557f6f849eb126cb1dc87eb588c34fd482eb8e861395c992b0730b88df792f261b8a7f4e25f62d67e34a563813d5645c13b341601d63281eb89c32000712abab8a3685557fb4a82f98b96b64aa4fbdf9ab26db424f9facda8fc11bbbc6195028feb25567437fc404db7f00c1274b763e6db100da3a7c0cc4c5bbe34a561d92f2446549c0bee6557f98c3f4dafca9946ddd7fdaf52888222f3455f28275d9073047e94e114e78e1817f5fa26356ce37771cd609fa4b6c7877abc1986c28675eadef61381e965c0cf84e557f16df93ccda38738f5ad8ca5b3de0e98f62afe088c8519f3ed663dacfef1e977a7f1c5b9adb89e7a5034f28168f6ec1bd0b50cad44b052fe0179c07fc6daf14e759557f19ade9290e6230aa34f05bd1dd2f2d864c7837dc4f67efba7766ac3a688fe6627fc5f2c791ab4e0b1a0b6c600884b07e98575b00ebd7c3166c4272a53bebf71403557f752294bae6c061e5e009bd65681ac5df76be0d8bfd2fafebb53ccdb0d7646a767f45389c86b16f3bfaac84be1b07c584063b2e1511047914f32011541733b90354557ff220f3915c29bca7ed5002a795815a7f835823d4a70cc153d7f267e0817cd1187f8768e3ed19a5d00be410e8d8ad51c65c3aa78049339b9ad4303f61914e359db3557f1179d0892a2e5d43761d97552edde68aca58963e040a24a0d3b0b2dd6cef47a87f87f03f569463e130e96f12aa922e8a0ab275ecdc3047db5dcba47024ff9c9b38557fb80310dce1d65c454cf6c407b51a1b510b36cacc81f586e2ba6d33bd835924e37f91d04e206f89145185d7c0a82618aa78fe710bc8a1b4b414b377926cf5e3a66b557f62b70602c5e0639528a780b9536bd9ac7544a040347a9055ba6c94eb4a3eea517f30cd5015e58b9c24eb2595e46f57007c5ed8a4ec876a16d456573afa20d3e9f5557ffd59914727fecbde053b642e5578d0d2431c8bb45b428b64765b270406444e3b7fb5811a4abf7b573219c1d39db6be39fe8ba4ee78a30ba556c74e023b0702f559557f17fab55e7e82131b83c78f3a77294898bf4d5ef0613097bab861306804dd42407f7903255aba4390008532ca9a1db9d3e5579e0c90cb37a618669884b9cc97bc9c557fb82cf21c37c587cd04246c2fe8e5548efd00c17060ee2871429d81f7755ef1107f14cf322b9fe89831c3ff721c8952dee07c9cb0b625aac77d22884e6aed8ffba9557f988b3477e88f23909b5c0a09f8c689fedd59eecb868a294a0ca351823146f9817f37517ea3ac03e4a4477113ee48f53de2a24315b2b15853deb3d7fdf7f06260b3557f9e11ffef69f46a2415e5d3540c61da673488cc730217708e79e8a56fb060e8477fc0d27dadfcf8ee0186a0f6fe9b5805a51e99869050491e4a3040efec012a214f557f629128f7e24d93e8c4aace58b4673d9e35f9dec26d0663d16eb823bd17fca7c27fa57aae0b1e878b4cf2d1f237d2c6d245fa2af12f527cffc45e0a81d7b3c46abe557f2d629cab81e33db7e048dab910c79d72acfb973b17625b96972ce5bc17b2ac4f7f41d63e1348ead7043feb8677b52ff813a7a3d573fdf99c917846a69e8e7b7e60557f60f6fc5b612b2fdc3740a4c9ee809777f6bd5bf71eaec7040036db21daa4586d7fb9ec96904d3ea9e7b01f30f8b9a841d70b77145e37a183ebdbba2b0733adc0ec557fa80e562644ef7524526554f216cd5fdf9add0d598382facca41c56ba4b1f37e97f6b8cf60b1c01bbf37fa4fe37b091c3e1fd53fcadb1c65a15201b744274a8038b557f307294a46497c93728359e895e68d115bdfbafdef5ee8061b8d8166bf2af85217fc189f84ce68d330a8fdf55d40ed2705c7b14e02dd92ac2ee8966971c2fb56ec7557f698f011e9b2e4b90b091a7caba3ca35dd682745391f606e6cc687e0f2daa22bc7f977b44b92ba69610c99ea306058ffef6449dfef2a9111a242e2487f3b67bd884557f7f4ebae60350d098f834b671918984c9ad5c05d893f7de4793dd068006f196f07f6b3535dcbb0f87432b536ddc0f6165644dfa3bbce67d5abe1f0b73d6601956da557f6bf6efe7ecdd3d42312df60bb708720765d819e58f3f59fb50946ffb6fc4f81b7f7c975e4d09f78a10e75b57c2638b0a3af2d6846cb92207fbb82a762fd9373ca6557fb43fcdf724e2d2c62db5e49a88a2af94067ffe8984e37681e664ff78cccde4c07f127b14b2edef4db82d31bf69b138fbb6ab7e5213e2cb87667f7a2a942f6e5161557fa0e322a1bb63c7f43ca00136a60f6352a5457c31a66aea20b33754562e4bdd767f5bd290414b404036f9d63146803dd83b59a8e1905062a5bfed8b0154d20a390d557f1cc273760d600d6d76604b2ddb5d9f6b7bdd32aeb231c7507521d85cd4bd30357f4dcf6190957b4c81ae2c63d03e0734b5724c3492a007dbdc3fc548e91171f626557fcf3072ad71bea0ff55900df08eb223f660a32e2d64e692c1bb6a57644e697d7b7f37f2436c109582eba9c6e39b2ff98bcc34fde856d556877d2161d4e5fadc9c76557f1e2029a25ae03038be0fa85287b18ecbc3fcd6144f78ac67996dae2f16d79e6f7feeb7cac83fcf137a84eec2812d98dee92a62782e4c9406906a6f9a9b46c1b104557fc806d764e94bfbad0ce94201376899ee64ac0e37f10143a20208b6225e120e757f01bc820c3710d28a2e3c2653f0fd40ac0fdb730de92a844459815ac2573237ea557fc8d3c5ea0e45b01eb88800b3d186e4f054ed967e3aaec0721458a2c8d67f716e7f62a39da736048c4fd13d9f48570d6d5070921cadab92e6b5c00a5c3170390e8c557fb66f590de840a0b68b431ba1c4c7d493d9bb7996b8f92817627ae91ff85f94fa7f50f395cf935269ec6c0da54860a5c40e4a834461db1470816d90e1e42a721999557f69eecc684348c834fdf786a23a2c0d7bf2b6701c951fab54aaba1b4ae870b6427ff5f4f145f249ec8fd417deb07ebba6ad75c6c8d3b9078a26ec16edbc5b4cb132557fa6ae29b62375dbf000c8ae1048e0fcab7b56e03949201682553ed0a548278bf97ff9088989bec992d4b345f9cf3b6c87c214da535c23c03b9453857c00745af36e557f0a39e3389d2437d160f3d95cdf30f61c1afd52a2f82cafd2ac32a6b6ea823e9b7fa85314c48458d1c61ba494ca89d053620c27a8bbb40c8ddcf92a7b2592a12ac2557f154239aae4f546bc027500eae27c714ce01ad0200462bf47c6807564e0e4a4687fe2ffadc0720eb0dde255dc74887036ec94d99587c73ef2a7e40a12b95aff8683557ff09bbb2d19218100f0dd9b29f6b7ac6abd09ba145a1e9a6df989b1e39f097c227fe4fa39448089f3d370d6488ea9c6d5b401f76e933e6a6aefb9ec30b63fa00011557fe7a7c1f87beafe1895c2bcd421fc77d734f76799d2c0d9c23bcf71b9fffc26997fdf2d7fb0a6e8a0422cc725794dcba437aaa8f0c819d6c5197ae7e935b74d0a67557fbb4e9c282c174e3d438c63ca40ecba99b6e4cb0fc55c6c8cc940fd3f5c6528c97f28a06524829b6fed74df277d29b0e9d5843614df83ac4257ee812125675fdd54557fed2d5bbf62e6bcdc2e1ee1ba63cf2781eb7ee668fb9eb2fd9ee717d0ce1a6f837f4a9ab6c152794dd891130d65b49535f6222d24e4c9a3f06f616c3634b24c9fac557f6cc625d132fbfa408f6bc106176db4ec6fec3b8fa55565d0615b0aad231933047f1533165d5b3707ad2be4cecb2033af8462008816c6f09e1d5e6278665e2b7b2a557f6697e0fb9053689008e7a063e84ad084bf2ee29fa8c5bc60857ff40c6dd96fe67f1d11d70d9679d4776308e162820fd9496b0c550fed5cf4d35cb4a0f5bd44aaf8557f1e72d341b4f5f75fdb9e881516d6b31725a066a5ed7538a05d9093041e8879e77f941a419570a1ac7361c777110e70919980aa20af68c061451b272502d1c7bf87557fc6c7af64486c17903cf4e142f46b27aca0a3876476d45ca0f8a4cc91301edec47fd976efa78ad29ed9a36b7b646a8316d94e2c0992fc889454e231f704190e7a66557f1ade2393a6111780d70e239968f7d4f48828c7d0d62ad9d58aca5cc5fd6f2cfd7fb8a975c57cc95bf9f485ccf68ec290df469a032656c082af65fc17418ba70fb5557fa54c07a3fe146ef5bcca630eeedf5f6b3cd9b7d9e90f2b342daf56d6db6df70e7fb252a9d13e20530cbaa733cb91aed839b29120771bc853098588c086a13ca880557f9c81aa286afca7471f51b6a9d1a04236ef9def691959d47c2b857fb27d3589687fa5701d499a56a9d201c72f96fb0d057824242b80d6f5677a454f8b895cf90823557fb16129d9c3c9b419d2e6dc68cee386498dcde84c0047549322b1f08f2ae57ea47f6a17df76a53db60cc617a1f968abe77edfb6d38ba4674d096259e82be858acc1557f28fd198a2a5e173b9c4ffa110a11a50cde6f2bb1432625082bf9be1224fba75c7f3e5b1deabf8098b85535d86f964291b22959f320a5bebb1e8c42490c19a3e49c557fd1ab6dd5d7e9f7cdeb7cf045e9bedb42820d97082ebe8953eb7168886959077d7f30a9eb74197dd95278dd0e12f14312c19fd298cc7f1d53f633b5b649d52b143d557fc345a1ddf732db106ca1e78e7d0fc7d41d6e674c99f3a8ab88dfe9c9ebeda19f7fdb6ddb67e013f11f79c7d44210cb7f24f4fad396664369acc77667e2f9dfb075557f53e96f44931cba77b5250d552f8044384ae19a88f75d80efd8963508d3f06dd67f1ef22d257b19108950bb2d931d33ea1b7975b638d95ce43de03de10fe7909354557f7bcd0928e4f3c1db66c2dbaa456bf46aacd892725a9bc4a1c8b87a594c693f187f986d56fe2954bacde776e5a83b13aa605cf4db18d945bbea664eb3dc8135d4c1557fa595e686f1fb8123bf00b67d220b5853f8ce470d942387392b06f06a6749d0de7fa3460b9064575a01ae448ac16880d3d6297c3b1b3ed6401e5e55576437da869c557f61b34855bfdc9b8ec97bf582bd407e50cd6e1247cde484a4daacf29dcce8abba7f5a13bb8468ff08ea1be5434a63d147aa9a75598c1472c6c3689ce0cc412fb137557fde70d6d799ae74d61c2282c904b790b4d8ea4ae9cfc6f8981e16a9874846e4ec7fa98a32f7a59f3f6bcbed1c4f043d749c3e80bb1dd0bed953d203c3da51c5271c557f32000514e1d34a85f7b732c6a0f16d27cc25ffb238de1c5c46326fde1a58e3a57f4c337270162aac3e0998a27c3a2ab9613a51ab704ee469e241cb021bc0b88df4557f6ff1a8f2e1ba2de7cc48ca8f6006a9401699a07032cc1168e2e7f06dd0d0fc227f745422c7add378c86389db86ee5a6e595d74dcf073cc88056897d918f6a4f791557f7f391690461b8e3468e2f6ba0fcba50df0195bd6d1bb187180650b00b2a13d5a7fbee52b3794c72b8448b2af65a582f9b17decd7a1d1482173158d077f085c0718557f6bbb316d292155ad8d2b47a03504033efbf70074141130e9e346a798f59049217f3a8fda77e6934db3f4140780978315362cefedca473702bda27d4a25896dbf3d5560ff81527f395ebe57b2b0ca2592bc9b173eaaedf722c0121cf908386bf2b56d0179fde9c07f58ae9129f801e721b1bbf220c77ba8c48badd9b887f33def390a8120ed73c9cc5561194590819061432b90396000f3fe608060405234801561001057600080fd5b50600436106100625760003560e01c8063638efe451461006757806373e16a291461008d57806376de1e1d146100a057806397d15425146100c8578063cad4b8171461021b578063f7ff59051461022e575b600080fd5b61007a610075366004611701565b61024e565b6040519081526020015b60405180910390f35b61007a61009b3660046117f0565b61039a565b6100b86100ae36600461181a565b1c60019081161490565b6040519015158152602001610084565b61007a6100d636600461183c565b60008190506008817eff00ff00ff00ff00ff00ff00ff00ff00ff00ff00ff00ff00ff00ff00ff00ff16901b6008827fff00ff00ff00ff00ff00ff00ff00ff00ff00ff00ff00ff00ff00ff00ff00ff0016901c1790506010817dffff0000ffff0000ffff0000ffff0000ffff0000ffff0000ffff0000ffff16901b6010827fffff0000ffff0000ffff0000ffff0000ffff0000ffff0000ffff0000ffff000016901c1790506020817bffffffff00000000ffffffff00000000ffffffff00000000ffffffff16901b6020827fffffffff00000000ffffffff00000000ffffffff00000000ffffffff0000000016901c17905060408177ffffffffffffffff0000000000000000ffffffffffffffff16901b60408277ffffffffffffffff0000000000000000ffffffffffffffff1916901c179050608081901b608082901c179050919050565b61007a61022936600461181a565b6103b9565b61007a61023c36600461183c565b60006020819052908152604090205481565b6000610258611636565b600061026c6100d6838688600001516103ce565b905060008661027d6020600861186b565b6102879190611882565b9050600061029e8488604001518960200151610441565b905060005b828110156102fa57600081815260208190526040902054600185831c811690036102d9576102d286828561047d565b92506102e7565b6102e486848361047d565b92505b50806102f281611895565b9150506102a3565b6103066020600861186b565b81101561038d5760008a8a6001846103206020600861186b565b61032a9190611882565b6103349190611882565b818110610343576103436118ae565b9050602002013590508185901c60011660010361036c5761036586828561047d565b925061037a565b61037786848361047d565b92505b508061038581611895565b9150506102fa565b5098975050505050505050565b60006103a4611636565b6103af818585610441565b9150505b92915050565b60006103c3611636565b6103af81858561047d565b604080518181526060810182526000918291906020820181803683370190505090508360601b602c820152826040820152610407611671565b6104248660206040518060200160405280600081525084856104ea565b61042e868361063d565b610437866106b8565b9695505050505050565b604080516028808252606082019092526000918291906020820181803683370190505090508360c01b6020820152826028820152610407611671565b6000610487611671565b6104a48560206040518060200160405280600081525084856104ea565b6104d88585856040516020016104c4929190918252602082015260400190565b60405160208183030381529060405261063d565b6104e1856106b8565b95945050505050565b8315806104f75750602084115b8061050b57506105086004856118da565b15155b80610517575060208351115b156105515760405162461bcd60e51b815260206004820152600660248201526537baba3632b760d11b604482015260640160405180910390fd5b84516000908190528551602090810182905260408088018390526060808901939093528188018051636a09e6679052805163bb67ae85908401528051633c6ef372920191909152805163a54ff53a930192909252815163510e527f6080918201528251639b05688c60a0918201528351631f83d9ab60c0918201528451635be0cd1960e091820152975185518051630101000060089390931b63ffffff0016188b18919091189052865185518401805190911890529583015184519091018051909118905283518351909501805190951890945291909101519051909201805190921890915290910152565b8051606083015163ffffffff9091169060005b828110156106aa578160400361067a576040850180518301905261067585600061075d565b600091505b600061068b82850384604003611625565b90508083875101828460208901016004600019fa509182019101610650565b506060909301929092525050565b6060810151604082018051909101905260006106d582600161075d565b60005b60048360800151816106ec576106ec6118c4565b04811015610757578060070360200261074884602001518360088110610714576107146118ae565b60200201516000601882901b63ff00000016600883901b62ff000016600884901c61ff0016601885901c1717179050919050565b901b91909117906001016106d8565b50919050565b61076561168f565b6101008161010060208601516004600019fa50636a09e66761010082015263bb67ae85610120820152633c6ef37261014082015263a54ff53a61016082015263510e527f6101808201818152639b05688c6101a08401818152631f83d9ab6101c0860152635be0cd196101e086015260408701805163ffffffff9081169095188516909352915160201c8316189091169052811561080e576101c0810180511963ffffffff1690525b825180516020909101517cff000000ff000000ff000000ff000000ff000000ff000000ff000000ff601883811c82167dff000000ff000000ff000000ff000000ff000000ff000000ff000000ff00600886811c8216929092177eff000000ff000000ff000000ff000000ff000000ff000000ff000000ff000087841b8116919091177fff000000ff000000ff000000ff000000ff000000ff000000ff000000ff00000097851b8816179686851c90951686841c909216919091179185901b161792901b161761096f565b9182018051918301805190920190950163ffffffff9081168083529483018051909518601081811c91901b1781168086529390920180519093018216808452855118600c81901c60149190911b1782168086528151019095018116948590528251909418600881901c60189190911b178416918290528051909101831690819052815118600781901c60199190911b179091169052565b61099663ffffffff8360c01c1663ffffffff8460e01c1661018061010060806000896108d8565b6109bd63ffffffff8360801c1663ffffffff8460a01c166101a061012060a06020896108d8565b6109e463ffffffff8360401c1663ffffffff8460601c166101c061014060c06040896108d8565b610a0b63ffffffff8360001c1663ffffffff8460201c166101e061016060e06060896108d8565b610a3263ffffffff8260c01c1663ffffffff8360e01c166101e061014060a06000896108d8565b610a5963ffffffff8260801c1663ffffffff8360a01c1661018061016060c06020896108d8565b610a8063ffffffff8260401c1663ffffffff8360601c166101a061010060e06040896108d8565b610aa763ffffffff8260001c1663ffffffff8360201c166101c061012060806060896108d8565b610ace63ffffffff8260a01c1663ffffffff8360201c1661018061010060806000896108d8565b610af563ffffffff8260e01c1663ffffffff8460601c166101a061012060a06020896108d8565b610b1c63ffffffff8260001c1663ffffffff8360c01c166101c061014060c06040896108d8565b610b4363ffffffff8360201c1663ffffffff8360401c166101e061016060e06060896108d8565b610b6a63ffffffff8260601c1663ffffffff8460c01c166101e061014060a06000896108d8565b610b9163ffffffff8360a01c1663ffffffff8460e01c1661018061016060c06020896108d8565b610bb863ffffffff8360001c1663ffffffff8360801c166101a061010060e06040896108d8565b610bdf63ffffffff8360801c1663ffffffff8460401c166101c061012060806060896108d8565b610c0663ffffffff8260e01c1663ffffffff8360801c1661018061010060806000896108d8565b610c2d63ffffffff8360e01c1663ffffffff8360601c166101a061012060a06020896108d8565b610c5463ffffffff8360a01c1663ffffffff8460401c166101c061014060c06040896108d8565b610c7b63ffffffff8260401c1663ffffffff8360001c166101e061016060e06060896108d8565b610ca263ffffffff8260201c1663ffffffff8360a01c166101e061014060a06000896108d8565b610cc963ffffffff8360201c1663ffffffff8460801c1661018061016060c06020896108d8565b610cf063ffffffff8360c01c1663ffffffff8460001c166101a061010060e06040896108d8565b610d1763ffffffff8360601c1663ffffffff8360c01c166101c061012060806060896108d8565b610d3e63ffffffff8260c01c1663ffffffff8460001c1661018061010060806000896108d8565b610d6563ffffffff8360c01c1663ffffffff8460801c166101a061012060a06020896108d8565b610d8c63ffffffff8260601c1663ffffffff8360401c166101c061014060c06040896108d8565b610db363ffffffff8260201c1663ffffffff8360801c166101e061016060e06060896108d8565b610dda63ffffffff8360201c1663ffffffff8460a01c166101e061014060a06000896108d8565b610e0163ffffffff8260a01c1663ffffffff8460401c1661018061016060c06020896108d8565b610e2863ffffffff8360e01c1663ffffffff8460601c166101a061010060e06040896108d8565b610e4760e082901c63ffffffff83166101c061012060806060896108d8565b610e6e63ffffffff8360e01c1663ffffffff8360c01c1661018061010060806000896108d8565b610e9563ffffffff8360001c1663ffffffff8460401c166101a061012060a06020896108d8565b610ebc63ffffffff8360601c1663ffffffff8460a01c166101c061014060c06040896108d8565b610ee363ffffffff8260001c1663ffffffff8360a01c166101e061016060e06060896108d8565b610f0a63ffffffff8360c01c1663ffffffff8360201c166101e061014060a06000896108d8565b610f3163ffffffff8260601c1663ffffffff8360801c1661018061016060c06020896108d8565b610f5863ffffffff8260e01c1663ffffffff8460201c166101a061010060e06040896108d8565b610f7f63ffffffff8260401c1663ffffffff8460801c166101c061012060806060896108d8565b610fa663ffffffff8260601c1663ffffffff8460a01c1661018061010060806000896108d8565b610fcd63ffffffff8260a01c1663ffffffff8460201c166101a061012060a06020896108d8565b610ff463ffffffff8260801c1663ffffffff8460e01c166101c061014060c06040896108d8565b61101b63ffffffff8360801c1663ffffffff8360e01c166101e061016060e06060896108d8565b61104263ffffffff8260401c1663ffffffff8460601c166101e061014060a06000896108d8565b61106963ffffffff8360401c1663ffffffff8460001c1661018061016060c06020896108d8565b61109063ffffffff8260201c1663ffffffff8360001c166101a061010060e06040896108d8565b6110b763ffffffff8260c01c1663ffffffff8460c01c166101c061012060806060896108d8565b6110de63ffffffff8360401c1663ffffffff8360601c1661018061010060806000896108d8565b61110563ffffffff8260001c1663ffffffff8460c01c166101a061012060a06020896108d8565b61112c63ffffffff8260401c1663ffffffff8360201c166101c061014060c06040896108d8565b61115363ffffffff8260a01c1663ffffffff8460601c166101e061016060e06060896108d8565b61117263ffffffff831660e084901c6101e061014060a06000896108d8565b61119963ffffffff8360801c1663ffffffff8460201c1661018061016060c06020896108d8565b6111c063ffffffff8360a01c1663ffffffff8360c01c166101a061010060e06040896108d8565b6111e763ffffffff8260801c1663ffffffff8360e01c166101c061012060806060896108d8565b61120e63ffffffff8260801c1663ffffffff8360401c1661018061010060806000896108d8565b61123563ffffffff8260201c1663ffffffff8460001c166101a061012060a06020896108d8565b61125c63ffffffff8360c01c1663ffffffff8360601c166101c061014060c06040896108d8565b61128363ffffffff8260c01c1663ffffffff8460801c166101e061016060e06060896108d8565b6112aa63ffffffff8360e01c1663ffffffff8460401c166101e061014060a06000896108d8565b6112d163ffffffff8360601c1663ffffffff8360001c1661018061016060c06020896108d8565b6112f863ffffffff8360201c1663ffffffff8360e01c166101a061010060e06040896108d8565b61131f63ffffffff8260a01c1663ffffffff8460a01c166101c061012060806060896108d8565b61134663ffffffff8260001c1663ffffffff8460201c1661018061010060806000896108d8565b61136d63ffffffff8260c01c1663ffffffff8360201c166101a061012060a06020896108d8565b61139463ffffffff8360801c1663ffffffff8360801c166101c061014060c06040896108d8565b6113bb63ffffffff8260e01c1663ffffffff8460e01c166101e061016060e06060896108d8565b6113e263ffffffff8360a01c1663ffffffff8360601c166101e061014060a06000896108d8565b61140963ffffffff8360001c1663ffffffff8360401c1661018061016060c06020896108d8565b61143063ffffffff8360601c1663ffffffff8460c01c166101a061010060e06040896108d8565b61145763ffffffff8360401c1663ffffffff8360a01c166101c061012060806060896108d8565b61147e63ffffffff8360a01c1663ffffffff8360a01c1661018061010060806000896108d8565b6114a563ffffffff8360601c1663ffffffff8360e01c166101a061012060a06020896108d8565b6114cc63ffffffff8360201c1663ffffffff8460001c166101c061014060c06040896108d8565b6114f363ffffffff8360401c1663ffffffff8460c01c166101e061016060e06060896108d8565b61151a63ffffffff8260801c1663ffffffff8360001c166101e061014060a06000896108d8565b61154163ffffffff8260201c1663ffffffff8360c01c1661018061016060c06020896108d8565b61156863ffffffff8260601c1663ffffffff8460801c166101a061010060e06040896108d8565b61158f63ffffffff8360e01c1663ffffffff8360401c166101c061012060806060896108d8565b505060005b600881101561161f57816115a98260086118fc565b601081106115b9576115b96118ae565b60200201518282601081106115d0576115d06118ae565b6020020151856020015183600881106115eb576115eb6118ae565b6020020151181884602001518260088110611608576116086118ae565b60200201528061161781611895565b915050611594565b50505050565b6000818310156107575750816103b3565b6040518060a00160405280611649611671565b81526020016116566116ae565b81526020016000815260200160008152602001600081525090565b60405180604001604052806002906020820280368337509192915050565b6040518061020001604052806010906020820280368337509192915050565b6040518061010001604052806008906020820280368337509192915050565b803567ffffffffffffffff811681146116e557600080fd5b919050565b80356001600160a01b03811681146116e557600080fd5b60008060008084860360a081121561171857600080fd5b853567ffffffffffffffff8082111561173057600080fd5b818801915088601f83011261174457600080fd5b81358181111561175357600080fd5b8960208260051b850101111561176857600080fd5b60208301975095506060601f198401121561178257600080fd5b604051925060608301915082821081831117156117af57634e487b7160e01b600052604160045260246000fd5b50806040525060208601358152604086013560208201526117d2606087016116cd565b604082015291506117e5608086016116ea565b905092959194509250565b6000806040838503121561180357600080fd5b61180c836116cd565b946020939093013593505050565b6000806040838503121561182d57600080fd5b50508035926020909101359150565b60006020828403121561184e57600080fd5b5035919050565b634e487b7160e01b600052601160045260246000fd5b80820281158282048414176103b3576103b3611855565b818103818111156103b3576103b3611855565b6000600182016118a7576118a7611855565b5060010190565b634e487b7160e01b600052603260045260246000fd5b634e487b7160e01b600052601260045260246000fd5b6000826118f757634e487b7160e01b600052601260045260246000fd5b500690565b808201808211156103b3576103b361185556fea26469706673582212209a9aaa6afb176c43a5e08d872f192acf570a419c2dee4e044c27f1394ead4b0864736f6c63430008140033","linkReferences":{}},"methodIdentifiers":{"bit(uint256,uint256)":"76de1e1d","emptyTreeHashes_(uint256)":"f7ff5905","getRootHash(bytes32[],(uint256,bytes32,uint64),address)":"638efe45","hashBranch(bytes32,bytes32)":"cad4b817","hashLeaf(uint64,bytes32)":"73e16a29","reverse(uint256)":"97d15425"},"id":22}