{"abi":[{"type":"constructor","inputs":[{"name":"_mailbox","type":"address","internalType":"contract INexusMailbox"},{"name":"_selfChainId","type":"bytes32","internalType":"bytes32"},{"name":"_nftChainId","type":"bytes32","internalType":"bytes32"},{"name":"_nftContractAddress","type":"address","internalType":"address"}],"stateMutability":"nonpayable"},{"type":"function","name":"mailbox","inputs":[],"outputs":[{"name":"","type":"address","internalType":"contract INexusMailbox"}],"stateMutability":"view"},{"type":"function","name":"pay","inputs":[{"name":"tokenAddress","type":"address","internalType":"address"},{"name":"amount","type":"uint256","internalType":"uint256"},{"name":"nftId","type":"uint256","internalType":"uint256"},{"name":"nonce","type":"uint256","internalType":"uint256"},{"name":"to","type":"address","internalType":"address"}],"outputs":[],"stateMutability":"nonpayable"},{"type":"event","name":"PendingPayout","inputs":[{"name":"index","type":"uint256","indexed":false,"internalType":"uint256"},{"name":"to","type":"address","indexed":false,"internalType":"address"}],"anonymous":false},{"type":"error","name":"AlreadyPaidFor","inputs":[]}],"bytecode":{"object":"0x60e060405234801561001057600080fd5b506040516105bb3803806105bb83398101604081905261002f91610075565b600080546001600160a01b0319166001600160a01b0395861617905560809290925260a0521660c0526100c1565b6001600160a01b038116811461007257600080fd5b50565b6000806000806080858703121561008b57600080fd5b84516100968161005d565b80945050602085015192506040850151915060608501516100b68161005d565b939692955090935050565b60805160a05160c0516104ce6100ed6000396000610257015260006101f40152600050506104ce6000f3fe608060405234801561001057600080fd5b50600436106100365760003560e01c806371e6c5ef1461003b578063d5438eae14610050575b600080fd5b61004e610049366004610325565b61007f565b005b600054610063906001600160a01b031681565b6040516001600160a01b03909116815260200160405180910390f35b6040516323b872dd60e01b81523360048201526001600160a01b038281166024830152604482018690528616906323b872dd906064016020604051808303816000875af11580156100d4573d6000803e3d6000fd5b505050506040513d601f19601f820116820180604052508101906100f89190610375565b50600083815260016020819052604082200154900361012957604051620e35b360e31b815260040160405180910390fd5b60408051608080820183526001600160a01b03848116835260208084018881528486018a81528b8416606080880191825260008c815260018087528a82208a518154908a166001600160a01b03199182168117835588518385015587516002840155865160039093018054938c16939092169290921790558b51808901919091529551868c01529351918501919091529051909416828601528651808303909501855260a0820181815260e08301909752949593949293929160c090910190803683370190505090507f0000000000000000000000000000000000000000000000000000000000000000816000815181106102265761022661039e565b60209081029190910101526040805160018082528183019092526000918160200160208202803683370190505090507f0000000000000000000000000000000000000000000000000000000000000000816000815181106102895761028961039e565b6001600160a01b0392831660209182029290920101526000546040516332e3594f60e21b815291169063cb8d653c906102cc90859085908b9089906004016103fa565b600060405180830381600087803b1580156102e657600080fd5b505af11580156102fa573d6000803e3d6000fd5b50505050505050505050505050565b80356001600160a01b038116811461032057600080fd5b919050565b600080600080600060a0868803121561033d57600080fd5b61034686610309565b945060208601359350604086013592506060860135915061036960808701610309565b90509295509295909350565b60006020828403121561038757600080fd5b8151801515811461039757600080fd5b9392505050565b634e487b7160e01b600052603260045260246000fd5b6000815180845260005b818110156103da576020818501810151868301820152016103be565b506000602082860101526020601f19601f83011685010191505092915050565b6080808252855190820181905260009060209060a0840190828901845b8281101561043357815184529284019290840190600101610417565b5050508381038285015286518082528783019183019060005b818110156104715783516001600160a01b03168352928401929184019160010161044c565b5050866040860152848103606086015261048b81876103b4565b999850505050505050505056fea2646970667358221220a84e7ba00c1ce4ee08e9a745ff26d20d55611cd65a69b124f42e25543927069d64736f6c63430008190033","linkReferences":{}},"methodIdentifiers":{"mailbox()":"d5438eae","pay(address,uint256,uint256,uint256,address)":"71e6c5ef"},"id":9}