{"abi":[{"type":"constructor","inputs":[{"name":"_mailbox","type":"address","internalType":"contract INexusMailbox"},{"name":"_selfChainId","type":"bytes32","internalType":"bytes32"},{"name":"_nftChainId","type":"bytes32","internalType":"bytes32"}],"stateMutability":"nonpayable"},{"type":"function","name":"claimPayment","inputs":[{"name":"chainblockNumber","type":"uint256","internalType":"uint256"},{"name":"mailboxReceipt","type":"tuple","internalType":"struct Receipt","components":[{"name":"chainIdFrom","type":"bytes32","internalType":"bytes32"},{"name":"chainIdTo","type":"bytes32[]","internalType":"bytes32[]"},{"name":"data","type":"bytes","internalType":"bytes"},{"name":"from","type":"address","internalType":"address"},{"name":"to","type":"address[]","internalType":"address[]"},{"name":"nonce","type":"uint256","internalType":"uint256"}]},{"name":"proof","type":"bytes","internalType":"bytes"},{"name":"callback","type":"bool","internalType":"bool"}],"outputs":[],"stateMutability":"nonpayable"},{"type":"function","name":"mailbox","inputs":[],"outputs":[{"name":"","type":"address","internalType":"contract INexusMailbox"}],"stateMutability":"view"},{"type":"function","name":"pay","inputs":[{"name":"nftLockedMailboxReceipt","type":"tuple","internalType":"struct Receipt","components":[{"name":"chainIdFrom","type":"bytes32","internalType":"bytes32"},{"name":"chainIdTo","type":"bytes32[]","internalType":"bytes32[]"},{"name":"data","type":"bytes","internalType":"bytes"},{"name":"from","type":"address","internalType":"address"},{"name":"to","type":"address[]","internalType":"address[]"},{"name":"nonce","type":"uint256","internalType":"uint256"}]},{"name":"chainBlockNumber","type":"uint256","internalType":"uint256"},{"name":"proof","type":"bytes","internalType":"bytes"}],"outputs":[],"stateMutability":"nonpayable"},{"type":"function","name":"withdrawPayment","inputs":[{"name":"chainblockNumber","type":"uint256","internalType":"uint256"},{"name":"mailboxReceipt","type":"tuple","internalType":"struct Receipt","components":[{"name":"chainIdFrom","type":"bytes32","internalType":"bytes32"},{"name":"chainIdTo","type":"bytes32[]","internalType":"bytes32[]"},{"name":"data","type":"bytes","internalType":"bytes"},{"name":"from","type":"address","internalType":"address"},{"name":"to","type":"address[]","internalType":"address[]"},{"name":"nonce","type":"uint256","internalType":"uint256"}]},{"name":"proof","type":"bytes","internalType":"bytes"},{"name":"callback","type":"bool","internalType":"bool"}],"outputs":[],"stateMutability":"nonpayable"},{"type":"event","name":"PendingPayout","inputs":[{"name":"index","type":"uint256","indexed":false,"internalType":"uint256"},{"name":"to","type":"address","indexed":false,"internalType":"address"}],"anonymous":false}],"bytecode":{"object":"0x60c06040526201518060015534801561001757600080fd5b50604051610d5e380380610d5e83398101604081905261003691610062565b600080546001600160a01b0319166001600160a01b03949094169390931790925560805260a0526100a5565b60008060006060848603121561007757600080fd5b83516001600160a01b038116811461008e57600080fd5b602085015160409095015190969495509392505050565b60805160a051610c976100c760003960006102bf015260005050610c976000f3fe608060405234801561001057600080fd5b506004361061004c5760003560e01c806321e9a99714610051578063560302a0146100665780639c8fd51f14610079578063d5438eae1461008c575b600080fd5b61006461005f3660046106c3565b6100bb565b005b610064610074366004610744565b6103b3565b610064610087366004610744565b6104c9565b60005461009f906001600160a01b031681565b6040516001600160a01b03909116815260200160405180910390f35b6000805460405163c0b3742160e01b81526001600160a01b039091169163c0b37421916100f3918791899188918891906004016108e7565b600060405180830381600087803b15801561010d57600080fd5b505af1158015610121573d6000803e3d6000fd5b506000925061013691505060408601866109e6565b8101906101439190610a64565b606081015160408083015190516323b872dd60e01b815233600482015230602482015260448101919091529192506001600160a01b0316906323b872dd906064016020604051808303816000875af11580156101a3573d6000803e3d6000fd5b505050506040513d601f19601f820116820180604052508101906101c79190610ab5565b506040805160a080820183523382526020848101805182850190815242858701908152878701516060808801918252808a01516001600160a01b039081166080808b01918252965160009081526002808a528c82208c5181549086166001600160a01b0319918216811783558a51600184015589519383019390935587516003830155845160049092018054928716929091169190911790558c51998a015295519a88019a909a5292519086015251928401929092529451169181019190915290919060c00160408051808303601f1901815260018084528383019092529250600091908160200160208202803683370190505090507f0000000000000000000000000000000000000000000000000000000000000000816000815181106102f1576102f1610ad9565b602090810291909101015260408051600180825281830190925260009181602001602082028036833701905050905060008160008151811061033557610335610ad9565b6001600160a01b03928316602091820292909201015260005460405163d40f1a1b60e01b815291169063d40f1a1b9061037690859085908890600401610b35565b600060405180830381600087803b15801561039057600080fd5b505af11580156103a4573d6000803e3d6000fd5b50505050505050505050505050565b60005460405163c0b3742160e01b81526001600160a01b039091169063c0b37421906103eb90889088908890889088906004016108e7565b600060405180830381600087803b15801561040557600080fd5b505af1158015610419573d6000803e3d6000fd5b506000925061042e91505060408601866109e6565b81019061043b9190610bcc565b60608101516020820151604080840151905163a9059cbb60e01b81526001600160a01b0392831660048201526024810191909152929350169063a9059cbb906044016020604051808303816000875af115801561049c573d6000803e3d6000fd5b505050506040513d601f19601f820116820180604052508101906104c09190610ab5565b50505050505050565b60005460405163c0b3742160e01b81526001600160a01b039091169063c0b374219061050190889088908890889088906004016108e7565b600060405180830381600087803b15801561051b57600080fd5b505af115801561052f573d6000803e3d6000fd5b506000925061054491505060408601866109e6565b8101906105519190610c11565b8051600090815260026020818152604092839020835160a08101855281546001600160a01b03908116808352600184015494830194909452938201548186015260038201546060820181905260049283015490941660808201819052945163a9059cbb60e01b815291820192909252602481019290925292935063a9059cbb906044016020604051808303816000875af11580156105f3573d6000803e3d6000fd5b505050506040513d601f19601f820116820180604052508101906106179190610ab5565b5050516000908152600260208190526040822080546001600160a01b031990811682556001820184905591810183905560038101929092556004909101805490911690555050505050565b600060c0828403121561067457600080fd5b50919050565b60008083601f84011261068c57600080fd5b50813567ffffffffffffffff8111156106a457600080fd5b6020830191508360208285010111156106bc57600080fd5b9250929050565b600080600080606085870312156106d957600080fd5b843567ffffffffffffffff808211156106f157600080fd5b6106fd88838901610662565b955060208701359450604087013591508082111561071a57600080fd5b506107278782880161067a565b95989497509550505050565b801515811461074157600080fd5b50565b60008060008060006080868803121561075c57600080fd5b85359450602086013567ffffffffffffffff8082111561077b57600080fd5b61078789838a01610662565b9550604088013591508082111561079d57600080fd5b506107aa8882890161067a565b90945092505060608601356107be81610733565b809150509295509295909350565b6000808335601e198436030181126107e357600080fd5b830160208101925035905067ffffffffffffffff81111561080357600080fd5b8060051b36038213156106bc57600080fd5b6000808335601e1984360301811261082c57600080fd5b830160208101925035905067ffffffffffffffff81111561084c57600080fd5b8036038213156106bc57600080fd5b81835281816020850137506000828201602090810191909152601f909101601f19169091010190565b80356001600160a01b038116811461089b57600080fd5b919050565b8183526000602080850194508260005b858110156108dc576001600160a01b036108c983610884565b16875295820195908201906001016108b0565b509495945050505050565b8581526080602082015284356080820152600061090760208701876107cc565b60c060a085015261014084018190526101606001600160fb1b0382111561092d57600080fd5b8160051b9150818382870137818501925061094b60408a018a610815565b925060e08685030160c0870152610965828501848361085b565b935050505061097660608801610884565b6001600160a01b031660e084015261099160808801886107cc565b848303607f19016101008601526109a98382846108a0565b9250505060a087013561012084015282810360408401526109cb81868861085b565b9150506109dc606083018415159052565b9695505050505050565b6000808335601e198436030181126109fd57600080fd5b83018035915067ffffffffffffffff821115610a1857600080fd5b6020019150368190038213156106bc57600080fd5b6040516080810167ffffffffffffffff81118282101715610a5e57634e487b7160e01b600052604160045260246000fd5b60405290565b600060808284031215610a7657600080fd5b610a7e610a2d565b610a8783610884565b81526020830135602082015260408301356040820152610aa960608401610884565b60608201529392505050565b600060208284031215610ac757600080fd5b8151610ad281610733565b9392505050565b634e487b7160e01b600052603260045260246000fd5b6000815180845260005b81811015610b1557602081850181015186830182015201610af9565b506000602082860101526020601f19601f83011685010191505092915050565b606080825284519082018190526000906020906080840190828801845b82811015610b6e57815184529284019290840190600101610b52565b5050508381038285015285518082528683019183019060005b81811015610bac5783516001600160a01b031683529284019291840191600101610b87565b50508481036040860152610bc08187610aef565b98975050505050505050565b600060808284031215610bde57600080fd5b610be6610a2d565b82358152610bf660208401610884565b602082015260408301356040820152610aa960608401610884565b600060208284031215610c2357600080fd5b6040516020810181811067ffffffffffffffff82111715610c5457634e487b7160e01b600052604160045260246000fd5b604052913582525091905056fea2646970667358221220cf0fa67b37a26ca1c3f1d3bc88e8bf428248bade2379569d902697b71d79e32964736f6c63430008190033","linkReferences":{}},"methodIdentifiers":{"claimPayment(uint256,(bytes32,bytes32[],bytes,address,address[],uint256),bytes,bool)":"560302a0","mailbox()":"d5438eae","pay((bytes32,bytes32[],bytes,address,address[],uint256),uint256,bytes)":"21e9a997","withdrawPayment(uint256,(bytes32,bytes32[],bytes,address,address[],uint256),bytes,bool)":"9c8fd51f"},"id":9}