{"abi":[{"type":"constructor","inputs":[{"name":"_mailbox","type":"address","internalType":"contract INexusMailbox"},{"name":"_selfChainId","type":"bytes32","internalType":"bytes32"},{"name":"_nftChainId","type":"bytes32","internalType":"bytes32"}],"stateMutability":"nonpayable"},{"type":"function","name":"claimPayment","inputs":[{"name":"chainblockNumber","type":"uint256","internalType":"uint256"},{"name":"mailboxReceipt","type":"tuple","internalType":"struct Receipt","components":[{"name":"chainIdFrom","type":"bytes32","internalType":"bytes32"},{"name":"chainIdTo","type":"bytes32[]","internalType":"bytes32[]"},{"name":"data","type":"bytes","internalType":"bytes"},{"name":"from","type":"address","internalType":"address"},{"name":"to","type":"address[]","internalType":"address[]"},{"name":"nonce","type":"uint256","internalType":"uint256"}]},{"name":"proof","type":"bytes","internalType":"bytes"},{"name":"callback","type":"bool","internalType":"bool"}],"outputs":[],"stateMutability":"nonpayable"},{"type":"function","name":"mailbox","inputs":[],"outputs":[{"name":"","type":"address","internalType":"contract INexusMailbox"}],"stateMutability":"view"},{"type":"function","name":"pay","inputs":[{"name":"tokenAddress","type":"address","internalType":"address"},{"name":"amount","type":"uint256","internalType":"uint256"},{"name":"nftId","type":"uint256","internalType":"uint256"},{"name":"nonce","type":"uint256","internalType":"uint256"}],"outputs":[],"stateMutability":"nonpayable"},{"type":"function","name":"withdrawPayment","inputs":[{"name":"chainblockNumber","type":"uint256","internalType":"uint256"},{"name":"mailboxReceipt","type":"tuple","internalType":"struct Receipt","components":[{"name":"chainIdFrom","type":"bytes32","internalType":"bytes32"},{"name":"chainIdTo","type":"bytes32[]","internalType":"bytes32[]"},{"name":"data","type":"bytes","internalType":"bytes"},{"name":"from","type":"address","internalType":"address"},{"name":"to","type":"address[]","internalType":"address[]"},{"name":"nonce","type":"uint256","internalType":"uint256"}]},{"name":"proof","type":"bytes","internalType":"bytes"},{"name":"callback","type":"bool","internalType":"bool"}],"outputs":[],"stateMutability":"nonpayable"},{"type":"event","name":"PendingPayout","inputs":[{"name":"index","type":"uint256","indexed":false,"internalType":"uint256"},{"name":"to","type":"address","indexed":false,"internalType":"address"}],"anonymous":false}],"bytecode":{"object":"0x60c060405234801561001057600080fd5b50604051610c0f380380610c0f83398101604081905261002f9161005b565b600080546001600160a01b0319166001600160a01b03949094169390931790925560805260a05261009e565b60008060006060848603121561007057600080fd5b83516001600160a01b038116811461008757600080fd5b602085015160409095015190969495509392505050565b60805160a051610b4f6100c06000396000610328015260005050610b4f6000f3fe608060405234801561001057600080fd5b506004361061004c5760003560e01c8063560302a01461005157806389816660146100665780639c8fd51f14610079578063d5438eae1461008c575b600080fd5b61006461005f3660046105d8565b6100bb565b005b6100646100743660046106a9565b6101d1565b6100646100873660046105d8565b61041d565b60005461009f906001600160a01b031681565b6040516001600160a01b03909116815260200160405180910390f35b60005460405163c0b3742160e01b81526001600160a01b039091169063c0b37421906100f390889088908890889088906004016107e8565b600060405180830381600087803b15801561010d57600080fd5b505af1158015610121573d6000803e3d6000fd5b506000925061013691505060408601866108e7565b810190610143919061092e565b60608101516020820151604080840151905163a9059cbb60e01b81526001600160a01b0392831660048201526024810191909152929350169063a9059cbb906044016020604051808303816000875af11580156101a4573d6000803e3d6000fd5b505050506040513d601f19601f820116820180604052508101906101c891906109ab565b50505050505050565b6040516323b872dd60e01b8152336004820152306024820152604481018490526001600160a01b038516906323b872dd906064016020604051808303816000875af1158015610224573d6000803e3d6000fd5b505050506040513d601f19601f8201168201806040525081019061024891906109ab565b506040805160a0808201835233825260208083018681524284860190815260608086018a81526001600160a01b038c81166080808a0191825260008d81526001808a528c82208c5181549087166001600160a01b0319918216811783558b51838501558a51600284015588516003840155865160049093018054938916939092169290921790558d51808c01919091529851898e0152965195880195909552925192860192909252905116838601528651808403909501855260c083018281526101008401909752949593949392909160e00190803683370190505090507f00000000000000000000000000000000000000000000000000000000000000008160008151811061035a5761035a6109cf565b602090810291909101015260408051600180825281830190925260009181602001602082028036833701905050905060008160008151811061039e5761039e6109cf565b6001600160a01b0392831660209182029290920101526000546040516332e3594f60e21b815291169063cb8d653c906103e190859085908a908990600401610a2b565b600060405180830381600087803b1580156103fb57600080fd5b505af115801561040f573d6000803e3d6000fd5b505050505050505050505050565b60005460405163c0b3742160e01b81526001600160a01b039091169063c0b374219061045590889088908890889088906004016107e8565b600060405180830381600087803b15801561046f57600080fd5b505af1158015610483573d6000803e3d6000fd5b506000925061049891505060408601866108e7565b8101906104a59190610ac9565b8051600090815260016020818152604092839020835160a08101855281546001600160a01b03908116808352948301549382019390935260028201548186015260038201546060820181905260049283015490931660808201819052945163a9059cbb60e01b81529182019390935260248101919091529293509163a9059cbb906044016020604051808303816000875af1158015610548573d6000803e3d6000fd5b505050506040513d601f19601f8201168201806040525081019061056c91906109ab565b5050516000908152600160208190526040822080546001600160a01b031990811682559181018390556002810183905560038101929092556004909101805490911690555050505050565b80151581146105c557600080fd5b50565b80356105d3816105b7565b919050565b6000806000806000608086880312156105f057600080fd5b85359450602086013567ffffffffffffffff8082111561060f57600080fd5b9087019060c0828a03121561062357600080fd5b9094506040870135908082111561063957600080fd5b818801915088601f83011261064d57600080fd5b81358181111561065c57600080fd5b89602082850101111561066e57600080fd5b602083019550809450505050610686606087016105c8565b90509295509295909350565b80356001600160a01b03811681146105d357600080fd5b600080600080608085870312156106bf57600080fd5b6106c885610692565b966020860135965060408601359560600135945092505050565b6000808335601e198436030181126106f957600080fd5b830160208101925035905067ffffffffffffffff81111561071957600080fd5b8060051b360382131561072b57600080fd5b9250929050565b6000808335601e1984360301811261074957600080fd5b830160208101925035905067ffffffffffffffff81111561076957600080fd5b80360382131561072b57600080fd5b81835281816020850137506000828201602090810191909152601f909101601f19169091010190565b8183526000602080850194508260005b858110156107dd576001600160a01b036107ca83610692565b16875295820195908201906001016107b1565b509495945050505050565b8581526080602082015284356080820152600061080860208701876106e2565b60c060a085015261014084018190526101606001600160fb1b0382111561082e57600080fd5b8160051b9150818382870137818501925061084c60408a018a610732565b925060e08685030160c08701526108668285018483610778565b935050505061087760608801610692565b6001600160a01b031660e084015261089260808801886106e2565b848303607f19016101008601526108aa8382846107a1565b9250505060a087013561012084015282810360408401526108cc818688610778565b9150506108dd606083018415159052565b9695505050505050565b6000808335601e198436030181126108fe57600080fd5b83018035915067ffffffffffffffff82111561091957600080fd5b60200191503681900382131561072b57600080fd5b60006080828403121561094057600080fd5b6040516080810181811067ffffffffffffffff8211171561097157634e487b7160e01b600052604160045260246000fd5b6040528235815261098460208401610692565b60208201526040830135604082015261099f60608401610692565b60608201529392505050565b6000602082840312156109bd57600080fd5b81516109c8816105b7565b9392505050565b634e487b7160e01b600052603260045260246000fd5b6000815180845260005b81811015610a0b576020818501810151868301820152016109ef565b506000602082860101526020601f19601f83011685010191505092915050565b6080808252855190820181905260009060209060a0840190828901845b82811015610a6457815184529284019290840190600101610a48565b5050508381038285015286518082528783019183019060005b81811015610aa25783516001600160a01b031683529284019291840191600101610a7d565b50508660408601528481036060860152610abc81876109e5565b9998505050505050505050565b600060208284031215610adb57600080fd5b6040516020810181811067ffffffffffffffff82111715610b0c57634e487b7160e01b600052604160045260246000fd5b604052913582525091905056fea26469706673582212202ed448a7aa7f759d86145cec137acaf852333567d318b9f2b4e485767244479b64736f6c63430008190033","linkReferences":{}},"methodIdentifiers":{"claimPayment(uint256,(bytes32,bytes32[],bytes,address,address[],uint256),bytes,bool)":"560302a0","mailbox()":"d5438eae","pay(address,uint256,uint256,uint256)":"89816660","withdrawPayment(uint256,(bytes32,bytes32[],bytes,address,address[],uint256),bytes,bool)":"9c8fd51f"},"id":9}