{"abi":[{"type":"constructor","inputs":[{"name":"_nexusStateManager","type":"address","internalType":"contract INexusProofManager"}],"stateMutability":"nonpayable"},{"type":"function","name":"getStorageRoot","inputs":[{"name":"nexusAppID","type":"bytes32","internalType":"bytes32"},{"name":"chainBlockNumber","type":"uint256","internalType":"uint256"},{"name":"account","type":"address","internalType":"address"},{"name":"accountTrieProof","type":"bytes","internalType":"bytes"}],"outputs":[{"name":"","type":"bytes32","internalType":"bytes32"}],"stateMutability":"view"},{"type":"function","name":"verifyAccount","inputs":[{"name":"latestState","type":"bytes32","internalType":"bytes32"},{"name":"accountTrieProof","type":"bytes","internalType":"bytes"},{"name":"account","type":"address","internalType":"address"}],"outputs":[{"name":"nonce","type":"uint256","internalType":"uint256"},{"name":"accountBalance","type":"uint256","internalType":"uint256"},{"name":"codeHash","type":"bytes32","internalType":"bytes32"},{"name":"storageRoot","type":"bytes32","internalType":"bytes32"}],"stateMutability":"view"},{"type":"function","name":"verifyStorage","inputs":[{"name":"storageRoot","type":"bytes32","internalType":"bytes32"},{"name":"slot","type":"bytes32","internalType":"bytes32"},{"name":"storageSlotTrieProof","type":"bytes","internalType":"bytes"}],"outputs":[{"name":"slotValue","type":"bytes32","internalType":"bytes32"}],"stateMutability":"view"}],"bytecode":{"object":"0x60a060405234801561001057600080fd5b50604051611a1d380380611a1d83398101604081905261002f91610040565b6001600160a01b0316608052610070565b60006020828403121561005257600080fd5b81516001600160a01b038116811461006957600080fd5b9392505050565b60805161198b610092600039600081816101e301526102c0015261198b6000f3fe608060405234801561001057600080fd5b50600436106100415760003560e01c80636f7096dc146100465780637f1b8c731461006c5780639a089eb61461009f575b600080fd5b6100596100543660046116a4565b6100b2565b6040519081526020015b60405180910390f35b61007f61007a366004611729565b610157565b604080519485526020850193909352918301526060820152608001610063565b6100596100ad3660046117f4565b6101ca565b600080846040516020016100c891815260200190565b60408051601f198184030181526020601f870181900481028401810190925285835292506000916101189184919088908890819084018382808284376000920191909152508c9250610388915050565b60408051808201825260008082526020918201528151808301909252825182528083019082015290925061014c91506103b1565b979650505050505050565b600080600080600085604051602001610188919060609190911b6bffffffffffffffffffffffff1916815260140190565b60405160208183030381529060405290506000806101a7838a8c610388565b915091506101b582826104b4565b929d919c50919a509098509650505050505050565b604051630fec317160e01b8152600481018690526000907f00000000000000000000000000000000000000000000000000000000000000006001600160a01b031690630fec317190602401602060405180830381865afa158015610232573d6000803e3d6000fd5b505050506040513d601f19601f82011682018060405250810190610256919061185c565b8511156102a15760405162461bcd60e51b815260206004820152601460248201527324b73b30b634b210313637b1b590373ab6b132b960611b60448201526064015b60405180910390fd5b604051626b43d560e41b815260048101879052602481018690526000907f00000000000000000000000000000000000000000000000000000000000000006001600160a01b0316906306b43d5090604401602060405180830381865afa15801561030f573d6000803e3d6000fd5b505050506040513d601f19601f82011682018060405250810190610333919061185c565b905060006103798286868080601f0160208091040260200160405190810160405280939291908181526020018383808284376000920191909152508b9250610157915050565b9b9a5050505050505050505050565b600060606000610397866105de565b90506103a4818686610610565b9250925050935093915050565b60006021826000015111156104085760405162461bcd60e51b815260206004820152601a60248201527f496e76616c696420524c5020627974657333322076616c75652e0000000000006044820152606401610298565b6000806000610416856106eb565b91945092509050600081600181111561043157610431611875565b1461047e5760405162461bcd60e51b815260206004820152601a60248201527f496e76616c696420524c5020627974657333322076616c75652e0000000000006044820152606401610298565b600083866020015161049091906118a1565b805190915060208410156104aa5760208490036101000a90045b9695505050505050565b600080600080856105105750600092508291507f56e81f171bcc55a6ff8345e692c0f86e5b48e01b996cadc001622fb5e363b42190507fc5d2460186f7233c927e7db2dcc703c0e500b653ca82273b7bfad8045d85a4706105d5565b600061054b6105468760408051808201825260008082526020918201528151808301909252825182529182019181019190915290565b6109f1565b905061057381600060ff1681518110610566576105666118b4565b6020026020010151610bdd565b945061058e81600160ff1681518110610566576105666118b4565b93506105b681600360ff16815181106105a9576105a96118b4565b60200260200101516103b1565b91506105d181600260ff16815181106105a9576105a96118b4565b9250505b92959194509250565b606081805190602001206040516020016105fa91815260200190565b6040516020818303038152906040529050919050565b60006060600061061f85610bee565b90506000806000610631848a89610ce9565b815192955090935091501580806106455750815b6106915760405162461bcd60e51b815260206004820152601a60248201527f50726f76696465642070726f6f6620697320696e76616c69642e0000000000006044820152606401610298565b6000816106ad57604051806020016040528060008152506106d9565b6106d9866106bc6001886118ca565b815181106106cc576106cc6118b4565b6020026020010151611108565b919b919a509098505050505050505050565b6000806000808460000151116107435760405162461bcd60e51b815260206004820152601860248201527f524c50206974656d2063616e6e6f74206265206e756c6c2e00000000000000006044820152606401610298565b6020840151805160001a607f81116107685760006001600094509450945050506109ea565b60b781116107d8578551607f1982019081106107c65760405162461bcd60e51b815260206004820152601960248201527f496e76616c696420524c502073686f727420737472696e672e000000000000006044820152606401610298565b600195509350600092506109ea915050565b60bf81116108b257855160b61982019081106108365760405162461bcd60e51b815260206004820152601f60248201527f496e76616c696420524c50206c6f6e6720737472696e67206c656e6774682e006044820152606401610298565b6000816020036101000a600185015104905080820188600001511161089d5760405162461bcd60e51b815260206004820152601860248201527f496e76616c696420524c50206c6f6e6720737472696e672e00000000000000006044820152606401610298565b600190910195509350600092506109ea915050565b60f7811161092157855160bf1982019081106109105760405162461bcd60e51b815260206004820152601760248201527f496e76616c696420524c502073686f7274206c6973742e0000000000000000006044820152606401610298565b6001955093508492506109ea915050565b855160f61982019081106109775760405162461bcd60e51b815260206004820152601d60248201527f496e76616c696420524c50206c6f6e67206c697374206c656e6774682e0000006044820152606401610298565b6000816020036101000a60018501510490508082018860000151116109d75760405162461bcd60e51b815260206004820152601660248201527524b73b30b634b210292628103637b733903634b9ba1760511b6044820152606401610298565b60019182019650945092506109ea915050565b9193909250565b60606000806109ff846106eb565b91935090915060019050816001811115610a1b57610a1b611875565b14610a685760405162461bcd60e51b815260206004820152601760248201527f496e76616c696420524c50206c6973742076616c75652e0000000000000000006044820152606401610298565b6040805160208082526104208201909252600091816020015b6040805180820190915260008082526020820152815260200190600190039081610a815790505090506000835b8651811015610bd25760208210610b1a5760405162461bcd60e51b815260206004820152602a60248201527f50726f766964656420524c50206c6973742065786365656473206d6178206c6960448201526939ba103632b733ba341760b11b6064820152608401610298565b600080610b576040518060400160405280858c60000151610b3b91906118ca565b8152602001858c60200151610b5091906118a1565b90526106eb565b509150915060405180604001604052808383610b7391906118a1565b8152602001848b60200151610b8891906118a1565b815250858581518110610b9d57610b9d6118b4565b6020908102919091010152610bb36001856118a1565b9350610bbf81836118a1565b610bc990846118a1565b92505050610aae565b508152949350505050565b6000610be8826103b1565b92915050565b60606000610bfb83611132565b90506000815167ffffffffffffffff811115610c1957610c196116f7565b604051908082528060200260200182016040528015610c5e57816020015b6040805180820190915260608082526020820152815260200190600190039081610c375790505b50905060005b8251811015610ce1576000610c91848381518110610c8457610c846118b4565b6020026020010151611165565b90506040518060400160405280828152602001610cad83611132565b815250838381518110610cc257610cc26118b4565b6020026020010181905250508080610cd9906118dd565b915050610c64565b509392505050565b60006060818080610cf9876111f5565b90506000869050600080610d20604051806040016040528060608152602001606081525090565b60005b8c518110156110e0578c8181518110610d3e57610d3e6118b4565b602002602001015191508284610d5491906118a1565b9350610d616001886118a1565b965083600003610dbc57815180516020909101208514610db75760405162461bcd60e51b8152602060048201526011602482015270092dcecc2d8d2c840e4dedee840d0c2e6d607b1b6044820152606401610298565b610e79565b815151602011610e1e57815180516020909101208514610db75760405162461bcd60e51b815260206004820152601b60248201527f496e76616c6964206c6172676520696e7465726e616c206861736800000000006044820152606401610298565b84610e2c8360000151611311565b14610e795760405162461bcd60e51b815260206004820152601a60248201527f496e76616c696420696e7465726e616c206e6f646520686173680000000000006044820152606401610298565b610e85601060016118a1565b82602001515103610ef757855184146110e0576000868581518110610eac57610eac6118b4565b602001015160f81c60f81b60f81c9050600083602001518260ff1681518110610ed757610ed76118b4565b60200260200101519050610eea81611339565b96506001945050506110ce565b600282602001515103611086576000610f0f83611376565b9050600081600081518110610f2657610f266118b4565b016020015160f81c90506000610f3d60028361190c565b610f4890600261193c565b90506000610f59848360ff1661139a565b90506000610f678b8a61139a565b90506000610f7583836113ca565b905060ff851660021480610f8c575060ff85166003145b15610fc657808351148015610fa15750808251145b15610fb357610fb0818b6118a1565b99505b50600160ff1b99506110e0945050505050565b60ff85161580610fd9575060ff85166001145b1561102f5780600003610ff95750600160ff1b99506110e0945050505050565b6110208860200151600181518110611013576110136118b4565b6020026020010151611339565b9a5097506110ce945050505050565b60405162461bcd60e51b815260206004820152602660248201527f52656365697665642061206e6f6465207769746820616e20756e6b6e6f776e206044820152650e0e4caccd2f60d31b6064820152608401610298565b60405162461bcd60e51b815260206004820152601d60248201527f526563656976656420616e20756e706172736561626c65206e6f64652e0000006044820152606401610298565b806110d8816118dd565b915050610d23565b50600160ff1b8414866110f3878661139a565b909e909d50909b509950505050505050505050565b60208101518051606091610be891611122906001906118ca565b81518110610c8457610c846118b4565b604080518082018252600080825260209182015281518083019092528251825280830190820152606090610be8906109f1565b60606000806000611175856106eb565b91945092509050600081600181111561119057611190611875565b146111dd5760405162461bcd60e51b815260206004820152601860248201527f496e76616c696420524c502062797465732076616c75652e00000000000000006044820152606401610298565b6111ec85602001518484611446565b95945050505050565b60606000825160020267ffffffffffffffff811115611216576112166116f7565b6040519080825280601f01601f191660200182016040528015611240576020820181803683370190505b50905060005b835181101561130a576004848281518110611263576112636118b4565b602001015160f81c60f81b6001600160f81b031916901c82826002028151811061128f5761128f6118b4565b60200101906001600160f81b031916908160001a90535060108482815181106112ba576112ba6118b4565b016020015160f81c816112cf576112cf6118f6565b0660f81b8282600202600101815181106112eb576112eb6118b4565b60200101906001600160f81b031916908160001a905350600101611246565b5092915050565b600060208251101561132557506020015190565b81806020019051810190610be8919061185c565b6000606060208360000151101561135a57611353836114f8565b9050611366565b61136383611165565b90505b61136f81611311565b9392505050565b6060610be86113958360200151600081518110610c8457610c846118b4565b6111f5565b6060818351036000036113bc5750604080516020810190915260008152610be8565b61136f838384865103611503565b6000805b8084511180156113de5750808351115b801561142f57508281815181106113f7576113f76118b4565b602001015160f81c60f81b6001600160f81b03191684828151811061141e5761141e6118b4565b01602001516001600160f81b031916145b1561136f578061143e816118dd565b9150506113ce565b606060008267ffffffffffffffff811115611463576114636116f7565b6040519080825280601f01601f19166020018201604052801561148d576020820181803683370190505b50905080516000036114a057905061136f565b8484016020820160005b602086048110156114cb5782518252602092830192909101906001016114aa565b5060006001602087066020036101000a039050808251168119845116178252839450505050509392505050565b6060610be882611645565b60608182601f0110156115495760405162461bcd60e51b815260206004820152600e60248201526d736c6963655f6f766572666c6f7760901b6044820152606401610298565b82828401101561158c5760405162461bcd60e51b815260206004820152600e60248201526d736c6963655f6f766572666c6f7760901b6044820152606401610298565b818301845110156115d35760405162461bcd60e51b8152602060048201526011602482015270736c6963655f6f75744f66426f756e647360781b6044820152606401610298565b6060821580156115f2576040519150600082526020820160405261163c565b6040519150601f8416801560200281840101858101878315602002848b0101015b8183101561162b578051835260209283019201611613565b5050858452601f01601f1916604052505b50949350505050565b6060610be8826020015160008460000151611446565b60008083601f84011261166d57600080fd5b50813567ffffffffffffffff81111561168557600080fd5b60208301915083602082850101111561169d57600080fd5b9250929050565b600080600080606085870312156116ba57600080fd5b8435935060208501359250604085013567ffffffffffffffff8111156116df57600080fd5b6116eb8782880161165b565b95989497509550505050565b634e487b7160e01b600052604160045260246000fd5b80356001600160a01b038116811461172457600080fd5b919050565b60008060006060848603121561173e57600080fd5b83359250602084013567ffffffffffffffff8082111561175d57600080fd5b818601915086601f83011261177157600080fd5b813581811115611783576117836116f7565b604051601f8201601f19908116603f011681019083821181831017156117ab576117ab6116f7565b816040528281528960208487010111156117c457600080fd5b8260208601602083013760006020848301015280965050505050506117eb6040850161170d565b90509250925092565b60008060008060006080868803121561180c57600080fd5b85359450602086013593506118236040870161170d565b9250606086013567ffffffffffffffff81111561183f57600080fd5b61184b8882890161165b565b969995985093965092949392505050565b60006020828403121561186e57600080fd5b5051919050565b634e487b7160e01b600052602160045260246000fd5b634e487b7160e01b600052601160045260246000fd5b80820180821115610be857610be861188b565b634e487b7160e01b600052603260045260246000fd5b81810381811115610be857610be861188b565b6000600182016118ef576118ef61188b565b5060010190565b634e487b7160e01b600052601260045260246000fd5b600060ff83168061192d57634e487b7160e01b600052601260045260246000fd5b8060ff84160691505092915050565b60ff8281168282160390811115610be857610be861188b56fea2646970667358221220d1ea2ebe2a74544596cd180dfb53b27b4f7930981e6f48cbac66bd4e5e14133e64736f6c63430008140033","linkReferences":{}},"methodIdentifiers":{"getStorageRoot(bytes32,uint256,address,bytes)":"9a089eb6","verifyAccount(bytes32,bytes,address)":"7f1b8c73","verifyStorage(bytes32,bytes32,bytes)":"6f7096dc"},"id":21}