{"abi":[{"type":"constructor","inputs":[{"name":"_nexusStateManager","type":"address","internalType":"contract INexusProofManager"}],"stateMutability":"nonpayable"},{"type":"function","name":"getStorageRoot","inputs":[{"name":"nexusAppID","type":"bytes32","internalType":"bytes32"},{"name":"chainBlockNumber","type":"uint256","internalType":"uint256"},{"name":"account","type":"address","internalType":"address"},{"name":"accountTrieProof","type":"bytes","internalType":"bytes"}],"outputs":[{"name":"","type":"bytes32","internalType":"bytes32"}],"stateMutability":"view"},{"type":"function","name":"verifyAccount","inputs":[{"name":"latestState","type":"bytes32","internalType":"bytes32"},{"name":"accountTrieProof","type":"bytes","internalType":"bytes"},{"name":"account","type":"address","internalType":"address"}],"outputs":[{"name":"nonce","type":"uint256","internalType":"uint256"},{"name":"accountBalance","type":"uint256","internalType":"uint256"},{"name":"codeHash","type":"bytes32","internalType":"bytes32"},{"name":"storageRoot","type":"bytes32","internalType":"bytes32"}],"stateMutability":"pure"},{"type":"function","name":"verifyStorage","inputs":[{"name":"storageRoot","type":"bytes32","internalType":"bytes32"},{"name":"slot","type":"bytes32","internalType":"bytes32"},{"name":"storageSlotTrieProof","type":"bytes","internalType":"bytes"}],"outputs":[{"name":"slotValue","type":"bytes32","internalType":"bytes32"}],"stateMutability":"pure"}],"bytecode":{"object":"0x60a0604052348015600e575f80fd5b50604051611938380380611938833981016040819052602b91603b565b6001600160a01b03166080526066565b5f60208284031215604a575f80fd5b81516001600160a01b0381168114605f575f80fd5b9392505050565b6080516118b36100855f395f81816101a5015261027f01526118b35ff3fe608060405234801561000f575f80fd5b506004361061003f575f3560e01c80636f7096dc146100435780637f1b8c73146100695780639a089eb61461009c575b5f80fd5b61005661005136600461164c565b6100af565b6040519081526020015b60405180910390f35b61007c6100773660046116b3565b61011e565b604080519485526020850193909352918301526060820152608001610060565b6100566100aa366004611706565b61018d565b5f80836040516020016100c491815260200190565b60405160208183030381529060405290505f6100e1828588610343565b6040805180820182525f80825260209182015281518083019092528251825280830190820152909250610114915061036a565b9695505050505050565b5f805f805f8560405160200161014c919060609190911b6bffffffffffffffffffffffff1916815260140190565b60405160208183030381529060405290505f8061016a838a8c610343565b915091506101788282610466565b929d919c50919a509098509650505050505050565b604051630fec317160e01b8152600481018690525f907f00000000000000000000000000000000000000000000000000000000000000006001600160a01b031690630fec317190602401602060405180830381865afa1580156101f2573d5f803e3d5ffd5b505050506040513d601f19601f820116820180604052508101906102169190611792565b8511156102615760405162461bcd60e51b815260206004820152601460248201527324b73b30b634b210313637b1b590373ab6b132b960611b60448201526064015b60405180910390fd5b604051626b43d560e41b815260048101879052602481018690525f907f00000000000000000000000000000000000000000000000000000000000000006001600160a01b0316906306b43d5090604401602060405180830381865afa1580156102cc573d5f803e3d5ffd5b505050506040513d601f19601f820116820180604052508101906102f09190611792565b90505f6103348286868080601f0160208091040260200160405190810160405280939291908181526020018383808284375f920191909152508b925061011e915050565b9b9a5050505050505050505050565b5f60605f6103508661058a565b905061035d8186866105bc565b9250925050935093915050565b5f6021825f015111156103bf5760405162461bcd60e51b815260206004820152601a60248201527f496e76616c696420524c5020627974657333322076616c75652e0000000000006044820152606401610258565b5f805f6103cb85610691565b919450925090505f8160018111156103e5576103e56117a9565b146104325760405162461bcd60e51b815260206004820152601a60248201527f496e76616c696420524c5020627974657333322076616c75652e0000000000006044820152606401610258565b5f83866020015161044391906117d1565b805190915060208410156101145760208490036101000a90049695505050505050565b5f805f80856104bf57505f92508291507f56e81f171bcc55a6ff8345e692c0f86e5b48e01b996cadc001622fb5e363b42190507fc5d2460186f7233c927e7db2dcc703c0e500b653ca82273b7bfad8045d85a470610581565b5f6104f86104f3876040805180820182525f8082526020918201528151808301909252825182529182019181019190915290565b61098b565b905061051f815f60ff1681518110610512576105126117e4565b6020026020010151610b71565b945061053a81600160ff1681518110610512576105126117e4565b935061056281600360ff1681518110610555576105556117e4565b602002602001015161036a565b915061057d81600260ff1681518110610555576105556117e4565b9250505b92959194509250565b606081805190602001206040516020016105a691815260200190565b6040516020818303038152906040529050919050565b5f60605f6105c985610b81565b90505f805f6105d9848a89610c6d565b815192955090935091501580806105ed5750815b6106395760405162461bcd60e51b815260206004820152601a60248201527f50726f76696465642070726f6f6620697320696e76616c69642e0000000000006044820152606401610258565b5f816106535760405180602001604052805f81525061067f565b61067f866106626001886117f8565b81518110610672576106726117e4565b6020026020010151611072565b919b919a509098505050505050505050565b5f805f80845f0151116106e65760405162461bcd60e51b815260206004820152601860248201527f524c50206974656d2063616e6e6f74206265206e756c6c2e00000000000000006044820152606401610258565b602084015180515f1a607f8111610708575f60015f9450945094505050610984565b60b78111610777578551607f1982019081106107665760405162461bcd60e51b815260206004820152601960248201527f496e76616c696420524c502073686f727420737472696e672e000000000000006044820152606401610258565b6001955093505f9250610984915050565b60bf811161084e57855160b61982019081106107d55760405162461bcd60e51b815260206004820152601f60248201527f496e76616c696420524c50206c6f6e6720737472696e67206c656e6774682e006044820152606401610258565b5f816020036101000a6001850151049050808201885f01511161083a5760405162461bcd60e51b815260206004820152601860248201527f496e76616c696420524c50206c6f6e6720737472696e672e00000000000000006044820152606401610258565b6001909101955093505f9250610984915050565b60f781116108bd57855160bf1982019081106108ac5760405162461bcd60e51b815260206004820152601760248201527f496e76616c696420524c502073686f7274206c6973742e0000000000000000006044820152606401610258565b600195509350849250610984915050565b855160f61982019081106109135760405162461bcd60e51b815260206004820152601d60248201527f496e76616c696420524c50206c6f6e67206c697374206c656e6774682e0000006044820152606401610258565b5f816020036101000a6001850151049050808201885f0151116109715760405162461bcd60e51b815260206004820152601660248201527524b73b30b634b210292628103637b733903634b9ba1760511b6044820152606401610258565b6001918201965094509250610984915050565b9193909250565b60605f8061099884610691565b919350909150600190508160018111156109b4576109b46117a9565b14610a015760405162461bcd60e51b815260206004820152601760248201527f496e76616c696420524c50206c6973742076616c75652e0000000000000000006044820152606401610258565b60408051602080825261042082019092525f91816020015b604080518082019091525f8082526020820152815260200190600190039081610a195790505090505f835b8651811015610b665760208210610ab05760405162461bcd60e51b815260206004820152602a60248201527f50726f766964656420524c50206c6973742065786365656473206d6178206c6960448201526939ba103632b733ba341760b11b6064820152608401610258565b5f80610aeb6040518060400160405280858c5f0151610acf91906117f8565b8152602001858c60200151610ae491906117d1565b9052610691565b509150915060405180604001604052808383610b0791906117d1565b8152602001848b60200151610b1c91906117d1565b815250858581518110610b3157610b316117e4565b6020908102919091010152610b476001856117d1565b9350610b5381836117d1565b610b5d90846117d1565b92505050610a44565b508152949350505050565b5f610b7b8261036a565b92915050565b60605f610b8d8361109c565b90505f815167ffffffffffffffff811115610baa57610baa6115af565b604051908082528060200260200182016040528015610bef57816020015b6040805180820190915260608082526020820152815260200190600190039081610bc85790505b5090505f5b8251811015610c65575f610c20848381518110610c1357610c136117e4565b60200260200101516110ce565b90506040518060400160405280828152602001610c3c8361109c565b815250838381518110610c5157610c516117e4565b602090810291909101015250600101610bf4565b509392505050565b5f6060818080610c7c8761115b565b90505f8690505f80610ca1604051806040016040528060608152602001606081525090565b5f5b8c5181101561104a578c8181518110610cbe57610cbe6117e4565b602002602001015191508284610cd491906117d1565b9350610ce16001886117d1565b9650835f03610d3b57815180516020909101208514610d365760405162461bcd60e51b8152602060048201526011602482015270092dcecc2d8d2c840e4dedee840d0c2e6d607b1b6044820152606401610258565b610df7565b815151602011610d9d57815180516020909101208514610d365760405162461bcd60e51b815260206004820152601b60248201527f496e76616c6964206c6172676520696e7465726e616c206861736800000000006044820152606401610258565b84610daa835f0151611273565b14610df75760405162461bcd60e51b815260206004820152601a60248201527f496e76616c696420696e7465726e616c206e6f646520686173680000000000006044820152606401610258565b610e03601060016117d1565b82602001515103610e73578551841461104a575f868581518110610e2957610e296117e4565b602001015160f81c60f81b60f81c90505f83602001518260ff1681518110610e5357610e536117e4565b60200260200101519050610e668161129a565b9650600194505050611042565b600282602001515103610ffa575f610e8a836112d5565b90505f815f81518110610e9f57610e9f6117e4565b016020015160f81c90505f610eb560028361181f565b610ec090600261184c565b90505f610ed0848360ff166112f8565b90505f610edd8b8a6112f8565b90505f610eea8383611326565b905060ff851660021480610f01575060ff85166003145b15610f3b57808351148015610f165750808251145b15610f2857610f25818b6117d1565b99505b50600160ff1b995061104a945050505050565b60ff85161580610f4e575060ff85166001145b15610fa357805f03610f6d5750600160ff1b995061104a945050505050565b610f948860200151600181518110610f8757610f876117e4565b602002602001015161129a565b9a509750611042945050505050565b60405162461bcd60e51b815260206004820152602660248201527f52656365697665642061206e6f6465207769746820616e20756e6b6e6f776e206044820152650e0e4caccd2f60d31b6064820152608401610258565b60405162461bcd60e51b815260206004820152601d60248201527f526563656976656420616e20756e706172736561626c65206e6f64652e0000006044820152606401610258565b600101610ca3565b50600160ff1b84148661105d87866112f8565b909e909d50909b509950505050505050505050565b60208101518051606091610b7b9161108c906001906117f8565b81518110610c1357610c136117e4565b6040805180820182525f80825260209182015281518083019092528251825280830190820152606090610b7b9061098b565b60605f805f6110dc85610691565b919450925090505f8160018111156110f6576110f66117a9565b146111435760405162461bcd60e51b815260206004820152601860248201527f496e76616c696420524c502062797465732076616c75652e00000000000000006044820152606401610258565b611152856020015184846113a1565b95945050505050565b60605f825160020267ffffffffffffffff81111561117b5761117b6115af565b6040519080825280601f01601f1916602001820160405280156111a5576020820181803683370190505b5090505f5b835181101561126c5760048482815181106111c7576111c76117e4565b602001015160f81c60f81b6001600160f81b031916901c8282600202815181106111f3576111f36117e4565b60200101906001600160f81b03191690815f1a905350601084828151811061121d5761121d6117e4565b016020015160f81c816112325761123261180b565b0660f81b82826002026001018151811061124e5761124e6117e4565b60200101906001600160f81b03191690815f1a9053506001016111aa565b5092915050565b5f60208251101561128657506020015190565b81806020019051810190610b7b9190611792565b5f60606020835f015110156112b9576112b28361144f565b90506112c5565b6112c2836110ce565b90505b6112ce81611273565b9392505050565b6060610b7b6112f383602001515f81518110610c1357610c136117e4565b61115b565b6060818351035f03611318575060408051602081019091525f8152610b7b565b6112ce83838486510361145a565b5f805b8084511180156113395750808351115b801561138a5750828181518110611352576113526117e4565b602001015160f81c60f81b6001600160f81b031916848281518110611379576113796117e4565b01602001516001600160f81b031916145b156112ce578061139981611865565b915050611329565b60605f8267ffffffffffffffff8111156113bd576113bd6115af565b6040519080825280601f01601f1916602001820160405280156113e7576020820181803683370190505b50905080515f036113f95790506112ce565b848401602082015f5b60208604811015611423578251825260209283019290910190600101611402565b505f6001602087066020036101000a039050808251168119845116178252839450505050509392505050565b6060610b7b8261159b565b60608182601f0110156114a05760405162461bcd60e51b815260206004820152600e60248201526d736c6963655f6f766572666c6f7760901b6044820152606401610258565b8282840110156114e35760405162461bcd60e51b815260206004820152600e60248201526d736c6963655f6f766572666c6f7760901b6044820152606401610258565b8183018451101561152a5760405162461bcd60e51b8152602060048201526011602482015270736c6963655f6f75744f66426f756e647360781b6044820152606401610258565b6060821580156115485760405191505f825260208201604052611592565b6040519150601f8416801560200281840101858101878315602002848b0101015b81831015611581578051835260209283019201611569565b5050858452601f01601f1916604052505b50949350505050565b6060610b7b82602001515f845f01516113a1565b634e487b7160e01b5f52604160045260245ffd5b5f82601f8301126115d2575f80fd5b813567ffffffffffffffff808211156115ed576115ed6115af565b604051601f8301601f19908116603f01168101908282118183101715611615576116156115af565b8160405283815286602085880101111561162d575f80fd5b836020870160208301375f602085830101528094505050505092915050565b5f805f6060848603121561165e575f80fd5b8335925060208401359150604084013567ffffffffffffffff811115611682575f80fd5b61168e868287016115c3565b9150509250925092565b80356001600160a01b03811681146116ae575f80fd5b919050565b5f805f606084860312156116c5575f80fd5b83359250602084013567ffffffffffffffff8111156116e2575f80fd5b6116ee868287016115c3565b9250506116fd60408501611698565b90509250925092565b5f805f805f6080868803121561171a575f80fd5b853594506020860135935061173160408701611698565b9250606086013567ffffffffffffffff8082111561174d575f80fd5b818801915088601f830112611760575f80fd5b81358181111561176e575f80fd5b89602082850101111561177f575f80fd5b9699959850939650602001949392505050565b5f602082840312156117a2575f80fd5b5051919050565b634e487b7160e01b5f52602160045260245ffd5b634e487b7160e01b5f52601160045260245ffd5b80820180821115610b7b57610b7b6117bd565b634e487b7160e01b5f52603260045260245ffd5b81810381811115610b7b57610b7b6117bd565b634e487b7160e01b5f52601260045260245ffd5b5f60ff83168061183d57634e487b7160e01b5f52601260045260245ffd5b8060ff84160691505092915050565b60ff8281168282160390811115610b7b57610b7b6117bd565b5f60018201611876576118766117bd565b506001019056fea2646970667358221220b53068c3362b46f2e529582c90bb8ced87c91e5f14582e3a03ec5f298f657d3364736f6c63430008190033","linkReferences":{}},"methodIdentifiers":{"getStorageRoot(bytes32,uint256,address,bytes)":"9a089eb6","verifyAccount(bytes32,bytes,address)":"7f1b8c73","verifyStorage(bytes32,bytes32,bytes)":"6f7096dc"},"id":49}