{"abi":[{"type":"constructor","inputs":[{"name":"chainId","type":"bytes32","internalType":"bytes32"},{"name":"_nexusStateManager","type":"address","internalType":"contract NexusProofManager"}],"stateMutability":"nonpayable"},{"type":"function","name":"getStorageRoot","inputs":[{"name":"nexusAppID","type":"bytes32","internalType":"bytes32"},{"name":"chainBlockNumber","type":"uint256","internalType":"uint256"},{"name":"account","type":"address","internalType":"address"},{"name":"accountTrieProof","type":"bytes","internalType":"bytes"}],"outputs":[{"name":"","type":"bytes32","internalType":"bytes32"}],"stateMutability":"view"},{"type":"function","name":"selfChainId","inputs":[],"outputs":[{"name":"","type":"bytes32","internalType":"bytes32"}],"stateMutability":"view"},{"type":"function","name":"verifyAccount","inputs":[{"name":"latestState","type":"bytes32","internalType":"bytes32"},{"name":"accountTrieProof","type":"bytes","internalType":"bytes"},{"name":"account","type":"address","internalType":"address"}],"outputs":[{"name":"nonce","type":"uint256","internalType":"uint256"},{"name":"accountBalance","type":"uint256","internalType":"uint256"},{"name":"codeHash","type":"bytes32","internalType":"bytes32"},{"name":"storageRoot","type":"bytes32","internalType":"bytes32"}],"stateMutability":"view"},{"type":"function","name":"verifyStorage","inputs":[{"name":"storageRoot","type":"bytes32","internalType":"bytes32"},{"name":"slot","type":"bytes32","internalType":"bytes32"},{"name":"storageSlotTrieProof","type":"bytes","internalType":"bytes"}],"outputs":[{"name":"slotValue","type":"bytes32","internalType":"bytes32"}],"stateMutability":"view"}],"bytecode":{"object":"0x60c060405234801561001057600080fd5b50604051611a6b380380611a6b83398101604081905261002f91610046565b6080919091526001600160a01b031660a052610083565b6000806040838503121561005957600080fd5b825160208401519092506001600160a01b038116811461007857600080fd5b809150509250929050565b60805160a0516119bd6100ae6000396000818161021501526102f20152600060c201526119bd6000f3fe608060405234801561001057600080fd5b506004361061004c5760003560e01c80636f7096dc146100515780637f1b8c73146100775780639a089eb6146100aa578063cc9e3e89146100bd575b600080fd5b61006461005f3660046116d6565b6100e4565b6040519081526020015b60405180910390f35b61008a61008536600461175b565b610189565b60408051948552602085019390935291830152606082015260800161006e565b6100646100b8366004611826565b6101fc565b6100647f000000000000000000000000000000000000000000000000000000000000000081565b600080846040516020016100fa91815260200190565b60408051601f198184030181526020601f8701819004810284018101909252858352925060009161014a9184919088908890819084018382808284376000920191909152508c92506103ba915050565b60408051808201825260008082526020918201528151808301909252825182528083019082015290925061017e91506103e3565b979650505050505050565b6000806000806000856040516020016101ba919060609190911b6bffffffffffffffffffffffff1916815260140190565b60405160208183030381529060405290506000806101d9838a8c6103ba565b915091506101e782826104e6565b929d919c50919a509098509650505050505050565b604051630fec317160e01b8152600481018690526000907f00000000000000000000000000000000000000000000000000000000000000006001600160a01b031690630fec317190602401602060405180830381865afa158015610264573d6000803e3d6000fd5b505050506040513d601f19601f82011682018060405250810190610288919061188e565b8511156102d35760405162461bcd60e51b815260206004820152601460248201527324b73b30b634b210313637b1b590373ab6b132b960611b60448201526064015b60405180910390fd5b604051626b43d560e41b815260048101879052602481018690526000907f00000000000000000000000000000000000000000000000000000000000000006001600160a01b0316906306b43d5090604401602060405180830381865afa158015610341573d6000803e3d6000fd5b505050506040513d601f19601f82011682018060405250810190610365919061188e565b905060006103ab8286868080601f0160208091040260200160405190810160405280939291908181526020018383808284376000920191909152508b9250610189915050565b9b9a5050505050505050505050565b6000606060006103c986610610565b90506103d6818686610642565b9250925050935093915050565b600060218260000151111561043a5760405162461bcd60e51b815260206004820152601a60248201527f496e76616c696420524c5020627974657333322076616c75652e00000000000060448201526064016102ca565b60008060006104488561071d565b919450925090506000816001811115610463576104636118a7565b146104b05760405162461bcd60e51b815260206004820152601a60248201527f496e76616c696420524c5020627974657333322076616c75652e00000000000060448201526064016102ca565b60008386602001516104c291906118d3565b805190915060208410156104dc5760208490036101000a90045b9695505050505050565b600080600080856105425750600092508291507f56e81f171bcc55a6ff8345e692c0f86e5b48e01b996cadc001622fb5e363b42190507fc5d2460186f7233c927e7db2dcc703c0e500b653ca82273b7bfad8045d85a470610607565b600061057d6105788760408051808201825260008082526020918201528151808301909252825182529182019181019190915290565b610a23565b90506105a581600060ff1681518110610598576105986118e6565b6020026020010151610c0f565b94506105c081600160ff1681518110610598576105986118e6565b93506105e881600360ff16815181106105db576105db6118e6565b60200260200101516103e3565b915061060381600260ff16815181106105db576105db6118e6565b9250505b92959194509250565b6060818051906020012060405160200161062c91815260200190565b6040516020818303038152906040529050919050565b60006060600061065185610c20565b90506000806000610663848a89610d1b565b815192955090935091501580806106775750815b6106c35760405162461bcd60e51b815260206004820152601a60248201527f50726f76696465642070726f6f6620697320696e76616c69642e00000000000060448201526064016102ca565b6000816106df576040518060200160405280600081525061070b565b61070b866106ee6001886118fc565b815181106106fe576106fe6118e6565b602002602001015161113a565b919b919a509098505050505050505050565b6000806000808460000151116107755760405162461bcd60e51b815260206004820152601860248201527f524c50206974656d2063616e6e6f74206265206e756c6c2e000000000000000060448201526064016102ca565b6020840151805160001a607f811161079a576000600160009450945094505050610a1c565b60b7811161080a578551607f1982019081106107f85760405162461bcd60e51b815260206004820152601960248201527f496e76616c696420524c502073686f727420737472696e672e0000000000000060448201526064016102ca565b60019550935060009250610a1c915050565b60bf81116108e457855160b61982019081106108685760405162461bcd60e51b815260206004820152601f60248201527f496e76616c696420524c50206c6f6e6720737472696e67206c656e6774682e0060448201526064016102ca565b6000816020036101000a60018501510490508082018860000151116108cf5760405162461bcd60e51b815260206004820152601860248201527f496e76616c696420524c50206c6f6e6720737472696e672e000000000000000060448201526064016102ca565b60019091019550935060009250610a1c915050565b60f7811161095357855160bf1982019081106109425760405162461bcd60e51b815260206004820152601760248201527f496e76616c696420524c502073686f7274206c6973742e00000000000000000060448201526064016102ca565b600195509350849250610a1c915050565b855160f61982019081106109a95760405162461bcd60e51b815260206004820152601d60248201527f496e76616c696420524c50206c6f6e67206c697374206c656e6774682e00000060448201526064016102ca565b6000816020036101000a6001850151049050808201886000015111610a095760405162461bcd60e51b815260206004820152601660248201527524b73b30b634b210292628103637b733903634b9ba1760511b60448201526064016102ca565b6001918201965094509250610a1c915050565b9193909250565b6060600080610a318461071d565b91935090915060019050816001811115610a4d57610a4d6118a7565b14610a9a5760405162461bcd60e51b815260206004820152601760248201527f496e76616c696420524c50206c6973742076616c75652e00000000000000000060448201526064016102ca565b6040805160208082526104208201909252600091816020015b6040805180820190915260008082526020820152815260200190600190039081610ab35790505090506000835b8651811015610c045760208210610b4c5760405162461bcd60e51b815260206004820152602a60248201527f50726f766964656420524c50206c6973742065786365656473206d6178206c6960448201526939ba103632b733ba341760b11b60648201526084016102ca565b600080610b896040518060400160405280858c60000151610b6d91906118fc565b8152602001858c60200151610b8291906118d3565b905261071d565b509150915060405180604001604052808383610ba591906118d3565b8152602001848b60200151610bba91906118d3565b815250858581518110610bcf57610bcf6118e6565b6020908102919091010152610be56001856118d3565b9350610bf181836118d3565b610bfb90846118d3565b92505050610ae0565b508152949350505050565b6000610c1a826103e3565b92915050565b60606000610c2d83611164565b90506000815167ffffffffffffffff811115610c4b57610c4b611729565b604051908082528060200260200182016040528015610c9057816020015b6040805180820190915260608082526020820152815260200190600190039081610c695790505b50905060005b8251811015610d13576000610cc3848381518110610cb657610cb66118e6565b6020026020010151611197565b90506040518060400160405280828152602001610cdf83611164565b815250838381518110610cf457610cf46118e6565b6020026020010181905250508080610d0b9061190f565b915050610c96565b509392505050565b60006060818080610d2b87611227565b90506000869050600080610d52604051806040016040528060608152602001606081525090565b60005b8c51811015611112578c8181518110610d7057610d706118e6565b602002602001015191508284610d8691906118d3565b9350610d936001886118d3565b965083600003610dee57815180516020909101208514610de95760405162461bcd60e51b8152602060048201526011602482015270092dcecc2d8d2c840e4dedee840d0c2e6d607b1b60448201526064016102ca565b610eab565b815151602011610e5057815180516020909101208514610de95760405162461bcd60e51b815260206004820152601b60248201527f496e76616c6964206c6172676520696e7465726e616c2068617368000000000060448201526064016102ca565b84610e5e8360000151611343565b14610eab5760405162461bcd60e51b815260206004820152601a60248201527f496e76616c696420696e7465726e616c206e6f6465206861736800000000000060448201526064016102ca565b610eb7601060016118d3565b82602001515103610f295785518414611112576000868581518110610ede57610ede6118e6565b602001015160f81c60f81b60f81c9050600083602001518260ff1681518110610f0957610f096118e6565b60200260200101519050610f1c8161136b565b9650600194505050611100565b6002826020015151036110b8576000610f41836113a8565b9050600081600081518110610f5857610f586118e6565b016020015160f81c90506000610f6f60028361193e565b610f7a90600261196e565b90506000610f8b848360ff166113cc565b90506000610f998b8a6113cc565b90506000610fa783836113fc565b905060ff851660021480610fbe575060ff85166003145b15610ff857808351148015610fd35750808251145b15610fe557610fe2818b6118d3565b99505b50600160ff1b9950611112945050505050565b60ff8516158061100b575060ff85166001145b15611061578060000361102b5750600160ff1b9950611112945050505050565b6110528860200151600181518110611045576110456118e6565b602002602001015161136b565b9a509750611100945050505050565b60405162461bcd60e51b815260206004820152602660248201527f52656365697665642061206e6f6465207769746820616e20756e6b6e6f776e206044820152650e0e4caccd2f60d31b60648201526084016102ca565b60405162461bcd60e51b815260206004820152601d60248201527f526563656976656420616e20756e706172736561626c65206e6f64652e00000060448201526064016102ca565b8061110a8161190f565b915050610d55565b50600160ff1b84148661112587866113cc565b909e909d50909b509950505050505050505050565b60208101518051606091610c1a91611154906001906118fc565b81518110610cb657610cb66118e6565b604080518082018252600080825260209182015281518083019092528251825280830190820152606090610c1a90610a23565b606060008060006111a78561071d565b9194509250905060008160018111156111c2576111c26118a7565b1461120f5760405162461bcd60e51b815260206004820152601860248201527f496e76616c696420524c502062797465732076616c75652e000000000000000060448201526064016102ca565b61121e85602001518484611478565b95945050505050565b60606000825160020267ffffffffffffffff81111561124857611248611729565b6040519080825280601f01601f191660200182016040528015611272576020820181803683370190505b50905060005b835181101561133c576004848281518110611295576112956118e6565b602001015160f81c60f81b6001600160f81b031916901c8282600202815181106112c1576112c16118e6565b60200101906001600160f81b031916908160001a90535060108482815181106112ec576112ec6118e6565b016020015160f81c8161130157611301611928565b0660f81b82826002026001018151811061131d5761131d6118e6565b60200101906001600160f81b031916908160001a905350600101611278565b5092915050565b600060208251101561135757506020015190565b81806020019051810190610c1a919061188e565b6000606060208360000151101561138c576113858361152a565b9050611398565b61139583611197565b90505b6113a181611343565b9392505050565b6060610c1a6113c78360200151600081518110610cb657610cb66118e6565b611227565b6060818351036000036113ee5750604080516020810190915260008152610c1a565b6113a1838384865103611535565b6000805b8084511180156114105750808351115b80156114615750828181518110611429576114296118e6565b602001015160f81c60f81b6001600160f81b031916848281518110611450576114506118e6565b01602001516001600160f81b031916145b156113a157806114708161190f565b915050611400565b606060008267ffffffffffffffff81111561149557611495611729565b6040519080825280601f01601f1916602001820160405280156114bf576020820181803683370190505b50905080516000036114d25790506113a1565b8484016020820160005b602086048110156114fd5782518252602092830192909101906001016114dc565b5060006001602087066020036101000a039050808251168119845116178252839450505050509392505050565b6060610c1a82611677565b60608182601f01101561157b5760405162461bcd60e51b815260206004820152600e60248201526d736c6963655f6f766572666c6f7760901b60448201526064016102ca565b8282840110156115be5760405162461bcd60e51b815260206004820152600e60248201526d736c6963655f6f766572666c6f7760901b60448201526064016102ca565b818301845110156116055760405162461bcd60e51b8152602060048201526011602482015270736c6963655f6f75744f66426f756e647360781b60448201526064016102ca565b606082158015611624576040519150600082526020820160405261166e565b6040519150601f8416801560200281840101858101878315602002848b0101015b8183101561165d578051835260209283019201611645565b5050858452601f01601f1916604052505b50949350505050565b6060610c1a826020015160008460000151611478565b60008083601f84011261169f57600080fd5b50813567ffffffffffffffff8111156116b757600080fd5b6020830191508360208285010111156116cf57600080fd5b9250929050565b600080600080606085870312156116ec57600080fd5b8435935060208501359250604085013567ffffffffffffffff81111561171157600080fd5b61171d8782880161168d565b95989497509550505050565b634e487b7160e01b600052604160045260246000fd5b80356001600160a01b038116811461175657600080fd5b919050565b60008060006060848603121561177057600080fd5b83359250602084013567ffffffffffffffff8082111561178f57600080fd5b818601915086601f8301126117a357600080fd5b8135818111156117b5576117b5611729565b604051601f8201601f19908116603f011681019083821181831017156117dd576117dd611729565b816040528281528960208487010111156117f657600080fd5b82602086016020830137600060208483010152809650505050505061181d6040850161173f565b90509250925092565b60008060008060006080868803121561183e57600080fd5b85359450602086013593506118556040870161173f565b9250606086013567ffffffffffffffff81111561187157600080fd5b61187d8882890161168d565b969995985093965092949392505050565b6000602082840312156118a057600080fd5b5051919050565b634e487b7160e01b600052602160045260246000fd5b634e487b7160e01b600052601160045260246000fd5b80820180821115610c1a57610c1a6118bd565b634e487b7160e01b600052603260045260246000fd5b81810381811115610c1a57610c1a6118bd565b600060018201611921576119216118bd565b5060010190565b634e487b7160e01b600052601260045260246000fd5b600060ff83168061195f57634e487b7160e01b600052601260045260246000fd5b8060ff84160691505092915050565b60ff8281168282160390811115610c1a57610c1a6118bd56fea2646970667358221220432d82cdb17e75174ae6cb4bc5097e69d36f1343697ab1a3345deed2e056390a64736f6c63430008140033","linkReferences":{}},"methodIdentifiers":{"getStorageRoot(bytes32,uint256,address,bytes)":"9a089eb6","selfChainId()":"cc9e3e89","verifyAccount(bytes32,bytes,address)":"7f1b8c73","verifyStorage(bytes32,bytes32,bytes)":"6f7096dc"},"id":20}