{"abi":[{"type":"constructor","inputs":[{"name":"_nexusAppID","type":"bytes32","internalType":"bytes32"},{"name":"_nexus","type":"address","internalType":"contract INexusProofManager"}],"stateMutability":"nonpayable"},{"type":"function","name":"getStorageRoot","inputs":[{"name":"nexusAppID","type":"bytes32","internalType":"bytes32"},{"name":"chainBlockNumber","type":"uint256","internalType":"uint256"},{"name":"account","type":"address","internalType":"address"},{"name":"accountTrieProof","type":"bytes","internalType":"bytes"}],"outputs":[{"name":"","type":"bytes32","internalType":"bytes32"}],"stateMutability":"view"},{"type":"function","name":"parseAndVerify","inputs":[{"name":"chainblockNumber","type":"uint256","internalType":"uint256"},{"name":"receipt","type":"bytes32","internalType":"bytes32"},{"name":"data","type":"bytes","internalType":"bytes"}],"outputs":[],"stateMutability":"nonpayable"},{"type":"function","name":"verifyAccount","inputs":[{"name":"latestState","type":"bytes32","internalType":"bytes32"},{"name":"accountTrieProof","type":"bytes","internalType":"bytes"},{"name":"account","type":"address","internalType":"address"}],"outputs":[{"name":"nonce","type":"uint256","internalType":"uint256"},{"name":"accountBalance","type":"uint256","internalType":"uint256"},{"name":"codeHash","type":"bytes32","internalType":"bytes32"},{"name":"storageRoot","type":"bytes32","internalType":"bytes32"}],"stateMutability":"pure"},{"type":"function","name":"verifyStorage","inputs":[{"name":"storageRoot","type":"bytes32","internalType":"bytes32"},{"name":"slot","type":"bytes32","internalType":"bytes32"},{"name":"storageSlotTrieProof","type":"bytes","internalType":"bytes"}],"outputs":[{"name":"slotValue","type":"bytes32","internalType":"bytes32"}],"stateMutability":"pure"},{"type":"error","name":"InvalidEntry","inputs":[]},{"type":"error","name":"InvalidSlotValue","inputs":[]}],"bytecode":{"object":"0x60e060405234801561000f575f80fd5b50604051611c36380380611c3683398101604081905261002e9161004a565b6001600160a01b0316608081905260a09190915260c052610084565b5f806040838503121561005b575f80fd5b825160208401519092506001600160a01b0381168114610079575f80fd5b809150509250929050565b60805160a05160c051611b816100b55f395f61020301525f6101d001525f818161032101526103fb0152611b815ff3fe608060405234801561000f575f80fd5b506004361061004a575f3560e01c80636f7096dc1461004e5780637f1b8c731461007457806390dbd900146100a75780639a089eb6146100bc575b5f80fd5b61006161005c366004611806565b6100cf565b6040519081526020015b60405180910390f35b61008761008236600461186d565b61013e565b60408051948552602085019390935291830152606082015260800161006b565b6100ba6100b5366004611905565b6101ad565b005b6100616100ca366004611954565b610309565b5f80836040516020016100e491815260200190565b60405160208183030381529060405290505f6101018285886104bf565b6040805180820182525f8082526020918201528151808301909252825182528083019082015290925061013491506104e6565b9695505050505050565b5f805f805f8560405160200161016c919060609190911b6bffffffffffffffffffffffff1916815260140190565b60405160208183030381529060405290505f8061018a838a8c6104bf565b9150915061019882826105e2565b929d919c50919a509098509650505050505050565b5f6101ba828401846119b7565b60405163266218bb60e21b8152600481018790527f000000000000000000000000000000000000000000000000000000000000000060248201529091505f906001600160a01b037f0000000000000000000000000000000000000000000000000000000000000000169063998862ec906044016020604051808303815f875af1158015610249573d5f803e3d5ffd5b505050506040513d601f19601f8201168201806040525081019061026d9190611a60565b90505f61028282845f0151856020015161013e565b93505050507f56e81f171bcc55a6ff8345e692c0f86e5b48e01b996cadc001622fb5e363b4215f1b81036102c95760405163887efaa560e01b815260040160405180910390fd5b5f6102dd82856060015186604001516100cf565b90508681146102ff576040516328bd3d6360e01b815260040160405180910390fd5b5050505050505050565b604051630fec317160e01b8152600481018690525f907f00000000000000000000000000000000000000000000000000000000000000006001600160a01b031690630fec317190602401602060405180830381865afa15801561036e573d5f803e3d5ffd5b505050506040513d601f19601f820116820180604052508101906103929190611a60565b8511156103dd5760405162461bcd60e51b815260206004820152601460248201527324b73b30b634b210313637b1b590373ab6b132b960611b60448201526064015b60405180910390fd5b604051626b43d560e41b815260048101879052602481018690525f907f00000000000000000000000000000000000000000000000000000000000000006001600160a01b0316906306b43d5090604401602060405180830381865afa158015610448573d5f803e3d5ffd5b505050506040513d601f19601f8201168201806040525081019061046c9190611a60565b90505f6104b08286868080601f0160208091040260200160405190810160405280939291908181526020018383808284375f920191909152508b925061013e915050565b9b9a5050505050505050505050565b5f60605f6104cc86610706565b90506104d9818686610738565b9250925050935093915050565b5f6021825f0151111561053b5760405162461bcd60e51b815260206004820152601a60248201527f496e76616c696420524c5020627974657333322076616c75652e00000000000060448201526064016103d4565b5f805f6105478561080d565b919450925090505f81600181111561056157610561611a77565b146105ae5760405162461bcd60e51b815260206004820152601a60248201527f496e76616c696420524c5020627974657333322076616c75652e00000000000060448201526064016103d4565b5f8386602001516105bf9190611a9f565b805190915060208410156101345760208490036101000a90049695505050505050565b5f805f808561063b57505f92508291507f56e81f171bcc55a6ff8345e692c0f86e5b48e01b996cadc001622fb5e363b42190507fc5d2460186f7233c927e7db2dcc703c0e500b653ca82273b7bfad8045d85a4706106fd565b5f61067461066f876040805180820182525f8082526020918201528151808301909252825182529182019181019190915290565b610b07565b905061069b815f60ff168151811061068e5761068e611ab2565b6020026020010151610ced565b94506106b681600160ff168151811061068e5761068e611ab2565b93506106de81600360ff16815181106106d1576106d1611ab2565b60200260200101516104e6565b91506106f981600260ff16815181106106d1576106d1611ab2565b9250505b92959194509250565b6060818051906020012060405160200161072291815260200190565b6040516020818303038152906040529050919050565b5f60605f61074585610cfd565b90505f805f610755848a89610df4565b815192955090935091501580806107695750815b6107b55760405162461bcd60e51b815260206004820152601a60248201527f50726f76696465642070726f6f6620697320696e76616c69642e00000000000060448201526064016103d4565b5f816107cf5760405180602001604052805f8152506107fb565b6107fb866107de600188611ac6565b815181106107ee576107ee611ab2565b6020026020010151611203565b919b919a509098505050505050505050565b5f805f80845f0151116108625760405162461bcd60e51b815260206004820152601860248201527f524c50206974656d2063616e6e6f74206265206e756c6c2e000000000000000060448201526064016103d4565b602084015180515f1a607f8111610884575f60015f9450945094505050610b00565b60b781116108f3578551607f1982019081106108e25760405162461bcd60e51b815260206004820152601960248201527f496e76616c696420524c502073686f727420737472696e672e0000000000000060448201526064016103d4565b6001955093505f9250610b00915050565b60bf81116109ca57855160b61982019081106109515760405162461bcd60e51b815260206004820152601f60248201527f496e76616c696420524c50206c6f6e6720737472696e67206c656e6774682e0060448201526064016103d4565b5f816020036101000a6001850151049050808201885f0151116109b65760405162461bcd60e51b815260206004820152601860248201527f496e76616c696420524c50206c6f6e6720737472696e672e000000000000000060448201526064016103d4565b6001909101955093505f9250610b00915050565b60f78111610a3957855160bf198201908110610a285760405162461bcd60e51b815260206004820152601760248201527f496e76616c696420524c502073686f7274206c6973742e00000000000000000060448201526064016103d4565b600195509350849250610b00915050565b855160f6198201908110610a8f5760405162461bcd60e51b815260206004820152601d60248201527f496e76616c696420524c50206c6f6e67206c697374206c656e6774682e00000060448201526064016103d4565b5f816020036101000a6001850151049050808201885f015111610aed5760405162461bcd60e51b815260206004820152601660248201527524b73b30b634b210292628103637b733903634b9ba1760511b60448201526064016103d4565b6001918201965094509250610b00915050565b9193909250565b60605f80610b148461080d565b91935090915060019050816001811115610b3057610b30611a77565b14610b7d5760405162461bcd60e51b815260206004820152601760248201527f496e76616c696420524c50206c6973742076616c75652e00000000000000000060448201526064016103d4565b60408051602080825261042082019092525f91816020015b604080518082019091525f8082526020820152815260200190600190039081610b955790505090505f835b8651811015610ce25760208210610c2c5760405162461bcd60e51b815260206004820152602a60248201527f50726f766964656420524c50206c6973742065786365656473206d6178206c6960448201526939ba103632b733ba341760b11b60648201526084016103d4565b5f80610c676040518060400160405280858c5f0151610c4b9190611ac6565b8152602001858c60200151610c609190611a9f565b905261080d565b509150915060405180604001604052808383610c839190611a9f565b8152602001848b60200151610c989190611a9f565b815250858581518110610cad57610cad611ab2565b6020908102919091010152610cc3600185611a9f565b9350610ccf8183611a9f565b610cd99084611a9f565b92505050610bc0565b508152949350505050565b5f610cf7826104e6565b92915050565b60605f610d098361122d565b90505f815167ffffffffffffffff811115610d2657610d26611740565b604051908082528060200260200182016040528015610d6b57816020015b6040805180820190915260608082526020820152815260200190600190039081610d445790505b5090505f5b8251811015610dec575f610d9c848381518110610d8f57610d8f611ab2565b602002602001015161125f565b90506040518060400160405280828152602001610db88361122d565b815250838381518110610dcd57610dcd611ab2565b6020026020010181905250508080610de490611ad9565b915050610d70565b509392505050565b5f6060818080610e03876112ec565b90505f8690505f80610e28604051806040016040528060608152602001606081525090565b5f5b8c518110156111db578c8181518110610e4557610e45611ab2565b602002602001015191508284610e5b9190611a9f565b9350610e68600188611a9f565b9650835f03610ec257815180516020909101208514610ebd5760405162461bcd60e51b8152602060048201526011602482015270092dcecc2d8d2c840e4dedee840d0c2e6d607b1b60448201526064016103d4565b610f7e565b815151602011610f2457815180516020909101208514610ebd5760405162461bcd60e51b815260206004820152601b60248201527f496e76616c6964206c6172676520696e7465726e616c2068617368000000000060448201526064016103d4565b84610f31835f0151611404565b14610f7e5760405162461bcd60e51b815260206004820152601a60248201527f496e76616c696420696e7465726e616c206e6f6465206861736800000000000060448201526064016103d4565b610f8a60106001611a9f565b82602001515103610ffa57855184146111db575f868581518110610fb057610fb0611ab2565b602001015160f81c60f81b60f81c90505f83602001518260ff1681518110610fda57610fda611ab2565b60200260200101519050610fed8161142b565b96506001945050506111c9565b600282602001515103611181575f61101183611466565b90505f815f8151811061102657611026611ab2565b016020015160f81c90505f61103c600283611b05565b611047906002611b32565b90505f611057848360ff16611489565b90505f6110648b8a611489565b90505f61107183836114b7565b905060ff851660021480611088575060ff85166003145b156110c25780835114801561109d5750808251145b156110af576110ac818b611a9f565b99505b50600160ff1b99506111db945050505050565b60ff851615806110d5575060ff85166001145b1561112a57805f036110f45750600160ff1b99506111db945050505050565b61111b886020015160018151811061110e5761110e611ab2565b602002602001015161142b565b9a5097506111c9945050505050565b60405162461bcd60e51b815260206004820152602660248201527f52656365697665642061206e6f6465207769746820616e20756e6b6e6f776e206044820152650e0e4caccd2f60d31b60648201526084016103d4565b60405162461bcd60e51b815260206004820152601d60248201527f526563656976656420616e20756e706172736561626c65206e6f64652e00000060448201526064016103d4565b806111d381611ad9565b915050610e2a565b50600160ff1b8414866111ee8786611489565b909e909d50909b509950505050505050505050565b60208101518051606091610cf79161121d90600190611ac6565b81518110610d8f57610d8f611ab2565b6040805180820182525f80825260209182015281518083019092528251825280830190820152606090610cf790610b07565b60605f805f61126d8561080d565b919450925090505f81600181111561128757611287611a77565b146112d45760405162461bcd60e51b815260206004820152601860248201527f496e76616c696420524c502062797465732076616c75652e000000000000000060448201526064016103d4565b6112e385602001518484611532565b95945050505050565b60605f825160020267ffffffffffffffff81111561130c5761130c611740565b6040519080825280601f01601f191660200182016040528015611336576020820181803683370190505b5090505f5b83518110156113fd57600484828151811061135857611358611ab2565b602001015160f81c60f81b6001600160f81b031916901c82826002028151811061138457611384611ab2565b60200101906001600160f81b03191690815f1a90535060108482815181106113ae576113ae611ab2565b016020015160f81c816113c3576113c3611af1565b0660f81b8282600202600101815181106113df576113df611ab2565b60200101906001600160f81b03191690815f1a90535060010161133b565b5092915050565b5f60208251101561141757506020015190565b81806020019051810190610cf79190611a60565b5f60606020835f0151101561144a57611443836115e0565b9050611456565b6114538361125f565b90505b61145f81611404565b9392505050565b6060610cf761148483602001515f81518110610d8f57610d8f611ab2565b6112ec565b6060818351035f036114a9575060408051602081019091525f8152610cf7565b61145f8383848651036115eb565b5f805b8084511180156114ca5750808351115b801561151b57508281815181106114e3576114e3611ab2565b602001015160f81c60f81b6001600160f81b03191684828151811061150a5761150a611ab2565b01602001516001600160f81b031916145b1561145f578061152a81611ad9565b9150506114ba565b60605f8267ffffffffffffffff81111561154e5761154e611740565b6040519080825280601f01601f191660200182016040528015611578576020820181803683370190505b50905080515f0361158a57905061145f565b848401602082015f5b602086048110156115b4578251825260209283019290910190600101611593565b505f6001602087066020036101000a039050808251168119845116178252839450505050509392505050565b6060610cf78261172c565b60608182601f0110156116315760405162461bcd60e51b815260206004820152600e60248201526d736c6963655f6f766572666c6f7760901b60448201526064016103d4565b8282840110156116745760405162461bcd60e51b815260206004820152600e60248201526d736c6963655f6f766572666c6f7760901b60448201526064016103d4565b818301845110156116bb5760405162461bcd60e51b8152602060048201526011602482015270736c6963655f6f75744f66426f756e647360781b60448201526064016103d4565b6060821580156116d95760405191505f825260208201604052611723565b6040519150601f8416801560200281840101858101878315602002848b0101015b818310156117125780518352602092830192016116fa565b5050858452601f01601f1916604052505b50949350505050565b6060610cf782602001515f845f0151611532565b634e487b7160e01b5f52604160045260245ffd5b6040516080810167ffffffffffffffff8111828210171561177757611777611740565b60405290565b5f82601f83011261178c575f80fd5b813567ffffffffffffffff808211156117a7576117a7611740565b604051601f8301601f19908116603f011681019082821181831017156117cf576117cf611740565b816040528381528660208588010111156117e7575f80fd5b836020870160208301375f602085830101528094505050505092915050565b5f805f60608486031215611818575f80fd5b8335925060208401359150604084013567ffffffffffffffff81111561183c575f80fd5b6118488682870161177d565b9150509250925092565b80356001600160a01b0381168114611868575f80fd5b919050565b5f805f6060848603121561187f575f80fd5b83359250602084013567ffffffffffffffff81111561189c575f80fd5b6118a88682870161177d565b9250506118b760408501611852565b90509250925092565b5f8083601f8401126118d0575f80fd5b50813567ffffffffffffffff8111156118e7575f80fd5b6020830191508360208285010111156118fe575f80fd5b9250929050565b5f805f8060608587031215611918575f80fd5b8435935060208501359250604085013567ffffffffffffffff81111561193c575f80fd5b611948878288016118c0565b95989497509550505050565b5f805f805f60808688031215611968575f80fd5b853594506020860135935061197f60408701611852565b9250606086013567ffffffffffffffff81111561199a575f80fd5b6119a6888289016118c0565b969995985093965092949392505050565b5f602082840312156119c7575f80fd5b813567ffffffffffffffff808211156119de575f80fd5b90830190608082860312156119f1575f80fd5b6119f9611754565b823582811115611a07575f80fd5b611a138782860161177d565b825250611a2260208401611852565b6020820152604083013582811115611a38575f80fd5b611a448782860161177d565b6040830152506060830135606082015280935050505092915050565b5f60208284031215611a70575f80fd5b5051919050565b634e487b7160e01b5f52602160045260245ffd5b634e487b7160e01b5f52601160045260245ffd5b80820180821115610cf757610cf7611a8b565b634e487b7160e01b5f52603260045260245ffd5b81810381811115610cf757610cf7611a8b565b5f60018201611aea57611aea611a8b565b5060010190565b634e487b7160e01b5f52601260045260245ffd5b5f60ff831680611b2357634e487b7160e01b5f52601260045260245ffd5b8060ff84160691505092915050565b60ff8281168282160390811115610cf757610cf7611a8b56fea26469706673582212201e1385dcbe714687b6c201f7f1d6fd1bd5aed41be2bf9a4a3ea570d7be3da9fd64736f6c63430008150033","linkReferences":{}},"methodIdentifiers":{"getStorageRoot(bytes32,uint256,address,bytes)":"9a089eb6","parseAndVerify(uint256,bytes32,bytes)":"90dbd900","verifyAccount(bytes32,bytes,address)":"7f1b8c73","verifyStorage(bytes32,bytes32,bytes)":"6f7096dc"},"id":32}