{"abi":[{"type":"constructor","inputs":[{"name":"zksyncDiamondAddress","type":"address","internalType":"contract IZKSyncNexusManagerRouter"},{"name":"smt","type":"address","internalType":"contract SparseMerkleTree"}],"stateMutability":"nonpayable"},{"type":"function","name":"parseAndVerify","inputs":[{"name":"","type":"uint256","internalType":"uint256"},{"name":"receipt","type":"bytes32","internalType":"bytes32"},{"name":"data","type":"bytes","internalType":"bytes"}],"outputs":[],"stateMutability":"view"},{"type":"function","name":"smt","inputs":[],"outputs":[{"name":"","type":"address","internalType":"contract SparseMerkleTree"}],"stateMutability":"view"},{"type":"function","name":"verify","inputs":[{"name":"_proof","type":"tuple","internalType":"struct StorageProof","components":[{"name":"batchNumber","type":"uint64","internalType":"uint64"},{"name":"account","type":"address","internalType":"address"},{"name":"value","type":"bytes32","internalType":"bytes32"},{"name":"path","type":"bytes32[]","internalType":"bytes32[]"},{"name":"index","type":"uint64","internalType":"uint64"}]},{"name":"_key","type":"uint256","internalType":"uint256"}],"outputs":[{"name":"valid","type":"bool","internalType":"bool"}],"stateMutability":"view"},{"type":"function","name":"zksyncDiamondAddress","inputs":[],"outputs":[{"name":"","type":"address","internalType":"contract IZKSyncNexusManagerRouter"}],"stateMutability":"view"},{"type":"error","name":"InvalidProof","inputs":[]},{"type":"error","name":"VerificationFailed","inputs":[]}],"bytecode":{"object":"0x60a0604052348015600e575f80fd5b506040516106a63803806106a6833981016040819052602b916067565b6001600160a01b039182166080525f80546001600160a01b03191691909216179055609a565b6001600160a01b03811681146064575f80fd5b50565b5f80604083850312156077575f80fd5b82516080816051565b6020840151909250608f816051565b809150509250929050565b6080516105ee6100b85f395f81816053015261023301526105ee5ff3fe608060405234801561000f575f80fd5b506004361061004a575f3560e01c80630e0416601461004e5780635e45a0601461009257806390dbd900146100a4578063ff0b02c2146100b9575b5f80fd5b6100757f000000000000000000000000000000000000000000000000000000000000000081565b6040516001600160a01b0390911681526020015b60405180910390f35b5f54610075906001600160a01b031681565b6100b76100b23660046102b0565b6100dc565b005b6100cc6100c73660046104aa565b610169565b6040519015158152602001610089565b5f6100e9828401846104ec565b604081015190915061010e576040516309bde33960e01b815260040160405180910390fd5b604080515f6020820152908101859052610144908290606001604051602081830303815290604052805190602001205f1c610169565b156101625760405163439cc0cd60e01b815260040160405180910390fd5b5050505050565b5f805460608085015160408051928301815285835280870151602080850191909152608088015167ffffffffffffffff1684830152870151905163638efe4560e01b815285946001600160a01b03169363638efe45936101cd939092600401610526565b602060405180830381865afa1580156101e8573d5f803e3d5ffd5b505050506040513d601f19601f8201168201806040525081019061020c91906105a1565b8451604051635916ebc760e11b815267ffffffffffffffff90911660048201529091505f907f00000000000000000000000000000000000000000000000000000000000000006001600160a01b03169063b22dd78e90602401602060405180830381865afa158015610280573d5f803e3d5ffd5b505050506040513d601f19601f820116820180604052508101906102a491906105a1565b91909114949350505050565b5f805f80606085870312156102c3575f80fd5b8435935060208501359250604085013567ffffffffffffffff808211156102e8575f80fd5b818701915087601f8301126102fb575f80fd5b813581811115610309575f80fd5b88602082850101111561031a575f80fd5b95989497505060200194505050565b634e487b7160e01b5f52604160045260245ffd5b60405160a0810167ffffffffffffffff8111828210171561036057610360610329565b60405290565b604051601f8201601f1916810167ffffffffffffffff8111828210171561038f5761038f610329565b604052919050565b803567ffffffffffffffff811681146103ae575f80fd5b919050565b5f60a082840312156103c3575f80fd5b6103cb61033d565b90506103d682610397565b81526020828101356001600160a01b03811681146103f2575f80fd5b8282015260408381013590830152606083013567ffffffffffffffff8082111561041a575f80fd5b818501915085601f83011261042d575f80fd5b81358181111561043f5761043f610329565b8060051b9150610450848301610366565b8181529183018401918481019088841115610469575f80fd5b938501935b838510156104875784358252938501939085019061046e565b80606088015250505050505061049f60808301610397565b608082015292915050565b5f80604083850312156104bb575f80fd5b823567ffffffffffffffff8111156104d1575f80fd5b6104dd858286016103b3565b95602094909401359450505050565b5f602082840312156104fc575f80fd5b813567ffffffffffffffff811115610512575f80fd5b61051e848285016103b3565b949350505050565b60a080825284519082018190525f9060209060c0840190828801845b8281101561055e57815184529284019290840190600101610542565b5050508092505050835160208301526020840151604083015267ffffffffffffffff604085015116606083015260018060a01b0383166080830152949350505050565b5f602082840312156105b1575f80fd5b505191905056fea2646970667358221220e03bdd9a797d50c09ee83a419a7fb05edcd4c3504a87f90ae942a30c6c4c0e1f64736f6c63430008190033","linkReferences":{}},"methodIdentifiers":{"parseAndVerify(uint256,bytes32,bytes)":"90dbd900","smt()":"5e45a060","verify((uint64,address,bytes32,bytes32[],uint64),uint256)":"ff0b02c2","zksyncDiamondAddress()":"0e041660"},"id":34}