{
  "abi": [
    {
      "type": "function",
      "name": "addOrUpdateWrapper",
      "inputs": [
        {
          "name": "wrapperChainId",
          "type": "bytes32",
          "internalType": "bytes32"
        },
        {
          "name": "wrapper",
          "type": "address",
          "internalType": "contract INexusVerifierWrapper"
        }
      ],
      "outputs": [],
      "stateMutability": "nonpayable"
    },
    {
      "type": "function",
      "name": "initialize",
      "inputs": [
        {
          "name": "_nexusAppID",
          "type": "bytes32",
          "internalType": "bytes32"
        }
      ],
      "outputs": [],
      "stateMutability": "nonpayable"
    },
    {
      "type": "function",
      "name": "messages",
      "inputs": [
        {
          "name": "",
          "type": "bytes32",
          "internalType": "bytes32"
        }
      ],
      "outputs": [
        {
          "name": "",
          "type": "bool",
          "internalType": "bool"
        }
      ],
      "stateMutability": "view"
    },
    {
      "type": "function",
      "name": "nexusAppID",
      "inputs": [],
      "outputs": [
        {
          "name": "",
          "type": "bytes32",
          "internalType": "bytes32"
        }
      ],
      "stateMutability": "view"
    },
    {
      "type": "function",
      "name": "owner",
      "inputs": [],
      "outputs": [
        {
          "name": "",
          "type": "address",
          "internalType": "address"
        }
      ],
      "stateMutability": "view"
    },
    {
      "type": "function",
      "name": "receiveMessage",
      "inputs": [
        {
          "name": "chainblockNumber",
          "type": "uint256",
          "internalType": "uint256"
        },
        {
          "name": "receipt",
          "type": "tuple",
          "internalType": "struct MailboxMessage",
          "components": [
            {
              "name": "nexusAppIDFrom",
              "type": "bytes32",
              "internalType": "bytes32"
            },
            {
              "name": "nexusAppIDTo",
              "type": "bytes32[]",
              "internalType": "bytes32[]"
            },
            {
              "name": "data",
              "type": "bytes",
              "internalType": "bytes"
            },
            {
              "name": "from",
              "type": "address",
              "internalType": "address"
            },
            {
              "name": "to",
              "type": "address[]",
              "internalType": "address[]"
            },
            {
              "name": "nonce",
              "type": "uint256",
              "internalType": "uint256"
            }
          ]
        },
        {
          "name": "proof",
          "type": "bytes",
          "internalType": "bytes"
        }
      ],
      "outputs": [],
      "stateMutability": "nonpayable"
    },
    {
      "type": "function",
      "name": "renounceOwnership",
      "inputs": [],
      "outputs": [],
      "stateMutability": "nonpayable"
    },
    {
      "type": "function",
      "name": "sendMessage",
      "inputs": [
        {
          "name": "nexusAppIDTo",
          "type": "bytes32[]",
          "internalType": "bytes32[]"
        },
        {
          "name": "to",
          "type": "address[]",
          "internalType": "address[]"
        },
        {
          "name": "nonce",
          "type": "uint256",
          "internalType": "uint256"
        },
        {
          "name": "data",
          "type": "bytes",
          "internalType": "bytes"
        }
      ],
      "outputs": [],
      "stateMutability": "nonpayable"
    },
    {
      "type": "function",
      "name": "transferOwnership",
      "inputs": [
        {
          "name": "newOwner",
          "type": "address",
          "internalType": "address"
        }
      ],
      "outputs": [],
      "stateMutability": "nonpayable"
    },
    {
      "type": "function",
      "name": "verifiedReceipts",
      "inputs": [
        {
          "name": "",
          "type": "bytes32",
          "internalType": "bytes32"
        }
      ],
      "outputs": [
        {
          "name": "nexusAppIDFrom",
          "type": "bytes32",
          "internalType": "bytes32"
        },
        {
          "name": "data",
          "type": "bytes",
          "internalType": "bytes"
        },
        {
          "name": "from",
          "type": "address",
          "internalType": "address"
        },
        {
          "name": "nonce",
          "type": "uint256",
          "internalType": "uint256"
        }
      ],
      "stateMutability": "view"
    },
    {
      "type": "function",
      "name": "verifierWrappers",
      "inputs": [
        {
          "name": "",
          "type": "bytes32",
          "internalType": "bytes32"
        }
      ],
      "outputs": [
        {
          "name": "",
          "type": "address",
          "internalType": "contract INexusVerifierWrapper"
        }
      ],
      "stateMutability": "view"
    },
    {
      "type": "event",
      "name": "CallbackFailed",
      "inputs": [
        {
          "name": "to",
          "type": "address",
          "indexed": true,
          "internalType": "address"
        },
        {
          "name": "data",
          "type": "bytes",
          "indexed": false,
          "internalType": "bytes"
        }
      ],
      "anonymous": false
    },
    {
      "type": "event",
      "name": "Initialized",
      "inputs": [
        {
          "name": "version",
          "type": "uint64",
          "indexed": false,
          "internalType": "uint64"
        }
      ],
      "anonymous": false
    },
    {
      "type": "event",
      "name": "MailboxEvent",
      "inputs": [
        {
          "name": "nexusAppIDFrom",
          "type": "bytes32",
          "indexed": true,
          "internalType": "bytes32"
        },
        {
          "name": "nexusAppIDTo",
          "type": "bytes32[]",
          "indexed": false,
          "internalType": "bytes32[]"
        },
        {
          "name": "data",
          "type": "bytes",
          "indexed": false,
          "internalType": "bytes"
        },
        {
          "name": "from",
          "type": "address",
          "indexed": true,
          "internalType": "address"
        },
        {
          "name": "to",
          "type": "address[]",
          "indexed": false,
          "internalType": "address[]"
        },
        {
          "name": "nonce",
          "type": "uint256",
          "indexed": false,
          "internalType": "uint256"
        },
        {
          "name": "receiptHash",
          "type": "bytes32",
          "indexed": false,
          "internalType": "bytes32"
        }
      ],
      "anonymous": false
    },
    {
      "type": "event",
      "name": "OwnershipTransferred",
      "inputs": [
        {
          "name": "previousOwner",
          "type": "address",
          "indexed": true,
          "internalType": "address"
        },
        {
          "name": "newOwner",
          "type": "address",
          "indexed": true,
          "internalType": "address"
        }
      ],
      "anonymous": false
    },
    {
      "type": "error",
      "name": "InvalidInitialization",
      "inputs": []
    },
    {
      "type": "error",
      "name": "InvalidParameters",
      "inputs": []
    },
    {
      "type": "error",
      "name": "NotInitializing",
      "inputs": []
    },
    {
      "type": "error",
      "name": "OwnableInvalidOwner",
      "inputs": [
        {
          "name": "owner",
          "type": "address",
          "internalType": "address"
        }
      ]
    },
    {
      "type": "error",
      "name": "OwnableUnauthorizedAccount",
      "inputs": [
        {
          "name": "account",
          "type": "address",
          "internalType": "address"
        }
      ]
    },
    {
      "type": "error",
      "name": "StateAlreadyUpdated",
      "inputs": []
    },
    {
      "type": "error",
      "name": "WrapperNotAvailable",
      "inputs": []
    }
  ],
  "bytecode": {
    "object": "0x608060405234801561000f575f80fd5b5061185d8061001d5f395ff3fe608060405234801561000f575f80fd5b50600436106100a6575f3560e01c8063799805971161006e57806379980597146101615780638da5cb5b146101785780638f97acba146101a85780639498bd71146101bb578063cb8d653c146101ce578063f2fde38b146101e1575f80fd5b8063151086c3146100aa5780632bbd59ca146100bf5780635e92c0e0146100f65780636a55926b14610136578063715018a614610159575b5f80fd5b6100bd6100b8366004610ce0565b6101f4565b005b6100e16100cd366004610d51565b5f6020819052908152604090205460ff1681565b60405190151581526020015b60405180910390f35b61011e610104366004610d51565b60016020525f90815260409020546001600160a01b031681565b6040516001600160a01b0390911681526020016100ed565b610149610144366004610d51565b6104ab565b6040516100ed9493929190610db5565b6100bd610562565b61016a60035481565b6040519081526020016100ed565b7f9016d09d72d40fdae2fd8ceac6b6234c7706214fd39c1cd1e609a0528c199300546001600160a01b031661011e565b6100bd6101b6366004610dfd565b610575565b6100bd6101c9366004610d51565b6105aa565b6100bd6101dc366004610f12565b6106bb565b6100bd6101ef366004610ff6565b610850565b82355f908152600160205260409020546001600160a01b03168061022b576040516354b30cf360e11b815260040160405180910390fd5b5f8460405160200161023d919061110c565b60408051601f1981840301815291815281516020928301205f8181526002909352912054909150156102825760405163165f4e1360e31b815260040160405180910390fd5b6040516290dbd960e81b81526001600160a01b038316906390dbd900906102b39089908590899089906004016111de565b5f604051808303815f87803b1580156102ca575f80fd5b505af11580156102dc573d5f803e3d5ffd5b5050505f8281526002602052604090208691506102f98282611475565b505f905061038161030d6020880188611207565b808060200260200160405190810160405280939291908181526020018383602002808284375f9201919091525061034b925050506080890189611207565b808060200260200160405190810160405280939291908181526020018383602002808284375f9201919091525061088d92505050565b90506001600160a01b038116156104a2575f6001600160a01b03821687356103af60808a0160608b01610ff6565b6103bc60408b018b611260565b8b60a001356040516024016103d595949392919061158f565b60408051601f198184030181529181526020820180516001600160e01b0316631b908d5760e01b1790525161040a91906115cb565b5f604051808303815f865af19150503d805f8114610443576040519150601f19603f3d011682016040523d82523d5f602084013e610448565b606091505b50509050806104a0576001600160a01b0382167f4897072d9871071be999d77763d358428c4fcb1b89c417f416e0854944db8a5b61048960408a018a611260565b6040516104979291906115e6565b60405180910390a25b505b50505050505050565b600260208190525f9182526040909120805491810180546104cb906112a2565b80601f01602080910402602001604051908101604052809291908181526020018280546104f7906112a2565b80156105425780601f1061051957610100808354040283529160200191610542565b820191905f5260205f20905b81548152906001019060200180831161052557829003601f168201915b50505050600383015460059093015491926001600160a01b031691905084565b61056a610975565b6105735f6109d0565b565b61057d610975565b5f9182526001602052604090912080546001600160a01b0319166001600160a01b03909216919091179055565b7ff0c57e16840df040f15088dc2f81fe391c3923bec73e23a9662efc9c229c6a008054600160401b810460ff1615906001600160401b03165f811580156105ee5750825b90505f826001600160401b031660011480156106095750303b155b905081158015610617575080155b156106355760405163f92ee8a960e01b815260040160405180910390fd5b845467ffffffffffffffff19166001178555831561065f57845460ff60401b1916600160401b1785555b600386905561066d33610a40565b83156106b357845460ff60401b19168555604051600181527fc7f505b2f371ae2175ee4913f4499e1f2633a7b5936321eed1cdaeb6115181d29060200160405180910390a15b505050505050565b83518551146106dd57604051630e52390960e41b815260040160405180910390fd5b6106f685855f600189516106f19190611601565b610a51565b5f6040518060c00160405280600354815260200187815260200184848080601f0160208091040260200160405190810160405280939291908181526020018383808284375f92018290525093855250503360208085019190915260408085018b90526060909401899052925193945090926107749285925001611679565b60408051601f1981840301815291815281516020928301205f8181529283905291205490915060ff16156107e65760405162461bcd60e51b815260206004820152601460248201527313595cdcd859d948185b1c9958591e481cd95b9d60621b60448201526064015b60405180910390fd5b5f8181526020819052604090819020805460ff1916600117905560035490513391907f58f2e975d76099ef17c6f5603a4c1a7dcdaa153e47be7e0f516772474a9474589061083f908b90899089908d908d908a90611706565b60405180910390a350505050505050565b610858610975565b6001600160a01b03811661088157604051631e4fbdf760e01b81525f60048201526024016107dd565b61088a816109d0565b50565b5f82515f0361089d57505f61096f565b5f80600185516108ad9190611601565b90505b808213610969575f60026108c48484611755565b6108ce919061177b565b6108d890846117b3565b90506003548682815181106108ef576108ef6117da565b6020026020010151036109205784818151811061090e5761090e6117da565b6020026020010151935050505061096f565b600354868281518110610935576109356117da565b602002602001015110156109555761094e8160016117b3565b9250610963565b610960600182611755565b91505b506108b0565b5f925050505b92915050565b336109a77f9016d09d72d40fdae2fd8ceac6b6234c7706214fd39c1cd1e609a0528c199300546001600160a01b031690565b6001600160a01b0316146105735760405163118cdaa760e01b81523360048201526024016107dd565b7f9016d09d72d40fdae2fd8ceac6b6234c7706214fd39c1cd1e609a0528c19930080546001600160a01b031981166001600160a01b03848116918217845560405192169182907f8be0079c531659141344cd1fd0a4f28419497f9722a3daafe3b4186f6b6457e0905f90a3505050565b610a48610c4b565b61088a81610c94565b8181808203610a61575050610c45565b5f866002610a6f8787611755565b610a79919061177b565b610a8390876117b3565b81518110610a9357610a936117da565b602002602001015190505b818313610c1d575b80878481518110610ab957610ab96117da565b60200260200101511015610ad95782610ad1816117ee565b935050610aa6565b868281518110610aeb57610aeb6117da565b6020026020010151811015610b0c5781610b048161180c565b925050610ad9565b818313610c1857868281518110610b2557610b256117da565b6020026020010151878481518110610b3f57610b3f6117da565b6020026020010151888581518110610b5957610b596117da565b60200260200101898581518110610b7257610b726117da565b6020026020010182815250828152505050858281518110610b9557610b956117da565b6020026020010151868481518110610baf57610baf6117da565b6020026020010151878581518110610bc957610bc96117da565b60200260200101888581518110610be257610be26117da565b6001600160a01b0393841660209182029290920101529116905282610c06816117ee565b9350508180610c149061180c565b9250505b610a9e565b81851215610c3157610c3187878785610a51565b838312156104a2576104a287878587610a51565b50505050565b7ff0c57e16840df040f15088dc2f81fe391c3923bec73e23a9662efc9c229c6a0054600160401b900460ff1661057357604051631afcd79f60e31b815260040160405180910390fd5b610858610c4b565b5f8083601f840112610cac575f80fd5b5081356001600160401b03811115610cc2575f80fd5b602083019150836020828501011115610cd9575f80fd5b9250929050565b5f805f8060608587031215610cf3575f80fd5b8435935060208501356001600160401b0380821115610d10575f80fd5b9086019060c08289031215610d23575f80fd5b90935060408601359080821115610d38575f80fd5b50610d4587828801610c9c565b95989497509550505050565b5f60208284031215610d61575f80fd5b5035919050565b5f5b83811015610d82578181015183820152602001610d6a565b50505f910152565b5f8151808452610da1816020860160208601610d68565b601f01601f19169290920160200192915050565b848152608060208201525f610dcd6080830186610d8a565b6001600160a01b03949094166040830152506060015292915050565b6001600160a01b038116811461088a575f80fd5b5f8060408385031215610e0e575f80fd5b823591506020830135610e2081610de9565b809150509250929050565b634e487b7160e01b5f52604160045260245ffd5b604051601f8201601f191681016001600160401b0381118282101715610e6757610e67610e2b565b604052919050565b5f6001600160401b03821115610e8757610e87610e2b565b5060051b60200190565b8035610e9c81610de9565b919050565b5f82601f830112610eb0575f80fd5b81356020610ec5610ec083610e6f565b610e3f565b82815260059290921b84018101918181019086841115610ee3575f80fd5b8286015b84811015610f07578035610efa81610de9565b8352918301918301610ee7565b509695505050505050565b5f805f805f60808688031215610f26575f80fd5b85356001600160401b0380821115610f3c575f80fd5b818801915088601f830112610f4f575f80fd5b81356020610f5f610ec083610e6f565b82815260059290921b8401810191818101908c841115610f7d575f80fd5b948201945b83861015610f9b57853582529482019490820190610f82565b99505089013592505080821115610fb0575f80fd5b610fbc89838a01610ea1565b9550604088013594506060880135915080821115610fd8575f80fd5b50610fe588828901610c9c565b969995985093965092949392505050565b5f60208284031215611006575f80fd5b813561101181610de9565b9392505050565b5f808335601e1984360301811261102d575f80fd5b83016020810192503590506001600160401b0381111561104b575f80fd5b8060051b3603821315610cd9575f80fd5b5f808335601e19843603018112611071575f80fd5b83016020810192503590506001600160401b0381111561108f575f80fd5b803603821315610cd9575f80fd5b81835281816020850137505f828201602090810191909152601f909101601f19169091010190565b8183525f60208085019450825f5b858110156111015781356110e681610de9565b6001600160a01b0316875295820195908201906001016110d3565b509495945050505050565b60208152813560208201525f6111256020840184611018565b60c0604085015260e084018190526101006001600160fb1b03821115611149575f80fd5b8160051b91508183828701378185019250611167604087018761105c565b925060e0868503016060870152611181828501848361109d565b935050505061119260608501610e91565b6001600160a01b0381166080850152506111af6080850185611018565b848303601f190160a08601526111c68382846110c5565b9250505060a084013560c08401528091505092915050565b848152836020820152606060408201525f6111fd60608301848661109d565b9695505050505050565b5f808335601e1984360301811261121c575f80fd5b8301803591506001600160401b03821115611235575f80fd5b6020019150600581901b3603821315610cd9575f80fd5b634e487b7160e01b5f52601160045260245ffd5b5f808335601e19843603018112611275575f80fd5b8301803591506001600160401b0382111561128e575f80fd5b602001915036819003821315610cd9575f80fd5b600181811c908216806112b657607f821691505b6020821081036112d457634e487b7160e01b5f52602260045260245ffd5b50919050565b5b818110156112ee575f81556001016112db565b5050565b601f82111561132c57805f5260205f20601f840160051c810160208510156113175750805b611329601f850160051c8301826112da565b50505b505050565b6001600160401b0383111561134857611348610e2b565b61135c8361135683546112a2565b836112f2565b5f601f84116001811461138d575f85156113765750838201355b5f19600387901b1c1916600186901b178355611329565b5f83815260209020601f19861690835b828110156113bd578685013582556020948501946001909201910161139d565b50868210156113d9575f1960f88860031b161c19848701351681555b505060018560011b0183555050505050565b5f813561096f81610de9565b6001600160401b0383111561140e5761140e610e2b565b600160401b83111561142257611422610e2b565b80548382558084101561144657815f5260205f206114448282018683016112da565b505b5081815f526020805f205f5b868110156104a257833561146581610de9565b8282015592820192600101611452565b813581556001808201602061148c81860186611207565b6001600160401b038111156114a3576114a3610e2b565b600160401b8111156114b7576114b7610e2b565b8354818555808210156114ea575f8581528481208381019083015b808210156114e657828255908801906114d2565b5050505b505f93845260208420935b8181101561150e578235858201559183019185016114f5565b5050505050506115216040830183611260565b61152f818360028601611331565b5050611564611540606084016113eb565b6003830180546001600160a01b0319166001600160a01b0392909216919091179055565b6115716080830183611207565b61157f8183600486016113f7565b505060a082013560058201555050565b8581526001600160a01b03851660208201526080604082018190525f906115b9908301858761109d565b90508260608301529695505050505050565b5f82516115dc818460208701610d68565b9190910192915050565b602081525f6115f960208301848661109d565b949350505050565b8181038181111561096f5761096f61124c565b5f8151808452602080850194508084015f5b8381101561110157815187529582019590820190600101611626565b5f8151808452602080850194508084015f5b838110156111015781516001600160a01b031687529582019590820190600101611654565b60208152815160208201525f602083015160c0604084015261169e60e0840182611614565b90506040840151601f19808584030160608601526116bc8383610d8a565b60608701516001600160a01b031660808781019190915287015186820390920160a0870152925090506116ef8282611642565b91505060a084015160c08401528091505092915050565b60a081525f61171860a0830189611614565b828103602084015261172b81888a61109d565b9050828103604084015261173f8187611642565b6060840195909552505060800152949350505050565b8181035f8312801583831316838312821617156117745761177461124c565b5092915050565b5f8261179557634e487b7160e01b5f52601260045260245ffd5b600160ff1b82145f19841416156117ae576117ae61124c565b500590565b8082018281125f8312801582168215821617156117d2576117d261124c565b505092915050565b634e487b7160e01b5f52603260045260245ffd5b5f6001600160ff1b0182016118055761180561124c565b5060010190565b5f600160ff1b82016118205761182061124c565b505f19019056fea26469706673582212206fed5dab12853a3edf3ddbd4b2ae175c67cdb2937a5cfc32043cf06e7e8d2d6164736f6c63430008150033",
    "linkReferences": {}
  },
  "methodIdentifiers": {
    "addOrUpdateWrapper(bytes32,address)": "8f97acba",
    "initialize(bytes32)": "9498bd71",
    "messages(bytes32)": "2bbd59ca",
    "nexusAppID()": "79980597",
    "owner()": "8da5cb5b",
    "receiveMessage(uint256,(bytes32,bytes32[],bytes,address,address[],uint256),bytes)": "151086c3",
    "renounceOwnership()": "715018a6",
    "sendMessage(bytes32[],address[],uint256,bytes)": "cb8d653c",
    "transferOwnership(address)": "f2fde38b",
    "verifiedReceipts(bytes32)": "6a55926b",
    "verifierWrappers(bytes32)": "5e92c0e0"
  },
  "id": 23
}