{
  "abi": [
    {
      "type": "constructor",
      "inputs": [
        {
          "name": "_mailbox",
          "type": "address",
          "internalType": "contract INexusMailbox"
        },
        {
          "name": "_nftNexusId",
          "type": "bytes32",
          "internalType": "bytes32"
        },
        {
          "name": "_nftContractAddress",
          "type": "address",
          "internalType": "address"
        }
      ],
      "stateMutability": "nonpayable"
    },
    {
      "type": "function",
      "name": "getCurrentNonce",
      "inputs": [
        {
          "name": "account",
          "type": "address",
          "internalType": "address"
        }
      ],
      "outputs": [
        {
          "name": "",
          "type": "uint256",
          "internalType": "uint256"
        }
      ],
      "stateMutability": "view"
    },
    {
      "type": "function",
      "name": "mailbox",
      "inputs": [],
      "outputs": [
        {
          "name": "",
          "type": "address",
          "internalType": "contract INexusMailbox"
        }
      ],
      "stateMutability": "view"
    },
    {
      "type": "function",
      "name": "pay",
      "inputs": [
        {
          "name": "tokenAddress",
          "type": "address",
          "internalType": "address"
        },
        {
          "name": "amount",
          "type": "uint256",
          "internalType": "uint256"
        },
        {
          "name": "nftId",
          "type": "uint256",
          "internalType": "uint256"
        },
        {
          "name": "to",
          "type": "address",
          "internalType": "address"
        }
      ],
      "outputs": [],
      "stateMutability": "nonpayable"
    },
    {
      "type": "event",
      "name": "PendingPayout",
      "inputs": [
        {
          "name": "index",
          "type": "uint256",
          "indexed": false,
          "internalType": "uint256"
        },
        {
          "name": "to",
          "type": "address",
          "indexed": false,
          "internalType": "address"
        }
      ],
      "anonymous": false
    },
    {
      "type": "error",
      "name": "AlreadyPaidFor",
      "inputs": []
    }
  ],
  "bytecode": {
    "object": "0x60c060405234801561000f575f80fd5b506040516105c73803806105c783398101604081905261002e9161006f565b5f80546001600160a01b0319166001600160a01b039485161790556080919091521660a0526100af565b6001600160a01b038116811461006c575f80fd5b50565b5f805f60608486031215610081575f80fd5b835161008c81610058565b6020850151604086015191945092506100a481610058565b809150509250925092565b60805160a0516104f76100d05f395f61023101525f6101d001526104f75ff3fe608060405234801561000f575f80fd5b506004361061003f575f3560e01c806309286f11146100435780637919225114610058578063d5438eae14610093575b5f80fd5b61005661005136600461033c565b6100bd565b005b61008061006636600461037f565b6001600160a01b03165f9081526001602052604090205490565b6040519081526020015b60405180910390f35b5f546100a5906001600160a01b031681565b6040516001600160a01b03909116815260200161008a565b6040516323b872dd60e01b81523360048201526001600160a01b038281166024830152604482018590528516906323b872dd906064016020604051808303815f875af115801561010f573d5f803e3d5ffd5b505050506040513d601f19601f82011682018060405250810190610133919061039f565b506040805160a08082018352338083526001600160a01b03858116602080860191825285870189815260608088018c81528d86166080808b019182528b5195860198909852945186169984019990995290519082015295519286019290925290511690830152905f9060c00160408051808303601f19018152600180845283830190925292505f91908160200160208202803683370190505090507f0000000000000000000000000000000000000000000000000000000000000000815f81518110610201576102016103be565b60209081029190910101526040805160018082528183019092525f918160200160208202803683370190505090507f0000000000000000000000000000000000000000000000000000000000000000815f81518110610262576102626103be565b6001600160a01b039283166020918202929092018101919091525f805433825260019283905260409091205492169163cb8d653c91859185916102a591906103d2565b876040518563ffffffff1660e01b81526004016102c59493929190610425565b5f604051808303815f87803b1580156102dc575f80fd5b505af11580156102ee573d5f803e3d5ffd5b5050335f9081526001602081905260408220805491945092506103129084906103d2565b90915550505050505050505050565b80356001600160a01b0381168114610337575f80fd5b919050565b5f805f806080858703121561034f575f80fd5b61035885610321565b9350602085013592506040850135915061037460608601610321565b905092959194509250565b5f6020828403121561038f575f80fd5b61039882610321565b9392505050565b5f602082840312156103af575f80fd5b81518015158114610398575f80fd5b634e487b7160e01b5f52603260045260245ffd5b808201808211156103f157634e487b7160e01b5f52601160045260245ffd5b92915050565b5f81518084528060208401602086015e5f602082860101526020601f19601f83011685010191505092915050565b608080825285519082018190525f9060209060a0840190828901845b8281101561045d57815184529284019290840190600101610441565b505050838103828501528651808252878301918301905f5b8181101561049a5783516001600160a01b031683529284019291840191600101610475565b505086604086015284810360608601526104b481876103f7565b999850505050505050505056fea264697066735822122038f35c163177edf30c1cad507243f2e78e8f25494de16ce12b97f3a7782351c364736f6c63430008190033",
    "linkReferences": {}
  },
  "methodIdentifiers": {
    "getCurrentNonce(address)": "79192251",
    "mailbox()": "d5438eae",
    "pay(address,uint256,uint256,address)": "09286f11"
  },
  "id": 10
}