{
  "abi": [
    {
      "type": "constructor",
      "inputs": [
        {
          "name": "_selfChainId",
          "type": "bytes32",
          "internalType": "bytes32"
        },
        {
          "name": "_paymentChainID",
          "type": "bytes32",
          "internalType": "bytes32"
        },
        {
          "name": "_mailbox",
          "type": "address",
          "internalType": "contract INexusMailbox"
        }
      ],
      "stateMutability": "nonpayable"
    },
    {
      "type": "function",
      "name": "approve",
      "inputs": [
        {
          "name": "to",
          "type": "address",
          "internalType": "address"
        },
        {
          "name": "tokenId",
          "type": "uint256",
          "internalType": "uint256"
        }
      ],
      "outputs": [],
      "stateMutability": "nonpayable"
    },
    {
      "type": "function",
      "name": "balanceOf",
      "inputs": [
        {
          "name": "owner",
          "type": "address",
          "internalType": "address"
        }
      ],
      "outputs": [
        {
          "name": "",
          "type": "uint256",
          "internalType": "uint256"
        }
      ],
      "stateMutability": "view"
    },
    {
      "type": "function",
      "name": "getApproved",
      "inputs": [
        {
          "name": "tokenId",
          "type": "uint256",
          "internalType": "uint256"
        }
      ],
      "outputs": [
        {
          "name": "",
          "type": "address",
          "internalType": "address"
        }
      ],
      "stateMutability": "view"
    },
    {
      "type": "function",
      "name": "isApprovedForAll",
      "inputs": [
        {
          "name": "owner",
          "type": "address",
          "internalType": "address"
        },
        {
          "name": "operator",
          "type": "address",
          "internalType": "address"
        }
      ],
      "outputs": [
        {
          "name": "",
          "type": "bool",
          "internalType": "bool"
        }
      ],
      "stateMutability": "view"
    },
    {
      "type": "function",
      "name": "lockNFT",
      "inputs": [
        {
          "name": "tokenId",
          "type": "uint256",
          "internalType": "uint256"
        },
        {
          "name": "amount",
          "type": "uint256",
          "internalType": "uint256"
        },
        {
          "name": "tokenAddress",
          "type": "address",
          "internalType": "address"
        }
      ],
      "outputs": [],
      "stateMutability": "nonpayable"
    },
    {
      "type": "function",
      "name": "mailbox",
      "inputs": [],
      "outputs": [
        {
          "name": "",
          "type": "address",
          "internalType": "contract INexusMailbox"
        }
      ],
      "stateMutability": "view"
    },
    {
      "type": "function",
      "name": "name",
      "inputs": [],
      "outputs": [
        {
          "name": "",
          "type": "string",
          "internalType": "string"
        }
      ],
      "stateMutability": "view"
    },
    {
      "type": "function",
      "name": "onNexusMessage",
      "inputs": [
        {
          "name": "nexusAppIdFrom",
          "type": "bytes32",
          "internalType": "bytes32"
        },
        {
          "name": "sender",
          "type": "address",
          "internalType": "address"
        },
        {
          "name": "data",
          "type": "bytes",
          "internalType": "bytes"
        }
      ],
      "outputs": [],
      "stateMutability": "nonpayable"
    },
    {
      "type": "function",
      "name": "ownerOf",
      "inputs": [
        {
          "name": "tokenId",
          "type": "uint256",
          "internalType": "uint256"
        }
      ],
      "outputs": [
        {
          "name": "",
          "type": "address",
          "internalType": "address"
        }
      ],
      "stateMutability": "view"
    },
    {
      "type": "function",
      "name": "safeTransferFrom",
      "inputs": [
        {
          "name": "from",
          "type": "address",
          "internalType": "address"
        },
        {
          "name": "to",
          "type": "address",
          "internalType": "address"
        },
        {
          "name": "tokenId",
          "type": "uint256",
          "internalType": "uint256"
        }
      ],
      "outputs": [],
      "stateMutability": "nonpayable"
    },
    {
      "type": "function",
      "name": "safeTransferFrom",
      "inputs": [
        {
          "name": "from",
          "type": "address",
          "internalType": "address"
        },
        {
          "name": "to",
          "type": "address",
          "internalType": "address"
        },
        {
          "name": "tokenId",
          "type": "uint256",
          "internalType": "uint256"
        },
        {
          "name": "data",
          "type": "bytes",
          "internalType": "bytes"
        }
      ],
      "outputs": [],
      "stateMutability": "nonpayable"
    },
    {
      "type": "function",
      "name": "setApprovalForAll",
      "inputs": [
        {
          "name": "operator",
          "type": "address",
          "internalType": "address"
        },
        {
          "name": "approved",
          "type": "bool",
          "internalType": "bool"
        }
      ],
      "outputs": [],
      "stateMutability": "nonpayable"
    },
    {
      "type": "function",
      "name": "setNftPaymentContractAddress",
      "inputs": [
        {
          "name": "_paymentContractAddress",
          "type": "address",
          "internalType": "address"
        }
      ],
      "outputs": [],
      "stateMutability": "nonpayable"
    },
    {
      "type": "function",
      "name": "supportsInterface",
      "inputs": [
        {
          "name": "interfaceId",
          "type": "bytes4",
          "internalType": "bytes4"
        }
      ],
      "outputs": [
        {
          "name": "",
          "type": "bool",
          "internalType": "bool"
        }
      ],
      "stateMutability": "view"
    },
    {
      "type": "function",
      "name": "symbol",
      "inputs": [],
      "outputs": [
        {
          "name": "",
          "type": "string",
          "internalType": "string"
        }
      ],
      "stateMutability": "view"
    },
    {
      "type": "function",
      "name": "tokenURI",
      "inputs": [
        {
          "name": "tokenId",
          "type": "uint256",
          "internalType": "uint256"
        }
      ],
      "outputs": [
        {
          "name": "",
          "type": "string",
          "internalType": "string"
        }
      ],
      "stateMutability": "view"
    },
    {
      "type": "function",
      "name": "transferFrom",
      "inputs": [
        {
          "name": "from",
          "type": "address",
          "internalType": "address"
        },
        {
          "name": "to",
          "type": "address",
          "internalType": "address"
        },
        {
          "name": "tokenId",
          "type": "uint256",
          "internalType": "uint256"
        }
      ],
      "outputs": [],
      "stateMutability": "nonpayable"
    },
    {
      "type": "function",
      "name": "transferNFT",
      "inputs": [
        {
          "name": "chainBlockNumber",
          "type": "uint256",
          "internalType": "uint256"
        },
        {
          "name": "mailboxReceipt",
          "type": "tuple",
          "internalType": "struct MailboxMessage",
          "components": [
            {
              "name": "nexusAppIdFrom",
              "type": "bytes32",
              "internalType": "bytes32"
            },
            {
              "name": "nexusAppIdTo",
              "type": "bytes32[]",
              "internalType": "bytes32[]"
            },
            {
              "name": "data",
              "type": "bytes",
              "internalType": "bytes"
            },
            {
              "name": "from",
              "type": "address",
              "internalType": "address"
            },
            {
              "name": "to",
              "type": "address[]",
              "internalType": "address[]"
            },
            {
              "name": "nonce",
              "type": "uint256",
              "internalType": "uint256"
            }
          ]
        },
        {
          "name": "proof",
          "type": "bytes",
          "internalType": "bytes"
        }
      ],
      "outputs": [],
      "stateMutability": "nonpayable"
    },
    {
      "type": "function",
      "name": "withdrawNFT",
      "inputs": [
        {
          "name": "lockHash",
          "type": "bytes32",
          "internalType": "bytes32"
        },
        {
          "name": "proof",
          "type": "bytes",
          "internalType": "bytes"
        }
      ],
      "outputs": [],
      "stateMutability": "nonpayable"
    },
    {
      "type": "event",
      "name": "Approval",
      "inputs": [
        {
          "name": "owner",
          "type": "address",
          "indexed": true,
          "internalType": "address"
        },
        {
          "name": "approved",
          "type": "address",
          "indexed": true,
          "internalType": "address"
        },
        {
          "name": "tokenId",
          "type": "uint256",
          "indexed": true,
          "internalType": "uint256"
        }
      ],
      "anonymous": false
    },
    {
      "type": "event",
      "name": "ApprovalForAll",
      "inputs": [
        {
          "name": "owner",
          "type": "address",
          "indexed": true,
          "internalType": "address"
        },
        {
          "name": "operator",
          "type": "address",
          "indexed": true,
          "internalType": "address"
        },
        {
          "name": "approved",
          "type": "bool",
          "indexed": false,
          "internalType": "bool"
        }
      ],
      "anonymous": false
    },
    {
      "type": "event",
      "name": "Confirmation",
      "inputs": [
        {
          "name": "tokenId",
          "type": "uint256",
          "indexed": false,
          "internalType": "uint256"
        },
        {
          "name": "to",
          "type": "address",
          "indexed": false,
          "internalType": "address"
        }
      ],
      "anonymous": false
    },
    {
      "type": "event",
      "name": "Transfer",
      "inputs": [
        {
          "name": "from",
          "type": "address",
          "indexed": true,
          "internalType": "address"
        },
        {
          "name": "to",
          "type": "address",
          "indexed": true,
          "internalType": "address"
        },
        {
          "name": "tokenId",
          "type": "uint256",
          "indexed": true,
          "internalType": "uint256"
        }
      ],
      "anonymous": false
    },
    {
      "type": "error",
      "name": "CannotWithdrawBeforeTimeout",
      "inputs": []
    },
    {
      "type": "error",
      "name": "ERC721IncorrectOwner",
      "inputs": [
        {
          "name": "sender",
          "type": "address",
          "internalType": "address"
        },
        {
          "name": "tokenId",
          "type": "uint256",
          "internalType": "uint256"
        },
        {
          "name": "owner",
          "type": "address",
          "internalType": "address"
        }
      ]
    },
    {
      "type": "error",
      "name": "ERC721InsufficientApproval",
      "inputs": [
        {
          "name": "operator",
          "type": "address",
          "internalType": "address"
        },
        {
          "name": "tokenId",
          "type": "uint256",
          "internalType": "uint256"
        }
      ]
    },
    {
      "type": "error",
      "name": "ERC721InvalidApprover",
      "inputs": [
        {
          "name": "approver",
          "type": "address",
          "internalType": "address"
        }
      ]
    },
    {
      "type": "error",
      "name": "ERC721InvalidOperator",
      "inputs": [
        {
          "name": "operator",
          "type": "address",
          "internalType": "address"
        }
      ]
    },
    {
      "type": "error",
      "name": "ERC721InvalidOwner",
      "inputs": [
        {
          "name": "owner",
          "type": "address",
          "internalType": "address"
        }
      ]
    },
    {
      "type": "error",
      "name": "ERC721InvalidReceiver",
      "inputs": [
        {
          "name": "receiver",
          "type": "address",
          "internalType": "address"
        }
      ]
    },
    {
      "type": "error",
      "name": "ERC721InvalidSender",
      "inputs": [
        {
          "name": "sender",
          "type": "address",
          "internalType": "address"
        }
      ]
    },
    {
      "type": "error",
      "name": "ERC721NonexistentToken",
      "inputs": [
        {
          "name": "tokenId",
          "type": "uint256",
          "internalType": "uint256"
        }
      ]
    },
    {
      "type": "error",
      "name": "InvalidChain",
      "inputs": []
    },
    {
      "type": "error",
      "name": "InvalidSender",
      "inputs": []
    },
    {
      "type": "error",
      "name": "TransferAlreadyCompleted",
      "inputs": []
    }
  ],
  "bytecode": {
    "object": "0x60c0604052600060095534801561001557600080fd5b50604051611f83380380611f83833981016040819052610034916100bd565b60405180604001604052806005815260200164135e53919560da1b815250604051806040016040528060048152602001631353919560e21b815250816000908161007e91906101a4565b50600161008b82826101a4565b5050600680546001600160a01b0319166001600160a01b0393909316929092179091555060809190915260a052610263565b6000806000606084860312156100d257600080fd5b83516020850151604086015191945092506001600160a01b03811681146100f857600080fd5b809150509250925092565b634e487b7160e01b600052604160045260246000fd5b600181811c9082168061012d57607f821691505b60208210810361014d57634e487b7160e01b600052602260045260246000fd5b50919050565b601f82111561019f576000816000526020600020601f850160051c8101602086101561017c5750805b601f850160051c820191505b8181101561019b57828155600101610188565b5050505b505050565b81516001600160401b038111156101bd576101bd610103565b6101d1816101cb8454610119565b84610153565b602080601f83116001811461020657600084156101ee5750858301515b600019600386901b1c1916600185901b17855561019b565b600085815260208120601f198616915b8281101561023557888601518255948401946001909101908401610216565b50858210156102535787850151600019600388901b60f8161c191681555b5050505050600190811b01905550565b60805160a051611ced61029660003960008181610523015281816109b80152610bad015260006108c70152611ced6000f3fe608060405234801561001057600080fd5b50600436106101215760003560e01c80637afd773a116100ad578063d5438eae11610071578063d5438eae14610281578063d95edc3b14610294578063e985e9c5146102a7578063feb0e395146102ba578063ff6a236e146102cd57600080fd5b80637afd773a1461022d57806395d89b4114610240578063a22cb46514610248578063b88d4fde1461025b578063c87b56dd1461026e57600080fd5b806323b38774116100f457806323b38774146101a357806323b872dd146101d357806342842e0e146101e65780636352211e146101f957806370a082311461020c57600080fd5b806301ffc9a71461012657806306fdde031461014e578063081812fc14610163578063095ea7b31461018e575b600080fd5b6101396101343660046113a4565b6102e0565b60405190151581526020015b60405180910390f35b610156610332565b6040516101459190611411565b610176610171366004611424565b6103c4565b6040516001600160a01b039091168152602001610145565b6101a161019c366004611462565b6103ed565b005b6101a16101b136600461148e565b600780546001600160a01b0319166001600160a01b0392909216919091179055565b6101a16101e13660046114ab565b6103fc565b6101a16101f43660046114ab565b61048c565b610176610207366004611424565b6104ac565b61021f61021a36600461148e565b6104b7565b604051908152602001610145565b6101a161023b3660046114ec565b6104ff565b610156610703565b6101a1610256366004611525565b610712565b6101a1610269366004611606565b61071d565b61015661027c366004611424565b610734565b600654610176906001600160a01b031681565b6101a16102a23660046116bb565b6107a9565b6101396102b5366004611707565b610b0f565b6101a16102c8366004611735565b610b3d565b6101a16102db3660046117ad565b610bab565b60006001600160e01b031982166380ac58cd60e01b148061031157506001600160e01b03198216635b5e139f60e01b145b8061032c57506301ffc9a760e01b6001600160e01b03198316145b92915050565b60606000805461034190611806565b80601f016020809104026020016040519081016040528092919081815260200182805461036d90611806565b80156103ba5780601f1061038f576101008083540402835291602001916103ba565b820191906000526020600020905b81548152906001019060200180831161039d57829003601f168201915b5050505050905090565b60006103cf82610c99565b506000828152600460205260409020546001600160a01b031661032c565b6103f8828233610cd2565b5050565b6001600160a01b03821661042b57604051633250574960e11b8152600060048201526024015b60405180910390fd5b6000610438838333610cdf565b9050836001600160a01b0316816001600160a01b031614610486576040516364283d7b60e01b81526001600160a01b0380861660048301526024820184905282166044820152606401610422565b50505050565b6104a78383836040518060200160405280600081525061071d565b505050565b600061032c82610c99565b60006001600160a01b0382166104e3576040516322718ad960e21b815260006004820152602401610422565b506001600160a01b031660009081526003602052604090205490565b604080516001808252818301909252600091602080830190803683370190505090507f00000000000000000000000000000000000000000000000000000000000000008160008151811061055557610555611840565b602090810291909101015260408051600180825281830190925260009181602001602082028036833701905050905060008160008151811061059957610599611840565b60200260200101906001600160a01b031690816001600160a01b03168152505060006040518060c00160405280336001600160a01b03168152602001878152602001868152602001856001600160a01b031681526020014381526020016009600081546106059061186c565b919050819055815250905060008160405160200161066b919081516001600160a01b0390811682526020808401519083015260408084015190830152606080840151909116908201526080808301519082015260a0918201519181019190915260c00190565b60408051808303601f190181529181528151602080840191909120600090815260088252829020855181546001600160a01b03199081166001600160a01b03928316178355928701516001830155928601516002820155606086015160038201805490931693169290921790556080840151600482015560a084015160059091015590506106fa3330896103fc565b50505050505050565b60606001805461034190611806565b6103f8338383610dd8565b6107288484846103fc565b61048684848484610e77565b606061073f82610c99565b50600061075760408051602081019091526000815290565b9050600081511161077757604051806020016040528060008152506107a2565b8061078184610fa0565b604051602001610792929190611885565b6040516020818303038152906040525b9392505050565b600083815260086020908152604091829020825160c08101845281546001600160a01b0390811682526001830154938201939093526002820154938101939093526003810154909116606083015260048101546080830181905260059091015460a0830152439061081c90600a906118b4565b101561083b5760405163015e82a960e31b815260040160405180910390fd5b80516001600160a01b0316331461086557604051636edaef2f60e11b815260040160405180910390fd5b306001600160a01b031661087c82602001516104ac565b6001600160a01b0316036108a3576040516305de099160e31b815260040160405180910390fd5b604080516001808252818301909252600091602080830190803683370190505090507f0000000000000000000000000000000000000000000000000000000000000000816000815181106108f9576108f9611840565b6020908102919091010152604080516001808252818301909252600091816020016020820280368337019050509050308160008151811061093c5761093c611840565b6001600160a01b0392831660209182029290920181019190915260408051608080820183528751851680835288850151838601908152898501518486019081526060808c0151891681870190815287519889019490945291518787015251908601525185168482015282518085039091018152610160840183527f000000000000000000000000000000000000000000000000000000000000000060a080860191825260c0860189905260e08601839052600754871661010087015261012086018890528901516101409095019490945260065492519194909392600092911690610a3190839085908d908d90602401611935565b60408051601f198184030181529181526020820180516001600160e01b031663c9cab87960e01b17905251610a669190611a1c565b6000604051808303816000865af19150503d8060008114610aa3576040519150601f19603f3d011682016040523d82523d6000602084013e610aa8565b606091505b5050905080610b0357610ac0333089602001516103fc565b60008a815260086020526040812080546001600160a01b031990811682556001820183905560028201839055600382018054909116905560048101829055600501555b50505050505050505050565b6001600160a01b03918216600090815260056020908152604080832093909416825291909152205460ff1690565b60065460405163151086c360e01b81526001600160a01b039091169063151086c390610b73908790879087908790600401611b05565b600060405180830381600087803b158015610b8d57600080fd5b505af1158015610ba1573d6000803e3d6000fd5b5050505050505050565b7f00000000000000000000000000000000000000000000000000000000000000008314610beb5760405163057f3fa760e51b815260040160405180910390fd5b6007546001600160a01b03838116911614610c1957604051636edaef2f60e11b815260040160405180910390fd5b600081806020019051810190610c2f9190611be8565b9050610c443082600001518360200151611033565b602081015181516040517f1f7db319f45151674bbce08ad4e1093bca1941bc7ef2f91ccafd6519406f010192610c8b929082526001600160a01b0316602082015260400190565b60405180910390a150505050565b6000818152600260205260408120546001600160a01b03168061032c57604051637e27328960e01b815260048101849052602401610422565b6104a783838360016110e3565b6000828152600260205260408120546001600160a01b0390811690831615610d0c57610d0c8184866111e9565b6001600160a01b03811615610d4a57610d296000856000806110e3565b6001600160a01b038116600090815260036020526040902080546000190190555b6001600160a01b03851615610d79576001600160a01b0385166000908152600360205260409020805460010190555b60008481526002602052604080822080546001600160a01b0319166001600160a01b0389811691821790925591518793918516917fddf252ad1be2c89b69c2b068fc378daa952ba7f163c4a11628f55a4df523b3ef91a4949350505050565b6001600160a01b038216610e0a57604051630b61174360e31b81526001600160a01b0383166004820152602401610422565b6001600160a01b03838116600081815260056020908152604080832094871680845294825291829020805460ff191686151590811790915591519182527f17307eab39ab6107e8899845ad3d59bd9653f200f220920489ca2b5937696c31910160405180910390a3505050565b6001600160a01b0383163b1561048657604051630a85bd0160e11b81526001600160a01b0384169063150b7a0290610eb9903390889087908790600401611c5d565b6020604051808303816000875af1925050508015610ef4575060408051601f3d908101601f19168201909252610ef191810190611c9a565b60015b610f5d573d808015610f22576040519150601f19603f3d011682016040523d82523d6000602084013e610f27565b606091505b508051600003610f5557604051633250574960e11b81526001600160a01b0385166004820152602401610422565b805181602001fd5b6001600160e01b03198116630a85bd0160e11b14610f9957604051633250574960e11b81526001600160a01b0385166004820152602401610422565b5050505050565b60606000610fad8361124d565b600101905060008167ffffffffffffffff811115610fcd57610fcd611563565b6040519080825280601f01601f191660200182016040528015610ff7576020820181803683370190505b5090508181016020015b600019016f181899199a1a9b1b9c1cb0b131b232b360811b600a86061a8153600a850494508461100157509392505050565b6001600160a01b03821661105d57604051633250574960e11b815260006004820152602401610422565b600061106b83836000610cdf565b90506001600160a01b03811661109757604051637e27328960e01b815260048101839052602401610422565b836001600160a01b0316816001600160a01b031614610486576040516364283d7b60e01b81526001600160a01b0380861660048301526024820184905282166044820152606401610422565b80806110f757506001600160a01b03821615155b156111b957600061110784610c99565b90506001600160a01b038316158015906111335750826001600160a01b0316816001600160a01b031614155b801561114657506111448184610b0f565b155b1561116f5760405163a9fbf51f60e01b81526001600160a01b0384166004820152602401610422565b81156111b75783856001600160a01b0316826001600160a01b03167f8c5be1e5ebec7d5bd14f71427d1e84f3dd0314c0f7b2291e5b200ac8c7c3b92560405160405180910390a45b505b5050600090815260046020526040902080546001600160a01b0319166001600160a01b0392909216919091179055565b6111f4838383611325565b6104a7576001600160a01b03831661122257604051637e27328960e01b815260048101829052602401610422565b60405163177e802f60e01b81526001600160a01b038316600482015260248101829052604401610422565b60008072184f03e93ff9f4daa797ed6e38ed64bf6a1f0160401b831061128c5772184f03e93ff9f4daa797ed6e38ed64bf6a1f0160401b830492506040015b6d04ee2d6d415b85acef810000000083106112b8576d04ee2d6d415b85acef8100000000830492506020015b662386f26fc1000083106112d657662386f26fc10000830492506010015b6305f5e10083106112ee576305f5e100830492506008015b612710831061130257612710830492506004015b60648310611314576064830492506002015b600a831061032c5760010192915050565b60006001600160a01b038316158015906113835750826001600160a01b0316846001600160a01b0316148061135f575061135f8484610b0f565b8061138357506000828152600460205260409020546001600160a01b038481169116145b949350505050565b6001600160e01b0319811681146113a157600080fd5b50565b6000602082840312156113b657600080fd5b81356107a28161138b565b60005b838110156113dc5781810151838201526020016113c4565b50506000910152565b600081518084526113fd8160208601602086016113c1565b601f01601f19169290920160200192915050565b6020815260006107a260208301846113e5565b60006020828403121561143657600080fd5b5035919050565b6001600160a01b03811681146113a157600080fd5b803561145d8161143d565b919050565b6000806040838503121561147557600080fd5b82356114808161143d565b946020939093013593505050565b6000602082840312156114a057600080fd5b81356107a28161143d565b6000806000606084860312156114c057600080fd5b83356114cb8161143d565b925060208401356114db8161143d565b929592945050506040919091013590565b60008060006060848603121561150157600080fd5b8335925060208401359150604084013561151a8161143d565b809150509250925092565b6000806040838503121561153857600080fd5b82356115438161143d565b91506020830135801515811461155857600080fd5b809150509250929050565b634e487b7160e01b600052604160045260246000fd5b600082601f83011261158a57600080fd5b813567ffffffffffffffff808211156115a5576115a5611563565b604051601f8301601f19908116603f011681019082821181831017156115cd576115cd611563565b816040528381528660208588010111156115e657600080fd5b836020870160208301376000602085830101528094505050505092915050565b6000806000806080858703121561161c57600080fd5b84356116278161143d565b935060208501356116378161143d565b925060408501359150606085013567ffffffffffffffff81111561165a57600080fd5b61166687828801611579565b91505092959194509250565b60008083601f84011261168457600080fd5b50813567ffffffffffffffff81111561169c57600080fd5b6020830191508360208285010111156116b457600080fd5b9250929050565b6000806000604084860312156116d057600080fd5b83359250602084013567ffffffffffffffff8111156116ee57600080fd5b6116fa86828701611672565b9497909650939450505050565b6000806040838503121561171a57600080fd5b82356117258161143d565b915060208301356115588161143d565b6000806000806060858703121561174b57600080fd5b84359350602085013567ffffffffffffffff8082111561176a57600080fd5b9086019060c0828903121561177e57600080fd5b9093506040860135908082111561179457600080fd5b506117a187828801611672565b95989497509550505050565b6000806000606084860312156117c257600080fd5b8335925060208401356117d48161143d565b9150604084013567ffffffffffffffff8111156117f057600080fd5b6117fc86828701611579565b9150509250925092565b600181811c9082168061181a57607f821691505b60208210810361183a57634e487b7160e01b600052602260045260246000fd5b50919050565b634e487b7160e01b600052603260045260246000fd5b634e487b7160e01b600052601160045260246000fd5b60006001820161187e5761187e611856565b5060010190565b600083516118978184602088016113c1565b8351908301906118ab8183602088016113c1565b01949350505050565b8082018082111561032c5761032c611856565b60008151808452602080850194506020840160005b838110156119015781516001600160a01b0316875295820195908201906001016118dc565b509495945050505050565b81835281816020850137506000828201602090810191909152601f909101601f19169091010190565b60ff851681526000602060606020840152610120830186516060850152602087015160c0608086015281815180845261014087019150602083019350600092505b808310156119965783518252928401926001929092019190840190611976565b5060408901519350605f199250828682030160a08701526119b781856113e5565b9350505060608701516119d560c08601826001600160a01b03169052565b506080870151818584030160e08601526119ef83826118c7565b9250505060a08601516101008401528281036040840152611a1181858761190c565b979650505050505050565b60008251611a2e8184602087016113c1565b9190910192915050565b6000808335601e19843603018112611a4f57600080fd5b830160208101925035905067ffffffffffffffff811115611a6f57600080fd5b8060051b36038213156116b457600080fd5b6000808335601e19843603018112611a9857600080fd5b830160208101925035905067ffffffffffffffff811115611ab857600080fd5b8036038213156116b457600080fd5b8183526000602080850194508260005b85811015611901578135611aea8161143d565b6001600160a01b031687529582019590820190600101611ad7565b84815260606020820152833560608201526000611b256020860186611a38565b60c0608085015261012084018190526101406001600160fb1b03821115611b4b57600080fd5b8160051b91508183828701378185019250611b696040890189611a81565b925060e08685030160a0870152611b83828501848361190c565b9350505050611b9460608701611452565b6001600160a01b031660c0840152611baf6080870187611a38565b848303605f190160e0860152611bc6838284611ac7565b9250505060a08601356101008401528281036040840152611a1181858761190c565b600060808284031215611bfa57600080fd5b6040516080810181811067ffffffffffffffff82111715611c1d57611c1d611563565b6040528251611c2b8161143d565b8082525060208301516020820152604083015160408201526060830151611c518161143d565b60608201529392505050565b6001600160a01b0385811682528416602082015260408101839052608060608201819052600090611c90908301846113e5565b9695505050505050565b600060208284031215611cac57600080fd5b81516107a28161138b56fea2646970667358221220d7507200bdde6354f6fe54531706fdd2b5ba4469a88e6227fe319859aa50968964736f6c63430008190033",
    "linkReferences": {}
  },
  "methodIdentifiers": {
    "approve(address,uint256)": "095ea7b3",
    "balanceOf(address)": "70a08231",
    "getApproved(uint256)": "081812fc",
    "isApprovedForAll(address,address)": "e985e9c5",
    "lockNFT(uint256,uint256,address)": "7afd773a",
    "mailbox()": "d5438eae",
    "name()": "06fdde03",
    "onNexusMessage(bytes32,address,bytes)": "ff6a236e",
    "ownerOf(uint256)": "6352211e",
    "safeTransferFrom(address,address,uint256)": "42842e0e",
    "safeTransferFrom(address,address,uint256,bytes)": "b88d4fde",
    "setApprovalForAll(address,bool)": "a22cb465",
    "setNftPaymentContractAddress(address)": "23b38774",
    "supportsInterface(bytes4)": "01ffc9a7",
    "symbol()": "95d89b41",
    "tokenURI(uint256)": "c87b56dd",
    "transferFrom(address,address,uint256)": "23b872dd",
    "transferNFT(uint256,(bytes32,bytes32[],bytes,address,address[],uint256),bytes)": "feb0e395",
    "withdrawNFT(bytes32,bytes)": "d95edc3b"
  },
  "id": 8
}