{"abi":[{"type":"constructor","inputs":[{"name":"_selfChainId","type":"bytes32","internalType":"bytes32"},{"name":"_paymentChainID","type":"bytes32","internalType":"bytes32"},{"name":"_mailbox","type":"address","internalType":"contract INexusMailbox"}],"stateMutability":"nonpayable"},{"type":"function","name":"approve","inputs":[{"name":"to","type":"address","internalType":"address"},{"name":"tokenId","type":"uint256","internalType":"uint256"}],"outputs":[],"stateMutability":"nonpayable"},{"type":"function","name":"balanceOf","inputs":[{"name":"owner","type":"address","internalType":"address"}],"outputs":[{"name":"","type":"uint256","internalType":"uint256"}],"stateMutability":"view"},{"type":"function","name":"getApproved","inputs":[{"name":"tokenId","type":"uint256","internalType":"uint256"}],"outputs":[{"name":"","type":"address","internalType":"address"}],"stateMutability":"view"},{"type":"function","name":"isApprovedForAll","inputs":[{"name":"owner","type":"address","internalType":"address"},{"name":"operator","type":"address","internalType":"address"}],"outputs":[{"name":"","type":"bool","internalType":"bool"}],"stateMutability":"view"},{"type":"function","name":"lockNFT","inputs":[{"name":"tokenId","type":"uint256","internalType":"uint256"},{"name":"amount","type":"uint256","internalType":"uint256"},{"name":"tokenAddress","type":"address","internalType":"address"}],"outputs":[],"stateMutability":"nonpayable"},{"type":"function","name":"mailbox","inputs":[],"outputs":[{"name":"","type":"address","internalType":"contract INexusMailbox"}],"stateMutability":"view"},{"type":"function","name":"name","inputs":[],"outputs":[{"name":"","type":"string","internalType":"string"}],"stateMutability":"view"},{"type":"function","name":"ownerOf","inputs":[{"name":"tokenId","type":"uint256","internalType":"uint256"}],"outputs":[{"name":"","type":"address","internalType":"address"}],"stateMutability":"view"},{"type":"function","name":"safeTransferFrom","inputs":[{"name":"from","type":"address","internalType":"address"},{"name":"to","type":"address","internalType":"address"},{"name":"tokenId","type":"uint256","internalType":"uint256"}],"outputs":[],"stateMutability":"nonpayable"},{"type":"function","name":"safeTransferFrom","inputs":[{"name":"from","type":"address","internalType":"address"},{"name":"to","type":"address","internalType":"address"},{"name":"tokenId","type":"uint256","internalType":"uint256"},{"name":"data","type":"bytes","internalType":"bytes"}],"outputs":[],"stateMutability":"nonpayable"},{"type":"function","name":"setApprovalForAll","inputs":[{"name":"operator","type":"address","internalType":"address"},{"name":"approved","type":"bool","internalType":"bool"}],"outputs":[],"stateMutability":"nonpayable"},{"type":"function","name":"supportsInterface","inputs":[{"name":"interfaceId","type":"bytes4","internalType":"bytes4"}],"outputs":[{"name":"","type":"bool","internalType":"bool"}],"stateMutability":"view"},{"type":"function","name":"symbol","inputs":[],"outputs":[{"name":"","type":"string","internalType":"string"}],"stateMutability":"view"},{"type":"function","name":"tokenURI","inputs":[{"name":"tokenId","type":"uint256","internalType":"uint256"}],"outputs":[{"name":"","type":"string","internalType":"string"}],"stateMutability":"view"},{"type":"function","name":"transferFrom","inputs":[{"name":"from","type":"address","internalType":"address"},{"name":"to","type":"address","internalType":"address"},{"name":"tokenId","type":"uint256","internalType":"uint256"}],"outputs":[],"stateMutability":"nonpayable"},{"type":"function","name":"transferNFT","inputs":[{"name":"chainBlockNumber","type":"uint256","internalType":"uint256"},{"name":"mailboxReceipt","type":"tuple","internalType":"struct Receipt","components":[{"name":"chainIdFrom","type":"bytes32","internalType":"bytes32"},{"name":"chainIdTo","type":"bytes32[]","internalType":"bytes32[]"},{"name":"data","type":"bytes","internalType":"bytes"},{"name":"from","type":"address","internalType":"address"},{"name":"to","type":"address[]","internalType":"address[]"},{"name":"nonce","type":"uint256","internalType":"uint256"}]},{"name":"proof","type":"bytes","internalType":"bytes"}],"outputs":[],"stateMutability":"nonpayable"},{"type":"function","name":"withdrawNFT","inputs":[{"name":"lockHash","type":"bytes32","internalType":"bytes32"}],"outputs":[],"stateMutability":"nonpayable"},{"type":"event","name":"Approval","inputs":[{"name":"owner","type":"address","indexed":true,"internalType":"address"},{"name":"approved","type":"address","indexed":true,"internalType":"address"},{"name":"tokenId","type":"uint256","indexed":true,"internalType":"uint256"}],"anonymous":false},{"type":"event","name":"ApprovalForAll","inputs":[{"name":"owner","type":"address","indexed":true,"internalType":"address"},{"name":"operator","type":"address","indexed":true,"internalType":"address"},{"name":"approved","type":"bool","indexed":false,"internalType":"bool"}],"anonymous":false},{"type":"event","name":"Confirmation","inputs":[{"name":"tokenId","type":"uint256","indexed":false,"internalType":"uint256"},{"name":"to","type":"address","indexed":false,"internalType":"address"}],"anonymous":false},{"type":"event","name":"Transfer","inputs":[{"name":"from","type":"address","indexed":true,"internalType":"address"},{"name":"to","type":"address","indexed":true,"internalType":"address"},{"name":"tokenId","type":"uint256","indexed":true,"internalType":"uint256"}],"anonymous":false},{"type":"error","name":"ERC721IncorrectOwner","inputs":[{"name":"sender","type":"address","internalType":"address"},{"name":"tokenId","type":"uint256","internalType":"uint256"},{"name":"owner","type":"address","internalType":"address"}]},{"type":"error","name":"ERC721InsufficientApproval","inputs":[{"name":"operator","type":"address","internalType":"address"},{"name":"tokenId","type":"uint256","internalType":"uint256"}]},{"type":"error","name":"ERC721InvalidApprover","inputs":[{"name":"approver","type":"address","internalType":"address"}]},{"type":"error","name":"ERC721InvalidOperator","inputs":[{"name":"operator","type":"address","internalType":"address"}]},{"type":"error","name":"ERC721InvalidOwner","inputs":[{"name":"owner","type":"address","internalType":"address"}]},{"type":"error","name":"ERC721InvalidReceiver","inputs":[{"name":"receiver","type":"address","internalType":"address"}]},{"type":"error","name":"ERC721InvalidSender","inputs":[{"name":"sender","type":"address","internalType":"address"}]},{"type":"error","name":"ERC721NonexistentToken","inputs":[{"name":"tokenId","type":"uint256","internalType":"uint256"}]},{"type":"error","name":"InvalidSender","inputs":[]},{"type":"error","name":"TransferAlreadyCompleted","inputs":[]}],"bytecode":{"object":"0x60c060405234801561001057600080fd5b50604051611d84380380611d8483398101604081905261002f916100b8565b60405180604001604052806005815260200164135e53919560da1b815250604051806040016040528060048152602001631353919560e21b8152508160009081610079919061019f565b506001610086828261019f565b5050600780546001600160a01b0319166001600160a01b0393909316929092179091555060809190915260a05261025e565b6000806000606084860312156100cd57600080fd5b83516020850151604086015191945092506001600160a01b03811681146100f357600080fd5b809150509250925092565b634e487b7160e01b600052604160045260246000fd5b600181811c9082168061012857607f821691505b60208210810361014857634e487b7160e01b600052602260045260246000fd5b50919050565b601f82111561019a576000816000526020600020601f850160051c810160208610156101775750805b601f850160051c820191505b8181101561019657828155600101610183565b5050505b505050565b81516001600160401b038111156101b8576101b86100fe565b6101cc816101c68454610114565b8461014e565b602080601f83116001811461020157600084156101e95750858301515b600019600386901b1c1916600185901b178555610196565b600085815260208120601f198616915b8281101561023057888601518255948401946001909101908401610211565b508582101561024e5787850151600019600388901b60f8161c191681555b5050505050600190811b01905550565b60805160a051611af661028e60003960008181610504015281816107090152610ac5015260005050611af66000f3fe608060405234801561001057600080fd5b506004361061010b5760003560e01c806370a08231116100a2578063b88d4fde11610071578063b88d4fde14610228578063c87b56dd1461023b578063d5438eae1461024e578063e985e9c514610261578063feb0e3951461027457600080fd5b806370a08231146101d95780637afd773a146101fa57806395d89b411461020d578063a22cb4651461021557600080fd5b806323b872dd116100de57806323b872dd1461018d5780633bb8259c146101a057806342842e0e146101b35780636352211e146101c657600080fd5b806301ffc9a71461011057806306fdde0314610138578063081812fc1461014d578063095ea7b314610178575b600080fd5b61012361011e366004611311565b610287565b60405190151581526020015b60405180910390f35b6101406102d9565b60405161012f919061137e565b61016061015b366004611391565b61036b565b6040516001600160a01b03909116815260200161012f565b61018b6101863660046113c6565b610394565b005b61018b61019b3660046113f0565b6103a3565b61018b6101ae366004611391565b610433565b61018b6101c13660046113f0565b610672565b6101606101d4366004611391565b610692565b6101ec6101e736600461142c565b61069d565b60405190815260200161012f565b61018b610208366004611447565b6106e5565b6101406108b7565b61018b61022336600461147c565b6108c6565b61018b6102363660046114ff565b6108d1565b610140610249366004611391565b6108e8565b600754610160906001600160a01b031681565b61012361026f3660046115bf565b61095d565b61018b6102823660046115f2565b61098b565b60006001600160e01b031982166380ac58cd60e01b14806102b857506001600160e01b03198216635b5e139f60e01b145b806102d357506301ffc9a760e01b6001600160e01b03198316145b92915050565b6060600080546102e890611695565b80601f016020809104026020016040519081016040528092919081815260200182805461031490611695565b80156103615780601f1061033657610100808354040283529160200191610361565b820191906000526020600020905b81548152906001019060200180831161034457829003601f168201915b5050505050905090565b600061037682610c06565b506000828152600460205260409020546001600160a01b03166102d3565b61039f828233610c3f565b5050565b6001600160a01b0382166103d257604051633250574960e11b8152600060048201526024015b60405180910390fd5b60006103df838333610c4c565b9050836001600160a01b0316816001600160a01b03161461042d576040516364283d7b60e01b81526001600160a01b03808616600483015260248201849052821660448201526064016103c9565b50505050565b600081815260086020908152604091829020825160808101845281546001600160a01b03908116808352600184015494830194909452600283015494820194909452600390910154909216606083015233146104a257604051636edaef2f60e11b815260040160405180910390fd5b306001600160a01b03166104b98260200151610692565b6001600160a01b0316036104e0576040516305de099160e31b815260040160405180910390fd5b604080516001808252818301909252600091602080830190803683370190505090507f000000000000000000000000000000000000000000000000000000000000000081600081518110610536576105366116cf565b602090810291909101015260408051600180825281830190925260009181602001602082028036833701905050905060008160008151811061057a5761057a6116cf565b6001600160a01b039290921660209283029190910182015260408051808301825285830151808252825193840152916000910160405160208183030381529060405290506105cd333087602001516103a3565b60075460405163d40f1a1b60e01b81526001600160a01b039091169063d40f1a1b90610601908790879086906004016116e5565b600060405180830381600087803b15801561061b57600080fd5b505af115801561062f573d6000803e3d6000fd5b50505060009687525050600860205250506040832080546001600160a01b0319908116825560018201859055600282019490945560030180549093169092555050565b61068d838383604051806020016040528060008152506108d1565b505050565b60006102d382610c06565b60006001600160a01b0382166106c9576040516322718ad960e21b8152600060048201526024016103c9565b506001600160a01b031660009081526003602052604090205490565b604080516001808252818301909252600091602080830190803683370190505090507f00000000000000000000000000000000000000000000000000000000000000008160008151811061073b5761073b6116cf565b602090810291909101015260408051600180825281830190925260009181602001602082028036833701905050905060008160008151811061077f5761077f6116cf565b6001600160a01b039283166020918202929092018101919091526040805160808082018352338083528285018b81528385018b81528a881660608087019182528751808a018690528451818a015283519181019190915281518a16818701528751808203909601865260a00187528451858901206000908152600890985295909620845181549089166001600160a01b031991821617825591516001820155955160028701559351600390950180549590961694909316939093179093556108489030896103a3565b60075460405163d40f1a1b60e01b81526001600160a01b039091169063d40f1a1b9061087c908790879086906004016116e5565b600060405180830381600087803b15801561089657600080fd5b505af11580156108aa573d6000803e3d6000fd5b5050505050505050505050565b6060600180546102e890611695565b61039f338383610d45565b6108dc8484846103a3565b61042d84848484610de4565b60606108f382610c06565b50600061090b60408051602081019091526000815290565b9050600081511161092b5760405180602001604052806000815250610956565b8061093584610f0d565b60405160200161094692919061177c565b6040516020818303038152906040525b9392505050565b6001600160a01b03918216600090815260056020908152604080832093909416825291909152205460ff1690565b60075460405163c0b3742160e01b81526001600160a01b039091169063c0b37421906109c49087908790879087906000906004016118b1565b600060405180830381600087803b1580156109de57600080fd5b505af11580156109f2573d6000803e3d6000fd5b5060009250610a0791505060408501856119b0565b810190610a1491906119f7565b9050610a293082600001518360200151610fa0565b604080516080808201835260208085018051845285516001600160a01b0390811683860152606080880151868801529387015181169385019390935251855185519182529092169082015290917f1f7db319f45151674bbce08ad4e1093bca1941bc7ef2f91ccafd6519406f0101910160405180910390a1604080516001808252818301909252600091602080830190803683370190505090507f000000000000000000000000000000000000000000000000000000000000000081600081518110610af757610af76116cf565b6020908102919091010152604080516001808252818301909252600091816020016020820280368337019050509050600081600081518110610b3b57610b3b6116cf565b6001600160a01b039283166020918202929092018101919091526040805186518184015291860151831682820152850151606080830191909152850151909116608082015260009060a00160408051601f198184030181529082905260075463d40f1a1b60e01b83529092506001600160a01b03169063d40f1a1b90610bc9908690869086906004016116e5565b600060405180830381600087803b158015610be357600080fd5b505af1158015610bf7573d6000803e3d6000fd5b50505050505050505050505050565b6000818152600260205260408120546001600160a01b0316806102d357604051637e27328960e01b8152600481018490526024016103c9565b61068d8383836001611050565b6000828152600260205260408120546001600160a01b0390811690831615610c7957610c79818486611156565b6001600160a01b03811615610cb757610c96600085600080611050565b6001600160a01b038116600090815260036020526040902080546000190190555b6001600160a01b03851615610ce6576001600160a01b0385166000908152600360205260409020805460010190555b60008481526002602052604080822080546001600160a01b0319166001600160a01b0389811691821790925591518793918516917fddf252ad1be2c89b69c2b068fc378daa952ba7f163c4a11628f55a4df523b3ef91a4949350505050565b6001600160a01b038216610d7757604051630b61174360e31b81526001600160a01b03831660048201526024016103c9565b6001600160a01b03838116600081815260056020908152604080832094871680845294825291829020805460ff191686151590811790915591519182527f17307eab39ab6107e8899845ad3d59bd9653f200f220920489ca2b5937696c31910160405180910390a3505050565b6001600160a01b0383163b1561042d57604051630a85bd0160e11b81526001600160a01b0384169063150b7a0290610e26903390889087908790600401611a70565b6020604051808303816000875af1925050508015610e61575060408051601f3d908101601f19168201909252610e5e91810190611aa3565b60015b610eca573d808015610e8f576040519150601f19603f3d011682016040523d82523d6000602084013e610e94565b606091505b508051600003610ec257604051633250574960e11b81526001600160a01b03851660048201526024016103c9565b805181602001fd5b6001600160e01b03198116630a85bd0160e11b14610f0657604051633250574960e11b81526001600160a01b03851660048201526024016103c9565b5050505050565b60606000610f1a836111ba565b600101905060008167ffffffffffffffff811115610f3a57610f3a6114b8565b6040519080825280601f01601f191660200182016040528015610f64576020820181803683370190505b5090508181016020015b600019016f181899199a1a9b1b9c1cb0b131b232b360811b600a86061a8153600a8504945084610f6e57509392505050565b6001600160a01b038216610fca57604051633250574960e11b8152600060048201526024016103c9565b6000610fd883836000610c4c565b90506001600160a01b03811661100457604051637e27328960e01b8152600481018390526024016103c9565b836001600160a01b0316816001600160a01b03161461042d576040516364283d7b60e01b81526001600160a01b03808616600483015260248201849052821660448201526064016103c9565b808061106457506001600160a01b03821615155b1561112657600061107484610c06565b90506001600160a01b038316158015906110a05750826001600160a01b0316816001600160a01b031614155b80156110b357506110b1818461095d565b155b156110dc5760405163a9fbf51f60e01b81526001600160a01b03841660048201526024016103c9565b81156111245783856001600160a01b0316826001600160a01b03167f8c5be1e5ebec7d5bd14f71427d1e84f3dd0314c0f7b2291e5b200ac8c7c3b92560405160405180910390a45b505b5050600090815260046020526040902080546001600160a01b0319166001600160a01b0392909216919091179055565b611161838383611292565b61068d576001600160a01b03831661118f57604051637e27328960e01b8152600481018290526024016103c9565b60405163177e802f60e01b81526001600160a01b0383166004820152602481018290526044016103c9565b60008072184f03e93ff9f4daa797ed6e38ed64bf6a1f0160401b83106111f95772184f03e93ff9f4daa797ed6e38ed64bf6a1f0160401b830492506040015b6d04ee2d6d415b85acef81000000008310611225576d04ee2d6d415b85acef8100000000830492506020015b662386f26fc10000831061124357662386f26fc10000830492506010015b6305f5e100831061125b576305f5e100830492506008015b612710831061126f57612710830492506004015b60648310611281576064830492506002015b600a83106102d35760010192915050565b60006001600160a01b038316158015906112f05750826001600160a01b0316846001600160a01b031614806112cc57506112cc848461095d565b806112f057506000828152600460205260409020546001600160a01b038481169116145b949350505050565b6001600160e01b03198116811461130e57600080fd5b50565b60006020828403121561132357600080fd5b8135610956816112f8565b60005b83811015611349578181015183820152602001611331565b50506000910152565b6000815180845261136a81602086016020860161132e565b601f01601f19169290920160200192915050565b6020815260006109566020830184611352565b6000602082840312156113a357600080fd5b5035919050565b80356001600160a01b03811681146113c157600080fd5b919050565b600080604083850312156113d957600080fd5b6113e2836113aa565b946020939093013593505050565b60008060006060848603121561140557600080fd5b61140e846113aa565b925061141c602085016113aa565b9150604084013590509250925092565b60006020828403121561143e57600080fd5b610956826113aa565b60008060006060848603121561145c57600080fd5b8335925060208401359150611473604085016113aa565b90509250925092565b6000806040838503121561148f57600080fd5b611498836113aa565b9150602083013580151581146114ad57600080fd5b809150509250929050565b634e487b7160e01b600052604160045260246000fd5b604051601f8201601f1916810167ffffffffffffffff811182821017156114f7576114f76114b8565b604052919050565b6000806000806080858703121561151557600080fd5b61151e856113aa565b9350602061152d8187016113aa565b935060408601359250606086013567ffffffffffffffff8082111561155157600080fd5b818801915088601f83011261156557600080fd5b813581811115611577576115776114b8565b611589601f8201601f191685016114ce565b9150808252898482850101111561159f57600080fd5b808484018584013760008482840101525080935050505092959194509250565b600080604083850312156115d257600080fd5b6115db836113aa565b91506115e9602084016113aa565b90509250929050565b6000806000806060858703121561160857600080fd5b84359350602085013567ffffffffffffffff8082111561162757600080fd5b9086019060c0828903121561163b57600080fd5b9093506040860135908082111561165157600080fd5b818701915087601f83011261166557600080fd5b81358181111561167457600080fd5b88602082850101111561168657600080fd5b95989497505060200194505050565b600181811c908216806116a957607f821691505b6020821081036116c957634e487b7160e01b600052602260045260246000fd5b50919050565b634e487b7160e01b600052603260045260246000fd5b606080825284519082018190526000906020906080840190828801845b8281101561171e57815184529284019290840190600101611702565b5050508381038285015285518082528683019183019060005b8181101561175c5783516001600160a01b031683529284019291840191600101611737565b505084810360408601526117708187611352565b98975050505050505050565b6000835161178e81846020880161132e565b8351908301906117a281836020880161132e565b01949350505050565b6000808335601e198436030181126117c257600080fd5b830160208101925035905067ffffffffffffffff8111156117e257600080fd5b8060051b36038213156117f457600080fd5b9250929050565b6000808335601e1984360301811261181257600080fd5b830160208101925035905067ffffffffffffffff81111561183257600080fd5b8036038213156117f457600080fd5b81835281816020850137506000828201602090810191909152601f909101601f19169091010190565b8183526000602080850194508260005b858110156118a6576001600160a01b03611893836113aa565b168752958201959082019060010161187a565b509495945050505050565b858152608060208201528435608082015260006118d160208701876117ab565b60c060a085015261014084018190526101606001600160fb1b038211156118f757600080fd5b8160051b9150818382870137818501925061191560408a018a6117fb565b925060e08685030160c087015261192f8285018483611841565b9350505050611940606088016113aa565b6001600160a01b031660e084015261195b60808801886117ab565b848303607f190161010086015261197383828461186a565b9250505060a08701356101208401528281036040840152611995818688611841565b9150506119a6606083018415159052565b9695505050505050565b6000808335601e198436030181126119c757600080fd5b83018035915067ffffffffffffffff8211156119e257600080fd5b6020019150368190038213156117f457600080fd5b600060a08284031215611a0957600080fd5b60405160a0810181811067ffffffffffffffff82111715611a2c57611a2c6114b8565b604052611a38836113aa565b8152602083013560208201526040830135604082015260608301356060820152611a64608084016113aa565b60808201529392505050565b6001600160a01b03858116825284166020820152604081018390526080606082018190526000906119a690830184611352565b600060208284031215611ab557600080fd5b8151610956816112f856fea264697066735822122080c941b5ae890abbdb9bcc78d51fe4682f5b0fd3862d114dd6dcd11aa1bc8b7764736f6c63430008190033","linkReferences":{}},"methodIdentifiers":{"approve(address,uint256)":"095ea7b3","balanceOf(address)":"70a08231","getApproved(uint256)":"081812fc","isApprovedForAll(address,address)":"e985e9c5","lockNFT(uint256,uint256,address)":"7afd773a","mailbox()":"d5438eae","name()":"06fdde03","ownerOf(uint256)":"6352211e","safeTransferFrom(address,address,uint256)":"42842e0e","safeTransferFrom(address,address,uint256,bytes)":"b88d4fde","setApprovalForAll(address,bool)":"a22cb465","supportsInterface(bytes4)":"01ffc9a7","symbol()":"95d89b41","tokenURI(uint256)":"c87b56dd","transferFrom(address,address,uint256)":"23b872dd","transferNFT(uint256,(bytes32,bytes32[],bytes,address,address[],uint256),bytes)":"feb0e395","withdrawNFT(bytes32)":"3bb8259c"},"id":8}