{"abi":[{"type":"constructor","inputs":[{"name":"_selfChainId","type":"bytes32","internalType":"bytes32"},{"name":"_paymentChainID","type":"bytes32","internalType":"bytes32"},{"name":"_mailbox","type":"address","internalType":"contract INexusMailbox"}],"stateMutability":"nonpayable"},{"type":"function","name":"approve","inputs":[{"name":"to","type":"address","internalType":"address"},{"name":"tokenId","type":"uint256","internalType":"uint256"}],"outputs":[],"stateMutability":"nonpayable"},{"type":"function","name":"balanceOf","inputs":[{"name":"owner","type":"address","internalType":"address"}],"outputs":[{"name":"","type":"uint256","internalType":"uint256"}],"stateMutability":"view"},{"type":"function","name":"getApproved","inputs":[{"name":"tokenId","type":"uint256","internalType":"uint256"}],"outputs":[{"name":"","type":"address","internalType":"address"}],"stateMutability":"view"},{"type":"function","name":"isApprovedForAll","inputs":[{"name":"owner","type":"address","internalType":"address"},{"name":"operator","type":"address","internalType":"address"}],"outputs":[{"name":"","type":"bool","internalType":"bool"}],"stateMutability":"view"},{"type":"function","name":"lockNFT","inputs":[{"name":"tokenId","type":"uint256","internalType":"uint256"},{"name":"amount","type":"uint256","internalType":"uint256"},{"name":"tokenAddress","type":"address","internalType":"address"}],"outputs":[],"stateMutability":"nonpayable"},{"type":"function","name":"mailbox","inputs":[],"outputs":[{"name":"","type":"address","internalType":"contract INexusMailbox"}],"stateMutability":"view"},{"type":"function","name":"name","inputs":[],"outputs":[{"name":"","type":"string","internalType":"string"}],"stateMutability":"view"},{"type":"function","name":"ownerOf","inputs":[{"name":"tokenId","type":"uint256","internalType":"uint256"}],"outputs":[{"name":"","type":"address","internalType":"address"}],"stateMutability":"view"},{"type":"function","name":"safeTransferFrom","inputs":[{"name":"from","type":"address","internalType":"address"},{"name":"to","type":"address","internalType":"address"},{"name":"tokenId","type":"uint256","internalType":"uint256"}],"outputs":[],"stateMutability":"nonpayable"},{"type":"function","name":"safeTransferFrom","inputs":[{"name":"from","type":"address","internalType":"address"},{"name":"to","type":"address","internalType":"address"},{"name":"tokenId","type":"uint256","internalType":"uint256"},{"name":"data","type":"bytes","internalType":"bytes"}],"outputs":[],"stateMutability":"nonpayable"},{"type":"function","name":"setApprovalForAll","inputs":[{"name":"operator","type":"address","internalType":"address"},{"name":"approved","type":"bool","internalType":"bool"}],"outputs":[],"stateMutability":"nonpayable"},{"type":"function","name":"supportsInterface","inputs":[{"name":"interfaceId","type":"bytes4","internalType":"bytes4"}],"outputs":[{"name":"","type":"bool","internalType":"bool"}],"stateMutability":"view"},{"type":"function","name":"symbol","inputs":[],"outputs":[{"name":"","type":"string","internalType":"string"}],"stateMutability":"view"},{"type":"function","name":"tokenURI","inputs":[{"name":"tokenId","type":"uint256","internalType":"uint256"}],"outputs":[{"name":"","type":"string","internalType":"string"}],"stateMutability":"view"},{"type":"function","name":"transferFrom","inputs":[{"name":"from","type":"address","internalType":"address"},{"name":"to","type":"address","internalType":"address"},{"name":"tokenId","type":"uint256","internalType":"uint256"}],"outputs":[],"stateMutability":"nonpayable"},{"type":"function","name":"transferNFT","inputs":[{"name":"chainBlockNumber","type":"uint256","internalType":"uint256"},{"name":"mailboxReceipt","type":"tuple","internalType":"struct Receipt","components":[{"name":"chainIdFrom","type":"bytes32","internalType":"bytes32"},{"name":"chainIdTo","type":"bytes32[]","internalType":"bytes32[]"},{"name":"data","type":"bytes","internalType":"bytes"},{"name":"from","type":"address","internalType":"address"},{"name":"to","type":"address[]","internalType":"address[]"},{"name":"nonce","type":"uint256","internalType":"uint256"}]},{"name":"proof","type":"bytes","internalType":"bytes"}],"outputs":[],"stateMutability":"nonpayable"},{"type":"function","name":"withdrawNFT","inputs":[{"name":"lockHash","type":"bytes32","internalType":"bytes32"}],"outputs":[],"stateMutability":"nonpayable"},{"type":"event","name":"Approval","inputs":[{"name":"owner","type":"address","indexed":true,"internalType":"address"},{"name":"approved","type":"address","indexed":true,"internalType":"address"},{"name":"tokenId","type":"uint256","indexed":true,"internalType":"uint256"}],"anonymous":false},{"type":"event","name":"ApprovalForAll","inputs":[{"name":"owner","type":"address","indexed":true,"internalType":"address"},{"name":"operator","type":"address","indexed":true,"internalType":"address"},{"name":"approved","type":"bool","indexed":false,"internalType":"bool"}],"anonymous":false},{"type":"event","name":"Confirmation","inputs":[{"name":"tokenId","type":"uint256","indexed":false,"internalType":"uint256"},{"name":"to","type":"address","indexed":false,"internalType":"address"}],"anonymous":false},{"type":"event","name":"Transfer","inputs":[{"name":"from","type":"address","indexed":true,"internalType":"address"},{"name":"to","type":"address","indexed":true,"internalType":"address"},{"name":"tokenId","type":"uint256","indexed":true,"internalType":"uint256"}],"anonymous":false},{"type":"error","name":"ERC721IncorrectOwner","inputs":[{"name":"sender","type":"address","internalType":"address"},{"name":"tokenId","type":"uint256","internalType":"uint256"},{"name":"owner","type":"address","internalType":"address"}]},{"type":"error","name":"ERC721InsufficientApproval","inputs":[{"name":"operator","type":"address","internalType":"address"},{"name":"tokenId","type":"uint256","internalType":"uint256"}]},{"type":"error","name":"ERC721InvalidApprover","inputs":[{"name":"approver","type":"address","internalType":"address"}]},{"type":"error","name":"ERC721InvalidOperator","inputs":[{"name":"operator","type":"address","internalType":"address"}]},{"type":"error","name":"ERC721InvalidOwner","inputs":[{"name":"owner","type":"address","internalType":"address"}]},{"type":"error","name":"ERC721InvalidReceiver","inputs":[{"name":"receiver","type":"address","internalType":"address"}]},{"type":"error","name":"ERC721InvalidSender","inputs":[{"name":"sender","type":"address","internalType":"address"}]},{"type":"error","name":"ERC721NonexistentToken","inputs":[{"name":"tokenId","type":"uint256","internalType":"uint256"}]},{"type":"error","name":"InvalidSender","inputs":[]},{"type":"error","name":"TransferAlreadyCompleted","inputs":[]}],"bytecode":{"object":"0x60c0604052600060085534801561001557600080fd5b50604051611e18380380611e18833981016040819052610034916100bd565b60405180604001604052806005815260200164135e53919560da1b815250604051806040016040528060048152602001631353919560e21b815250816000908161007e91906101a4565b50600161008b82826101a4565b5050600680546001600160a01b0319166001600160a01b0393909316929092179091555060809190915260a052610263565b6000806000606084860312156100d257600080fd5b83516020850151604086015191945092506001600160a01b03811681146100f857600080fd5b809150509250925092565b634e487b7160e01b600052604160045260246000fd5b600181811c9082168061012d57607f821691505b60208210810361014d57634e487b7160e01b600052602260045260246000fd5b50919050565b601f82111561019f576000816000526020600020601f850160051c8101602086101561017c5750805b601f850160051c820191505b8181101561019b57828155600101610188565b5050505b505050565b81516001600160401b038111156101bd576101bd610103565b6101d1816101cb8454610119565b84610153565b602080601f83116001811461020657600084156101ee5750858301515b600019600386901b1c1916600185901b17855561019b565b600085815260208120601f198616915b8281101561023557888601518255948401946001909101908401610216565b50858210156102535787850151600019600388901b60f8161c191681555b5050505050600190811b01905550565b60805160a051611b8561029360003960008181610504015281816107250152610afd015260005050611b856000f3fe608060405234801561001057600080fd5b506004361061010b5760003560e01c806370a08231116100a2578063b88d4fde11610071578063b88d4fde14610228578063c87b56dd1461023b578063d5438eae1461024e578063e985e9c514610261578063feb0e3951461027457600080fd5b806370a08231146101d95780637afd773a146101fa57806395d89b411461020d578063a22cb4651461021557600080fd5b806323b872dd116100de57806323b872dd1461018d5780633bb8259c146101a057806342842e0e146101b35780636352211e146101c657600080fd5b806301ffc9a71461011057806306fdde0314610138578063081812fc1461014d578063095ea7b314610178575b600080fd5b61012361011e366004611372565b610287565b60405190151581526020015b60405180910390f35b6101406102d9565b60405161012f91906113df565b61016061015b3660046113f2565b61036b565b6040516001600160a01b03909116815260200161012f565b61018b610186366004611427565b610394565b005b61018b61019b366004611451565b6103a3565b61018b6101ae3660046113f2565b610433565b61018b6101c1366004611451565b61068e565b6101606101d43660046113f2565b6106ae565b6101ec6101e736600461148d565b6106b9565b60405190815260200161012f565b61018b6102083660046114a8565b610701565b6101406108ef565b61018b6102233660046114dd565b6108fe565b61018b610236366004611560565b610909565b6101406102493660046113f2565b610920565b600654610160906001600160a01b031681565b61012361026f366004611620565b610995565b61018b610282366004611653565b6109c3565b60006001600160e01b031982166380ac58cd60e01b14806102b857506001600160e01b03198216635b5e139f60e01b145b806102d357506301ffc9a760e01b6001600160e01b03198316145b92915050565b6060600080546102e8906116f6565b80601f0160208091040260200160405190810160405280929190818152602001828054610314906116f6565b80156103615780601f1061033657610100808354040283529160200191610361565b820191906000526020600020905b81548152906001019060200180831161034457829003601f168201915b5050505050905090565b600061037682610c67565b506000828152600460205260409020546001600160a01b03166102d3565b61039f828233610ca0565b5050565b6001600160a01b0382166103d257604051633250574960e11b8152600060048201526024015b60405180910390fd5b60006103df838333610cad565b9050836001600160a01b0316816001600160a01b03161461042d576040516364283d7b60e01b81526001600160a01b03808616600483015260248201849052821660448201526064016103c9565b50505050565b600081815260076020908152604091829020825160808101845281546001600160a01b03908116808352600184015494830194909452600283015494820194909452600390910154909216606083015233146104a257604051636edaef2f60e11b815260040160405180910390fd5b306001600160a01b03166104b982602001516106ae565b6001600160a01b0316036104e0576040516305de099160e31b815260040160405180910390fd5b604080516001808252818301909252600091602080830190803683370190505090507f00000000000000000000000000000000000000000000000000000000000000008160008151811061053657610536611730565b602090810291909101015260408051600180825281830190925260009181602001602082028036833701905050905060008160008151811061057a5761057a611730565b6001600160a01b039290921660209283029190910182015260408051808301825285830151808252825193840152916000910160405160208183030381529060405290506105cd333087602001516103a3565b600654600880546001600160a01b039092169163cb8d653c9187918791906000906105f790611746565b919050819055856040518563ffffffff1660e01b815260040161061d949392919061176d565b600060405180830381600087803b15801561063757600080fd5b505af115801561064b573d6000803e3d6000fd5b50505060009687525050600760205250506040832080546001600160a01b0319908116825560018201859055600282019490945560030180549093169092555050565b6106a983838360405180602001604052806000815250610909565b505050565b60006102d382610c67565b60006001600160a01b0382166106e5576040516322718ad960e21b8152600060048201526024016103c9565b506001600160a01b031660009081526003602052604090205490565b604080516001808252818301909252600091602080830190803683370190505090507f00000000000000000000000000000000000000000000000000000000000000008160008151811061075757610757611730565b602090810291909101015260408051600180825281830190925260009181602001602082028036833701905050905060008160008151811061079b5761079b611730565b6001600160a01b039283166020918202929092018101919091526040805160808082018352338083528285018b81528385018b81528a881660608087019182528751808a018690528451818a015283519181019190915281518a16818701528751808203909601865260a00187528451858901206000908152600790985295909620845181549089166001600160a01b031991821617825591516001820155955160028701559351600390950180549590961694909316939093179093556108649030896103a3565b600654600880546001600160a01b039092169163cb8d653c91879187919060009061088e90611746565b919050819055856040518563ffffffff1660e01b81526004016108b4949392919061176d565b600060405180830381600087803b1580156108ce57600080fd5b505af11580156108e2573d6000803e3d6000fd5b5050505050505050505050565b6060600180546102e8906116f6565b61039f338383610da6565b6109148484846103a3565b61042d84848484610e45565b606061092b82610c67565b50600061094360408051602081019091526000815290565b90506000815111610963576040518060200160405280600081525061098e565b8061096d84610f6e565b60405160200161097e92919061180b565b6040516020818303038152906040525b9392505050565b6001600160a01b03918216600090815260056020908152604080832093909416825291909152205460ff1690565b60065460405163c0b3742160e01b81526001600160a01b039091169063c0b37421906109fc908790879087908790600090600401611940565b600060405180830381600087803b158015610a1657600080fd5b505af1158015610a2a573d6000803e3d6000fd5b5060009250610a3f9150506040850185611a3f565b810190610a4c9190611a86565b9050610a613082600001518360200151611001565b604080516080808201835260208085018051845285516001600160a01b0390811683860152606080880151868801529387015181169385019390935251855185519182529092169082015290917f1f7db319f45151674bbce08ad4e1093bca1941bc7ef2f91ccafd6519406f0101910160405180910390a1604080516001808252818301909252600091602080830190803683370190505090507f000000000000000000000000000000000000000000000000000000000000000081600081518110610b2f57610b2f611730565b6020908102919091010152604080516001808252818301909252600091816020016020820280368337019050509050600081600081518110610b7357610b73611730565b6001600160a01b039283166020918202929092018101919091526040805186518184015291860151831682820152850151606080830191909152850151909116608082015260009060a0016040516020818303038152906040529050600660009054906101000a90046001600160a01b03166001600160a01b031663cb8d653c8484600860008154610c0490611746565b919050819055856040518563ffffffff1660e01b8152600401610c2a949392919061176d565b600060405180830381600087803b158015610c4457600080fd5b505af1158015610c58573d6000803e3d6000fd5b50505050505050505050505050565b6000818152600260205260408120546001600160a01b0316806102d357604051637e27328960e01b8152600481018490526024016103c9565b6106a983838360016110b1565b6000828152600260205260408120546001600160a01b0390811690831615610cda57610cda8184866111b7565b6001600160a01b03811615610d1857610cf76000856000806110b1565b6001600160a01b038116600090815260036020526040902080546000190190555b6001600160a01b03851615610d47576001600160a01b0385166000908152600360205260409020805460010190555b60008481526002602052604080822080546001600160a01b0319166001600160a01b0389811691821790925591518793918516917fddf252ad1be2c89b69c2b068fc378daa952ba7f163c4a11628f55a4df523b3ef91a4949350505050565b6001600160a01b038216610dd857604051630b61174360e31b81526001600160a01b03831660048201526024016103c9565b6001600160a01b03838116600081815260056020908152604080832094871680845294825291829020805460ff191686151590811790915591519182527f17307eab39ab6107e8899845ad3d59bd9653f200f220920489ca2b5937696c31910160405180910390a3505050565b6001600160a01b0383163b1561042d57604051630a85bd0160e11b81526001600160a01b0384169063150b7a0290610e87903390889087908790600401611aff565b6020604051808303816000875af1925050508015610ec2575060408051601f3d908101601f19168201909252610ebf91810190611b32565b60015b610f2b573d808015610ef0576040519150601f19603f3d011682016040523d82523d6000602084013e610ef5565b606091505b508051600003610f2357604051633250574960e11b81526001600160a01b03851660048201526024016103c9565b805181602001fd5b6001600160e01b03198116630a85bd0160e11b14610f6757604051633250574960e11b81526001600160a01b03851660048201526024016103c9565b5050505050565b60606000610f7b8361121b565b600101905060008167ffffffffffffffff811115610f9b57610f9b611519565b6040519080825280601f01601f191660200182016040528015610fc5576020820181803683370190505b5090508181016020015b600019016f181899199a1a9b1b9c1cb0b131b232b360811b600a86061a8153600a8504945084610fcf57509392505050565b6001600160a01b03821661102b57604051633250574960e11b8152600060048201526024016103c9565b600061103983836000610cad565b90506001600160a01b03811661106557604051637e27328960e01b8152600481018390526024016103c9565b836001600160a01b0316816001600160a01b03161461042d576040516364283d7b60e01b81526001600160a01b03808616600483015260248201849052821660448201526064016103c9565b80806110c557506001600160a01b03821615155b156111875760006110d584610c67565b90506001600160a01b038316158015906111015750826001600160a01b0316816001600160a01b031614155b801561111457506111128184610995565b155b1561113d5760405163a9fbf51f60e01b81526001600160a01b03841660048201526024016103c9565b81156111855783856001600160a01b0316826001600160a01b03167f8c5be1e5ebec7d5bd14f71427d1e84f3dd0314c0f7b2291e5b200ac8c7c3b92560405160405180910390a45b505b5050600090815260046020526040902080546001600160a01b0319166001600160a01b0392909216919091179055565b6111c28383836112f3565b6106a9576001600160a01b0383166111f057604051637e27328960e01b8152600481018290526024016103c9565b60405163177e802f60e01b81526001600160a01b0383166004820152602481018290526044016103c9565b60008072184f03e93ff9f4daa797ed6e38ed64bf6a1f0160401b831061125a5772184f03e93ff9f4daa797ed6e38ed64bf6a1f0160401b830492506040015b6d04ee2d6d415b85acef81000000008310611286576d04ee2d6d415b85acef8100000000830492506020015b662386f26fc1000083106112a457662386f26fc10000830492506010015b6305f5e10083106112bc576305f5e100830492506008015b61271083106112d057612710830492506004015b606483106112e2576064830492506002015b600a83106102d35760010192915050565b60006001600160a01b038316158015906113515750826001600160a01b0316846001600160a01b0316148061132d575061132d8484610995565b8061135157506000828152600460205260409020546001600160a01b038481169116145b949350505050565b6001600160e01b03198116811461136f57600080fd5b50565b60006020828403121561138457600080fd5b813561098e81611359565b60005b838110156113aa578181015183820152602001611392565b50506000910152565b600081518084526113cb81602086016020860161138f565b601f01601f19169290920160200192915050565b60208152600061098e60208301846113b3565b60006020828403121561140457600080fd5b5035919050565b80356001600160a01b038116811461142257600080fd5b919050565b6000806040838503121561143a57600080fd5b6114438361140b565b946020939093013593505050565b60008060006060848603121561146657600080fd5b61146f8461140b565b925061147d6020850161140b565b9150604084013590509250925092565b60006020828403121561149f57600080fd5b61098e8261140b565b6000806000606084860312156114bd57600080fd5b83359250602084013591506114d46040850161140b565b90509250925092565b600080604083850312156114f057600080fd5b6114f98361140b565b91506020830135801515811461150e57600080fd5b809150509250929050565b634e487b7160e01b600052604160045260246000fd5b604051601f8201601f1916810167ffffffffffffffff8111828210171561155857611558611519565b604052919050565b6000806000806080858703121561157657600080fd5b61157f8561140b565b9350602061158e81870161140b565b935060408601359250606086013567ffffffffffffffff808211156115b257600080fd5b818801915088601f8301126115c657600080fd5b8135818111156115d8576115d8611519565b6115ea601f8201601f1916850161152f565b9150808252898482850101111561160057600080fd5b808484018584013760008482840101525080935050505092959194509250565b6000806040838503121561163357600080fd5b61163c8361140b565b915061164a6020840161140b565b90509250929050565b6000806000806060858703121561166957600080fd5b84359350602085013567ffffffffffffffff8082111561168857600080fd5b9086019060c0828903121561169c57600080fd5b909350604086013590808211156116b257600080fd5b818701915087601f8301126116c657600080fd5b8135818111156116d557600080fd5b8860208285010111156116e757600080fd5b95989497505060200194505050565b600181811c9082168061170a57607f821691505b60208210810361172a57634e487b7160e01b600052602260045260246000fd5b50919050565b634e487b7160e01b600052603260045260246000fd5b60006001820161176657634e487b7160e01b600052601160045260246000fd5b5060010190565b6080808252855190820181905260009060209060a0840190828901845b828110156117a65781518452928401929084019060010161178a565b5050508381038285015286518082528783019183019060005b818110156117e45783516001600160a01b0316835292840192918401916001016117bf565b505086604086015284810360608601526117fe81876113b3565b9998505050505050505050565b6000835161181d81846020880161138f565b83519083019061183181836020880161138f565b01949350505050565b6000808335601e1984360301811261185157600080fd5b830160208101925035905067ffffffffffffffff81111561187157600080fd5b8060051b360382131561188357600080fd5b9250929050565b6000808335601e198436030181126118a157600080fd5b830160208101925035905067ffffffffffffffff8111156118c157600080fd5b80360382131561188357600080fd5b81835281816020850137506000828201602090810191909152601f909101601f19169091010190565b8183526000602080850194508260005b85811015611935576001600160a01b036119228361140b565b1687529582019590820190600101611909565b509495945050505050565b85815260806020820152843560808201526000611960602087018761183a565b60c060a085015261014084018190526101606001600160fb1b0382111561198657600080fd5b8160051b915081838287013781850192506119a460408a018a61188a565b925060e08685030160c08701526119be82850184836118d0565b93505050506119cf6060880161140b565b6001600160a01b031660e08401526119ea608088018861183a565b848303607f1901610100860152611a028382846118f9565b9250505060a08701356101208401528281036040840152611a248186886118d0565b915050611a35606083018415159052565b9695505050505050565b6000808335601e19843603018112611a5657600080fd5b83018035915067ffffffffffffffff821115611a7157600080fd5b60200191503681900382131561188357600080fd5b600060a08284031215611a9857600080fd5b60405160a0810181811067ffffffffffffffff82111715611abb57611abb611519565b604052611ac78361140b565b8152602083013560208201526040830135604082015260608301356060820152611af36080840161140b565b60808201529392505050565b6001600160a01b0385811682528416602082015260408101839052608060608201819052600090611a35908301846113b3565b600060208284031215611b4457600080fd5b815161098e8161135956fea2646970667358221220bd2e289a950aa3d0af1974c361d2a56ed8d126ea20d2c3549c227a5bff2a5b2f64736f6c63430008190033","linkReferences":{}},"methodIdentifiers":{"approve(address,uint256)":"095ea7b3","balanceOf(address)":"70a08231","getApproved(uint256)":"081812fc","isApprovedForAll(address,address)":"e985e9c5","lockNFT(uint256,uint256,address)":"7afd773a","mailbox()":"d5438eae","name()":"06fdde03","ownerOf(uint256)":"6352211e","safeTransferFrom(address,address,uint256)":"42842e0e","safeTransferFrom(address,address,uint256,bytes)":"b88d4fde","setApprovalForAll(address,bool)":"a22cb465","supportsInterface(bytes4)":"01ffc9a7","symbol()":"95d89b41","tokenURI(uint256)":"c87b56dd","transferFrom(address,address,uint256)":"23b872dd","transferNFT(uint256,(bytes32,bytes32[],bytes,address,address[],uint256),bytes)":"feb0e395","withdrawNFT(bytes32)":"3bb8259c"},"id":8}