{"abi":[{"type":"constructor","inputs":[{"name":"_proofManager","type":"address","internalType":"contract INexusProofManager"},{"name":"_chainId","type":"bytes32","internalType":"bytes32"}],"stateMutability":"nonpayable"},{"type":"function","name":"storedBatchHash","inputs":[{"name":"","type":"uint256","internalType":"uint256"}],"outputs":[{"name":"","type":"bytes32","internalType":"bytes32"}],"stateMutability":"nonpayable"}],"bytecode":{"object":"0x60c06040525f80553480156011575f80fd5b50604051610205380380610205833981016040819052602e916043565b6001600160a01b0390911660805260a0526078565b5f80604083850312156053575f80fd5b82516001600160a01b03811681146068575f80fd5b6020939093015192949293505050565b60805160a05161016e6100975f395f606c01525f6092015261016e5ff3fe608060405234801561000f575f80fd5b5060043610610029575f3560e01c8063b22dd78e1461002d575b5f80fd5b61004061003b36600461010a565b610052565b60405190815260200160405180910390f35b5f805460405163266218bb60e21b815260048101919091527f000000000000000000000000000000000000000000000000000000000000000060248201527f00000000000000000000000000000000000000000000000000000000000000006001600160a01b03169063998862ec906044016020604051808303815f875af11580156100e0573d5f803e3d5ffd5b505050506040513d601f19601f820116820180604052508101906101049190610121565b92915050565b5f6020828403121561011a575f80fd5b5035919050565b5f60208284031215610131575f80fd5b505191905056fea2646970667358221220b2e8ff3e2478f23f3f3708e842419787e755ee0ba334c8c8ddb85438b6a12d9f64736f6c63430008190033","linkReferences":{}},"methodIdentifiers":{"storedBatchHash(uint256)":"b22dd78e"},"id":58}