{"abi":[{"type":"constructor","inputs":[{"name":"nexusManager","type":"address","internalType":"contract INexusProofManager"}],"stateMutability":"nonpayable"},{"type":"function","name":"buyNft","inputs":[{"name":"asset","type":"address","internalType":"address"},{"name":"nftId","type":"uint256","internalType":"uint256"}],"outputs":[],"stateMutability":"nonpayable"},{"type":"function","name":"nexus","inputs":[],"outputs":[{"name":"","type":"address","internalType":"contract INexusProofManager"}],"stateMutability":"view"}],"bytecode":{"object":"0x608060405234801561001057600080fd5b506040516102cc3803806102cc83398101604081905261002f91610054565b600080546001600160a01b0319166001600160a01b0392909216919091179055610084565b60006020828403121561006657600080fd5b81516001600160a01b038116811461007d57600080fd5b9392505050565b610239806100936000396000f3fe608060405234801561001057600080fd5b50600436106100365760003560e01c80634ddf4f8f1461003b578063a3f5c1d214610050575b600080fd5b61004e6100493660046101a2565b61007f565b005b600054610063906001600160a01b031681565b6040516001600160a01b03909116815260200160405180910390f35b610089813361012f565b6040516323b872dd60e01b815233600482015230602482015266038d7ea4c6800060448201526001600160a01b038316906323b872dd906064016020604051808303816000875af11580156100e2573d6000803e3d6000fd5b505050506040513d601f19601f8201168201806040525081019061010691906101da565b506000908152600160208181526040808420338552909152909120805460ff1916909117905550565b60008281526001602090815260408083206001600160a01b038516845290915290205460ff161561019e5760405162461bcd60e51b815260206004820152601560248201527413919508185b1c9958591e481c1d5c98da185cd959605a1b604482015260640160405180910390fd5b5050565b600080604083850312156101b557600080fd5b82356001600160a01b03811681146101cc57600080fd5b946020939093013593505050565b6000602082840312156101ec57600080fd5b815180151581146101fc57600080fd5b939250505056fea2646970667358221220cd8e385c11cae96a454cdb3658b6e029f63b7ab74ba9cedb303220359b91581664736f6c63430008140033","linkReferences":{}},"methodIdentifiers":{"buyNft(address,uint256)":"4ddf4f8f","nexus()":"a3f5c1d2"},"id":10}