{"abi":[{"type":"function","name":"getChainState","inputs":[{"name":"blockNumber","type":"uint256","internalType":"uint256"},{"name":"nexusAppID","type":"bytes32","internalType":"bytes32"}],"outputs":[{"name":"","type":"bytes32","internalType":"bytes32"}],"stateMutability":"view"},{"type":"function","name":"latestNexusBlockNumber","inputs":[],"outputs":[{"name":"","type":"uint256","internalType":"uint256"}],"stateMutability":"view"},{"type":"function","name":"nexusAppIdToLatestBlockNumber","inputs":[{"name":"","type":"bytes32","internalType":"bytes32"}],"outputs":[{"name":"","type":"uint256","internalType":"uint256"}],"stateMutability":"view"},{"type":"function","name":"nexusAppIdToState","inputs":[{"name":"","type":"bytes32","internalType":"bytes32"},{"name":"","type":"uint256","internalType":"uint256"}],"outputs":[{"name":"","type":"bytes32","internalType":"bytes32"}],"stateMutability":"view"},{"type":"function","name":"nexusBlock","inputs":[{"name":"","type":"uint256","internalType":"uint256"}],"outputs":[{"name":"stateRoot","type":"bytes32","internalType":"bytes32"},{"name":"blockHash","type":"bytes32","internalType":"bytes32"}],"stateMutability":"view"},{"type":"function","name":"updateChainState","inputs":[{"name":"nexusBlockNumber","type":"uint256","internalType":"uint256"},{"name":"siblings","type":"bytes32[]","internalType":"bytes32[]"},{"name":"key","type":"bytes32","internalType":"bytes32"},{"name":"accountState","type":"tuple","internalType":"struct NexusProofManager.AccountState","components":[{"name":"statementDigest","type":"bytes32","internalType":"bytes32"},{"name":"stateRoot","type":"bytes32","internalType":"bytes32"},{"name":"startNexusHash","type":"bytes32","internalType":"bytes32"},{"name":"lastProofHeight","type":"uint128","internalType":"uint128"},{"name":"height","type":"uint128","internalType":"uint128"}]}],"outputs":[],"stateMutability":"nonpayable"},{"type":"function","name":"updateNexusBlock","inputs":[{"name":"blockNumber","type":"uint256","internalType":"uint256"},{"name":"nexusBlockInfo","type":"tuple","internalType":"struct NexusProofManager.NexusBlock","components":[{"name":"stateRoot","type":"bytes32","internalType":"bytes32"},{"name":"blockHash","type":"bytes32","internalType":"bytes32"}]}],"outputs":[],"stateMutability":"nonpayable"},{"type":"function","name":"verifyRollupState","inputs":[{"name":"root","type":"bytes32","internalType":"bytes32"},{"name":"proof","type":"tuple","internalType":"struct JellyfishMerkleTreeVerifier.Proof","components":[{"name":"leaf","type":"tuple","internalType":"struct JellyfishMerkleTreeVerifier.Leaf","components":[{"name":"addr","type":"bytes32","internalType":"bytes32"},{"name":"valueHash","type":"bytes32","internalType":"bytes32"}]},{"name":"siblings","type":"bytes32[]","internalType":"bytes32[]"}]},{"name":"leaf","type":"tuple","internalType":"struct JellyfishMerkleTreeVerifier.Leaf","components":[{"name":"addr","type":"bytes32","internalType":"bytes32"},{"name":"valueHash","type":"bytes32","internalType":"bytes32"}]}],"outputs":[],"stateMutability":"pure"},{"type":"error","name":"AlreadyUpdatedBlock","inputs":[{"name":"blockNumber","type":"uint256","internalType":"uint256"}]},{"type":"error","name":"InvalidBlockNumber","inputs":[{"name":"blockNumber","type":"uint256","internalType":"uint256"},{"name":"latestBlockNumber","type":"uint256","internalType":"uint256"}]},{"type":"error","name":"NexusLeafInclusionCheckFailed","inputs":[]}],"bytecode":{"object":"0x608060405260008055348015601357600080fd5b50610903806100236000396000f3fe608060405234801561001057600080fd5b50600436106100885760003560e01c80638a6305401161005b5780638a6305401461013c5780638bb9dc06146101455780638d2383a914610158578063998862ec1461016b57600080fd5b80632d4383591461008d5780633bf38b10146100cb578063520782a11461010757806376ac39cb14610127575b600080fd5b6100b861009b3660046104e8565b600360209081526000928352604080842090915290825290205481565b6040519081526020015b60405180910390f35b6100f26100d936600461050a565b6001602081905260009182526040909120805491015482565b604080519283526020830191909152016100c2565b6100b861011536600461050a565b60026020526000908152604090205481565b61013a610135366004610523565b61017e565b005b6100b860005481565b61013a6101533660046105fb565b6101e0565b61013a6101663660046106ff565b61027e565b6100b86101793660046104e8565b610464565b600082815260016020526040902054156101b35760405163a9d81c2960e01b8152600481018390526024015b60405180910390fd5b600082815260016020818152604083208435815590840135910155548211156101dc5760008290555b5050565b604051632e6840fb60e21b815273__$b72d790b7d63a30ea1f79f177a8e7b5f05$__9063b9a103ec9061021b908690859087906004016107a6565b602060405180830381865af4158015610238573d6000803e3d6000fd5b505050506040513d601f19601f8201168201806040525081019061025c9190610833565b61027957604051637368fda760e11b815260040160405180910390fd5b505050565b6000600282356020840135604085013561029e608087016060880161085c565b6102ae60a088016080890161085c565b60408051602081019690965285019390935260608401919091526001600160801b0390811660808401521660a082015260c00160408051601f19818403018152908290526102fb91610885565b602060405180830381855afa158015610318573d6000803e3d6000fd5b5050506040513d601f19601f8201168201806040525081019061033b91906108b4565b9050600060405180604001604052808581526020018381525090506000604051806040016040528083815260200188888080602002602001604051908101604052809392919081815260200183836020028082843760009201829052509390945250508a8152600160205260409020549192506103bb91905082846101e0565b6103cb60a085016080860161085c565b6001600160801b03166002600087815260200190815260200160002054101561041b576103fe60a085016080860161085c565b60008681526002602052604090206001600160801b039190911690555b60008581526003602090815260408220908601359161044060a088016080890161085c565b6001600160801b031681526020810191909152604001600020555050505050505050565b60008181526002602052604081205483820361049a576000838152600360209081526040808320938352929052205490506104e2565b808411156104c55760405163d5dc642d60e01b815260048101859052602481018290526044016101aa565b505060008181526003602090815260408083208584529091529020545b92915050565b600080604083850312156104fb57600080fd5b50508035926020909101359150565b60006020828403121561051c57600080fd5b5035919050565b600080828403606081121561053757600080fd5b833592506040601f198201121561054d57600080fd5b506020830190509250929050565b634e487b7160e01b600052604160045260246000fd5b6040805190810167ffffffffffffffff811182821017156105945761059461055b565b60405290565b604051601f8201601f1916810167ffffffffffffffff811182821017156105c3576105c361055b565b604052919050565b6000604082840312156105dd57600080fd5b6105e5610571565b9050813581526020820135602082015292915050565b60008060006080848603121561061057600080fd5b8335925060208085013567ffffffffffffffff8082111561063057600080fd5b908601906060828903121561064457600080fd5b61064c610571565b61065689846105cb565b815260408301358281111561066a57600080fd5b80840193505088601f84011261067f57600080fd5b8235828111156106915761069161055b565b8060051b92506106a285840161059a565b818152928401850192858101908b8511156106bc57600080fd5b948601945b848610156106da578535825294860194908601906106c1565b8087850152505050809550505050506106f685604086016105cb565b90509250925092565b600080600080600085870361010081121561071957600080fd5b86359550602087013567ffffffffffffffff8082111561073857600080fd5b818901915089601f83011261074c57600080fd5b81358181111561075b57600080fd5b8a60208260051b850101111561077057600080fd5b6020929092019650909450506040870135925060a0605f198201121561079557600080fd5b506060860190509295509295909350565b838152600060206107c4602084018680518252602090810151910152565b6080606084015260e083016107e760808501865180518252602090810151910152565b602085810151606060c087015280519283905201906000906101008601905b808310156108265783518252928401926001929092019190840190610806565b5098975050505050505050565b60006020828403121561084557600080fd5b8151801515811461085557600080fd5b9392505050565b60006020828403121561086e57600080fd5b81356001600160801b038116811461085557600080fd5b6000825160005b818110156108a6576020818601810151858301520161088c565b506000920191825250919050565b6000602082840312156108c657600080fd5b505191905056fea2646970667358221220a2004c8bf930ce2abd69765292b1e83b786260f5b81d3599c237944303c1b96b64736f6c63430008190033","linkReferences":{"lib/nexus.git/contracts/src/lib/JellyfishMerkleTreeVerifier.sol":{"JellyfishMerkleTreeVerifier":[{"start":530,"length":20}]}}},"methodIdentifiers":{"getChainState(uint256,bytes32)":"998862ec","latestNexusBlockNumber()":"8a630540","nexusAppIdToLatestBlockNumber(bytes32)":"520782a1","nexusAppIdToState(bytes32,uint256)":"2d438359","nexusBlock(uint256)":"3bf38b10","updateChainState(uint256,bytes32[],bytes32,(bytes32,bytes32,bytes32,uint128,uint128))":"8d2383a9","updateNexusBlock(uint256,(bytes32,bytes32))":"76ac39cb","verifyRollupState(bytes32,((bytes32,bytes32),bytes32[]),(bytes32,bytes32))":"8bb9dc06"},"id":37}