{"abi":[{"type":"constructor","inputs":[{"name":"nexusAppID","type":"bytes32","internalType":"bytes32"}],"stateMutability":"nonpayable"},{"type":"function","name":"getChainState","inputs":[{"name":"blockNumber","type":"uint256","internalType":"uint256"},{"name":"nexusAppID","type":"bytes32","internalType":"bytes32"}],"outputs":[{"name":"","type":"bytes32","internalType":"bytes32"}],"stateMutability":"view"},{"type":"function","name":"latestNexusBlockNumber","inputs":[],"outputs":[{"name":"","type":"uint256","internalType":"uint256"}],"stateMutability":"view"},{"type":"function","name":"nexusAppIDToLatestBlockNumber","inputs":[{"name":"","type":"bytes32","internalType":"bytes32"}],"outputs":[{"name":"","type":"uint256","internalType":"uint256"}],"stateMutability":"view"},{"type":"function","name":"nexusAppIDToState","inputs":[{"name":"","type":"bytes32","internalType":"bytes32"},{"name":"","type":"uint256","internalType":"uint256"}],"outputs":[{"name":"","type":"bytes32","internalType":"bytes32"}],"stateMutability":"view"},{"type":"function","name":"nexusBlock","inputs":[{"name":"","type":"uint256","internalType":"uint256"}],"outputs":[{"name":"stateRoot","type":"bytes32","internalType":"bytes32"},{"name":"blockHash","type":"bytes32","internalType":"bytes32"}],"stateMutability":"view"},{"type":"function","name":"updateChainState","inputs":[{"name":"nexusBlockNumber","type":"uint256","internalType":"uint256"},{"name":"siblings","type":"bytes32[]","internalType":"bytes32[]"},{"name":"key","type":"bytes32","internalType":"bytes32"},{"name":"accountState","type":"tuple","internalType":"struct NexusProofManager.AccountState","components":[{"name":"statementDigest","type":"bytes32","internalType":"bytes32"},{"name":"stateRoot","type":"bytes32","internalType":"bytes32"},{"name":"startNexusHash","type":"bytes32","internalType":"bytes32"},{"name":"lastProofHeight","type":"uint128","internalType":"uint128"},{"name":"height","type":"uint128","internalType":"uint128"}]}],"outputs":[],"stateMutability":"nonpayable"},{"type":"function","name":"updateNexusBlock","inputs":[{"name":"blockNumber","type":"uint256","internalType":"uint256"},{"name":"latestNexusBlock","type":"tuple","internalType":"struct NexusProofManager.NexusBlock","components":[{"name":"stateRoot","type":"bytes32","internalType":"bytes32"},{"name":"blockHash","type":"bytes32","internalType":"bytes32"}]}],"outputs":[],"stateMutability":"nonpayable"},{"type":"function","name":"verifyRollupState","inputs":[{"name":"root","type":"bytes32","internalType":"bytes32"},{"name":"proof","type":"tuple","internalType":"struct JellyfishMerkleTreeVerifier.Proof","components":[{"name":"leaf","type":"tuple","internalType":"struct JellyfishMerkleTreeVerifier.Leaf","components":[{"name":"addr","type":"bytes32","internalType":"bytes32"},{"name":"valueHash","type":"bytes32","internalType":"bytes32"}]},{"name":"siblings","type":"bytes32[]","internalType":"bytes32[]"}]},{"name":"leaf","type":"tuple","internalType":"struct JellyfishMerkleTreeVerifier.Leaf","components":[{"name":"addr","type":"bytes32","internalType":"bytes32"},{"name":"valueHash","type":"bytes32","internalType":"bytes32"}]}],"outputs":[],"stateMutability":"view"}],"bytecode":{"object":"0x60806040526000805534801561001457600080fd5b50604051610a52380380610a5283398101604081905261003391610039565b50610052565b60006020828403121561004b57600080fd5b5051919050565b6109f1806100616000396000f3fe608060405234801561001057600080fd5b50600436106100885760003560e01c80638a6305401161005b5780638a6305401461013c5780638bb9dc06146101455780638d2383a914610158578063998862ec1461016b57600080fd5b806306b43d501461008d5780630fec3171146100cb5780633bf38b10146100eb57806376ac39cb14610127575b600080fd5b6100b861009b3660046105d8565b600360209081526000928352604080842090915290825290205481565b6040519081526020015b60405180910390f35b6100b86100d93660046105fa565b60026020526000908152604090205481565b6101126100f93660046105fa565b6001602081905260009182526040909120805491015482565b604080519283526020830191909152016100c2565b61013a610135366004610613565b61017e565b005b6100b860005481565b61013a6101533660046106eb565b6101ec565b61013a6101663660046107ef565b6102e6565b6100b86101793660046105d8565b610501565b60005482116101cc5760405162461bcd60e51b8152602060048201526015602482015274109b1bd8dac8185b1c9958591e481d5c19185d1959605a1b60448201526064015b60405180910390fd5b600082815260016020818152604083208435815593013592019190915555565b80516101f79061056f565b610204816020015161056f565b604051632e6840fb60e21b815260009073__$5f260e6b1554894ad0a8ec25878153635b$__9063b9a103ec9061024290879086908890600401610896565b602060405180830381865af415801561025f573d6000803e3d6000fd5b505050506040513d601f19601f820116820180604052508101906102839190610921565b9050806102e05760405162461bcd60e51b815260206004820152602560248201527f496e76616c6964206c65616620616761696e7374206e65787573207374617465604482015264081c9bdbdd60da1b60648201526084016101c3565b50505050565b60006002823560208401356040850135610306608087016060880161094a565b61031660a088016080890161094a565b60408051602081019690965285019390935260608401919091526001600160801b0390811660808401521660a082015260c00160408051601f198184030181529082905261036391610973565b602060405180830381855afa158015610380573d6000803e3d6000fd5b5050506040513d601f19601f820116820180604052508101906103a391906109a2565b9050600060405180604001604052808581526020018381525090506000604051806040016040528083815260200188888080602002602001604051908101604052809392919081815260200183836020028082843760009201829052509390945250508a81526001602052604090205491925061042391905082846101ec565b61043360a085016080860161094a565b6001600160801b03166002600087815260200190815260200160002054106104905760405162461bcd60e51b815260206004820152601060248201526f27b63210313637b1b590373ab6b132b960811b60448201526064016101c3565b6104a060a085016080860161094a565b60008681526002602090815260408083206001600160801b0394909416909355600381529181209186013591906104dd60a088016080890161094a565b6001600160801b031681526020810191909152604001600020555050505050505050565b6000826000036105325750600081815260036020908152604080832060028352818420548452909152902054610569565b60008281526002602052604090205483111561054d57600080fd5b5060008181526003602090815260408083208584529091529020545b92915050565b6105b48160405160240161058591815260200190565b60408051601f198184030181529190526020810180516001600160e01b03166327b7cf8560e01b1790526105b7565b50565b80516a636f6e736f6c652e6c6f67602083016000808483855afa5050505050565b600080604083850312156105eb57600080fd5b50508035926020909101359150565b60006020828403121561060c57600080fd5b5035919050565b600080828403606081121561062757600080fd5b833592506040601f198201121561063d57600080fd5b506020830190509250929050565b634e487b7160e01b600052604160045260246000fd5b6040805190810167ffffffffffffffff811182821017156106845761068461064b565b60405290565b604051601f8201601f1916810167ffffffffffffffff811182821017156106b3576106b361064b565b604052919050565b6000604082840312156106cd57600080fd5b6106d5610661565b9050813581526020820135602082015292915050565b60008060006080848603121561070057600080fd5b8335925060208085013567ffffffffffffffff8082111561072057600080fd5b908601906060828903121561073457600080fd5b61073c610661565b61074689846106bb565b815260408301358281111561075a57600080fd5b80840193505088601f84011261076f57600080fd5b8235828111156107815761078161064b565b8060051b925061079285840161068a565b818152928401850192858101908b8511156107ac57600080fd5b948601945b848610156107ca578535825294860194908601906107b1565b8087850152505050809550505050506107e685604086016106bb565b90509250925092565b600080600080600085870361010081121561080957600080fd5b86359550602087013567ffffffffffffffff8082111561082857600080fd5b818901915089601f83011261083c57600080fd5b81358181111561084b57600080fd5b8a60208260051b850101111561086057600080fd5b6020929092019650909450506040870135925060a0605f198201121561088557600080fd5b506060860190509295509295909350565b838152600060206108b38184018680518252602090810151910152565b6080606084015260e083016108d660808501865180518252602090810151910152565b84820151606060c08601528051918290528201906000906101008601905b8083101561091457835182529284019260019290920191908401906108f4565b5098975050505050505050565b60006020828403121561093357600080fd5b8151801515811461094357600080fd5b9392505050565b60006020828403121561095c57600080fd5b81356001600160801b038116811461094357600080fd5b6000825160005b81811015610994576020818601810151858301520161097a565b506000920191825250919050565b6000602082840312156109b457600080fd5b505191905056fea26469706673582212203e8394d49f45c23f89d2b943e20aec13d8b8234a36b626004f0fef094c9800f064736f6c63430008140033","linkReferences":{"contracts/lib/JellyfishMerkleTreeVerifier.sol":{"JellyfishMerkleTreeVerifier":[{"start":631,"length":20}]}}},"methodIdentifiers":{"getChainState(uint256,bytes32)":"998862ec","latestNexusBlockNumber()":"8a630540","nexusAppIDToLatestBlockNumber(bytes32)":"0fec3171","nexusAppIDToState(bytes32,uint256)":"06b43d50","nexusBlock(uint256)":"3bf38b10","updateChainState(uint256,bytes32[],bytes32,(bytes32,bytes32,bytes32,uint128,uint128))":"8d2383a9","updateNexusBlock(uint256,(bytes32,bytes32))":"76ac39cb","verifyRollupState(bytes32,((bytes32,bytes32),bytes32[]),(bytes32,bytes32))":"8bb9dc06"},"id":0}