{"abi":[{"type":"constructor","inputs":[{"name":"nexusAppID","type":"bytes32","internalType":"bytes32"}],"stateMutability":"nonpayable"},{"type":"function","name":"getChainState","inputs":[{"name":"blockNumber","type":"uint256","internalType":"uint256"},{"name":"nexusAppID","type":"bytes32","internalType":"bytes32"}],"outputs":[{"name":"","type":"bytes32","internalType":"bytes32"}],"stateMutability":"view"},{"type":"function","name":"getStorageRoot","inputs":[{"name":"nexusAppID","type":"bytes32","internalType":"bytes32"},{"name":"chainBlockNumber","type":"uint256","internalType":"uint256"},{"name":"account","type":"address","internalType":"address"},{"name":"accountTrieProof","type":"bytes","internalType":"bytes"}],"outputs":[{"name":"","type":"bytes32","internalType":"bytes32"}],"stateMutability":"view"},{"type":"function","name":"latestNexusBlockNumber","inputs":[],"outputs":[{"name":"","type":"uint256","internalType":"uint256"}],"stateMutability":"view"},{"type":"function","name":"nexusAppIDToLatestBlockNumber","inputs":[{"name":"","type":"bytes32","internalType":"bytes32"}],"outputs":[{"name":"","type":"uint256","internalType":"uint256"}],"stateMutability":"view"},{"type":"function","name":"nexusBlock","inputs":[{"name":"","type":"uint256","internalType":"uint256"}],"outputs":[{"name":"stateRoot","type":"bytes32","internalType":"bytes32"},{"name":"blockHash","type":"bytes32","internalType":"bytes32"}],"stateMutability":"view"},{"type":"function","name":"selfChainId","inputs":[],"outputs":[{"name":"","type":"bytes32","internalType":"bytes32"}],"stateMutability":"view"},{"type":"function","name":"updateChainState","inputs":[{"name":"nexusBlockNumber","type":"uint256","internalType":"uint256"},{"name":"siblings","type":"bytes32[]","internalType":"bytes32[]"},{"name":"key","type":"bytes32","internalType":"bytes32"},{"name":"accountState","type":"tuple","internalType":"struct NexusProofManager.AccountState","components":[{"name":"statementDigest","type":"bytes32","internalType":"bytes32"},{"name":"stateRoot","type":"bytes32","internalType":"bytes32"},{"name":"startNexusHash","type":"bytes32","internalType":"bytes32"},{"name":"lastProofHeight","type":"uint128","internalType":"uint128"},{"name":"height","type":"uint128","internalType":"uint128"}]}],"outputs":[],"stateMutability":"nonpayable"},{"type":"function","name":"updateNexusBlock","inputs":[{"name":"blockNumber","type":"uint256","internalType":"uint256"},{"name":"latestNexusBlock","type":"tuple","internalType":"struct NexusProofManager.NexusBlock","components":[{"name":"stateRoot","type":"bytes32","internalType":"bytes32"},{"name":"blockHash","type":"bytes32","internalType":"bytes32"}]}],"outputs":[],"stateMutability":"nonpayable"},{"type":"function","name":"verifyAccount","inputs":[{"name":"latestState","type":"bytes32","internalType":"bytes32"},{"name":"accountTrieProof","type":"bytes","internalType":"bytes"},{"name":"account","type":"address","internalType":"address"}],"outputs":[{"name":"nonce","type":"uint256","internalType":"uint256"},{"name":"accountBalance","type":"uint256","internalType":"uint256"},{"name":"codeHash","type":"bytes32","internalType":"bytes32"},{"name":"storageRoot","type":"bytes32","internalType":"bytes32"}],"stateMutability":"view"},{"type":"function","name":"verifyRollupState","inputs":[{"name":"root","type":"bytes32","internalType":"bytes32"},{"name":"proof","type":"tuple","internalType":"struct JellyfishMerkleTreeVerifier.Proof","components":[{"name":"leaf","type":"tuple","internalType":"struct JellyfishMerkleTreeVerifier.Leaf","components":[{"name":"addr","type":"bytes32","internalType":"bytes32"},{"name":"valueHash","type":"bytes32","internalType":"bytes32"}]},{"name":"siblings","type":"bytes32[]","internalType":"bytes32[]"}]},{"name":"leaf","type":"tuple","internalType":"struct JellyfishMerkleTreeVerifier.Leaf","components":[{"name":"addr","type":"bytes32","internalType":"bytes32"},{"name":"valueHash","type":"bytes32","internalType":"bytes32"}]}],"outputs":[],"stateMutability":"pure"},{"type":"function","name":"verifyStorage","inputs":[{"name":"storageRoot","type":"bytes32","internalType":"bytes32"},{"name":"slot","type":"bytes32","internalType":"bytes32"},{"name":"storageSlotTrieProof","type":"bytes","internalType":"bytes"}],"outputs":[{"name":"slotValue","type":"bytes32","internalType":"bytes32"}],"stateMutability":"view"}],"bytecode":{"object":"0x60a06040526000805534801561001457600080fd5b506040516121963803806121968339810160408190526100339161003b565b608052610054565b60006020828403121561004d57600080fd5b5051919050565b60805161212761006f60003960006101d201526121276000f3fe608060405234801561001057600080fd5b50600436106100a95760003560e01c80638a630540116100715780638a630540146101785780638bb9dc06146101815780638d2383a914610194578063998862ec146101a75780639a089eb6146101ba578063cc9e3e89146101cd57600080fd5b80630fec3171146100ae5780633bf38b10146100e15780636f7096dc1461011d57806376ac39cb146101305780637f1b8c7314610145575b600080fd5b6100ce6100bc366004611a6f565b60026020526000908152604090205481565b6040519081526020015b60405180910390f35b6101086100ef366004611a6f565b6001602081905260009182526040909120805491015482565b604080519283526020830191909152016100d8565b6100ce61012b366004611ad1565b6101f4565b61014361013e366004611b24565b610299565b005b610158610153366004611be8565b610307565b6040805194855260208501939093529183015260608201526080016100d8565b6100ce60005481565b61014361018f366004611cc7565b61037a565b6101436101a2366004611dc2565b61045c565b6100ce6101b5366004611e69565b610677565b6100ce6101c8366004611e8b565b6106e5565b6100ce7f000000000000000000000000000000000000000000000000000000000000000081565b6000808460405160200161020a91815260200190565b60408051601f198184030181526020601f8701819004810284018101909252858352925060009161025a9184919088908890819084018382808284376000920191909152508c92506107a2915050565b60408051808201825260008082526020918201528151808301909252825182528083019082015290925061028e91506107cb565b979650505050505050565b60005482116102e75760405162461bcd60e51b8152602060048201526015602482015274109b1bd8dac8185b1c9958591e481d5c19185d1959605a1b60448201526064015b60405180910390fd5b600082815260016020818152604083208435815593013592019190915555565b600080600080600085604051602001610338919060609190911b6bffffffffffffffffffffffff1916815260140190565b6040516020818303038152906040529050600080610357838a8c6107a2565b9150915061036582826108ce565b929d919c50919a509098509650505050505050565b604051632e6840fb60e21b815260009073__$5f260e6b1554894ad0a8ec25878153635b$__9063b9a103ec906103b890879086908890600401611ef3565b602060405180830381865af41580156103d5573d6000803e3d6000fd5b505050506040513d601f19601f820116820180604052508101906103f99190611f7e565b9050806104565760405162461bcd60e51b815260206004820152602560248201527f496e76616c6964206c65616620616761696e7374206e65787573207374617465604482015264081c9bdbdd60da1b60648201526084016102de565b50505050565b6000600282356020840135604085013561047c6080870160608801611fa0565b61048c60a0880160808901611fa0565b60408051602081019690965285019390935260608401919091526001600160801b0390811660808401521660a082015260c00160408051601f19818403018152908290526104d991611fc9565b602060405180830381855afa1580156104f6573d6000803e3d6000fd5b5050506040513d601f19601f820116820180604052508101906105199190611ff8565b9050600060405180604001604052808581526020018381525090506000604051806040016040528083815260200188888080602002602001604051908101604052809392919081815260200183836020028082843760009201829052509390945250508a815260016020526040902054919250610599919050828461037a565b6105a960a0850160808601611fa0565b6001600160801b03166002600087815260200190815260200160002054106106065760405162461bcd60e51b815260206004820152601060248201526f27b63210313637b1b590373ab6b132b960811b60448201526064016102de565b61061660a0850160808601611fa0565b60008681526002602090815260408083206001600160801b03949094169093556003815291812091860135919061065360a0880160808901611fa0565b6001600160801b031681526020810191909152604001600020555050505050505050565b6000826000036106a857506000818152600360209081526040808320600283528184205484529091529020546106df565b6000828152600260205260409020548311156106c357600080fd5b5060008181526003602090815260408083208584529091529020545b92915050565b60008581526002602052604081205485111561073a5760405162461bcd60e51b815260206004820152601460248201527324b73b30b634b210313637b1b590373ab6b132b960611b60448201526064016102de565b60008681526003602090815260408083208884528252808320548151601f8701849004840281018401909252858252929161079391849188908890819084018382808284376000920191909152508b9250610307915050565b9b9a5050505050505050505050565b6000606060006107b1866109f8565b90506107be818686610a2a565b9250925050935093915050565b60006021826000015111156108225760405162461bcd60e51b815260206004820152601a60248201527f496e76616c696420524c5020627974657333322076616c75652e00000000000060448201526064016102de565b600080600061083085610b05565b91945092509050600081600181111561084b5761084b612011565b146108985760405162461bcd60e51b815260206004820152601a60248201527f496e76616c696420524c5020627974657333322076616c75652e00000000000060448201526064016102de565b60008386602001516108aa919061203d565b805190915060208410156108c45760208490036101000a90045b9695505050505050565b6000806000808561092a5750600092508291507f56e81f171bcc55a6ff8345e692c0f86e5b48e01b996cadc001622fb5e363b42190507fc5d2460186f7233c927e7db2dcc703c0e500b653ca82273b7bfad8045d85a4706109ef565b60006109656109608760408051808201825260008082526020918201528151808301909252825182529182019181019190915290565b610e0b565b905061098d81600060ff168151811061098057610980612050565b6020026020010151610ff7565b94506109a881600160ff168151811061098057610980612050565b93506109d081600360ff16815181106109c3576109c3612050565b60200260200101516107cb565b91506109eb81600260ff16815181106109c3576109c3612050565b9250505b92959194509250565b60608180519060200120604051602001610a1491815260200190565b6040516020818303038152906040529050919050565b600060606000610a3985611002565b90506000806000610a4b848a896110fd565b81519295509093509150158080610a5f5750815b610aab5760405162461bcd60e51b815260206004820152601a60248201527f50726f76696465642070726f6f6620697320696e76616c69642e00000000000060448201526064016102de565b600081610ac75760405180602001604052806000815250610af3565b610af386610ad6600188612066565b81518110610ae657610ae6612050565b602002602001015161151c565b919b919a509098505050505050505050565b600080600080846000015111610b5d5760405162461bcd60e51b815260206004820152601860248201527f524c50206974656d2063616e6e6f74206265206e756c6c2e000000000000000060448201526064016102de565b6020840151805160001a607f8111610b82576000600160009450945094505050610e04565b60b78111610bf2578551607f198201908110610be05760405162461bcd60e51b815260206004820152601960248201527f496e76616c696420524c502073686f727420737472696e672e0000000000000060448201526064016102de565b60019550935060009250610e04915050565b60bf8111610ccc57855160b6198201908110610c505760405162461bcd60e51b815260206004820152601f60248201527f496e76616c696420524c50206c6f6e6720737472696e67206c656e6774682e0060448201526064016102de565b6000816020036101000a6001850151049050808201886000015111610cb75760405162461bcd60e51b815260206004820152601860248201527f496e76616c696420524c50206c6f6e6720737472696e672e000000000000000060448201526064016102de565b60019091019550935060009250610e04915050565b60f78111610d3b57855160bf198201908110610d2a5760405162461bcd60e51b815260206004820152601760248201527f496e76616c696420524c502073686f7274206c6973742e00000000000000000060448201526064016102de565b600195509350849250610e04915050565b855160f6198201908110610d915760405162461bcd60e51b815260206004820152601d60248201527f496e76616c696420524c50206c6f6e67206c697374206c656e6774682e00000060448201526064016102de565b6000816020036101000a6001850151049050808201886000015111610df15760405162461bcd60e51b815260206004820152601660248201527524b73b30b634b210292628103637b733903634b9ba1760511b60448201526064016102de565b6001918201965094509250610e04915050565b9193909250565b6060600080610e1984610b05565b91935090915060019050816001811115610e3557610e35612011565b14610e825760405162461bcd60e51b815260206004820152601760248201527f496e76616c696420524c50206c6973742076616c75652e00000000000000000060448201526064016102de565b6040805160208082526104208201909252600091816020015b6040805180820190915260008082526020820152815260200190600190039081610e9b5790505090506000835b8651811015610fec5760208210610f345760405162461bcd60e51b815260206004820152602a60248201527f50726f766964656420524c50206c6973742065786365656473206d6178206c6960448201526939ba103632b733ba341760b11b60648201526084016102de565b600080610f716040518060400160405280858c60000151610f559190612066565b8152602001858c60200151610f6a919061203d565b9052610b05565b509150915060405180604001604052808383610f8d919061203d565b8152602001848b60200151610fa2919061203d565b815250858581518110610fb757610fb7612050565b6020908102919091010152610fcd60018561203d565b9350610fd9818361203d565b610fe3908461203d565b92505050610ec8565b508152949350505050565b60006106df826107cb565b6060600061100f83611546565b90506000815167ffffffffffffffff81111561102d5761102d611b5c565b60405190808252806020026020018201604052801561107257816020015b604080518082019091526060808252602082015281526020019060019003908161104b5790505b50905060005b82518110156110f55760006110a584838151811061109857611098612050565b6020026020010151611579565b905060405180604001604052808281526020016110c183611546565b8152508383815181106110d6576110d6612050565b60200260200101819052505080806110ed90612079565b915050611078565b509392505050565b6000606081808061110d87611609565b90506000869050600080611134604051806040016040528060608152602001606081525090565b60005b8c518110156114f4578c818151811061115257611152612050565b602002602001015191508284611168919061203d565b935061117560018861203d565b9650836000036111d0578151805160209091012085146111cb5760405162461bcd60e51b8152602060048201526011602482015270092dcecc2d8d2c840e4dedee840d0c2e6d607b1b60448201526064016102de565b61128d565b815151602011611232578151805160209091012085146111cb5760405162461bcd60e51b815260206004820152601b60248201527f496e76616c6964206c6172676520696e7465726e616c2068617368000000000060448201526064016102de565b846112408360000151611725565b1461128d5760405162461bcd60e51b815260206004820152601a60248201527f496e76616c696420696e7465726e616c206e6f6465206861736800000000000060448201526064016102de565b6112996010600161203d565b8260200151510361130b57855184146114f45760008685815181106112c0576112c0612050565b602001015160f81c60f81b60f81c9050600083602001518260ff16815181106112eb576112eb612050565b602002602001015190506112fe8161174d565b96506001945050506114e2565b60028260200151510361149a5760006113238361178a565b905060008160008151811061133a5761133a612050565b016020015160f81c905060006113516002836120a8565b61135c9060026120d8565b9050600061136d848360ff166117ae565b9050600061137b8b8a6117ae565b9050600061138983836117de565b905060ff8516600214806113a0575060ff85166003145b156113da578083511480156113b55750808251145b156113c7576113c4818b61203d565b99505b50600160ff1b99506114f4945050505050565b60ff851615806113ed575060ff85166001145b15611443578060000361140d5750600160ff1b99506114f4945050505050565b611434886020015160018151811061142757611427612050565b602002602001015161174d565b9a5097506114e2945050505050565b60405162461bcd60e51b815260206004820152602660248201527f52656365697665642061206e6f6465207769746820616e20756e6b6e6f776e206044820152650e0e4caccd2f60d31b60648201526084016102de565b60405162461bcd60e51b815260206004820152601d60248201527f526563656976656420616e20756e706172736561626c65206e6f64652e00000060448201526064016102de565b806114ec81612079565b915050611137565b50600160ff1b84148661150787866117ae565b909e909d50909b509950505050505050505050565b602081015180516060916106df9161153690600190612066565b8151811061109857611098612050565b6040805180820182526000808252602091820152815180830190925282518252808301908201526060906106df90610e0b565b6060600080600061158985610b05565b9194509250905060008160018111156115a4576115a4612011565b146115f15760405162461bcd60e51b815260206004820152601860248201527f496e76616c696420524c502062797465732076616c75652e000000000000000060448201526064016102de565b6116008560200151848461185a565b95945050505050565b60606000825160020267ffffffffffffffff81111561162a5761162a611b5c565b6040519080825280601f01601f191660200182016040528015611654576020820181803683370190505b50905060005b835181101561171e57600484828151811061167757611677612050565b602001015160f81c60f81b6001600160f81b031916901c8282600202815181106116a3576116a3612050565b60200101906001600160f81b031916908160001a90535060108482815181106116ce576116ce612050565b016020015160f81c816116e3576116e3612092565b0660f81b8282600202600101815181106116ff576116ff612050565b60200101906001600160f81b031916908160001a90535060010161165a565b5092915050565b600060208251101561173957506020015190565b818060200190518101906106df9190611ff8565b6000606060208360000151101561176e576117678361190c565b905061177a565b61177783611579565b90505b61178381611725565b9392505050565b60606106df6117a9836020015160008151811061109857611098612050565b611609565b6060818351036000036117d057506040805160208101909152600081526106df565b611783838384865103611917565b6000805b8084511180156117f25750808351115b8015611843575082818151811061180b5761180b612050565b602001015160f81c60f81b6001600160f81b03191684828151811061183257611832612050565b01602001516001600160f81b031916145b15611783578061185281612079565b9150506117e2565b606060008267ffffffffffffffff81111561187757611877611b5c565b6040519080825280601f01601f1916602001820160405280156118a1576020820181803683370190505b50905080516000036118b4579050611783565b8484016020820160005b602086048110156118df5782518252602092830192909101906001016118be565b5060006001602087066020036101000a039050808251168119845116178252839450505050509392505050565b60606106df82611a59565b60608182601f01101561195d5760405162461bcd60e51b815260206004820152600e60248201526d736c6963655f6f766572666c6f7760901b60448201526064016102de565b8282840110156119a05760405162461bcd60e51b815260206004820152600e60248201526d736c6963655f6f766572666c6f7760901b60448201526064016102de565b818301845110156119e75760405162461bcd60e51b8152602060048201526011602482015270736c6963655f6f75744f66426f756e647360781b60448201526064016102de565b606082158015611a065760405191506000825260208201604052611a50565b6040519150601f8416801560200281840101858101878315602002848b0101015b81831015611a3f578051835260209283019201611a27565b5050858452601f01601f1916604052505b50949350505050565b60606106df82602001516000846000015161185a565b600060208284031215611a8157600080fd5b5035919050565b60008083601f840112611a9a57600080fd5b50813567ffffffffffffffff811115611ab257600080fd5b602083019150836020828501011115611aca57600080fd5b9250929050565b60008060008060608587031215611ae757600080fd5b8435935060208501359250604085013567ffffffffffffffff811115611b0c57600080fd5b611b1887828801611a88565b95989497509550505050565b6000808284036060811215611b3857600080fd5b833592506040601f1982011215611b4e57600080fd5b506020830190509250929050565b634e487b7160e01b600052604160045260246000fd5b6040805190810167ffffffffffffffff81118282101715611b9557611b95611b5c565b60405290565b604051601f8201601f1916810167ffffffffffffffff81118282101715611bc457611bc4611b5c565b604052919050565b80356001600160a01b0381168114611be357600080fd5b919050565b600080600060608486031215611bfd57600080fd5b8335925060208085013567ffffffffffffffff80821115611c1d57600080fd5b818701915087601f830112611c3157600080fd5b813581811115611c4357611c43611b5c565b611c55601f8201601f19168501611b9b565b91508082528884828501011115611c6b57600080fd5b8084840185840137600084828401015250809450505050611c8e60408501611bcc565b90509250925092565b600060408284031215611ca957600080fd5b611cb1611b72565b9050813581526020820135602082015292915050565b600080600060808486031215611cdc57600080fd5b8335925060208085013567ffffffffffffffff80821115611cfc57600080fd5b9086019060608289031215611d1057600080fd5b611d18611b72565b611d228984611c97565b8152604083013582811115611d3657600080fd5b80840193505088601f840112611d4b57600080fd5b823582811115611d5d57611d5d611b5c565b8060051b9250611d6e858401611b9b565b818152928401850192858101908b851115611d8857600080fd5b948601945b84861015611da657853582529486019490860190611d8d565b808785015250505080955050505050611c8e8560408601611c97565b6000806000806000858703610100811215611ddc57600080fd5b86359550602087013567ffffffffffffffff80821115611dfb57600080fd5b818901915089601f830112611e0f57600080fd5b813581811115611e1e57600080fd5b8a60208260051b8501011115611e3357600080fd5b6020929092019650909450506040870135925060a0605f1982011215611e5857600080fd5b506060860190509295509295909350565b60008060408385031215611e7c57600080fd5b50508035926020909101359150565b600080600080600060808688031215611ea357600080fd5b8535945060208601359350611eba60408701611bcc565b9250606086013567ffffffffffffffff811115611ed657600080fd5b611ee288828901611a88565b969995985093965092949392505050565b83815260006020611f108184018680518252602090810151910152565b6080606084015260e08301611f3360808501865180518252602090810151910152565b84820151606060c08601528051918290528201906000906101008601905b80831015611f715783518252928401926001929092019190840190611f51565b5098975050505050505050565b600060208284031215611f9057600080fd5b8151801515811461178357600080fd5b600060208284031215611fb257600080fd5b81356001600160801b038116811461178357600080fd5b6000825160005b81811015611fea5760208186018101518583015201611fd0565b506000920191825250919050565b60006020828403121561200a57600080fd5b5051919050565b634e487b7160e01b600052602160045260246000fd5b634e487b7160e01b600052601160045260246000fd5b808201808211156106df576106df612027565b634e487b7160e01b600052603260045260246000fd5b818103818111156106df576106df612027565b60006001820161208b5761208b612027565b5060010190565b634e487b7160e01b600052601260045260246000fd5b600060ff8316806120c957634e487b7160e01b600052601260045260246000fd5b8060ff84160691505092915050565b60ff82811682821603908111156106df576106df61202756fea26469706673582212205dae00070afe9ae80b288d4ad0e745e46cb16d98692d9e8c78c4d21c95dcfa8764736f6c63430008140033","linkReferences":{"contracts/lib/JellyfishMerkleTreeVerifier.sol":{"JellyfishMerkleTreeVerifier":[{"start":1019,"length":20}]}}},"methodIdentifiers":{"getChainState(uint256,bytes32)":"998862ec","getStorageRoot(bytes32,uint256,address,bytes)":"9a089eb6","latestNexusBlockNumber()":"8a630540","nexusAppIDToLatestBlockNumber(bytes32)":"0fec3171","nexusBlock(uint256)":"3bf38b10","selfChainId()":"cc9e3e89","updateChainState(uint256,bytes32[],bytes32,(bytes32,bytes32,bytes32,uint128,uint128))":"8d2383a9","updateNexusBlock(uint256,(bytes32,bytes32))":"76ac39cb","verifyAccount(bytes32,bytes,address)":"7f1b8c73","verifyRollupState(bytes32,((bytes32,bytes32),bytes32[]),(bytes32,bytes32))":"8bb9dc06","verifyStorage(bytes32,bytes32,bytes)":"6f7096dc"},"id":0}