{"abi":[{"type":"function","name":"getChainState","inputs":[{"name":"blockNumber","type":"uint256","internalType":"uint256"},{"name":"nexusAppID","type":"bytes32","internalType":"bytes32"}],"outputs":[{"name":"","type":"bytes32","internalType":"bytes32"}],"stateMutability":"view"},{"type":"function","name":"latestNexusBlockNumber","inputs":[],"outputs":[{"name":"","type":"uint256","internalType":"uint256"}],"stateMutability":"view"},{"type":"function","name":"nexusAppIdToLatestBlockNumber","inputs":[{"name":"","type":"bytes32","internalType":"bytes32"}],"outputs":[{"name":"","type":"uint256","internalType":"uint256"}],"stateMutability":"view"},{"type":"function","name":"nexusAppIdToState","inputs":[{"name":"","type":"bytes32","internalType":"bytes32"},{"name":"","type":"uint256","internalType":"uint256"}],"outputs":[{"name":"","type":"bytes32","internalType":"bytes32"}],"stateMutability":"view"},{"type":"function","name":"nexusBlock","inputs":[{"name":"","type":"uint256","internalType":"uint256"}],"outputs":[{"name":"stateRoot","type":"bytes32","internalType":"bytes32"},{"name":"blockHash","type":"bytes32","internalType":"bytes32"}],"stateMutability":"view"},{"type":"function","name":"updateChainState","inputs":[{"name":"nexusBlockNumber","type":"uint256","internalType":"uint256"},{"name":"siblings","type":"bytes32[]","internalType":"bytes32[]"},{"name":"key","type":"bytes32","internalType":"bytes32"},{"name":"accountState","type":"tuple","internalType":"struct NexusProofManager.AccountState","components":[{"name":"statementDigest","type":"bytes32","internalType":"bytes32"},{"name":"stateRoot","type":"bytes32","internalType":"bytes32"},{"name":"startNexusHash","type":"bytes32","internalType":"bytes32"},{"name":"lastProofHeight","type":"uint128","internalType":"uint128"},{"name":"height","type":"uint128","internalType":"uint128"}]}],"outputs":[],"stateMutability":"nonpayable"},{"type":"function","name":"updateNexusBlock","inputs":[{"name":"blockNumber","type":"uint256","internalType":"uint256"},{"name":"nexusBlockInfo","type":"tuple","internalType":"struct NexusProofManager.NexusBlock","components":[{"name":"stateRoot","type":"bytes32","internalType":"bytes32"},{"name":"blockHash","type":"bytes32","internalType":"bytes32"}]}],"outputs":[],"stateMutability":"nonpayable"},{"type":"function","name":"verifyRollupState","inputs":[{"name":"root","type":"bytes32","internalType":"bytes32"},{"name":"proof","type":"tuple","internalType":"struct JellyfishMerkleTreeVerifier.Proof","components":[{"name":"leaf","type":"tuple","internalType":"struct JellyfishMerkleTreeVerifier.Leaf","components":[{"name":"addr","type":"bytes32","internalType":"bytes32"},{"name":"valueHash","type":"bytes32","internalType":"bytes32"}]},{"name":"siblings","type":"bytes32[]","internalType":"bytes32[]"}]},{"name":"leaf","type":"tuple","internalType":"struct JellyfishMerkleTreeVerifier.Leaf","components":[{"name":"addr","type":"bytes32","internalType":"bytes32"},{"name":"valueHash","type":"bytes32","internalType":"bytes32"}]}],"outputs":[],"stateMutability":"pure"},{"type":"error","name":"AlreadyUpdatedBlock","inputs":[{"name":"blockNumber","type":"uint256","internalType":"uint256"}]},{"type":"error","name":"InvalidBlockNumber","inputs":[{"name":"blockNumber","type":"uint256","internalType":"uint256"},{"name":"latestBlockNumber","type":"uint256","internalType":"uint256"}]},{"type":"error","name":"NexusLeafInclusionCheckFailed","inputs":[]}],"bytecode":{"object":"0x60806040525f80553480156011575f80fd5b506108a98061001f5f395ff3fe608060405234801561000f575f80fd5b5060043610610085575f3560e01c80638a630540116100585780638a630540146101355780638bb9dc061461013d5780638d2383a914610150578063998862ec14610163575f80fd5b80632d438359146100895780633bf38b10146100c6578063520782a11461010157806376ac39cb14610120575b5f80fd5b6100b36100973660046104cd565b600360209081525f928352604080842090915290825290205481565b6040519081526020015b60405180910390f35b6100ec6100d43660046104ed565b600160208190525f9182526040909120805491015482565b604080519283526020830191909152016100bd565b6100b361010f3660046104ed565b60026020525f908152604090205481565b61013361012e366004610504565b610176565b005b6100b35f5481565b61013361014b3660046105d5565b6101d5565b61013361015e3660046106d1565b610271565b6100b36101713660046104cd565b61044c565b5f82815260016020526040902054156101aa5760405163a9d81c2960e01b8152600481018390526024015b60405180910390fd5b5f82815260016020818152604083208435815590840135910155548211156101d1575f8290555b5050565b604051632e6840fb60e21b815273__$b77a7e19957b1584528e98a188a995bdf6$__9063b9a103ec906102109086908590879060040161076f565b602060405180830381865af415801561022b573d5f803e3d5ffd5b505050506040513d601f19601f8201168201806040525081019061024f91906107fa565b61026c57604051637368fda760e11b815260040160405180910390fd5b505050565b5f60028235602084013560408501356102906080870160608801610820565b6102a060a0880160808901610820565b60408051602081019690965285019390935260608401919091526001600160801b0390811660808401521660a082015260c00160408051601f19818403018152908290526102ed91610846565b602060405180830381855afa158015610308573d5f803e3d5ffd5b5050506040513d601f19601f8201168201806040525081019061032b919061085c565b90505f60405180604001604052808581526020018381525090505f60405180604001604052808381526020018888808060200260200160405190810160405280939291908181526020018383602002808284375f9201829052509390945250508a8152600160205260409020549192506103a891905082846101d5565b6103b860a0850160808601610820565b6001600160801b031660025f8781526020019081526020015f20541015610405576103e960a0850160808601610820565b5f8681526002602052604090206001600160801b039190911690555b5f8581526003602090815260408220908601359161042960a0880160808901610820565b6001600160801b0316815260208101919091526040015f20555050505050505050565b5f81815260026020526040812054838203610480575f838152600360209081526040808320938352929052205490506104c7565b808411156104ab5760405163d5dc642d60e01b815260048101859052602481018290526044016101a1565b50505f8181526003602090815260408083208584529091529020545b92915050565b5f80604083850312156104de575f80fd5b50508035926020909101359150565b5f602082840312156104fd575f80fd5b5035919050565b5f808284036060811215610516575f80fd5b833592506040601f198201121561052b575f80fd5b506020830190509250929050565b634e487b7160e01b5f52604160045260245ffd5b6040805190810167ffffffffffffffff8111828210171561057057610570610539565b60405290565b604051601f8201601f1916810167ffffffffffffffff8111828210171561059f5761059f610539565b604052919050565b5f604082840312156105b7575f80fd5b6105bf61054d565b9050813581526020820135602082015292915050565b5f805f608084860312156105e7575f80fd5b8335925060208085013567ffffffffffffffff80821115610606575f80fd5b9086019060608289031215610619575f80fd5b61062161054d565b61062b89846105a7565b815260408301358281111561063e575f80fd5b80840193505088601f840112610652575f80fd5b82358281111561066457610664610539565b8060051b9250610675858401610576565b818152928401850192858101908b85111561068e575f80fd5b948601945b848610156106ac57853582529486019490860190610693565b8087850152505050809550505050506106c885604086016105a7565b90509250925092565b5f805f805f8587036101008112156106e7575f80fd5b86359550602087013567ffffffffffffffff80821115610705575f80fd5b818901915089601f830112610718575f80fd5b813581811115610726575f80fd5b8a60208260051b850101111561073a575f80fd5b6020929092019650909450506040870135925060a0605f198201121561075e575f80fd5b506060860190509295509295909350565b8381525f602061078c602084018680518252602090810151910152565b6080606084015260e083016107af60808501865180518252602090810151910152565b602085810151606060c087015280519283905201905f906101008601905b808310156107ed57835182529284019260019290920191908401906107cd565b5098975050505050505050565b5f6020828403121561080a575f80fd5b81518015158114610819575f80fd5b9392505050565b5f60208284031215610830575f80fd5b81356001600160801b0381168114610819575f80fd5b5f82518060208501845e5f920191825250919050565b5f6020828403121561086c575f80fd5b505191905056fea2646970667358221220e90948b6b02da2f10cceb08713e1a33825a5fd941f3743ff65beb28d7562633064736f6c63430008190033","linkReferences":{"lib/nexus/contracts/src/lib/JellyfishMerkleTreeVerifier.sol":{"JellyfishMerkleTreeVerifier":[{"start":515,"length":20}]}}},"methodIdentifiers":{"getChainState(uint256,bytes32)":"998862ec","latestNexusBlockNumber()":"8a630540","nexusAppIdToLatestBlockNumber(bytes32)":"520782a1","nexusAppIdToState(bytes32,uint256)":"2d438359","nexusBlock(uint256)":"3bf38b10","updateChainState(uint256,bytes32[],bytes32,(bytes32,bytes32,bytes32,uint128,uint128))":"8d2383a9","updateNexusBlock(uint256,(bytes32,bytes32))":"76ac39cb","verifyRollupState(bytes32,((bytes32,bytes32),bytes32[]),(bytes32,bytes32))":"8bb9dc06"},"id":42}