{"abi":[{"type":"constructor","inputs":[{"name":"nexusAppID","type":"bytes32","internalType":"bytes32"}],"stateMutability":"nonpayable"},{"type":"function","name":"getChainState","inputs":[{"name":"blockNumber","type":"uint256","internalType":"uint256"},{"name":"nexusAppID","type":"bytes32","internalType":"bytes32"}],"outputs":[{"name":"","type":"bytes32","internalType":"bytes32"}],"stateMutability":"view"},{"type":"function","name":"latestNexusBlockNumber","inputs":[],"outputs":[{"name":"","type":"uint256","internalType":"uint256"}],"stateMutability":"view"},{"type":"function","name":"nexusAppIDToLatestBlockNumber","inputs":[{"name":"","type":"bytes32","internalType":"bytes32"}],"outputs":[{"name":"","type":"uint256","internalType":"uint256"}],"stateMutability":"view"},{"type":"function","name":"nexusAppIDToState","inputs":[{"name":"","type":"bytes32","internalType":"bytes32"},{"name":"","type":"uint256","internalType":"uint256"}],"outputs":[{"name":"","type":"bytes32","internalType":"bytes32"}],"stateMutability":"view"},{"type":"function","name":"nexusBlock","inputs":[{"name":"","type":"uint256","internalType":"uint256"}],"outputs":[{"name":"stateRoot","type":"bytes32","internalType":"bytes32"},{"name":"blockHash","type":"bytes32","internalType":"bytes32"}],"stateMutability":"view"},{"type":"function","name":"updateChainState","inputs":[{"name":"nexusBlockNumber","type":"uint256","internalType":"uint256"},{"name":"siblings","type":"bytes32[]","internalType":"bytes32[]"},{"name":"key","type":"bytes32","internalType":"bytes32"},{"name":"accountState","type":"tuple","internalType":"struct NexusProofManager.AccountState","components":[{"name":"statementDigest","type":"bytes32","internalType":"bytes32"},{"name":"stateRoot","type":"bytes32","internalType":"bytes32"},{"name":"startNexusHash","type":"bytes32","internalType":"bytes32"},{"name":"lastProofHeight","type":"uint128","internalType":"uint128"},{"name":"height","type":"uint128","internalType":"uint128"}]}],"outputs":[],"stateMutability":"nonpayable"},{"type":"function","name":"updateNexusBlock","inputs":[{"name":"blockNumber","type":"uint256","internalType":"uint256"},{"name":"latestNexusBlock","type":"tuple","internalType":"struct NexusProofManager.NexusBlock","components":[{"name":"stateRoot","type":"bytes32","internalType":"bytes32"},{"name":"blockHash","type":"bytes32","internalType":"bytes32"}]}],"outputs":[],"stateMutability":"nonpayable"},{"type":"function","name":"verifyRollupState","inputs":[{"name":"root","type":"bytes32","internalType":"bytes32"},{"name":"proof","type":"tuple","internalType":"struct JellyfishMerkleTreeVerifier.Proof","components":[{"name":"leaf","type":"tuple","internalType":"struct JellyfishMerkleTreeVerifier.Leaf","components":[{"name":"addr","type":"bytes32","internalType":"bytes32"},{"name":"valueHash","type":"bytes32","internalType":"bytes32"}]},{"name":"siblings","type":"bytes32[]","internalType":"bytes32[]"}]},{"name":"leaf","type":"tuple","internalType":"struct JellyfishMerkleTreeVerifier.Leaf","components":[{"name":"addr","type":"bytes32","internalType":"bytes32"},{"name":"valueHash","type":"bytes32","internalType":"bytes32"}]}],"outputs":[],"stateMutability":"pure"}],"bytecode":{"object":"0x60806040526000805534801561001457600080fd5b506040516109d13803806109d183398101604081905261003391610039565b50610052565b60006020828403121561004b57600080fd5b5051919050565b610970806100616000396000f3fe608060405234801561001057600080fd5b50600436106100885760003560e01c80638a6305401161005b5780638a6305401461013c5780638bb9dc06146101455780638d2383a914610158578063998862ec1461016b57600080fd5b806306b43d501461008d5780630fec3171146100cb5780633bf38b10146100eb57806376ac39cb14610127575b600080fd5b6100b861009b366004610557565b600360209081526000928352604080842090915290825290205481565b6040519081526020015b60405180910390f35b6100b86100d9366004610579565b60026020526000908152604090205481565b6101126100f9366004610579565b6001602081905260009182526040909120805491015482565b604080519283526020830191909152016100c2565b61013a610135366004610592565b61017e565b005b6100b860005481565b61013a61015336600461066a565b6101ec565b61013a61016636600461076e565b6102ce565b6100b8610179366004610557565b6104e9565b60005482116101cc5760405162461bcd60e51b8152602060048201526015602482015274109b1bd8dac8185b1c9958591e481d5c19185d1959605a1b60448201526064015b60405180910390fd5b600082815260016020818152604083208435815593013592019190915555565b604051632e6840fb60e21b815260009073__$5f260e6b1554894ad0a8ec25878153635b$__9063b9a103ec9061022a90879086908890600401610815565b602060405180830381865af4158015610247573d6000803e3d6000fd5b505050506040513d601f19601f8201168201806040525081019061026b91906108a0565b9050806102c85760405162461bcd60e51b815260206004820152602560248201527f496e76616c6964206c65616620616761696e7374206e65787573207374617465604482015264081c9bdbdd60da1b60648201526084016101c3565b50505050565b600060028235602084013560408501356102ee60808701606088016108c9565b6102fe60a08801608089016108c9565b60408051602081019690965285019390935260608401919091526001600160801b0390811660808401521660a082015260c00160408051601f198184030181529082905261034b916108f2565b602060405180830381855afa158015610368573d6000803e3d6000fd5b5050506040513d601f19601f8201168201806040525081019061038b9190610921565b9050600060405180604001604052808581526020018381525090506000604051806040016040528083815260200188888080602002602001604051908101604052809392919081815260200183836020028082843760009201829052509390945250508a81526001602052604090205491925061040b91905082846101ec565b61041b60a08501608086016108c9565b6001600160801b03166002600087815260200190815260200160002054106104785760405162461bcd60e51b815260206004820152601060248201526f27b63210313637b1b590373ab6b132b960811b60448201526064016101c3565b61048860a08501608086016108c9565b60008681526002602090815260408083206001600160801b0394909416909355600381529181209186013591906104c560a08801608089016108c9565b6001600160801b031681526020810191909152604001600020555050505050505050565b60008260000361051a5750600081815260036020908152604080832060028352818420548452909152902054610551565b60008281526002602052604090205483111561053557600080fd5b5060008181526003602090815260408083208584529091529020545b92915050565b6000806040838503121561056a57600080fd5b50508035926020909101359150565b60006020828403121561058b57600080fd5b5035919050565b60008082840360608112156105a657600080fd5b833592506040601f19820112156105bc57600080fd5b506020830190509250929050565b634e487b7160e01b600052604160045260246000fd5b6040805190810167ffffffffffffffff81118282101715610603576106036105ca565b60405290565b604051601f8201601f1916810167ffffffffffffffff81118282101715610632576106326105ca565b604052919050565b60006040828403121561064c57600080fd5b6106546105e0565b9050813581526020820135602082015292915050565b60008060006080848603121561067f57600080fd5b8335925060208085013567ffffffffffffffff8082111561069f57600080fd5b90860190606082890312156106b357600080fd5b6106bb6105e0565b6106c5898461063a565b81526040830135828111156106d957600080fd5b80840193505088601f8401126106ee57600080fd5b823582811115610700576107006105ca565b8060051b9250610711858401610609565b818152928401850192858101908b85111561072b57600080fd5b948601945b8486101561074957853582529486019490860190610730565b808785015250505080955050505050610765856040860161063a565b90509250925092565b600080600080600085870361010081121561078857600080fd5b86359550602087013567ffffffffffffffff808211156107a757600080fd5b818901915089601f8301126107bb57600080fd5b8135818111156107ca57600080fd5b8a60208260051b85010111156107df57600080fd5b6020929092019650909450506040870135925060a0605f198201121561080457600080fd5b506060860190509295509295909350565b838152600060206108328184018680518252602090810151910152565b6080606084015260e0830161085560808501865180518252602090810151910152565b84820151606060c08601528051918290528201906000906101008601905b808310156108935783518252928401926001929092019190840190610873565b5098975050505050505050565b6000602082840312156108b257600080fd5b815180151581146108c257600080fd5b9392505050565b6000602082840312156108db57600080fd5b81356001600160801b03811681146108c257600080fd5b6000825160005b8181101561091357602081860181015185830152016108f9565b506000920191825250919050565b60006020828403121561093357600080fd5b505191905056fea26469706673582212205cca2b2c0a14b1b3e46ff2207b49fb3c5250cb9145baf446c6f9ffc042ac191764736f6c63430008140033","linkReferences":{"contracts/lib/JellyfishMerkleTreeVerifier.sol":{"JellyfishMerkleTreeVerifier":[{"start":607,"length":20}]}}},"methodIdentifiers":{"getChainState(uint256,bytes32)":"998862ec","latestNexusBlockNumber()":"8a630540","nexusAppIDToLatestBlockNumber(bytes32)":"0fec3171","nexusAppIDToState(bytes32,uint256)":"06b43d50","nexusBlock(uint256)":"3bf38b10","updateChainState(uint256,bytes32[],bytes32,(bytes32,bytes32,bytes32,uint128,uint128))":"8d2383a9","updateNexusBlock(uint256,(bytes32,bytes32))":"76ac39cb","verifyRollupState(bytes32,((bytes32,bytes32),bytes32[]),(bytes32,bytes32))":"8bb9dc06"},"id":0}