{
    "_format": "hh-sol-artifact-1",
    "contractName": "NexusBridge",
    "sourceName": "contracts/bridge-mailbox/NexusBridge.sol",
    "abi": [
        {
            "inputs": [],
            "name": "AccessControlBadConfirmation",
            "type": "error"
        },
        {
            "inputs": [
                {
                    "internalType": "uint48",
                    "name": "schedule",
                    "type": "uint48"
                }
            ],
            "name": "AccessControlEnforcedDefaultAdminDelay",
            "type": "error"
        },
        {
            "inputs": [],
            "name": "AccessControlEnforcedDefaultAdminRules",
            "type": "error"
        },
        {
            "inputs": [
                {
                    "internalType": "address",
                    "name": "defaultAdmin",
                    "type": "address"
                }
            ],
            "name": "AccessControlInvalidDefaultAdmin",
            "type": "error"
        },
        {
            "inputs": [
                {
                    "internalType": "address",
                    "name": "account",
                    "type": "address"
                },
                {
                    "internalType": "bytes32",
                    "name": "neededRole",
                    "type": "bytes32"
                }
            ],
            "name": "AccessControlUnauthorizedAccount",
            "type": "error"
        },
        {
            "inputs": [],
            "name": "AlreadyBridged",
            "type": "error"
        },
        {
            "inputs": [],
            "name": "ArrayLengthMismatch",
            "type": "error"
        },
        {
            "inputs": [],
            "name": "BlobRootEmpty",
            "type": "error"
        },
        {
            "inputs": [],
            "name": "BridgeRootEmpty",
            "type": "error"
        },
        {
            "inputs": [],
            "name": "DataRootCommitmentEmpty",
            "type": "error"
        },
        {
            "inputs": [],
            "name": "EnforcedPause",
            "type": "error"
        },
        {
            "inputs": [],
            "name": "ExpectedPause",
            "type": "error"
        },
        {
            "inputs": [],
            "name": "FeeTooLow",
            "type": "error"
        },
        {
            "inputs": [],
            "name": "InvalidAssetId",
            "type": "error"
        },
        {
            "inputs": [],
            "name": "InvalidDataLength",
            "type": "error"
        },
        {
            "inputs": [],
            "name": "InvalidDataRootProof",
            "type": "error"
        },
        {
            "inputs": [],
            "name": "InvalidDestinationOrAmount",
            "type": "error"
        },
        {
            "inputs": [],
            "name": "InvalidDomain",
            "type": "error"
        },
        {
            "inputs": [],
            "name": "InvalidFungibleTokenTransfer",
            "type": "error"
        },
        {
            "inputs": [],
            "name": "InvalidInitialization",
            "type": "error"
        },
        {
            "inputs": [],
            "name": "InvalidLeaf",
            "type": "error"
        },
        {
            "inputs": [],
            "name": "InvalidMerkleProof",
            "type": "error"
        },
        {
            "inputs": [],
            "name": "InvalidMessage",
            "type": "error"
        },
        {
            "inputs": [],
            "name": "NotInitializing",
            "type": "error"
        },
        {
            "inputs": [],
            "name": "ReentrancyGuardReentrantCall",
            "type": "error"
        },
        {
            "inputs": [
                {
                    "internalType": "uint8",
                    "name": "bits",
                    "type": "uint8"
                },
                {
                    "internalType": "uint256",
                    "name": "value",
                    "type": "uint256"
                }
            ],
            "name": "SafeCastOverflowedUintDowncast",
            "type": "error"
        },
        {
            "inputs": [],
            "name": "UnlockFailed",
            "type": "error"
        },
        {
            "inputs": [],
            "name": "WithdrawFailed",
            "type": "error"
        },
        {
            "anonymous": false,
            "inputs": [],
            "name": "DefaultAdminDelayChangeCanceled",
            "type": "event"
        },
        {
            "anonymous": false,
            "inputs": [
                {
                    "indexed": false,
                    "internalType": "uint48",
                    "name": "newDelay",
                    "type": "uint48"
                },
                {
                    "indexed": false,
                    "internalType": "uint48",
                    "name": "effectSchedule",
                    "type": "uint48"
                }
            ],
            "name": "DefaultAdminDelayChangeScheduled",
            "type": "event"
        },
        {
            "anonymous": false,
            "inputs": [],
            "name": "DefaultAdminTransferCanceled",
            "type": "event"
        },
        {
            "anonymous": false,
            "inputs": [
                {
                    "indexed": true,
                    "internalType": "address",
                    "name": "newAdmin",
                    "type": "address"
                },
                {
                    "indexed": false,
                    "internalType": "uint48",
                    "name": "acceptSchedule",
                    "type": "uint48"
                }
            ],
            "name": "DefaultAdminTransferScheduled",
            "type": "event"
        },
        {
            "anonymous": false,
            "inputs": [
                {
                    "indexed": false,
                    "internalType": "uint64",
                    "name": "version",
                    "type": "uint64"
                }
            ],
            "name": "Initialized",
            "type": "event"
        },
        {
            "anonymous": false,
            "inputs": [
                {
                    "indexed": true,
                    "internalType": "bytes32",
                    "name": "from",
                    "type": "bytes32"
                },
                {
                    "indexed": true,
                    "internalType": "address",
                    "name": "to",
                    "type": "address"
                },
                {
                    "indexed": false,
                    "internalType": "uint256",
                    "name": "messageId",
                    "type": "uint256"
                }
            ],
            "name": "MessageReceived",
            "type": "event"
        },
        {
            "anonymous": false,
            "inputs": [
                {
                    "indexed": true,
                    "internalType": "address",
                    "name": "from",
                    "type": "address"
                },
                {
                    "indexed": true,
                    "internalType": "bytes32",
                    "name": "to",
                    "type": "bytes32"
                },
                {
                    "indexed": false,
                    "internalType": "uint256",
                    "name": "messageId",
                    "type": "uint256"
                }
            ],
            "name": "MessageSent",
            "type": "event"
        },
        {
            "anonymous": false,
            "inputs": [
                {
                    "indexed": false,
                    "internalType": "address",
                    "name": "account",
                    "type": "address"
                }
            ],
            "name": "Paused",
            "type": "event"
        },
        {
            "anonymous": false,
            "inputs": [
                {
                    "indexed": true,
                    "internalType": "bytes32",
                    "name": "role",
                    "type": "bytes32"
                },
                {
                    "indexed": true,
                    "internalType": "bytes32",
                    "name": "previousAdminRole",
                    "type": "bytes32"
                },
                {
                    "indexed": true,
                    "internalType": "bytes32",
                    "name": "newAdminRole",
                    "type": "bytes32"
                }
            ],
            "name": "RoleAdminChanged",
            "type": "event"
        },
        {
            "anonymous": false,
            "inputs": [
                {
                    "indexed": true,
                    "internalType": "bytes32",
                    "name": "role",
                    "type": "bytes32"
                },
                {
                    "indexed": true,
                    "internalType": "address",
                    "name": "account",
                    "type": "address"
                },
                {
                    "indexed": true,
                    "internalType": "address",
                    "name": "sender",
                    "type": "address"
                }
            ],
            "name": "RoleGranted",
            "type": "event"
        },
        {
            "anonymous": false,
            "inputs": [
                {
                    "indexed": true,
                    "internalType": "bytes32",
                    "name": "role",
                    "type": "bytes32"
                },
                {
                    "indexed": true,
                    "internalType": "address",
                    "name": "account",
                    "type": "address"
                },
                {
                    "indexed": true,
                    "internalType": "address",
                    "name": "sender",
                    "type": "address"
                }
            ],
            "name": "RoleRevoked",
            "type": "event"
        },
        {
            "anonymous": false,
            "inputs": [
                {
                    "indexed": false,
                    "internalType": "address",
                    "name": "account",
                    "type": "address"
                }
            ],
            "name": "Unpaused",
            "type": "event"
        },
        {
            "inputs": [],
            "name": "DEFAULT_ADMIN_ROLE",
            "outputs": [
                {
                    "internalType": "bytes32",
                    "name": "",
                    "type": "bytes32"
                }
            ],
            "stateMutability": "view",
            "type": "function"
        },
        {
            "inputs": [],
            "name": "acceptDefaultAdminTransfer",
            "outputs": [],
            "stateMutability": "nonpayable",
            "type": "function"
        },
        {
            "inputs": [],
            "name": "avail",
            "outputs": [
                {
                    "internalType": "contract IAvail",
                    "name": "",
                    "type": "address"
                }
            ],
            "stateMutability": "view",
            "type": "function"
        },
        {
            "inputs": [
                {
                    "internalType": "address",
                    "name": "newAdmin",
                    "type": "address"
                }
            ],
            "name": "beginDefaultAdminTransfer",
            "outputs": [],
            "stateMutability": "nonpayable",
            "type": "function"
        },
        {
            "inputs": [],
            "name": "cancelDefaultAdminTransfer",
            "outputs": [],
            "stateMutability": "nonpayable",
            "type": "function"
        },
        {
            "inputs": [
                {
                    "internalType": "uint48",
                    "name": "newDelay",
                    "type": "uint48"
                }
            ],
            "name": "changeDefaultAdminDelay",
            "outputs": [],
            "stateMutability": "nonpayable",
            "type": "function"
        },
        {
            "inputs": [],
            "name": "defaultAdmin",
            "outputs": [
                {
                    "internalType": "address",
                    "name": "",
                    "type": "address"
                }
            ],
            "stateMutability": "view",
            "type": "function"
        },
        {
            "inputs": [],
            "name": "defaultAdminDelay",
            "outputs": [
                {
                    "internalType": "uint48",
                    "name": "",
                    "type": "uint48"
                }
            ],
            "stateMutability": "view",
            "type": "function"
        },
        {
            "inputs": [],
            "name": "defaultAdminDelayIncreaseWait",
            "outputs": [
                {
                    "internalType": "uint48",
                    "name": "",
                    "type": "uint48"
                }
            ],
            "stateMutability": "view",
            "type": "function"
        },
        {
            "inputs": [],
            "name": "feeRecipient",
            "outputs": [
                {
                    "internalType": "address",
                    "name": "",
                    "type": "address"
                }
            ],
            "stateMutability": "view",
            "type": "function"
        },
        {
            "inputs": [],
            "name": "fees",
            "outputs": [
                {
                    "internalType": "uint256",
                    "name": "",
                    "type": "uint256"
                }
            ],
            "stateMutability": "view",
            "type": "function"
        },
        {
            "inputs": [
                {
                    "internalType": "bytes32",
                    "name": "role",
                    "type": "bytes32"
                }
            ],
            "name": "getRoleAdmin",
            "outputs": [
                {
                    "internalType": "bytes32",
                    "name": "",
                    "type": "bytes32"
                }
            ],
            "stateMutability": "view",
            "type": "function"
        },
        {
            "inputs": [
                {
                    "internalType": "bytes32",
                    "name": "role",
                    "type": "bytes32"
                },
                {
                    "internalType": "address",
                    "name": "account",
                    "type": "address"
                }
            ],
            "name": "grantRole",
            "outputs": [],
            "stateMutability": "nonpayable",
            "type": "function"
        },
        {
            "inputs": [
                {
                    "internalType": "bytes32",
                    "name": "role",
                    "type": "bytes32"
                },
                {
                    "internalType": "address",
                    "name": "account",
                    "type": "address"
                }
            ],
            "name": "hasRole",
            "outputs": [
                {
                    "internalType": "bool",
                    "name": "",
                    "type": "bool"
                }
            ],
            "stateMutability": "view",
            "type": "function"
        },
        {
            "inputs": [
                {
                    "internalType": "address",
                    "name": "newFeeRecipient",
                    "type": "address"
                },
                {
                    "internalType": "contract IAvail",
                    "name": "newAvail",
                    "type": "address"
                },
                {
                    "internalType": "address",
                    "name": "governance",
                    "type": "address"
                },
                {
                    "internalType": "address",
                    "name": "pauser",
                    "type": "address"
                },
                {
                    "internalType": "contract INexusMailbox",
                    "name": "_nexusMailbox",
                    "type": "address"
                }
            ],
            "name": "initialize",
            "outputs": [],
            "stateMutability": "nonpayable",
            "type": "function"
        },
        {
            "inputs": [
                {
                    "internalType": "bytes32",
                    "name": "",
                    "type": "bytes32"
                }
            ],
            "name": "isBridged",
            "outputs": [
                {
                    "internalType": "bool",
                    "name": "",
                    "type": "bool"
                }
            ],
            "stateMutability": "view",
            "type": "function"
        },
        {
            "inputs": [
                {
                    "internalType": "uint256",
                    "name": "",
                    "type": "uint256"
                }
            ],
            "name": "isSent",
            "outputs": [
                {
                    "internalType": "bytes32",
                    "name": "",
                    "type": "bytes32"
                }
            ],
            "stateMutability": "view",
            "type": "function"
        },
        {
            "inputs": [],
            "name": "mailbox",
            "outputs": [
                {
                    "internalType": "contract INexusMailbox",
                    "name": "",
                    "type": "address"
                }
            ],
            "stateMutability": "view",
            "type": "function"
        },
        {
            "inputs": [],
            "name": "messageId",
            "outputs": [
                {
                    "internalType": "uint256",
                    "name": "",
                    "type": "uint256"
                }
            ],
            "stateMutability": "view",
            "type": "function"
        },
        {
            "inputs": [
                {
                    "internalType": "bytes32",
                    "name": "",
                    "type": "bytes32"
                }
            ],
            "name": "nexusTokens",
            "outputs": [
                {
                    "internalType": "address",
                    "name": "",
                    "type": "address"
                }
            ],
            "stateMutability": "view",
            "type": "function"
        },
        {
            "inputs": [
                {
                    "internalType": "bytes32",
                    "name": "nexusAppIDFrom",
                    "type": "bytes32"
                },
                {
                    "internalType": "address",
                    "name": "sender",
                    "type": "address"
                },
                {
                    "internalType": "bytes",
                    "name": "data",
                    "type": "bytes"
                },
                {
                    "internalType": "uint256",
                    "name": "nonce",
                    "type": "uint256"
                }
            ],
            "name": "onNexusMessage",
            "outputs": [],
            "stateMutability": "nonpayable",
            "type": "function"
        },
        {
            "inputs": [],
            "name": "owner",
            "outputs": [
                {
                    "internalType": "address",
                    "name": "",
                    "type": "address"
                }
            ],
            "stateMutability": "view",
            "type": "function"
        },
        {
            "inputs": [],
            "name": "paused",
            "outputs": [
                {
                    "internalType": "bool",
                    "name": "",
                    "type": "bool"
                }
            ],
            "stateMutability": "view",
            "type": "function"
        },
        {
            "inputs": [],
            "name": "pendingDefaultAdmin",
            "outputs": [
                {
                    "internalType": "address",
                    "name": "newAdmin",
                    "type": "address"
                },
                {
                    "internalType": "uint48",
                    "name": "schedule",
                    "type": "uint48"
                }
            ],
            "stateMutability": "view",
            "type": "function"
        },
        {
            "inputs": [],
            "name": "pendingDefaultAdminDelay",
            "outputs": [
                {
                    "internalType": "uint48",
                    "name": "newDelay",
                    "type": "uint48"
                },
                {
                    "internalType": "uint48",
                    "name": "schedule",
                    "type": "uint48"
                }
            ],
            "stateMutability": "view",
            "type": "function"
        },
        {
            "inputs": [
                {
                    "internalType": "bytes32",
                    "name": "role",
                    "type": "bytes32"
                },
                {
                    "internalType": "address",
                    "name": "account",
                    "type": "address"
                }
            ],
            "name": "renounceRole",
            "outputs": [],
            "stateMutability": "nonpayable",
            "type": "function"
        },
        {
            "inputs": [
                {
                    "internalType": "bytes32",
                    "name": "role",
                    "type": "bytes32"
                },
                {
                    "internalType": "address",
                    "name": "account",
                    "type": "address"
                }
            ],
            "name": "revokeRole",
            "outputs": [],
            "stateMutability": "nonpayable",
            "type": "function"
        },
        {
            "inputs": [],
            "name": "rollbackDefaultAdminDelay",
            "outputs": [],
            "stateMutability": "nonpayable",
            "type": "function"
        },
        {
            "inputs": [
                {
                    "internalType": "bytes32",
                    "name": "assetId",
                    "type": "bytes32"
                },
                {
                    "internalType": "bytes32",
                    "name": "recipient",
                    "type": "bytes32"
                },
                {
                    "internalType": "uint256",
                    "name": "amount",
                    "type": "uint256"
                },
                {
                    "internalType": "bytes32[]",
                    "name": "destination",
                    "type": "bytes32[]"
                },
                {
                    "internalType": "uint256",
                    "name": "nonce",
                    "type": "uint256"
                },
                {
                    "internalType": "address[]",
                    "name": "destinationMailboxAddress",
                    "type": "address[]"
                }
            ],
            "name": "sendERC20",
            "outputs": [],
            "stateMutability": "nonpayable",
            "type": "function"
        },
        {
            "inputs": [
                {
                    "internalType": "bool",
                    "name": "status",
                    "type": "bool"
                }
            ],
            "name": "setPaused",
            "outputs": [],
            "stateMutability": "nonpayable",
            "type": "function"
        },
        {
            "inputs": [
                {
                    "internalType": "bytes4",
                    "name": "interfaceId",
                    "type": "bytes4"
                }
            ],
            "name": "supportsInterface",
            "outputs": [
                {
                    "internalType": "bool",
                    "name": "",
                    "type": "bool"
                }
            ],
            "stateMutability": "view",
            "type": "function"
        },
        {
            "inputs": [
                {
                    "internalType": "address",
                    "name": "newFeeRecipient",
                    "type": "address"
                }
            ],
            "name": "updateFeeRecipient",
            "outputs": [],
            "stateMutability": "nonpayable",
            "type": "function"
        },
        {
            "inputs": [
                {
                    "internalType": "bytes32[]",
                    "name": "assetIds",
                    "type": "bytes32[]"
                },
                {
                    "internalType": "address[]",
                    "name": "tokenAddresses",
                    "type": "address[]"
                }
            ],
            "name": "updateNexusTokens",
            "outputs": [],
            "stateMutability": "nonpayable",
            "type": "function"
        },
        {
            "inputs": [],
            "name": "withdrawFees",
            "outputs": [],
            "stateMutability": "nonpayable",
            "type": "function"
        }
    ],
    "bytecode": "0x608060405234801561001057600080fd5b50611f73806100206000396000f3fe608060405234801561001057600080fd5b50600436106102065760003560e01c8063669f618b1161011a578063cc8463c8116100ad578063d547741f1161007c578063d547741f1461047e578063d602b9fd14610491578063e12a665914610499578063ecb8171f146104ac578063f160d369146104bf57600080fd5b8063cc8463c81461042d578063cefc142914610435578063cf6eefb71461043d578063d5438eae1461046b57600080fd5b806391d14854116100e957806391d14854146103e25780639af1d35a146103f5578063a1eda53c146103fe578063a217fddf1461042557600080fd5b8063669f618b146103a6578063701bbfe8146103af57806384ef8ffc146103d25780638da5cb5b146103da57600080fd5b806338c4810d1161019d5780635bdeac421161016c5780635bdeac42146103355780635c975abb14610348578063634e93da1461036057806363d91f4014610373578063649a5ec71461039357600080fd5b806338c4810d146102c65780633ea04f3f14610307578063469048401461031a578063476343ee1461032d57600080fd5b806316c38b3c116101d957806316c38b3c1461026c578063248a9ca31461027f5780632f2ff15d146102a057806336568abe146102b357600080fd5b806301ffc9a71461020b578063022d63fb146102335780630aa6220b1461024f5780631459457a14610259575b600080fd5b61021e610219366004611823565b6104d2565b60405190151581526020015b60405180910390f35b620697805b60405165ffffffffffff909116815260200161022a565b6102576104fd565b005b610257610267366004611862565b610513565b61025761027a3660046118d3565b61069f565b61029261028d3660046118f5565b6106e3565b60405190815260200161022a565b6102576102ae36600461190e565b610705565b6102576102c136600461190e565b61072d565b6102ef6102d43660046118f5565b6002602052600090815260409020546001600160a01b031681565b6040516001600160a01b03909116815260200161022a565b610257610315366004611989565b6107f6565b6005546102ef906001600160a01b031681565b610257610a70565b6003546102ef906001600160a01b031681565b600080516020611efe8339815191525460ff1661021e565b61025761036e366004611a1e565b610af0565b6102926103813660046118f5565b60006020819052908152604090205481565b6102576103a1366004611a3b565b610b04565b61029260075481565b61021e6103bd3660046118f5565b60016020526000908152604090205460ff1681565b6102ef610b18565b6102ef610b34565b61021e6103f036600461190e565b610b43565b61029260065481565b610406610b7b565b6040805165ffffffffffff93841681529290911660208301520161022a565b610292600081565b610238610bee565b610257610c6c565b610445610cac565b604080516001600160a01b03909316835265ffffffffffff90911660208301520161022a565b6004546102ef906001600160a01b031681565b61025761048c36600461190e565b610cda565b610257610d02565b6102576104a7366004611a63565b610d15565b6102576104ba366004611b63565b610dd6565b6102576104cd366004611a1e565b610e76565b60006001600160e01b031982166318a4c3c360e11b14806104f757506104f782610ea4565b92915050565b600061050881610ed9565b610510610ee3565b50565b7ff0c57e16840df040f15088dc2f81fe391c3923bec73e23a9662efc9c229c6a008054600160401b810460ff1615906001600160401b03166000811580156105585750825b90506000826001600160401b031660011480156105745750303b155b905081158015610582575080155b156105a05760405163f92ee8a960e01b815260040160405180910390fd5b845467ffffffffffffffff1916600117855583156105ca57845460ff60401b1916600160401b1785555b600580546001600160a01b03808d166001600160a01b031992831617909255600380548c84169083161790556004805492891692909116919091179055610612600089610ef0565b61063c7f65d7a28e3265b37a6474929f336521b332c1681b933f6cb9f3376673440d862a88610f02565b50610645610f79565b61064d610f89565b831561069357845460ff60401b19168555604051600181527fc7f505b2f371ae2175ee4913f4499e1f2633a7b5936321eed1cdaeb6115181d29060200160405180910390a15b50505050505050505050565b7f65d7a28e3265b37a6474929f336521b332c1681b933f6cb9f3376673440d862a6106c981610ed9565b81156106db576106d7610f99565b5050565b6106d7610ffc565b6000908152600080516020611ede833981519152602052604090206001015490565b8161072357604051631fe1e13d60e11b815260040160405180910390fd5b6106d78282611042565b600080516020611ebe83398151915282158015610762575061074d610b18565b6001600160a01b0316826001600160a01b0316145b156107e757600080610772610cac565b90925090506001600160a01b038216151580610794575065ffffffffffff8116155b806107a757504265ffffffffffff821610155b156107d4576040516319ca5ebb60e01b815265ffffffffffff821660048201526024015b60405180910390fd5b5050805465ffffffffffff60a01b191681555b6107f18383611064565b505050565b6107fe611097565b868681158061080b575080155b8061082557506fffffffffffffffffffffffffffffffff81115b15610843576040516329fd423f60e01b815260040160405180910390fd5b60008a8152600260205260409020546001600160a01b031680610879576040516307d7e52d60e51b815260040160405180910390fd5b600060076000815480929190600101919050559050600060405180608001604052803360601b6bffffffffffffffffffffffff191681526020018d81526020018e8d6040516020016108d5929190918252602082015260400190565b6040516020818303038152906040528152602001836001600160401b03168152509050806040516020016109099190611c56565b60408051601f198184030181528282528051602091820120600086815280835292832055909161093b91849101611c56565b6040516020818303038152906040529050600460009054906101000a90046001600160a01b03166001600160a01b031663cb8d653c8c8c8b8b8e876040518763ffffffff1660e01b815260040161099796959493929190611ca5565b600060405180830381600087803b1580156109b157600080fd5b505af11580156109c5573d6000803e3d6000fd5b50506040518581528f92503391507f06fd209663be9278f96bc53dfbf6cf3cdcf2172c38b5de30abff93ba443d653a9060200160405180910390a3604051632770a7eb60e21b8152336004820152602481018d90526001600160a01b03851690639dc29fac90604401600060405180830381600087803b158015610a4857600080fd5b505af1158015610a5c573d6000803e3d6000fd5b505050505050505050505050505050505050565b600680546000918290556005546040519192916001600160a01b039091169083908381818185875af1925050503d8060008114610ac9576040519150601f19603f3d011682016040523d82523d6000602084013e610ace565b606091505b50509050806106d757604051631d42c86760e21b815260040160405180910390fd5b6000610afb81610ed9565b6106d7826110c8565b6000610b0f81610ed9565b6106d78261113b565b600080516020611f1e833981519152546001600160a01b031690565b6000610b3e610b18565b905090565b6000918252600080516020611ede833981519152602090815260408084206001600160a01b0393909316845291905290205460ff1690565b600080516020611f1e83398151915254600090600160d01b900465ffffffffffff16600080516020611ebe8339815191528115801590610bc357504265ffffffffffff831610155b610bcf57600080610be5565b6001810154600160a01b900465ffffffffffff16825b92509250509091565b600080516020611f1e83398151915254600090600080516020611ebe83398151915290600160d01b900465ffffffffffff168015801590610c3657504265ffffffffffff8216105b610c50578154600160d01b900465ffffffffffff16610c65565b6001820154600160a01b900465ffffffffffff165b9250505090565b6000610c76610cac565b509050336001600160a01b03821614610ca457604051636116401160e11b81523360048201526024016107cb565b6105106111ab565b600080516020611ebe833981519152546001600160a01b03811691600160a01b90910465ffffffffffff1690565b81610cf857604051631fe1e13d60e11b815260040160405180910390fd5b6106d78282611248565b6000610d0d81610ed9565b610510611264565b6000610d2081610ed9565b83828114610d415760405163512509d360e11b815260040160405180910390fd5b60005b81811015610dcd57848482818110610d5e57610d5e611d4a565b9050602002016020810190610d739190611a1e565b60026000898985818110610d8957610d89611d4a565b90506020020135815260200190815260200160002060006101000a8154816001600160a01b0302191690836001600160a01b03160217905550806001019050610d44565b50505050505050565b6004546001600160a01b03163314610e4e5760405162461bcd60e51b815260206004820152603560248201527f4f6e6c792076616c6964206d657373616765732066726f6d206e65787573206d60448201527461696c626f78206172652061636365707461626c6560581b60648201526084016107cb565b600082806020019051810190610e649190611d7c565b9050610e6f8161126f565b5050505050565b6000610e8181610ed9565b50600580546001600160a01b0319166001600160a01b0392909216919091179055565b60006001600160e01b03198216637965db0b60e01b14806104f757506301ffc9a760e01b6001600160e01b03198316146104f7565b6105108133611334565b610eee60008061136d565b565b610ef8611448565b6106d78282611491565b6000600080516020611ebe83398151915283610f67576000610f22610b18565b6001600160a01b031614610f4957604051631fe1e13d60e11b815260040160405180910390fd5b6001810180546001600160a01b0319166001600160a01b0385161790555b610f7184846114fa565b949350505050565b610f81611448565b610eee6115a6565b610f91611448565b610eee6115c7565b610fa1611097565b600080516020611efe833981519152805460ff191660011781557f62e78cea01bee320cd4e420270b5ea74000d11b0c9f74754ebdbfc544b05a258335b6040516001600160a01b03909116815260200160405180910390a150565b6110046115f5565b600080516020611efe833981519152805460ff191681557f5db9ee0a495bf2e6ff9c91a7834c1ba4fdd244a5e8aa4e537bd38aeae4b073aa33610fde565b61104b826106e3565b61105481610ed9565b61105e8383610f02565b50505050565b6001600160a01b038116331461108d5760405163334bd91960e11b815260040160405180910390fd5b6107f18282611625565b600080516020611efe8339815191525460ff1615610eee5760405163d93c066560e01b815260040160405180910390fd5b60006110d2610bee565b6110db4261167e565b6110e59190611e5b565b90506110f182826116b5565b60405165ffffffffffff821681526001600160a01b038316907f3377dc44241e779dd06afab5b788a35ca5f3b778836e2990bdb26a2a4b2e5ed69060200160405180910390a25050565b600061114682611742565b61114f4261167e565b6111599190611e5b565b9050611165828261136d565b6040805165ffffffffffff8085168252831660208201527ff1038c18cf84a56e432fdbfaf746924b7ea511dfe03a6506a0ceba4888788d9b910160405180910390a15050565b600080516020611ebe8339815191526000806111c5610cac565b915091506111da8165ffffffffffff16151590565b15806111ee57504265ffffffffffff821610155b15611216576040516319ca5ebb60e01b815265ffffffffffff821660048201526024016107cb565b6112286000611223610b18565b611625565b50611234600083610f02565b505081546001600160d01b03191690915550565b611251826106e3565b61125a81610ed9565b61105e8383611625565b610eee6000806116b5565b600080826040015180602001905181019061128a9190611e7a565b60008281526002602052604090205491935091506001600160a01b0316801561131b5760208401516040516340c10f1960e01b81526001600160a01b038083166004830152602482018590528316906340c10f1990604401600060405180830381600087803b1580156112fc57600080fd5b505af1158015611310573d6000803e3d6000fd5b505050505050505050565b6040516307d7e52d60e51b815260040160405180910390fd5b61133e8282610b43565b6106d75760405163e2517d3f60e01b81526001600160a01b0382166004820152602481018390526044016107cb565b600080516020611f1e83398151915254600080516020611ebe83398151915290600160d01b900465ffffffffffff16801561140a574265ffffffffffff821610156113e057600182015482546001600160d01b0316600160a01b90910465ffffffffffff16600160d01b0217825561140a565b6040517f2b1fa2edafe6f7b9e97c1a9e0c3660e645beb2dcaa2d45bdbf9beaf5472e1ec590600090a15b5060010180546001600160a01b0316600160a01b65ffffffffffff948516026001600160d01b031617600160d01b9290931691909102919091179055565b7ff0c57e16840df040f15088dc2f81fe391c3923bec73e23a9662efc9c229c6a0054600160401b900460ff16610eee57604051631afcd79f60e31b815260040160405180910390fd5b611499611448565b600080516020611ebe8339815191526001600160a01b0382166114d257604051636116401160e11b8152600060048201526024016107cb565b80546001600160d01b0316600160d01b65ffffffffffff85160217815561105e600083610f02565b6000600080516020611ede8339815191526115158484610b43565b611595576000848152602082815260408083206001600160a01b03871684529091529020805460ff1916600117905561154b3390565b6001600160a01b0316836001600160a01b0316857f2f8788117e7eff1d82e926ec794901d17c78024a50270940304540a733656f0d60405160405180910390a460019150506104f7565b60009150506104f7565b5092915050565b6115ae611448565b600080516020611efe833981519152805460ff19169055565b6115cf611448565b60017f9b779b17422d0df92223018b32b4d1fa46e071723d6817e2486d003becc55f0055565b600080516020611efe8339815191525460ff16610eee57604051638dfc202b60e01b815260040160405180910390fd5b6000600080516020611ebe8339815191528315801561165c5750611647610b18565b6001600160a01b0316836001600160a01b0316145b15611674576001810180546001600160a01b03191690555b610f718484611791565b600065ffffffffffff8211156116b1576040516306dfcc6560e41b815260306004820152602481018390526044016107cb565b5090565b600080516020611ebe83398151915260006116ce610cac565b835465ffffffffffff8616600160a01b026001600160d01b03199091166001600160a01b03881617178455915061170e90508165ffffffffffff16151590565b1561105e576040517f8886ebfc4259abdbc16601dd8fb5678e54878f47b3c34836cfc51154a960510990600090a150505050565b60008061174d610bee565b90508065ffffffffffff168365ffffffffffff1611611775576117708382611e9e565b61178a565b61178a65ffffffffffff84166206978061180d565b9392505050565b6000600080516020611ede8339815191526117ac8484610b43565b15611595576000848152602082815260408083206001600160a01b0387168085529252808320805460ff1916905551339287917ff6391f5c32d9c69d2a47ea670b442974b53935d1edc7fd64eb21e047a839171b9190a460019150506104f7565b600081831061181c578161178a565b5090919050565b60006020828403121561183557600080fd5b81356001600160e01b03198116811461178a57600080fd5b6001600160a01b038116811461051057600080fd5b600080600080600060a0868803121561187a57600080fd5b85356118858161184d565b945060208601356118958161184d565b935060408601356118a58161184d565b925060608601356118b58161184d565b915060808601356118c58161184d565b809150509295509295909350565b6000602082840312156118e557600080fd5b8135801515811461178a57600080fd5b60006020828403121561190757600080fd5b5035919050565b6000806040838503121561192157600080fd5b8235915060208301356119338161184d565b809150509250929050565b60008083601f84011261195057600080fd5b5081356001600160401b0381111561196757600080fd5b6020830191508360208260051b850101111561198257600080fd5b9250929050565b60008060008060008060008060c0898b0312156119a557600080fd5b88359750602089013596506040890135955060608901356001600160401b03808211156119d157600080fd5b6119dd8c838d0161193e565b909750955060808b0135945060a08b01359150808211156119fd57600080fd5b50611a0a8b828c0161193e565b999c989b5096995094979396929594505050565b600060208284031215611a3057600080fd5b813561178a8161184d565b600060208284031215611a4d57600080fd5b813565ffffffffffff8116811461178a57600080fd5b60008060008060408587031215611a7957600080fd5b84356001600160401b0380821115611a9057600080fd5b611a9c8883890161193e565b90965094506020870135915080821115611ab557600080fd5b50611ac28782880161193e565b95989497509550505050565b634e487b7160e01b600052604160045260246000fd5b604051608081016001600160401b0381118282101715611b0657611b06611ace565b60405290565b604051601f8201601f191681016001600160401b0381118282101715611b3457611b34611ace565b604052919050565b60006001600160401b03821115611b5557611b55611ace565b50601f01601f191660200190565b60008060008060808587031215611b7957600080fd5b843593506020850135611b8b8161184d565b925060408501356001600160401b03811115611ba657600080fd5b8501601f81018713611bb757600080fd5b8035611bca611bc582611b3c565b611b0c565b818152886020838501011115611bdf57600080fd5b81602084016020830137600091810160200191909152949793965093946060013593505050565b60005b83811015611c21578181015183820152602001611c09565b50506000910152565b60008151808452611c42816020860160208601611c06565b601f01601f19169290920160200192915050565b6020815281516020820152602082015160408201526000604083015160806060840152611c8660a0840182611c2a565b90506001600160401b0360608501511660808401528091505092915050565b6080808252810186905260006001600160fb1b03871115611cc557600080fd5b8660051b808960a085013760a09083018381038201602080860191909152918101879052879160009160c0015b88831015611d22578335611d058161184d565b6001600160a01b0316815292810192600192909201918101611cf2565b8760408701528581036060870152611d3a8188611c2a565b9c9b505050505050505050505050565b634e487b7160e01b600052603260045260246000fd5b80516001600160401b0381168114611d7757600080fd5b919050565b60006020808385031215611d8f57600080fd5b82516001600160401b0380821115611da657600080fd5b9084019060808287031215611dba57600080fd5b611dc2611ae4565b825181528383015184820152604083015182811115611de057600080fd5b83019150601f82018713611df357600080fd5b8151611e01611bc582611b3c565b8181528886838601011115611e1557600080fd5b611e2482878301888701611c06565b604083015250611e3660608401611d60565b60608201529695505050505050565b634e487b7160e01b600052601160045260246000fd5b65ffffffffffff81811683821601908082111561159f5761159f611e45565b60008060408385031215611e8d57600080fd5b505080516020909101519092909150565b65ffffffffffff82811682821603908082111561159f5761159f611e4556feeef3dac4538c82c8ace4063ab0acd2d15cdb5883aa1dff7c2673abb3d869840002dd7bc7dec4dceedda775e58dd541e08a116c6c53815c0bd028192f7b626800cd5ed15c6e187e77e9aee88184c21f4f2182ab5827cb3b7e07fbedcd63f03300eef3dac4538c82c8ace4063ab0acd2d15cdb5883aa1dff7c2673abb3d8698401a26469706673582212208a0c1c5665722d9a6352143b50ba6bda8095d73c39e23a3c6d69631f1eaf45d564736f6c63430008150033",
    "linkReferences": {},
    "deployedLinkReferences": {}
}