{
    "_format": "hh-sol-artifact-1",
    "contractName": "NexusLockMintBridge",
    "sourceName": "contracts/bridge-mailbox/NexusBridge.sol",
    "abi": [
        {
            "inputs": [],
            "name": "AccessControlBadConfirmation",
            "type": "error"
        },
        {
            "inputs": [
                {
                    "internalType": "uint48",
                    "name": "schedule",
                    "type": "uint48"
                }
            ],
            "name": "AccessControlEnforcedDefaultAdminDelay",
            "type": "error"
        },
        {
            "inputs": [],
            "name": "AccessControlEnforcedDefaultAdminRules",
            "type": "error"
        },
        {
            "inputs": [
                {
                    "internalType": "address",
                    "name": "defaultAdmin",
                    "type": "address"
                }
            ],
            "name": "AccessControlInvalidDefaultAdmin",
            "type": "error"
        },
        {
            "inputs": [
                {
                    "internalType": "address",
                    "name": "account",
                    "type": "address"
                },
                {
                    "internalType": "bytes32",
                    "name": "neededRole",
                    "type": "bytes32"
                }
            ],
            "name": "AccessControlUnauthorizedAccount",
            "type": "error"
        },
        {
            "inputs": [],
            "name": "AlreadyBridged",
            "type": "error"
        },
        {
            "inputs": [],
            "name": "ArrayLengthMismatch",
            "type": "error"
        },
        {
            "inputs": [],
            "name": "BlobRootEmpty",
            "type": "error"
        },
        {
            "inputs": [],
            "name": "BridgeRootEmpty",
            "type": "error"
        },
        {
            "inputs": [],
            "name": "DataRootCommitmentEmpty",
            "type": "error"
        },
        {
            "inputs": [],
            "name": "EnforcedPause",
            "type": "error"
        },
        {
            "inputs": [],
            "name": "ExpectedPause",
            "type": "error"
        },
        {
            "inputs": [],
            "name": "FeeTooLow",
            "type": "error"
        },
        {
            "inputs": [],
            "name": "InvalidAssetId",
            "type": "error"
        },
        {
            "inputs": [],
            "name": "InvalidDataLength",
            "type": "error"
        },
        {
            "inputs": [],
            "name": "InvalidDataRootProof",
            "type": "error"
        },
        {
            "inputs": [],
            "name": "InvalidDestinationOrAmount",
            "type": "error"
        },
        {
            "inputs": [],
            "name": "InvalidDomain",
            "type": "error"
        },
        {
            "inputs": [],
            "name": "InvalidFungibleTokenTransfer",
            "type": "error"
        },
        {
            "inputs": [],
            "name": "InvalidInitialization",
            "type": "error"
        },
        {
            "inputs": [],
            "name": "InvalidLeaf",
            "type": "error"
        },
        {
            "inputs": [],
            "name": "InvalidMerkleProof",
            "type": "error"
        },
        {
            "inputs": [],
            "name": "InvalidMessage",
            "type": "error"
        },
        {
            "inputs": [],
            "name": "NotInitializing",
            "type": "error"
        },
        {
            "inputs": [],
            "name": "ReentrancyGuardReentrantCall",
            "type": "error"
        },
        {
            "inputs": [
                {
                    "internalType": "uint8",
                    "name": "bits",
                    "type": "uint8"
                },
                {
                    "internalType": "uint256",
                    "name": "value",
                    "type": "uint256"
                }
            ],
            "name": "SafeCastOverflowedUintDowncast",
            "type": "error"
        },
        {
            "inputs": [],
            "name": "UnlockFailed",
            "type": "error"
        },
        {
            "inputs": [],
            "name": "WithdrawFailed",
            "type": "error"
        },
        {
            "anonymous": false,
            "inputs": [],
            "name": "DefaultAdminDelayChangeCanceled",
            "type": "event"
        },
        {
            "anonymous": false,
            "inputs": [
                {
                    "indexed": false,
                    "internalType": "uint48",
                    "name": "newDelay",
                    "type": "uint48"
                },
                {
                    "indexed": false,
                    "internalType": "uint48",
                    "name": "effectSchedule",
                    "type": "uint48"
                }
            ],
            "name": "DefaultAdminDelayChangeScheduled",
            "type": "event"
        },
        {
            "anonymous": false,
            "inputs": [],
            "name": "DefaultAdminTransferCanceled",
            "type": "event"
        },
        {
            "anonymous": false,
            "inputs": [
                {
                    "indexed": true,
                    "internalType": "address",
                    "name": "newAdmin",
                    "type": "address"
                },
                {
                    "indexed": false,
                    "internalType": "uint48",
                    "name": "acceptSchedule",
                    "type": "uint48"
                }
            ],
            "name": "DefaultAdminTransferScheduled",
            "type": "event"
        },
        {
            "anonymous": false,
            "inputs": [
                {
                    "indexed": false,
                    "internalType": "uint64",
                    "name": "version",
                    "type": "uint64"
                }
            ],
            "name": "Initialized",
            "type": "event"
        },
        {
            "anonymous": false,
            "inputs": [
                {
                    "indexed": true,
                    "internalType": "bytes32",
                    "name": "from",
                    "type": "bytes32"
                },
                {
                    "indexed": true,
                    "internalType": "address",
                    "name": "to",
                    "type": "address"
                },
                {
                    "indexed": false,
                    "internalType": "uint256",
                    "name": "messageId",
                    "type": "uint256"
                }
            ],
            "name": "MessageReceived",
            "type": "event"
        },
        {
            "anonymous": false,
            "inputs": [
                {
                    "indexed": true,
                    "internalType": "address",
                    "name": "from",
                    "type": "address"
                },
                {
                    "indexed": true,
                    "internalType": "bytes32",
                    "name": "to",
                    "type": "bytes32"
                },
                {
                    "indexed": false,
                    "internalType": "uint256",
                    "name": "messageId",
                    "type": "uint256"
                }
            ],
            "name": "MessageSent",
            "type": "event"
        },
        {
            "anonymous": false,
            "inputs": [
                {
                    "indexed": false,
                    "internalType": "address",
                    "name": "account",
                    "type": "address"
                }
            ],
            "name": "Paused",
            "type": "event"
        },
        {
            "anonymous": false,
            "inputs": [
                {
                    "indexed": true,
                    "internalType": "bytes32",
                    "name": "role",
                    "type": "bytes32"
                },
                {
                    "indexed": true,
                    "internalType": "bytes32",
                    "name": "previousAdminRole",
                    "type": "bytes32"
                },
                {
                    "indexed": true,
                    "internalType": "bytes32",
                    "name": "newAdminRole",
                    "type": "bytes32"
                }
            ],
            "name": "RoleAdminChanged",
            "type": "event"
        },
        {
            "anonymous": false,
            "inputs": [
                {
                    "indexed": true,
                    "internalType": "bytes32",
                    "name": "role",
                    "type": "bytes32"
                },
                {
                    "indexed": true,
                    "internalType": "address",
                    "name": "account",
                    "type": "address"
                },
                {
                    "indexed": true,
                    "internalType": "address",
                    "name": "sender",
                    "type": "address"
                }
            ],
            "name": "RoleGranted",
            "type": "event"
        },
        {
            "anonymous": false,
            "inputs": [
                {
                    "indexed": true,
                    "internalType": "bytes32",
                    "name": "role",
                    "type": "bytes32"
                },
                {
                    "indexed": true,
                    "internalType": "address",
                    "name": "account",
                    "type": "address"
                },
                {
                    "indexed": true,
                    "internalType": "address",
                    "name": "sender",
                    "type": "address"
                }
            ],
            "name": "RoleRevoked",
            "type": "event"
        },
        {
            "anonymous": false,
            "inputs": [
                {
                    "indexed": false,
                    "internalType": "address",
                    "name": "account",
                    "type": "address"
                }
            ],
            "name": "Unpaused",
            "type": "event"
        },
        {
            "inputs": [],
            "name": "DEFAULT_ADMIN_ROLE",
            "outputs": [
                {
                    "internalType": "bytes32",
                    "name": "",
                    "type": "bytes32"
                }
            ],
            "stateMutability": "view",
            "type": "function"
        },
        {
            "inputs": [],
            "name": "acceptDefaultAdminTransfer",
            "outputs": [],
            "stateMutability": "nonpayable",
            "type": "function"
        },
        {
            "inputs": [],
            "name": "avail",
            "outputs": [
                {
                    "internalType": "contract IAvail",
                    "name": "",
                    "type": "address"
                }
            ],
            "stateMutability": "view",
            "type": "function"
        },
        {
            "inputs": [
                {
                    "internalType": "address",
                    "name": "newAdmin",
                    "type": "address"
                }
            ],
            "name": "beginDefaultAdminTransfer",
            "outputs": [],
            "stateMutability": "nonpayable",
            "type": "function"
        },
        {
            "inputs": [],
            "name": "cancelDefaultAdminTransfer",
            "outputs": [],
            "stateMutability": "nonpayable",
            "type": "function"
        },
        {
            "inputs": [
                {
                    "internalType": "uint48",
                    "name": "newDelay",
                    "type": "uint48"
                }
            ],
            "name": "changeDefaultAdminDelay",
            "outputs": [],
            "stateMutability": "nonpayable",
            "type": "function"
        },
        {
            "inputs": [],
            "name": "defaultAdmin",
            "outputs": [
                {
                    "internalType": "address",
                    "name": "",
                    "type": "address"
                }
            ],
            "stateMutability": "view",
            "type": "function"
        },
        {
            "inputs": [],
            "name": "defaultAdminDelay",
            "outputs": [
                {
                    "internalType": "uint48",
                    "name": "",
                    "type": "uint48"
                }
            ],
            "stateMutability": "view",
            "type": "function"
        },
        {
            "inputs": [],
            "name": "defaultAdminDelayIncreaseWait",
            "outputs": [
                {
                    "internalType": "uint48",
                    "name": "",
                    "type": "uint48"
                }
            ],
            "stateMutability": "view",
            "type": "function"
        },
        {
            "inputs": [],
            "name": "feeRecipient",
            "outputs": [
                {
                    "internalType": "address",
                    "name": "",
                    "type": "address"
                }
            ],
            "stateMutability": "view",
            "type": "function"
        },
        {
            "inputs": [],
            "name": "fees",
            "outputs": [
                {
                    "internalType": "uint256",
                    "name": "",
                    "type": "uint256"
                }
            ],
            "stateMutability": "view",
            "type": "function"
        },
        {
            "inputs": [
                {
                    "internalType": "bytes32",
                    "name": "role",
                    "type": "bytes32"
                }
            ],
            "name": "getRoleAdmin",
            "outputs": [
                {
                    "internalType": "bytes32",
                    "name": "",
                    "type": "bytes32"
                }
            ],
            "stateMutability": "view",
            "type": "function"
        },
        {
            "inputs": [
                {
                    "internalType": "bytes32",
                    "name": "role",
                    "type": "bytes32"
                },
                {
                    "internalType": "address",
                    "name": "account",
                    "type": "address"
                }
            ],
            "name": "grantRole",
            "outputs": [],
            "stateMutability": "nonpayable",
            "type": "function"
        },
        {
            "inputs": [
                {
                    "internalType": "bytes32",
                    "name": "role",
                    "type": "bytes32"
                },
                {
                    "internalType": "address",
                    "name": "account",
                    "type": "address"
                }
            ],
            "name": "hasRole",
            "outputs": [
                {
                    "internalType": "bool",
                    "name": "",
                    "type": "bool"
                }
            ],
            "stateMutability": "view",
            "type": "function"
        },
        {
            "inputs": [
                {
                    "internalType": "address",
                    "name": "newFeeRecipient",
                    "type": "address"
                },
                {
                    "internalType": "contract IAvail",
                    "name": "newAvail",
                    "type": "address"
                },
                {
                    "internalType": "address",
                    "name": "governance",
                    "type": "address"
                },
                {
                    "internalType": "address",
                    "name": "pauser",
                    "type": "address"
                },
                {
                    "internalType": "contract INexusMailbox",
                    "name": "_nexusMailbox",
                    "type": "address"
                }
            ],
            "name": "initialize",
            "outputs": [],
            "stateMutability": "nonpayable",
            "type": "function"
        },
        {
            "inputs": [
                {
                    "internalType": "bytes32",
                    "name": "",
                    "type": "bytes32"
                }
            ],
            "name": "isBridged",
            "outputs": [
                {
                    "internalType": "bool",
                    "name": "",
                    "type": "bool"
                }
            ],
            "stateMutability": "view",
            "type": "function"
        },
        {
            "inputs": [
                {
                    "internalType": "uint256",
                    "name": "",
                    "type": "uint256"
                }
            ],
            "name": "isSent",
            "outputs": [
                {
                    "internalType": "bytes32",
                    "name": "",
                    "type": "bytes32"
                }
            ],
            "stateMutability": "view",
            "type": "function"
        },
        {
            "inputs": [],
            "name": "mailbox",
            "outputs": [
                {
                    "internalType": "contract INexusMailbox",
                    "name": "",
                    "type": "address"
                }
            ],
            "stateMutability": "view",
            "type": "function"
        },
        {
            "inputs": [],
            "name": "messageId",
            "outputs": [
                {
                    "internalType": "uint256",
                    "name": "",
                    "type": "uint256"
                }
            ],
            "stateMutability": "view",
            "type": "function"
        },
        {
            "inputs": [
                {
                    "internalType": "bytes32",
                    "name": "",
                    "type": "bytes32"
                }
            ],
            "name": "nexusTokens",
            "outputs": [
                {
                    "internalType": "address",
                    "name": "",
                    "type": "address"
                }
            ],
            "stateMutability": "view",
            "type": "function"
        },
        {
            "inputs": [
                {
                    "internalType": "bytes32",
                    "name": "nexusAppIDFrom",
                    "type": "bytes32"
                },
                {
                    "internalType": "address",
                    "name": "sender",
                    "type": "address"
                },
                {
                    "internalType": "bytes",
                    "name": "data",
                    "type": "bytes"
                },
                {
                    "internalType": "uint256",
                    "name": "nonce",
                    "type": "uint256"
                }
            ],
            "name": "onNexusMessage",
            "outputs": [],
            "stateMutability": "nonpayable",
            "type": "function"
        },
        {
            "inputs": [],
            "name": "owner",
            "outputs": [
                {
                    "internalType": "address",
                    "name": "",
                    "type": "address"
                }
            ],
            "stateMutability": "view",
            "type": "function"
        },
        {
            "inputs": [],
            "name": "paused",
            "outputs": [
                {
                    "internalType": "bool",
                    "name": "",
                    "type": "bool"
                }
            ],
            "stateMutability": "view",
            "type": "function"
        },
        {
            "inputs": [],
            "name": "pendingDefaultAdmin",
            "outputs": [
                {
                    "internalType": "address",
                    "name": "newAdmin",
                    "type": "address"
                },
                {
                    "internalType": "uint48",
                    "name": "schedule",
                    "type": "uint48"
                }
            ],
            "stateMutability": "view",
            "type": "function"
        },
        {
            "inputs": [],
            "name": "pendingDefaultAdminDelay",
            "outputs": [
                {
                    "internalType": "uint48",
                    "name": "newDelay",
                    "type": "uint48"
                },
                {
                    "internalType": "uint48",
                    "name": "schedule",
                    "type": "uint48"
                }
            ],
            "stateMutability": "view",
            "type": "function"
        },
        {
            "inputs": [
                {
                    "internalType": "bytes32",
                    "name": "role",
                    "type": "bytes32"
                },
                {
                    "internalType": "address",
                    "name": "account",
                    "type": "address"
                }
            ],
            "name": "renounceRole",
            "outputs": [],
            "stateMutability": "nonpayable",
            "type": "function"
        },
        {
            "inputs": [
                {
                    "internalType": "bytes32",
                    "name": "role",
                    "type": "bytes32"
                },
                {
                    "internalType": "address",
                    "name": "account",
                    "type": "address"
                }
            ],
            "name": "revokeRole",
            "outputs": [],
            "stateMutability": "nonpayable",
            "type": "function"
        },
        {
            "inputs": [],
            "name": "rollbackDefaultAdminDelay",
            "outputs": [],
            "stateMutability": "nonpayable",
            "type": "function"
        },
        {
            "inputs": [
                {
                    "internalType": "bytes32",
                    "name": "assetId",
                    "type": "bytes32"
                },
                {
                    "internalType": "bytes32",
                    "name": "recipient",
                    "type": "bytes32"
                },
                {
                    "internalType": "uint256",
                    "name": "amount",
                    "type": "uint256"
                },
                {
                    "internalType": "bytes32[]",
                    "name": "destination",
                    "type": "bytes32[]"
                },
                {
                    "internalType": "uint256",
                    "name": "nonce",
                    "type": "uint256"
                },
                {
                    "internalType": "address[]",
                    "name": "destinationMailboxAddress",
                    "type": "address[]"
                }
            ],
            "name": "sendERC20",
            "outputs": [],
            "stateMutability": "nonpayable",
            "type": "function"
        },
        {
            "inputs": [
                {
                    "internalType": "bool",
                    "name": "status",
                    "type": "bool"
                }
            ],
            "name": "setPaused",
            "outputs": [],
            "stateMutability": "nonpayable",
            "type": "function"
        },
        {
            "inputs": [
                {
                    "internalType": "bytes4",
                    "name": "interfaceId",
                    "type": "bytes4"
                }
            ],
            "name": "supportsInterface",
            "outputs": [
                {
                    "internalType": "bool",
                    "name": "",
                    "type": "bool"
                }
            ],
            "stateMutability": "view",
            "type": "function"
        },
        {
            "inputs": [
                {
                    "internalType": "address",
                    "name": "newFeeRecipient",
                    "type": "address"
                }
            ],
            "name": "updateFeeRecipient",
            "outputs": [],
            "stateMutability": "nonpayable",
            "type": "function"
        },
        {
            "inputs": [
                {
                    "internalType": "bytes32[]",
                    "name": "assetIds",
                    "type": "bytes32[]"
                },
                {
                    "internalType": "address[]",
                    "name": "tokenAddresses",
                    "type": "address[]"
                }
            ],
            "name": "updateNexusTokens",
            "outputs": [],
            "stateMutability": "nonpayable",
            "type": "function"
        },
        {
            "inputs": [],
            "name": "withdrawFees",
            "outputs": [],
            "stateMutability": "nonpayable",
            "type": "function"
        }
    ],
    "bytecode": "0x608060405234801561001057600080fd5b50611d21806100206000396000f3fe608060405234801561001057600080fd5b50600436106102065760003560e01c8063669f618b1161011a578063cc8463c8116100ad578063d547741f1161007c578063d547741f1461047e578063d602b9fd14610491578063e12a665914610499578063ecb8171f146104ac578063f160d369146104bf57600080fd5b8063cc8463c81461042d578063cefc142914610435578063cf6eefb71461043d578063d5438eae1461046b57600080fd5b806391d14854116100e957806391d14854146103e25780639af1d35a146103f5578063a1eda53c146103fe578063a217fddf1461042557600080fd5b8063669f618b146103a6578063701bbfe8146103af57806384ef8ffc146103d25780638da5cb5b146103da57600080fd5b806338c4810d1161019d5780635bdeac421161016c5780635bdeac42146103355780635c975abb14610348578063634e93da1461036057806363d91f4014610373578063649a5ec71461039357600080fd5b806338c4810d146102c65780633ea04f3f14610307578063469048401461031a578063476343ee1461032d57600080fd5b806316c38b3c116101d957806316c38b3c1461026c578063248a9ca31461027f5780632f2ff15d146102a057806336568abe146102b357600080fd5b806301ffc9a71461020b578063022d63fb146102335780630aa6220b1461024f5780631459457a14610259575b600080fd5b61021e6102193660046116fb565b6104d2565b60405190151581526020015b60405180910390f35b620697805b60405165ffffffffffff909116815260200161022a565b6102576104fd565b005b61025761026736600461173a565b610513565b61025761027a3660046117ab565b6106a1565b61029261028d3660046117cd565b6106e5565b60405190815260200161022a565b6102576102ae3660046117e6565b610707565b6102576102c13660046117e6565b61072f565b6102ef6102d43660046117cd565b6002602052600090815260409020546001600160a01b031681565b6040516001600160a01b03909116815260200161022a565b610257610315366004611862565b6107f8565b6005546102ef906001600160a01b031681565b610257610a73565b6003546102ef906001600160a01b031681565b600080516020611cac8339815191525460ff1661021e565b61025761036e3660046118f8565b610af3565b6102926103813660046117cd565b60006020819052908152604090205481565b6102576103a1366004611915565b610b07565b61029260075481565b61021e6103bd3660046117cd565b60016020526000908152604090205460ff1681565b6102ef610b1b565b6102ef610b37565b61021e6103f03660046117e6565b610b46565b61029260065481565b610406610b7e565b6040805165ffffffffffff93841681529290911660208301520161022a565b610292600081565b610238610bf1565b610257610c6f565b610445610caf565b604080516001600160a01b03909316835265ffffffffffff90911660208301520161022a565b6004546102ef906001600160a01b031681565b61025761048c3660046117e6565b610cdd565b610257610d05565b6102576104a736600461193d565b610d18565b6102576104ba366004611a18565b610dd9565b6102576104cd3660046118f8565b610e13565b60006001600160e01b031982166318a4c3c360e11b14806104f757506104f782610e41565b92915050565b600061050881610e76565b610510610e80565b50565b7ff0c57e16840df040f15088dc2f81fe391c3923bec73e23a9662efc9c229c6a008054600160401b810460ff16159067ffffffffffffffff166000811580156105595750825b905060008267ffffffffffffffff1660011480156105765750303b155b905081158015610584575080155b156105a25760405163f92ee8a960e01b815260040160405180910390fd5b845467ffffffffffffffff1916600117855583156105cc57845460ff60401b1916600160401b1785555b600580546001600160a01b03808d166001600160a01b031992831617909255600380548c84169083161790556004805492891692909116919091179055610614600089610e8d565b61063e7f65d7a28e3265b37a6474929f336521b332c1681b933f6cb9f3376673440d862a88610e9f565b50610647610f16565b61064f610f26565b831561069557845460ff60401b19168555604051600181527fc7f505b2f371ae2175ee4913f4499e1f2633a7b5936321eed1cdaeb6115181d29060200160405180910390a15b50505050505050505050565b7f65d7a28e3265b37a6474929f336521b332c1681b933f6cb9f3376673440d862a6106cb81610e76565b81156106dd576106d9610f36565b5050565b6106d9610f99565b6000908152600080516020611c8c833981519152602052604090206001015490565b8161072557604051631fe1e13d60e11b815260040160405180910390fd5b6106d98282610fdf565b600080516020611c6c83398151915282158015610764575061074f610b1b565b6001600160a01b0316826001600160a01b0316145b156107e957600080610774610caf565b90925090506001600160a01b038216151580610796575065ffffffffffff8116155b806107a957504265ffffffffffff821610155b156107d6576040516319ca5ebb60e01b815265ffffffffffff821660048201526024015b60405180910390fd5b5050805465ffffffffffff60a01b191681555b6107f38383611001565b505050565b610800611034565b868681158061080d575080155b8061082757506fffffffffffffffffffffffffffffffff81115b15610845576040516329fd423f60e01b815260040160405180910390fd5b60008a8152600260205260409020546001600160a01b03168061087b576040516307d7e52d60e51b815260040160405180910390fd5b600060076000815480929190600101919050559050600060405180608001604052803360601b6bffffffffffffffffffffffff191681526020018d81526020018e8d6040516020016108d7929190918252602082015260400190565b60405160208183030381529060405281526020018367ffffffffffffffff1681525090508060405160200161090c9190611b0c565b60408051601f198184030181528282528051602091820120600086815280835292832055909161093e91849101611b0c565b6040516020818303038152906040529050600460009054906101000a90046001600160a01b03166001600160a01b031663cb8d653c8c8c8b8b8e876040518763ffffffff1660e01b815260040161099a96959493929190611b5c565b600060405180830381600087803b1580156109b457600080fd5b505af11580156109c8573d6000803e3d6000fd5b50506040518581528f92503391507f06fd209663be9278f96bc53dfbf6cf3cdcf2172c38b5de30abff93ba443d653a9060200160405180910390a3604051632770a7eb60e21b8152336004820152602481018d90526001600160a01b03851690639dc29fac90604401600060405180830381600087803b158015610a4b57600080fd5b505af1158015610a5f573d6000803e3d6000fd5b505050505050505050505050505050505050565b600680546000918290556005546040519192916001600160a01b039091169083908381818185875af1925050503d8060008114610acc576040519150601f19603f3d011682016040523d82523d6000602084013e610ad1565b606091505b50509050806106d957604051631d42c86760e21b815260040160405180910390fd5b6000610afe81610e76565b6106d982611065565b6000610b1281610e76565b6106d9826110d8565b600080516020611ccc833981519152546001600160a01b031690565b6000610b41610b1b565b905090565b6000918252600080516020611c8c833981519152602090815260408084206001600160a01b0393909316845291905290205460ff1690565b600080516020611ccc83398151915254600090600160d01b900465ffffffffffff16600080516020611c6c8339815191528115801590610bc657504265ffffffffffff831610155b610bd257600080610be8565b6001810154600160a01b900465ffffffffffff16825b92509250509091565b600080516020611ccc83398151915254600090600080516020611c6c83398151915290600160d01b900465ffffffffffff168015801590610c3957504265ffffffffffff8216105b610c53578154600160d01b900465ffffffffffff16610c68565b6001820154600160a01b900465ffffffffffff165b9250505090565b6000610c79610caf565b509050336001600160a01b03821614610ca757604051636116401160e11b81523360048201526024016107cd565b610510611148565b600080516020611c6c833981519152546001600160a01b03811691600160a01b90910465ffffffffffff1690565b81610cfb57604051631fe1e13d60e11b815260040160405180910390fd5b6106d982826111e5565b6000610d1081610e76565b610510611201565b6000610d2381610e76565b83828114610d445760405163512509d360e11b815260040160405180910390fd5b60005b81811015610dd057848482818110610d6157610d61611c01565b9050602002016020810190610d7691906118f8565b60026000898985818110610d8c57610d8c611c01565b90506020020135815260200190815260200160002060006101000a8154816001600160a01b0302191690836001600160a01b03160217905550806001019050610d47565b50505050505050565b60405162461bcd60e51b815260206004820152600f60248201526e139bdd081a5b5c1b195b595b9d1959608a1b60448201526064016107cd565b6000610e1e81610e76565b50600580546001600160a01b0319166001600160a01b0392909216919091179055565b60006001600160e01b03198216637965db0b60e01b14806104f757506301ffc9a760e01b6001600160e01b03198316146104f7565b610510813361120c565b610e8b600080611245565b565b610e95611320565b6106d98282611369565b6000600080516020611c6c83398151915283610f04576000610ebf610b1b565b6001600160a01b031614610ee657604051631fe1e13d60e11b815260040160405180910390fd5b6001810180546001600160a01b0319166001600160a01b0385161790555b610f0e84846113d2565b949350505050565b610f1e611320565b610e8b61147e565b610f2e611320565b610e8b61149f565b610f3e611034565b600080516020611cac833981519152805460ff191660011781557f62e78cea01bee320cd4e420270b5ea74000d11b0c9f74754ebdbfc544b05a258335b6040516001600160a01b03909116815260200160405180910390a150565b610fa16114cd565b600080516020611cac833981519152805460ff191681557f5db9ee0a495bf2e6ff9c91a7834c1ba4fdd244a5e8aa4e537bd38aeae4b073aa33610f7b565b610fe8826106e5565b610ff181610e76565b610ffb8383610e9f565b50505050565b6001600160a01b038116331461102a5760405163334bd91960e11b815260040160405180910390fd5b6107f382826114fd565b600080516020611cac8339815191525460ff1615610e8b5760405163d93c066560e01b815260040160405180910390fd5b600061106f610bf1565b61107842611556565b6110829190611c2d565b905061108e828261158d565b60405165ffffffffffff821681526001600160a01b038316907f3377dc44241e779dd06afab5b788a35ca5f3b778836e2990bdb26a2a4b2e5ed69060200160405180910390a25050565b60006110e38261161a565b6110ec42611556565b6110f69190611c2d565b90506111028282611245565b6040805165ffffffffffff8085168252831660208201527ff1038c18cf84a56e432fdbfaf746924b7ea511dfe03a6506a0ceba4888788d9b910160405180910390a15050565b600080516020611c6c833981519152600080611162610caf565b915091506111778165ffffffffffff16151590565b158061118b57504265ffffffffffff821610155b156111b3576040516319ca5ebb60e01b815265ffffffffffff821660048201526024016107cd565b6111c560006111c0610b1b565b6114fd565b506111d1600083610e9f565b505081546001600160d01b03191690915550565b6111ee826106e5565b6111f781610e76565b610ffb83836114fd565b610e8b60008061158d565b6112168282610b46565b6106d95760405163e2517d3f60e01b81526001600160a01b0382166004820152602481018390526044016107cd565b600080516020611ccc83398151915254600080516020611c6c83398151915290600160d01b900465ffffffffffff1680156112e2574265ffffffffffff821610156112b857600182015482546001600160d01b0316600160a01b90910465ffffffffffff16600160d01b021782556112e2565b6040517f2b1fa2edafe6f7b9e97c1a9e0c3660e645beb2dcaa2d45bdbf9beaf5472e1ec590600090a15b5060010180546001600160a01b0316600160a01b65ffffffffffff948516026001600160d01b031617600160d01b9290931691909102919091179055565b7ff0c57e16840df040f15088dc2f81fe391c3923bec73e23a9662efc9c229c6a0054600160401b900460ff16610e8b57604051631afcd79f60e31b815260040160405180910390fd5b611371611320565b600080516020611c6c8339815191526001600160a01b0382166113aa57604051636116401160e11b8152600060048201526024016107cd565b80546001600160d01b0316600160d01b65ffffffffffff851602178155610ffb600083610e9f565b6000600080516020611c8c8339815191526113ed8484610b46565b61146d576000848152602082815260408083206001600160a01b03871684529091529020805460ff191660011790556114233390565b6001600160a01b0316836001600160a01b0316857f2f8788117e7eff1d82e926ec794901d17c78024a50270940304540a733656f0d60405160405180910390a460019150506104f7565b60009150506104f7565b5092915050565b611486611320565b600080516020611cac833981519152805460ff19169055565b6114a7611320565b60017f9b779b17422d0df92223018b32b4d1fa46e071723d6817e2486d003becc55f0055565b600080516020611cac8339815191525460ff16610e8b57604051638dfc202b60e01b815260040160405180910390fd5b6000600080516020611c6c83398151915283158015611534575061151f610b1b565b6001600160a01b0316836001600160a01b0316145b1561154c576001810180546001600160a01b03191690555b610f0e8484611669565b600065ffffffffffff821115611589576040516306dfcc6560e41b815260306004820152602481018390526044016107cd565b5090565b600080516020611c6c83398151915260006115a6610caf565b835465ffffffffffff8616600160a01b026001600160d01b03199091166001600160a01b0388161717845591506115e690508165ffffffffffff16151590565b15610ffb576040517f8886ebfc4259abdbc16601dd8fb5678e54878f47b3c34836cfc51154a960510990600090a150505050565b600080611625610bf1565b90508065ffffffffffff168365ffffffffffff161161164d576116488382611c4c565b611662565b61166265ffffffffffff8416620697806116e5565b9392505050565b6000600080516020611c8c8339815191526116848484610b46565b1561146d576000848152602082815260408083206001600160a01b0387168085529252808320805460ff1916905551339287917ff6391f5c32d9c69d2a47ea670b442974b53935d1edc7fd64eb21e047a839171b9190a460019150506104f7565b60008183106116f45781611662565b5090919050565b60006020828403121561170d57600080fd5b81356001600160e01b03198116811461166257600080fd5b6001600160a01b038116811461051057600080fd5b600080600080600060a0868803121561175257600080fd5b853561175d81611725565b9450602086013561176d81611725565b9350604086013561177d81611725565b9250606086013561178d81611725565b9150608086013561179d81611725565b809150509295509295909350565b6000602082840312156117bd57600080fd5b8135801515811461166257600080fd5b6000602082840312156117df57600080fd5b5035919050565b600080604083850312156117f957600080fd5b82359150602083013561180b81611725565b809150509250929050565b60008083601f84011261182857600080fd5b50813567ffffffffffffffff81111561184057600080fd5b6020830191508360208260051b850101111561185b57600080fd5b9250929050565b60008060008060008060008060c0898b03121561187e57600080fd5b883597506020890135965060408901359550606089013567ffffffffffffffff808211156118ab57600080fd5b6118b78c838d01611816565b909750955060808b0135945060a08b01359150808211156118d757600080fd5b506118e48b828c01611816565b999c989b5096995094979396929594505050565b60006020828403121561190a57600080fd5b813561166281611725565b60006020828403121561192757600080fd5b813565ffffffffffff8116811461166257600080fd5b6000806000806040858703121561195357600080fd5b843567ffffffffffffffff8082111561196b57600080fd5b61197788838901611816565b9096509450602087013591508082111561199057600080fd5b5061199d87828801611816565b95989497509550505050565b634e487b7160e01b600052604160045260246000fd5b604051601f8201601f1916810167ffffffffffffffff811182821017156119e8576119e86119a9565b604052919050565b600067ffffffffffffffff821115611a0a57611a0a6119a9565b50601f01601f191660200190565b60008060008060808587031215611a2e57600080fd5b843593506020850135611a4081611725565b9250604085013567ffffffffffffffff811115611a5c57600080fd5b8501601f81018713611a6d57600080fd5b8035611a80611a7b826119f0565b6119bf565b818152886020838501011115611a9557600080fd5b81602084016020830137600091810160200191909152949793965093946060013593505050565b60005b83811015611ad7578181015183820152602001611abf565b50506000910152565b60008151808452611af8816020860160208601611abc565b601f01601f19169290920160200192915050565b6020815281516020820152602082015160408201526000604083015160806060840152611b3c60a0840182611ae0565b905067ffffffffffffffff60608501511660808401528091505092915050565b6080808252810186905260006001600160fb1b03871115611b7c57600080fd5b8660051b808960a085013760a09083018381038201602080860191909152918101879052879160009160c0015b88831015611bd9578335611bbc81611725565b6001600160a01b0316815292810192600192909201918101611ba9565b8760408701528581036060870152611bf18188611ae0565b9c9b505050505050505050505050565b634e487b7160e01b600052603260045260246000fd5b634e487b7160e01b600052601160045260246000fd5b65ffffffffffff81811683821601908082111561147757611477611c17565b65ffffffffffff82811682821603908082111561147757611477611c1756feeef3dac4538c82c8ace4063ab0acd2d15cdb5883aa1dff7c2673abb3d869840002dd7bc7dec4dceedda775e58dd541e08a116c6c53815c0bd028192f7b626800cd5ed15c6e187e77e9aee88184c21f4f2182ab5827cb3b7e07fbedcd63f03300eef3dac4538c82c8ace4063ab0acd2d15cdb5883aa1dff7c2673abb3d8698401a26469706673582212205ac0b2d463b0f628dddbe1a73c7d9239e1bb037433e660e3b8c65cdb42163b9464736f6c63430008150033",
    "linkReferences": {},
    "deployedLinkReferences": {}
}