{
    "abi": [
        {
            "type": "function",
            "name": "addOrUpdateWrapper",
            "inputs": [
                {
                    "name": "wrapperChainId",
                    "type": "bytes32",
                    "internalType": "bytes32"
                },
                {
                    "name": "wrapper",
                    "type": "address",
                    "internalType": "contract INexusVerifierWrapper"
                }
            ],
            "outputs": [],
            "stateMutability": "nonpayable"
        },
        {
            "type": "function",
            "name": "getSendMessageDetails",
            "inputs": [
                {
                    "name": "receiptHash",
                    "type": "bytes32",
                    "internalType": "bytes32"
                }
            ],
            "outputs": [
                {
                    "name": "",
                    "type": "tuple",
                    "internalType": "struct MailboxMessage",
                    "components": [
                        {
                            "name": "nexusAppIDFrom",
                            "type": "bytes32",
                            "internalType": "bytes32"
                        },
                        {
                            "name": "nexusAppIDTo",
                            "type": "bytes32[]",
                            "internalType": "bytes32[]"
                        },
                        {
                            "name": "data",
                            "type": "bytes",
                            "internalType": "bytes"
                        },
                        {
                            "name": "from",
                            "type": "address",
                            "internalType": "address"
                        },
                        {
                            "name": "to",
                            "type": "address[]",
                            "internalType": "address[]"
                        },
                        {
                            "name": "nonce",
                            "type": "uint256",
                            "internalType": "uint256"
                        }
                    ]
                }
            ],
            "stateMutability": "view"
        },
        {
            "type": "function",
            "name": "initialize",
            "inputs": [
                {
                    "name": "_nexusAppID",
                    "type": "bytes32",
                    "internalType": "bytes32"
                }
            ],
            "outputs": [],
            "stateMutability": "nonpayable"
        },
        {
            "type": "function",
            "name": "messages",
            "inputs": [
                {
                    "name": "",
                    "type": "bytes32",
                    "internalType": "bytes32"
                }
            ],
            "outputs": [
                {
                    "name": "",
                    "type": "bool",
                    "internalType": "bool"
                }
            ],
            "stateMutability": "view"
        },
        {
            "type": "function",
            "name": "nexusAppID",
            "inputs": [],
            "outputs": [
                {
                    "name": "",
                    "type": "bytes32",
                    "internalType": "bytes32"
                }
            ],
            "stateMutability": "view"
        },
        {
            "type": "function",
            "name": "owner",
            "inputs": [],
            "outputs": [
                {
                    "name": "",
                    "type": "address",
                    "internalType": "address"
                }
            ],
            "stateMutability": "view"
        },
        {
            "type": "function",
            "name": "receiveMessage",
            "inputs": [
                {
                    "name": "chainblockNumber",
                    "type": "uint256",
                    "internalType": "uint256"
                },
                {
                    "name": "receipt",
                    "type": "tuple",
                    "internalType": "struct MailboxMessage",
                    "components": [
                        {
                            "name": "nexusAppIDFrom",
                            "type": "bytes32",
                            "internalType": "bytes32"
                        },
                        {
                            "name": "nexusAppIDTo",
                            "type": "bytes32[]",
                            "internalType": "bytes32[]"
                        },
                        {
                            "name": "data",
                            "type": "bytes",
                            "internalType": "bytes"
                        },
                        {
                            "name": "from",
                            "type": "address",
                            "internalType": "address"
                        },
                        {
                            "name": "to",
                            "type": "address[]",
                            "internalType": "address[]"
                        },
                        {
                            "name": "nonce",
                            "type": "uint256",
                            "internalType": "uint256"
                        }
                    ]
                },
                {
                    "name": "proof",
                    "type": "bytes",
                    "internalType": "bytes"
                }
            ],
            "outputs": [],
            "stateMutability": "nonpayable"
        },
        {
            "type": "function",
            "name": "renounceOwnership",
            "inputs": [],
            "outputs": [],
            "stateMutability": "nonpayable"
        },
        {
            "type": "function",
            "name": "sendMessage",
            "inputs": [
                {
                    "name": "nexusAppIDTo",
                    "type": "bytes32[]",
                    "internalType": "bytes32[]"
                },
                {
                    "name": "to",
                    "type": "address[]",
                    "internalType": "address[]"
                },
                {
                    "name": "nonce",
                    "type": "uint256",
                    "internalType": "uint256"
                },
                {
                    "name": "data",
                    "type": "bytes",
                    "internalType": "bytes"
                }
            ],
            "outputs": [],
            "stateMutability": "nonpayable"
        },
        {
            "type": "function",
            "name": "transferOwnership",
            "inputs": [
                {
                    "name": "newOwner",
                    "type": "address",
                    "internalType": "address"
                }
            ],
            "outputs": [],
            "stateMutability": "nonpayable"
        },
        {
            "type": "function",
            "name": "verifiedReceipts",
            "inputs": [
                {
                    "name": "",
                    "type": "bytes32",
                    "internalType": "bytes32"
                }
            ],
            "outputs": [
                {
                    "name": "nexusAppIDFrom",
                    "type": "bytes32",
                    "internalType": "bytes32"
                },
                {
                    "name": "data",
                    "type": "bytes",
                    "internalType": "bytes"
                },
                {
                    "name": "from",
                    "type": "address",
                    "internalType": "address"
                },
                {
                    "name": "nonce",
                    "type": "uint256",
                    "internalType": "uint256"
                }
            ],
            "stateMutability": "view"
        },
        {
            "type": "function",
            "name": "verifierWrappers",
            "inputs": [
                {
                    "name": "",
                    "type": "bytes32",
                    "internalType": "bytes32"
                }
            ],
            "outputs": [
                {
                    "name": "",
                    "type": "address",
                    "internalType": "contract INexusVerifierWrapper"
                }
            ],
            "stateMutability": "view"
        },
        {
            "type": "event",
            "name": "CallbackFailed",
            "inputs": [
                {
                    "name": "to",
                    "type": "address",
                    "indexed": true,
                    "internalType": "address"
                },
                {
                    "name": "data",
                    "type": "bytes",
                    "indexed": false,
                    "internalType": "bytes"
                }
            ],
            "anonymous": false
        },
        {
            "type": "event",
            "name": "Initialized",
            "inputs": [
                {
                    "name": "version",
                    "type": "uint64",
                    "indexed": false,
                    "internalType": "uint64"
                }
            ],
            "anonymous": false
        },
        {
            "type": "event",
            "name": "MailboxEvent",
            "inputs": [
                {
                    "name": "nexusAppIDFrom",
                    "type": "bytes32",
                    "indexed": true,
                    "internalType": "bytes32"
                },
                {
                    "name": "nexusAppIDTo",
                    "type": "bytes32[]",
                    "indexed": false,
                    "internalType": "bytes32[]"
                },
                {
                    "name": "data",
                    "type": "bytes",
                    "indexed": false,
                    "internalType": "bytes"
                },
                {
                    "name": "from",
                    "type": "address",
                    "indexed": true,
                    "internalType": "address"
                },
                {
                    "name": "to",
                    "type": "address[]",
                    "indexed": false,
                    "internalType": "address[]"
                },
                {
                    "name": "nonce",
                    "type": "uint256",
                    "indexed": false,
                    "internalType": "uint256"
                },
                {
                    "name": "receiptHash",
                    "type": "bytes32",
                    "indexed": false,
                    "internalType": "bytes32"
                }
            ],
            "anonymous": false
        },
        {
            "type": "event",
            "name": "OwnershipTransferred",
            "inputs": [
                {
                    "name": "previousOwner",
                    "type": "address",
                    "indexed": true,
                    "internalType": "address"
                },
                {
                    "name": "newOwner",
                    "type": "address",
                    "indexed": true,
                    "internalType": "address"
                }
            ],
            "anonymous": false
        },
        {
            "type": "error",
            "name": "InvalidInitialization",
            "inputs": []
        },
        {
            "type": "error",
            "name": "InvalidParameters",
            "inputs": []
        },
        {
            "type": "error",
            "name": "NotInitializing",
            "inputs": []
        },
        {
            "type": "error",
            "name": "OwnableInvalidOwner",
            "inputs": [
                {
                    "name": "owner",
                    "type": "address",
                    "internalType": "address"
                }
            ]
        },
        {
            "type": "error",
            "name": "OwnableUnauthorizedAccount",
            "inputs": [
                {
                    "name": "account",
                    "type": "address",
                    "internalType": "address"
                }
            ]
        },
        {
            "type": "error",
            "name": "StateAlreadyUpdated",
            "inputs": []
        },
        {
            "type": "error",
            "name": "WrapperNotAvailable",
            "inputs": []
        }
    ],
    "bytecode": {
        "object": "0x608060405234801561000f575f80fd5b50611c758061001d5f395ff3fe608060405234801561000f575f80fd5b50600436106100b1575f3560e01c80638da5cb5b1161006e5780638da5cb5b146101835780638f97acba146101b35780639498bd71146101c657806394f191c3146101d9578063cb8d653c146101f9578063f2fde38b1461020c575f80fd5b8063151086c3146100b55780632bbd59ca146100ca5780635e92c0e0146101015780636a55926b14610141578063715018a614610164578063799805971461016c575b5f80fd5b6100c86100c3366004611010565b61021f565b005b6100ec6100d8366004611081565b5f6020819052908152604090205460ff1681565b60405190151581526020015b60405180910390f35b61012961010f366004611081565b60016020525f90815260409020546001600160a01b031681565b6040516001600160a01b0390911681526020016100f8565b61015461014f366004611081565b6104d6565b6040516100f894939291906110e5565b6100c861058d565b61017560045481565b6040519081526020016100f8565b7f9016d09d72d40fdae2fd8ceac6b6234c7706214fd39c1cd1e609a0528c199300546001600160a01b0316610129565b6100c86101c136600461112d565b6105a0565b6100c86101d4366004611081565b6105d5565b6101ec6101e7366004611081565b6106e6565b6040516100f8919061119d565b6100c8610207366004611343565b6108ab565b6100c861021a366004611427565b610ad0565b82355f908152600160205260409020546001600160a01b031680610256576040516354b30cf360e11b815260040160405180910390fd5b5f846040516020016102689190611532565b60408051601f1981840301815291815281516020928301205f8181526002909352912054909150156102ad5760405163165f4e1360e31b815260040160405180910390fd5b6040516290dbd960e81b81526001600160a01b038316906390dbd900906102de908990859089908990600401611604565b5f604051808303815f87803b1580156102f5575f80fd5b505af1158015610307573d5f803e3d5ffd5b5050505f828152600260205260409020869150610324828261189b565b505f90506103ac610338602088018861162d565b808060200260200160405190810160405280939291908181526020018383602002808284375f9201919091525061037692505050608089018961162d565b808060200260200160405190810160405280939291908181526020018383602002808284375f92019190915250610b0d92505050565b90506001600160a01b038116156104cd575f6001600160a01b03821687356103da60808a0160608b01611427565b6103e760408b018b611686565b8b60a001356040516024016104009594939291906119b5565b60408051601f198184030181529181526020820180516001600160e01b0316631b908d5760e01b1790525161043591906119f1565b5f604051808303815f865af19150503d805f811461046e576040519150601f19603f3d011682016040523d82523d5f602084013e610473565b606091505b50509050806104cb576001600160a01b0382167f4897072d9871071be999d77763d358428c4fcb1b89c417f416e0854944db8a5b6104b460408a018a611686565b6040516104c2929190611a0c565b60405180910390a25b505b50505050505050565b600260208190525f9182526040909120805491810180546104f6906116c8565b80601f0160208091040260200160405190810160405280929190818152602001828054610522906116c8565b801561056d5780601f106105445761010080835404028352916020019161056d565b820191905f5260205f20905b81548152906001019060200180831161055057829003601f168201915b50505050600383015460059093015491926001600160a01b031691905084565b610595610bf5565b61059e5f610c50565b565b6105a8610bf5565b5f9182526001602052604090912080546001600160a01b0319166001600160a01b03909216919091179055565b7ff0c57e16840df040f15088dc2f81fe391c3923bec73e23a9662efc9c229c6a008054600160401b810460ff1615906001600160401b03165f811580156106195750825b90505f826001600160401b031660011480156106345750303b155b905081158015610642575080155b156106605760405163f92ee8a960e01b815260040160405180910390fd5b845467ffffffffffffffff19166001178555831561068a57845460ff60401b1916600160401b1785555b600486905561069833610cc0565b83156106de57845460ff60401b19168555604051600181527fc7f505b2f371ae2175ee4913f4499e1f2633a7b5936321eed1cdaeb6115181d29060200160405180910390a15b505050505050565b6107286040518060c001604052805f801916815260200160608152602001606081526020015f6001600160a01b03168152602001606081526020015f81525090565b5f82815260036020908152604091829020825160c081018452815481526001820180548551818602810186019096528086529194929385810193929083018282801561079157602002820191905f5260205f20905b81548152602001906001019080831161077d575b505050505081526020016002820180546107aa906116c8565b80601f01602080910402602001604051908101604052809291908181526020018280546107d6906116c8565b80156108215780601f106107f857610100808354040283529160200191610821565b820191905f5260205f20905b81548152906001019060200180831161080457829003601f168201915b505050918352505060038201546001600160a01b0316602080830191909152600483018054604080518285028101850182528281529401939283018282801561089157602002820191905f5260205f20905b81546001600160a01b03168152600190910190602001808311610873575b505050505081526020016005820154815250509050919050565b83518551146108cd57604051630e52390960e41b815260040160405180910390fd5b6108e685855f600189516108e19190611a27565b610cd1565b5f6040518060c00160405280600454815260200187815260200184848080601f0160208091040260200160405190810160405280939291908181526020018383808284375f92018290525093855250503360208085019190915260408085018b9052606090940189905292519394509092610964928592500161119d565b60408051601f1981840301815291815281516020928301205f8181529283905291205490915060ff16156109d65760405162461bcd60e51b815260206004820152601460248201527313595cdcd859d948185b1c9958591e481cd95b9d60621b60448201526064015b60405180910390fd5b5f81815260208181526040808320805460ff191660019081179091556003835292208451815584820151805186949293610a14938501920190610f1c565b5060408201516002820190610a299082611a3a565b5060608201516003820180546001600160a01b0319166001600160a01b0390921691909117905560808201518051610a6b916004840191602090910190610f65565b5060a08201518160050155905050336001600160a01b03166004547f58f2e975d76099ef17c6f5603a4c1a7dcdaa153e47be7e0f516772474a9474588987878b8b88604051610abf96959493929190611af5565b60405180910390a350505050505050565b610ad8610bf5565b6001600160a01b038116610b0157604051631e4fbdf760e01b81525f60048201526024016109cd565b610b0a81610c50565b50565b5f82515f03610b1d57505f610bef565b5f8060018551610b2d9190611a27565b90505b808213610be9575f6002610b448484611b6d565b610b4e9190611b93565b610b589084611bcb565b9050600454868281518110610b6f57610b6f611bf2565b602002602001015103610ba057848181518110610b8e57610b8e611bf2565b60200260200101519350505050610bef565b600454868281518110610bb557610bb5611bf2565b60200260200101511015610bd557610bce816001611bcb565b9250610be3565b610be0600182611b6d565b91505b50610b30565b5f925050505b92915050565b33610c277f9016d09d72d40fdae2fd8ceac6b6234c7706214fd39c1cd1e609a0528c199300546001600160a01b031690565b6001600160a01b03161461059e5760405163118cdaa760e01b81523360048201526024016109cd565b7f9016d09d72d40fdae2fd8ceac6b6234c7706214fd39c1cd1e609a0528c19930080546001600160a01b031981166001600160a01b03848116918217845560405192169182907f8be0079c531659141344cd1fd0a4f28419497f9722a3daafe3b4186f6b6457e0905f90a3505050565b610cc8610ecb565b610b0a81610f14565b8181808203610ce1575050610ec5565b5f866002610cef8787611b6d565b610cf99190611b93565b610d039087611bcb565b81518110610d1357610d13611bf2565b602002602001015190505b818313610e9d575b80878481518110610d3957610d39611bf2565b60200260200101511015610d595782610d5181611c06565b935050610d26565b868281518110610d6b57610d6b611bf2565b6020026020010151811015610d8c5781610d8481611c24565b925050610d59565b818313610e9857868281518110610da557610da5611bf2565b6020026020010151878481518110610dbf57610dbf611bf2565b6020026020010151888581518110610dd957610dd9611bf2565b60200260200101898581518110610df257610df2611bf2565b6020026020010182815250828152505050858281518110610e1557610e15611bf2565b6020026020010151868481518110610e2f57610e2f611bf2565b6020026020010151878581518110610e4957610e49611bf2565b60200260200101888581518110610e6257610e62611bf2565b6001600160a01b0393841660209182029290920101529116905282610e8681611c06565b9350508180610e9490611c24565b9250505b610d1e565b81851215610eb157610eb187878785610cd1565b838312156104cd576104cd87878587610cd1565b50505050565b7ff0c57e16840df040f15088dc2f81fe391c3923bec73e23a9662efc9c229c6a0054600160401b900460ff1661059e57604051631afcd79f60e31b815260040160405180910390fd5b610ad8610ecb565b828054828255905f5260205f20908101928215610f55579160200282015b82811115610f55578251825591602001919060010190610f3a565b50610f61929150610fb8565b5090565b828054828255905f5260205f20908101928215610f55579160200282015b82811115610f5557825182546001600160a01b0319166001600160a01b03909116178255602090920191600190910190610f83565b5b80821115610f61575f8155600101610fb9565b5f8083601f840112610fdc575f80fd5b5081356001600160401b03811115610ff2575f80fd5b602083019150836020828501011115611009575f80fd5b9250929050565b5f805f8060608587031215611023575f80fd5b8435935060208501356001600160401b0380821115611040575f80fd5b9086019060c08289031215611053575f80fd5b90935060408601359080821115611068575f80fd5b5061107587828801610fcc565b95989497509550505050565b5f60208284031215611091575f80fd5b5035919050565b5f5b838110156110b257818101518382015260200161109a565b50505f910152565b5f81518084526110d1816020860160208601611098565b601f01601f19169290920160200192915050565b848152608060208201525f6110fd60808301866110ba565b6001600160a01b03949094166040830152506060015292915050565b6001600160a01b0381168114610b0a575f80fd5b5f806040838503121561113e575f80fd5b82359150602083013561115081611119565b809150509250929050565b5f8151808452602080850194508084015f5b838110156111925781516001600160a01b03168752958201959082019060010161116d565b509495945050505050565b60208082528251828201528281015160c06040840152805160e084018190525f929182019083906101008601905b808310156111eb57835182529284019260019290920191908401906111cb565b5060408701519350601f1992508286820301606087015261120c81856110ba565b93505050606085015161122a60808601826001600160a01b03169052565b506080850151818584030160a0860152611244838261115b565b9250505060a084015160c08401528091505092915050565b634e487b7160e01b5f52604160045260245ffd5b604051601f8201601f191681016001600160401b03811182821017156112985761129861125c565b604052919050565b5f6001600160401b038211156112b8576112b861125c565b5060051b60200190565b80356112cd81611119565b919050565b5f82601f8301126112e1575f80fd5b813560206112f66112f1836112a0565b611270565b82815260059290921b84018101918181019086841115611314575f80fd5b8286015b8481101561133857803561132b81611119565b8352918301918301611318565b509695505050505050565b5f805f805f60808688031215611357575f80fd5b85356001600160401b038082111561136d575f80fd5b818801915088601f830112611380575f80fd5b813560206113906112f1836112a0565b82815260059290921b8401810191818101908c8411156113ae575f80fd5b948201945b838610156113cc578535825294820194908201906113b3565b995050890135925050808211156113e1575f80fd5b6113ed89838a016112d2565b9550604088013594506060880135915080821115611409575f80fd5b5061141688828901610fcc565b969995985093965092949392505050565b5f60208284031215611437575f80fd5b813561144281611119565b9392505050565b5f808335601e1984360301811261145e575f80fd5b83016020810192503590506001600160401b0381111561147c575f80fd5b8060051b3603821315611009575f80fd5b5f808335601e198436030181126114a2575f80fd5b83016020810192503590506001600160401b038111156114c0575f80fd5b803603821315611009575f80fd5b81835281816020850137505f828201602090810191909152601f909101601f19169091010190565b8183525f60208085019450825f5b8581101561119257813561151781611119565b6001600160a01b031687529582019590820190600101611504565b60208152813560208201525f61154b6020840184611449565b60c0604085015260e084018190526101006001600160fb1b0382111561156f575f80fd5b8160051b9150818382870137818501925061158d604087018761148d565b925060e08685030160608701526115a782850184836114ce565b93505050506115b8606085016112c2565b6001600160a01b0381166080850152506115d56080850185611449565b848303601f190160a08601526115ec8382846114f6565b9250505060a084013560c08401528091505092915050565b848152836020820152606060408201525f6116236060830184866114ce565b9695505050505050565b5f808335601e19843603018112611642575f80fd5b8301803591506001600160401b0382111561165b575f80fd5b6020019150600581901b3603821315611009575f80fd5b634e487b7160e01b5f52601160045260245ffd5b5f808335601e1984360301811261169b575f80fd5b8301803591506001600160401b038211156116b4575f80fd5b602001915036819003821315611009575f80fd5b600181811c908216806116dc57607f821691505b6020821081036116fa57634e487b7160e01b5f52602260045260245ffd5b50919050565b5b81811015611714575f8155600101611701565b5050565b601f82111561175257805f5260205f20601f840160051c8101602085101561173d5750805b61174f601f850160051c830182611700565b50505b505050565b6001600160401b0383111561176e5761176e61125c565b6117828361177c83546116c8565b83611718565b5f601f8411600181146117b3575f851561179c5750838201355b5f19600387901b1c1916600186901b17835561174f565b5f83815260209020601f19861690835b828110156117e357868501358255602094850194600190920191016117c3565b50868210156117ff575f1960f88860031b161c19848701351681555b505060018560011b0183555050505050565b5f8135610bef81611119565b6001600160401b038311156118345761183461125c565b600160401b8311156118485761184861125c565b80548382558084101561186c57815f5260205f2061186a828201868301611700565b505b5081815f526020805f205f5b868110156104cd57833561188b81611119565b8282015592820192600101611878565b81358155600180820160206118b28186018661162d565b6001600160401b038111156118c9576118c961125c565b600160401b8111156118dd576118dd61125c565b835481855580821015611910575f8581528481208381019083015b8082101561190c57828255908801906118f8565b5050505b505f93845260208420935b818110156119345782358582015591830191850161191b565b5050505050506119476040830183611686565b611955818360028601611757565b505061198a61196660608401611811565b6003830180546001600160a01b0319166001600160a01b0392909216919091179055565b611997608083018361162d565b6119a581836004860161181d565b505060a082013560058201555050565b8581526001600160a01b03851660208201526080604082018190525f906119df90830185876114ce565b90508260608301529695505050505050565b5f8251611a02818460208701611098565b9190910192915050565b602081525f611a1f6020830184866114ce565b949350505050565b81810381811115610bef57610bef611672565b81516001600160401b03811115611a5357611a5361125c565b611a6781611a6184546116c8565b84611718565b602080601f831160018114611a9a575f8415611a835750858301515b5f19600386901b1c1916600185901b1785556106de565b5f85815260208120601f198616915b82811015611ac857888601518255948401946001909101908401611aa9565b5085821015611ae557878501515f19600388901b60f8161c191681555b5050505050600190811b01905550565b60a080825287519082018190525f9060209060c0840190828b01845b82811015611b2d57815184529284019290840190600101611b11565b50505083810382850152611b4281898b6114ce565b9150508281036040840152611b57818761115b565b6060840195909552505060800152949350505050565b8181035f831280158383131683831282161715611b8c57611b8c611672565b5092915050565b5f82611bad57634e487b7160e01b5f52601260045260245ffd5b600160ff1b82145f1984141615611bc657611bc6611672565b500590565b8082018281125f831280158216821582161715611bea57611bea611672565b505092915050565b634e487b7160e01b5f52603260045260245ffd5b5f6001600160ff1b018201611c1d57611c1d611672565b5060010190565b5f600160ff1b8201611c3857611c38611672565b505f19019056fea26469706673582212209a1820c4bcde6e64f8366208346a037a03985710fa8bac201a37b7e61669633e64736f6c63430008150033",
        "linkReferences": {}
    },
    "methodIdentifiers": {
        "addOrUpdateWrapper(bytes32,address)": "8f97acba",
        "getSendMessageDetails(bytes32)": "94f191c3",
        "initialize(bytes32)": "9498bd71",
        "messages(bytes32)": "2bbd59ca",
        "nexusAppID()": "79980597",
        "owner()": "8da5cb5b",
        "receiveMessage(uint256,(bytes32,bytes32[],bytes,address,address[],uint256),bytes)": "151086c3",
        "renounceOwnership()": "715018a6",
        "sendMessage(bytes32[],address[],uint256,bytes)": "cb8d653c",
        "transferOwnership(address)": "f2fde38b",
        "verifiedReceipts(bytes32)": "6a55926b",
        "verifierWrappers(bytes32)": "5e92c0e0"
    },
    "id": 23
}