{"abi":[{"type":"constructor","inputs":[{"name":"_selfChainId","type":"bytes32","internalType":"bytes32"},{"name":"_paymentChainID","type":"bytes32","internalType":"bytes32"},{"name":"nexusManager","type":"address","internalType":"contract INexusProofManager"},{"name":"targetContract","type":"address","internalType":"address"}],"stateMutability":"nonpayable"},{"type":"function","name":"approve","inputs":[{"name":"to","type":"address","internalType":"address"},{"name":"tokenId","type":"uint256","internalType":"uint256"}],"outputs":[],"stateMutability":"nonpayable"},{"type":"function","name":"balanceOf","inputs":[{"name":"owner","type":"address","internalType":"address"}],"outputs":[{"name":"","type":"uint256","internalType":"uint256"}],"stateMutability":"view"},{"type":"function","name":"getApproved","inputs":[{"name":"tokenId","type":"uint256","internalType":"uint256"}],"outputs":[{"name":"","type":"address","internalType":"address"}],"stateMutability":"view"},{"type":"function","name":"isApprovedForAll","inputs":[{"name":"owner","type":"address","internalType":"address"},{"name":"operator","type":"address","internalType":"address"}],"outputs":[{"name":"","type":"bool","internalType":"bool"}],"stateMutability":"view"},{"type":"function","name":"mintNFT","inputs":[{"name":"recipient","type":"address","internalType":"address"},{"name":"message","type":"tuple","internalType":"struct MyNFT.Message","components":[{"name":"messageType","type":"bytes1","internalType":"bytes1"},{"name":"from","type":"bytes32","internalType":"bytes32"},{"name":"data","type":"bytes","internalType":"bytes"},{"name":"messageId","type":"uint256","internalType":"uint256"},{"name":"chainId","type":"uint256","internalType":"uint256"}]},{"name":"paymentChainBlockNumber","type":"bytes32","internalType":"bytes32"},{"name":"accountTrieProof","type":"bytes","internalType":"bytes"},{"name":"slot","type":"bytes32","internalType":"bytes32"},{"name":"storageSlotTrieProof","type":"bytes","internalType":"bytes"}],"outputs":[{"name":"","type":"uint256","internalType":"uint256"}],"stateMutability":"nonpayable"},{"type":"function","name":"name","inputs":[],"outputs":[{"name":"","type":"string","internalType":"string"}],"stateMutability":"view"},{"type":"function","name":"nexus","inputs":[],"outputs":[{"name":"","type":"address","internalType":"contract INexusProofManager"}],"stateMutability":"view"},{"type":"function","name":"ownerOf","inputs":[{"name":"tokenId","type":"uint256","internalType":"uint256"}],"outputs":[{"name":"","type":"address","internalType":"address"}],"stateMutability":"view"},{"type":"function","name":"safeTransferFrom","inputs":[{"name":"from","type":"address","internalType":"address"},{"name":"to","type":"address","internalType":"address"},{"name":"tokenId","type":"uint256","internalType":"uint256"}],"outputs":[],"stateMutability":"nonpayable"},{"type":"function","name":"safeTransferFrom","inputs":[{"name":"from","type":"address","internalType":"address"},{"name":"to","type":"address","internalType":"address"},{"name":"tokenId","type":"uint256","internalType":"uint256"},{"name":"data","type":"bytes","internalType":"bytes"}],"outputs":[],"stateMutability":"nonpayable"},{"type":"function","name":"setApprovalForAll","inputs":[{"name":"operator","type":"address","internalType":"address"},{"name":"approved","type":"bool","internalType":"bool"}],"outputs":[],"stateMutability":"nonpayable"},{"type":"function","name":"supportsInterface","inputs":[{"name":"interfaceId","type":"bytes4","internalType":"bytes4"}],"outputs":[{"name":"","type":"bool","internalType":"bool"}],"stateMutability":"view"},{"type":"function","name":"symbol","inputs":[],"outputs":[{"name":"","type":"string","internalType":"string"}],"stateMutability":"view"},{"type":"function","name":"tokenURI","inputs":[{"name":"tokenId","type":"uint256","internalType":"uint256"}],"outputs":[{"name":"","type":"string","internalType":"string"}],"stateMutability":"view"},{"type":"function","name":"transferFrom","inputs":[{"name":"from","type":"address","internalType":"address"},{"name":"to","type":"address","internalType":"address"},{"name":"tokenId","type":"uint256","internalType":"uint256"}],"outputs":[],"stateMutability":"nonpayable"},{"type":"function","name":"updateTargetContract","inputs":[{"name":"addr","type":"address","internalType":"address"}],"outputs":[],"stateMutability":"nonpayable"},{"type":"function","name":"verifyPayment","inputs":[{"name":"paymentChainBlockNumber","type":"bytes32","internalType":"bytes32"},{"name":"accountTrieProof","type":"bytes","internalType":"bytes"},{"name":"slot","type":"bytes32","internalType":"bytes32"},{"name":"storageSlotTrieProof","type":"bytes","internalType":"bytes"}],"outputs":[],"stateMutability":"nonpayable"},{"type":"event","name":"Approval","inputs":[{"name":"owner","type":"address","indexed":true,"internalType":"address"},{"name":"approved","type":"address","indexed":true,"internalType":"address"},{"name":"tokenId","type":"uint256","indexed":true,"internalType":"uint256"}],"anonymous":false},{"type":"event","name":"ApprovalForAll","inputs":[{"name":"owner","type":"address","indexed":true,"internalType":"address"},{"name":"operator","type":"address","indexed":true,"internalType":"address"},{"name":"approved","type":"bool","indexed":false,"internalType":"bool"}],"anonymous":false},{"type":"event","name":"Confirmation","inputs":[{"name":"id","type":"uint256","indexed":false,"internalType":"uint256"}],"anonymous":false},{"type":"event","name":"Transfer","inputs":[{"name":"from","type":"address","indexed":true,"internalType":"address"},{"name":"to","type":"address","indexed":true,"internalType":"address"},{"name":"tokenId","type":"uint256","indexed":true,"internalType":"uint256"}],"anonymous":false},{"type":"error","name":"ERC721IncorrectOwner","inputs":[{"name":"sender","type":"address","internalType":"address"},{"name":"tokenId","type":"uint256","internalType":"uint256"},{"name":"owner","type":"address","internalType":"address"}]},{"type":"error","name":"ERC721InsufficientApproval","inputs":[{"name":"operator","type":"address","internalType":"address"},{"name":"tokenId","type":"uint256","internalType":"uint256"}]},{"type":"error","name":"ERC721InvalidApprover","inputs":[{"name":"approver","type":"address","internalType":"address"}]},{"type":"error","name":"ERC721InvalidOperator","inputs":[{"name":"operator","type":"address","internalType":"address"}]},{"type":"error","name":"ERC721InvalidOwner","inputs":[{"name":"owner","type":"address","internalType":"address"}]},{"type":"error","name":"ERC721InvalidReceiver","inputs":[{"name":"receiver","type":"address","internalType":"address"}]},{"type":"error","name":"ERC721InvalidSender","inputs":[{"name":"sender","type":"address","internalType":"address"}]},{"type":"error","name":"ERC721NonexistentToken","inputs":[{"name":"tokenId","type":"uint256","internalType":"uint256"}]}],"bytecode":{"object":"0x60c06040523480156200001157600080fd5b5060405162001906380380620019068339810160408190526200003491620000e8565b60405180604001604052806005815260200164135e53919560da1b815250604051806040016040528060048152602001631353919560e21b8152508160009081620000809190620001dd565b5060016200008f8282620001dd565b5050600980546001600160a01b03199081166001600160a01b03958616179091556080959095525060a092909252600a80549093169116179055620002a9565b6001600160a01b0381168114620000e557600080fd5b50565b60008060008060808587031215620000ff57600080fd5b845193506020850151925060408501516200011a81620000cf565b60608601519092506200012d81620000cf565b939692955090935050565b634e487b7160e01b600052604160045260246000fd5b600181811c908216806200016357607f821691505b6020821081036200018457634e487b7160e01b600052602260045260246000fd5b50919050565b601f821115620001d857600081815260208120601f850160051c81016020861015620001b35750805b601f850160051c820191505b81811015620001d457828155600101620001bf565b5050505b505050565b81516001600160401b03811115620001f957620001f962000138565b62000211816200020a84546200014e565b846200018a565b602080601f831160018114620002495760008415620002305750858301515b600019600386901b1c1916600185901b178555620001d4565b600085815260208120601f198616915b828110156200027a5788860151825594840194600190910190840162000259565b5085821015620002995787850151600019600388901b60f8161c191681555b5050505050600190811b01905550565b60805160a05161163d620002c9600039600050506000505061163d6000f3fe608060405234801561001057600080fd5b506004361061010b5760003560e01c806395d89b41116100a2578063b88d4fde11610071578063b88d4fde14610228578063c2be06871461023b578063c6e5b7701461024e578063c87b56dd1461027e578063e985e9c51461029157600080fd5b806395d89b41146101e7578063a22cb465146101ef578063a3f5c1d214610202578063ae7b25961461021557600080fd5b806323b872dd116100de57806323b872dd1461018d57806342842e0e146101a05780636352211e146101b357806370a08231146101c657600080fd5b806301ffc9a71461011057806306fdde0314610138578063081812fc1461014d578063095ea7b314610178575b600080fd5b61012361011e366004610fb4565b6102a4565b60405190151581526020015b60405180910390f35b6101406102f6565b60405161012f9190611021565b61016061015b366004611034565b610388565b6040516001600160a01b03909116815260200161012f565b61018b610186366004611062565b6103b1565b005b61018b61019b36600461108e565b6103c0565b61018b6101ae36600461108e565b610450565b6101606101c1366004611034565b610470565b6101d96101d43660046110cf565b61047b565b60405190815260200161012f565b6101406104c3565b61018b6101fd3660046110ec565b6104d2565b600954610160906001600160a01b031681565b61018b610223366004611173565b6104dd565b61018b61023636600461120c565b6106be565b6101d96102493660046112ec565b6106d5565b61018b61025c3660046110cf565b600a80546001600160a01b0319166001600160a01b0392909216919091179055565b61014061028c366004611034565b610851565b61012361029f3660046113ae565b6108c6565b60006001600160e01b031982166380ac58cd60e01b14806102d557506001600160e01b03198216635b5e139f60e01b145b806102f057506301ffc9a760e01b6001600160e01b03198316145b92915050565b606060008054610305906113dc565b80601f0160208091040260200160405190810160405280929190818152602001828054610331906113dc565b801561037e5780601f106103535761010080835404028352916020019161037e565b820191906000526020600020905b81548152906001019060200180831161036157829003601f168201915b5050505050905090565b6000610393826108f4565b506000828152600460205260409020546001600160a01b03166102f0565b6103bc82823361092d565b5050565b6001600160a01b0382166103ef57604051633250574960e11b8152600060048201526024015b60405180910390fd5b60006103fc83833361093a565b9050836001600160a01b0316816001600160a01b03161461044a576040516364283d7b60e01b81526001600160a01b03808616600483015260248201849052821660448201526064016103e6565b50505050565b61046b838383604051806020016040528060008152506106be565b505050565b60006102f0826108f4565b60006001600160a01b0382166104a7576040516322718ad960e21b8152600060048201526024016103e6565b506001600160a01b031660009081526003602052604090205490565b606060018054610305906113dc565b6103bc338383610a33565b60095460405163266218bb60e21b815260006004820181905260248201899052916001600160a01b03169063998862ec906044016020604051808303816000875af1158015610530573d6000803e3d6000fd5b505050506040513d601f19601f820116820180604052508101906105549190611416565b600954600a54604051637f1b8c7360e01b81529293506000926001600160a01b0392831692637f1b8c73926105949287928d928d92911690600401611458565b608060405180830381865afa1580156105b1573d6000803e3d6000fd5b505050506040513d601f19601f820116820180604052508101906105d5919061148b565b93505050507f56e81f171bcc55a6ff8345e692c0f86e5b48e01b996cadc001622fb5e363b42160001b810361063c5760405162461bcd60e51b815260206004820152600d60248201526c696e76616c696420656e74727960981b60448201526064016103e6565b600954604051631bdc25b760e21b81526001600160a01b0390911690636f7096dc906106729084908990899089906004016114c1565b602060405180830381865afa15801561068f573d6000803e3d6000fd5b505050506040513d601f19601f820116820180604052508101906106b39190611416565b505050505050505050565b6106c98484846103c0565b61044a84848484610ad2565b606087013560009081526007602052604081205460ff166107385760405162461bcd60e51b815260206004820152601b60248201527f4d65737361676520696420616c7265616479206469676573746564000000000060448201526064016103e6565b6107468787878787876104dd565b600061075560408a018a6114eb565b8101906107629190611532565b505090506001600860008282546107799190611567565b909155505060085461078b8b82610bfb565b604080516060808201835260018083528d82013560208085018281526001600160a01b0389811687890190815288518085018790529251838a01525116818601528651808203909501855260808101808852855195830195909520600089815260068452888120829055938452600790925295909120805460ff19169092179091559084905290917fc4d7daffa2b56ed83b9eeed8b11ed4b61efc7165094728b70738f55ce47fb9519060a00160405180910390a150909b9a5050505050505050505050565b606061085c826108f4565b50600061087460408051602081019091526000815290565b9050600081511161089457604051806020016040528060008152506108bf565b8061089e84610c60565b6040516020016108af929190611588565b6040516020818303038152906040525b9392505050565b6001600160a01b03918216600090815260056020908152604080832093909416825291909152205460ff1690565b6000818152600260205260408120546001600160a01b0316806102f057604051637e27328960e01b8152600481018490526024016103e6565b61046b8383836001610cf3565b6000828152600260205260408120546001600160a01b039081169083161561096757610967818486610df9565b6001600160a01b038116156109a557610984600085600080610cf3565b6001600160a01b038116600090815260036020526040902080546000190190555b6001600160a01b038516156109d4576001600160a01b0385166000908152600360205260409020805460010190555b60008481526002602052604080822080546001600160a01b0319166001600160a01b0389811691821790925591518793918516917fddf252ad1be2c89b69c2b068fc378daa952ba7f163c4a11628f55a4df523b3ef91a4949350505050565b6001600160a01b038216610a6557604051630b61174360e31b81526001600160a01b03831660048201526024016103e6565b6001600160a01b03838116600081815260056020908152604080832094871680845294825291829020805460ff191686151590811790915591519182527f17307eab39ab6107e8899845ad3d59bd9653f200f220920489ca2b5937696c31910160405180910390a3505050565b6001600160a01b0383163b1561044a57604051630a85bd0160e11b81526001600160a01b0384169063150b7a0290610b149033908890879087906004016115b7565b6020604051808303816000875af1925050508015610b4f575060408051601f3d908101601f19168201909252610b4c918101906115ea565b60015b610bb8573d808015610b7d576040519150601f19603f3d011682016040523d82523d6000602084013e610b82565b606091505b508051600003610bb057604051633250574960e11b81526001600160a01b03851660048201526024016103e6565b805181602001fd5b6001600160e01b03198116630a85bd0160e11b14610bf457604051633250574960e11b81526001600160a01b03851660048201526024016103e6565b5050505050565b6001600160a01b038216610c2557604051633250574960e11b8152600060048201526024016103e6565b6000610c338383600061093a565b90506001600160a01b0381161561046b576040516339e3563760e11b8152600060048201526024016103e6565b60606000610c6d83610e5d565b600101905060008167ffffffffffffffff811115610c8d57610c8d6111f6565b6040519080825280601f01601f191660200182016040528015610cb7576020820181803683370190505b5090508181016020015b600019016f181899199a1a9b1b9c1cb0b131b232b360811b600a86061a8153600a8504945084610cc157509392505050565b8080610d0757506001600160a01b03821615155b15610dc9576000610d17846108f4565b90506001600160a01b03831615801590610d435750826001600160a01b0316816001600160a01b031614155b8015610d565750610d5481846108c6565b155b15610d7f5760405163a9fbf51f60e01b81526001600160a01b03841660048201526024016103e6565b8115610dc75783856001600160a01b0316826001600160a01b03167f8c5be1e5ebec7d5bd14f71427d1e84f3dd0314c0f7b2291e5b200ac8c7c3b92560405160405180910390a45b505b5050600090815260046020526040902080546001600160a01b0319166001600160a01b0392909216919091179055565b610e04838383610f35565b61046b576001600160a01b038316610e3257604051637e27328960e01b8152600481018290526024016103e6565b60405163177e802f60e01b81526001600160a01b0383166004820152602481018290526044016103e6565b60008072184f03e93ff9f4daa797ed6e38ed64bf6a1f0160401b8310610e9c5772184f03e93ff9f4daa797ed6e38ed64bf6a1f0160401b830492506040015b6d04ee2d6d415b85acef81000000008310610ec8576d04ee2d6d415b85acef8100000000830492506020015b662386f26fc100008310610ee657662386f26fc10000830492506010015b6305f5e1008310610efe576305f5e100830492506008015b6127108310610f1257612710830492506004015b60648310610f24576064830492506002015b600a83106102f05760010192915050565b60006001600160a01b03831615801590610f935750826001600160a01b0316846001600160a01b03161480610f6f5750610f6f84846108c6565b80610f9357506000828152600460205260409020546001600160a01b038481169116145b949350505050565b6001600160e01b031981168114610fb157600080fd5b50565b600060208284031215610fc657600080fd5b81356108bf81610f9b565b60005b83811015610fec578181015183820152602001610fd4565b50506000910152565b6000815180845261100d816020860160208601610fd1565b601f01601f19169290920160200192915050565b6020815260006108bf6020830184610ff5565b60006020828403121561104657600080fd5b5035919050565b6001600160a01b0381168114610fb157600080fd5b6000806040838503121561107557600080fd5b82356110808161104d565b946020939093013593505050565b6000806000606084860312156110a357600080fd5b83356110ae8161104d565b925060208401356110be8161104d565b929592945050506040919091013590565b6000602082840312156110e157600080fd5b81356108bf8161104d565b600080604083850312156110ff57600080fd5b823561110a8161104d565b91506020830135801515811461111f57600080fd5b809150509250929050565b60008083601f84011261113c57600080fd5b50813567ffffffffffffffff81111561115457600080fd5b60208301915083602082850101111561116c57600080fd5b9250929050565b6000806000806000806080878903121561118c57600080fd5b86359550602087013567ffffffffffffffff808211156111ab57600080fd5b6111b78a838b0161112a565b90975095506040890135945060608901359150808211156111d757600080fd5b506111e489828a0161112a565b979a9699509497509295939492505050565b634e487b7160e01b600052604160045260246000fd5b6000806000806080858703121561122257600080fd5b843561122d8161104d565b9350602085013561123d8161104d565b925060408501359150606085013567ffffffffffffffff8082111561126157600080fd5b818701915087601f83011261127557600080fd5b813581811115611287576112876111f6565b604051601f8201601f19908116603f011681019083821181831017156112af576112af6111f6565b816040528281528a60208487010111156112c857600080fd5b82602086016020830137600060208483010152809550505050505092959194509250565b60008060008060008060008060c0898b03121561130857600080fd5b88356113138161104d565b9750602089013567ffffffffffffffff8082111561133057600080fd5b908a019060a0828d03121561134457600080fd5b90975060408a0135965060608a0135908082111561136157600080fd5b61136d8c838d0161112a565b909750955060808b0135945060a08b013591508082111561138d57600080fd5b5061139a8b828c0161112a565b999c989b5096995094979396929594505050565b600080604083850312156113c157600080fd5b82356113cc8161104d565b9150602083013561111f8161104d565b600181811c908216806113f057607f821691505b60208210810361141057634e487b7160e01b600052602260045260246000fd5b50919050565b60006020828403121561142857600080fd5b5051919050565b81835281816020850137506000828201602090810191909152601f909101601f19169091010190565b84815260606020820152600061147260608301858761142f565b905060018060a01b038316604083015295945050505050565b600080600080608085870312156114a157600080fd5b505082516020840151604085015160609095015191969095509092509050565b8481528360208201526060604082015260006114e160608301848661142f565b9695505050505050565b6000808335601e1984360301811261150257600080fd5b83018035915067ffffffffffffffff82111561151d57600080fd5b60200191503681900382131561116c57600080fd5b60008060006060848603121561154757600080fd5b83356115528161104d565b95602085013595506040909401359392505050565b808201808211156102f057634e487b7160e01b600052601160045260246000fd5b6000835161159a818460208801610fd1565b8351908301906115ae818360208801610fd1565b01949350505050565b6001600160a01b03858116825284166020820152604081018390526080606082018190526000906114e190830184610ff5565b6000602082840312156115fc57600080fd5b81516108bf81610f9b56fea2646970667358221220b99ac51fe8d56a91c1f44cade57a282a943162d0f27f6aef2975a71b9e1b3d3264736f6c63430008140033","linkReferences":{}},"methodIdentifiers":{"approve(address,uint256)":"095ea7b3","balanceOf(address)":"70a08231","getApproved(uint256)":"081812fc","isApprovedForAll(address,address)":"e985e9c5","mintNFT(address,(bytes1,bytes32,bytes,uint256,uint256),bytes32,bytes,bytes32,bytes)":"c2be0687","name()":"06fdde03","nexus()":"a3f5c1d2","ownerOf(uint256)":"6352211e","safeTransferFrom(address,address,uint256)":"42842e0e","safeTransferFrom(address,address,uint256,bytes)":"b88d4fde","setApprovalForAll(address,bool)":"a22cb465","supportsInterface(bytes4)":"01ffc9a7","symbol()":"95d89b41","tokenURI(uint256)":"c87b56dd","transferFrom(address,address,uint256)":"23b872dd","updateTargetContract(address)":"c6e5b770","verifyPayment(bytes32,bytes,bytes32,bytes)":"ae7b2596"},"id":10}