{"abi":[{"type":"constructor","inputs":[{"name":"_selfChainId","type":"bytes32","internalType":"bytes32"},{"name":"_paymentChainID","type":"bytes32","internalType":"bytes32"},{"name":"nexusManager","type":"address","internalType":"contract INexusProofManager"},{"name":"_storageProof","type":"address","internalType":"contract StorageProofVerifier"}],"stateMutability":"nonpayable"},{"type":"function","name":"approve","inputs":[{"name":"to","type":"address","internalType":"address"},{"name":"tokenId","type":"uint256","internalType":"uint256"}],"outputs":[],"stateMutability":"nonpayable"},{"type":"function","name":"balanceOf","inputs":[{"name":"owner","type":"address","internalType":"address"}],"outputs":[{"name":"","type":"uint256","internalType":"uint256"}],"stateMutability":"view"},{"type":"function","name":"getApproved","inputs":[{"name":"tokenId","type":"uint256","internalType":"uint256"}],"outputs":[{"name":"","type":"address","internalType":"address"}],"stateMutability":"view"},{"type":"function","name":"isApprovedForAll","inputs":[{"name":"owner","type":"address","internalType":"address"},{"name":"operator","type":"address","internalType":"address"}],"outputs":[{"name":"","type":"bool","internalType":"bool"}],"stateMutability":"view"},{"type":"function","name":"mintNFT","inputs":[{"name":"recipient","type":"address","internalType":"address"},{"name":"message","type":"tuple","internalType":"struct MyNFT.Message","components":[{"name":"messageType","type":"bytes1","internalType":"bytes1"},{"name":"from","type":"bytes32","internalType":"bytes32"},{"name":"data","type":"bytes","internalType":"bytes"},{"name":"messageId","type":"uint256","internalType":"uint256"},{"name":"chainId","type":"uint256","internalType":"uint256"}]},{"name":"storageSlotTrieProof","type":"tuple","internalType":"struct StorageProof","components":[{"name":"metadata","type":"tuple","internalType":"struct BatchMetadata","components":[{"name":"batchNumber","type":"uint64","internalType":"uint64"},{"name":"indexRepeatedStorageChanges","type":"uint64","internalType":"uint64"},{"name":"numberOfLayer1Txs","type":"uint256","internalType":"uint256"},{"name":"priorityOperationsHash","type":"bytes32","internalType":"bytes32"},{"name":"l2LogsTreeRoot","type":"bytes32","internalType":"bytes32"},{"name":"timestamp","type":"uint256","internalType":"uint256"},{"name":"commitment","type":"bytes32","internalType":"bytes32"}]},{"name":"account","type":"address","internalType":"address"},{"name":"key","type":"uint256","internalType":"uint256"},{"name":"value","type":"bytes32","internalType":"bytes32"},{"name":"path","type":"bytes32[]","internalType":"bytes32[]"},{"name":"index","type":"uint64","internalType":"uint64"}]}],"outputs":[{"name":"","type":"uint256","internalType":"uint256"}],"stateMutability":"nonpayable"},{"type":"function","name":"name","inputs":[],"outputs":[{"name":"","type":"string","internalType":"string"}],"stateMutability":"view"},{"type":"function","name":"nexus","inputs":[],"outputs":[{"name":"","type":"address","internalType":"contract INexusProofManager"}],"stateMutability":"view"},{"type":"function","name":"ownerOf","inputs":[{"name":"tokenId","type":"uint256","internalType":"uint256"}],"outputs":[{"name":"","type":"address","internalType":"address"}],"stateMutability":"view"},{"type":"function","name":"safeTransferFrom","inputs":[{"name":"from","type":"address","internalType":"address"},{"name":"to","type":"address","internalType":"address"},{"name":"tokenId","type":"uint256","internalType":"uint256"}],"outputs":[],"stateMutability":"nonpayable"},{"type":"function","name":"safeTransferFrom","inputs":[{"name":"from","type":"address","internalType":"address"},{"name":"to","type":"address","internalType":"address"},{"name":"tokenId","type":"uint256","internalType":"uint256"},{"name":"data","type":"bytes","internalType":"bytes"}],"outputs":[],"stateMutability":"nonpayable"},{"type":"function","name":"setApprovalForAll","inputs":[{"name":"operator","type":"address","internalType":"address"},{"name":"approved","type":"bool","internalType":"bool"}],"outputs":[],"stateMutability":"nonpayable"},{"type":"function","name":"storageProof","inputs":[],"outputs":[{"name":"","type":"address","internalType":"contract StorageProofVerifier"}],"stateMutability":"view"},{"type":"function","name":"supportsInterface","inputs":[{"name":"interfaceId","type":"bytes4","internalType":"bytes4"}],"outputs":[{"name":"","type":"bool","internalType":"bool"}],"stateMutability":"view"},{"type":"function","name":"symbol","inputs":[],"outputs":[{"name":"","type":"string","internalType":"string"}],"stateMutability":"view"},{"type":"function","name":"tokenURI","inputs":[{"name":"tokenId","type":"uint256","internalType":"uint256"}],"outputs":[{"name":"","type":"string","internalType":"string"}],"stateMutability":"view"},{"type":"function","name":"transferFrom","inputs":[{"name":"from","type":"address","internalType":"address"},{"name":"to","type":"address","internalType":"address"},{"name":"tokenId","type":"uint256","internalType":"uint256"}],"outputs":[],"stateMutability":"nonpayable"},{"type":"function","name":"verifyPayment","inputs":[{"name":"storageSlotTrieProof","type":"tuple","internalType":"struct StorageProof","components":[{"name":"metadata","type":"tuple","internalType":"struct BatchMetadata","components":[{"name":"batchNumber","type":"uint64","internalType":"uint64"},{"name":"indexRepeatedStorageChanges","type":"uint64","internalType":"uint64"},{"name":"numberOfLayer1Txs","type":"uint256","internalType":"uint256"},{"name":"priorityOperationsHash","type":"bytes32","internalType":"bytes32"},{"name":"l2LogsTreeRoot","type":"bytes32","internalType":"bytes32"},{"name":"timestamp","type":"uint256","internalType":"uint256"},{"name":"commitment","type":"bytes32","internalType":"bytes32"}]},{"name":"account","type":"address","internalType":"address"},{"name":"key","type":"uint256","internalType":"uint256"},{"name":"value","type":"bytes32","internalType":"bytes32"},{"name":"path","type":"bytes32[]","internalType":"bytes32[]"},{"name":"index","type":"uint64","internalType":"uint64"}]}],"outputs":[],"stateMutability":"view"},{"type":"event","name":"Approval","inputs":[{"name":"owner","type":"address","indexed":true,"internalType":"address"},{"name":"approved","type":"address","indexed":true,"internalType":"address"},{"name":"tokenId","type":"uint256","indexed":true,"internalType":"uint256"}],"anonymous":false},{"type":"event","name":"ApprovalForAll","inputs":[{"name":"owner","type":"address","indexed":true,"internalType":"address"},{"name":"operator","type":"address","indexed":true,"internalType":"address"},{"name":"approved","type":"bool","indexed":false,"internalType":"bool"}],"anonymous":false},{"type":"event","name":"Confirmation","inputs":[{"name":"id","type":"uint256","indexed":false,"internalType":"uint256"}],"anonymous":false},{"type":"event","name":"Transfer","inputs":[{"name":"from","type":"address","indexed":true,"internalType":"address"},{"name":"to","type":"address","indexed":true,"internalType":"address"},{"name":"tokenId","type":"uint256","indexed":true,"internalType":"uint256"}],"anonymous":false},{"type":"error","name":"ERC721IncorrectOwner","inputs":[{"name":"sender","type":"address","internalType":"address"},{"name":"tokenId","type":"uint256","internalType":"uint256"},{"name":"owner","type":"address","internalType":"address"}]},{"type":"error","name":"ERC721InsufficientApproval","inputs":[{"name":"operator","type":"address","internalType":"address"},{"name":"tokenId","type":"uint256","internalType":"uint256"}]},{"type":"error","name":"ERC721InvalidApprover","inputs":[{"name":"approver","type":"address","internalType":"address"}]},{"type":"error","name":"ERC721InvalidOperator","inputs":[{"name":"operator","type":"address","internalType":"address"}]},{"type":"error","name":"ERC721InvalidOwner","inputs":[{"name":"owner","type":"address","internalType":"address"}]},{"type":"error","name":"ERC721InvalidReceiver","inputs":[{"name":"receiver","type":"address","internalType":"address"}]},{"type":"error","name":"ERC721InvalidSender","inputs":[{"name":"sender","type":"address","internalType":"address"}]},{"type":"error","name":"ERC721NonexistentToken","inputs":[{"name":"tokenId","type":"uint256","internalType":"uint256"}]}],"bytecode":{"object":"0x60c06040523480156200001157600080fd5b50604051620017ee380380620017ee8339810160408190526200003491620000e8565b60405180604001604052806005815260200164135e53919560da1b815250604051806040016040528060048152602001631353919560e21b8152508160009081620000809190620001dd565b5060016200008f8282620001dd565b5050600980546001600160a01b03199081166001600160a01b03958616179091556080959095525060a092909252600a80549093169116179055620002a9565b6001600160a01b0381168114620000e557600080fd5b50565b60008060008060808587031215620000ff57600080fd5b845193506020850151925060408501516200011a81620000cf565b60608601519092506200012d81620000cf565b939692955090935050565b634e487b7160e01b600052604160045260246000fd5b600181811c908216806200016357607f821691505b6020821081036200018457634e487b7160e01b600052602260045260246000fd5b50919050565b601f821115620001d857600081815260208120601f850160051c81016020861015620001b35750805b601f850160051c820191505b81811015620001d457828155600101620001bf565b5050505b505050565b81516001600160401b03811115620001f957620001f962000138565b62000211816200020a84546200014e565b846200018a565b602080601f831160018114620002495760008415620002305750858301515b600019600386901b1c1916600185901b178555620001d4565b600085815260208120601f198616915b828110156200027a5788860151825594840194600190910190840162000259565b5085821015620002995787850151600019600388901b60f8161c191681555b5050505050600190811b01905550565b60805160a051611525620002c960003960005050600050506115256000f3fe608060405234801561001057600080fd5b506004361061010b5760003560e01c806395d89b41116100a2578063b55b214c11610071578063b55b214c14610228578063b88d4fde1461023b578063c87b56dd1461024e578063e985e9c514610261578063ffa6f7c91461027457600080fd5b806395d89b41146101e7578063a22cb465146101ef578063a3f5c1d214610202578063ae7d006b1461021557600080fd5b806323b872dd116100de57806323b872dd1461018d57806342842e0e146101a05780636352211e146101b357806370a08231146101c657600080fd5b806301ffc9a71461011057806306fdde0314610138578063081812fc1461014d578063095ea7b314610178575b600080fd5b61012361011e366004610e65565b610287565b60405190151581526020015b60405180910390f35b6101406102d9565b60405161012f9190610ed2565b61016061015b366004610ee5565b61036b565b6040516001600160a01b03909116815260200161012f565b61018b610186366004610f23565b610394565b005b61018b61019b366004610f4f565b6103a3565b61018b6101ae366004610f4f565b610433565b6101606101c1366004610ee5565b610453565b6101d96101d4366004610f90565b61045e565b60405190815260200161012f565b6101406104a6565b61018b6101fd366004610fbb565b6104b5565b600954610160906001600160a01b031681565b61018b61022336600461100d565b6104c0565b600a54610160906001600160a01b031681565b61018b610249366004611058565b610579565b61014061025c366004610ee5565b610590565b61012361026f366004611138565b610605565b6101d9610282366004611166565b610633565b60006001600160e01b031982166380ac58cd60e01b14806102b857506001600160e01b03198216635b5e139f60e01b145b806102d357506301ffc9a760e01b6001600160e01b03198316145b92915050565b6060600080546102e8906111e4565b80601f0160208091040260200160405190810160405280929190818152602001828054610314906111e4565b80156103615780601f1061033657610100808354040283529160200191610361565b820191906000526020600020905b81548152906001019060200180831161034457829003601f168201915b5050505050905090565b6000610376826107a5565b506000828152600460205260409020546001600160a01b03166102d3565b61039f8282336107de565b5050565b6001600160a01b0382166103d257604051633250574960e11b8152600060048201526024015b60405180910390fd5b60006103df8383336107eb565b9050836001600160a01b0316816001600160a01b03161461042d576040516364283d7b60e01b81526001600160a01b03808616600483015260248201849052821660448201526064016103c9565b50505050565b61044e83838360405180602001604052806000815250610579565b505050565b60006102d3826107a5565b60006001600160a01b03821661048a576040516322718ad960e21b8152600060048201526024016103c9565b506001600160a01b031660009081526003602052604090205490565b6060600180546102e8906111e4565b61039f3383836108e4565b600a54604051630c19851160e01b81526000916001600160a01b031690630c198511906104f19085906004016112b2565b602060405180830381865afa15801561050e573d6000803e3d6000fd5b505050506040513d601f19601f8201168201806040525081019061053291906113ac565b90508061039f5760405162461bcd60e51b815260206004820152601560248201527434b73b30b634b21039ba37b930b3b290383937b7b360591b60448201526064016103c9565b6105848484846103a3565b61042d84848484610983565b606061059b826107a5565b5060006105b360408051602081019091526000815290565b905060008151116105d357604051806020016040528060008152506105fe565b806105dd84610aac565b6040516020016105ee9291906113c9565b6040516020818303038152906040525b9392505050565b6001600160a01b03918216600090815260056020908152604080832093909416825291909152205460ff1690565b606082013560009081526007602052604081205460ff166106965760405162461bcd60e51b815260206004820152601b60248201527f4d65737361676520696420616c7265616479206469676573746564000000000060448201526064016103c9565b61069f826104c0565b60006106ae60408501856113f8565b8101906106bb919061143f565b505090506001600860008282546106d29190611474565b90915550506008546106e48682610b3f565b604080516060808201835260018083528882013560208085018281526001600160a01b0389811687890190815288518085018790529251838a01525116818601528651808203909501855260808101808852855195830195909520600089815260068452888120829055938452600790925295909120805460ff19169092179091559084905290917fc4d7daffa2b56ed83b9eeed8b11ed4b61efc7165094728b70738f55ce47fb9519060a00160405180910390a150909695505050505050565b6000818152600260205260408120546001600160a01b0316806102d357604051637e27328960e01b8152600481018490526024016103c9565b61044e8383836001610ba4565b6000828152600260205260408120546001600160a01b039081169083161561081857610818818486610caa565b6001600160a01b0381161561085657610835600085600080610ba4565b6001600160a01b038116600090815260036020526040902080546000190190555b6001600160a01b03851615610885576001600160a01b0385166000908152600360205260409020805460010190555b60008481526002602052604080822080546001600160a01b0319166001600160a01b0389811691821790925591518793918516917fddf252ad1be2c89b69c2b068fc378daa952ba7f163c4a11628f55a4df523b3ef91a4949350505050565b6001600160a01b03821661091657604051630b61174360e31b81526001600160a01b03831660048201526024016103c9565b6001600160a01b03838116600081815260056020908152604080832094871680845294825291829020805460ff191686151590811790915591519182527f17307eab39ab6107e8899845ad3d59bd9653f200f220920489ca2b5937696c31910160405180910390a3505050565b6001600160a01b0383163b1561042d57604051630a85bd0160e11b81526001600160a01b0384169063150b7a02906109c5903390889087908790600401611495565b6020604051808303816000875af1925050508015610a00575060408051601f3d908101601f191682019092526109fd918101906114d2565b60015b610a69573d808015610a2e576040519150601f19603f3d011682016040523d82523d6000602084013e610a33565b606091505b508051600003610a6157604051633250574960e11b81526001600160a01b03851660048201526024016103c9565b805181602001fd5b6001600160e01b03198116630a85bd0160e11b14610aa557604051633250574960e11b81526001600160a01b03851660048201526024016103c9565b5050505050565b60606000610ab983610d0e565b600101905060008167ffffffffffffffff811115610ad957610ad9611042565b6040519080825280601f01601f191660200182016040528015610b03576020820181803683370190505b5090508181016020015b600019016f181899199a1a9b1b9c1cb0b131b232b360811b600a86061a8153600a8504945084610b0d57509392505050565b6001600160a01b038216610b6957604051633250574960e11b8152600060048201526024016103c9565b6000610b77838360006107eb565b90506001600160a01b0381161561044e576040516339e3563760e11b8152600060048201526024016103c9565b8080610bb857506001600160a01b03821615155b15610c7a576000610bc8846107a5565b90506001600160a01b03831615801590610bf45750826001600160a01b0316816001600160a01b031614155b8015610c075750610c058184610605565b155b15610c305760405163a9fbf51f60e01b81526001600160a01b03841660048201526024016103c9565b8115610c785783856001600160a01b0316826001600160a01b03167f8c5be1e5ebec7d5bd14f71427d1e84f3dd0314c0f7b2291e5b200ac8c7c3b92560405160405180910390a45b505b5050600090815260046020526040902080546001600160a01b0319166001600160a01b0392909216919091179055565b610cb5838383610de6565b61044e576001600160a01b038316610ce357604051637e27328960e01b8152600481018290526024016103c9565b60405163177e802f60e01b81526001600160a01b0383166004820152602481018290526044016103c9565b60008072184f03e93ff9f4daa797ed6e38ed64bf6a1f0160401b8310610d4d5772184f03e93ff9f4daa797ed6e38ed64bf6a1f0160401b830492506040015b6d04ee2d6d415b85acef81000000008310610d79576d04ee2d6d415b85acef8100000000830492506020015b662386f26fc100008310610d9757662386f26fc10000830492506010015b6305f5e1008310610daf576305f5e100830492506008015b6127108310610dc357612710830492506004015b60648310610dd5576064830492506002015b600a83106102d35760010192915050565b60006001600160a01b03831615801590610e445750826001600160a01b0316846001600160a01b03161480610e205750610e208484610605565b80610e4457506000828152600460205260409020546001600160a01b038481169116145b949350505050565b6001600160e01b031981168114610e6257600080fd5b50565b600060208284031215610e7757600080fd5b81356105fe81610e4c565b60005b83811015610e9d578181015183820152602001610e85565b50506000910152565b60008151808452610ebe816020860160208601610e82565b601f01601f19169290920160200192915050565b6020815260006105fe6020830184610ea6565b600060208284031215610ef757600080fd5b5035919050565b6001600160a01b0381168114610e6257600080fd5b8035610f1e81610efe565b919050565b60008060408385031215610f3657600080fd5b8235610f4181610efe565b946020939093013593505050565b600080600060608486031215610f6457600080fd5b8335610f6f81610efe565b92506020840135610f7f81610efe565b929592945050506040919091013590565b600060208284031215610fa257600080fd5b81356105fe81610efe565b8015158114610e6257600080fd5b60008060408385031215610fce57600080fd5b8235610fd981610efe565b91506020830135610fe981610fad565b809150509250929050565b6000610180828403121561100757600080fd5b50919050565b60006020828403121561101f57600080fd5b813567ffffffffffffffff81111561103657600080fd5b610e4484828501610ff4565b634e487b7160e01b600052604160045260246000fd5b6000806000806080858703121561106e57600080fd5b843561107981610efe565b9350602085013561108981610efe565b925060408501359150606085013567ffffffffffffffff808211156110ad57600080fd5b818701915087601f8301126110c157600080fd5b8135818111156110d3576110d3611042565b604051601f8201601f19908116603f011681019083821181831017156110fb576110fb611042565b816040528281528a602084870101111561111457600080fd5b82602086016020830137600060208483010152809550505050505092959194509250565b6000806040838503121561114b57600080fd5b823561115681610efe565b91506020830135610fe981610efe565b60008060006060848603121561117b57600080fd5b833561118681610efe565b9250602084013567ffffffffffffffff808211156111a357600080fd5b9085019060a082880312156111b757600080fd5b909250604085013590808211156111cd57600080fd5b506111da86828701610ff4565b9150509250925092565b600181811c908216806111f857607f821691505b60208210810361100757634e487b7160e01b600052602260045260246000fd5b803567ffffffffffffffff81168114610f1e57600080fd5b6000808335601e1984360301811261124757600080fd5b830160208101925035905067ffffffffffffffff81111561126757600080fd5b8060051b360382131561127957600080fd5b9250929050565b81835260006001600160fb1b0383111561129957600080fd5b8260051b80836020870137939093016020019392505050565b60208152600067ffffffffffffffff806112cb85611218565b166020840152806112de60208601611218565b166040840152506040830135606083015260608301356080830152608083013560a083015260a083013560c083015260c083013560e083015261132360e08401610f13565b61010061133a818501836001600160a01b03169052565b6101209150808501358285015250610140818501358185015261135f81860186611230565b92509050610180610160818187015261137d6101a087018585611280565b935061138a818801611218565b9250506113a28186018367ffffffffffffffff169052565b5090949350505050565b6000602082840312156113be57600080fd5b81516105fe81610fad565b600083516113db818460208801610e82565b8351908301906113ef818360208801610e82565b01949350505050565b6000808335601e1984360301811261140f57600080fd5b83018035915067ffffffffffffffff82111561142a57600080fd5b60200191503681900382131561127957600080fd5b60008060006060848603121561145457600080fd5b833561145f81610efe565b95602085013595506040909401359392505050565b808201808211156102d357634e487b7160e01b600052601160045260246000fd5b6001600160a01b03858116825284166020820152604081018390526080606082018190526000906114c890830184610ea6565b9695505050505050565b6000602082840312156114e457600080fd5b81516105fe81610e4c56fea264697066735822122056e9617e3dfac2f293485afda20234cbdb1f3c28c2ca687016005606c0a766ee64736f6c63430008140033","linkReferences":{}},"methodIdentifiers":{"approve(address,uint256)":"095ea7b3","balanceOf(address)":"70a08231","getApproved(uint256)":"081812fc","isApprovedForAll(address,address)":"e985e9c5","mintNFT(address,(bytes1,bytes32,bytes,uint256,uint256),((uint64,uint64,uint256,bytes32,bytes32,uint256,bytes32),address,uint256,bytes32,bytes32[],uint64))":"ffa6f7c9","name()":"06fdde03","nexus()":"a3f5c1d2","ownerOf(uint256)":"6352211e","safeTransferFrom(address,address,uint256)":"42842e0e","safeTransferFrom(address,address,uint256,bytes)":"b88d4fde","setApprovalForAll(address,bool)":"a22cb465","storageProof()":"b55b214c","supportsInterface(bytes4)":"01ffc9a7","symbol()":"95d89b41","tokenURI(uint256)":"c87b56dd","transferFrom(address,address,uint256)":"23b872dd","verifyPayment(((uint64,uint64,uint256,bytes32,bytes32,uint256,bytes32),address,uint256,bytes32,bytes32[],uint64))":"ae7d006b"},"id":9}