{"abi":[{"type":"constructor","inputs":[{"name":"_selfChainId","type":"bytes32","internalType":"bytes32"},{"name":"_paymentChainID","type":"bytes32","internalType":"bytes32"},{"name":"nexusManager","type":"address","internalType":"contract INexusProofManager"},{"name":"_storageProof","type":"address","internalType":"contract StorageProofVerifier"}],"stateMutability":"nonpayable"},{"type":"function","name":"approve","inputs":[{"name":"to","type":"address","internalType":"address"},{"name":"tokenId","type":"uint256","internalType":"uint256"}],"outputs":[],"stateMutability":"nonpayable"},{"type":"function","name":"balanceOf","inputs":[{"name":"owner","type":"address","internalType":"address"}],"outputs":[{"name":"","type":"uint256","internalType":"uint256"}],"stateMutability":"view"},{"type":"function","name":"getApproved","inputs":[{"name":"tokenId","type":"uint256","internalType":"uint256"}],"outputs":[{"name":"","type":"address","internalType":"address"}],"stateMutability":"view"},{"type":"function","name":"isApprovedForAll","inputs":[{"name":"owner","type":"address","internalType":"address"},{"name":"operator","type":"address","internalType":"address"}],"outputs":[{"name":"","type":"bool","internalType":"bool"}],"stateMutability":"view"},{"type":"function","name":"mintNFT","inputs":[{"name":"recipient","type":"address","internalType":"address"},{"name":"message","type":"tuple","internalType":"struct MyNFT.Message","components":[{"name":"messageType","type":"bytes1","internalType":"bytes1"},{"name":"from","type":"bytes32","internalType":"bytes32"},{"name":"data","type":"bytes","internalType":"bytes"},{"name":"messageId","type":"uint256","internalType":"uint256"},{"name":"chainId","type":"uint256","internalType":"uint256"}]},{"name":"storageSlotTrieProof","type":"tuple","internalType":"struct StorageProof","components":[{"name":"batchNumber","type":"uint64","internalType":"uint64"},{"name":"account","type":"address","internalType":"address"},{"name":"key","type":"uint256","internalType":"uint256"},{"name":"value","type":"bytes32","internalType":"bytes32"},{"name":"path","type":"bytes32[]","internalType":"bytes32[]"},{"name":"index","type":"uint64","internalType":"uint64"}]}],"outputs":[{"name":"","type":"uint256","internalType":"uint256"}],"stateMutability":"nonpayable"},{"type":"function","name":"name","inputs":[],"outputs":[{"name":"","type":"string","internalType":"string"}],"stateMutability":"view"},{"type":"function","name":"nexus","inputs":[],"outputs":[{"name":"","type":"address","internalType":"contract INexusProofManager"}],"stateMutability":"view"},{"type":"function","name":"ownerOf","inputs":[{"name":"tokenId","type":"uint256","internalType":"uint256"}],"outputs":[{"name":"","type":"address","internalType":"address"}],"stateMutability":"view"},{"type":"function","name":"safeTransferFrom","inputs":[{"name":"from","type":"address","internalType":"address"},{"name":"to","type":"address","internalType":"address"},{"name":"tokenId","type":"uint256","internalType":"uint256"}],"outputs":[],"stateMutability":"nonpayable"},{"type":"function","name":"safeTransferFrom","inputs":[{"name":"from","type":"address","internalType":"address"},{"name":"to","type":"address","internalType":"address"},{"name":"tokenId","type":"uint256","internalType":"uint256"},{"name":"data","type":"bytes","internalType":"bytes"}],"outputs":[],"stateMutability":"nonpayable"},{"type":"function","name":"setApprovalForAll","inputs":[{"name":"operator","type":"address","internalType":"address"},{"name":"approved","type":"bool","internalType":"bool"}],"outputs":[],"stateMutability":"nonpayable"},{"type":"function","name":"storageProof","inputs":[],"outputs":[{"name":"","type":"address","internalType":"contract StorageProofVerifier"}],"stateMutability":"view"},{"type":"function","name":"supportsInterface","inputs":[{"name":"interfaceId","type":"bytes4","internalType":"bytes4"}],"outputs":[{"name":"","type":"bool","internalType":"bool"}],"stateMutability":"view"},{"type":"function","name":"symbol","inputs":[],"outputs":[{"name":"","type":"string","internalType":"string"}],"stateMutability":"view"},{"type":"function","name":"tokenURI","inputs":[{"name":"tokenId","type":"uint256","internalType":"uint256"}],"outputs":[{"name":"","type":"string","internalType":"string"}],"stateMutability":"view"},{"type":"function","name":"transferFrom","inputs":[{"name":"from","type":"address","internalType":"address"},{"name":"to","type":"address","internalType":"address"},{"name":"tokenId","type":"uint256","internalType":"uint256"}],"outputs":[],"stateMutability":"nonpayable"},{"type":"function","name":"verifyPayment","inputs":[{"name":"storageSlotTrieProof","type":"tuple","internalType":"struct StorageProof","components":[{"name":"batchNumber","type":"uint64","internalType":"uint64"},{"name":"account","type":"address","internalType":"address"},{"name":"key","type":"uint256","internalType":"uint256"},{"name":"value","type":"bytes32","internalType":"bytes32"},{"name":"path","type":"bytes32[]","internalType":"bytes32[]"},{"name":"index","type":"uint64","internalType":"uint64"}]}],"outputs":[],"stateMutability":"view"},{"type":"event","name":"Approval","inputs":[{"name":"owner","type":"address","indexed":true,"internalType":"address"},{"name":"approved","type":"address","indexed":true,"internalType":"address"},{"name":"tokenId","type":"uint256","indexed":true,"internalType":"uint256"}],"anonymous":false},{"type":"event","name":"ApprovalForAll","inputs":[{"name":"owner","type":"address","indexed":true,"internalType":"address"},{"name":"operator","type":"address","indexed":true,"internalType":"address"},{"name":"approved","type":"bool","indexed":false,"internalType":"bool"}],"anonymous":false},{"type":"event","name":"Confirmation","inputs":[{"name":"id","type":"uint256","indexed":false,"internalType":"uint256"},{"name":"tokenId","type":"uint256","indexed":false,"internalType":"uint256"},{"name":"to","type":"address","indexed":false,"internalType":"address"}],"anonymous":false},{"type":"event","name":"Transfer","inputs":[{"name":"from","type":"address","indexed":true,"internalType":"address"},{"name":"to","type":"address","indexed":true,"internalType":"address"},{"name":"tokenId","type":"uint256","indexed":true,"internalType":"uint256"}],"anonymous":false},{"type":"error","name":"ERC721IncorrectOwner","inputs":[{"name":"sender","type":"address","internalType":"address"},{"name":"tokenId","type":"uint256","internalType":"uint256"},{"name":"owner","type":"address","internalType":"address"}]},{"type":"error","name":"ERC721InsufficientApproval","inputs":[{"name":"operator","type":"address","internalType":"address"},{"name":"tokenId","type":"uint256","internalType":"uint256"}]},{"type":"error","name":"ERC721InvalidApprover","inputs":[{"name":"approver","type":"address","internalType":"address"}]},{"type":"error","name":"ERC721InvalidOperator","inputs":[{"name":"operator","type":"address","internalType":"address"}]},{"type":"error","name":"ERC721InvalidOwner","inputs":[{"name":"owner","type":"address","internalType":"address"}]},{"type":"error","name":"ERC721InvalidReceiver","inputs":[{"name":"receiver","type":"address","internalType":"address"}]},{"type":"error","name":"ERC721InvalidSender","inputs":[{"name":"sender","type":"address","internalType":"address"}]},{"type":"error","name":"ERC721NonexistentToken","inputs":[{"name":"tokenId","type":"uint256","internalType":"uint256"}]}],"bytecode":{"object":"0x60c06040523480156200001157600080fd5b50604051620017aa380380620017aa8339810160408190526200003491620000e8565b60405180604001604052806005815260200164135e53919560da1b815250604051806040016040528060048152602001631353919560e21b8152508160009081620000809190620001dd565b5060016200008f8282620001dd565b5050600980546001600160a01b03199081166001600160a01b03958616179091556080959095525060a092909252600a80549093169116179055620002a9565b6001600160a01b0381168114620000e557600080fd5b50565b60008060008060808587031215620000ff57600080fd5b845193506020850151925060408501516200011a81620000cf565b60608601519092506200012d81620000cf565b939692955090935050565b634e487b7160e01b600052604160045260246000fd5b600181811c908216806200016357607f821691505b6020821081036200018457634e487b7160e01b600052602260045260246000fd5b50919050565b601f821115620001d857600081815260208120601f850160051c81016020861015620001b35750805b601f850160051c820191505b81811015620001d457828155600101620001bf565b5050505b505050565b81516001600160401b03811115620001f957620001f962000138565b62000211816200020a84546200014e565b846200018a565b602080601f831160018114620002495760008415620002305750858301515b600019600386901b1c1916600185901b178555620001d4565b600085815260208120601f198616915b828110156200027a5788860151825594840194600190910190840162000259565b5085821015620002995787850151600019600388901b60f8161c191681555b5050505050600190811b01905550565b60805160a0516114e1620002c960003960005050600050506114e16000f3fe608060405234801561001057600080fd5b506004361061010b5760003560e01c806370a08231116100a2578063b55b214c11610071578063b55b214c14610228578063b88d4fde1461023b578063c5abb85a1461024e578063c87b56dd14610261578063e985e9c51461027457600080fd5b806370a08231146101e757806395d89b41146101fa578063a22cb46514610202578063a3f5c1d21461021557600080fd5b8063123130fb116100de578063123130fb1461018d57806323b872dd146101ae57806342842e0e146101c15780636352211e146101d457600080fd5b806301ffc9a71461011057806306fdde0314610138578063081812fc1461014d578063095ea7b314610178575b600080fd5b61012361011e366004610ea8565b610287565b60405190151581526020015b60405180910390f35b6101406102d9565b60405161012f9190610f15565b61016061015b366004610f28565b61036b565b6040516001600160a01b03909116815260200161012f565b61018b610186366004610f56565b610394565b005b6101a061019b366004610f9a565b6103a3565b60405190815260200161012f565b61018b6101bc366004611018565b61052b565b61018b6101cf366004611018565b6105b6565b6101606101e2366004610f28565b6105d6565b6101a06101f5366004611059565b6105e1565b610140610629565b61018b610210366004611084565b610638565b600954610160906001600160a01b031681565b600a54610160906001600160a01b031681565b61018b6102493660046110d3565b610643565b61018b61025c3660046111b3565b61065a565b61014061026f366004610f28565b610713565b6101236102823660046111e8565b610788565b60006001600160e01b031982166380ac58cd60e01b14806102b857506001600160e01b03198216635b5e139f60e01b145b806102d357506301ffc9a760e01b6001600160e01b03198316145b92915050565b6060600080546102e890611216565b80601f016020809104026020016040519081016040528092919081815260200182805461031490611216565b80156103615780601f1061033657610100808354040283529160200191610361565b820191906000526020600020905b81548152906001019060200180831161034457829003601f168201915b5050505050905090565b6000610376826107b6565b506000828152600460205260409020546001600160a01b03166102d3565b61039f8282336107ef565b5050565b606082013560009081526007602052604081205460ff161561040c5760405162461bcd60e51b815260206004820152601b60248201527f4d65737361676520696420616c7265616479206469676573746564000000000060448201526064015b60405180910390fd5b6104158261065a565b6000610424604085018561124a565b8101906104319190611298565b5050905060016008600082825461044891906112cd565b909155505060085461045a86826107fc565b604080516060808201835260018083528882013560208085018281526001600160a01b0389811687890190815288518085018790529251838a015251811682870152875180830390960186526080820180895286519684019690962060008a815260068552898120829055948552600790935292879020805460ff19169094179093559286905260a082018690528a1660c08201529251919290917fd9fdf5ce7b60f7a8137f6de60ca21acc50e9cbd50e8e1d1bdec8394c1fd877029181900360e00190a150909695505050505050565b6001600160a01b03821661055557604051633250574960e11b815260006004820152602401610403565b6000610562838333610816565b9050836001600160a01b0316816001600160a01b0316146105b0576040516364283d7b60e01b81526001600160a01b0380861660048301526024820184905282166044820152606401610403565b50505050565b6105d183838360405180602001604052806000815250610643565b505050565b60006102d3826107b6565b60006001600160a01b03821661060d576040516322718ad960e21b815260006004820152602401610403565b506001600160a01b031660009081526003602052604090205490565b6060600180546102e890611216565b61039f33838361090f565b61064e84848461052b565b6105b0848484846109ae565b600a5460405163d82d864960e01b81526000916001600160a01b03169063d82d86499061068b90859060040161133d565b602060405180830381865afa1580156106a8573d6000803e3d6000fd5b505050506040513d601f19601f820116820180604052508101906106cc9190611405565b90508061039f5760405162461bcd60e51b815260206004820152601560248201527434b73b30b634b21039ba37b930b3b290383937b7b360591b6044820152606401610403565b606061071e826107b6565b50600061073660408051602081019091526000815290565b905060008151116107565760405180602001604052806000815250610781565b8061076084610ad7565b604051602001610771929190611422565b6040516020818303038152906040525b9392505050565b6001600160a01b03918216600090815260056020908152604080832093909416825291909152205460ff1690565b6000818152600260205260408120546001600160a01b0316806102d357604051637e27328960e01b815260048101849052602401610403565b6105d18383836001610b6b565b61039f828260405180602001604052806000815250610c71565b6000828152600260205260408120546001600160a01b039081169083161561084357610843818486610c88565b6001600160a01b0381161561088157610860600085600080610b6b565b6001600160a01b038116600090815260036020526040902080546000190190555b6001600160a01b038516156108b0576001600160a01b0385166000908152600360205260409020805460010190555b60008481526002602052604080822080546001600160a01b0319166001600160a01b0389811691821790925591518793918516917fddf252ad1be2c89b69c2b068fc378daa952ba7f163c4a11628f55a4df523b3ef91a4949350505050565b6001600160a01b03821661094157604051630b61174360e31b81526001600160a01b0383166004820152602401610403565b6001600160a01b03838116600081815260056020908152604080832094871680845294825291829020805460ff191686151590811790915591519182527f17307eab39ab6107e8899845ad3d59bd9653f200f220920489ca2b5937696c31910160405180910390a3505050565b6001600160a01b0383163b156105b057604051630a85bd0160e11b81526001600160a01b0384169063150b7a02906109f0903390889087908790600401611451565b6020604051808303816000875af1925050508015610a2b575060408051601f3d908101601f19168201909252610a289181019061148e565b60015b610a94573d808015610a59576040519150601f19603f3d011682016040523d82523d6000602084013e610a5e565b606091505b508051600003610a8c57604051633250574960e11b81526001600160a01b0385166004820152602401610403565b805181602001fd5b6001600160e01b03198116630a85bd0160e11b14610ad057604051633250574960e11b81526001600160a01b0385166004820152602401610403565b5050505050565b60606000610ae483610cec565b600101905060008167ffffffffffffffff811115610b0457610b046110bd565b6040519080825280601f01601f191660200182016040528015610b2e576020820181803683370190505b5090508181016020015b600019016f181899199a1a9b1b9c1cb0b131b232b360811b600a86061a8153600a8504945084610b38575b509392505050565b8080610b7f57506001600160a01b03821615155b15610c41576000610b8f846107b6565b90506001600160a01b03831615801590610bbb5750826001600160a01b0316816001600160a01b031614155b8015610bce5750610bcc8184610788565b155b15610bf75760405163a9fbf51f60e01b81526001600160a01b0384166004820152602401610403565b8115610c3f5783856001600160a01b0316826001600160a01b03167f8c5be1e5ebec7d5bd14f71427d1e84f3dd0314c0f7b2291e5b200ac8c7c3b92560405160405180910390a45b505b5050600090815260046020526040902080546001600160a01b0319166001600160a01b0392909216919091179055565b610c7b8383610dc4565b6105d160008484846109ae565b610c93838383610e29565b6105d1576001600160a01b038316610cc157604051637e27328960e01b815260048101829052602401610403565b60405163177e802f60e01b81526001600160a01b038316600482015260248101829052604401610403565b60008072184f03e93ff9f4daa797ed6e38ed64bf6a1f0160401b8310610d2b5772184f03e93ff9f4daa797ed6e38ed64bf6a1f0160401b830492506040015b6d04ee2d6d415b85acef81000000008310610d57576d04ee2d6d415b85acef8100000000830492506020015b662386f26fc100008310610d7557662386f26fc10000830492506010015b6305f5e1008310610d8d576305f5e100830492506008015b6127108310610da157612710830492506004015b60648310610db3576064830492506002015b600a83106102d35760010192915050565b6001600160a01b038216610dee57604051633250574960e11b815260006004820152602401610403565b6000610dfc83836000610816565b90506001600160a01b038116156105d1576040516339e3563760e11b815260006004820152602401610403565b60006001600160a01b03831615801590610e875750826001600160a01b0316846001600160a01b03161480610e635750610e638484610788565b80610e8757506000828152600460205260409020546001600160a01b038481169116145b949350505050565b6001600160e01b031981168114610ea557600080fd5b50565b600060208284031215610eba57600080fd5b813561078181610e8f565b60005b83811015610ee0578181015183820152602001610ec8565b50506000910152565b60008151808452610f01816020860160208601610ec5565b601f01601f19169290920160200192915050565b6020815260006107816020830184610ee9565b600060208284031215610f3a57600080fd5b5035919050565b6001600160a01b0381168114610ea557600080fd5b60008060408385031215610f6957600080fd5b8235610f7481610f41565b946020939093013593505050565b600060c08284031215610f9457600080fd5b50919050565b600080600060608486031215610faf57600080fd5b8335610fba81610f41565b9250602084013567ffffffffffffffff80821115610fd757600080fd5b9085019060a08288031215610feb57600080fd5b9092506040850135908082111561100157600080fd5b5061100e86828701610f82565b9150509250925092565b60008060006060848603121561102d57600080fd5b833561103881610f41565b9250602084013561104881610f41565b929592945050506040919091013590565b60006020828403121561106b57600080fd5b813561078181610f41565b8015158114610ea557600080fd5b6000806040838503121561109757600080fd5b82356110a281610f41565b915060208301356110b281611076565b809150509250929050565b634e487b7160e01b600052604160045260246000fd5b600080600080608085870312156110e957600080fd5b84356110f481610f41565b9350602085013561110481610f41565b925060408501359150606085013567ffffffffffffffff8082111561112857600080fd5b818701915087601f83011261113c57600080fd5b81358181111561114e5761114e6110bd565b604051601f8201601f19908116603f01168101908382118183101715611176576111766110bd565b816040528281528a602084870101111561118f57600080fd5b82602086016020830137600060208483010152809550505050505092959194509250565b6000602082840312156111c557600080fd5b813567ffffffffffffffff8111156111dc57600080fd5b610e8784828501610f82565b600080604083850312156111fb57600080fd5b823561120681610f41565b915060208301356110b281610f41565b600181811c9082168061122a57607f821691505b602082108103610f9457634e487b7160e01b600052602260045260246000fd5b6000808335601e1984360301811261126157600080fd5b83018035915067ffffffffffffffff82111561127c57600080fd5b60200191503681900382131561129157600080fd5b9250929050565b6000806000606084860312156112ad57600080fd5b83356112b881610f41565b95602085013595506040909401359392505050565b808201808211156102d357634e487b7160e01b600052601160045260246000fd5b803567ffffffffffffffff8116811461130657600080fd5b919050565b81835260006001600160fb1b0383111561132457600080fd5b8260051b80836020870137939093016020019392505050565b60208152600067ffffffffffffffff80611356856112ee565b166020840152602084013561136a81610f41565b60018060a01b03811660408501525060408401356060840152606084013560808401526080840135601e198536030181126113a457600080fd5b8401602081019035828111156113b957600080fd5b8060051b36038213156113cb57600080fd5b60c060a08601526113e060e08601828461130b565b925050506113f060a085016112ee565b67ffffffffffffffff811660c0850152610b63565b60006020828403121561141757600080fd5b815161078181611076565b60008351611434818460208801610ec5565b835190830190611448818360208801610ec5565b01949350505050565b6001600160a01b038581168252841660208201526040810183905260806060820181905260009061148490830184610ee9565b9695505050505050565b6000602082840312156114a057600080fd5b815161078181610e8f56fea2646970667358221220b09855feb89804bec14ab8e8e12f2b2961a8a3054ff277a48aeb8b0180d4e83a64736f6c63430008140033","linkReferences":{}},"methodIdentifiers":{"approve(address,uint256)":"095ea7b3","balanceOf(address)":"70a08231","getApproved(uint256)":"081812fc","isApprovedForAll(address,address)":"e985e9c5","mintNFT(address,(bytes1,bytes32,bytes,uint256,uint256),(uint64,address,uint256,bytes32,bytes32[],uint64))":"123130fb","name()":"06fdde03","nexus()":"a3f5c1d2","ownerOf(uint256)":"6352211e","safeTransferFrom(address,address,uint256)":"42842e0e","safeTransferFrom(address,address,uint256,bytes)":"b88d4fde","setApprovalForAll(address,bool)":"a22cb465","storageProof()":"b55b214c","supportsInterface(bytes4)":"01ffc9a7","symbol()":"95d89b41","tokenURI(uint256)":"c87b56dd","transferFrom(address,address,uint256)":"23b872dd","verifyPayment((uint64,address,uint256,bytes32,bytes32[],uint64))":"c5abb85a"},"id":9}