{"abi":[{"type":"constructor","inputs":[{"name":"_selfNexusId","type":"bytes32","internalType":"bytes32"},{"name":"_paymentNexusId","type":"bytes32","internalType":"bytes32"},{"name":"_mailbox","type":"address","internalType":"contract INexusMailbox"}],"stateMutability":"nonpayable"},{"type":"function","name":"approve","inputs":[{"name":"to","type":"address","internalType":"address"},{"name":"tokenId","type":"uint256","internalType":"uint256"}],"outputs":[],"stateMutability":"nonpayable"},{"type":"function","name":"balanceOf","inputs":[{"name":"owner","type":"address","internalType":"address"}],"outputs":[{"name":"","type":"uint256","internalType":"uint256"}],"stateMutability":"view"},{"type":"function","name":"getApproved","inputs":[{"name":"tokenId","type":"uint256","internalType":"uint256"}],"outputs":[{"name":"","type":"address","internalType":"address"}],"stateMutability":"view"},{"type":"function","name":"isApprovedForAll","inputs":[{"name":"owner","type":"address","internalType":"address"},{"name":"operator","type":"address","internalType":"address"}],"outputs":[{"name":"","type":"bool","internalType":"bool"}],"stateMutability":"view"},{"type":"function","name":"lockNFT","inputs":[{"name":"tokenId","type":"uint256","internalType":"uint256"},{"name":"amount","type":"uint256","internalType":"uint256"},{"name":"tokenAddress","type":"address","internalType":"address"}],"outputs":[],"stateMutability":"nonpayable"},{"type":"function","name":"mailbox","inputs":[],"outputs":[{"name":"","type":"address","internalType":"contract INexusMailbox"}],"stateMutability":"view"},{"type":"function","name":"mint","inputs":[{"name":"tokenId","type":"uint256","internalType":"uint256"}],"outputs":[],"stateMutability":"nonpayable"},{"type":"function","name":"name","inputs":[],"outputs":[{"name":"","type":"string","internalType":"string"}],"stateMutability":"view"},{"type":"function","name":"onNexusMessage","inputs":[{"name":"nexusAppIdFrom","type":"bytes32","internalType":"bytes32"},{"name":"sender","type":"address","internalType":"address"},{"name":"data","type":"bytes","internalType":"bytes"}],"outputs":[],"stateMutability":"nonpayable"},{"type":"function","name":"ownerOf","inputs":[{"name":"tokenId","type":"uint256","internalType":"uint256"}],"outputs":[{"name":"","type":"address","internalType":"address"}],"stateMutability":"view"},{"type":"function","name":"safeTransferFrom","inputs":[{"name":"from","type":"address","internalType":"address"},{"name":"to","type":"address","internalType":"address"},{"name":"tokenId","type":"uint256","internalType":"uint256"}],"outputs":[],"stateMutability":"nonpayable"},{"type":"function","name":"safeTransferFrom","inputs":[{"name":"from","type":"address","internalType":"address"},{"name":"to","type":"address","internalType":"address"},{"name":"tokenId","type":"uint256","internalType":"uint256"},{"name":"data","type":"bytes","internalType":"bytes"}],"outputs":[],"stateMutability":"nonpayable"},{"type":"function","name":"setApprovalForAll","inputs":[{"name":"operator","type":"address","internalType":"address"},{"name":"approved","type":"bool","internalType":"bool"}],"outputs":[],"stateMutability":"nonpayable"},{"type":"function","name":"setNftPaymentContractAddress","inputs":[{"name":"_paymentContractAddress","type":"address","internalType":"address"}],"outputs":[],"stateMutability":"nonpayable"},{"type":"function","name":"supportsInterface","inputs":[{"name":"interfaceId","type":"bytes4","internalType":"bytes4"}],"outputs":[{"name":"","type":"bool","internalType":"bool"}],"stateMutability":"view"},{"type":"function","name":"symbol","inputs":[],"outputs":[{"name":"","type":"string","internalType":"string"}],"stateMutability":"view"},{"type":"function","name":"tokenURI","inputs":[{"name":"tokenId","type":"uint256","internalType":"uint256"}],"outputs":[{"name":"","type":"string","internalType":"string"}],"stateMutability":"view"},{"type":"function","name":"transferFrom","inputs":[{"name":"from","type":"address","internalType":"address"},{"name":"to","type":"address","internalType":"address"},{"name":"tokenId","type":"uint256","internalType":"uint256"}],"outputs":[],"stateMutability":"nonpayable"},{"type":"function","name":"transferNFT","inputs":[{"name":"chainBlockNumber","type":"uint256","internalType":"uint256"},{"name":"mailboxReceipt","type":"tuple","internalType":"struct MailboxMessage","components":[{"name":"nexusAppIdFrom","type":"bytes32","internalType":"bytes32"},{"name":"nexusAppIdTo","type":"bytes32[]","internalType":"bytes32[]"},{"name":"data","type":"bytes","internalType":"bytes"},{"name":"from","type":"address","internalType":"address"},{"name":"to","type":"address[]","internalType":"address[]"},{"name":"nonce","type":"uint256","internalType":"uint256"}]},{"name":"proof","type":"bytes","internalType":"bytes"}],"outputs":[],"stateMutability":"nonpayable"},{"type":"function","name":"withdrawNFT","inputs":[{"name":"lockHash","type":"bytes32","internalType":"bytes32"},{"name":"proof","type":"bytes","internalType":"bytes"}],"outputs":[],"stateMutability":"nonpayable"},{"type":"event","name":"Approval","inputs":[{"name":"owner","type":"address","indexed":true,"internalType":"address"},{"name":"approved","type":"address","indexed":true,"internalType":"address"},{"name":"tokenId","type":"uint256","indexed":true,"internalType":"uint256"}],"anonymous":false},{"type":"event","name":"ApprovalForAll","inputs":[{"name":"owner","type":"address","indexed":true,"internalType":"address"},{"name":"operator","type":"address","indexed":true,"internalType":"address"},{"name":"approved","type":"bool","indexed":false,"internalType":"bool"}],"anonymous":false},{"type":"event","name":"Confirmation","inputs":[{"name":"tokenId","type":"uint256","indexed":false,"internalType":"uint256"},{"name":"to","type":"address","indexed":false,"internalType":"address"}],"anonymous":false},{"type":"event","name":"LockHash","inputs":[{"name":"lockHash","type":"bytes32","indexed":false,"internalType":"bytes32"}],"anonymous":false},{"type":"event","name":"Transfer","inputs":[{"name":"from","type":"address","indexed":true,"internalType":"address"},{"name":"to","type":"address","indexed":true,"internalType":"address"},{"name":"tokenId","type":"uint256","indexed":true,"internalType":"uint256"}],"anonymous":false},{"type":"error","name":"CannotWithdrawBeforeTimeout","inputs":[]},{"type":"error","name":"ERC721IncorrectOwner","inputs":[{"name":"sender","type":"address","internalType":"address"},{"name":"tokenId","type":"uint256","internalType":"uint256"},{"name":"owner","type":"address","internalType":"address"}]},{"type":"error","name":"ERC721InsufficientApproval","inputs":[{"name":"operator","type":"address","internalType":"address"},{"name":"tokenId","type":"uint256","internalType":"uint256"}]},{"type":"error","name":"ERC721InvalidApprover","inputs":[{"name":"approver","type":"address","internalType":"address"}]},{"type":"error","name":"ERC721InvalidOperator","inputs":[{"name":"operator","type":"address","internalType":"address"}]},{"type":"error","name":"ERC721InvalidOwner","inputs":[{"name":"owner","type":"address","internalType":"address"}]},{"type":"error","name":"ERC721InvalidReceiver","inputs":[{"name":"receiver","type":"address","internalType":"address"}]},{"type":"error","name":"ERC721InvalidSender","inputs":[{"name":"sender","type":"address","internalType":"address"}]},{"type":"error","name":"ERC721NonexistentToken","inputs":[{"name":"tokenId","type":"uint256","internalType":"uint256"}]},{"type":"error","name":"InvalidChain","inputs":[]},{"type":"error","name":"InvalidSender","inputs":[]},{"type":"error","name":"TransferAlreadyCompleted","inputs":[]}],"bytecode":{"object":"0x60c06040525f600955348015610013575f80fd5b50604051611eae380380611eae833981016040819052610032916100ba565b60405180604001604052806005815260200164135e53919560da1b815250604051806040016040528060048152602001631353919560e21b815250815f908161007b9190610194565b5060016100888282610194565b5050600680546001600160a01b0319166001600160a01b0393909316929092179091555060809190915260a052610253565b5f805f606084860312156100cc575f80fd5b83516020850151604086015191945092506001600160a01b03811681146100f1575f80fd5b809150509250925092565b634e487b7160e01b5f52604160045260245ffd5b600181811c9082168061012457607f821691505b60208210810361014257634e487b7160e01b5f52602260045260245ffd5b50919050565b601f82111561018f57805f5260205f20601f840160051c8101602085101561016d5750805b601f840160051c820191505b8181101561018c575f8155600101610179565b50505b505050565b81516001600160401b038111156101ad576101ad6100fc565b6101c1816101bb8454610110565b84610148565b602080601f8311600181146101f4575f84156101dd5750858301515b5f19600386901b1c1916600185901b17855561024b565b5f85815260208120601f198616915b8281101561022257888601518255948401946001909101908401610203565b508582101561023f57878501515f19600388901b60f8161c191681555b505060018460011b0185555b505050505050565b60805160a051611c3361027b5f395f81816109480152610b3401525f61085a0152611c335ff3fe608060405234801561000f575f80fd5b5060043610610127575f3560e01c806395d89b41116100a9578063d5438eae1161006e578063d5438eae14610299578063d95edc3b146102ac578063e985e9c5146102bf578063feb0e395146102d2578063ff6a236e146102e5575f80fd5b806395d89b4114610245578063a0712d681461024d578063a22cb46514610260578063b88d4fde14610273578063c87b56dd14610286575f80fd5b806323b872dd116100ef57806323b872dd146101d857806342842e0e146101eb5780636352211e146101fe57806370a08231146102115780637afd773a14610232575f80fd5b806301ffc9a71461012b57806306fdde0314610153578063081812fc14610168578063095ea7b31461019357806323b38774146101a8575b5f80fd5b61013e61013936600461136f565b6102f8565b60405190151581526020015b60405180910390f35b61015b610349565b60405161014a91906113b8565b61017b6101763660046113ca565b6103d8565b6040516001600160a01b03909116815260200161014a565b6101a66101a1366004611405565b6103ff565b005b6101a66101b636600461142f565b600780546001600160a01b0319166001600160a01b0392909216919091179055565b6101a66101e636600461144a565b61040e565b6101a66101f936600461144a565b61049c565b61017b61020c3660046113ca565b6104bb565b61022461021f36600461142f565b6104c5565b60405190815260200161014a565b6101a6610240366004611488565b61050a565b61015b61068f565b6101a661025b3660046113ca565b61069e565b6101a661026e3660046114be565b6106ab565b6101a6610281366004611596565b6106b6565b61015b6102943660046113ca565b6106cd565b60065461017b906001600160a01b031681565b6101a66102ba366004611643565b61073e565b61013e6102cd36600461168b565b610a9c565b6101a66102e03660046116b7565b610ac9565b6101a66102f3366004611729565b610b32565b5f6001600160e01b031982166380ac58cd60e01b148061032857506001600160e01b03198216635b5e139f60e01b145b8061034357506301ffc9a760e01b6001600160e01b03198316145b92915050565b60605f80546103579061177e565b80601f01602080910402602001604051908101604052809291908181526020018280546103839061177e565b80156103ce5780601f106103a5576101008083540402835291602001916103ce565b820191905f5260205f20905b8154815290600101906020018083116103b157829003601f168201915b5050505050905090565b5f6103e282610c1e565b505f828152600460205260409020546001600160a01b0316610343565b61040a828233610c56565b5050565b6001600160a01b03821661043c57604051633250574960e11b81525f60048201526024015b60405180910390fd5b5f610448838333610c63565b9050836001600160a01b0316816001600160a01b031614610496576040516364283d7b60e01b81526001600160a01b0380861660048301526024820184905282166044820152606401610433565b50505050565b6104b683838360405180602001604052805f8152506106b6565b505050565b5f61034382610c1e565b5f6001600160a01b0382166104ef576040516322718ad960e21b81525f6004820152602401610433565b506001600160a01b03165f9081526003602052604090205490565b5f6040518060c00160405280336001600160a01b03168152602001858152602001848152602001836001600160a01b0316815260200143815260200160095f8154610554906117ca565b91905081905581525090505f816040516020016105b9919081516001600160a01b0390811682526020808401519083015260408084015190830152606080840151909116908201526080808301519082015260a0918201519181019190915260c00190565b60408051808303601f1901815291815281516020808401919091205f90815260088252829020855181546001600160a01b03199081166001600160a01b03928316178355928701516001830155928601516002820155606086015160038201805490931693169290921790556080840151600482015560a0840151600590910155905061064733308761040e565b805160208201206040517ff252011544f53711dd6c1aeaecd3594c030e8894f1d59cefc647ca36092b8cf9916106809190815260200190565b60405180910390a15050505050565b6060600180546103579061177e565b6106a83382610d55565b50565b61040a338383610db6565b6106c184848461040e565b61049684848484610e54565b60606106d882610c1e565b505f6106ee60408051602081019091525f815290565b90505f81511161070c5760405180602001604052805f815250610737565b8061071684610f7a565b6040516020016107279291906117f9565b6040516020818303038152906040525b9392505050565b5f83815260086020908152604091829020825160c08101845281546001600160a01b0390811682526001830154938201939093526002820154938101939093526003810154909116606083015260048101546080830181905260059091015460a083015243906107b090600a9061180d565b10156107cf5760405163015e82a960e31b815260040160405180910390fd5b80516001600160a01b031633146107f957604051636edaef2f60e11b815260040160405180910390fd5b306001600160a01b031661081082602001516104bb565b6001600160a01b031603610837576040516305de099160e31b815260040160405180910390fd5b6040805160018082528183019092525f91602080830190803683370190505090507f0000000000000000000000000000000000000000000000000000000000000000815f8151811061088b5761088b611820565b60209081029190910101526040805160018082528183019092525f9181602001602082028036833701905050905030815f815181106108cc576108cc611820565b6001600160a01b0392831660209182029290920181019190915260408051608080820183528751851680835288850151838601908152898501518486019081526060808c0151891681870190815287519889019490945291518787015251908601525185168482015282518085039091018152610160840183527f000000000000000000000000000000000000000000000000000000000000000060a080860191825260c0860189905260e086018390526007548716610100870152610120860188905289015161014090950194909452600654925191949093925f929116906109c090839085908d908d9060240161189f565b60408051601f198184030181529181526020820180516001600160e01b031663c9cab87960e01b179052516109f59190611984565b5f604051808303815f865af19150503d805f8114610a2e576040519150601f19603f3d011682016040523d82523d5f602084013e610a33565b606091505b5050905080610a9057610a4e30885f0151896020015161040e565b5f8a815260086020526040812080546001600160a01b031990811682556001820183905560028201839055600382018054909116905560048101829055600501555b50505050505050505050565b6001600160a01b039182165f90815260056020908152604080832093909416825291909152205460ff1690565b60065460405163151086c360e01b81526001600160a01b039091169063151086c390610aff908790879087908790600401611a52565b5f604051808303815f87803b158015610b16575f80fd5b505af1158015610b28573d5f803e3d5ffd5b5050505050505050565b7f00000000000000000000000000000000000000000000000000000000000000008314610b725760405163057f3fa760e51b815260040160405180910390fd5b6007546001600160a01b03838116911614610ba057604051636edaef2f60e11b815260040160405180910390fd5b5f81806020019051810190610bb59190611b33565b9050610bc930825f0151836020015161100a565b602081015181516040517f1f7db319f45151674bbce08ad4e1093bca1941bc7ef2f91ccafd6519406f010192610c10929082526001600160a01b0316602082015260400190565b60405180910390a150505050565b5f818152600260205260408120546001600160a01b03168061034357604051637e27328960e01b815260048101849052602401610433565b6104b683838360016110b7565b5f828152600260205260408120546001600160a01b0390811690831615610c8f57610c8f8184866111bb565b6001600160a01b03811615610cc957610caa5f855f806110b7565b6001600160a01b0381165f90815260036020526040902080545f190190555b6001600160a01b03851615610cf7576001600160a01b0385165f908152600360205260409020805460010190555b5f8481526002602052604080822080546001600160a01b0319166001600160a01b0389811691821790925591518793918516917fddf252ad1be2c89b69c2b068fc378daa952ba7f163c4a11628f55a4df523b3ef91a4949350505050565b6001600160a01b038216610d7e57604051633250574960e11b81525f6004820152602401610433565b5f610d8a83835f610c63565b90506001600160a01b038116156104b6576040516339e3563760e11b81525f6004820152602401610433565b6001600160a01b038216610de857604051630b61174360e31b81526001600160a01b0383166004820152602401610433565b6001600160a01b038381165f81815260056020908152604080832094871680845294825291829020805460ff191686151590811790915591519182527f17307eab39ab6107e8899845ad3d59bd9653f200f220920489ca2b5937696c31910160405180910390a3505050565b6001600160a01b0383163b1561049657604051630a85bd0160e11b81526001600160a01b0384169063150b7a0290610e96903390889087908790600401611ba6565b6020604051808303815f875af1925050508015610ed0575060408051601f3d908101601f19168201909252610ecd91810190611be2565b60015b610f37573d808015610efd576040519150601f19603f3d011682016040523d82523d5f602084013e610f02565b606091505b5080515f03610f2f57604051633250574960e11b81526001600160a01b0385166004820152602401610433565b805181602001fd5b6001600160e01b03198116630a85bd0160e11b14610f7357604051633250574960e11b81526001600160a01b0385166004820152602401610433565b5050505050565b60605f610f868361121f565b60010190505f8167ffffffffffffffff811115610fa557610fa56114f9565b6040519080825280601f01601f191660200182016040528015610fcf576020820181803683370190505b5090508181016020015b5f19016f181899199a1a9b1b9c1cb0b131b232b360811b600a86061a8153600a8504945084610fd957509392505050565b6001600160a01b03821661103357604051633250574960e11b81525f6004820152602401610433565b5f61103f83835f610c63565b90506001600160a01b03811661106b57604051637e27328960e01b815260048101839052602401610433565b836001600160a01b0316816001600160a01b031614610496576040516364283d7b60e01b81526001600160a01b0380861660048301526024820184905282166044820152606401610433565b80806110cb57506001600160a01b03821615155b1561118c575f6110da84610c1e565b90506001600160a01b038316158015906111065750826001600160a01b0316816001600160a01b031614155b801561111957506111178184610a9c565b155b156111425760405163a9fbf51f60e01b81526001600160a01b0384166004820152602401610433565b811561118a5783856001600160a01b0316826001600160a01b03167f8c5be1e5ebec7d5bd14f71427d1e84f3dd0314c0f7b2291e5b200ac8c7c3b92560405160405180910390a45b505b50505f90815260046020526040902080546001600160a01b0319166001600160a01b0392909216919091179055565b6111c68383836112f6565b6104b6576001600160a01b0383166111f457604051637e27328960e01b815260048101829052602401610433565b60405163177e802f60e01b81526001600160a01b038316600482015260248101829052604401610433565b5f8072184f03e93ff9f4daa797ed6e38ed64bf6a1f0160401b831061125d5772184f03e93ff9f4daa797ed6e38ed64bf6a1f0160401b830492506040015b6d04ee2d6d415b85acef81000000008310611289576d04ee2d6d415b85acef8100000000830492506020015b662386f26fc1000083106112a757662386f26fc10000830492506010015b6305f5e10083106112bf576305f5e100830492506008015b61271083106112d357612710830492506004015b606483106112e5576064830492506002015b600a83106103435760010192915050565b5f6001600160a01b038316158015906113525750826001600160a01b0316846001600160a01b0316148061132f575061132f8484610a9c565b8061135257505f828152600460205260409020546001600160a01b038481169116145b949350505050565b6001600160e01b0319811681146106a8575f80fd5b5f6020828403121561137f575f80fd5b81356107378161135a565b5f81518084528060208401602086015e5f602082860101526020601f19601f83011685010191505092915050565b602081525f610737602083018461138a565b5f602082840312156113da575f80fd5b5035919050565b6001600160a01b03811681146106a8575f80fd5b8035611400816113e1565b919050565b5f8060408385031215611416575f80fd5b8235611421816113e1565b946020939093013593505050565b5f6020828403121561143f575f80fd5b8135610737816113e1565b5f805f6060848603121561145c575f80fd5b8335611467816113e1565b92506020840135611477816113e1565b929592945050506040919091013590565b5f805f6060848603121561149a575f80fd5b833592506020840135915060408401356114b3816113e1565b809150509250925092565b5f80604083850312156114cf575f80fd5b82356114da816113e1565b9150602083013580151581146114ee575f80fd5b809150509250929050565b634e487b7160e01b5f52604160045260245ffd5b5f82601f83011261151c575f80fd5b813567ffffffffffffffff80821115611537576115376114f9565b604051601f8301601f19908116603f0116810190828211818310171561155f5761155f6114f9565b81604052838152866020858801011115611577575f80fd5b836020870160208301375f602085830101528094505050505092915050565b5f805f80608085870312156115a9575f80fd5b84356115b4816113e1565b935060208501356115c4816113e1565b925060408501359150606085013567ffffffffffffffff8111156115e6575f80fd5b6115f28782880161150d565b91505092959194509250565b5f8083601f84011261160e575f80fd5b50813567ffffffffffffffff811115611625575f80fd5b60208301915083602082850101111561163c575f80fd5b9250929050565b5f805f60408486031215611655575f80fd5b83359250602084013567ffffffffffffffff811115611672575f80fd5b61167e868287016115fe565b9497909650939450505050565b5f806040838503121561169c575f80fd5b82356116a7816113e1565b915060208301356114ee816113e1565b5f805f80606085870312156116ca575f80fd5b84359350602085013567ffffffffffffffff808211156116e8575f80fd5b9086019060c082890312156116fb575f80fd5b90935060408601359080821115611710575f80fd5b5061171d878288016115fe565b95989497509550505050565b5f805f6060848603121561173b575f80fd5b83359250602084013561174d816113e1565b9150604084013567ffffffffffffffff811115611768575f80fd5b6117748682870161150d565b9150509250925092565b600181811c9082168061179257607f821691505b6020821081036117b057634e487b7160e01b5f52602260045260245ffd5b50919050565b634e487b7160e01b5f52601160045260245ffd5b5f600182016117db576117db6117b6565b5060010190565b5f81518060208401855e5f93019283525090919050565b5f61135261180783866117e2565b846117e2565b80820180821115610343576103436117b6565b634e487b7160e01b5f52603260045260245ffd5b5f815180845260208085019450602084015f5b8381101561186c5781516001600160a01b031687529582019590820190600101611847565b509495945050505050565b81835281816020850137505f828201602090810191909152601f909101601f19169091010190565b60ff851681525f602060606020840152610120830186516060850152602087015160c06080860152818151808452610140870191506020830193505f92505b808310156118fe57835182529284019260019290920191908401906118de565b5060408901519350605f199250828682030160a087015261191f818561138a565b93505050606087015161193d60c08601826001600160a01b03169052565b506080870151818584030160e08601526119578382611834565b9250505060a08601516101008401528281036040840152611979818587611877565b979650505050505050565b5f61073782846117e2565b5f808335601e198436030181126119a4575f80fd5b830160208101925035905067ffffffffffffffff8111156119c3575f80fd5b8060051b360382131561163c575f80fd5b5f808335601e198436030181126119e9575f80fd5b830160208101925035905067ffffffffffffffff811115611a08575f80fd5b80360382131561163c575f80fd5b8183525f60208085019450825f5b8581101561186c578135611a37816113e1565b6001600160a01b031687529582019590820190600101611a24565b84815260606020820152833560608201525f611a71602086018661198f565b60c0608085015261012084018190526101406001600160fb1b03821115611a96575f80fd5b8160051b91508183828701378185019250611ab460408901896119d4565b925060e08685030160a0870152611ace8285018483611877565b9350505050611adf606087016113f5565b6001600160a01b031660c0840152611afa608087018761198f565b848303605f190160e0860152611b11838284611a16565b9250505060a08601356101008401528281036040840152611979818587611877565b5f60808284031215611b43575f80fd5b6040516080810181811067ffffffffffffffff82111715611b6657611b666114f9565b6040528251611b74816113e1565b8082525060208301516020820152604083015160408201526060830151611b9a816113e1565b60608201529392505050565b6001600160a01b03858116825284166020820152604081018390526080606082018190525f90611bd89083018461138a565b9695505050505050565b5f60208284031215611bf2575f80fd5b81516107378161135a56fea26469706673582212203fd909823fd6e7dfbdd1abec5aa568d74ba032c64b1804cd605a25499c7414df64736f6c63430008190033","linkReferences":{}},"methodIdentifiers":{"approve(address,uint256)":"095ea7b3","balanceOf(address)":"70a08231","getApproved(uint256)":"081812fc","isApprovedForAll(address,address)":"e985e9c5","lockNFT(uint256,uint256,address)":"7afd773a","mailbox()":"d5438eae","mint(uint256)":"a0712d68","name()":"06fdde03","onNexusMessage(bytes32,address,bytes)":"ff6a236e","ownerOf(uint256)":"6352211e","safeTransferFrom(address,address,uint256)":"42842e0e","safeTransferFrom(address,address,uint256,bytes)":"b88d4fde","setApprovalForAll(address,bool)":"a22cb465","setNftPaymentContractAddress(address)":"23b38774","supportsInterface(bytes4)":"01ffc9a7","symbol()":"95d89b41","tokenURI(uint256)":"c87b56dd","transferFrom(address,address,uint256)":"23b872dd","transferNFT(uint256,(bytes32,bytes32[],bytes,address,address[],uint256),bytes)":"feb0e395","withdrawNFT(bytes32,bytes)":"d95edc3b"},"id":9}