{"abi":[{"type":"constructor","inputs":[{"name":"_selfChainId","type":"uint256","internalType":"uint256"},{"name":"_paymentChainID","type":"bytes32","internalType":"bytes32"},{"name":"nexusManager","type":"address","internalType":"contract INexusProofManager"}],"stateMutability":"nonpayable"},{"type":"function","name":"approve","inputs":[{"name":"to","type":"address","internalType":"address"},{"name":"tokenId","type":"uint256","internalType":"uint256"}],"outputs":[],"stateMutability":"nonpayable"},{"type":"function","name":"balanceOf","inputs":[{"name":"owner","type":"address","internalType":"address"}],"outputs":[{"name":"","type":"uint256","internalType":"uint256"}],"stateMutability":"view"},{"type":"function","name":"getApproved","inputs":[{"name":"tokenId","type":"uint256","internalType":"uint256"}],"outputs":[{"name":"","type":"address","internalType":"address"}],"stateMutability":"view"},{"type":"function","name":"isApprovedForAll","inputs":[{"name":"owner","type":"address","internalType":"address"},{"name":"operator","type":"address","internalType":"address"}],"outputs":[{"name":"","type":"bool","internalType":"bool"}],"stateMutability":"view"},{"type":"function","name":"mintNFT","inputs":[{"name":"recipient","type":"address","internalType":"address"},{"name":"paymentChainBlockNumber","type":"uint256","internalType":"uint256"},{"name":"accountTrieProof","type":"bytes","internalType":"bytes"},{"name":"slot","type":"bytes32","internalType":"bytes32"},{"name":"storageSlotTrieProof","type":"bytes","internalType":"bytes"}],"outputs":[{"name":"","type":"uint256","internalType":"uint256"}],"stateMutability":"nonpayable"},{"type":"function","name":"name","inputs":[],"outputs":[{"name":"","type":"string","internalType":"string"}],"stateMutability":"view"},{"type":"function","name":"nexus","inputs":[],"outputs":[{"name":"","type":"address","internalType":"contract INexusProofManager"}],"stateMutability":"view"},{"type":"function","name":"ownerOf","inputs":[{"name":"tokenId","type":"uint256","internalType":"uint256"}],"outputs":[{"name":"","type":"address","internalType":"address"}],"stateMutability":"view"},{"type":"function","name":"safeTransferFrom","inputs":[{"name":"from","type":"address","internalType":"address"},{"name":"to","type":"address","internalType":"address"},{"name":"tokenId","type":"uint256","internalType":"uint256"}],"outputs":[],"stateMutability":"nonpayable"},{"type":"function","name":"safeTransferFrom","inputs":[{"name":"from","type":"address","internalType":"address"},{"name":"to","type":"address","internalType":"address"},{"name":"tokenId","type":"uint256","internalType":"uint256"},{"name":"data","type":"bytes","internalType":"bytes"}],"outputs":[],"stateMutability":"nonpayable"},{"type":"function","name":"setApprovalForAll","inputs":[{"name":"operator","type":"address","internalType":"address"},{"name":"approved","type":"bool","internalType":"bool"}],"outputs":[],"stateMutability":"nonpayable"},{"type":"function","name":"supportsInterface","inputs":[{"name":"interfaceId","type":"bytes4","internalType":"bytes4"}],"outputs":[{"name":"","type":"bool","internalType":"bool"}],"stateMutability":"view"},{"type":"function","name":"symbol","inputs":[],"outputs":[{"name":"","type":"string","internalType":"string"}],"stateMutability":"view"},{"type":"function","name":"tokenURI","inputs":[{"name":"tokenId","type":"uint256","internalType":"uint256"}],"outputs":[{"name":"","type":"string","internalType":"string"}],"stateMutability":"view"},{"type":"function","name":"transferFrom","inputs":[{"name":"from","type":"address","internalType":"address"},{"name":"to","type":"address","internalType":"address"},{"name":"tokenId","type":"uint256","internalType":"uint256"}],"outputs":[],"stateMutability":"nonpayable"},{"type":"function","name":"verifyPayment","inputs":[{"name":"recipient","type":"address","internalType":"address"},{"name":"paymentChainBlockNumber","type":"uint256","internalType":"uint256"},{"name":"accountTrieProof","type":"bytes","internalType":"bytes"},{"name":"slot","type":"bytes32","internalType":"bytes32"},{"name":"storageSlotTrieProof","type":"bytes","internalType":"bytes"}],"outputs":[],"stateMutability":"view"},{"type":"event","name":"Approval","inputs":[{"name":"owner","type":"address","indexed":true,"internalType":"address"},{"name":"approved","type":"address","indexed":true,"internalType":"address"},{"name":"tokenId","type":"uint256","indexed":true,"internalType":"uint256"}],"anonymous":false},{"type":"event","name":"ApprovalForAll","inputs":[{"name":"owner","type":"address","indexed":true,"internalType":"address"},{"name":"operator","type":"address","indexed":true,"internalType":"address"},{"name":"approved","type":"bool","indexed":false,"internalType":"bool"}],"anonymous":false},{"type":"event","name":"Transfer","inputs":[{"name":"from","type":"address","indexed":true,"internalType":"address"},{"name":"to","type":"address","indexed":true,"internalType":"address"},{"name":"tokenId","type":"uint256","indexed":true,"internalType":"uint256"}],"anonymous":false},{"type":"error","name":"ERC721IncorrectOwner","inputs":[{"name":"sender","type":"address","internalType":"address"},{"name":"tokenId","type":"uint256","internalType":"uint256"},{"name":"owner","type":"address","internalType":"address"}]},{"type":"error","name":"ERC721InsufficientApproval","inputs":[{"name":"operator","type":"address","internalType":"address"},{"name":"tokenId","type":"uint256","internalType":"uint256"}]},{"type":"error","name":"ERC721InvalidApprover","inputs":[{"name":"approver","type":"address","internalType":"address"}]},{"type":"error","name":"ERC721InvalidOperator","inputs":[{"name":"operator","type":"address","internalType":"address"}]},{"type":"error","name":"ERC721InvalidOwner","inputs":[{"name":"owner","type":"address","internalType":"address"}]},{"type":"error","name":"ERC721InvalidReceiver","inputs":[{"name":"receiver","type":"address","internalType":"address"}]},{"type":"error","name":"ERC721InvalidSender","inputs":[{"name":"sender","type":"address","internalType":"address"}]},{"type":"error","name":"ERC721NonexistentToken","inputs":[{"name":"tokenId","type":"uint256","internalType":"uint256"}]}],"bytecode":{"object":"0x60c06040523480156200001157600080fd5b50604051620015b4380380620015b48339810160408190526200003491620000c2565b60405180604001604052806005815260200164135e53919560da1b815250604051806040016040528060048152602001631353919560e21b8152508160009081620000809190620001af565b5060016200008f8282620001af565b5050600780546001600160a01b0319166001600160a01b0393909316929092179091555060809190915260a0526200027b565b600080600060608486031215620000d857600080fd5b83516020850151604086015191945092506001600160a01b0381168114620000ff57600080fd5b809150509250925092565b634e487b7160e01b600052604160045260246000fd5b600181811c908216806200013557607f821691505b6020821081036200015657634e487b7160e01b600052602260045260246000fd5b50919050565b601f821115620001aa57600081815260208120601f850160051c81016020861015620001855750805b601f850160051c820191505b81811015620001a65782815560010162000191565b5050505b505050565b81516001600160401b03811115620001cb57620001cb6200010a565b620001e381620001dc845462000120565b846200015c565b602080601f8311600181146200021b5760008415620002025750858301515b600019600386901b1c1916600185901b178555620001a6565b600085815260208120601f198616915b828110156200024c578886015182559484019460019091019084016200022b565b50858210156200026b5787850151600019600388901b60f8161c191681555b5050505050600190811b01905550565b60805160a0516113166200029e60003960006103ae0152600050506113166000f3fe608060405234801561001057600080fd5b50600436106101005760003560e01c806370a0823111610097578063b88d4fde11610066578063b88d4fde1461021d578063c87b56dd14610230578063e985e9c514610243578063fc38e9431461025657600080fd5b806370a08231146101ce57806395d89b41146101ef578063a22cb465146101f7578063a3f5c1d21461020a57600080fd5b80631457f5dc116100d35780631457f5dc1461018257806323b872dd1461019557806342842e0e146101a85780636352211e146101bb57600080fd5b806301ffc9a71461010557806306fdde031461012d578063081812fc14610142578063095ea7b31461016d575b600080fd5b610118610113366004610ded565b610269565b60405190151581526020015b60405180910390f35b6101356102bb565b6040516101249190610e5a565b610155610150366004610e6d565b61034d565b6040516001600160a01b039091168152602001610124565b61018061017b366004610ea2565b610376565b005b610180610190366004610f15565b610385565b6101806101a3366004610fa9565b610519565b6101806101b6366004610fa9565b6105a4565b6101556101c9366004610e6d565b6105c4565b6101e16101dc366004610fe5565b6105cf565b604051908152602001610124565b610135610617565b610180610205366004611000565b610626565b600754610155906001600160a01b031681565b61018061022b366004611052565b610631565b61013561023e366004610e6d565b610648565b61011861025136600461112e565b6106bd565b6101e1610264366004610f15565b6106eb565b60006001600160e01b031982166380ac58cd60e01b148061029a57506001600160e01b03198216635b5e139f60e01b145b806102b557506301ffc9a760e01b6001600160e01b03198316145b92915050565b6060600080546102ca90611161565b80601f01602080910402602001604051908101604052809291908181526020018280546102f690611161565b80156103435780601f1061031857610100808354040283529160200191610343565b820191906000526020600020905b81548152906001019060200180831161032657829003601f168201915b5050505050905090565b60006103588261072d565b506000828152600460205260409020546001600160a01b03166102b5565b610381828233610766565b5050565b600754604051634d044f5b60e11b81526000916001600160a01b031690639a089eb6906103de907f0000000000000000000000000000000000000000000000000000000000000000908b908d908c908c906004016111c4565b602060405180830381865afa1580156103fb573d6000803e3d6000fd5b505050506040513d601f19601f8201168201806040525081019061041f91906111fd565b90507fa917e0e8e433aa59007cba196d3f0791a4b71fe46693523ffe9dd04a1c9c4bdf81016104955760405162461bcd60e51b815260206004820152601960248201527f4e6f2073746f7261676520726f6f7420617661696c61626c650000000000000060448201526064015b60405180910390fd5b600754604051631bdc25b760e21b81526000916001600160a01b031690636f7096dc906104cc908590899089908990600401611216565b602060405180830381865afa1580156104e9573d6000803e3d6000fd5b505050506040513d601f19601f8201168201806040525081019061050d91906111fd565b50505050505050505050565b6001600160a01b03821661054357604051633250574960e11b81526000600482015260240161048c565b6000610550838333610773565b9050836001600160a01b0316816001600160a01b03161461059e576040516364283d7b60e01b81526001600160a01b038086166004830152602482018490528216604482015260640161048c565b50505050565b6105bf83838360405180602001604052806000815250610631565b505050565b60006102b58261072d565b60006001600160a01b0382166105fb576040516322718ad960e21b81526000600482015260240161048c565b506001600160a01b031660009081526003602052604090205490565b6060600180546102ca90611161565b61038133838361086c565b61063c848484610519565b61059e8484848461090b565b60606106538261072d565b50600061066b60408051602081019091526000815290565b9050600081511161068b57604051806020016040528060008152506106b6565b8061069584610a34565b6040516020016106a6929190611240565b6040516020818303038152906040525b9392505050565b6001600160a01b03918216600090815260056020908152604080832093909416825291909152205460ff1690565b60006106fc88888888888888610385565b60016006600082825461070f919061126f565b90915550506006546107218982610ac7565b98975050505050505050565b6000818152600260205260408120546001600160a01b0316806102b557604051637e27328960e01b81526004810184905260240161048c565b6105bf8383836001610b2c565b6000828152600260205260408120546001600160a01b03908116908316156107a0576107a0818486610c32565b6001600160a01b038116156107de576107bd600085600080610b2c565b6001600160a01b038116600090815260036020526040902080546000190190555b6001600160a01b0385161561080d576001600160a01b0385166000908152600360205260409020805460010190555b60008481526002602052604080822080546001600160a01b0319166001600160a01b0389811691821790925591518793918516917fddf252ad1be2c89b69c2b068fc378daa952ba7f163c4a11628f55a4df523b3ef91a4949350505050565b6001600160a01b03821661089e57604051630b61174360e31b81526001600160a01b038316600482015260240161048c565b6001600160a01b03838116600081815260056020908152604080832094871680845294825291829020805460ff191686151590811790915591519182527f17307eab39ab6107e8899845ad3d59bd9653f200f220920489ca2b5937696c31910160405180910390a3505050565b6001600160a01b0383163b1561059e57604051630a85bd0160e11b81526001600160a01b0384169063150b7a029061094d903390889087908790600401611290565b6020604051808303816000875af1925050508015610988575060408051601f3d908101601f19168201909252610985918101906112c3565b60015b6109f1573d8080156109b6576040519150601f19603f3d011682016040523d82523d6000602084013e6109bb565b606091505b5080516000036109e957604051633250574960e11b81526001600160a01b038516600482015260240161048c565b805181602001fd5b6001600160e01b03198116630a85bd0160e11b14610a2d57604051633250574960e11b81526001600160a01b038516600482015260240161048c565b5050505050565b60606000610a4183610c96565b600101905060008167ffffffffffffffff811115610a6157610a6161103c565b6040519080825280601f01601f191660200182016040528015610a8b576020820181803683370190505b5090508181016020015b600019016f181899199a1a9b1b9c1cb0b131b232b360811b600a86061a8153600a8504945084610a9557509392505050565b6001600160a01b038216610af157604051633250574960e11b81526000600482015260240161048c565b6000610aff83836000610773565b90506001600160a01b038116156105bf576040516339e3563760e11b81526000600482015260240161048c565b8080610b4057506001600160a01b03821615155b15610c02576000610b508461072d565b90506001600160a01b03831615801590610b7c5750826001600160a01b0316816001600160a01b031614155b8015610b8f5750610b8d81846106bd565b155b15610bb85760405163a9fbf51f60e01b81526001600160a01b038416600482015260240161048c565b8115610c005783856001600160a01b0316826001600160a01b03167f8c5be1e5ebec7d5bd14f71427d1e84f3dd0314c0f7b2291e5b200ac8c7c3b92560405160405180910390a45b505b5050600090815260046020526040902080546001600160a01b0319166001600160a01b0392909216919091179055565b610c3d838383610d6e565b6105bf576001600160a01b038316610c6b57604051637e27328960e01b81526004810182905260240161048c565b60405163177e802f60e01b81526001600160a01b03831660048201526024810182905260440161048c565b60008072184f03e93ff9f4daa797ed6e38ed64bf6a1f0160401b8310610cd55772184f03e93ff9f4daa797ed6e38ed64bf6a1f0160401b830492506040015b6d04ee2d6d415b85acef81000000008310610d01576d04ee2d6d415b85acef8100000000830492506020015b662386f26fc100008310610d1f57662386f26fc10000830492506010015b6305f5e1008310610d37576305f5e100830492506008015b6127108310610d4b57612710830492506004015b60648310610d5d576064830492506002015b600a83106102b55760010192915050565b60006001600160a01b03831615801590610dcc5750826001600160a01b0316846001600160a01b03161480610da85750610da884846106bd565b80610dcc57506000828152600460205260409020546001600160a01b038481169116145b949350505050565b6001600160e01b031981168114610dea57600080fd5b50565b600060208284031215610dff57600080fd5b81356106b681610dd4565b60005b83811015610e25578181015183820152602001610e0d565b50506000910152565b60008151808452610e46816020860160208601610e0a565b601f01601f19169290920160200192915050565b6020815260006106b66020830184610e2e565b600060208284031215610e7f57600080fd5b5035919050565b80356001600160a01b0381168114610e9d57600080fd5b919050565b60008060408385031215610eb557600080fd5b610ebe83610e86565b946020939093013593505050565b60008083601f840112610ede57600080fd5b50813567ffffffffffffffff811115610ef657600080fd5b602083019150836020828501011115610f0e57600080fd5b9250929050565b600080600080600080600060a0888a031215610f3057600080fd5b610f3988610e86565b965060208801359550604088013567ffffffffffffffff80821115610f5d57600080fd5b610f698b838c01610ecc565b909750955060608a0135945060808a0135915080821115610f8957600080fd5b50610f968a828b01610ecc565b989b979a50959850939692959293505050565b600080600060608486031215610fbe57600080fd5b610fc784610e86565b9250610fd560208501610e86565b9150604084013590509250925092565b600060208284031215610ff757600080fd5b6106b682610e86565b6000806040838503121561101357600080fd5b61101c83610e86565b91506020830135801515811461103157600080fd5b809150509250929050565b634e487b7160e01b600052604160045260246000fd5b6000806000806080858703121561106857600080fd5b61107185610e86565b935061107f60208601610e86565b925060408501359150606085013567ffffffffffffffff808211156110a357600080fd5b818701915087601f8301126110b757600080fd5b8135818111156110c9576110c961103c565b604051601f8201601f19908116603f011681019083821181831017156110f1576110f161103c565b816040528281528a602084870101111561110a57600080fd5b82602086016020830137600060208483010152809550505050505092959194509250565b6000806040838503121561114157600080fd5b61114a83610e86565b915061115860208401610e86565b90509250929050565b600181811c9082168061117557607f821691505b60208210810361119557634e487b7160e01b600052602260045260246000fd5b50919050565b81835281816020850137506000828201602090810191909152601f909101601f19169091010190565b85815284602082015260018060a01b03841660408201526080606082015260006111f260808301848661119b565b979650505050505050565b60006020828403121561120f57600080fd5b5051919050565b84815283602082015260606040820152600061123660608301848661119b565b9695505050505050565b60008351611252818460208801610e0a565b835190830190611266818360208801610e0a565b01949350505050565b808201808211156102b557634e487b7160e01b600052601160045260246000fd5b6001600160a01b038581168252841660208201526040810183905260806060820181905260009061123690830184610e2e565b6000602082840312156112d557600080fd5b81516106b681610dd456fea264697066735822122036f8f6077b7ed366a1a73c9010fda0f2031f07422c51604cd5e98d213420249764736f6c63430008140033","linkReferences":{}},"methodIdentifiers":{"approve(address,uint256)":"095ea7b3","balanceOf(address)":"70a08231","getApproved(uint256)":"081812fc","isApprovedForAll(address,address)":"e985e9c5","mintNFT(address,uint256,bytes,bytes32,bytes)":"fc38e943","name()":"06fdde03","nexus()":"a3f5c1d2","ownerOf(uint256)":"6352211e","safeTransferFrom(address,address,uint256)":"42842e0e","safeTransferFrom(address,address,uint256,bytes)":"b88d4fde","setApprovalForAll(address,bool)":"a22cb465","supportsInterface(bytes4)":"01ffc9a7","symbol()":"95d89b41","tokenURI(uint256)":"c87b56dd","transferFrom(address,address,uint256)":"23b872dd","verifyPayment(address,uint256,bytes,bytes32,bytes)":"1457f5dc"},"id":9}