{"abi":[{"type":"constructor","inputs":[{"name":"_selfNexusId","type":"bytes32","internalType":"bytes32"},{"name":"_paymentNexusId","type":"bytes32","internalType":"bytes32"},{"name":"_mailbox","type":"address","internalType":"contract INexusMailbox"}],"stateMutability":"nonpayable"},{"type":"function","name":"approve","inputs":[{"name":"to","type":"address","internalType":"address"},{"name":"tokenId","type":"uint256","internalType":"uint256"}],"outputs":[],"stateMutability":"nonpayable"},{"type":"function","name":"balanceOf","inputs":[{"name":"owner","type":"address","internalType":"address"}],"outputs":[{"name":"","type":"uint256","internalType":"uint256"}],"stateMutability":"view"},{"type":"function","name":"getApproved","inputs":[{"name":"tokenId","type":"uint256","internalType":"uint256"}],"outputs":[{"name":"","type":"address","internalType":"address"}],"stateMutability":"view"},{"type":"function","name":"isApprovedForAll","inputs":[{"name":"owner","type":"address","internalType":"address"},{"name":"operator","type":"address","internalType":"address"}],"outputs":[{"name":"","type":"bool","internalType":"bool"}],"stateMutability":"view"},{"type":"function","name":"lockNFT","inputs":[{"name":"tokenId","type":"uint256","internalType":"uint256"},{"name":"amount","type":"uint256","internalType":"uint256"},{"name":"nonce","type":"uint256","internalType":"uint256"},{"name":"tokenAddress","type":"address","internalType":"address"},{"name":"paymentReceiver","type":"address","internalType":"address"},{"name":"paymentFrom","type":"address","internalType":"address"},{"name":"nftReceiver","type":"address","internalType":"address"}],"outputs":[],"stateMutability":"nonpayable"},{"type":"function","name":"mailbox","inputs":[],"outputs":[{"name":"","type":"address","internalType":"contract INexusMailbox"}],"stateMutability":"view"},{"type":"function","name":"mint","inputs":[{"name":"tokenId","type":"uint256","internalType":"uint256"}],"outputs":[],"stateMutability":"nonpayable"},{"type":"function","name":"name","inputs":[],"outputs":[{"name":"","type":"string","internalType":"string"}],"stateMutability":"view"},{"type":"function","name":"onNexusMessage","inputs":[{"name":"nexusAppIDFrom","type":"bytes32","internalType":"bytes32"},{"name":"sender","type":"address","internalType":"address"},{"name":"data","type":"bytes","internalType":"bytes"},{"name":"nonce","type":"uint256","internalType":"uint256"}],"outputs":[],"stateMutability":"nonpayable"},{"type":"function","name":"ownerOf","inputs":[{"name":"tokenId","type":"uint256","internalType":"uint256"}],"outputs":[{"name":"","type":"address","internalType":"address"}],"stateMutability":"view"},{"type":"function","name":"safeTransferFrom","inputs":[{"name":"from","type":"address","internalType":"address"},{"name":"to","type":"address","internalType":"address"},{"name":"tokenId","type":"uint256","internalType":"uint256"}],"outputs":[],"stateMutability":"nonpayable"},{"type":"function","name":"safeTransferFrom","inputs":[{"name":"from","type":"address","internalType":"address"},{"name":"to","type":"address","internalType":"address"},{"name":"tokenId","type":"uint256","internalType":"uint256"},{"name":"data","type":"bytes","internalType":"bytes"}],"outputs":[],"stateMutability":"nonpayable"},{"type":"function","name":"setApprovalForAll","inputs":[{"name":"operator","type":"address","internalType":"address"},{"name":"approved","type":"bool","internalType":"bool"}],"outputs":[],"stateMutability":"nonpayable"},{"type":"function","name":"setNftPaymentContractAddress","inputs":[{"name":"_paymentContractAddress","type":"address","internalType":"address"}],"outputs":[],"stateMutability":"nonpayable"},{"type":"function","name":"supportsInterface","inputs":[{"name":"interfaceId","type":"bytes4","internalType":"bytes4"}],"outputs":[{"name":"","type":"bool","internalType":"bool"}],"stateMutability":"view"},{"type":"function","name":"symbol","inputs":[],"outputs":[{"name":"","type":"string","internalType":"string"}],"stateMutability":"view"},{"type":"function","name":"tokenURI","inputs":[{"name":"tokenId","type":"uint256","internalType":"uint256"}],"outputs":[{"name":"","type":"string","internalType":"string"}],"stateMutability":"view"},{"type":"function","name":"transferFrom","inputs":[{"name":"from","type":"address","internalType":"address"},{"name":"to","type":"address","internalType":"address"},{"name":"tokenId","type":"uint256","internalType":"uint256"}],"outputs":[],"stateMutability":"nonpayable"},{"type":"function","name":"transferNFT","inputs":[{"name":"chainBlockNumber","type":"uint256","internalType":"uint256"},{"name":"mailboxReceipt","type":"tuple","internalType":"struct MailboxMessage","components":[{"name":"nexusAppIDFrom","type":"bytes32","internalType":"bytes32"},{"name":"nexusAppIDTo","type":"bytes32[]","internalType":"bytes32[]"},{"name":"data","type":"bytes","internalType":"bytes"},{"name":"from","type":"address","internalType":"address"},{"name":"to","type":"address[]","internalType":"address[]"},{"name":"nonce","type":"uint256","internalType":"uint256"}]},{"name":"proof","type":"bytes","internalType":"bytes"}],"outputs":[],"stateMutability":"nonpayable"},{"type":"function","name":"withdrawNFT","inputs":[{"name":"tokenID","type":"uint256","internalType":"uint256"},{"name":"proof","type":"bytes","internalType":"bytes"}],"outputs":[],"stateMutability":"nonpayable"},{"type":"event","name":"Approval","inputs":[{"name":"owner","type":"address","indexed":true,"internalType":"address"},{"name":"approved","type":"address","indexed":true,"internalType":"address"},{"name":"tokenId","type":"uint256","indexed":true,"internalType":"uint256"}],"anonymous":false},{"type":"event","name":"ApprovalForAll","inputs":[{"name":"owner","type":"address","indexed":true,"internalType":"address"},{"name":"operator","type":"address","indexed":true,"internalType":"address"},{"name":"approved","type":"bool","indexed":false,"internalType":"bool"}],"anonymous":false},{"type":"event","name":"Confirmation","inputs":[{"name":"tokenId","type":"uint256","indexed":false,"internalType":"uint256"},{"name":"to","type":"address","indexed":false,"internalType":"address"}],"anonymous":false},{"type":"event","name":"Transfer","inputs":[{"name":"from","type":"address","indexed":true,"internalType":"address"},{"name":"to","type":"address","indexed":true,"internalType":"address"},{"name":"tokenId","type":"uint256","indexed":true,"internalType":"uint256"}],"anonymous":false},{"type":"error","name":"CannotWithdrawBeforeTimeout","inputs":[]},{"type":"error","name":"ERC721IncorrectOwner","inputs":[{"name":"sender","type":"address","internalType":"address"},{"name":"tokenId","type":"uint256","internalType":"uint256"},{"name":"owner","type":"address","internalType":"address"}]},{"type":"error","name":"ERC721InsufficientApproval","inputs":[{"name":"operator","type":"address","internalType":"address"},{"name":"tokenId","type":"uint256","internalType":"uint256"}]},{"type":"error","name":"ERC721InvalidApprover","inputs":[{"name":"approver","type":"address","internalType":"address"}]},{"type":"error","name":"ERC721InvalidOperator","inputs":[{"name":"operator","type":"address","internalType":"address"}]},{"type":"error","name":"ERC721InvalidOwner","inputs":[{"name":"owner","type":"address","internalType":"address"}]},{"type":"error","name":"ERC721InvalidReceiver","inputs":[{"name":"receiver","type":"address","internalType":"address"}]},{"type":"error","name":"ERC721InvalidSender","inputs":[{"name":"sender","type":"address","internalType":"address"}]},{"type":"error","name":"ERC721NonexistentToken","inputs":[{"name":"tokenId","type":"uint256","internalType":"uint256"}]},{"type":"error","name":"InvalidChain","inputs":[]},{"type":"error","name":"InvalidSender","inputs":[]},{"type":"error","name":"TransferAlreadyCompleted","inputs":[]}],"bytecode":{"object":"0x60c060405234801561000f575f80fd5b506040516121fe3803806121fe83398101604081905261002e916100b6565b60405180604001604052806005815260200164135e53919560da1b815250604051806040016040528060048152602001631353919560e21b815250815f90816100779190610190565b5060016100848282610190565b5050600680546001600160a01b0319166001600160a01b0393909316929092179091555060809190915260a05261024f565b5f805f606084860312156100c8575f80fd5b83516020850151604086015191945092506001600160a01b03811681146100ed575f80fd5b809150509250925092565b634e487b7160e01b5f52604160045260245ffd5b600181811c9082168061012057607f821691505b60208210810361013e57634e487b7160e01b5f52602260045260245ffd5b50919050565b601f82111561018b57805f5260205f20601f840160051c810160208510156101695750805b601f840160051c820191505b81811015610188575f8155600101610175565b50505b505050565b81516001600160401b038111156101a9576101a96100f8565b6101bd816101b7845461010c565b84610144565b602080601f8311600181146101f0575f84156101d95750858301515b5f19600386901b1c1916600185901b178555610247565b5f85815260208120601f198616915b8281101561021e578886015182559484019460019091019084016101ff565b508582101561023b57878501515f19600388901b60f8161c191681555b505060018460011b0185555b505050505050565b60805160a051611f876102775f395f81816106eb0152610b9901525f6105d90152611f875ff3fe608060405234801561000f575f80fd5b5060043610610127575f3560e01c806395d89b41116100a9578063d5438eae1161006e578063d5438eae14610299578063e3844a11146102ac578063e985e9c5146102bf578063ecb8171f146102d2578063feb0e395146102e5575f80fd5b806395d89b4114610245578063a0712d681461024d578063a22cb46514610260578063b88d4fde14610273578063c87b56dd14610286575f80fd5b806323b872dd116100ef57806323b872dd146101d85780633662a73f146101eb57806342842e0e146101fe5780636352211e1461021157806370a0823114610224575f80fd5b806301ffc9a71461012b57806306fdde0314610153578063081812fc14610168578063095ea7b31461019357806323b38774146101a8575b5f80fd5b61013e610139366004611645565b6102f8565b60405190151581526020015b60405180910390f35b61015b610349565b60405161014a919061168e565b61017b6101763660046116a0565b6103d8565b6040516001600160a01b03909116815260200161014a565b6101a66101a13660046116db565b6103ff565b005b6101a66101b6366004611705565b600780546001600160a01b0319166001600160a01b0392909216919091179055565b6101a66101e6366004611720565b61040e565b6101a66101f93660046117a3565b61049c565b6101a661020c366004611720565b61085a565b61017b61021f3660046116a0565b610879565b610237610232366004611705565b610883565b60405190815260200161014a565b61015b6108c8565b6101a661025b3660046116a0565b6108d7565b6101a661026e3660046117eb565b6108e4565b6101a66102813660046118c3565b6108ef565b61015b6102943660046116a0565b610906565b60065461017b906001600160a01b031681565b6101a66102ba36600461192b565b610977565b61013e6102cd3660046119a1565b610b6a565b6101a66102e03660046119cd565b610b97565b6101a66102f3366004611a2a565b610e95565b5f6001600160e01b031982166380ac58cd60e01b148061032857506001600160e01b03198216635b5e139f60e01b145b8061034357506301ffc9a760e01b6001600160e01b03198316145b92915050565b60605f805461035790611a9c565b80601f016020809104026020016040519081016040528092919081815260200182805461038390611a9c565b80156103ce5780601f106103a5576101008083540402835291602001916103ce565b820191905f5260205f20905b8154815290600101906020018083116103b157829003601f168201915b5050505050905090565b5f6103e282610ef4565b505f828152600460205260409020546001600160a01b0316610343565b61040a828233610f2c565b5050565b6001600160a01b03821661043c57604051633250574960e11b81525f60048201526024015b60405180910390fd5b5f610448838333610f39565b9050836001600160a01b0316816001600160a01b031614610496576040516364283d7b60e01b81526001600160a01b0380861660048301526024820184905282166044820152606401610433565b50505050565b5f8381526008602081815260409283902083516101208101855281546001600160a01b039081168252600183015493820193909352600282015494810194909452600381015482166060850152600481015460808501819052600582015460a08601526006820154831660c08601526007820154831660e086015292015416610100830152439061052f90600a90611ad4565b101561054e5760405163015e82a960e31b815260040160405180910390fd5b80516001600160a01b0316331461057857604051636edaef2f60e11b815260040160405180910390fd5b306001600160a01b031661058f8260200151610879565b6001600160a01b0316036105b6576040516305de099160e31b815260040160405180910390fd5b6040805160018082528183019092525f91602080830190803683370190505090507f0000000000000000000000000000000000000000000000000000000000000000815f8151811061060a5761060a611af3565b60209081029190910101526040805160018082528183019092525f9181602001602082028036833701905050905030815f8151811061064b5761064b611af3565b60200260200101906001600160a01b031690816001600160a01b0316815250505f6040518060a001604052808560e001516001600160a01b031681526020018560c001516001600160a01b03168152602001856020015181526020018560400151815260200185606001516001600160a01b031681525090505f816040516020016106d69190611b07565b60408051601f1981840301815260c0830182527f00000000000000000000000000000000000000000000000000000000000000008352602083018790528282018190526007546001600160a01b0390811660608501526080840187905260a0898101519085015260065492519194505f92169061075d90839085908d908d90602401611bb5565b60408051601f198184030181529181526020820180516001600160e01b031663c9cab87960e01b179052516107929190611cb1565b5f604051808303815f865af19150503d805f81146107cb576040519150601f19603f3d011682016040523d82523d5f602084013e6107d0565b606091505b505090508061084e576107eb30885f0151896020015161040e565b5f8a8152600860208190526040822080546001600160a01b03199081168255600182018490556002820184905560038201805482169055600482018490556005820193909355600681018054841690556007810180548416905501805490911690555b50505050505050505050565b61087483838360405180602001604052805f8152506108ef565b505050565b5f61034382610ef4565b5f6001600160a01b0382166108ad576040516322718ad960e21b81525f6004820152602401610433565b506001600160a01b03165f9081526003602052604090205490565b60606001805461035790611a9c565b6108e1338261102b565b50565b61040a33838361108c565b6108fa84848461040e565b6104968484848461112a565b606061091182610ef4565b505f61092760408051602081019091525f815290565b90505f8151116109455760405180602001604052805f815250610970565b8061094f84611250565b604051602001610960929190611cbc565b6040516020818303038152906040525b9392505050565b5f87815260086020526040902060010154156109cd5760405162461bcd60e51b8152602060048201526015602482015274139195081a5cc8185b1c9958591e481b1bd8dad959605a1b6044820152606401610433565b5f604051806101200160405280336001600160a01b03168152602001898152602001888152602001866001600160a01b03168152602001438152602001878152602001856001600160a01b03168152602001846001600160a01b03168152602001836001600160a01b031681525090508060085f8a81526020019081526020015f205f820151815f015f6101000a8154816001600160a01b0302191690836001600160a01b0316021790555060208201518160010155604082015181600201556060820151816003015f6101000a8154816001600160a01b0302191690836001600160a01b031602179055506080820151816004015560a0820151816005015560c0820151816006015f6101000a8154816001600160a01b0302191690836001600160a01b0316021790555060e0820151816007015f6101000a8154816001600160a01b0302191690836001600160a01b03160217905550610100820151816008015f6101000a8154816001600160a01b0302191690836001600160a01b03160217905550905050610b6033308a61040e565b5050505050505050565b6001600160a01b039182165f90815260056020908152604080832093909416825291909152205460ff1690565b7f00000000000000000000000000000000000000000000000000000000000000008414610bd75760405163057f3fa760e51b815260040160405180910390fd5b6007546001600160a01b03848116911614610c0557604051636edaef2f60e11b815260040160405180910390fd5b5f82806020019051810190610c1a9190611cd0565b6040808201515f908152600860208181529183902083516101208101855281546001600160a01b03908116825260018301549482019490945260028201549481019490945260038101548316606085015260048101546080850152600581015460a085018190526006820154841660c08601526007820154841660e0860152910154909116610100830152919250908314610ce85760405162461bcd60e51b815260206004820152600e60248201526d09cdedcc6ca40dad2e6dac2e8c6d60931b6044820152606401610433565b5f6040518060a001604052808360e001516001600160a01b031681526020018360c001516001600160a01b03168152602001836020015181526020018360400151815260200183606001516001600160a01b03168152509050848051906020012081604051602001610d5a9190611b07565b6040516020818303038152906040528051906020012014610dbd5760405162461bcd60e51b815260206004820152601d60248201527f5061796d656e7420726563656970742068617368206d69736d617463680000006044820152606401610433565b610dd13083610100015184602001516112e0565b7f1f7db319f45151674bbce08ad4e1093bca1941bc7ef2f91ccafd6519406f010182602001518360c00151604051610e1c9291909182526001600160a01b0316602082015260400190565b60405180910390a150506040908101515f9081526008602081905291812080546001600160a01b0319908116825560018201839055600282018390556003820180548216905560048201839055600582019290925560068101805483169055600781018054831690559091018054909116905550505050565b60065460405163151086c360e01b81526001600160a01b039091169063151086c390610ecb908790879087908790600401611e19565b5f604051808303815f87803b158015610ee2575f80fd5b505af1158015610b60573d5f803e3d5ffd5b5f818152600260205260408120546001600160a01b03168061034357604051637e27328960e01b815260048101849052602401610433565b610874838383600161138d565b5f828152600260205260408120546001600160a01b0390811690831615610f6557610f65818486611491565b6001600160a01b03811615610f9f57610f805f855f8061138d565b6001600160a01b0381165f90815260036020526040902080545f190190555b6001600160a01b03851615610fcd576001600160a01b0385165f908152600360205260409020805460010190555b5f8481526002602052604080822080546001600160a01b0319166001600160a01b0389811691821790925591518793918516917fddf252ad1be2c89b69c2b068fc378daa952ba7f163c4a11628f55a4df523b3ef91a4949350505050565b6001600160a01b03821661105457604051633250574960e11b81525f6004820152602401610433565b5f61106083835f610f39565b90506001600160a01b03811615610874576040516339e3563760e11b81525f6004820152602401610433565b6001600160a01b0382166110be57604051630b61174360e31b81526001600160a01b0383166004820152602401610433565b6001600160a01b038381165f81815260056020908152604080832094871680845294825291829020805460ff191686151590811790915591519182527f17307eab39ab6107e8899845ad3d59bd9653f200f220920489ca2b5937696c31910160405180910390a3505050565b6001600160a01b0383163b1561049657604051630a85bd0160e11b81526001600160a01b0384169063150b7a029061116c903390889087908790600401611efa565b6020604051808303815f875af19250505080156111a6575060408051601f3d908101601f191682019092526111a391810190611f36565b60015b61120d573d8080156111d3576040519150601f19603f3d011682016040523d82523d5f602084013e6111d8565b606091505b5080515f0361120557604051633250574960e11b81526001600160a01b0385166004820152602401610433565b805181602001fd5b6001600160e01b03198116630a85bd0160e11b1461124957604051633250574960e11b81526001600160a01b0385166004820152602401610433565b5050505050565b60605f61125c836114f5565b60010190505f8167ffffffffffffffff81111561127b5761127b611826565b6040519080825280601f01601f1916602001820160405280156112a5576020820181803683370190505b5090508181016020015b5f19016f181899199a1a9b1b9c1cb0b131b232b360811b600a86061a8153600a85049450846112af57509392505050565b6001600160a01b03821661130957604051633250574960e11b81525f6004820152602401610433565b5f61131583835f610f39565b90506001600160a01b03811661134157604051637e27328960e01b815260048101839052602401610433565b836001600160a01b0316816001600160a01b031614610496576040516364283d7b60e01b81526001600160a01b0380861660048301526024820184905282166044820152606401610433565b80806113a157506001600160a01b03821615155b15611462575f6113b084610ef4565b90506001600160a01b038316158015906113dc5750826001600160a01b0316816001600160a01b031614155b80156113ef57506113ed8184610b6a565b155b156114185760405163a9fbf51f60e01b81526001600160a01b0384166004820152602401610433565b81156114605783856001600160a01b0316826001600160a01b03167f8c5be1e5ebec7d5bd14f71427d1e84f3dd0314c0f7b2291e5b200ac8c7c3b92560405160405180910390a45b505b50505f90815260046020526040902080546001600160a01b0319166001600160a01b0392909216919091179055565b61149c8383836115cc565b610874576001600160a01b0383166114ca57604051637e27328960e01b815260048101829052602401610433565b60405163177e802f60e01b81526001600160a01b038316600482015260248101829052604401610433565b5f8072184f03e93ff9f4daa797ed6e38ed64bf6a1f0160401b83106115335772184f03e93ff9f4daa797ed6e38ed64bf6a1f0160401b830492506040015b6d04ee2d6d415b85acef8100000000831061155f576d04ee2d6d415b85acef8100000000830492506020015b662386f26fc10000831061157d57662386f26fc10000830492506010015b6305f5e1008310611595576305f5e100830492506008015b61271083106115a957612710830492506004015b606483106115bb576064830492506002015b600a83106103435760010192915050565b5f6001600160a01b038316158015906116285750826001600160a01b0316846001600160a01b0316148061160557506116058484610b6a565b8061162857505f828152600460205260409020546001600160a01b038481169116145b949350505050565b6001600160e01b0319811681146108e1575f80fd5b5f60208284031215611655575f80fd5b813561097081611630565b5f81518084528060208401602086015e5f602082860101526020601f19601f83011685010191505092915050565b602081525f6109706020830184611660565b5f602082840312156116b0575f80fd5b5035919050565b6001600160a01b03811681146108e1575f80fd5b80356116d6816116b7565b919050565b5f80604083850312156116ec575f80fd5b82356116f7816116b7565b946020939093013593505050565b5f60208284031215611715575f80fd5b8135610970816116b7565b5f805f60608486031215611732575f80fd5b833561173d816116b7565b9250602084013561174d816116b7565b929592945050506040919091013590565b5f8083601f84011261176e575f80fd5b50813567ffffffffffffffff811115611785575f80fd5b60208301915083602082850101111561179c575f80fd5b9250929050565b5f805f604084860312156117b5575f80fd5b83359250602084013567ffffffffffffffff8111156117d2575f80fd5b6117de8682870161175e565b9497909650939450505050565b5f80604083850312156117fc575f80fd5b8235611807816116b7565b91506020830135801515811461181b575f80fd5b809150509250929050565b634e487b7160e01b5f52604160045260245ffd5b5f82601f830112611849575f80fd5b813567ffffffffffffffff8082111561186457611864611826565b604051601f8301601f19908116603f0116810190828211818310171561188c5761188c611826565b816040528381528660208588010111156118a4575f80fd5b836020870160208301375f602085830101528094505050505092915050565b5f805f80608085870312156118d6575f80fd5b84356118e1816116b7565b935060208501356118f1816116b7565b925060408501359150606085013567ffffffffffffffff811115611913575f80fd5b61191f8782880161183a565b91505092959194509250565b5f805f805f805f60e0888a031215611941575f80fd5b8735965060208801359550604088013594506060880135611961816116b7565b93506080880135611971816116b7565b925060a0880135611981816116b7565b915060c0880135611991816116b7565b8091505092959891949750929550565b5f80604083850312156119b2575f80fd5b82356119bd816116b7565b9150602083013561181b816116b7565b5f805f80608085870312156119e0575f80fd5b8435935060208501356119f2816116b7565b9250604085013567ffffffffffffffff811115611a0d575f80fd5b611a198782880161183a565b949793965093946060013593505050565b5f805f8060608587031215611a3d575f80fd5b84359350602085013567ffffffffffffffff80821115611a5b575f80fd5b9086019060c08289031215611a6e575f80fd5b90935060408601359080821115611a83575f80fd5b50611a908782880161175e565b95989497509550505050565b600181811c90821680611ab057607f821691505b602082108103611ace57634e487b7160e01b5f52602260045260245ffd5b50919050565b8082018082111561034357634e487b7160e01b5f52601160045260245ffd5b634e487b7160e01b5f52603260045260245ffd5b81516001600160a01b0390811682526020808401518216908301526040808401519083015260608084015190830152608092830151169181019190915260a00190565b5f815180845260208085019450602084015f5b83811015611b825781516001600160a01b031687529582019590820190600101611b5d565b509495945050505050565b81835281816020850137505f828201602090810191909152601f909101601f19169091010190565b60ff851681525f602060606020840152610120830186516060850152602087015160c06080860152818151808452610140870191506020830193505f92505b80831015611c145783518252928401926001929092019190840190611bf4565b5060408901519350605f199250828682030160a0870152611c358185611660565b935050506060870151611c5360c08601826001600160a01b03169052565b506080870151818584030160e0860152611c6d8382611b4a565b9250505060a08601516101008401528281036040840152611c8f818587611b8d565b979650505050505050565b5f81518060208401855e5f93019283525090919050565b5f6109708284611c9a565b5f611628611cca8386611c9a565b84611c9a565b5f60a08284031215611ce0575f80fd5b60405160a0810181811067ffffffffffffffff82111715611d0357611d03611826565b6040528251611d11816116b7565b81526020830151611d21816116b7565b8060208301525060408301516040820152606083015160608201526080830151611d4a816116b7565b60808201529392505050565b5f808335601e19843603018112611d6b575f80fd5b830160208101925035905067ffffffffffffffff811115611d8a575f80fd5b8060051b360382131561179c575f80fd5b5f808335601e19843603018112611db0575f80fd5b830160208101925035905067ffffffffffffffff811115611dcf575f80fd5b80360382131561179c575f80fd5b8183525f60208085019450825f5b85811015611b82578135611dfe816116b7565b6001600160a01b031687529582019590820190600101611deb565b84815260606020820152833560608201525f611e386020860186611d56565b60c0608085015261012084018190526101406001600160fb1b03821115611e5d575f80fd5b8160051b91508183828701378185019250611e7b6040890189611d9b565b925060e08685030160a0870152611e958285018483611b8d565b9350505050611ea6606087016116cb565b6001600160a01b031660c0840152611ec16080870187611d56565b848303605f190160e0860152611ed8838284611ddd565b9250505060a08601356101008401528281036040840152611c8f818587611b8d565b6001600160a01b03858116825284166020820152604081018390526080606082018190525f90611f2c90830184611660565b9695505050505050565b5f60208284031215611f46575f80fd5b81516109708161163056fea26469706673582212209a6a4e0972502974b1178b2c26afab26a05dd1c9ce5d101bb6df980fa0fcd96864736f6c63430008190033","linkReferences":{}},"methodIdentifiers":{"approve(address,uint256)":"095ea7b3","balanceOf(address)":"70a08231","getApproved(uint256)":"081812fc","isApprovedForAll(address,address)":"e985e9c5","lockNFT(uint256,uint256,uint256,address,address,address,address)":"e3844a11","mailbox()":"d5438eae","mint(uint256)":"a0712d68","name()":"06fdde03","onNexusMessage(bytes32,address,bytes,uint256)":"ecb8171f","ownerOf(uint256)":"6352211e","safeTransferFrom(address,address,uint256)":"42842e0e","safeTransferFrom(address,address,uint256,bytes)":"b88d4fde","setApprovalForAll(address,bool)":"a22cb465","setNftPaymentContractAddress(address)":"23b38774","supportsInterface(bytes4)":"01ffc9a7","symbol()":"95d89b41","tokenURI(uint256)":"c87b56dd","transferFrom(address,address,uint256)":"23b872dd","transferNFT(uint256,(bytes32,bytes32[],bytes,address,address[],uint256),bytes)":"feb0e395","withdrawNFT(uint256,bytes)":"3662a73f"},"id":9}