{"abi":[{"type":"constructor","inputs":[{"name":"_mailbox","type":"address","internalType":"contract INexusMailbox"},{"name":"_nftNexusId","type":"bytes32","internalType":"bytes32"},{"name":"_nftContractAddress","type":"address","internalType":"address"}],"stateMutability":"nonpayable"},{"type":"function","name":"MESSAGES_MAPPING_SLOT","inputs":[],"outputs":[{"name":"","type":"uint256","internalType":"uint256"}],"stateMutability":"view"},{"type":"function","name":"getCurrentNonce","inputs":[{"name":"account","type":"address","internalType":"address"}],"outputs":[{"name":"","type":"uint256","internalType":"uint256"}],"stateMutability":"view"},{"type":"function","name":"getStorageLocationForReceipt","inputs":[{"name":"_receiptHash","type":"bytes32","internalType":"bytes32"}],"outputs":[{"name":"","type":"bytes32","internalType":"bytes32"}],"stateMutability":"pure"},{"type":"function","name":"mailbox","inputs":[],"outputs":[{"name":"","type":"address","internalType":"contract INexusMailbox"}],"stateMutability":"view"},{"type":"function","name":"pay","inputs":[{"name":"tokenAddress","type":"address","internalType":"address"},{"name":"amount","type":"uint256","internalType":"uint256"},{"name":"nftId","type":"uint256","internalType":"uint256"},{"name":"to","type":"address","internalType":"address"}],"outputs":[],"stateMutability":"nonpayable"},{"type":"event","name":"PendingPayout","inputs":[{"name":"index","type":"uint256","indexed":false,"internalType":"uint256"},{"name":"to","type":"address","indexed":false,"internalType":"address"}],"anonymous":false},{"type":"error","name":"AlreadyPaidFor","inputs":[]}],"bytecode":{"object":"0x60c060405234801561000f575f80fd5b5060405161063438038061063483398101604081905261002e9161006f565b5f80546001600160a01b0319166001600160a01b039485161790556080919091521660a0526100af565b6001600160a01b038116811461006c575f80fd5b50565b5f805f60608486031215610081575f80fd5b835161008c81610058565b6020850151604086015191945092506100a481610058565b809150509250925092565b60805160a0516105646100d05f395f61028701525f61022601526105645ff3fe608060405234801561000f575f80fd5b5060043610610055575f3560e01c806309286f1114610059578063553f75fb1461006e5780637919225114610088578063d094422e146100b0578063d5438eae146100e9575b5f80fd5b61006c610067366004610392565b610113565b005b6100755f81565b6040519081526020015b60405180910390f35b6100756100963660046103d5565b6001600160a01b03165f9081526001602052604090205490565b6100756100be3660046103f5565b604080516020808201939093525f818301528151808203830181526060909101909152805191012090565b5f546100fb906001600160a01b031681565b6040516001600160a01b03909116815260200161007f565b6040516323b872dd60e01b81523360048201526001600160a01b038281166024830152604482018590528516906323b872dd906064016020604051808303815f875af1158015610165573d5f803e3d5ffd5b505050506040513d601f19601f82011682018060405250810190610189919061040c565b506040805160a08082018352338083526001600160a01b03858116602080860191825285870189815260608088018c81528d86166080808b019182528b5195860198909852945186169984019990995290519082015295519286019290925290511690830152905f9060c00160408051808303601f19018152600180845283830190925292505f91908160200160208202803683370190505090507f0000000000000000000000000000000000000000000000000000000000000000815f815181106102575761025761042b565b60209081029190910101526040805160018082528183019092525f918160200160208202803683370190505090507f0000000000000000000000000000000000000000000000000000000000000000815f815181106102b8576102b861042b565b6001600160a01b039283166020918202929092018101919091525f805433825260019283905260409091205492169163cb8d653c91859185916102fb919061043f565b876040518563ffffffff1660e01b815260040161031b9493929190610492565b5f604051808303815f87803b158015610332575f80fd5b505af1158015610344573d5f803e3d5ffd5b5050335f90815260016020819052604082208054919450925061036890849061043f565b90915550505050505050505050565b80356001600160a01b038116811461038d575f80fd5b919050565b5f805f80608085870312156103a5575f80fd5b6103ae85610377565b935060208501359250604085013591506103ca60608601610377565b905092959194509250565b5f602082840312156103e5575f80fd5b6103ee82610377565b9392505050565b5f60208284031215610405575f80fd5b5035919050565b5f6020828403121561041c575f80fd5b815180151581146103ee575f80fd5b634e487b7160e01b5f52603260045260245ffd5b8082018082111561045e57634e487b7160e01b5f52601160045260245ffd5b92915050565b5f81518084528060208401602086015e5f602082860101526020601f19601f83011685010191505092915050565b608080825285519082018190525f9060209060a0840190828901845b828110156104ca578151845292840192908401906001016104ae565b505050838103828501528651808252878301918301905f5b818110156105075783516001600160a01b0316835292840192918401916001016104e2565b505086604086015284810360608601526105218187610464565b999850505050505050505056fea2646970667358221220c4d47e34a5ee5759056206dd583f3662b7de6c40558453db0fb8af3b483ca84a64736f6c63430008190033","linkReferences":{}},"methodIdentifiers":{"MESSAGES_MAPPING_SLOT()":"553f75fb","getCurrentNonce(address)":"79192251","getStorageLocationForReceipt(bytes32)":"d094422e","mailbox()":"d5438eae","pay(address,uint256,uint256,address)":"09286f11"},"id":2}