{
  "abi": [
    {
      "type": "constructor",
      "inputs": [
        {
          "name": "nexusManager",
          "type": "address",
          "internalType": "contract INexusProofManager"
        },
        {
          "name": "fixedPayoutAddress",
          "type": "address",
          "internalType": "address"
        },
        {
          "name": "targetContractAddress",
          "type": "address",
          "internalType": "address"
        }
      ],
      "stateMutability": "nonpayable"
    },
    {
      "type": "function",
      "name": "NAMES_MAPPING_SLOT",
      "inputs": [],
      "outputs": [
        {
          "name": "",
          "type": "uint256",
          "internalType": "uint256"
        }
      ],
      "stateMutability": "view"
    },
    {
      "type": "function",
      "name": "claimPayment",
      "inputs": [
        {
          "name": "index",
          "type": "uint256",
          "internalType": "uint256"
        }
      ],
      "outputs": [],
      "stateMutability": "nonpayable"
    },
    {
      "type": "function",
      "name": "getStorageLocationForKey",
      "inputs": [
        {
          "name": "_key",
          "type": "uint256",
          "internalType": "uint256"
        }
      ],
      "outputs": [
        {
          "name": "",
          "type": "bytes32",
          "internalType": "bytes32"
        }
      ],
      "stateMutability": "pure"
    },
    {
      "type": "function",
      "name": "getStorageRoot",
      "inputs": [
        {
          "name": "nexusAppID",
          "type": "bytes32",
          "internalType": "bytes32"
        },
        {
          "name": "chainBlockNumber",
          "type": "uint256",
          "internalType": "uint256"
        },
        {
          "name": "account",
          "type": "address",
          "internalType": "address"
        },
        {
          "name": "accountTrieProof",
          "type": "bytes",
          "internalType": "bytes"
        }
      ],
      "outputs": [
        {
          "name": "",
          "type": "bytes32",
          "internalType": "bytes32"
        }
      ],
      "stateMutability": "view"
    },
    {
      "type": "function",
      "name": "getValueFromId",
      "inputs": [
        {
          "name": "key",
          "type": "uint256",
          "internalType": "uint256"
        }
      ],
      "outputs": [
        {
          "name": "",
          "type": "bytes32",
          "internalType": "bytes32"
        }
      ],
      "stateMutability": "view"
    },
    {
      "type": "function",
      "name": "nexus",
      "inputs": [],
      "outputs": [
        {
          "name": "",
          "type": "address",
          "internalType": "contract INexusProofManager"
        }
      ],
      "stateMutability": "view"
    },
    {
      "type": "function",
      "name": "paymentWithoutFallback",
      "inputs": [
        {
          "name": "messageType",
          "type": "bytes1",
          "internalType": "bytes1"
        },
        {
          "name": "chainId",
          "type": "uint256",
          "internalType": "uint256"
        },
        {
          "name": "amount",
          "type": "uint256",
          "internalType": "uint256"
        },
        {
          "name": "payoutToken",
          "type": "address",
          "internalType": "address"
        }
      ],
      "outputs": [],
      "stateMutability": "nonpayable"
    },
    {
      "type": "function",
      "name": "updatePrice",
      "inputs": [
        {
          "name": "token",
          "type": "address",
          "internalType": "address"
        },
        {
          "name": "price",
          "type": "uint256",
          "internalType": "uint256"
        }
      ],
      "outputs": [],
      "stateMutability": "nonpayable"
    },
    {
      "type": "function",
      "name": "verifyAccount",
      "inputs": [
        {
          "name": "latestState",
          "type": "bytes32",
          "internalType": "bytes32"
        },
        {
          "name": "accountTrieProof",
          "type": "bytes",
          "internalType": "bytes"
        },
        {
          "name": "account",
          "type": "address",
          "internalType": "address"
        }
      ],
      "outputs": [
        {
          "name": "nonce",
          "type": "uint256",
          "internalType": "uint256"
        },
        {
          "name": "accountBalance",
          "type": "uint256",
          "internalType": "uint256"
        },
        {
          "name": "codeHash",
          "type": "bytes32",
          "internalType": "bytes32"
        },
        {
          "name": "storageRoot",
          "type": "bytes32",
          "internalType": "bytes32"
        }
      ],
      "stateMutability": "pure"
    },
    {
      "type": "function",
      "name": "verifyPayment",
      "inputs": [
        {
          "name": "paymentChainBlockNumber",
          "type": "bytes32",
          "internalType": "bytes32"
        },
        {
          "name": "accountTrieProof",
          "type": "bytes",
          "internalType": "bytes"
        },
        {
          "name": "slot",
          "type": "bytes32",
          "internalType": "bytes32"
        },
        {
          "name": "storageSlotTrieProof",
          "type": "bytes",
          "internalType": "bytes"
        }
      ],
      "outputs": [],
      "stateMutability": "nonpayable"
    },
    {
      "type": "function",
      "name": "verifyStorage",
      "inputs": [
        {
          "name": "storageRoot",
          "type": "bytes32",
          "internalType": "bytes32"
        },
        {
          "name": "slot",
          "type": "bytes32",
          "internalType": "bytes32"
        },
        {
          "name": "storageSlotTrieProof",
          "type": "bytes",
          "internalType": "bytes"
        }
      ],
      "outputs": [
        {
          "name": "slotValue",
          "type": "bytes32",
          "internalType": "bytes32"
        }
      ],
      "stateMutability": "pure"
    },
    {
      "type": "event",
      "name": "NewEntry",
      "inputs": [
        {
          "name": "key",
          "type": "uint256",
          "indexed": false,
          "internalType": "uint256"
        },
        {
          "name": "hash_value",
          "type": "bytes32",
          "indexed": false,
          "internalType": "bytes32"
        }
      ],
      "anonymous": false
    },
    {
      "type": "event",
      "name": "PendingPayout",
      "inputs": [
        {
          "name": "index",
          "type": "uint256",
          "indexed": false,
          "internalType": "uint256"
        },
        {
          "name": "to",
          "type": "address",
          "indexed": false,
          "internalType": "address"
        }
      ],
      "anonymous": false
    },
    {
      "type": "event",
      "name": "PreImage",
      "inputs": [
        {
          "name": "messageType",
          "type": "bytes1",
          "indexed": false,
          "internalType": "bytes1"
        },
        {
          "name": "from",
          "type": "bytes32",
          "indexed": false,
          "internalType": "bytes32"
        },
        {
          "name": "data",
          "type": "bytes",
          "indexed": false,
          "internalType": "bytes"
        },
        {
          "name": "messageId",
          "type": "uint256",
          "indexed": false,
          "internalType": "uint256"
        },
        {
          "name": "chainId",
          "type": "uint256",
          "indexed": false,
          "internalType": "uint256"
        }
      ],
      "anonymous": false
    }
  ],
  "bytecode": {
    "object": "0x60e060405262015180600255600060035534801561001c57600080fd5b506040516123ef3803806123ef83398101604081905261003b91610085565b6001600160a01b039283166080819052600180546001600160a01b031916909117905590821660a0521660c0526100d2565b6001600160a01b038116811461008257600080fd5b50565b60008060006060848603121561009a57600080fd5b83516100a58161006d565b60208501519093506100b68161006d565b60408501519092506100c78161006d565b809150509250925092565b60805160a05160c0516122e061010f60003960006107f30152600081816103ac015261045201526000818161059f015261067701526122e06000f3fe608060405234801561001057600080fd5b50600436106100a95760003560e01c80639a089eb6116100715780639a089eb614610166578063a3f5c1d214610179578063adf28726146101a4578063ae7b2596146101ac578063c63fdcc7146101bf578063fbf611a7146101d257600080fd5b80633eabceeb146100ae578063457972de146100e15780636f7096dc1461010d5780637f1b8c731461012057806380a7459714610153575b600080fd5b6100ce6100bc366004611d6b565b60009081526020819052604090205490565b6040519081526020015b60405180910390f35b61010b6100ef366004611da0565b6001600160a01b03909116600090815260046020526040902055565b005b6100ce61011b366004611e6d565b61020c565b61013361012e366004611ebd565b61027e565b6040805194855260208501939093529183015260608201526080016100d8565b61010b610161366004611f14565b6102f1565b6100ce610174366004611fb2565b610586565b60015461018c906001600160a01b031681565b6040516001600160a01b0390911681526020016100d8565b6100ce600081565b61010b6101ba36600461201a565b61073f565b61010b6101cd366004611d6b565b6108cf565b6100ce6101e0366004611d6b565b604080516020808201939093526000818301528151808203830181526060909101909152805191012090565b6000808360405160200161022291815260200190565b60405160208183030381529060405290506000610240828588610a61565b6040805180820182526000808252602091820152815180830190925282518252808301908201529092506102749150610a8a565b9695505050505050565b6000806000806000856040516020016102af919060609190911b6bffffffffffffffffffffffff1916815260140190565b60405160208183030381529060405290506000806102ce838a8c610a61565b915091506102dc8282610b8c565b929d919c50919a509098509650505050505050565b6001600160a01b0381166000908152600460205260409020548061034c5760405162461bcd60e51b815260206004820152600d60248201526c24b73b30b634b2103a37b5b2b760991b60448201526064015b60405180910390fd5b80831161038c5760405162461bcd60e51b815260206004820152600e60248201526d125b9d985b1a5908185b5bdd5b9d60921b6044820152606401610343565b600061039882856120c9565b90506001600160a01b0383166323b872dd337f00000000000000000000000000000000000000000000000000000000000000006103d585876120dd565b6040516001600160e01b031960e086901b1681526001600160a01b03938416600482015292909116602483015260448201526064016020604051808303816000875af1158015610429573d6000803e3d6000fd5b505050506040513d601f19601f8201168201806040525081019061044d91906120f4565b5060007f000000000000000000000000000000000000000000000000000000000000000061047b83856120dd565b604080516001600160a01b0390931660208401528201526060810183905260800160405160208183030381529060405290506000600360008154809291906104c290612116565b91905055905060006040518060a001604052808a6001600160f81b0319168152602001336001600160a01b031660001b8152602001848152602001600354815260200189815250905061053b82826040516020016105209190612175565b60405160208183030381529060405280519060200120610cb6565b6040517fae8e7132ac098ecd5aa06ce4db258039931128a2b16f02b1a94c4035d1ef3bc890610573908b903390879087908e906121cb565b60405180910390a1505050505050505050565b604051630fec317160e01b8152600481018690526000907f00000000000000000000000000000000000000000000000000000000000000006001600160a01b031690630fec317190602401602060405180830381865afa1580156105ee573d6000803e3d6000fd5b505050506040513d601f19601f820116820180604052508101906106129190612204565b8511156106585760405162461bcd60e51b815260206004820152601460248201527324b73b30b634b210313637b1b590373ab6b132b960611b6044820152606401610343565b604051626b43d560e41b815260048101879052602481018690526000907f00000000000000000000000000000000000000000000000000000000000000006001600160a01b0316906306b43d5090604401602060405180830381865afa1580156106c6573d6000803e3d6000fd5b505050506040513d601f19601f820116820180604052508101906106ea9190612204565b905060006107308286868080601f0160208091040260200160405190810160405280939291908181526020018383808284376000920191909152508b925061027e915050565b9b9a5050505050505050505050565b60015460405163266218bb60e21b815260006004820181905260248201899052916001600160a01b03169063998862ec906044016020604051808303816000875af1158015610792573d6000803e3d6000fd5b505050506040513d601f19601f820116820180604052508101906107b69190612204565b9050600061081c8288888080601f0160208091040260200160405190810160405280939291908181526020018383808284376000920191909152507f0000000000000000000000000000000000000000000000000000000000000000925061027e915050565b93505050507f56e81f171bcc55a6ff8345e692c0f86e5b48e01b996cadc001622fb5e363b42160001b81036108835760405162461bcd60e51b815260206004820152600d60248201526c696e76616c696420656e74727960981b6044820152606401610343565b6108c4818686868080601f01602080910402602001604051908101604052809392919081815260200183838082843760009201919091525061020c92505050565b505050505050505050565b6000600582815481106108e4576108e461221d565b600091825260209182902060408051608081018252600490930290910180546001600160a01b039081168452600182015494840194909452600280820154909416918301919091526003015460608201819052915490925042916109489190612233565b116109955760405162461bcd60e51b815260206004820152601860248201527f4e6f7420616c6c6f7765642079657420746f20636c61696d00000000000000006044820152606401610343565b60408181015182516020840151925163a9059cbb60e01b81526001600160a01b0391821660048201526024810193909352169063a9059cbb906044016020604051808303816000875af11580156109f0573d6000803e3d6000fd5b505050506040513d601f19601f82011682018060405250810190610a1491906120f4565b5060058281548110610a2857610a2861221d565b60009182526020822060049091020180546001600160a01b03199081168255600182018390556002820180549091169055600301555050565b600060606000610a7086610d03565b9050610a7d818686610d35565b9250925050935093915050565b6000602182600001511115610ae15760405162461bcd60e51b815260206004820152601a60248201527f496e76616c696420524c5020627974657333322076616c75652e0000000000006044820152606401610343565b6000806000610aef85610e10565b919450925090506000816001811115610b0a57610b0a612246565b14610b575760405162461bcd60e51b815260206004820152601a60248201527f496e76616c696420524c5020627974657333322076616c75652e0000000000006044820152606401610343565b6000838660200151610b699190612233565b805190915060208410156102745760208490036101000a90049695505050505050565b60008060008085610be85750600092508291507f56e81f171bcc55a6ff8345e692c0f86e5b48e01b996cadc001622fb5e363b42190507fc5d2460186f7233c927e7db2dcc703c0e500b653ca82273b7bfad8045d85a470610cad565b6000610c23610c1e8760408051808201825260008082526020918201528151808301909252825182529182019181019190915290565b611116565b9050610c4b81600060ff1681518110610c3e57610c3e61221d565b6020026020010151611302565b9450610c6681600160ff1681518110610c3e57610c3e61221d565b9350610c8e81600360ff1681518110610c8157610c8161221d565b6020026020010151610a8a565b9150610ca981600260ff1681518110610c8157610c8161221d565b9250505b92959194509250565b6000828152602081815260409182902083905581518481529081018390527f93ba20164825fe2d6acab1dcce38b7cbcaadf6704448ca1a5c9caa2276e9f52d910160405180910390a15050565b60608180519060200120604051602001610d1f91815260200190565b6040516020818303038152906040529050919050565b600060606000610d4485611313565b90506000806000610d56848a89611403565b81519295509093509150158080610d6a5750815b610db65760405162461bcd60e51b815260206004820152601a60248201527f50726f76696465642070726f6f6620697320696e76616c69642e0000000000006044820152606401610343565b600081610dd25760405180602001604052806000815250610dfe565b610dfe86610de160018861225c565b81518110610df157610df161221d565b6020026020010151611818565b919b919a509098505050505050505050565b600080600080846000015111610e685760405162461bcd60e51b815260206004820152601860248201527f524c50206974656d2063616e6e6f74206265206e756c6c2e00000000000000006044820152606401610343565b6020840151805160001a607f8111610e8d57600060016000945094509450505061110f565b60b78111610efd578551607f198201908110610eeb5760405162461bcd60e51b815260206004820152601960248201527f496e76616c696420524c502073686f727420737472696e672e000000000000006044820152606401610343565b6001955093506000925061110f915050565b60bf8111610fd757855160b6198201908110610f5b5760405162461bcd60e51b815260206004820152601f60248201527f496e76616c696420524c50206c6f6e6720737472696e67206c656e6774682e006044820152606401610343565b6000816020036101000a6001850151049050808201886000015111610fc25760405162461bcd60e51b815260206004820152601860248201527f496e76616c696420524c50206c6f6e6720737472696e672e00000000000000006044820152606401610343565b6001909101955093506000925061110f915050565b60f7811161104657855160bf1982019081106110355760405162461bcd60e51b815260206004820152601760248201527f496e76616c696420524c502073686f7274206c6973742e0000000000000000006044820152606401610343565b60019550935084925061110f915050565b855160f619820190811061109c5760405162461bcd60e51b815260206004820152601d60248201527f496e76616c696420524c50206c6f6e67206c697374206c656e6774682e0000006044820152606401610343565b6000816020036101000a60018501510490508082018860000151116110fc5760405162461bcd60e51b815260206004820152601660248201527524b73b30b634b210292628103637b733903634b9ba1760511b6044820152606401610343565b600191820196509450925061110f915050565b9193909250565b606060008061112484610e10565b9193509091506001905081600181111561114057611140612246565b1461118d5760405162461bcd60e51b815260206004820152601760248201527f496e76616c696420524c50206c6973742076616c75652e0000000000000000006044820152606401610343565b6040805160208082526104208201909252600091816020015b60408051808201909152600080825260208201528152602001906001900390816111a65790505090506000835b86518110156112f7576020821061123f5760405162461bcd60e51b815260206004820152602a60248201527f50726f766964656420524c50206c6973742065786365656473206d6178206c6960448201526939ba103632b733ba341760b11b6064820152608401610343565b60008061127c6040518060400160405280858c60000151611260919061225c565b8152602001858c602001516112759190612233565b9052610e10565b5091509150604051806040016040528083836112989190612233565b8152602001848b602001516112ad9190612233565b8152508585815181106112c2576112c261221d565b60209081029190910101526112d8600185612233565b93506112e48183612233565b6112ee9084612233565b925050506111d3565b508152949350505050565b600061130d82610a8a565b92915050565b6060600061132083611842565b90506000815167ffffffffffffffff81111561133e5761133e611dca565b60405190808252806020026020018201604052801561138357816020015b604080518082019091526060808252602082015281526020019060019003908161135c5790505b50905060005b82518110156113fb5760006113b68483815181106113a9576113a961221d565b6020026020010151611875565b905060405180604001604052808281526020016113d283611842565b8152508383815181106113e7576113e761221d565b602090810291909101015250600101611389565b509392505050565b6000606081808061141387611905565b9050600086905060008061143a604051806040016040528060608152602001606081525090565b60005b8c518110156117f0578c81815181106114585761145861221d565b60200260200101519150828461146e9190612233565b935061147b600188612233565b9650836000036114d6578151805160209091012085146114d15760405162461bcd60e51b8152602060048201526011602482015270092dcecc2d8d2c840e4dedee840d0c2e6d607b1b6044820152606401610343565b611593565b815151602011611538578151805160209091012085146114d15760405162461bcd60e51b815260206004820152601b60248201527f496e76616c6964206c6172676520696e7465726e616c206861736800000000006044820152606401610343565b846115468360000151611a21565b146115935760405162461bcd60e51b815260206004820152601a60248201527f496e76616c696420696e7465726e616c206e6f646520686173680000000000006044820152606401610343565b61159f60106001612233565b8260200151510361161157855184146117f05760008685815181106115c6576115c661221d565b602001015160f81c60f81b60f81c9050600083602001518260ff16815181106115f1576115f161221d565b6020026020010151905061160481611a49565b96506001945050506117e8565b6002826020015151036117a057600061162983611a86565b90506000816000815181106116405761164061221d565b016020015160f81c9050600061165760028361226f565b611662906002612291565b90506000611673848360ff16611aaa565b905060006116818b8a611aaa565b9050600061168f8383611ada565b905060ff8516600214806116a6575060ff85166003145b156116e0578083511480156116bb5750808251145b156116cd576116ca818b612233565b99505b50600160ff1b99506117f0945050505050565b60ff851615806116f3575060ff85166001145b1561174957806000036117135750600160ff1b99506117f0945050505050565b61173a886020015160018151811061172d5761172d61221d565b6020026020010151611a49565b9a5097506117e8945050505050565b60405162461bcd60e51b815260206004820152602660248201527f52656365697665642061206e6f6465207769746820616e20756e6b6e6f776e206044820152650e0e4caccd2f60d31b6064820152608401610343565b60405162461bcd60e51b815260206004820152601d60248201527f526563656976656420616e20756e706172736561626c65206e6f64652e0000006044820152606401610343565b60010161143d565b50600160ff1b8414866118038786611aaa565b909e909d50909b509950505050505050505050565b6020810151805160609161130d916118329060019061225c565b815181106113a9576113a961221d565b60408051808201825260008082526020918201528151808301909252825182528083019082015260609061130d90611116565b6060600080600061188585610e10565b9194509250905060008160018111156118a0576118a0612246565b146118ed5760405162461bcd60e51b815260206004820152601860248201527f496e76616c696420524c502062797465732076616c75652e00000000000000006044820152606401610343565b6118fc85602001518484611b56565b95945050505050565b60606000825160020267ffffffffffffffff81111561192657611926611dca565b6040519080825280601f01601f191660200182016040528015611950576020820181803683370190505b50905060005b8351811015611a1a5760048482815181106119735761197361221d565b602001015160f81c60f81b6001600160f81b031916901c82826002028151811061199f5761199f61221d565b60200101906001600160f81b031916908160001a90535060108482815181106119ca576119ca61221d565b016020015160f81c816119df576119df61209d565b0660f81b8282600202600101815181106119fb576119fb61221d565b60200101906001600160f81b031916908160001a905350600101611956565b5092915050565b6000602082511015611a3557506020015190565b8180602001905181019061130d9190612204565b60006060602083600001511015611a6a57611a6383611c08565b9050611a76565b611a7383611875565b90505b611a7f81611a21565b9392505050565b606061130d611aa583602001516000815181106113a9576113a961221d565b611905565b606081835103600003611acc575060408051602081019091526000815261130d565b611a7f838384865103611c13565b6000805b808451118015611aee5750808351115b8015611b3f5750828181518110611b0757611b0761221d565b602001015160f81c60f81b6001600160f81b031916848281518110611b2e57611b2e61221d565b01602001516001600160f81b031916145b15611a7f5780611b4e81612116565b915050611ade565b606060008267ffffffffffffffff811115611b7357611b73611dca565b6040519080825280601f01601f191660200182016040528015611b9d576020820181803683370190505b5090508051600003611bb0579050611a7f565b8484016020820160005b60208604811015611bdb578251825260209283019290910190600101611bba565b5060006001602087066020036101000a039050808251168119845116178252839450505050509392505050565b606061130d82611d55565b60608182601f011015611c595760405162461bcd60e51b815260206004820152600e60248201526d736c6963655f6f766572666c6f7760901b6044820152606401610343565b828284011015611c9c5760405162461bcd60e51b815260206004820152600e60248201526d736c6963655f6f766572666c6f7760901b6044820152606401610343565b81830184511015611ce35760405162461bcd60e51b8152602060048201526011602482015270736c6963655f6f75744f66426f756e647360781b6044820152606401610343565b606082158015611d025760405191506000825260208201604052611d4c565b6040519150601f8416801560200281840101858101878315602002848b0101015b81831015611d3b578051835260209283019201611d23565b5050858452601f01601f1916604052505b50949350505050565b606061130d826020015160008460000151611b56565b600060208284031215611d7d57600080fd5b5035919050565b80356001600160a01b0381168114611d9b57600080fd5b919050565b60008060408385031215611db357600080fd5b611dbc83611d84565b946020939093013593505050565b634e487b7160e01b600052604160045260246000fd5b600082601f830112611df157600080fd5b813567ffffffffffffffff80821115611e0c57611e0c611dca565b604051601f8301601f19908116603f01168101908282118183101715611e3457611e34611dca565b81604052838152866020858801011115611e4d57600080fd5b836020870160208301376000602085830101528094505050505092915050565b600080600060608486031215611e8257600080fd5b8335925060208401359150604084013567ffffffffffffffff811115611ea757600080fd5b611eb386828701611de0565b9150509250925092565b600080600060608486031215611ed257600080fd5b83359250602084013567ffffffffffffffff811115611ef057600080fd5b611efc86828701611de0565b925050611f0b60408501611d84565b90509250925092565b60008060008060808587031215611f2a57600080fd5b84356001600160f81b031981168114611f4257600080fd5b93506020850135925060408501359150611f5e60608601611d84565b905092959194509250565b60008083601f840112611f7b57600080fd5b50813567ffffffffffffffff811115611f9357600080fd5b602083019150836020828501011115611fab57600080fd5b9250929050565b600080600080600060808688031215611fca57600080fd5b8535945060208601359350611fe160408701611d84565b9250606086013567ffffffffffffffff811115611ffd57600080fd5b61200988828901611f69565b969995985093965092949392505050565b6000806000806000806080878903121561203357600080fd5b86359550602087013567ffffffffffffffff8082111561205257600080fd5b61205e8a838b01611f69565b909750955060408901359450606089013591508082111561207e57600080fd5b5061208b89828a01611f69565b979a9699509497509295939492505050565b634e487b7160e01b600052601260045260246000fd5b634e487b7160e01b600052601160045260246000fd5b6000826120d8576120d861209d565b500490565b808202811582820484141761130d5761130d6120b3565b60006020828403121561210657600080fd5b81518015158114611a7f57600080fd5b600060018201612128576121286120b3565b5060010190565b6000815180845260005b8181101561215557602081850181015186830182015201612139565b506000602082860101526020601f19601f83011685010191505092915050565b6020815260ff60f81b8251166020820152602082015160408201526000604083015160a060608401526121ab60c084018261212f565b905060608401516080840152608084015160a08401528091505092915050565b60ff60f81b8616815284602082015260a0604082015260006121f060a083018661212f565b606083019490945250608001529392505050565b60006020828403121561221657600080fd5b5051919050565b634e487b7160e01b600052603260045260246000fd5b8082018082111561130d5761130d6120b3565b634e487b7160e01b600052602160045260246000fd5b8181038181111561130d5761130d6120b3565b600060ff8316806122825761228261209d565b8060ff84160691505092915050565b60ff828116828216039081111561130d5761130d6120b356fea26469706673582212206f36452e8d9d0b4357129f2e1f54d4d0e0c4b915ff38254219b7fe45ca15961a64736f6c63430008190033",
    "linkReferences": {}
  },
  "methodIdentifiers": {
    "NAMES_MAPPING_SLOT()": "adf28726",
    "claimPayment(uint256)": "c63fdcc7",
    "getStorageLocationForKey(uint256)": "fbf611a7",
    "getStorageRoot(bytes32,uint256,address,bytes)": "9a089eb6",
    "getValueFromId(uint256)": "3eabceeb",
    "nexus()": "a3f5c1d2",
    "paymentWithoutFallback(bytes1,uint256,uint256,address)": "80a74597",
    "updatePrice(address,uint256)": "457972de",
    "verifyAccount(bytes32,bytes,address)": "7f1b8c73",
    "verifyPayment(bytes32,bytes,bytes32,bytes)": "ae7b2596",
    "verifyStorage(bytes32,bytes32,bytes)": "6f7096dc"
  },
  "id": 12
}