{"abi":[{"type":"constructor","inputs":[{"name":"nexusManager","type":"address","internalType":"contract INexusProofManager"},{"name":"fixedPayoutAddress","type":"address","internalType":"address"},{"name":"targetContractAddress","type":"address","internalType":"address"}],"stateMutability":"nonpayable"},{"type":"function","name":"NAMES_MAPPING_SLOT","inputs":[],"outputs":[{"name":"","type":"uint256","internalType":"uint256"}],"stateMutability":"view"},{"type":"function","name":"claimPayment","inputs":[{"name":"index","type":"uint256","internalType":"uint256"}],"outputs":[],"stateMutability":"nonpayable"},{"type":"function","name":"getStorageLocationForKey","inputs":[{"name":"_key","type":"uint256","internalType":"uint256"}],"outputs":[{"name":"","type":"bytes32","internalType":"bytes32"}],"stateMutability":"pure"},{"type":"function","name":"getValueFromId","inputs":[{"name":"key","type":"uint256","internalType":"uint256"}],"outputs":[{"name":"","type":"bytes32","internalType":"bytes32"}],"stateMutability":"view"},{"type":"function","name":"nexus","inputs":[],"outputs":[{"name":"","type":"address","internalType":"contract INexusProofManager"}],"stateMutability":"view"},{"type":"function","name":"paymentWithFallback","inputs":[{"name":"messageType","type":"bytes1","internalType":"bytes1"},{"name":"chainId","type":"uint256","internalType":"uint256"},{"name":"amount","type":"uint256","internalType":"uint256"},{"name":"payoutToken","type":"address","internalType":"address"}],"outputs":[{"name":"","type":"uint256","internalType":"uint256"}],"stateMutability":"nonpayable"},{"type":"function","name":"paymentWithoutFallback","inputs":[{"name":"messageType","type":"bytes1","internalType":"bytes1"},{"name":"chainId","type":"uint256","internalType":"uint256"},{"name":"amount","type":"uint256","internalType":"uint256"},{"name":"payoutToken","type":"address","internalType":"address"}],"outputs":[],"stateMutability":"nonpayable"},{"type":"function","name":"updatePrice","inputs":[{"name":"token","type":"address","internalType":"address"},{"name":"price","type":"uint256","internalType":"uint256"}],"outputs":[],"stateMutability":"nonpayable"},{"type":"function","name":"verifyPayment","inputs":[{"name":"paymentChainBlockNumber","type":"bytes32","internalType":"bytes32"},{"name":"accountTrieProof","type":"bytes","internalType":"bytes"},{"name":"slot","type":"bytes32","internalType":"bytes32"},{"name":"storageSlotTrieProof","type":"bytes","internalType":"bytes"}],"outputs":[],"stateMutability":"nonpayable"},{"type":"event","name":"NewEntry","inputs":[{"name":"key","type":"uint256","indexed":false,"internalType":"uint256"},{"name":"hash_value","type":"bytes32","indexed":false,"internalType":"bytes32"}],"anonymous":false},{"type":"event","name":"PendingPayout","inputs":[{"name":"index","type":"uint256","indexed":false,"internalType":"uint256"},{"name":"to","type":"address","indexed":false,"internalType":"address"}],"anonymous":false},{"type":"event","name":"PreImage","inputs":[{"name":"messageType","type":"bytes1","indexed":false,"internalType":"bytes1"},{"name":"from","type":"bytes32","indexed":false,"internalType":"bytes32"},{"name":"data","type":"bytes","indexed":false,"internalType":"bytes"},{"name":"messageId","type":"uint256","indexed":false,"internalType":"uint256"},{"name":"chainId","type":"uint256","indexed":false,"internalType":"uint256"}],"anonymous":false}],"bytecode":{"object":"0x60c060405262015180600255600060035534801561001c57600080fd5b506040516110ec3803806110ec83398101604081905261003b9161007e565b600180546001600160a01b0319166001600160a01b039485161790559082166080521660a0526100cb565b6001600160a01b038116811461007b57600080fd5b50565b60008060006060848603121561009357600080fd5b835161009e81610066565b60208501519093506100af81610066565b60408501519092506100c081610066565b809150509250925092565b60805160a051610fee6100fe60003960006104f001526000818161026b01528181610311015261088e0152610fee6000f3fe608060405234801561001057600080fd5b50600436106100935760003560e01c8063adf2872611610066578063adf2872614610135578063ae7b25961461013d578063b12e180e14610150578063c63fdcc714610163578063fbf611a71461017657600080fd5b80633eabceeb14610098578063457972de146100cb57806380a74597146100f7578063a3f5c1d21461010a575b600080fd5b6100b86100a6366004610bce565b60009081526020819052604090205490565b6040519081526020015b60405180910390f35b6100f56100d9366004610c03565b6001600160a01b03909116600090815260046020526040902055565b005b6100f5610105366004610c2d565b6101b0565b60015461011d906001600160a01b031681565b6040516001600160a01b0390911681526020016100c2565b6100b8600081565b6100f561014b366004610ccb565b610445565b6100b861015e366004610c2d565b610642565b6100f5610171366004610bce565b6109ef565b6100b8610184366004610bce565b604080516020808201939093526000818301528151808203830181526060909101909152805191012090565b6001600160a01b0381166000908152600460205260409020548061020b5760405162461bcd60e51b815260206004820152600d60248201526c24b73b30b634b2103a37b5b2b760991b60448201526064015b60405180910390fd5b80831161024b5760405162461bcd60e51b815260206004820152600e60248201526d125b9d985b1a5908185b5bdd5b9d60921b6044820152606401610202565b60006102578285610d64565b90506001600160a01b0383166323b872dd337f00000000000000000000000000000000000000000000000000000000000000006102948587610d86565b6040516001600160e01b031960e086901b1681526001600160a01b03938416600482015292909116602483015260448201526064016020604051808303816000875af11580156102e8573d6000803e3d6000fd5b505050506040513d601f19601f8201168201806040525081019061030c9190610da3565b5060007f000000000000000000000000000000000000000000000000000000000000000061033a8385610d86565b604080516001600160a01b03909316602084015282015260608101839052608001604051602081830303815290604052905060006003600081548092919061038190610dcc565b91905055905060006040518060a001604052808a6001600160f81b0319168152602001336001600160a01b031660001b815260200184815260200160035481526020018981525090506103fa82826040516020016103df9190610e2b565b60405160208183030381529060405280519060200120610b81565b6040517fae8e7132ac098ecd5aa06ce4db258039931128a2b16f02b1a94c4035d1ef3bc890610432908b903390879087908e90610e81565b60405180910390a1505050505050505050565b60015460405163266218bb60e21b815260006004820181905260248201899052916001600160a01b03169063998862ec906044016020604051808303816000875af1158015610498573d6000803e3d6000fd5b505050506040513d601f19601f820116820180604052508101906104bc9190610eba565b600154604051637f1b8c7360e01b81529192506000916001600160a01b0390911690637f1b8c73906105189085908b908b907f000000000000000000000000000000000000000000000000000000000000000090600401610efc565b608060405180830381865afa158015610535573d6000803e3d6000fd5b505050506040513d601f19601f820116820180604052508101906105599190610f2f565b93505050507f56e81f171bcc55a6ff8345e692c0f86e5b48e01b996cadc001622fb5e363b42160001b81036105c05760405162461bcd60e51b815260206004820152600d60248201526c696e76616c696420656e74727960981b6044820152606401610202565b600154604051631bdc25b760e21b81526001600160a01b0390911690636f7096dc906105f6908490899089908990600401610f65565b602060405180830381865afa158015610613573d6000803e3d6000fd5b505050506040513d601f19601f820116820180604052508101906106379190610eba565b505050505050505050565b6001600160a01b038116600090815260046020526040812054806106985760405162461bcd60e51b815260206004820152600d60248201526c24b73b30b634b2103a37b5b2b760991b6044820152606401610202565b8084116106d85760405162461bcd60e51b815260206004820152600e60248201526d125b9d985b1a5908185b5bdd5b9d60921b6044820152606401610202565b60006106e48286610d64565b90506001600160a01b0384166323b872dd33306107018587610d86565b6040516001600160e01b031960e086901b1681526001600160a01b03938416600482015292909116602483015260448201526064016020604051808303816000875af1158015610755573d6000803e3d6000fd5b505050506040513d601f19601f820116820180604052508101906107799190610da3565b506040805160808101909152338152600090602081016107998486610d86565b81526001600160a01b0380881660208084019190915242604093840152600580546001810182556000828152865160049092027f036b6384b5eca791c62761152d0c79bb0604c104a5fb6f4eb0703f3154bb3db0810180549387166001600160a01b0319948516179055938701517f036b6384b5eca791c62761152d0c79bb0604c104a5fb6f4eb0703f3154bb3db1850155948601517f036b6384b5eca791c62761152d0c79bb0604c104a5fb6f4eb0703f3154bb3db2840180549190951691161790925560608401517f036b6384b5eca791c62761152d0c79bb0604c104a5fb6f4eb0703f3154bb3db390910155549192507f00000000000000000000000000000000000000000000000000000000000000006108b78587610d86565b604080516001600160a01b0390931660208401528201526060810185905260800160405160208183030381529060405290506000600360008154809291906108fe90610dcc565b91905055905060006040518060a001604052808d6001600160f81b0319168152602001306001600160a01b031660001b815260200184815260200160035481526020018c815250905061095c82826040516020016103df9190610e2b565b7fae8e7132ac098ecd5aa06ce4db258039931128a2b16f02b1a94c4035d1ef3bc88c306001600160a01b031660001b85858f60405161099f959493929190610e81565b60405180910390a1604080518581523360208201527f3de4efbd8db74594066e59094053c2b4d165b124b2db2f49057fa6f456431c24910160405180910390a150919a9950505050505050505050565b600060058281548110610a0457610a04610f8f565b600091825260209182902060408051608081018252600490930290910180546001600160a01b03908116845260018201549484019490945260028082015490941691830191909152600301546060820181905291549092504291610a689190610fa5565b11610ab55760405162461bcd60e51b815260206004820152601860248201527f4e6f7420616c6c6f7765642079657420746f20636c61696d00000000000000006044820152606401610202565b60408181015182516020840151925163a9059cbb60e01b81526001600160a01b0391821660048201526024810193909352169063a9059cbb906044016020604051808303816000875af1158015610b10573d6000803e3d6000fd5b505050506040513d601f19601f82011682018060405250810190610b349190610da3565b5060058281548110610b4857610b48610f8f565b60009182526020822060049091020180546001600160a01b03199081168255600182018390556002820180549091169055600301555050565b6000828152602081815260409182902083905581518481529081018390527f93ba20164825fe2d6acab1dcce38b7cbcaadf6704448ca1a5c9caa2276e9f52d910160405180910390a15050565b600060208284031215610be057600080fd5b5035919050565b80356001600160a01b0381168114610bfe57600080fd5b919050565b60008060408385031215610c1657600080fd5b610c1f83610be7565b946020939093013593505050565b60008060008060808587031215610c4357600080fd5b84356001600160f81b031981168114610c5b57600080fd5b93506020850135925060408501359150610c7760608601610be7565b905092959194509250565b60008083601f840112610c9457600080fd5b50813567ffffffffffffffff811115610cac57600080fd5b602083019150836020828501011115610cc457600080fd5b9250929050565b60008060008060008060808789031215610ce457600080fd5b86359550602087013567ffffffffffffffff80821115610d0357600080fd5b610d0f8a838b01610c82565b9097509550604089013594506060890135915080821115610d2f57600080fd5b50610d3c89828a01610c82565b979a9699509497509295939492505050565b634e487b7160e01b600052601160045260246000fd5b600082610d8157634e487b7160e01b600052601260045260246000fd5b500490565b8082028115828204841417610d9d57610d9d610d4e565b92915050565b600060208284031215610db557600080fd5b81518015158114610dc557600080fd5b9392505050565b600060018201610dde57610dde610d4e565b5060010190565b6000815180845260005b81811015610e0b57602081850181015186830182015201610def565b506000602082860101526020601f19601f83011685010191505092915050565b6020815260ff60f81b8251166020820152602082015160408201526000604083015160a06060840152610e6160c0840182610de5565b905060608401516080840152608084015160a08401528091505092915050565b60ff60f81b8616815284602082015260a060408201526000610ea660a0830186610de5565b606083019490945250608001529392505050565b600060208284031215610ecc57600080fd5b5051919050565b81835281816020850137506000828201602090810191909152601f909101601f19169091010190565b848152606060208201526000610f16606083018587610ed3565b905060018060a01b038316604083015295945050505050565b60008060008060808587031215610f4557600080fd5b505082516020840151604085015160609095015191969095509092509050565b848152836020820152606060408201526000610f85606083018486610ed3565b9695505050505050565b634e487b7160e01b600052603260045260246000fd5b80820180821115610d9d57610d9d610d4e56fea26469706673582212200d62ea86a07531dad6cccb57e1c8b8ff7cf662a366603ad679d7725635f7e12664736f6c63430008140033","linkReferences":{}},"methodIdentifiers":{"NAMES_MAPPING_SLOT()":"adf28726","claimPayment(uint256)":"c63fdcc7","getStorageLocationForKey(uint256)":"fbf611a7","getValueFromId(uint256)":"3eabceeb","nexus()":"a3f5c1d2","paymentWithFallback(bytes1,uint256,uint256,address)":"b12e180e","paymentWithoutFallback(bytes1,uint256,uint256,address)":"80a74597","updatePrice(address,uint256)":"457972de","verifyPayment(bytes32,bytes,bytes32,bytes)":"ae7b2596"},"id":4}