{"abi":[{"type":"constructor","inputs":[{"name":"nexusManager","type":"address","internalType":"contract INexusProofManager"},{"name":"fixedPayoutAddress","type":"address","internalType":"address"},{"name":"targetContractAddress","type":"address","internalType":"address"}],"stateMutability":"nonpayable"},{"type":"function","name":"NAMES_MAPPING_SLOT","inputs":[],"outputs":[{"name":"","type":"uint256","internalType":"uint256"}],"stateMutability":"view"},{"type":"function","name":"claimPayment","inputs":[{"name":"index","type":"uint256","internalType":"uint256"}],"outputs":[],"stateMutability":"nonpayable"},{"type":"function","name":"getStorageLocationForKey","inputs":[{"name":"_key","type":"uint256","internalType":"uint256"}],"outputs":[{"name":"","type":"bytes32","internalType":"bytes32"}],"stateMutability":"pure"},{"type":"function","name":"getStorageRoot","inputs":[{"name":"nexusAppID","type":"bytes32","internalType":"bytes32"},{"name":"chainBlockNumber","type":"uint256","internalType":"uint256"},{"name":"account","type":"address","internalType":"address"},{"name":"accountTrieProof","type":"bytes","internalType":"bytes"}],"outputs":[{"name":"","type":"bytes32","internalType":"bytes32"}],"stateMutability":"view"},{"type":"function","name":"getValueFromId","inputs":[{"name":"key","type":"uint256","internalType":"uint256"}],"outputs":[{"name":"","type":"bytes32","internalType":"bytes32"}],"stateMutability":"view"},{"type":"function","name":"nexus","inputs":[],"outputs":[{"name":"","type":"address","internalType":"contract INexusProofManager"}],"stateMutability":"view"},{"type":"function","name":"paymentWithoutFallback","inputs":[{"name":"messageType","type":"bytes1","internalType":"bytes1"},{"name":"chainId","type":"uint256","internalType":"uint256"},{"name":"amount","type":"uint256","internalType":"uint256"},{"name":"payoutToken","type":"address","internalType":"address"}],"outputs":[],"stateMutability":"nonpayable"},{"type":"function","name":"updatePrice","inputs":[{"name":"token","type":"address","internalType":"address"},{"name":"price","type":"uint256","internalType":"uint256"}],"outputs":[],"stateMutability":"nonpayable"},{"type":"function","name":"verifyAccount","inputs":[{"name":"latestState","type":"bytes32","internalType":"bytes32"},{"name":"accountTrieProof","type":"bytes","internalType":"bytes"},{"name":"account","type":"address","internalType":"address"}],"outputs":[{"name":"nonce","type":"uint256","internalType":"uint256"},{"name":"accountBalance","type":"uint256","internalType":"uint256"},{"name":"codeHash","type":"bytes32","internalType":"bytes32"},{"name":"storageRoot","type":"bytes32","internalType":"bytes32"}],"stateMutability":"pure"},{"type":"function","name":"verifyPayment","inputs":[{"name":"paymentChainBlockNumber","type":"bytes32","internalType":"bytes32"},{"name":"accountTrieProof","type":"bytes","internalType":"bytes"},{"name":"slot","type":"bytes32","internalType":"bytes32"},{"name":"storageSlotTrieProof","type":"bytes","internalType":"bytes"}],"outputs":[],"stateMutability":"nonpayable"},{"type":"function","name":"verifyStorage","inputs":[{"name":"storageRoot","type":"bytes32","internalType":"bytes32"},{"name":"slot","type":"bytes32","internalType":"bytes32"},{"name":"storageSlotTrieProof","type":"bytes","internalType":"bytes"}],"outputs":[{"name":"slotValue","type":"bytes32","internalType":"bytes32"}],"stateMutability":"pure"},{"type":"event","name":"NewEntry","inputs":[{"name":"key","type":"uint256","indexed":false,"internalType":"uint256"},{"name":"hash_value","type":"bytes32","indexed":false,"internalType":"bytes32"}],"anonymous":false},{"type":"event","name":"PendingPayout","inputs":[{"name":"index","type":"uint256","indexed":false,"internalType":"uint256"},{"name":"to","type":"address","indexed":false,"internalType":"address"}],"anonymous":false},{"type":"event","name":"PreImage","inputs":[{"name":"messageType","type":"bytes1","indexed":false,"internalType":"bytes1"},{"name":"from","type":"bytes32","indexed":false,"internalType":"bytes32"},{"name":"data","type":"bytes","indexed":false,"internalType":"bytes"},{"name":"messageId","type":"uint256","indexed":false,"internalType":"uint256"},{"name":"chainId","type":"uint256","indexed":false,"internalType":"uint256"}],"anonymous":false}],"bytecode":{"object":"0x60e0604052620151806002555f60035534801561001a575f80fd5b5060405161231338038061231383398101604081905261003991610082565b6001600160a01b039283166080819052600180546001600160a01b031916909117905590821660a0521660c0526100cc565b6001600160a01b038116811461007f575f80fd5b50565b5f805f60608486031215610094575f80fd5b835161009f8161006b565b60208501519093506100b08161006b565b60408501519092506100c18161006b565b809150509250925092565b60805160a05160c05161220f6101045f395f6107cc01525f818161039b015261043d01525f8181610585015261065a015261220f5ff3fe608060405234801561000f575f80fd5b50600436106100a6575f3560e01c80639a089eb61161006e5780639a089eb614610160578063a3f5c1d214610173578063adf287261461019e578063ae7b2596146101a5578063c63fdcc7146101b8578063fbf611a7146101cb575f80fd5b80633eabceeb146100aa578063457972de146100dc5780636f7096dc146101075780637f1b8c731461011a57806380a745971461014d575b5f80fd5b6100c96100b8366004611cea565b5f9081526020819052604090205490565b6040519081526020015b60405180910390f35b6101056100ea366004611d1c565b6001600160a01b039091165f90815260046020526040902055565b005b6100c9610115366004611de1565b610204565b61012d610128366004611e2d565b610273565b6040805194855260208501939093529183015260608201526080016100d3565b61010561015b366004611e80565b6102e2565b6100c961016e366004611f16565b61056d565b600154610186906001600160a01b031681565b6040516001600160a01b0390911681526020016100d3565b6100c95f81565b6101056101b3366004611f79565b61071e565b6101056101c6366004611cea565b6108a6565b6100c96101d9366004611cea565b604080516020808201939093525f818301528151808203830181526060909101909152805191012090565b5f808360405160200161021991815260200190565b60405160208183030381529060405290505f610236828588610a32565b6040805180820182525f808252602091820152815180830190925282518252808301908201529092506102699150610a59565b9695505050505050565b5f805f805f856040516020016102a1919060609190911b6bffffffffffffffffffffffff1916815260140190565b60405160208183030381529060405290505f806102bf838a8c610a32565b915091506102cd8282610b55565b929d919c50919a509098509650505050505050565b6001600160a01b0381165f908152600460205260409020548061033c5760405162461bcd60e51b815260206004820152600d60248201526c24b73b30b634b2103a37b5b2b760991b60448201526064015b60405180910390fd5b80831161037c5760405162461bcd60e51b815260206004820152600e60248201526d125b9d985b1a5908185b5bdd5b9d60921b6044820152606401610333565b5f610387828561201e565b90506001600160a01b0383166323b872dd337f00000000000000000000000000000000000000000000000000000000000000006103c48587612031565b6040516001600160e01b031960e086901b1681526001600160a01b03938416600482015292909116602483015260448201526064016020604051808303815f875af1158015610415573d5f803e3d5ffd5b505050506040513d601f19601f820116820180604052508101906104399190612048565b505f7f00000000000000000000000000000000000000000000000000000000000000006104668385612031565b604080516001600160a01b0390931660208401528201526060810183905260800160405160208183030381529060405290505f60035f8154809291906104ab90612067565b9190505590505f6040518060a001604052808a6001600160f81b0319168152602001336001600160a01b03165f1b81526020018481526020016003548152602001898152509050610522828260405160200161050791906120ad565b60405160208183030381529060405280519060200120610c79565b6040517fae8e7132ac098ecd5aa06ce4db258039931128a2b16f02b1a94c4035d1ef3bc89061055a908b903390879087908e90612102565b60405180910390a1505050505050505050565b604051630fec317160e01b8152600481018690525f907f00000000000000000000000000000000000000000000000000000000000000006001600160a01b031690630fec317190602401602060405180830381865afa1580156105d2573d5f803e3d5ffd5b505050506040513d601f19601f820116820180604052508101906105f6919061213a565b85111561063c5760405162461bcd60e51b815260206004820152601460248201527324b73b30b634b210313637b1b590373ab6b132b960611b6044820152606401610333565b604051626b43d560e41b815260048101879052602481018690525f907f00000000000000000000000000000000000000000000000000000000000000006001600160a01b0316906306b43d5090604401602060405180830381865afa1580156106a7573d5f803e3d5ffd5b505050506040513d601f19601f820116820180604052508101906106cb919061213a565b90505f61070f8286868080601f0160208091040260200160405190810160405280939291908181526020018383808284375f920191909152508b9250610273915050565b9b9a5050505050505050505050565b60015460405163266218bb60e21b81525f6004820181905260248201899052916001600160a01b03169063998862ec906044016020604051808303815f875af115801561076d573d5f803e3d5ffd5b505050506040513d601f19601f82011682018060405250810190610791919061213a565b90505f6107f58288888080601f0160208091040260200160405190810160405280939291908181526020018383808284375f920191909152507f00000000000000000000000000000000000000000000000000000000000000009250610273915050565b93505050507f56e81f171bcc55a6ff8345e692c0f86e5b48e01b996cadc001622fb5e363b4215f1b810361085b5760405162461bcd60e51b815260206004820152600d60248201526c696e76616c696420656e74727960981b6044820152606401610333565b61089b818686868080601f0160208091040260200160405190810160405280939291908181526020018383808284375f9201919091525061020492505050565b505050505050505050565b5f600582815481106108ba576108ba612151565b5f91825260209182902060408051608081018252600490930290910180546001600160a01b0390811684526001820154948401949094526002808201549094169183019190915260030154606082018190529154909250429161091d9190612165565b1161096a5760405162461bcd60e51b815260206004820152601860248201527f4e6f7420616c6c6f7765642079657420746f20636c61696d00000000000000006044820152606401610333565b60408181015182516020840151925163a9059cbb60e01b81526001600160a01b0391821660048201526024810193909352169063a9059cbb906044016020604051808303815f875af11580156109c2573d5f803e3d5ffd5b505050506040513d601f19601f820116820180604052508101906109e69190612048565b50600582815481106109fa576109fa612151565b5f9182526020822060049091020180546001600160a01b03199081168255600182018390556002820180549091169055600301555050565b5f60605f610a3f86610cc5565b9050610a4c818686610cf7565b9250925050935093915050565b5f6021825f01511115610aae5760405162461bcd60e51b815260206004820152601a60248201527f496e76616c696420524c5020627974657333322076616c75652e0000000000006044820152606401610333565b5f805f610aba85610dcc565b919450925090505f816001811115610ad457610ad4612178565b14610b215760405162461bcd60e51b815260206004820152601a60248201527f496e76616c696420524c5020627974657333322076616c75652e0000000000006044820152606401610333565b5f838660200151610b329190612165565b805190915060208410156102695760208490036101000a90049695505050505050565b5f805f8085610bae57505f92508291507f56e81f171bcc55a6ff8345e692c0f86e5b48e01b996cadc001622fb5e363b42190507fc5d2460186f7233c927e7db2dcc703c0e500b653ca82273b7bfad8045d85a470610c70565b5f610be7610be2876040805180820182525f8082526020918201528151808301909252825182529182019181019190915290565b6110c6565b9050610c0e815f60ff1681518110610c0157610c01612151565b60200260200101516112ac565b9450610c2981600160ff1681518110610c0157610c01612151565b9350610c5181600360ff1681518110610c4457610c44612151565b6020026020010151610a59565b9150610c6c81600260ff1681518110610c4457610c44612151565b9250505b92959194509250565b5f828152602081815260409182902083905581518481529081018390527f93ba20164825fe2d6acab1dcce38b7cbcaadf6704448ca1a5c9caa2276e9f52d910160405180910390a15050565b60608180519060200120604051602001610ce191815260200190565b6040516020818303038152906040529050919050565b5f60605f610d04856112bc565b90505f805f610d14848a896113a8565b81519295509093509150158080610d285750815b610d745760405162461bcd60e51b815260206004820152601a60248201527f50726f76696465642070726f6f6620697320696e76616c69642e0000000000006044820152606401610333565b5f81610d8e5760405180602001604052805f815250610dba565b610dba86610d9d60018861218c565b81518110610dad57610dad612151565b60200260200101516117ad565b919b919a509098505050505050505050565b5f805f80845f015111610e215760405162461bcd60e51b815260206004820152601860248201527f524c50206974656d2063616e6e6f74206265206e756c6c2e00000000000000006044820152606401610333565b602084015180515f1a607f8111610e43575f60015f94509450945050506110bf565b60b78111610eb2578551607f198201908110610ea15760405162461bcd60e51b815260206004820152601960248201527f496e76616c696420524c502073686f727420737472696e672e000000000000006044820152606401610333565b6001955093505f92506110bf915050565b60bf8111610f8957855160b6198201908110610f105760405162461bcd60e51b815260206004820152601f60248201527f496e76616c696420524c50206c6f6e6720737472696e67206c656e6774682e006044820152606401610333565b5f816020036101000a6001850151049050808201885f015111610f755760405162461bcd60e51b815260206004820152601860248201527f496e76616c696420524c50206c6f6e6720737472696e672e00000000000000006044820152606401610333565b6001909101955093505f92506110bf915050565b60f78111610ff857855160bf198201908110610fe75760405162461bcd60e51b815260206004820152601760248201527f496e76616c696420524c502073686f7274206c6973742e0000000000000000006044820152606401610333565b6001955093508492506110bf915050565b855160f619820190811061104e5760405162461bcd60e51b815260206004820152601d60248201527f496e76616c696420524c50206c6f6e67206c697374206c656e6774682e0000006044820152606401610333565b5f816020036101000a6001850151049050808201885f0151116110ac5760405162461bcd60e51b815260206004820152601660248201527524b73b30b634b210292628103637b733903634b9ba1760511b6044820152606401610333565b60019182019650945092506110bf915050565b9193909250565b60605f806110d384610dcc565b919350909150600190508160018111156110ef576110ef612178565b1461113c5760405162461bcd60e51b815260206004820152601760248201527f496e76616c696420524c50206c6973742076616c75652e0000000000000000006044820152606401610333565b60408051602080825261042082019092525f91816020015b604080518082019091525f80825260208201528152602001906001900390816111545790505090505f835b86518110156112a157602082106111eb5760405162461bcd60e51b815260206004820152602a60248201527f50726f766964656420524c50206c6973742065786365656473206d6178206c6960448201526939ba103632b733ba341760b11b6064820152608401610333565b5f806112266040518060400160405280858c5f015161120a919061218c565b8152602001858c6020015161121f9190612165565b9052610dcc565b5091509150604051806040016040528083836112429190612165565b8152602001848b602001516112579190612165565b81525085858151811061126c5761126c612151565b6020908102919091010152611282600185612165565b935061128e8183612165565b6112989084612165565b9250505061117f565b508152949350505050565b5f6112b682610a59565b92915050565b60605f6112c8836117d7565b90505f815167ffffffffffffffff8111156112e5576112e5611d44565b60405190808252806020026020018201604052801561132a57816020015b60408051808201909152606080825260208201528152602001906001900390816113035790505b5090505f5b82518110156113a0575f61135b84838151811061134e5761134e612151565b6020026020010151611809565b90506040518060400160405280828152602001611377836117d7565b81525083838151811061138c5761138c612151565b60209081029190910101525060010161132f565b509392505050565b5f60608180806113b787611896565b90505f8690505f806113dc604051806040016040528060608152602001606081525090565b5f5b8c51811015611785578c81815181106113f9576113f9612151565b60200260200101519150828461140f9190612165565b935061141c600188612165565b9650835f03611476578151805160209091012085146114715760405162461bcd60e51b8152602060048201526011602482015270092dcecc2d8d2c840e4dedee840d0c2e6d607b1b6044820152606401610333565b611532565b8151516020116114d8578151805160209091012085146114715760405162461bcd60e51b815260206004820152601b60248201527f496e76616c6964206c6172676520696e7465726e616c206861736800000000006044820152606401610333565b846114e5835f01516119ae565b146115325760405162461bcd60e51b815260206004820152601a60248201527f496e76616c696420696e7465726e616c206e6f646520686173680000000000006044820152606401610333565b61153e60106001612165565b826020015151036115ae5785518414611785575f86858151811061156457611564612151565b602001015160f81c60f81b60f81c90505f83602001518260ff168151811061158e5761158e612151565b602002602001015190506115a1816119d5565b965060019450505061177d565b600282602001515103611735575f6115c583611a10565b90505f815f815181106115da576115da612151565b016020015160f81c90505f6115f060028361219f565b6115fb9060026121c0565b90505f61160b848360ff16611a33565b90505f6116188b8a611a33565b90505f6116258383611a61565b905060ff85166002148061163c575060ff85166003145b15611676578083511480156116515750808251145b1561166357611660818b612165565b99505b50600160ff1b9950611785945050505050565b60ff85161580611689575060ff85166001145b156116de57805f036116a85750600160ff1b9950611785945050505050565b6116cf88602001516001815181106116c2576116c2612151565b60200260200101516119d5565b9a50975061177d945050505050565b60405162461bcd60e51b815260206004820152602660248201527f52656365697665642061206e6f6465207769746820616e20756e6b6e6f776e206044820152650e0e4caccd2f60d31b6064820152608401610333565b60405162461bcd60e51b815260206004820152601d60248201527f526563656976656420616e20756e706172736561626c65206e6f64652e0000006044820152606401610333565b6001016113de565b50600160ff1b8414866117988786611a33565b909e909d50909b509950505050505050505050565b602081015180516060916112b6916117c79060019061218c565b8151811061134e5761134e612151565b6040805180820182525f808252602091820152815180830190925282518252808301908201526060906112b6906110c6565b60605f805f61181785610dcc565b919450925090505f81600181111561183157611831612178565b1461187e5760405162461bcd60e51b815260206004820152601860248201527f496e76616c696420524c502062797465732076616c75652e00000000000000006044820152606401610333565b61188d85602001518484611adc565b95945050505050565b60605f825160020267ffffffffffffffff8111156118b6576118b6611d44565b6040519080825280601f01601f1916602001820160405280156118e0576020820181803683370190505b5090505f5b83518110156119a757600484828151811061190257611902612151565b602001015160f81c60f81b6001600160f81b031916901c82826002028151811061192e5761192e612151565b60200101906001600160f81b03191690815f1a905350601084828151811061195857611958612151565b016020015160f81c8161196d5761196d611ff6565b0660f81b82826002026001018151811061198957611989612151565b60200101906001600160f81b03191690815f1a9053506001016118e5565b5092915050565b5f6020825110156119c157506020015190565b818060200190518101906112b6919061213a565b5f60606020835f015110156119f4576119ed83611b8a565b9050611a00565b6119fd83611809565b90505b611a09816119ae565b9392505050565b60606112b6611a2e83602001515f8151811061134e5761134e612151565b611896565b6060818351035f03611a53575060408051602081019091525f81526112b6565b611a09838384865103611b95565b5f805b808451118015611a745750808351115b8015611ac55750828181518110611a8d57611a8d612151565b602001015160f81c60f81b6001600160f81b031916848281518110611ab457611ab4612151565b01602001516001600160f81b031916145b15611a095780611ad481612067565b915050611a64565b60605f8267ffffffffffffffff811115611af857611af8611d44565b6040519080825280601f01601f191660200182016040528015611b22576020820181803683370190505b50905080515f03611b34579050611a09565b848401602082015f5b60208604811015611b5e578251825260209283019290910190600101611b3d565b505f6001602087066020036101000a039050808251168119845116178252839450505050509392505050565b60606112b682611cd6565b60608182601f011015611bdb5760405162461bcd60e51b815260206004820152600e60248201526d736c6963655f6f766572666c6f7760901b6044820152606401610333565b828284011015611c1e5760405162461bcd60e51b815260206004820152600e60248201526d736c6963655f6f766572666c6f7760901b6044820152606401610333565b81830184511015611c655760405162461bcd60e51b8152602060048201526011602482015270736c6963655f6f75744f66426f756e647360781b6044820152606401610333565b606082158015611c835760405191505f825260208201604052611ccd565b6040519150601f8416801560200281840101858101878315602002848b0101015b81831015611cbc578051835260209283019201611ca4565b5050858452601f01601f1916604052505b50949350505050565b60606112b682602001515f845f0151611adc565b5f60208284031215611cfa575f80fd5b5035919050565b80356001600160a01b0381168114611d17575f80fd5b919050565b5f8060408385031215611d2d575f80fd5b611d3683611d01565b946020939093013593505050565b634e487b7160e01b5f52604160045260245ffd5b5f82601f830112611d67575f80fd5b813567ffffffffffffffff80821115611d8257611d82611d44565b604051601f8301601f19908116603f01168101908282118183101715611daa57611daa611d44565b81604052838152866020858801011115611dc2575f80fd5b836020870160208301375f602085830101528094505050505092915050565b5f805f60608486031215611df3575f80fd5b8335925060208401359150604084013567ffffffffffffffff811115611e17575f80fd5b611e2386828701611d58565b9150509250925092565b5f805f60608486031215611e3f575f80fd5b83359250602084013567ffffffffffffffff811115611e5c575f80fd5b611e6886828701611d58565b925050611e7760408501611d01565b90509250925092565b5f805f8060808587031215611e93575f80fd5b84356001600160f81b031981168114611eaa575f80fd5b93506020850135925060408501359150611ec660608601611d01565b905092959194509250565b5f8083601f840112611ee1575f80fd5b50813567ffffffffffffffff811115611ef8575f80fd5b602083019150836020828501011115611f0f575f80fd5b9250929050565b5f805f805f60808688031215611f2a575f80fd5b8535945060208601359350611f4160408701611d01565b9250606086013567ffffffffffffffff811115611f5c575f80fd5b611f6888828901611ed1565b969995985093965092949392505050565b5f805f805f8060808789031215611f8e575f80fd5b86359550602087013567ffffffffffffffff80821115611fac575f80fd5b611fb88a838b01611ed1565b9097509550604089013594506060890135915080821115611fd7575f80fd5b50611fe489828a01611ed1565b979a9699509497509295939492505050565b634e487b7160e01b5f52601260045260245ffd5b634e487b7160e01b5f52601160045260245ffd5b5f8261202c5761202c611ff6565b500490565b80820281158282048414176112b6576112b661200a565b5f60208284031215612058575f80fd5b81518015158114611a09575f80fd5b5f600182016120785761207861200a565b5060010190565b5f81518084528060208401602086015e5f602082860101526020601f19601f83011685010191505092915050565b6020815260ff60f81b8251166020820152602082015160408201525f604083015160a060608401526120e260c084018261207f565b905060608401516080840152608084015160a08401528091505092915050565b60ff60f81b8616815284602082015260a060408201525f61212660a083018661207f565b606083019490945250608001529392505050565b5f6020828403121561214a575f80fd5b5051919050565b634e487b7160e01b5f52603260045260245ffd5b808201808211156112b6576112b661200a565b634e487b7160e01b5f52602160045260245ffd5b818103818111156112b6576112b661200a565b5f60ff8316806121b1576121b1611ff6565b8060ff84160691505092915050565b60ff82811682821603908111156112b6576112b661200a56fea26469706673582212201282326ca008e2e18a5135f0a96dbe3f07f255fc373a3b2f62c05a89a71edda264736f6c63430008190033","linkReferences":{}},"methodIdentifiers":{"NAMES_MAPPING_SLOT()":"adf28726","claimPayment(uint256)":"c63fdcc7","getStorageLocationForKey(uint256)":"fbf611a7","getStorageRoot(bytes32,uint256,address,bytes)":"9a089eb6","getValueFromId(uint256)":"3eabceeb","nexus()":"a3f5c1d2","paymentWithoutFallback(bytes1,uint256,uint256,address)":"80a74597","updatePrice(address,uint256)":"457972de","verifyAccount(bytes32,bytes,address)":"7f1b8c73","verifyPayment(bytes32,bytes,bytes32,bytes)":"ae7b2596","verifyStorage(bytes32,bytes32,bytes)":"6f7096dc"},"id":13}