{"abi":[{"type":"constructor","inputs":[{"name":"nexusManager","type":"address","internalType":"contract INexusProofManager"},{"name":"fixedPayoutAddress","type":"address","internalType":"address"},{"name":"targetContractAddress","type":"address","internalType":"address"}],"stateMutability":"nonpayable"},{"type":"function","name":"NAMES_MAPPING_SLOT","inputs":[],"outputs":[{"name":"","type":"uint256","internalType":"uint256"}],"stateMutability":"view"},{"type":"function","name":"claimPayment","inputs":[{"name":"index","type":"uint256","internalType":"uint256"}],"outputs":[],"stateMutability":"nonpayable"},{"type":"function","name":"getStorageLocationForKey","inputs":[{"name":"_key","type":"uint256","internalType":"uint256"}],"outputs":[{"name":"","type":"bytes32","internalType":"bytes32"}],"stateMutability":"pure"},{"type":"function","name":"getStorageRoot","inputs":[{"name":"nexusAppID","type":"bytes32","internalType":"bytes32"},{"name":"chainBlockNumber","type":"uint256","internalType":"uint256"},{"name":"account","type":"address","internalType":"address"},{"name":"accountTrieProof","type":"bytes","internalType":"bytes"}],"outputs":[{"name":"","type":"bytes32","internalType":"bytes32"}],"stateMutability":"view"},{"type":"function","name":"getValueFromId","inputs":[{"name":"key","type":"uint256","internalType":"uint256"}],"outputs":[{"name":"","type":"bytes32","internalType":"bytes32"}],"stateMutability":"view"},{"type":"function","name":"nexus","inputs":[],"outputs":[{"name":"","type":"address","internalType":"contract INexusProofManager"}],"stateMutability":"view"},{"type":"function","name":"paymentWithFallback","inputs":[{"name":"messageType","type":"bytes1","internalType":"bytes1"},{"name":"chainId","type":"uint256","internalType":"uint256"},{"name":"amount","type":"uint256","internalType":"uint256"},{"name":"payoutToken","type":"address","internalType":"address"}],"outputs":[{"name":"","type":"uint256","internalType":"uint256"}],"stateMutability":"nonpayable"},{"type":"function","name":"paymentWithoutFallback","inputs":[{"name":"messageType","type":"bytes1","internalType":"bytes1"},{"name":"chainId","type":"uint256","internalType":"uint256"},{"name":"amount","type":"uint256","internalType":"uint256"},{"name":"payoutToken","type":"address","internalType":"address"}],"outputs":[],"stateMutability":"nonpayable"},{"type":"function","name":"updatePrice","inputs":[{"name":"token","type":"address","internalType":"address"},{"name":"price","type":"uint256","internalType":"uint256"}],"outputs":[],"stateMutability":"nonpayable"},{"type":"function","name":"verifyAccount","inputs":[{"name":"latestState","type":"bytes32","internalType":"bytes32"},{"name":"accountTrieProof","type":"bytes","internalType":"bytes"},{"name":"account","type":"address","internalType":"address"}],"outputs":[{"name":"nonce","type":"uint256","internalType":"uint256"},{"name":"accountBalance","type":"uint256","internalType":"uint256"},{"name":"codeHash","type":"bytes32","internalType":"bytes32"},{"name":"storageRoot","type":"bytes32","internalType":"bytes32"}],"stateMutability":"pure"},{"type":"function","name":"verifyPayment","inputs":[{"name":"paymentChainBlockNumber","type":"bytes32","internalType":"bytes32"},{"name":"accountTrieProof","type":"bytes","internalType":"bytes"},{"name":"slot","type":"bytes32","internalType":"bytes32"},{"name":"storageSlotTrieProof","type":"bytes","internalType":"bytes"}],"outputs":[],"stateMutability":"nonpayable"},{"type":"function","name":"verifyStorage","inputs":[{"name":"storageRoot","type":"bytes32","internalType":"bytes32"},{"name":"slot","type":"bytes32","internalType":"bytes32"},{"name":"storageSlotTrieProof","type":"bytes","internalType":"bytes"}],"outputs":[{"name":"slotValue","type":"bytes32","internalType":"bytes32"}],"stateMutability":"pure"},{"type":"event","name":"NewEntry","inputs":[{"name":"key","type":"uint256","indexed":false,"internalType":"uint256"},{"name":"hash_value","type":"bytes32","indexed":false,"internalType":"bytes32"}],"anonymous":false},{"type":"event","name":"PendingPayout","inputs":[{"name":"index","type":"uint256","indexed":false,"internalType":"uint256"},{"name":"to","type":"address","indexed":false,"internalType":"address"}],"anonymous":false},{"type":"event","name":"PreImage","inputs":[{"name":"messageType","type":"bytes1","indexed":false,"internalType":"bytes1"},{"name":"from","type":"bytes32","indexed":false,"internalType":"bytes32"},{"name":"data","type":"bytes","indexed":false,"internalType":"bytes"},{"name":"messageId","type":"uint256","indexed":false,"internalType":"uint256"},{"name":"chainId","type":"uint256","indexed":false,"internalType":"uint256"}],"anonymous":false}],"bytecode":{"object":"0x60e060405262015180600255600060035534801561001c57600080fd5b506040516127c13803806127c183398101604081905261003b91610085565b6001600160a01b039283166080819052600180546001600160a01b031916909117905590821660a0521660c0526100d2565b6001600160a01b038116811461008257600080fd5b50565b60008060006060848603121561009a57600080fd5b83516100a58161006d565b60208501519093506100b68161006d565b60408501519092506100c78161006d565b809150509250925092565b60805160a05160c0516126ab61011660003960006108110152600081816103ca015281816104700152610b390152600081816105bd015261069501526126ab6000f3fe608060405234801561001057600080fd5b50600436106100b45760003560e01c8063a3f5c1d211610071578063a3f5c1d214610184578063adf28726146101af578063ae7b2596146101b7578063b12e180e146101ca578063c63fdcc7146101dd578063fbf611a7146101f057600080fd5b80633eabceeb146100b9578063457972de146100ec5780636f7096dc146101185780637f1b8c731461012b57806380a745971461015e5780639a089eb614610171575b600080fd5b6100d96100c7366004612136565b60009081526020819052604090205490565b6040519081526020015b60405180910390f35b6101166100fa36600461216b565b6001600160a01b03909116600090815260046020526040902055565b005b6100d9610126366004612238565b61022a565b61013e610139366004612288565b61029c565b6040805194855260208501939093529183015260608201526080016100e3565b61011661016c3660046122df565b61030f565b6100d961017f36600461237d565b6105a4565b600154610197906001600160a01b031681565b6040516001600160a01b0390911681526020016100e3565b6100d9600081565b6101166101c53660046123e5565b61075d565b6100d96101d83660046122df565b6108ed565b6101166101eb366004612136565b610c9a565b6100d96101fe366004612136565b604080516020808201939093526000818301528151808203830181526060909101909152805191012090565b6000808360405160200161024091815260200190565b6040516020818303038152906040529050600061025e828588610e2c565b6040805180820182526000808252602091820152815180830190925282518252808301908201529092506102929150610e55565b9695505050505050565b6000806000806000856040516020016102cd919060609190911b6bffffffffffffffffffffffff1916815260140190565b60405160208183030381529060405290506000806102ec838a8c610e2c565b915091506102fa8282610f57565b929d919c50919a509098509650505050505050565b6001600160a01b0381166000908152600460205260409020548061036a5760405162461bcd60e51b815260206004820152600d60248201526c24b73b30b634b2103a37b5b2b760991b60448201526064015b60405180910390fd5b8083116103aa5760405162461bcd60e51b815260206004820152600e60248201526d125b9d985b1a5908185b5bdd5b9d60921b6044820152606401610361565b60006103b68285612494565b90506001600160a01b0383166323b872dd337f00000000000000000000000000000000000000000000000000000000000000006103f385876124a8565b6040516001600160e01b031960e086901b1681526001600160a01b03938416600482015292909116602483015260448201526064016020604051808303816000875af1158015610447573d6000803e3d6000fd5b505050506040513d601f19601f8201168201806040525081019061046b91906124bf565b5060007f000000000000000000000000000000000000000000000000000000000000000061049983856124a8565b604080516001600160a01b0390931660208401528201526060810183905260800160405160208183030381529060405290506000600360008154809291906104e0906124e1565b91905055905060006040518060a001604052808a6001600160f81b0319168152602001336001600160a01b031660001b81526020018481526020016003548152602001898152509050610559828260405160200161053e9190612540565b60405160208183030381529060405280519060200120611081565b6040517fae8e7132ac098ecd5aa06ce4db258039931128a2b16f02b1a94c4035d1ef3bc890610591908b903390879087908e90612596565b60405180910390a1505050505050505050565b604051630fec317160e01b8152600481018690526000907f00000000000000000000000000000000000000000000000000000000000000006001600160a01b031690630fec317190602401602060405180830381865afa15801561060c573d6000803e3d6000fd5b505050506040513d601f19601f8201168201806040525081019061063091906125cf565b8511156106765760405162461bcd60e51b815260206004820152601460248201527324b73b30b634b210313637b1b590373ab6b132b960611b6044820152606401610361565b604051626b43d560e41b815260048101879052602481018690526000907f00000000000000000000000000000000000000000000000000000000000000006001600160a01b0316906306b43d5090604401602060405180830381865afa1580156106e4573d6000803e3d6000fd5b505050506040513d601f19601f8201168201806040525081019061070891906125cf565b9050600061074e8286868080601f0160208091040260200160405190810160405280939291908181526020018383808284376000920191909152508b925061029c915050565b9b9a5050505050505050505050565b60015460405163266218bb60e21b815260006004820181905260248201899052916001600160a01b03169063998862ec906044016020604051808303816000875af11580156107b0573d6000803e3d6000fd5b505050506040513d601f19601f820116820180604052508101906107d491906125cf565b9050600061083a8288888080601f0160208091040260200160405190810160405280939291908181526020018383808284376000920191909152507f0000000000000000000000000000000000000000000000000000000000000000925061029c915050565b93505050507f56e81f171bcc55a6ff8345e692c0f86e5b48e01b996cadc001622fb5e363b42160001b81036108a15760405162461bcd60e51b815260206004820152600d60248201526c696e76616c696420656e74727960981b6044820152606401610361565b6108e2818686868080601f01602080910402602001604051908101604052809392919081815260200183838082843760009201919091525061022a92505050565b505050505050505050565b6001600160a01b038116600090815260046020526040812054806109435760405162461bcd60e51b815260206004820152600d60248201526c24b73b30b634b2103a37b5b2b760991b6044820152606401610361565b8084116109835760405162461bcd60e51b815260206004820152600e60248201526d125b9d985b1a5908185b5bdd5b9d60921b6044820152606401610361565b600061098f8286612494565b90506001600160a01b0384166323b872dd33306109ac85876124a8565b6040516001600160e01b031960e086901b1681526001600160a01b03938416600482015292909116602483015260448201526064016020604051808303816000875af1158015610a00573d6000803e3d6000fd5b505050506040513d601f19601f82011682018060405250810190610a2491906124bf565b50604080516080810190915233815260009060208101610a4484866124a8565b81526001600160a01b0380881660208084019190915242604093840152600580546001810182556000828152865160049092027f036b6384b5eca791c62761152d0c79bb0604c104a5fb6f4eb0703f3154bb3db0810180549387166001600160a01b0319948516179055938701517f036b6384b5eca791c62761152d0c79bb0604c104a5fb6f4eb0703f3154bb3db1850155948601517f036b6384b5eca791c62761152d0c79bb0604c104a5fb6f4eb0703f3154bb3db2840180549190951691161790925560608401517f036b6384b5eca791c62761152d0c79bb0604c104a5fb6f4eb0703f3154bb3db390910155549192507f0000000000000000000000000000000000000000000000000000000000000000610b6285876124a8565b604080516001600160a01b039093166020840152820152606081018590526080016040516020818303038152906040529050600060036000815480929190610ba9906124e1565b91905055905060006040518060a001604052808d6001600160f81b0319168152602001306001600160a01b031660001b815260200184815260200160035481526020018c8152509050610c07828260405160200161053e9190612540565b7fae8e7132ac098ecd5aa06ce4db258039931128a2b16f02b1a94c4035d1ef3bc88c306001600160a01b031660001b85858f604051610c4a959493929190612596565b60405180910390a1604080518581523360208201527f3de4efbd8db74594066e59094053c2b4d165b124b2db2f49057fa6f456431c24910160405180910390a150919a9950505050505050505050565b600060058281548110610caf57610caf6125e8565b600091825260209182902060408051608081018252600490930290910180546001600160a01b03908116845260018201549484019490945260028082015490941691830191909152600301546060820181905291549092504291610d1391906125fe565b11610d605760405162461bcd60e51b815260206004820152601860248201527f4e6f7420616c6c6f7765642079657420746f20636c61696d00000000000000006044820152606401610361565b60408181015182516020840151925163a9059cbb60e01b81526001600160a01b0391821660048201526024810193909352169063a9059cbb906044016020604051808303816000875af1158015610dbb573d6000803e3d6000fd5b505050506040513d601f19601f82011682018060405250810190610ddf91906124bf565b5060058281548110610df357610df36125e8565b60009182526020822060049091020180546001600160a01b03199081168255600182018390556002820180549091169055600301555050565b600060606000610e3b866110ce565b9050610e48818686611100565b9250925050935093915050565b6000602182600001511115610eac5760405162461bcd60e51b815260206004820152601a60248201527f496e76616c696420524c5020627974657333322076616c75652e0000000000006044820152606401610361565b6000806000610eba856111db565b919450925090506000816001811115610ed557610ed5612611565b14610f225760405162461bcd60e51b815260206004820152601a60248201527f496e76616c696420524c5020627974657333322076616c75652e0000000000006044820152606401610361565b6000838660200151610f3491906125fe565b805190915060208410156102925760208490036101000a90049695505050505050565b60008060008085610fb35750600092508291507f56e81f171bcc55a6ff8345e692c0f86e5b48e01b996cadc001622fb5e363b42190507fc5d2460186f7233c927e7db2dcc703c0e500b653ca82273b7bfad8045d85a470611078565b6000610fee610fe98760408051808201825260008082526020918201528151808301909252825182529182019181019190915290565b6114e1565b905061101681600060ff1681518110611009576110096125e8565b60200260200101516116cd565b945061103181600160ff1681518110611009576110096125e8565b935061105981600360ff168151811061104c5761104c6125e8565b6020026020010151610e55565b915061107481600260ff168151811061104c5761104c6125e8565b9250505b92959194509250565b6000828152602081815260409182902083905581518481529081018390527f93ba20164825fe2d6acab1dcce38b7cbcaadf6704448ca1a5c9caa2276e9f52d910160405180910390a15050565b606081805190602001206040516020016110ea91815260200190565b6040516020818303038152906040529050919050565b60006060600061110f856116de565b90506000806000611121848a896117ce565b815192955090935091501580806111355750815b6111815760405162461bcd60e51b815260206004820152601a60248201527f50726f76696465642070726f6f6620697320696e76616c69642e0000000000006044820152606401610361565b60008161119d57604051806020016040528060008152506111c9565b6111c9866111ac600188612627565b815181106111bc576111bc6125e8565b6020026020010151611be3565b919b919a509098505050505050505050565b6000806000808460000151116112335760405162461bcd60e51b815260206004820152601860248201527f524c50206974656d2063616e6e6f74206265206e756c6c2e00000000000000006044820152606401610361565b6020840151805160001a607f81116112585760006001600094509450945050506114da565b60b781116112c8578551607f1982019081106112b65760405162461bcd60e51b815260206004820152601960248201527f496e76616c696420524c502073686f727420737472696e672e000000000000006044820152606401610361565b600195509350600092506114da915050565b60bf81116113a257855160b61982019081106113265760405162461bcd60e51b815260206004820152601f60248201527f496e76616c696420524c50206c6f6e6720737472696e67206c656e6774682e006044820152606401610361565b6000816020036101000a600185015104905080820188600001511161138d5760405162461bcd60e51b815260206004820152601860248201527f496e76616c696420524c50206c6f6e6720737472696e672e00000000000000006044820152606401610361565b600190910195509350600092506114da915050565b60f7811161141157855160bf1982019081106114005760405162461bcd60e51b815260206004820152601760248201527f496e76616c696420524c502073686f7274206c6973742e0000000000000000006044820152606401610361565b6001955093508492506114da915050565b855160f61982019081106114675760405162461bcd60e51b815260206004820152601d60248201527f496e76616c696420524c50206c6f6e67206c697374206c656e6774682e0000006044820152606401610361565b6000816020036101000a60018501510490508082018860000151116114c75760405162461bcd60e51b815260206004820152601660248201527524b73b30b634b210292628103637b733903634b9ba1760511b6044820152606401610361565b60019182019650945092506114da915050565b9193909250565b60606000806114ef846111db565b9193509091506001905081600181111561150b5761150b612611565b146115585760405162461bcd60e51b815260206004820152601760248201527f496e76616c696420524c50206c6973742076616c75652e0000000000000000006044820152606401610361565b6040805160208082526104208201909252600091816020015b60408051808201909152600080825260208201528152602001906001900390816115715790505090506000835b86518110156116c2576020821061160a5760405162461bcd60e51b815260206004820152602a60248201527f50726f766964656420524c50206c6973742065786365656473206d6178206c6960448201526939ba103632b733ba341760b11b6064820152608401610361565b6000806116476040518060400160405280858c6000015161162b9190612627565b8152602001858c6020015161164091906125fe565b90526111db565b50915091506040518060400160405280838361166391906125fe565b8152602001848b6020015161167891906125fe565b81525085858151811061168d5761168d6125e8565b60209081029190910101526116a36001856125fe565b93506116af81836125fe565b6116b990846125fe565b9250505061159e565b508152949350505050565b60006116d882610e55565b92915050565b606060006116eb83611c0d565b90506000815167ffffffffffffffff81111561170957611709612195565b60405190808252806020026020018201604052801561174e57816020015b60408051808201909152606080825260208201528152602001906001900390816117275790505b50905060005b82518110156117c6576000611781848381518110611774576117746125e8565b6020026020010151611c40565b9050604051806040016040528082815260200161179d83611c0d565b8152508383815181106117b2576117b26125e8565b602090810291909101015250600101611754565b509392505050565b600060608180806117de87611cd0565b90506000869050600080611805604051806040016040528060608152602001606081525090565b60005b8c51811015611bbb578c8181518110611823576118236125e8565b60200260200101519150828461183991906125fe565b93506118466001886125fe565b9650836000036118a15781518051602090910120851461189c5760405162461bcd60e51b8152602060048201526011602482015270092dcecc2d8d2c840e4dedee840d0c2e6d607b1b6044820152606401610361565b61195e565b8151516020116119035781518051602090910120851461189c5760405162461bcd60e51b815260206004820152601b60248201527f496e76616c6964206c6172676520696e7465726e616c206861736800000000006044820152606401610361565b846119118360000151611dec565b1461195e5760405162461bcd60e51b815260206004820152601a60248201527f496e76616c696420696e7465726e616c206e6f646520686173680000000000006044820152606401610361565b61196a601060016125fe565b826020015151036119dc5785518414611bbb576000868581518110611991576119916125e8565b602001015160f81c60f81b60f81c9050600083602001518260ff16815181106119bc576119bc6125e8565b602002602001015190506119cf81611e14565b9650600194505050611bb3565b600282602001515103611b6b5760006119f483611e51565b9050600081600081518110611a0b57611a0b6125e8565b016020015160f81c90506000611a2260028361263a565b611a2d90600261265c565b90506000611a3e848360ff16611e75565b90506000611a4c8b8a611e75565b90506000611a5a8383611ea5565b905060ff851660021480611a71575060ff85166003145b15611aab57808351148015611a865750808251145b15611a9857611a95818b6125fe565b99505b50600160ff1b9950611bbb945050505050565b60ff85161580611abe575060ff85166001145b15611b145780600003611ade5750600160ff1b9950611bbb945050505050565b611b058860200151600181518110611af857611af86125e8565b6020026020010151611e14565b9a509750611bb3945050505050565b60405162461bcd60e51b815260206004820152602660248201527f52656365697665642061206e6f6465207769746820616e20756e6b6e6f776e206044820152650e0e4caccd2f60d31b6064820152608401610361565b60405162461bcd60e51b815260206004820152601d60248201527f526563656976656420616e20756e706172736561626c65206e6f64652e0000006044820152606401610361565b600101611808565b50600160ff1b841486611bce8786611e75565b909e909d50909b509950505050505050505050565b602081015180516060916116d891611bfd90600190612627565b81518110611774576117746125e8565b6040805180820182526000808252602091820152815180830190925282518252808301908201526060906116d8906114e1565b60606000806000611c50856111db565b919450925090506000816001811115611c6b57611c6b612611565b14611cb85760405162461bcd60e51b815260206004820152601860248201527f496e76616c696420524c502062797465732076616c75652e00000000000000006044820152606401610361565b611cc785602001518484611f21565b95945050505050565b60606000825160020267ffffffffffffffff811115611cf157611cf1612195565b6040519080825280601f01601f191660200182016040528015611d1b576020820181803683370190505b50905060005b8351811015611de5576004848281518110611d3e57611d3e6125e8565b602001015160f81c60f81b6001600160f81b031916901c828260020281518110611d6a57611d6a6125e8565b60200101906001600160f81b031916908160001a9053506010848281518110611d9557611d956125e8565b016020015160f81c81611daa57611daa612468565b0660f81b828260020260010181518110611dc657611dc66125e8565b60200101906001600160f81b031916908160001a905350600101611d21565b5092915050565b6000602082511015611e0057506020015190565b818060200190518101906116d891906125cf565b60006060602083600001511015611e3557611e2e83611fd3565b9050611e41565b611e3e83611c40565b90505b611e4a81611dec565b9392505050565b60606116d8611e708360200151600081518110611774576117746125e8565b611cd0565b606081835103600003611e9757506040805160208101909152600081526116d8565b611e4a838384865103611fde565b6000805b808451118015611eb95750808351115b8015611f0a5750828181518110611ed257611ed26125e8565b602001015160f81c60f81b6001600160f81b031916848281518110611ef957611ef96125e8565b01602001516001600160f81b031916145b15611e4a5780611f19816124e1565b915050611ea9565b606060008267ffffffffffffffff811115611f3e57611f3e612195565b6040519080825280601f01601f191660200182016040528015611f68576020820181803683370190505b5090508051600003611f7b579050611e4a565b8484016020820160005b60208604811015611fa6578251825260209283019290910190600101611f85565b5060006001602087066020036101000a039050808251168119845116178252839450505050509392505050565b60606116d882612120565b60608182601f0110156120245760405162461bcd60e51b815260206004820152600e60248201526d736c6963655f6f766572666c6f7760901b6044820152606401610361565b8282840110156120675760405162461bcd60e51b815260206004820152600e60248201526d736c6963655f6f766572666c6f7760901b6044820152606401610361565b818301845110156120ae5760405162461bcd60e51b8152602060048201526011602482015270736c6963655f6f75744f66426f756e647360781b6044820152606401610361565b6060821580156120cd5760405191506000825260208201604052612117565b6040519150601f8416801560200281840101858101878315602002848b0101015b818310156121065780518352602092830192016120ee565b5050858452601f01601f1916604052505b50949350505050565b60606116d8826020015160008460000151611f21565b60006020828403121561214857600080fd5b5035919050565b80356001600160a01b038116811461216657600080fd5b919050565b6000806040838503121561217e57600080fd5b6121878361214f565b946020939093013593505050565b634e487b7160e01b600052604160045260246000fd5b600082601f8301126121bc57600080fd5b813567ffffffffffffffff808211156121d7576121d7612195565b604051601f8301601f19908116603f011681019082821181831017156121ff576121ff612195565b8160405283815286602085880101111561221857600080fd5b836020870160208301376000602085830101528094505050505092915050565b60008060006060848603121561224d57600080fd5b8335925060208401359150604084013567ffffffffffffffff81111561227257600080fd5b61227e868287016121ab565b9150509250925092565b60008060006060848603121561229d57600080fd5b83359250602084013567ffffffffffffffff8111156122bb57600080fd5b6122c7868287016121ab565b9250506122d66040850161214f565b90509250925092565b600080600080608085870312156122f557600080fd5b84356001600160f81b03198116811461230d57600080fd5b935060208501359250604085013591506123296060860161214f565b905092959194509250565b60008083601f84011261234657600080fd5b50813567ffffffffffffffff81111561235e57600080fd5b60208301915083602082850101111561237657600080fd5b9250929050565b60008060008060006080868803121561239557600080fd5b85359450602086013593506123ac6040870161214f565b9250606086013567ffffffffffffffff8111156123c857600080fd5b6123d488828901612334565b969995985093965092949392505050565b600080600080600080608087890312156123fe57600080fd5b86359550602087013567ffffffffffffffff8082111561241d57600080fd5b6124298a838b01612334565b909750955060408901359450606089013591508082111561244957600080fd5b5061245689828a01612334565b979a9699509497509295939492505050565b634e487b7160e01b600052601260045260246000fd5b634e487b7160e01b600052601160045260246000fd5b6000826124a3576124a3612468565b500490565b80820281158282048414176116d8576116d861247e565b6000602082840312156124d157600080fd5b81518015158114611e4a57600080fd5b6000600182016124f3576124f361247e565b5060010190565b6000815180845260005b8181101561252057602081850181015186830182015201612504565b506000602082860101526020601f19601f83011685010191505092915050565b6020815260ff60f81b8251166020820152602082015160408201526000604083015160a0606084015261257660c08401826124fa565b905060608401516080840152608084015160a08401528091505092915050565b60ff60f81b8616815284602082015260a0604082015260006125bb60a08301866124fa565b606083019490945250608001529392505050565b6000602082840312156125e157600080fd5b5051919050565b634e487b7160e01b600052603260045260246000fd5b808201808211156116d8576116d861247e565b634e487b7160e01b600052602160045260246000fd5b818103818111156116d8576116d861247e565b600060ff83168061264d5761264d612468565b8060ff84160691505092915050565b60ff82811682821603908111156116d8576116d861247e56fea26469706673582212207ee556ba16854902a4e3044658f75faec3c194fab9d068d89abe850c19607dab64736f6c63430008190033","linkReferences":{}},"methodIdentifiers":{"NAMES_MAPPING_SLOT()":"adf28726","claimPayment(uint256)":"c63fdcc7","getStorageLocationForKey(uint256)":"fbf611a7","getStorageRoot(bytes32,uint256,address,bytes)":"9a089eb6","getValueFromId(uint256)":"3eabceeb","nexus()":"a3f5c1d2","paymentWithFallback(bytes1,uint256,uint256,address)":"b12e180e","paymentWithoutFallback(bytes1,uint256,uint256,address)":"80a74597","updatePrice(address,uint256)":"457972de","verifyAccount(bytes32,bytes,address)":"7f1b8c73","verifyPayment(bytes32,bytes,bytes32,bytes)":"ae7b2596","verifyStorage(bytes32,bytes32,bytes)":"6f7096dc"},"id":9}