{"abi":[{"type":"constructor","inputs":[{"name":"_mailbox","type":"address","internalType":"contract INexusMailbox"},{"name":"_nftNexusId","type":"bytes32","internalType":"bytes32"},{"name":"_nftContractAddress","type":"address","internalType":"address"}],"stateMutability":"nonpayable"},{"type":"function","name":"mailbox","inputs":[],"outputs":[{"name":"","type":"address","internalType":"contract INexusMailbox"}],"stateMutability":"view"},{"type":"function","name":"pay","inputs":[{"name":"tokenAddress","type":"address","internalType":"address"},{"name":"amount","type":"uint256","internalType":"uint256"},{"name":"nftId","type":"uint256","internalType":"uint256"},{"name":"nonce","type":"uint256","internalType":"uint256"},{"name":"to","type":"address","internalType":"address"}],"outputs":[],"stateMutability":"nonpayable"},{"type":"event","name":"PendingPayout","inputs":[{"name":"index","type":"uint256","indexed":false,"internalType":"uint256"},{"name":"to","type":"address","indexed":false,"internalType":"address"}],"anonymous":false},{"type":"error","name":"AlreadyPaidFor","inputs":[]}],"bytecode":{"object":"0x60c060405234801561000f575f80fd5b5060405161056838038061056883398101604081905261002e9161006f565b5f80546001600160a01b0319166001600160a01b039485161790556080919091521660a0526100af565b6001600160a01b038116811461006c575f80fd5b50565b5f805f60608486031215610081575f80fd5b835161008c81610058565b6020850151604086015191945092506100a481610058565b809150509250925092565b60805160a0516104986100d05f395f61024c01525f6101eb01526104985ff3fe608060405234801561000f575f80fd5b5060043610610034575f3560e01c806371e6c5ef14610038578063d5438eae1461004d575b5f80fd5b61004b610046366004610312565b61007b565b005b5f5461005f906001600160a01b031681565b6040516001600160a01b03909116815260200160405180910390f35b6040516323b872dd60e01b81523360048201526001600160a01b038281166024830152604482018690528616906323b872dd906064016020604051808303815f875af11580156100cd573d5f803e3d5ffd5b505050506040513d601f19601f820116820180604052508101906100f1919061035e565b505f83815260016020819052604082200154900361012157604051620e35b360e31b815260040160405180910390fd5b60408051608080820183526001600160a01b03848116835260208084018881528486018a81528b841660608088019182525f8c815260018087528a82208a518154908a166001600160a01b03199182168117835588518385015587516002840155865160039093018054938c16939092169290921790558b51808901919091529551868c01529351918501919091529051909416828601528651808303909501855260a0820181815260e08301909752949593949293929160c090910190803683370190505090507f0000000000000000000000000000000000000000000000000000000000000000815f8151811061021c5761021c610384565b60209081029190910101526040805160018082528183019092525f918160200160208202803683370190505090507f0000000000000000000000000000000000000000000000000000000000000000815f8151811061027d5761027d610384565b6001600160a01b0392831660209182029290920101525f546040516332e3594f60e21b815291169063cb8d653c906102bf90859085908b9089906004016103c6565b5f604051808303815f87803b1580156102d6575f80fd5b505af11580156102e8573d5f803e3d5ffd5b50505050505050505050505050565b80356001600160a01b038116811461030d575f80fd5b919050565b5f805f805f60a08688031215610326575f80fd5b61032f866102f7565b9450602086013593506040860135925060608601359150610352608087016102f7565b90509295509295909350565b5f6020828403121561036e575f80fd5b8151801515811461037d575f80fd5b9392505050565b634e487b7160e01b5f52603260045260245ffd5b5f81518084528060208401602086015e5f602082860101526020601f19601f83011685010191505092915050565b608080825285519082018190525f9060209060a0840190828901845b828110156103fe578151845292840192908401906001016103e2565b505050838103828501528651808252878301918301905f5b8181101561043b5783516001600160a01b031683529284019291840191600101610416565b505086604086015284810360608601526104558187610398565b999850505050505050505056fea2646970667358221220bc116890a19db6a9eee942f75d93f0bbd124e933f402feeb69972d05c13c4e9c64736f6c63430008190033","linkReferences":{}},"methodIdentifiers":{"mailbox()":"d5438eae","pay(address,uint256,uint256,uint256,address)":"71e6c5ef"},"id":10}