{"abi":[{"type":"constructor","inputs":[{"name":"nexusManager","type":"address","internalType":"contract INexusProofManager"},{"name":"fixedPayoutAddress","type":"address","internalType":"address"},{"name":"targetContractAddress","type":"address","internalType":"address"}],"stateMutability":"nonpayable"},{"type":"function","name":"claimPayment","inputs":[{"name":"index","type":"uint256","internalType":"uint256"}],"outputs":[],"stateMutability":"nonpayable"},{"type":"function","name":"idToHash","inputs":[{"name":"","type":"uint256","internalType":"uint256"}],"outputs":[{"name":"","type":"bytes32","internalType":"bytes32"}],"stateMutability":"view"},{"type":"function","name":"nexus","inputs":[],"outputs":[{"name":"","type":"address","internalType":"contract INexusProofManager"}],"stateMutability":"view"},{"type":"function","name":"paymentWithFallback","inputs":[{"name":"messageType","type":"bytes1","internalType":"bytes1"},{"name":"chainId","type":"uint256","internalType":"uint256"},{"name":"amount","type":"uint256","internalType":"uint256"},{"name":"payoutToken","type":"address","internalType":"address"}],"outputs":[{"name":"","type":"uint256","internalType":"uint256"}],"stateMutability":"nonpayable"},{"type":"function","name":"paymentWithoutFallback","inputs":[{"name":"messageType","type":"bytes1","internalType":"bytes1"},{"name":"chainId","type":"uint256","internalType":"uint256"},{"name":"amount","type":"uint256","internalType":"uint256"},{"name":"payoutToken","type":"address","internalType":"address"}],"outputs":[],"stateMutability":"nonpayable"},{"type":"function","name":"updatePrice","inputs":[{"name":"token","type":"address","internalType":"address"},{"name":"price","type":"uint256","internalType":"uint256"}],"outputs":[],"stateMutability":"nonpayable"},{"type":"function","name":"verifyPayment","inputs":[{"name":"paymentChainBlockNumber","type":"bytes32","internalType":"bytes32"},{"name":"accountTrieProof","type":"bytes","internalType":"bytes"},{"name":"slot","type":"bytes32","internalType":"bytes32"},{"name":"storageSlotTrieProof","type":"bytes","internalType":"bytes"}],"outputs":[],"stateMutability":"nonpayable"},{"type":"event","name":"NewEntry","inputs":[{"name":"key","type":"uint256","indexed":false,"internalType":"uint256"},{"name":"hash_value","type":"bytes32","indexed":false,"internalType":"bytes32"}],"anonymous":false},{"type":"event","name":"PendingPayout","inputs":[{"name":"index","type":"uint256","indexed":false,"internalType":"uint256"},{"name":"to","type":"address","indexed":false,"internalType":"address"}],"anonymous":false},{"type":"event","name":"PreImage","inputs":[{"name":"messageType","type":"bytes1","indexed":false,"internalType":"bytes1"},{"name":"from","type":"bytes32","indexed":false,"internalType":"bytes32"},{"name":"data","type":"bytes","indexed":false,"internalType":"bytes"},{"name":"messageId","type":"uint256","indexed":false,"internalType":"uint256"},{"name":"chainId","type":"uint256","indexed":false,"internalType":"uint256"}],"anonymous":false}],"bytecode":{"object":"0x60c060405262015180600255600060035534801561001c57600080fd5b5060405161109438038061109483398101604081905261003b9161007e565b600180546001600160a01b0319166001600160a01b039485161790559082166080521660a0526100cb565b6001600160a01b038116811461007b57600080fd5b50565b60008060006060848603121561009357600080fd5b835161009e81610066565b60208501519093506100af81610066565b60408501519092506100c081610066565b809150509250925092565b60805160a051610f966100fe6000396000610498015260008181610213015281816102b901526108360152610f966000f3fe608060405234801561001057600080fd5b506004361061007d5760003560e01c8063a3f5c1d21161005b578063a3f5c1d2146100f4578063ae7b25961461011f578063b12e180e14610132578063c63fdcc71461014557600080fd5b8063457972de1461008257806380a74597146100ae5780638fb5548f146100c1575b600080fd5b6100ac610090366004610b92565b6001600160a01b03909116600090815260046020526040902055565b005b6100ac6100bc366004610bbc565b610158565b6100e16100cf366004610c11565b60006020819052908152604090205481565b6040519081526020015b60405180910390f35b600154610107906001600160a01b031681565b6040516001600160a01b0390911681526020016100eb565b6100ac61012d366004610c73565b6103ed565b6100e1610140366004610bbc565b6105ea565b6100ac610153366004610c11565b610997565b6001600160a01b038116600090815260046020526040902054806101b35760405162461bcd60e51b815260206004820152600d60248201526c24b73b30b634b2103a37b5b2b760991b60448201526064015b60405180910390fd5b8083116101f35760405162461bcd60e51b815260206004820152600e60248201526d125b9d985b1a5908185b5bdd5b9d60921b60448201526064016101aa565b60006101ff8285610d0c565b90506001600160a01b0383166323b872dd337f000000000000000000000000000000000000000000000000000000000000000061023c8587610d2e565b6040516001600160e01b031960e086901b1681526001600160a01b03938416600482015292909116602483015260448201526064016020604051808303816000875af1158015610290573d6000803e3d6000fd5b505050506040513d601f19601f820116820180604052508101906102b49190610d4b565b5060007f00000000000000000000000000000000000000000000000000000000000000006102e28385610d2e565b604080516001600160a01b03909316602084015282015260608101839052608001604051602081830303815290604052905060006003600081548092919061032990610d74565b91905055905060006040518060a001604052808a6001600160f81b0319168152602001336001600160a01b031660001b815260200184815260200160035481526020018981525090506103a282826040516020016103879190610dd3565b60405160208183030381529060405280519060200120610b29565b6040517fae8e7132ac098ecd5aa06ce4db258039931128a2b16f02b1a94c4035d1ef3bc8906103da908b903390879087908e90610e29565b60405180910390a1505050505050505050565b60015460405163266218bb60e21b815260006004820181905260248201899052916001600160a01b03169063998862ec906044016020604051808303816000875af1158015610440573d6000803e3d6000fd5b505050506040513d601f19601f820116820180604052508101906104649190610e62565b600154604051637f1b8c7360e01b81529192506000916001600160a01b0390911690637f1b8c73906104c09085908b908b907f000000000000000000000000000000000000000000000000000000000000000090600401610ea4565b608060405180830381865afa1580156104dd573d6000803e3d6000fd5b505050506040513d601f19601f820116820180604052508101906105019190610ed7565b93505050507f56e81f171bcc55a6ff8345e692c0f86e5b48e01b996cadc001622fb5e363b42160001b81036105685760405162461bcd60e51b815260206004820152600d60248201526c696e76616c696420656e74727960981b60448201526064016101aa565b600154604051631bdc25b760e21b81526001600160a01b0390911690636f7096dc9061059e908490899089908990600401610f0d565b602060405180830381865afa1580156105bb573d6000803e3d6000fd5b505050506040513d601f19601f820116820180604052508101906105df9190610e62565b505050505050505050565b6001600160a01b038116600090815260046020526040812054806106405760405162461bcd60e51b815260206004820152600d60248201526c24b73b30b634b2103a37b5b2b760991b60448201526064016101aa565b8084116106805760405162461bcd60e51b815260206004820152600e60248201526d125b9d985b1a5908185b5bdd5b9d60921b60448201526064016101aa565b600061068c8286610d0c565b90506001600160a01b0384166323b872dd33306106a98587610d2e565b6040516001600160e01b031960e086901b1681526001600160a01b03938416600482015292909116602483015260448201526064016020604051808303816000875af11580156106fd573d6000803e3d6000fd5b505050506040513d601f19601f820116820180604052508101906107219190610d4b565b506040805160808101909152338152600090602081016107418486610d2e565b81526001600160a01b0380881660208084019190915242604093840152600580546001810182556000828152865160049092027f036b6384b5eca791c62761152d0c79bb0604c104a5fb6f4eb0703f3154bb3db0810180549387166001600160a01b0319948516179055938701517f036b6384b5eca791c62761152d0c79bb0604c104a5fb6f4eb0703f3154bb3db1850155948601517f036b6384b5eca791c62761152d0c79bb0604c104a5fb6f4eb0703f3154bb3db2840180549190951691161790925560608401517f036b6384b5eca791c62761152d0c79bb0604c104a5fb6f4eb0703f3154bb3db390910155549192507f000000000000000000000000000000000000000000000000000000000000000061085f8587610d2e565b604080516001600160a01b0390931660208401528201526060810185905260800160405160208183030381529060405290506000600360008154809291906108a690610d74565b91905055905060006040518060a001604052808d6001600160f81b0319168152602001306001600160a01b031660001b815260200184815260200160035481526020018c815250905061090482826040516020016103879190610dd3565b7fae8e7132ac098ecd5aa06ce4db258039931128a2b16f02b1a94c4035d1ef3bc88c306001600160a01b031660001b85858f604051610947959493929190610e29565b60405180910390a1604080518581523360208201527f3de4efbd8db74594066e59094053c2b4d165b124b2db2f49057fa6f456431c24910160405180910390a150919a9950505050505050505050565b6000600582815481106109ac576109ac610f37565b600091825260209182902060408051608081018252600490930290910180546001600160a01b03908116845260018201549484019490945260028082015490941691830191909152600301546060820181905291549092504291610a109190610f4d565b11610a5d5760405162461bcd60e51b815260206004820152601860248201527f4e6f7420616c6c6f7765642079657420746f20636c61696d000000000000000060448201526064016101aa565b60408181015182516020840151925163a9059cbb60e01b81526001600160a01b0391821660048201526024810193909352169063a9059cbb906044016020604051808303816000875af1158015610ab8573d6000803e3d6000fd5b505050506040513d601f19601f82011682018060405250810190610adc9190610d4b565b5060058281548110610af057610af0610f37565b60009182526020822060049091020180546001600160a01b03199081168255600182018390556002820180549091169055600301555050565b6000828152602081815260409182902083905581518481529081018390527f93ba20164825fe2d6acab1dcce38b7cbcaadf6704448ca1a5c9caa2276e9f52d910160405180910390a15050565b80356001600160a01b0381168114610b8d57600080fd5b919050565b60008060408385031215610ba557600080fd5b610bae83610b76565b946020939093013593505050565b60008060008060808587031215610bd257600080fd5b84356001600160f81b031981168114610bea57600080fd5b93506020850135925060408501359150610c0660608601610b76565b905092959194509250565b600060208284031215610c2357600080fd5b5035919050565b60008083601f840112610c3c57600080fd5b50813567ffffffffffffffff811115610c5457600080fd5b602083019150836020828501011115610c6c57600080fd5b9250929050565b60008060008060008060808789031215610c8c57600080fd5b86359550602087013567ffffffffffffffff80821115610cab57600080fd5b610cb78a838b01610c2a565b9097509550604089013594506060890135915080821115610cd757600080fd5b50610ce489828a01610c2a565b979a9699509497509295939492505050565b634e487b7160e01b600052601160045260246000fd5b600082610d2957634e487b7160e01b600052601260045260246000fd5b500490565b8082028115828204841417610d4557610d45610cf6565b92915050565b600060208284031215610d5d57600080fd5b81518015158114610d6d57600080fd5b9392505050565b600060018201610d8657610d86610cf6565b5060010190565b6000815180845260005b81811015610db357602081850181015186830182015201610d97565b506000602082860101526020601f19601f83011685010191505092915050565b6020815260ff60f81b8251166020820152602082015160408201526000604083015160a06060840152610e0960c0840182610d8d565b905060608401516080840152608084015160a08401528091505092915050565b60ff60f81b8616815284602082015260a060408201526000610e4e60a0830186610d8d565b606083019490945250608001529392505050565b600060208284031215610e7457600080fd5b5051919050565b81835281816020850137506000828201602090810191909152601f909101601f19169091010190565b848152606060208201526000610ebe606083018587610e7b565b905060018060a01b038316604083015295945050505050565b60008060008060808587031215610eed57600080fd5b505082516020840151604085015160609095015191969095509092509050565b848152836020820152606060408201526000610f2d606083018486610e7b565b9695505050505050565b634e487b7160e01b600052603260045260246000fd5b80820180821115610d4557610d45610cf656fea2646970667358221220c82d401e3df35e5869dcddf822ac5d0bada83eb30c3eff2f67b6b459231692a964736f6c63430008140033","linkReferences":{}},"methodIdentifiers":{"claimPayment(uint256)":"c63fdcc7","idToHash(uint256)":"8fb5548f","nexus()":"a3f5c1d2","paymentWithFallback(bytes1,uint256,uint256,address)":"b12e180e","paymentWithoutFallback(bytes1,uint256,uint256,address)":"80a74597","updatePrice(address,uint256)":"457972de","verifyPayment(bytes32,bytes,bytes32,bytes)":"ae7b2596"},"id":10}