{"abi":[{"type":"constructor","inputs":[{"name":"nexusManager","type":"address","internalType":"contract INexusProofManager"},{"name":"fixedPayoutAddress","type":"address","internalType":"address"},{"name":"targetContractAddress","type":"address","internalType":"address"}],"stateMutability":"nonpayable"},{"type":"function","name":"NAMES_MAPPING_SLOT","inputs":[],"outputs":[{"name":"","type":"uint256","internalType":"uint256"}],"stateMutability":"view"},{"type":"function","name":"claimPayment","inputs":[{"name":"index","type":"uint256","internalType":"uint256"}],"outputs":[],"stateMutability":"nonpayable"},{"type":"function","name":"getStorageLocationForKey","inputs":[{"name":"_key","type":"uint256","internalType":"uint256"}],"outputs":[{"name":"","type":"bytes32","internalType":"bytes32"}],"stateMutability":"pure"},{"type":"function","name":"getStorageRoot","inputs":[{"name":"nexusAppID","type":"bytes32","internalType":"bytes32"},{"name":"chainBlockNumber","type":"uint256","internalType":"uint256"},{"name":"account","type":"address","internalType":"address"},{"name":"accountTrieProof","type":"bytes","internalType":"bytes"}],"outputs":[{"name":"","type":"bytes32","internalType":"bytes32"}],"stateMutability":"view"},{"type":"function","name":"getValueFromId","inputs":[{"name":"key","type":"uint256","internalType":"uint256"}],"outputs":[{"name":"","type":"bytes32","internalType":"bytes32"}],"stateMutability":"view"},{"type":"function","name":"nexus","inputs":[],"outputs":[{"name":"","type":"address","internalType":"contract INexusProofManager"}],"stateMutability":"view"},{"type":"function","name":"paymentWithFallback","inputs":[{"name":"messageType","type":"bytes1","internalType":"bytes1"},{"name":"chainId","type":"uint256","internalType":"uint256"},{"name":"amount","type":"uint256","internalType":"uint256"},{"name":"payoutToken","type":"address","internalType":"address"}],"outputs":[{"name":"","type":"uint256","internalType":"uint256"}],"stateMutability":"nonpayable"},{"type":"function","name":"paymentWithoutFallback","inputs":[{"name":"messageType","type":"bytes1","internalType":"bytes1"},{"name":"chainId","type":"uint256","internalType":"uint256"},{"name":"amount","type":"uint256","internalType":"uint256"},{"name":"payoutToken","type":"address","internalType":"address"}],"outputs":[],"stateMutability":"nonpayable"},{"type":"function","name":"updatePrice","inputs":[{"name":"token","type":"address","internalType":"address"},{"name":"price","type":"uint256","internalType":"uint256"}],"outputs":[],"stateMutability":"nonpayable"},{"type":"function","name":"verifyAccount","inputs":[{"name":"latestState","type":"bytes32","internalType":"bytes32"},{"name":"accountTrieProof","type":"bytes","internalType":"bytes"},{"name":"account","type":"address","internalType":"address"}],"outputs":[{"name":"nonce","type":"uint256","internalType":"uint256"},{"name":"accountBalance","type":"uint256","internalType":"uint256"},{"name":"codeHash","type":"bytes32","internalType":"bytes32"},{"name":"storageRoot","type":"bytes32","internalType":"bytes32"}],"stateMutability":"view"},{"type":"function","name":"verifyPayment","inputs":[{"name":"paymentChainBlockNumber","type":"bytes32","internalType":"bytes32"},{"name":"accountTrieProof","type":"bytes","internalType":"bytes"},{"name":"slot","type":"bytes32","internalType":"bytes32"},{"name":"storageSlotTrieProof","type":"bytes","internalType":"bytes"}],"outputs":[],"stateMutability":"nonpayable"},{"type":"function","name":"verifyStorage","inputs":[{"name":"storageRoot","type":"bytes32","internalType":"bytes32"},{"name":"slot","type":"bytes32","internalType":"bytes32"},{"name":"storageSlotTrieProof","type":"bytes","internalType":"bytes"}],"outputs":[{"name":"slotValue","type":"bytes32","internalType":"bytes32"}],"stateMutability":"view"},{"type":"event","name":"NewEntry","inputs":[{"name":"key","type":"uint256","indexed":false,"internalType":"uint256"},{"name":"hash_value","type":"bytes32","indexed":false,"internalType":"bytes32"}],"anonymous":false},{"type":"event","name":"PendingPayout","inputs":[{"name":"index","type":"uint256","indexed":false,"internalType":"uint256"},{"name":"to","type":"address","indexed":false,"internalType":"address"}],"anonymous":false},{"type":"event","name":"PreImage","inputs":[{"name":"messageType","type":"bytes1","indexed":false,"internalType":"bytes1"},{"name":"from","type":"bytes32","indexed":false,"internalType":"bytes32"},{"name":"data","type":"bytes","indexed":false,"internalType":"bytes"},{"name":"messageId","type":"uint256","indexed":false,"internalType":"uint256"},{"name":"chainId","type":"uint256","indexed":false,"internalType":"uint256"}],"anonymous":false}],"bytecode":{"object":"0x60e06040526201518060025560006003553480156200001d57600080fd5b50604051620027ce380380620027ce83398101604081905262000040916200008c565b6001600160a01b039283166080819052600180546001600160a01b031916909117905590821660a0521660c052620000e0565b6001600160a01b03811681146200008957600080fd5b50565b600080600060608486031215620000a257600080fd5b8351620000af8162000073565b6020850151909350620000c28162000073565b6040850151909250620000d58162000073565b809150509250925092565b60805160a05160c0516126a96200012560003960006108440152600081816103fd015281816104a30152610b370152600081816105f001526106c801526126a96000f3fe608060405234801561001057600080fd5b50600436106100b45760003560e01c8063a3f5c1d211610071578063a3f5c1d214610184578063adf28726146101af578063ae7b2596146101b7578063b12e180e146101ca578063c63fdcc7146101dd578063fbf611a7146101f057600080fd5b80633eabceeb146100b9578063457972de146100ec5780636f7096dc146101185780637f1b8c731461012b57806380a745971461015e5780639a089eb614610171575b600080fd5b6100d96100c736600461214a565b60009081526020819052604090205490565b6040519081526020015b60405180910390f35b6101166100fa36600461217f565b6001600160a01b03909116600090815260046020526040902055565b005b6100d96101263660046121f2565b61022a565b61013e61013936600461225b565b6102cf565b6040805194855260208501939093529183015260608201526080016100e3565b61011661016c366004612326565b610342565b6100d961017f36600461237b565b6105d7565b600154610197906001600160a01b031681565b6040516001600160a01b0390911681526020016100e3565b6100d9600081565b6101166101c53660046123e3565b610790565b6100d96101d8366004612326565b6108eb565b6101166101eb36600461214a565b610c98565b6100d96101fe36600461214a565b604080516020808201939093526000818301528151808203830181526060909101909152805191012090565b6000808460405160200161024091815260200190565b60408051601f198184030181526020601f870181900481028401810190925285835292506000916102909184919088908890819084018382808284376000920191909152508c9250610e2a915050565b6040805180820182526000808252602091820152815180830190925282518252808301908201529092506102c49150610e53565b979650505050505050565b600080600080600085604051602001610300919060609190911b6bffffffffffffffffffffffff1916815260140190565b604051602081830303815290604052905060008061031f838a8c610e2a565b9150915061032d8282610f56565b929d919c50919a509098509650505050505050565b6001600160a01b0381166000908152600460205260409020548061039d5760405162461bcd60e51b815260206004820152600d60248201526c24b73b30b634b2103a37b5b2b760991b60448201526064015b60405180910390fd5b8083116103dd5760405162461bcd60e51b815260206004820152600e60248201526d125b9d985b1a5908185b5bdd5b9d60921b6044820152606401610394565b60006103e98285612492565b90506001600160a01b0383166323b872dd337f000000000000000000000000000000000000000000000000000000000000000061042685876124a6565b6040516001600160e01b031960e086901b1681526001600160a01b03938416600482015292909116602483015260448201526064016020604051808303816000875af115801561047a573d6000803e3d6000fd5b505050506040513d601f19601f8201168201806040525081019061049e91906124bd565b5060007f00000000000000000000000000000000000000000000000000000000000000006104cc83856124a6565b604080516001600160a01b039093166020840152820152606081018390526080016040516020818303038152906040529050600060036000815480929190610513906124df565b91905055905060006040518060a001604052808a6001600160f81b0319168152602001336001600160a01b031660001b8152602001848152602001600354815260200189815250905061058c8282604051602001610571919061253e565b60405160208183030381529060405280519060200120611080565b6040517fae8e7132ac098ecd5aa06ce4db258039931128a2b16f02b1a94c4035d1ef3bc8906105c4908b903390879087908e90612594565b60405180910390a1505050505050505050565b604051630fec317160e01b8152600481018690526000907f00000000000000000000000000000000000000000000000000000000000000006001600160a01b031690630fec317190602401602060405180830381865afa15801561063f573d6000803e3d6000fd5b505050506040513d601f19601f8201168201806040525081019061066391906125cd565b8511156106a95760405162461bcd60e51b815260206004820152601460248201527324b73b30b634b210313637b1b590373ab6b132b960611b6044820152606401610394565b604051626b43d560e41b815260048101879052602481018690526000907f00000000000000000000000000000000000000000000000000000000000000006001600160a01b0316906306b43d5090604401602060405180830381865afa158015610717573d6000803e3d6000fd5b505050506040513d601f19601f8201168201806040525081019061073b91906125cd565b905060006107818286868080601f0160208091040260200160405190810160405280939291908181526020018383808284376000920191909152508b92506102cf915050565b9b9a5050505050505050505050565b60015460405163266218bb60e21b815260006004820181905260248201899052916001600160a01b03169063998862ec906044016020604051808303816000875af11580156107e3573d6000803e3d6000fd5b505050506040513d601f19601f8201168201806040525081019061080791906125cd565b9050600061086d8288888080601f0160208091040260200160405190810160405280939291908181526020018383808284376000920191909152507f000000000000000000000000000000000000000000000000000000000000000092506102cf915050565b93505050507f56e81f171bcc55a6ff8345e692c0f86e5b48e01b996cadc001622fb5e363b42160001b81036108d45760405162461bcd60e51b815260206004820152600d60248201526c696e76616c696420656e74727960981b6044820152606401610394565b6108e08186868661022a565b505050505050505050565b6001600160a01b038116600090815260046020526040812054806109415760405162461bcd60e51b815260206004820152600d60248201526c24b73b30b634b2103a37b5b2b760991b6044820152606401610394565b8084116109815760405162461bcd60e51b815260206004820152600e60248201526d125b9d985b1a5908185b5bdd5b9d60921b6044820152606401610394565b600061098d8286612492565b90506001600160a01b0384166323b872dd33306109aa85876124a6565b6040516001600160e01b031960e086901b1681526001600160a01b03938416600482015292909116602483015260448201526064016020604051808303816000875af11580156109fe573d6000803e3d6000fd5b505050506040513d601f19601f82011682018060405250810190610a2291906124bd565b50604080516080810190915233815260009060208101610a4284866124a6565b81526001600160a01b0380881660208084019190915242604093840152600580546001810182556000828152865160049092027f036b6384b5eca791c62761152d0c79bb0604c104a5fb6f4eb0703f3154bb3db0810180549387166001600160a01b0319948516179055938701517f036b6384b5eca791c62761152d0c79bb0604c104a5fb6f4eb0703f3154bb3db1850155948601517f036b6384b5eca791c62761152d0c79bb0604c104a5fb6f4eb0703f3154bb3db2840180549190951691161790925560608401517f036b6384b5eca791c62761152d0c79bb0604c104a5fb6f4eb0703f3154bb3db390910155549192507f0000000000000000000000000000000000000000000000000000000000000000610b6085876124a6565b604080516001600160a01b039093166020840152820152606081018590526080016040516020818303038152906040529050600060036000815480929190610ba7906124df565b91905055905060006040518060a001604052808d6001600160f81b0319168152602001306001600160a01b031660001b815260200184815260200160035481526020018c8152509050610c058282604051602001610571919061253e565b7fae8e7132ac098ecd5aa06ce4db258039931128a2b16f02b1a94c4035d1ef3bc88c306001600160a01b031660001b85858f604051610c48959493929190612594565b60405180910390a1604080518581523360208201527f3de4efbd8db74594066e59094053c2b4d165b124b2db2f49057fa6f456431c24910160405180910390a150919a9950505050505050505050565b600060058281548110610cad57610cad6125e6565b600091825260209182902060408051608081018252600490930290910180546001600160a01b03908116845260018201549484019490945260028082015490941691830191909152600301546060820181905291549092504291610d1191906125fc565b11610d5e5760405162461bcd60e51b815260206004820152601860248201527f4e6f7420616c6c6f7765642079657420746f20636c61696d00000000000000006044820152606401610394565b60408181015182516020840151925163a9059cbb60e01b81526001600160a01b0391821660048201526024810193909352169063a9059cbb906044016020604051808303816000875af1158015610db9573d6000803e3d6000fd5b505050506040513d601f19601f82011682018060405250810190610ddd91906124bd565b5060058281548110610df157610df16125e6565b60009182526020822060049091020180546001600160a01b03199081168255600182018390556002820180549091169055600301555050565b600060606000610e39866110cd565b9050610e468186866110ff565b9250925050935093915050565b6000602182600001511115610eaa5760405162461bcd60e51b815260206004820152601a60248201527f496e76616c696420524c5020627974657333322076616c75652e0000000000006044820152606401610394565b6000806000610eb8856111da565b919450925090506000816001811115610ed357610ed361260f565b14610f205760405162461bcd60e51b815260206004820152601a60248201527f496e76616c696420524c5020627974657333322076616c75652e0000000000006044820152606401610394565b6000838660200151610f3291906125fc565b80519091506020841015610f4c5760208490036101000a90045b9695505050505050565b60008060008085610fb25750600092508291507f56e81f171bcc55a6ff8345e692c0f86e5b48e01b996cadc001622fb5e363b42190507fc5d2460186f7233c927e7db2dcc703c0e500b653ca82273b7bfad8045d85a470611077565b6000610fed610fe88760408051808201825260008082526020918201528151808301909252825182529182019181019190915290565b6114e0565b905061101581600060ff1681518110611008576110086125e6565b60200260200101516116cc565b945061103081600160ff1681518110611008576110086125e6565b935061105881600360ff168151811061104b5761104b6125e6565b6020026020010151610e53565b915061107381600260ff168151811061104b5761104b6125e6565b9250505b92959194509250565b6000828152602081815260409182902083905581518481529081018390527f93ba20164825fe2d6acab1dcce38b7cbcaadf6704448ca1a5c9caa2276e9f52d910160405180910390a15050565b606081805190602001206040516020016110e991815260200190565b6040516020818303038152906040529050919050565b60006060600061110e856116dd565b90506000806000611120848a896117d8565b815192955090935091501580806111345750815b6111805760405162461bcd60e51b815260206004820152601a60248201527f50726f76696465642070726f6f6620697320696e76616c69642e0000000000006044820152606401610394565b60008161119c57604051806020016040528060008152506111c8565b6111c8866111ab600188612625565b815181106111bb576111bb6125e6565b6020026020010151611bf7565b919b919a509098505050505050505050565b6000806000808460000151116112325760405162461bcd60e51b815260206004820152601860248201527f524c50206974656d2063616e6e6f74206265206e756c6c2e00000000000000006044820152606401610394565b6020840151805160001a607f81116112575760006001600094509450945050506114d9565b60b781116112c7578551607f1982019081106112b55760405162461bcd60e51b815260206004820152601960248201527f496e76616c696420524c502073686f727420737472696e672e000000000000006044820152606401610394565b600195509350600092506114d9915050565b60bf81116113a157855160b61982019081106113255760405162461bcd60e51b815260206004820152601f60248201527f496e76616c696420524c50206c6f6e6720737472696e67206c656e6774682e006044820152606401610394565b6000816020036101000a600185015104905080820188600001511161138c5760405162461bcd60e51b815260206004820152601860248201527f496e76616c696420524c50206c6f6e6720737472696e672e00000000000000006044820152606401610394565b600190910195509350600092506114d9915050565b60f7811161141057855160bf1982019081106113ff5760405162461bcd60e51b815260206004820152601760248201527f496e76616c696420524c502073686f7274206c6973742e0000000000000000006044820152606401610394565b6001955093508492506114d9915050565b855160f61982019081106114665760405162461bcd60e51b815260206004820152601d60248201527f496e76616c696420524c50206c6f6e67206c697374206c656e6774682e0000006044820152606401610394565b6000816020036101000a60018501510490508082018860000151116114c65760405162461bcd60e51b815260206004820152601660248201527524b73b30b634b210292628103637b733903634b9ba1760511b6044820152606401610394565b60019182019650945092506114d9915050565b9193909250565b60606000806114ee846111da565b9193509091506001905081600181111561150a5761150a61260f565b146115575760405162461bcd60e51b815260206004820152601760248201527f496e76616c696420524c50206c6973742076616c75652e0000000000000000006044820152606401610394565b6040805160208082526104208201909252600091816020015b60408051808201909152600080825260208201528152602001906001900390816115705790505090506000835b86518110156116c157602082106116095760405162461bcd60e51b815260206004820152602a60248201527f50726f766964656420524c50206c6973742065786365656473206d6178206c6960448201526939ba103632b733ba341760b11b6064820152608401610394565b6000806116466040518060400160405280858c6000015161162a9190612625565b8152602001858c6020015161163f91906125fc565b90526111da565b50915091506040518060400160405280838361166291906125fc565b8152602001848b6020015161167791906125fc565b81525085858151811061168c5761168c6125e6565b60209081029190910101526116a26001856125fc565b93506116ae81836125fc565b6116b890846125fc565b9250505061159d565b508152949350505050565b60006116d782610e53565b92915050565b606060006116ea83611c21565b90506000815167ffffffffffffffff81111561170857611708612245565b60405190808252806020026020018201604052801561174d57816020015b60408051808201909152606080825260208201528152602001906001900390816117265790505b50905060005b82518110156117d0576000611780848381518110611773576117736125e6565b6020026020010151611c54565b9050604051806040016040528082815260200161179c83611c21565b8152508383815181106117b1576117b16125e6565b60200260200101819052505080806117c8906124df565b915050611753565b509392505050565b600060608180806117e887611ce4565b9050600086905060008061180f604051806040016040528060608152602001606081525090565b60005b8c51811015611bcf578c818151811061182d5761182d6125e6565b60200260200101519150828461184391906125fc565b93506118506001886125fc565b9650836000036118ab578151805160209091012085146118a65760405162461bcd60e51b8152602060048201526011602482015270092dcecc2d8d2c840e4dedee840d0c2e6d607b1b6044820152606401610394565b611968565b81515160201161190d578151805160209091012085146118a65760405162461bcd60e51b815260206004820152601b60248201527f496e76616c6964206c6172676520696e7465726e616c206861736800000000006044820152606401610394565b8461191b8360000151611e00565b146119685760405162461bcd60e51b815260206004820152601a60248201527f496e76616c696420696e7465726e616c206e6f646520686173680000000000006044820152606401610394565b611974601060016125fc565b826020015151036119e65785518414611bcf57600086858151811061199b5761199b6125e6565b602001015160f81c60f81b60f81c9050600083602001518260ff16815181106119c6576119c66125e6565b602002602001015190506119d981611e28565b9650600194505050611bbd565b600282602001515103611b755760006119fe83611e65565b9050600081600081518110611a1557611a156125e6565b016020015160f81c90506000611a2c600283612638565b611a3790600261265a565b90506000611a48848360ff16611e89565b90506000611a568b8a611e89565b90506000611a648383611eb9565b905060ff851660021480611a7b575060ff85166003145b15611ab557808351148015611a905750808251145b15611aa257611a9f818b6125fc565b99505b50600160ff1b9950611bcf945050505050565b60ff85161580611ac8575060ff85166001145b15611b1e5780600003611ae85750600160ff1b9950611bcf945050505050565b611b0f8860200151600181518110611b0257611b026125e6565b6020026020010151611e28565b9a509750611bbd945050505050565b60405162461bcd60e51b815260206004820152602660248201527f52656365697665642061206e6f6465207769746820616e20756e6b6e6f776e206044820152650e0e4caccd2f60d31b6064820152608401610394565b60405162461bcd60e51b815260206004820152601d60248201527f526563656976656420616e20756e706172736561626c65206e6f64652e0000006044820152606401610394565b80611bc7816124df565b915050611812565b50600160ff1b841486611be28786611e89565b909e909d50909b509950505050505050505050565b602081015180516060916116d791611c1190600190612625565b81518110611773576117736125e6565b6040805180820182526000808252602091820152815180830190925282518252808301908201526060906116d7906114e0565b60606000806000611c64856111da565b919450925090506000816001811115611c7f57611c7f61260f565b14611ccc5760405162461bcd60e51b815260206004820152601860248201527f496e76616c696420524c502062797465732076616c75652e00000000000000006044820152606401610394565b611cdb85602001518484611f35565b95945050505050565b60606000825160020267ffffffffffffffff811115611d0557611d05612245565b6040519080825280601f01601f191660200182016040528015611d2f576020820181803683370190505b50905060005b8351811015611df9576004848281518110611d5257611d526125e6565b602001015160f81c60f81b6001600160f81b031916901c828260020281518110611d7e57611d7e6125e6565b60200101906001600160f81b031916908160001a9053506010848281518110611da957611da96125e6565b016020015160f81c81611dbe57611dbe612466565b0660f81b828260020260010181518110611dda57611dda6125e6565b60200101906001600160f81b031916908160001a905350600101611d35565b5092915050565b6000602082511015611e1457506020015190565b818060200190518101906116d791906125cd565b60006060602083600001511015611e4957611e4283611fe7565b9050611e55565b611e5283611c54565b90505b611e5e81611e00565b9392505050565b60606116d7611e848360200151600081518110611773576117736125e6565b611ce4565b606081835103600003611eab57506040805160208101909152600081526116d7565b611e5e838384865103611ff2565b6000805b808451118015611ecd5750808351115b8015611f1e5750828181518110611ee657611ee66125e6565b602001015160f81c60f81b6001600160f81b031916848281518110611f0d57611f0d6125e6565b01602001516001600160f81b031916145b15611e5e5780611f2d816124df565b915050611ebd565b606060008267ffffffffffffffff811115611f5257611f52612245565b6040519080825280601f01601f191660200182016040528015611f7c576020820181803683370190505b5090508051600003611f8f579050611e5e565b8484016020820160005b60208604811015611fba578251825260209283019290910190600101611f99565b5060006001602087066020036101000a039050808251168119845116178252839450505050509392505050565b60606116d782612134565b60608182601f0110156120385760405162461bcd60e51b815260206004820152600e60248201526d736c6963655f6f766572666c6f7760901b6044820152606401610394565b82828401101561207b5760405162461bcd60e51b815260206004820152600e60248201526d736c6963655f6f766572666c6f7760901b6044820152606401610394565b818301845110156120c25760405162461bcd60e51b8152602060048201526011602482015270736c6963655f6f75744f66426f756e647360781b6044820152606401610394565b6060821580156120e1576040519150600082526020820160405261212b565b6040519150601f8416801560200281840101858101878315602002848b0101015b8183101561211a578051835260209283019201612102565b5050858452601f01601f1916604052505b50949350505050565b60606116d7826020015160008460000151611f35565b60006020828403121561215c57600080fd5b5035919050565b80356001600160a01b038116811461217a57600080fd5b919050565b6000806040838503121561219257600080fd5b61219b83612163565b946020939093013593505050565b60008083601f8401126121bb57600080fd5b50813567ffffffffffffffff8111156121d357600080fd5b6020830191508360208285010111156121eb57600080fd5b9250929050565b6000806000806060858703121561220857600080fd5b8435935060208501359250604085013567ffffffffffffffff81111561222d57600080fd5b612239878288016121a9565b95989497509550505050565b634e487b7160e01b600052604160045260246000fd5b60008060006060848603121561227057600080fd5b83359250602084013567ffffffffffffffff8082111561228f57600080fd5b818601915086601f8301126122a357600080fd5b8135818111156122b5576122b5612245565b604051601f8201601f19908116603f011681019083821181831017156122dd576122dd612245565b816040528281528960208487010111156122f657600080fd5b82602086016020830137600060208483010152809650505050505061231d60408501612163565b90509250925092565b6000806000806080858703121561233c57600080fd5b84356001600160f81b03198116811461235457600080fd5b9350602085013592506040850135915061237060608601612163565b905092959194509250565b60008060008060006080868803121561239357600080fd5b85359450602086013593506123aa60408701612163565b9250606086013567ffffffffffffffff8111156123c657600080fd5b6123d2888289016121a9565b969995985093965092949392505050565b600080600080600080608087890312156123fc57600080fd5b86359550602087013567ffffffffffffffff8082111561241b57600080fd5b6124278a838b016121a9565b909750955060408901359450606089013591508082111561244757600080fd5b5061245489828a016121a9565b979a9699509497509295939492505050565b634e487b7160e01b600052601260045260246000fd5b634e487b7160e01b600052601160045260246000fd5b6000826124a1576124a1612466565b500490565b80820281158282048414176116d7576116d761247c565b6000602082840312156124cf57600080fd5b81518015158114611e5e57600080fd5b6000600182016124f1576124f161247c565b5060010190565b6000815180845260005b8181101561251e57602081850181015186830182015201612502565b506000602082860101526020601f19601f83011685010191505092915050565b6020815260ff60f81b8251166020820152602082015160408201526000604083015160a0606084015261257460c08401826124f8565b905060608401516080840152608084015160a08401528091505092915050565b60ff60f81b8616815284602082015260a0604082015260006125b960a08301866124f8565b606083019490945250608001529392505050565b6000602082840312156125df57600080fd5b5051919050565b634e487b7160e01b600052603260045260246000fd5b808201808211156116d7576116d761247c565b634e487b7160e01b600052602160045260246000fd5b818103818111156116d7576116d761247c565b600060ff83168061264b5761264b612466565b8060ff84160691505092915050565b60ff82811682821603908111156116d7576116d761247c56fea26469706673582212201668308eb64b5d622c6a6333f7fce6b492cf87a18e5207c2f87ac0cbeba81a7d64736f6c63430008140033","linkReferences":{}},"methodIdentifiers":{"NAMES_MAPPING_SLOT()":"adf28726","claimPayment(uint256)":"c63fdcc7","getStorageLocationForKey(uint256)":"fbf611a7","getStorageRoot(bytes32,uint256,address,bytes)":"9a089eb6","getValueFromId(uint256)":"3eabceeb","nexus()":"a3f5c1d2","paymentWithFallback(bytes1,uint256,uint256,address)":"b12e180e","paymentWithoutFallback(bytes1,uint256,uint256,address)":"80a74597","updatePrice(address,uint256)":"457972de","verifyAccount(bytes32,bytes,address)":"7f1b8c73","verifyPayment(bytes32,bytes,bytes32,bytes)":"ae7b2596","verifyStorage(bytes32,bytes32,bytes)":"6f7096dc"},"id":10}