{"abi":[{"type":"function","name":"DEFAULT_EMPTY_KEY","inputs":[],"outputs":[{"name":"","type":"bytes","internalType":"bytes"}],"stateMutability":"view"},{"type":"function","name":"DEFAULT_OUTLEN","inputs":[],"outputs":[{"name":"","type":"uint256","internalType":"uint256"}],"stateMutability":"view"},{"type":"function","name":"toDigest","inputs":[{"name":"input","type":"bytes","internalType":"bytes"}],"outputs":[{"name":"","type":"bytes32","internalType":"bytes32"}],"stateMutability":"view"},{"type":"function","name":"toDigest","inputs":[{"name":"input1","type":"bytes","internalType":"bytes"},{"name":"input2","type":"bytes","internalType":"bytes"}],"outputs":[{"name":"","type":"bytes32","internalType":"bytes32"}],"stateMutability":"view"}],"bytecode":{"object":"0x61156d610039600b82828239805160001a607314602c57634e487b7160e01b600052600060045260246000fd5b30600052607381538281f3fe73000000000000000000000000000000000000000030146080604052600436106100565760003560e01c80633c1513641461005b57806340b9f4521461008757806389fdba9c146100a85780638e61cdc6146100bb575b600080fd5b6100716040518060200160405280600081525081565b60405161007e919061133d565b60405180910390f35b61009a61009536600461142f565b6100c3565b60405190815260200161007e565b61009a6100b6366004611464565b61010d565b61009a602081565b60006100cd6112a6565b6100d56112e1565b6100f2826020604051806020016040528060008152508485610164565b6100fc82856102b7565b61010582610332565b949350505050565b60006101176112a6565b61011f6112e1565b61013c826020604051806020016040528060008152508485610164565b61014682866102b7565b61015082856102b7565b61015982610332565b925050505b92915050565b8315806101715750602084115b8061018557506101826004856114de565b15155b80610191575060208351115b156101cb5760405162461bcd60e51b815260206004820152600660248201526537baba3632b760d11b604482015260640160405180910390fd5b84516000908190528551602090810182905260408088018390526060808901939093528188018051636a09e6679052805163bb67ae85908401528051633c6ef372920191909152805163a54ff53a930192909252815163510e527f6080918201528251639b05688c60a0918201528351631f83d9ab60c0918201528451635be0cd1960e091820152975185518051630101000060089390931b63ffffff0016188b18919091189052865185518401805190911890529583015184519091018051909118905283518351909501805190951890945291909101519051909201805190921890915290910152565b8051606083015163ffffffff9091169060005b8281101561032457816040036102f457604085018051830190526102ef8560006103d7565b600091505b600061030582850384604003611295565b90508083875101828460208901016004600019fa5091820191016102ca565b506060909301929092525050565b60608101516040820180519091019052600061034f8260016103d7565b60005b6004836080015181610366576103666114c8565b048110156103d157806007036020026103c28460200151836008811061038e5761038e611500565b60200201516000601882901b63ff00000016600883901b62ff000016600884901c61ff0016601885901c1717179050919050565b901b9190911790600101610352565b50919050565b6103df6112ff565b6101008161010060208601516004600019fa50636a09e66761010082015263bb67ae85610120820152633c6ef37261014082015263a54ff53a61016082015263510e527f6101808201818152639b05688c6101a08401818152631f83d9ab6101c0860152635be0cd196101e086015260408701805163ffffffff9081169095188516909352915160201c83161890911690528115610488576101c0810180511963ffffffff1690525b825180516020909101517cff000000ff000000ff000000ff000000ff000000ff000000ff000000ff601883811c82167dff000000ff000000ff000000ff000000ff000000ff000000ff000000ff00600886811c8216929092177eff000000ff000000ff000000ff000000ff000000ff000000ff000000ff000087841b8116919091177fff000000ff000000ff000000ff000000ff000000ff000000ff000000ff00000097851b8816179686851c90951686841c909216919091179185901b161792901b16176105e9565b9182018051918301805190920190950163ffffffff9081168083529483018051909518601081811c91901b1781168086529390920180519093018216808452855118600c81901c60149190911b1782168086528151019095018116948590528251909418600881901c60189190911b178416918290528051909101831690819052815118600781901c60199190911b179091169052565b61061063ffffffff8360c01c1663ffffffff8460e01c166101806101006080600089610552565b61063763ffffffff8360801c1663ffffffff8460a01c166101a061012060a0602089610552565b61065e63ffffffff8360401c1663ffffffff8460601c166101c061014060c0604089610552565b61068563ffffffff8360001c1663ffffffff8460201c166101e061016060e0606089610552565b6106ac63ffffffff8260c01c1663ffffffff8360e01c166101e061014060a0600089610552565b6106d363ffffffff8260801c1663ffffffff8360a01c1661018061016060c0602089610552565b6106fa63ffffffff8260401c1663ffffffff8360601c166101a061010060e0604089610552565b61072163ffffffff8260001c1663ffffffff8360201c166101c06101206080606089610552565b61074863ffffffff8260a01c1663ffffffff8360201c166101806101006080600089610552565b61076f63ffffffff8260e01c1663ffffffff8460601c166101a061012060a0602089610552565b61079663ffffffff8260001c1663ffffffff8360c01c166101c061014060c0604089610552565b6107bd63ffffffff8360201c1663ffffffff8360401c166101e061016060e0606089610552565b6107e463ffffffff8260601c1663ffffffff8460c01c166101e061014060a0600089610552565b61080b63ffffffff8360a01c1663ffffffff8460e01c1661018061016060c0602089610552565b61083263ffffffff8360001c1663ffffffff8360801c166101a061010060e0604089610552565b61085963ffffffff8360801c1663ffffffff8460401c166101c06101206080606089610552565b61088063ffffffff8260e01c1663ffffffff8360801c166101806101006080600089610552565b6108a763ffffffff8360e01c1663ffffffff8360601c166101a061012060a0602089610552565b6108ce63ffffffff8360a01c1663ffffffff8460401c166101c061014060c0604089610552565b6108f563ffffffff8260401c1663ffffffff8360001c166101e061016060e0606089610552565b61091c63ffffffff8260201c1663ffffffff8360a01c166101e061014060a0600089610552565b61094363ffffffff8360201c1663ffffffff8460801c1661018061016060c0602089610552565b61096a63ffffffff8360c01c1663ffffffff8460001c166101a061010060e0604089610552565b61099163ffffffff8360601c1663ffffffff8360c01c166101c06101206080606089610552565b6109b863ffffffff8260c01c1663ffffffff8460001c166101806101006080600089610552565b6109df63ffffffff8360c01c1663ffffffff8460801c166101a061012060a0602089610552565b610a0663ffffffff8260601c1663ffffffff8360401c166101c061014060c0604089610552565b610a2d63ffffffff8260201c1663ffffffff8360801c166101e061016060e0606089610552565b610a5463ffffffff8360201c1663ffffffff8460a01c166101e061014060a0600089610552565b610a7b63ffffffff8260a01c1663ffffffff8460401c1661018061016060c0602089610552565b610aa263ffffffff8360e01c1663ffffffff8460601c166101a061010060e0604089610552565b610ac160e082901c63ffffffff83166101c06101206080606089610552565b610ae863ffffffff8360e01c1663ffffffff8360c01c166101806101006080600089610552565b610b0f63ffffffff8360001c1663ffffffff8460401c166101a061012060a0602089610552565b610b3663ffffffff8360601c1663ffffffff8460a01c166101c061014060c0604089610552565b610b5d63ffffffff8260001c1663ffffffff8360a01c166101e061016060e0606089610552565b610b8463ffffffff8360c01c1663ffffffff8360201c166101e061014060a0600089610552565b610bab63ffffffff8260601c1663ffffffff8360801c1661018061016060c0602089610552565b610bd263ffffffff8260e01c1663ffffffff8460201c166101a061010060e0604089610552565b610bf963ffffffff8260401c1663ffffffff8460801c166101c06101206080606089610552565b610c2063ffffffff8260601c1663ffffffff8460a01c166101806101006080600089610552565b610c4763ffffffff8260a01c1663ffffffff8460201c166101a061012060a0602089610552565b610c6e63ffffffff8260801c1663ffffffff8460e01c166101c061014060c0604089610552565b610c9563ffffffff8360801c1663ffffffff8360e01c166101e061016060e0606089610552565b610cbc63ffffffff8260401c1663ffffffff8460601c166101e061014060a0600089610552565b610ce363ffffffff8360401c1663ffffffff8460001c1661018061016060c0602089610552565b610d0a63ffffffff8260201c1663ffffffff8360001c166101a061010060e0604089610552565b610d3163ffffffff8260c01c1663ffffffff8460c01c166101c06101206080606089610552565b610d5863ffffffff8360401c1663ffffffff8360601c166101806101006080600089610552565b610d7f63ffffffff8260001c1663ffffffff8460c01c166101a061012060a0602089610552565b610da663ffffffff8260401c1663ffffffff8360201c166101c061014060c0604089610552565b610dcd63ffffffff8260a01c1663ffffffff8460601c166101e061016060e0606089610552565b610dec63ffffffff831660e084901c6101e061014060a0600089610552565b610e1363ffffffff8360801c1663ffffffff8460201c1661018061016060c0602089610552565b610e3a63ffffffff8360a01c1663ffffffff8360c01c166101a061010060e0604089610552565b610e6163ffffffff8260801c1663ffffffff8360e01c166101c06101206080606089610552565b610e8863ffffffff8260801c1663ffffffff8360401c166101806101006080600089610552565b610eaf63ffffffff8260201c1663ffffffff8460001c166101a061012060a0602089610552565b610ed663ffffffff8360c01c1663ffffffff8360601c166101c061014060c0604089610552565b610efd63ffffffff8260c01c1663ffffffff8460801c166101e061016060e0606089610552565b610f2463ffffffff8360e01c1663ffffffff8460401c166101e061014060a0600089610552565b610f4b63ffffffff8360601c1663ffffffff8360001c1661018061016060c0602089610552565b610f7263ffffffff8360201c1663ffffffff8360e01c166101a061010060e0604089610552565b610f9963ffffffff8260a01c1663ffffffff8460a01c166101c06101206080606089610552565b610fc063ffffffff8260001c1663ffffffff8460201c166101806101006080600089610552565b610fe763ffffffff8260c01c1663ffffffff8360201c166101a061012060a0602089610552565b61100e63ffffffff8360801c1663ffffffff8360801c166101c061014060c0604089610552565b61103563ffffffff8260e01c1663ffffffff8460e01c166101e061016060e0606089610552565b61105c63ffffffff8360a01c1663ffffffff8360601c166101e061014060a0600089610552565b61108363ffffffff8360001c1663ffffffff8360401c1661018061016060c0602089610552565b6110aa63ffffffff8360601c1663ffffffff8460c01c166101a061010060e0604089610552565b6110d163ffffffff8360401c1663ffffffff8360a01c166101c06101206080606089610552565b6110f863ffffffff8360a01c1663ffffffff8360a01c166101806101006080600089610552565b61111f63ffffffff8360601c1663ffffffff8360e01c166101a061012060a0602089610552565b61114663ffffffff8360201c1663ffffffff8460001c166101c061014060c0604089610552565b61116d63ffffffff8360401c1663ffffffff8460c01c166101e061016060e0606089610552565b61119463ffffffff8260801c1663ffffffff8360001c166101e061014060a0600089610552565b6111bb63ffffffff8260201c1663ffffffff8360c01c1661018061016060c0602089610552565b6111e263ffffffff8260601c1663ffffffff8460801c166101a061010060e0604089610552565b61120963ffffffff8360e01c1663ffffffff8360401c166101c06101206080606089610552565b505060005b600881101561128f5781611223826008611516565b6010811061123357611233611500565b602002015182826010811061124a5761124a611500565b60200201518560200151836008811061126557611265611500565b602002015118188460200151826008811061128257611282611500565b602002015260010161120e565b50505050565b6000818310156103d157508161015e565b6040518060a001604052806112b96112e1565b81526020016112c661131e565b81526020016000815260200160008152602001600081525090565b60405180604001604052806002906020820280368337509192915050565b6040518061020001604052806010906020820280368337509192915050565b6040518061010001604052806008906020820280368337509192915050565b60006020808352835180602085015260005b8181101561136b5785810183015185820160400152820161134f565b506000604082860101526040601f19601f8301168501019250505092915050565b634e487b7160e01b600052604160045260246000fd5b600082601f8301126113b357600080fd5b813567ffffffffffffffff808211156113ce576113ce61138c565b604051601f8301601f19908116603f011681019082821181831017156113f6576113f661138c565b8160405283815286602085880101111561140f57600080fd5b836020870160208301376000602085830101528094505050505092915050565b60006020828403121561144157600080fd5b813567ffffffffffffffff81111561145857600080fd5b610105848285016113a2565b6000806040838503121561147757600080fd5b823567ffffffffffffffff8082111561148f57600080fd5b61149b868387016113a2565b935060208501359150808211156114b157600080fd5b506114be858286016113a2565b9150509250929050565b634e487b7160e01b600052601260045260246000fd5b6000826114fb57634e487b7160e01b600052601260045260246000fd5b500690565b634e487b7160e01b600052603260045260246000fd5b8082018082111561015e57634e487b7160e01b600052601160045260246000fdfea2646970667358221220fba0c014002b2cb46e9fbb8db0f6b2c11fda37c3a2ee28cc02da6a27f0e3f79964736f6c63430008190033","linkReferences":{}},"methodIdentifiers":{"DEFAULT_EMPTY_KEY()":"3c151364","DEFAULT_OUTLEN()":"8e61cdc6","toDigest(bytes)":"40b9f452","toDigest(bytes,bytes)":"89fdba9c"},"id":44}