{"abi":[{"type":"function","name":"verifyAccount","inputs":[{"name":"latestState","type":"bytes32","internalType":"bytes32"},{"name":"accountTrieProof","type":"bytes","internalType":"bytes"},{"name":"account","type":"address","internalType":"address"}],"outputs":[{"name":"nonce","type":"uint256","internalType":"uint256"},{"name":"accountBalance","type":"uint256","internalType":"uint256"},{"name":"codeHash","type":"bytes32","internalType":"bytes32"},{"name":"storageRoot","type":"bytes32","internalType":"bytes32"}],"stateMutability":"pure"},{"type":"function","name":"verifyStorage","inputs":[{"name":"storageRoot","type":"bytes32","internalType":"bytes32"},{"name":"slot","type":"bytes32","internalType":"bytes32"},{"name":"storageSlotTrieProof","type":"bytes","internalType":"bytes"}],"outputs":[{"name":"slotValue","type":"bytes32","internalType":"bytes32"}],"stateMutability":"pure"}],"bytecode":{"object":"0x6080604052348015600f57600080fd5b506116c48061001f6000396000f3fe608060405234801561001057600080fd5b50600436106100365760003560e01c80636f7096dc1461003b5780637f1b8c7314610061575b600080fd5b61004e6100493660046114de565b610094565b6040519081526020015b60405180910390f35b61007461006f36600461152e565b610106565b604080519485526020850193909352918301526060820152608001610058565b600080836040516020016100aa91815260200190565b604051602081830303815290604052905060006100c8828588610179565b6040805180820182526000808252602091820152815180830190925282518252808301908201529092506100fc91506101a2565b9695505050505050565b600080600080600085604051602001610137919060609190911b6bffffffffffffffffffffffff1916815260140190565b6040516020818303038152906040529050600080610156838a8c610179565b9150915061016482826102a9565b929d919c50919a509098509650505050505050565b600060606000610188866103d3565b9050610195818686610405565b9250925050935093915050565b60006021826000015111156101fe5760405162461bcd60e51b815260206004820152601a60248201527f496e76616c696420524c5020627974657333322076616c75652e00000000000060448201526064015b60405180910390fd5b600080600061020c856104e0565b91945092509050600081600181111561022757610227611595565b146102745760405162461bcd60e51b815260206004820152601a60248201527f496e76616c696420524c5020627974657333322076616c75652e00000000000060448201526064016101f5565b600083866020015161028691906115c1565b805190915060208410156100fc5760208490036101000a90049695505050505050565b600080600080856103055750600092508291507f56e81f171bcc55a6ff8345e692c0f86e5b48e01b996cadc001622fb5e363b42190507fc5d2460186f7233c927e7db2dcc703c0e500b653ca82273b7bfad8045d85a4706103ca565b600061034061033b8760408051808201825260008082526020918201528151808301909252825182529182019181019190915290565b6107e6565b905061036881600060ff168151811061035b5761035b6115d4565b60200260200101516109d2565b945061038381600160ff168151811061035b5761035b6115d4565b93506103ab81600360ff168151811061039e5761039e6115d4565b60200260200101516101a2565b91506103c681600260ff168151811061039e5761039e6115d4565b9250505b92959194509250565b606081805190602001206040516020016103ef91815260200190565b6040516020818303038152906040529050919050565b600060606000610414856109e3565b90506000806000610426848a89610ad3565b8151929550909350915015808061043a5750815b6104865760405162461bcd60e51b815260206004820152601a60248201527f50726f76696465642070726f6f6620697320696e76616c69642e00000000000060448201526064016101f5565b6000816104a257604051806020016040528060008152506104ce565b6104ce866104b16001886115ea565b815181106104c1576104c16115d4565b6020026020010151610ee8565b919b919a509098505050505050505050565b6000806000808460000151116105385760405162461bcd60e51b815260206004820152601860248201527f524c50206974656d2063616e6e6f74206265206e756c6c2e000000000000000060448201526064016101f5565b6020840151805160001a607f811161055d5760006001600094509450945050506107df565b60b781116105cd578551607f1982019081106105bb5760405162461bcd60e51b815260206004820152601960248201527f496e76616c696420524c502073686f727420737472696e672e0000000000000060448201526064016101f5565b600195509350600092506107df915050565b60bf81116106a757855160b619820190811061062b5760405162461bcd60e51b815260206004820152601f60248201527f496e76616c696420524c50206c6f6e6720737472696e67206c656e6774682e0060448201526064016101f5565b6000816020036101000a60018501510490508082018860000151116106925760405162461bcd60e51b815260206004820152601860248201527f496e76616c696420524c50206c6f6e6720737472696e672e000000000000000060448201526064016101f5565b600190910195509350600092506107df915050565b60f7811161071657855160bf1982019081106107055760405162461bcd60e51b815260206004820152601760248201527f496e76616c696420524c502073686f7274206c6973742e00000000000000000060448201526064016101f5565b6001955093508492506107df915050565b855160f619820190811061076c5760405162461bcd60e51b815260206004820152601d60248201527f496e76616c696420524c50206c6f6e67206c697374206c656e6774682e00000060448201526064016101f5565b6000816020036101000a60018501510490508082018860000151116107cc5760405162461bcd60e51b815260206004820152601660248201527524b73b30b634b210292628103637b733903634b9ba1760511b60448201526064016101f5565b60019182019650945092506107df915050565b9193909250565b60606000806107f4846104e0565b9193509091506001905081600181111561081057610810611595565b1461085d5760405162461bcd60e51b815260206004820152601760248201527f496e76616c696420524c50206c6973742076616c75652e00000000000000000060448201526064016101f5565b6040805160208082526104208201909252600091816020015b60408051808201909152600080825260208201528152602001906001900390816108765790505090506000835b86518110156109c7576020821061090f5760405162461bcd60e51b815260206004820152602a60248201527f50726f766964656420524c50206c6973742065786365656473206d6178206c6960448201526939ba103632b733ba341760b11b60648201526084016101f5565b60008061094c6040518060400160405280858c6000015161093091906115ea565b8152602001858c6020015161094591906115c1565b90526104e0565b50915091506040518060400160405280838361096891906115c1565b8152602001848b6020015161097d91906115c1565b815250858581518110610992576109926115d4565b60209081029190910101526109a86001856115c1565b93506109b481836115c1565b6109be90846115c1565b925050506108a3565b508152949350505050565b60006109dd826101a2565b92915050565b606060006109f083610f12565b90506000815167ffffffffffffffff811115610a0e57610a0e61143b565b604051908082528060200260200182016040528015610a5357816020015b6040805180820190915260608082526020820152815260200190600190039081610a2c5790505b50905060005b8251811015610acb576000610a86848381518110610a7957610a796115d4565b6020026020010151610f45565b90506040518060400160405280828152602001610aa283610f12565b815250838381518110610ab757610ab76115d4565b602090810291909101015250600101610a59565b509392505050565b60006060818080610ae387610fd5565b90506000869050600080610b0a604051806040016040528060608152602001606081525090565b60005b8c51811015610ec0578c8181518110610b2857610b286115d4565b602002602001015191508284610b3e91906115c1565b9350610b4b6001886115c1565b965083600003610ba657815180516020909101208514610ba15760405162461bcd60e51b8152602060048201526011602482015270092dcecc2d8d2c840e4dedee840d0c2e6d607b1b60448201526064016101f5565b610c63565b815151602011610c0857815180516020909101208514610ba15760405162461bcd60e51b815260206004820152601b60248201527f496e76616c6964206c6172676520696e7465726e616c2068617368000000000060448201526064016101f5565b84610c1683600001516110f1565b14610c635760405162461bcd60e51b815260206004820152601a60248201527f496e76616c696420696e7465726e616c206e6f6465206861736800000000000060448201526064016101f5565b610c6f601060016115c1565b82602001515103610ce15785518414610ec0576000868581518110610c9657610c966115d4565b602001015160f81c60f81b60f81c9050600083602001518260ff1681518110610cc157610cc16115d4565b60200260200101519050610cd481611119565b9650600194505050610eb8565b600282602001515103610e70576000610cf983611156565b9050600081600081518110610d1057610d106115d4565b016020015160f81c90506000610d27600283611613565b610d32906002611643565b90506000610d43848360ff1661117a565b90506000610d518b8a61117a565b90506000610d5f83836111aa565b905060ff851660021480610d76575060ff85166003145b15610db057808351148015610d8b5750808251145b15610d9d57610d9a818b6115c1565b99505b50600160ff1b9950610ec0945050505050565b60ff85161580610dc3575060ff85166001145b15610e195780600003610de35750600160ff1b9950610ec0945050505050565b610e0a8860200151600181518110610dfd57610dfd6115d4565b6020026020010151611119565b9a509750610eb8945050505050565b60405162461bcd60e51b815260206004820152602660248201527f52656365697665642061206e6f6465207769746820616e20756e6b6e6f776e206044820152650e0e4caccd2f60d31b60648201526084016101f5565b60405162461bcd60e51b815260206004820152601d60248201527f526563656976656420616e20756e706172736561626c65206e6f64652e00000060448201526064016101f5565b600101610b0d565b50600160ff1b841486610ed3878661117a565b909e909d50909b509950505050505050505050565b602081015180516060916109dd91610f02906001906115ea565b81518110610a7957610a796115d4565b6040805180820182526000808252602091820152815180830190925282518252808301908201526060906109dd906107e6565b60606000806000610f55856104e0565b919450925090506000816001811115610f7057610f70611595565b14610fbd5760405162461bcd60e51b815260206004820152601860248201527f496e76616c696420524c502062797465732076616c75652e000000000000000060448201526064016101f5565b610fcc85602001518484611226565b95945050505050565b60606000825160020267ffffffffffffffff811115610ff657610ff661143b565b6040519080825280601f01601f191660200182016040528015611020576020820181803683370190505b50905060005b83518110156110ea576004848281518110611043576110436115d4565b602001015160f81c60f81b6001600160f81b031916901c82826002028151811061106f5761106f6115d4565b60200101906001600160f81b031916908160001a905350601084828151811061109a5761109a6115d4565b016020015160f81c816110af576110af6115fd565b0660f81b8282600202600101815181106110cb576110cb6115d4565b60200101906001600160f81b031916908160001a905350600101611026565b5092915050565b600060208251101561110557506020015190565b818060200190518101906109dd919061165c565b6000606060208360000151101561113a57611133836112d8565b9050611146565b61114383610f45565b90505b61114f816110f1565b9392505050565b60606109dd6111758360200151600081518110610a7957610a796115d4565b610fd5565b60608183510360000361119c57506040805160208101909152600081526109dd565b61114f8383848651036112e3565b6000805b8084511180156111be5750808351115b801561120f57508281815181106111d7576111d76115d4565b602001015160f81c60f81b6001600160f81b0319168482815181106111fe576111fe6115d4565b01602001516001600160f81b031916145b1561114f578061121e81611675565b9150506111ae565b606060008267ffffffffffffffff8111156112435761124361143b565b6040519080825280601f01601f19166020018201604052801561126d576020820181803683370190505b509050805160000361128057905061114f565b8484016020820160005b602086048110156112ab57825182526020928301929091019060010161128a565b5060006001602087066020036101000a039050808251168119845116178252839450505050509392505050565b60606109dd82611425565b60608182601f0110156113295760405162461bcd60e51b815260206004820152600e60248201526d736c6963655f6f766572666c6f7760901b60448201526064016101f5565b82828401101561136c5760405162461bcd60e51b815260206004820152600e60248201526d736c6963655f6f766572666c6f7760901b60448201526064016101f5565b818301845110156113b35760405162461bcd60e51b8152602060048201526011602482015270736c6963655f6f75744f66426f756e647360781b60448201526064016101f5565b6060821580156113d2576040519150600082526020820160405261141c565b6040519150601f8416801560200281840101858101878315602002848b0101015b8183101561140b5780518352602092830192016113f3565b5050858452601f01601f1916604052505b50949350505050565b60606109dd826020015160008460000151611226565b634e487b7160e01b600052604160045260246000fd5b600082601f83011261146257600080fd5b813567ffffffffffffffff8082111561147d5761147d61143b565b604051601f8301601f19908116603f011681019082821181831017156114a5576114a561143b565b816040528381528660208588010111156114be57600080fd5b836020870160208301376000602085830101528094505050505092915050565b6000806000606084860312156114f357600080fd5b8335925060208401359150604084013567ffffffffffffffff81111561151857600080fd5b61152486828701611451565b9150509250925092565b60008060006060848603121561154357600080fd5b83359250602084013567ffffffffffffffff81111561156157600080fd5b61156d86828701611451565b92505060408401356001600160a01b038116811461158a57600080fd5b809150509250925092565b634e487b7160e01b600052602160045260246000fd5b634e487b7160e01b600052601160045260246000fd5b808201808211156109dd576109dd6115ab565b634e487b7160e01b600052603260045260246000fd5b818103818111156109dd576109dd6115ab565b634e487b7160e01b600052601260045260246000fd5b600060ff83168061163457634e487b7160e01b600052601260045260246000fd5b8060ff84160691505092915050565b60ff82811682821603908111156109dd576109dd6115ab565b60006020828403121561166e57600080fd5b5051919050565b600060018201611687576116876115ab565b506001019056fea2646970667358221220f3e75247fdae52f721076e04fe20bc43e1dfaeda71e7ecd2f3ee0e5243fe574564736f6c63430008190033","linkReferences":{}},"methodIdentifiers":{"verifyAccount(bytes32,bytes,address)":"7f1b8c73","verifyStorage(bytes32,bytes32,bytes)":"6f7096dc"},"id":42}