{"abi":[{"type":"constructor","inputs":[{"name":"_zksyncDiamondAddress","type":"address","internalType":"contract IZkSyncDiamond"},{"name":"_smt","type":"address","internalType":"contract SparseMerkleTree"}],"stateMutability":"nonpayable"},{"type":"function","name":"smt","inputs":[],"outputs":[{"name":"","type":"address","internalType":"contract SparseMerkleTree"}],"stateMutability":"view"},{"type":"function","name":"verify","inputs":[{"name":"_proof","type":"tuple","internalType":"struct StorageProof","components":[{"name":"metadata","type":"tuple","internalType":"struct BatchMetadata","components":[{"name":"batchNumber","type":"uint64","internalType":"uint64"},{"name":"indexRepeatedStorageChanges","type":"uint64","internalType":"uint64"},{"name":"numberOfLayer1Txs","type":"uint256","internalType":"uint256"},{"name":"priorityOperationsHash","type":"bytes32","internalType":"bytes32"},{"name":"l2LogsTreeRoot","type":"bytes32","internalType":"bytes32"},{"name":"timestamp","type":"uint256","internalType":"uint256"},{"name":"commitment","type":"bytes32","internalType":"bytes32"}]},{"name":"account","type":"address","internalType":"address"},{"name":"key","type":"uint256","internalType":"uint256"},{"name":"value","type":"bytes32","internalType":"bytes32"},{"name":"path","type":"bytes32[]","internalType":"bytes32[]"},{"name":"index","type":"uint64","internalType":"uint64"}]}],"outputs":[{"name":"valid","type":"bool","internalType":"bool"}],"stateMutability":"view"},{"type":"function","name":"zksyncDiamondAddress","inputs":[],"outputs":[{"name":"","type":"address","internalType":"contract IZkSyncDiamond"}],"stateMutability":"view"}],"bytecode":{"object":"0x60a060405234801561001057600080fd5b506040516105fb3803806105fb83398101604081905261002f9161006f565b6001600160a01b03918216608052600080546001600160a01b031916919092161790556100a9565b6001600160a01b038116811461006c57600080fd5b50565b6000806040838503121561008257600080fd5b825161008d81610057565b602084015190925061009e81610057565b809150509250929050565b6080516105316100ca600039600081816073015261019201526105316000f3fe608060405234801561001057600080fd5b50600436106100415760003560e01c80630c198511146100465780630e0416601461006e5780635e45a060146100ad575b600080fd5b6100596100543660046103ae565b6100c0565b60405190151581526020015b60405180910390f35b6100957f000000000000000000000000000000000000000000000000000000000000000081565b6040516001600160a01b039091168152602001610065565b600054610095906001600160a01b031681565b600080546080830151604080516060808201835282870151825286015160208083019190915260a087015167ffffffffffffffff1682840152860151915163638efe4560e01b815285946001600160a01b03169363638efe4593610128939192600401610468565b602060405180830381865afa158015610145573d6000803e3d6000fd5b505050506040513d601f19601f8201168201806040525081019061016991906104e2565b835151604051635916ebc760e11b815267ffffffffffffffff90911660048201529091506000907f00000000000000000000000000000000000000000000000000000000000000006001600160a01b03169063b22dd78e90602401602060405180830381865afa1580156101e1573d6000803e3d6000fd5b505050506040513d601f19601f8201168201806040525081019061020591906104e2565b919091149392505050565b634e487b7160e01b600052604160045260246000fd5b60405160c0810167ffffffffffffffff8111828210171561024957610249610210565b60405290565b803567ffffffffffffffff8116811461026757600080fd5b919050565b600060e0828403121561027e57600080fd5b60405160e0810181811067ffffffffffffffff821117156102a1576102a1610210565b6040529050806102b08361024f565b81526102be6020840161024f565b602082015260408301356040820152606083013560608201526080830135608082015260a083013560a082015260c083013560c08201525092915050565b80356001600160a01b038116811461026757600080fd5b600082601f83011261032457600080fd5b8135602067ffffffffffffffff8083111561034157610341610210565b8260051b604051601f19603f8301168101818110848211171561036657610366610210565b60405293845285810183019383810192508785111561038457600080fd5b83870191505b848210156103a35781358352918301919083019061038a565b979650505050505050565b6000602082840312156103c057600080fd5b813567ffffffffffffffff808211156103d857600080fd5b9083019061018082860312156103ed57600080fd5b6103f5610226565b6103ff868461026c565b815261040d60e084016102fc565b6020820152610100830135604082015261012083013560608201526101408301358281111561043b57600080fd5b61044787828601610313565b60808301525061045a610160840161024f565b60a082015295945050505050565b60a0808252845190820181905260009060209060c0840190828801845b828110156104a157815184529284019290840190600101610485565b505086518584015250908501516040808501919091529094015167ffffffffffffffff166060830152506001600160a01b0391909116608090910152919050565b6000602082840312156104f457600080fd5b505191905056fea2646970667358221220e0b354322b775b728d208657c849079547bc3de64cecee9cd221508a57be72b764736f6c63430008140033","linkReferences":{}},"methodIdentifiers":{"smt()":"5e45a060","verify(((uint64,uint64,uint256,bytes32,bytes32,uint256,bytes32),address,uint256,bytes32,bytes32[],uint64))":"0c198511","zksyncDiamondAddress()":"0e041660"},"id":23}