{"abi":[{"type":"constructor","inputs":[{"name":"_selfChainId","type":"bytes32","internalType":"bytes32"}],"stateMutability":"nonpayable"},{"type":"function","name":"selfChainId","inputs":[],"outputs":[{"name":"","type":"bytes32","internalType":"bytes32"}],"stateMutability":"view"},{"type":"function","name":"verifyAccount","inputs":[{"name":"latestState","type":"bytes32","internalType":"bytes32"},{"name":"accountTrieProof","type":"bytes","internalType":"bytes"},{"name":"account","type":"address","internalType":"address"}],"outputs":[{"name":"nonce","type":"uint256","internalType":"uint256"},{"name":"accountBalance","type":"uint256","internalType":"uint256"},{"name":"codeHash","type":"bytes32","internalType":"bytes32"},{"name":"storageRoot","type":"bytes32","internalType":"bytes32"}],"stateMutability":"view"},{"type":"function","name":"verifyStorage","inputs":[{"name":"storageRoot","type":"bytes32","internalType":"bytes32"},{"name":"slot","type":"bytes32","internalType":"bytes32"},{"name":"storageSlotTrieProof","type":"bytes","internalType":"bytes"}],"outputs":[{"name":"slotValue","type":"bytes32","internalType":"bytes32"}],"stateMutability":"view"}],"bytecode":{"object":"0x60a060405234801561001057600080fd5b506040516117cc3803806117cc83398101604081905261002f91610037565b608052610050565b60006020828403121561004957600080fd5b5051919050565b60805161176261006a600039600060a401526117626000f3fe608060405234801561001057600080fd5b50600436106100415760003560e01c80636f7096dc146100465780637f1b8c731461006c578063cc9e3e891461009f575b600080fd5b6100596100543660046114b6565b6100c6565b6040519081526020015b60405180910390f35b61007f61007a366004611568565b61016b565b604080519485526020850193909352918301526060820152608001610063565b6100597f000000000000000000000000000000000000000000000000000000000000000081565b600080846040516020016100dc91815260200190565b60408051601f198184030181526020601f8701819004810284018101909252858352925060009161012c9184919088908890819084018382808284376000920191909152508c92506101de915050565b6040805180820182526000808252602091820152815180830190925282518252808301908201529092506101609150610207565b979650505050505050565b60008060008060008560405160200161019c919060609190911b6bffffffffffffffffffffffff1916815260140190565b60405160208183030381529060405290506000806101bb838a8c6101de565b915091506101c9828261030f565b929d919c50919a509098509650505050505050565b6000606060006101ed86610439565b90506101fa81868661046b565b9250925050935093915050565b60006021826000015111156102635760405162461bcd60e51b815260206004820152601a60248201527f496e76616c696420524c5020627974657333322076616c75652e00000000000060448201526064015b60405180910390fd5b600080600061027185610546565b91945092509050600081600181111561028c5761028c611633565b146102d95760405162461bcd60e51b815260206004820152601a60248201527f496e76616c696420524c5020627974657333322076616c75652e000000000000604482015260640161025a565b60008386602001516102eb919061165f565b805190915060208410156103055760208490036101000a90045b9695505050505050565b6000806000808561036b5750600092508291507f56e81f171bcc55a6ff8345e692c0f86e5b48e01b996cadc001622fb5e363b42190507fc5d2460186f7233c927e7db2dcc703c0e500b653ca82273b7bfad8045d85a470610430565b60006103a66103a18760408051808201825260008082526020918201528151808301909252825182529182019181019190915290565b61084c565b90506103ce81600060ff16815181106103c1576103c1611672565b6020026020010151610a38565b94506103e981600160ff16815181106103c1576103c1611672565b935061041181600360ff168151811061040457610404611672565b6020026020010151610207565b915061042c81600260ff168151811061040457610404611672565b9250505b92959194509250565b6060818051906020012060405160200161045591815260200190565b6040516020818303038152906040529050919050565b60006060600061047a85610a49565b9050600080600061048c848a89610b44565b815192955090935091501580806104a05750815b6104ec5760405162461bcd60e51b815260206004820152601a60248201527f50726f76696465642070726f6f6620697320696e76616c69642e000000000000604482015260640161025a565b6000816105085760405180602001604052806000815250610534565b61053486610517600188611688565b8151811061052757610527611672565b6020026020010151610f63565b919b919a509098505050505050505050565b60008060008084600001511161059e5760405162461bcd60e51b815260206004820152601860248201527f524c50206974656d2063616e6e6f74206265206e756c6c2e0000000000000000604482015260640161025a565b6020840151805160001a607f81116105c3576000600160009450945094505050610845565b60b78111610633578551607f1982019081106106215760405162461bcd60e51b815260206004820152601960248201527f496e76616c696420524c502073686f727420737472696e672e00000000000000604482015260640161025a565b60019550935060009250610845915050565b60bf811161070d57855160b61982019081106106915760405162461bcd60e51b815260206004820152601f60248201527f496e76616c696420524c50206c6f6e6720737472696e67206c656e6774682e00604482015260640161025a565b6000816020036101000a60018501510490508082018860000151116106f85760405162461bcd60e51b815260206004820152601860248201527f496e76616c696420524c50206c6f6e6720737472696e672e0000000000000000604482015260640161025a565b60019091019550935060009250610845915050565b60f7811161077c57855160bf19820190811061076b5760405162461bcd60e51b815260206004820152601760248201527f496e76616c696420524c502073686f7274206c6973742e000000000000000000604482015260640161025a565b600195509350849250610845915050565b855160f61982019081106107d25760405162461bcd60e51b815260206004820152601d60248201527f496e76616c696420524c50206c6f6e67206c697374206c656e6774682e000000604482015260640161025a565b6000816020036101000a60018501510490508082018860000151116108325760405162461bcd60e51b815260206004820152601660248201527524b73b30b634b210292628103637b733903634b9ba1760511b604482015260640161025a565b6001918201965094509250610845915050565b9193909250565b606060008061085a84610546565b9193509091506001905081600181111561087657610876611633565b146108c35760405162461bcd60e51b815260206004820152601760248201527f496e76616c696420524c50206c6973742076616c75652e000000000000000000604482015260640161025a565b6040805160208082526104208201909252600091816020015b60408051808201909152600080825260208201528152602001906001900390816108dc5790505090506000835b8651811015610a2d57602082106109755760405162461bcd60e51b815260206004820152602a60248201527f50726f766964656420524c50206c6973742065786365656473206d6178206c6960448201526939ba103632b733ba341760b11b606482015260840161025a565b6000806109b26040518060400160405280858c600001516109969190611688565b8152602001858c602001516109ab919061165f565b9052610546565b5091509150604051806040016040528083836109ce919061165f565b8152602001848b602001516109e3919061165f565b8152508585815181106109f8576109f8611672565b6020908102919091010152610a0e60018561165f565b9350610a1a818361165f565b610a24908461165f565b92505050610909565b508152949350505050565b6000610a4382610207565b92915050565b60606000610a5683610f8d565b90506000815167ffffffffffffffff811115610a7457610a74611536565b604051908082528060200260200182016040528015610ab957816020015b6040805180820190915260608082526020820152815260200190600190039081610a925790505b50905060005b8251811015610b3c576000610aec848381518110610adf57610adf611672565b6020026020010151610fc0565b90506040518060400160405280828152602001610b0883610f8d565b815250838381518110610b1d57610b1d611672565b6020026020010181905250508080610b349061169b565b915050610abf565b509392505050565b60006060818080610b5487611050565b90506000869050600080610b7b604051806040016040528060608152602001606081525090565b60005b8c51811015610f3b578c8181518110610b9957610b99611672565b602002602001015191508284610baf919061165f565b9350610bbc60018861165f565b965083600003610c1757815180516020909101208514610c125760405162461bcd60e51b8152602060048201526011602482015270092dcecc2d8d2c840e4dedee840d0c2e6d607b1b604482015260640161025a565b610cd4565b815151602011610c7957815180516020909101208514610c125760405162461bcd60e51b815260206004820152601b60248201527f496e76616c6964206c6172676520696e7465726e616c20686173680000000000604482015260640161025a565b84610c87836000015161116c565b14610cd45760405162461bcd60e51b815260206004820152601a60248201527f496e76616c696420696e7465726e616c206e6f64652068617368000000000000604482015260640161025a565b610ce06010600161165f565b82602001515103610d525785518414610f3b576000868581518110610d0757610d07611672565b602001015160f81c60f81b60f81c9050600083602001518260ff1681518110610d3257610d32611672565b60200260200101519050610d4581611194565b9650600194505050610f29565b600282602001515103610ee1576000610d6a836111d1565b9050600081600081518110610d8157610d81611672565b016020015160f81c90506000610d986002836116ca565b610da39060026116fa565b90506000610db4848360ff166111f5565b90506000610dc28b8a6111f5565b90506000610dd08383611225565b905060ff851660021480610de7575060ff85166003145b15610e2157808351148015610dfc5750808251145b15610e0e57610e0b818b61165f565b99505b50600160ff1b9950610f3b945050505050565b60ff85161580610e34575060ff85166001145b15610e8a5780600003610e545750600160ff1b9950610f3b945050505050565b610e7b8860200151600181518110610e6e57610e6e611672565b6020026020010151611194565b9a509750610f29945050505050565b60405162461bcd60e51b815260206004820152602660248201527f52656365697665642061206e6f6465207769746820616e20756e6b6e6f776e206044820152650e0e4caccd2f60d31b606482015260840161025a565b60405162461bcd60e51b815260206004820152601d60248201527f526563656976656420616e20756e706172736561626c65206e6f64652e000000604482015260640161025a565b80610f338161169b565b915050610b7e565b50600160ff1b841486610f4e87866111f5565b909e909d50909b509950505050505050505050565b60208101518051606091610a4391610f7d90600190611688565b81518110610adf57610adf611672565b604080518082018252600080825260209182015281518083019092528251825280830190820152606090610a439061084c565b60606000806000610fd085610546565b919450925090506000816001811115610feb57610feb611633565b146110385760405162461bcd60e51b815260206004820152601860248201527f496e76616c696420524c502062797465732076616c75652e0000000000000000604482015260640161025a565b611047856020015184846112a1565b95945050505050565b60606000825160020267ffffffffffffffff81111561107157611071611536565b6040519080825280601f01601f19166020018201604052801561109b576020820181803683370190505b50905060005b83518110156111655760048482815181106110be576110be611672565b602001015160f81c60f81b6001600160f81b031916901c8282600202815181106110ea576110ea611672565b60200101906001600160f81b031916908160001a905350601084828151811061111557611115611672565b016020015160f81c8161112a5761112a6116b4565b0660f81b82826002026001018151811061114657611146611672565b60200101906001600160f81b031916908160001a9053506001016110a1565b5092915050565b600060208251101561118057506020015190565b81806020019051810190610a439190611713565b600060606020836000015110156111b5576111ae83611353565b90506111c1565b6111be83610fc0565b90505b6111ca8161116c565b9392505050565b6060610a436111f08360200151600081518110610adf57610adf611672565b611050565b6060818351036000036112175750604080516020810190915260008152610a43565b6111ca83838486510361135e565b6000805b8084511180156112395750808351115b801561128a575082818151811061125257611252611672565b602001015160f81c60f81b6001600160f81b03191684828151811061127957611279611672565b01602001516001600160f81b031916145b156111ca57806112998161169b565b915050611229565b606060008267ffffffffffffffff8111156112be576112be611536565b6040519080825280601f01601f1916602001820160405280156112e8576020820181803683370190505b50905080516000036112fb5790506111ca565b8484016020820160005b60208604811015611326578251825260209283019290910190600101611305565b5060006001602087066020036101000a039050808251168119845116178252839450505050509392505050565b6060610a43826114a0565b60608182601f0110156113a45760405162461bcd60e51b815260206004820152600e60248201526d736c6963655f6f766572666c6f7760901b604482015260640161025a565b8282840110156113e75760405162461bcd60e51b815260206004820152600e60248201526d736c6963655f6f766572666c6f7760901b604482015260640161025a565b8183018451101561142e5760405162461bcd60e51b8152602060048201526011602482015270736c6963655f6f75744f66426f756e647360781b604482015260640161025a565b60608215801561144d5760405191506000825260208201604052611497565b6040519150601f8416801560200281840101858101878315602002848b0101015b8183101561148657805183526020928301920161146e565b5050858452601f01601f1916604052505b50949350505050565b6060610a438260200151600084600001516112a1565b600080600080606085870312156114cc57600080fd5b8435935060208501359250604085013567ffffffffffffffff808211156114f257600080fd5b818701915087601f83011261150657600080fd5b81358181111561151557600080fd5b88602082850101111561152757600080fd5b95989497505060200194505050565b634e487b7160e01b600052604160045260246000fd5b80356001600160a01b038116811461156357600080fd5b919050565b60008060006060848603121561157d57600080fd5b83359250602084013567ffffffffffffffff8082111561159c57600080fd5b818601915086601f8301126115b057600080fd5b8135818111156115c2576115c2611536565b604051601f8201601f19908116603f011681019083821181831017156115ea576115ea611536565b8160405282815289602084870101111561160357600080fd5b82602086016020830137600060208483010152809650505050505061162a6040850161154c565b90509250925092565b634e487b7160e01b600052602160045260246000fd5b634e487b7160e01b600052601160045260246000fd5b80820180821115610a4357610a43611649565b634e487b7160e01b600052603260045260246000fd5b81810381811115610a4357610a43611649565b6000600182016116ad576116ad611649565b5060010190565b634e487b7160e01b600052601260045260246000fd5b600060ff8316806116eb57634e487b7160e01b600052601260045260246000fd5b8060ff84160691505092915050565b60ff8281168282160390811115610a4357610a43611649565b60006020828403121561172557600080fd5b505191905056fea26469706673582212203d319230c74216a8f98bdc634c41bf78d86198c8f5ea8dce9217b868cbddda6864736f6c63430008140033","linkReferences":{}},"methodIdentifiers":{"selfChainId()":"cc9e3e89","verifyAccount(bytes32,bytes,address)":"7f1b8c73","verifyStorage(bytes32,bytes32,bytes)":"6f7096dc"},"id":19}