{"abi":[{"type":"function","name":"verifyAccount","inputs":[{"name":"latestState","type":"bytes32","internalType":"bytes32"},{"name":"accountTrieProof","type":"bytes","internalType":"bytes"},{"name":"account","type":"address","internalType":"address"}],"outputs":[{"name":"nonce","type":"uint256","internalType":"uint256"},{"name":"accountBalance","type":"uint256","internalType":"uint256"},{"name":"codeHash","type":"bytes32","internalType":"bytes32"},{"name":"storageRoot","type":"bytes32","internalType":"bytes32"}],"stateMutability":"view"},{"type":"function","name":"verifyStorage","inputs":[{"name":"storageRoot","type":"bytes32","internalType":"bytes32"},{"name":"slot","type":"bytes32","internalType":"bytes32"},{"name":"storageSlotTrieProof","type":"bytes","internalType":"bytes"}],"outputs":[{"name":"slotValue","type":"bytes32","internalType":"bytes32"}],"stateMutability":"view"}],"bytecode":{"object":"0x608060405234801561001057600080fd5b50611730806100206000396000f3fe608060405234801561001057600080fd5b50600436106100365760003560e01c80636f7096dc1461003b5780637f1b8c7314610061575b600080fd5b61004e610049366004611484565b610094565b6040519081526020015b60405180910390f35b61007461006f366004611536565b610139565b604080519485526020850193909352918301526060820152608001610058565b600080846040516020016100aa91815260200190565b60408051601f198184030181526020601f870181900481028401810190925285835292506000916100fa9184919088908890819084018382808284376000920191909152508c92506101ac915050565b60408051808201825260008082526020918201528151808301909252825182528083019082015290925061012e91506101d5565b979650505050505050565b60008060008060008560405160200161016a919060609190911b6bffffffffffffffffffffffff1916815260140190565b6040516020818303038152906040529050600080610189838a8c6101ac565b9150915061019782826102dd565b929d919c50919a509098509650505050505050565b6000606060006101bb86610407565b90506101c8818686610439565b9250925050935093915050565b60006021826000015111156102315760405162461bcd60e51b815260206004820152601a60248201527f496e76616c696420524c5020627974657333322076616c75652e00000000000060448201526064015b60405180910390fd5b600080600061023f85610514565b91945092509050600081600181111561025a5761025a611601565b146102a75760405162461bcd60e51b815260206004820152601a60248201527f496e76616c696420524c5020627974657333322076616c75652e0000000000006044820152606401610228565b60008386602001516102b9919061162d565b805190915060208410156102d35760208490036101000a90045b9695505050505050565b600080600080856103395750600092508291507f56e81f171bcc55a6ff8345e692c0f86e5b48e01b996cadc001622fb5e363b42190507fc5d2460186f7233c927e7db2dcc703c0e500b653ca82273b7bfad8045d85a4706103fe565b600061037461036f8760408051808201825260008082526020918201528151808301909252825182529182019181019190915290565b61081a565b905061039c81600060ff168151811061038f5761038f611640565b6020026020010151610a06565b94506103b781600160ff168151811061038f5761038f611640565b93506103df81600360ff16815181106103d2576103d2611640565b60200260200101516101d5565b91506103fa81600260ff16815181106103d2576103d2611640565b9250505b92959194509250565b6060818051906020012060405160200161042391815260200190565b6040516020818303038152906040529050919050565b60006060600061044885610a17565b9050600080600061045a848a89610b12565b8151929550909350915015808061046e5750815b6104ba5760405162461bcd60e51b815260206004820152601a60248201527f50726f76696465642070726f6f6620697320696e76616c69642e0000000000006044820152606401610228565b6000816104d65760405180602001604052806000815250610502565b610502866104e5600188611656565b815181106104f5576104f5611640565b6020026020010151610f31565b919b919a509098505050505050505050565b60008060008084600001511161056c5760405162461bcd60e51b815260206004820152601860248201527f524c50206974656d2063616e6e6f74206265206e756c6c2e00000000000000006044820152606401610228565b6020840151805160001a607f8111610591576000600160009450945094505050610813565b60b78111610601578551607f1982019081106105ef5760405162461bcd60e51b815260206004820152601960248201527f496e76616c696420524c502073686f727420737472696e672e000000000000006044820152606401610228565b60019550935060009250610813915050565b60bf81116106db57855160b619820190811061065f5760405162461bcd60e51b815260206004820152601f60248201527f496e76616c696420524c50206c6f6e6720737472696e67206c656e6774682e006044820152606401610228565b6000816020036101000a60018501510490508082018860000151116106c65760405162461bcd60e51b815260206004820152601860248201527f496e76616c696420524c50206c6f6e6720737472696e672e00000000000000006044820152606401610228565b60019091019550935060009250610813915050565b60f7811161074a57855160bf1982019081106107395760405162461bcd60e51b815260206004820152601760248201527f496e76616c696420524c502073686f7274206c6973742e0000000000000000006044820152606401610228565b600195509350849250610813915050565b855160f61982019081106107a05760405162461bcd60e51b815260206004820152601d60248201527f496e76616c696420524c50206c6f6e67206c697374206c656e6774682e0000006044820152606401610228565b6000816020036101000a60018501510490508082018860000151116108005760405162461bcd60e51b815260206004820152601660248201527524b73b30b634b210292628103637b733903634b9ba1760511b6044820152606401610228565b6001918201965094509250610813915050565b9193909250565b606060008061082884610514565b9193509091506001905081600181111561084457610844611601565b146108915760405162461bcd60e51b815260206004820152601760248201527f496e76616c696420524c50206c6973742076616c75652e0000000000000000006044820152606401610228565b6040805160208082526104208201909252600091816020015b60408051808201909152600080825260208201528152602001906001900390816108aa5790505090506000835b86518110156109fb57602082106109435760405162461bcd60e51b815260206004820152602a60248201527f50726f766964656420524c50206c6973742065786365656473206d6178206c6960448201526939ba103632b733ba341760b11b6064820152608401610228565b6000806109806040518060400160405280858c600001516109649190611656565b8152602001858c60200151610979919061162d565b9052610514565b50915091506040518060400160405280838361099c919061162d565b8152602001848b602001516109b1919061162d565b8152508585815181106109c6576109c6611640565b60209081029190910101526109dc60018561162d565b93506109e8818361162d565b6109f2908461162d565b925050506108d7565b508152949350505050565b6000610a11826101d5565b92915050565b60606000610a2483610f5b565b90506000815167ffffffffffffffff811115610a4257610a42611504565b604051908082528060200260200182016040528015610a8757816020015b6040805180820190915260608082526020820152815260200190600190039081610a605790505b50905060005b8251811015610b0a576000610aba848381518110610aad57610aad611640565b6020026020010151610f8e565b90506040518060400160405280828152602001610ad683610f5b565b815250838381518110610aeb57610aeb611640565b6020026020010181905250508080610b0290611669565b915050610a8d565b509392505050565b60006060818080610b228761101e565b90506000869050600080610b49604051806040016040528060608152602001606081525090565b60005b8c51811015610f09578c8181518110610b6757610b67611640565b602002602001015191508284610b7d919061162d565b9350610b8a60018861162d565b965083600003610be557815180516020909101208514610be05760405162461bcd60e51b8152602060048201526011602482015270092dcecc2d8d2c840e4dedee840d0c2e6d607b1b6044820152606401610228565b610ca2565b815151602011610c4757815180516020909101208514610be05760405162461bcd60e51b815260206004820152601b60248201527f496e76616c6964206c6172676520696e7465726e616c206861736800000000006044820152606401610228565b84610c55836000015161113a565b14610ca25760405162461bcd60e51b815260206004820152601a60248201527f496e76616c696420696e7465726e616c206e6f646520686173680000000000006044820152606401610228565b610cae6010600161162d565b82602001515103610d205785518414610f09576000868581518110610cd557610cd5611640565b602001015160f81c60f81b60f81c9050600083602001518260ff1681518110610d0057610d00611640565b60200260200101519050610d1381611162565b9650600194505050610ef7565b600282602001515103610eaf576000610d388361119f565b9050600081600081518110610d4f57610d4f611640565b016020015160f81c90506000610d66600283611698565b610d719060026116c8565b90506000610d82848360ff166111c3565b90506000610d908b8a6111c3565b90506000610d9e83836111f3565b905060ff851660021480610db5575060ff85166003145b15610def57808351148015610dca5750808251145b15610ddc57610dd9818b61162d565b99505b50600160ff1b9950610f09945050505050565b60ff85161580610e02575060ff85166001145b15610e585780600003610e225750600160ff1b9950610f09945050505050565b610e498860200151600181518110610e3c57610e3c611640565b6020026020010151611162565b9a509750610ef7945050505050565b60405162461bcd60e51b815260206004820152602660248201527f52656365697665642061206e6f6465207769746820616e20756e6b6e6f776e206044820152650e0e4caccd2f60d31b6064820152608401610228565b60405162461bcd60e51b815260206004820152601d60248201527f526563656976656420616e20756e706172736561626c65206e6f64652e0000006044820152606401610228565b80610f0181611669565b915050610b4c565b50600160ff1b841486610f1c87866111c3565b909e909d50909b509950505050505050505050565b60208101518051606091610a1191610f4b90600190611656565b81518110610aad57610aad611640565b604080518082018252600080825260209182015281518083019092528251825280830190820152606090610a119061081a565b60606000806000610f9e85610514565b919450925090506000816001811115610fb957610fb9611601565b146110065760405162461bcd60e51b815260206004820152601860248201527f496e76616c696420524c502062797465732076616c75652e00000000000000006044820152606401610228565b6110158560200151848461126f565b95945050505050565b60606000825160020267ffffffffffffffff81111561103f5761103f611504565b6040519080825280601f01601f191660200182016040528015611069576020820181803683370190505b50905060005b835181101561113357600484828151811061108c5761108c611640565b602001015160f81c60f81b6001600160f81b031916901c8282600202815181106110b8576110b8611640565b60200101906001600160f81b031916908160001a90535060108482815181106110e3576110e3611640565b016020015160f81c816110f8576110f8611682565b0660f81b82826002026001018151811061111457611114611640565b60200101906001600160f81b031916908160001a90535060010161106f565b5092915050565b600060208251101561114e57506020015190565b81806020019051810190610a1191906116e1565b600060606020836000015110156111835761117c83611321565b905061118f565b61118c83610f8e565b90505b6111988161113a565b9392505050565b6060610a116111be8360200151600081518110610aad57610aad611640565b61101e565b6060818351036000036111e55750604080516020810190915260008152610a11565b61119883838486510361132c565b6000805b8084511180156112075750808351115b8015611258575082818151811061122057611220611640565b602001015160f81c60f81b6001600160f81b03191684828151811061124757611247611640565b01602001516001600160f81b031916145b15611198578061126781611669565b9150506111f7565b606060008267ffffffffffffffff81111561128c5761128c611504565b6040519080825280601f01601f1916602001820160405280156112b6576020820181803683370190505b50905080516000036112c9579050611198565b8484016020820160005b602086048110156112f45782518252602092830192909101906001016112d3565b5060006001602087066020036101000a039050808251168119845116178252839450505050509392505050565b6060610a118261146e565b60608182601f0110156113725760405162461bcd60e51b815260206004820152600e60248201526d736c6963655f6f766572666c6f7760901b6044820152606401610228565b8282840110156113b55760405162461bcd60e51b815260206004820152600e60248201526d736c6963655f6f766572666c6f7760901b6044820152606401610228565b818301845110156113fc5760405162461bcd60e51b8152602060048201526011602482015270736c6963655f6f75744f66426f756e647360781b6044820152606401610228565b60608215801561141b5760405191506000825260208201604052611465565b6040519150601f8416801560200281840101858101878315602002848b0101015b8183101561145457805183526020928301920161143c565b5050858452601f01601f1916604052505b50949350505050565b6060610a1182602001516000846000015161126f565b6000806000806060858703121561149a57600080fd5b8435935060208501359250604085013567ffffffffffffffff808211156114c057600080fd5b818701915087601f8301126114d457600080fd5b8135818111156114e357600080fd5b8860208285010111156114f557600080fd5b95989497505060200194505050565b634e487b7160e01b600052604160045260246000fd5b80356001600160a01b038116811461153157600080fd5b919050565b60008060006060848603121561154b57600080fd5b83359250602084013567ffffffffffffffff8082111561156a57600080fd5b818601915086601f83011261157e57600080fd5b81358181111561159057611590611504565b604051601f8201601f19908116603f011681019083821181831017156115b8576115b8611504565b816040528281528960208487010111156115d157600080fd5b8260208601602083013760006020848301015280965050505050506115f86040850161151a565b90509250925092565b634e487b7160e01b600052602160045260246000fd5b634e487b7160e01b600052601160045260246000fd5b80820180821115610a1157610a11611617565b634e487b7160e01b600052603260045260246000fd5b81810381811115610a1157610a11611617565b60006001820161167b5761167b611617565b5060010190565b634e487b7160e01b600052601260045260246000fd5b600060ff8316806116b957634e487b7160e01b600052601260045260246000fd5b8060ff84160691505092915050565b60ff8281168282160390811115610a1157610a11611617565b6000602082840312156116f357600080fd5b505191905056fea2646970667358221220451bba9f3a2bfc3b0b842fbb69e1760753ca10def46f406859da80ed6cc3339464736f6c63430008140033","linkReferences":{}},"methodIdentifiers":{"verifyAccount(bytes32,bytes,address)":"7f1b8c73","verifyStorage(bytes32,bytes32,bytes)":"6f7096dc"},"id":20}