{"abi":[{"type":"constructor","inputs":[{"name":"_zksyncDiamondAddress","type":"address","internalType":"contract IZKSyncNexusManagerRouter"},{"name":"_smt","type":"address","internalType":"contract SparseMerkleTree"}],"stateMutability":"nonpayable"},{"type":"function","name":"smt","inputs":[],"outputs":[{"name":"","type":"address","internalType":"contract SparseMerkleTree"}],"stateMutability":"view"},{"type":"function","name":"verify","inputs":[{"name":"_proof","type":"tuple","internalType":"struct StorageProof","components":[{"name":"batchNumber","type":"uint64","internalType":"uint64"},{"name":"account","type":"address","internalType":"address"},{"name":"key","type":"uint256","internalType":"uint256"},{"name":"value","type":"bytes32","internalType":"bytes32"},{"name":"path","type":"bytes32[]","internalType":"bytes32[]"},{"name":"index","type":"uint64","internalType":"uint64"}]}],"outputs":[{"name":"valid","type":"bool","internalType":"bool"}],"stateMutability":"view"},{"type":"function","name":"zksyncDiamondAddress","inputs":[],"outputs":[{"name":"","type":"address","internalType":"contract IZKSyncNexusManagerRouter"}],"stateMutability":"view"}],"bytecode":{"object":"0x60a0604052348015600f57600080fd5b50604051610558380380610558833981016040819052602c91606a565b6001600160a01b03918216608052600080546001600160a01b03191691909216179055609f565b6001600160a01b0381168114606757600080fd5b50565b60008060408385031215607c57600080fd5b82516085816053565b60208401519092506094816053565b809150509250929050565b6080516104986100c060003960008181604b015261019101526104986000f3fe608060405234801561001057600080fd5b50600436106100415760003560e01c80630e041660146100465780635e45a0601461008a578063d82d86491461009d575b600080fd5b61006d7f000000000000000000000000000000000000000000000000000000000000000081565b6040516001600160a01b0390911681526020015b60405180910390f35b60005461006d906001600160a01b031681565b6100b06100ab366004610309565b6100c0565b6040519015158152602001610081565b600080546080830151604080516060808201835282870151825286015160208083019190915260a087015167ffffffffffffffff1682840152860151915163638efe4560e01b815285946001600160a01b03169363638efe45936101289391926004016103cd565b602060405180830381865afa158015610145573d6000803e3d6000fd5b505050506040513d601f19601f820116820180604052508101906101699190610449565b8351604051635916ebc760e11b815267ffffffffffffffff90911660048201529091506000907f00000000000000000000000000000000000000000000000000000000000000006001600160a01b03169063b22dd78e90602401602060405180830381865afa1580156101e0573d6000803e3d6000fd5b505050506040513d601f19601f820116820180604052508101906102049190610449565b919091149392505050565b634e487b7160e01b600052604160045260246000fd5b60405160c0810167ffffffffffffffff811182821017156102485761024861020f565b60405290565b803567ffffffffffffffff8116811461026657600080fd5b919050565b600082601f83011261027c57600080fd5b8135602067ffffffffffffffff808311156102995761029961020f565b8260051b604051601f19603f830116810181811084821117156102be576102be61020f565b60405293845260208187018101949081019250878511156102de57600080fd5b6020870191505b848210156102fe578135835291830191908301906102e5565b979650505050505050565b60006020828403121561031b57600080fd5b813567ffffffffffffffff8082111561033357600080fd5b9083019060c0828603121561034757600080fd5b61034f610225565b6103588361024e565b815260208301356001600160a01b038116811461037457600080fd5b8060208301525060408301356040820152606083013560608201526080830135828111156103a157600080fd5b6103ad8782860161026b565b6080830152506103bf60a0840161024e565b60a082015295945050505050565b60a0808252845190820181905260009060209060c0840190828801845b82811015610406578151845292840192908401906001016103ea565b5050508092505050835160208301526020840151604083015267ffffffffffffffff604085015116606083015260018060a01b0383166080830152949350505050565b60006020828403121561045b57600080fd5b505191905056fea2646970667358221220684d9b169765406c7928abed5ba5d0040c5cf3055d000a7b2c95a05803387e7564736f6c63430008190033","linkReferences":{}},"methodIdentifiers":{"smt()":"5e45a060","verify((uint64,address,uint256,bytes32,bytes32[],uint64))":"d82d8649","zksyncDiamondAddress()":"0e041660"},"id":50}