{
  "abi": [
    {
      "type": "function",
      "name": "addOrUpdateWrapper",
      "inputs": [
        {
          "name": "nexusAppIDFrom",
          "type": "bytes32",
          "internalType": "bytes32"
        },
        {
          "name": "verifierInfo",
          "type": "tuple",
          "internalType": "struct VerifierInfo",
          "components": [
            {
              "name": "verifier",
              "type": "address",
              "internalType": "contract INexusVerifierWrapper"
            },
            {
              "name": "mailboxAddress",
              "type": "address",
              "internalType": "address"
            }
          ]
        }
      ],
      "outputs": [],
      "stateMutability": "nonpayable"
    },
    {
      "type": "function",
      "name": "getSendMessage",
      "inputs": [
        {
          "name": "receiptHash",
          "type": "bytes32",
          "internalType": "bytes32"
        }
      ],
      "outputs": [
        {
          "name": "",
          "type": "tuple",
          "internalType": "struct MailboxMessage",
          "components": [
            {
              "name": "nexusAppIDFrom",
              "type": "bytes32",
              "internalType": "bytes32"
            },
            {
              "name": "nexusAppIDTo",
              "type": "bytes32[]",
              "internalType": "bytes32[]"
            },
            {
              "name": "data",
              "type": "bytes",
              "internalType": "bytes"
            },
            {
              "name": "from",
              "type": "address",
              "internalType": "address"
            },
            {
              "name": "to",
              "type": "address[]",
              "internalType": "address[]"
            },
            {
              "name": "nonce",
              "type": "uint256",
              "internalType": "uint256"
            }
          ]
        }
      ],
      "stateMutability": "view"
    },
    {
      "type": "function",
      "name": "getVerifiedMessage",
      "inputs": [
        {
          "name": "receiptHash",
          "type": "bytes32",
          "internalType": "bytes32"
        }
      ],
      "outputs": [
        {
          "name": "",
          "type": "tuple",
          "internalType": "struct MailboxMessage",
          "components": [
            {
              "name": "nexusAppIDFrom",
              "type": "bytes32",
              "internalType": "bytes32"
            },
            {
              "name": "nexusAppIDTo",
              "type": "bytes32[]",
              "internalType": "bytes32[]"
            },
            {
              "name": "data",
              "type": "bytes",
              "internalType": "bytes"
            },
            {
              "name": "from",
              "type": "address",
              "internalType": "address"
            },
            {
              "name": "to",
              "type": "address[]",
              "internalType": "address[]"
            },
            {
              "name": "nonce",
              "type": "uint256",
              "internalType": "uint256"
            }
          ]
        }
      ],
      "stateMutability": "view"
    },
    {
      "type": "function",
      "name": "initialize",
      "inputs": [
        {
          "name": "_nexusAppID",
          "type": "bytes32",
          "internalType": "bytes32"
        }
      ],
      "outputs": [],
      "stateMutability": "nonpayable"
    },
    {
      "type": "function",
      "name": "messages",
      "inputs": [
        {
          "name": "",
          "type": "bytes32",
          "internalType": "bytes32"
        }
      ],
      "outputs": [
        {
          "name": "",
          "type": "bool",
          "internalType": "bool"
        }
      ],
      "stateMutability": "view"
    },
    {
      "type": "function",
      "name": "nexusAppID",
      "inputs": [],
      "outputs": [
        {
          "name": "",
          "type": "bytes32",
          "internalType": "bytes32"
        }
      ],
      "stateMutability": "view"
    },
    {
      "type": "function",
      "name": "owner",
      "inputs": [],
      "outputs": [
        {
          "name": "",
          "type": "address",
          "internalType": "address"
        }
      ],
      "stateMutability": "view"
    },
    {
      "type": "function",
      "name": "receiveMessage",
      "inputs": [
        {
          "name": "chainblockNumber",
          "type": "uint256",
          "internalType": "uint256"
        },
        {
          "name": "receipt",
          "type": "tuple",
          "internalType": "struct MailboxMessage",
          "components": [
            {
              "name": "nexusAppIDFrom",
              "type": "bytes32",
              "internalType": "bytes32"
            },
            {
              "name": "nexusAppIDTo",
              "type": "bytes32[]",
              "internalType": "bytes32[]"
            },
            {
              "name": "data",
              "type": "bytes",
              "internalType": "bytes"
            },
            {
              "name": "from",
              "type": "address",
              "internalType": "address"
            },
            {
              "name": "to",
              "type": "address[]",
              "internalType": "address[]"
            },
            {
              "name": "nonce",
              "type": "uint256",
              "internalType": "uint256"
            }
          ]
        },
        {
          "name": "proof",
          "type": "bytes",
          "internalType": "bytes"
        }
      ],
      "outputs": [],
      "stateMutability": "nonpayable"
    },
    {
      "type": "function",
      "name": "renounceOwnership",
      "inputs": [],
      "outputs": [],
      "stateMutability": "nonpayable"
    },
    {
      "type": "function",
      "name": "sendMessage",
      "inputs": [
        {
          "name": "nexusAppIDTo",
          "type": "bytes32[]",
          "internalType": "bytes32[]"
        },
        {
          "name": "to",
          "type": "address[]",
          "internalType": "address[]"
        },
        {
          "name": "nonce",
          "type": "uint256",
          "internalType": "uint256"
        },
        {
          "name": "data",
          "type": "bytes",
          "internalType": "bytes"
        }
      ],
      "outputs": [],
      "stateMutability": "nonpayable"
    },
    {
      "type": "function",
      "name": "transferOwnership",
      "inputs": [
        {
          "name": "newOwner",
          "type": "address",
          "internalType": "address"
        }
      ],
      "outputs": [],
      "stateMutability": "nonpayable"
    },
    {
      "type": "function",
      "name": "verifiedMessages",
      "inputs": [
        {
          "name": "",
          "type": "bytes32",
          "internalType": "bytes32"
        }
      ],
      "outputs": [
        {
          "name": "nexusAppIDFrom",
          "type": "bytes32",
          "internalType": "bytes32"
        },
        {
          "name": "data",
          "type": "bytes",
          "internalType": "bytes"
        },
        {
          "name": "from",
          "type": "address",
          "internalType": "address"
        },
        {
          "name": "nonce",
          "type": "uint256",
          "internalType": "uint256"
        }
      ],
      "stateMutability": "view"
    },
    {
      "type": "function",
      "name": "verifierWrappers",
      "inputs": [
        {
          "name": "",
          "type": "bytes32",
          "internalType": "bytes32"
        }
      ],
      "outputs": [
        {
          "name": "verifier",
          "type": "address",
          "internalType": "contract INexusVerifierWrapper"
        },
        {
          "name": "mailboxAddress",
          "type": "address",
          "internalType": "address"
        }
      ],
      "stateMutability": "view"
    },
    {
      "type": "event",
      "name": "CallbackFailed",
      "inputs": [
        {
          "name": "to",
          "type": "address",
          "indexed": true,
          "internalType": "address"
        },
        {
          "name": "data",
          "type": "bytes",
          "indexed": false,
          "internalType": "bytes"
        }
      ],
      "anonymous": false
    },
    {
      "type": "event",
      "name": "Initialized",
      "inputs": [
        {
          "name": "version",
          "type": "uint64",
          "indexed": false,
          "internalType": "uint64"
        }
      ],
      "anonymous": false
    },
    {
      "type": "event",
      "name": "MailboxEvent",
      "inputs": [
        {
          "name": "nexusAppIDFrom",
          "type": "bytes32",
          "indexed": true,
          "internalType": "bytes32"
        },
        {
          "name": "nexusAppIDTo",
          "type": "bytes32[]",
          "indexed": false,
          "internalType": "bytes32[]"
        },
        {
          "name": "data",
          "type": "bytes",
          "indexed": false,
          "internalType": "bytes"
        },
        {
          "name": "from",
          "type": "address",
          "indexed": true,
          "internalType": "address"
        },
        {
          "name": "to",
          "type": "address[]",
          "indexed": false,
          "internalType": "address[]"
        },
        {
          "name": "nonce",
          "type": "uint256",
          "indexed": false,
          "internalType": "uint256"
        },
        {
          "name": "receiptHash",
          "type": "bytes32",
          "indexed": false,
          "internalType": "bytes32"
        }
      ],
      "anonymous": false
    },
    {
      "type": "event",
      "name": "OwnershipTransferred",
      "inputs": [
        {
          "name": "previousOwner",
          "type": "address",
          "indexed": true,
          "internalType": "address"
        },
        {
          "name": "newOwner",
          "type": "address",
          "indexed": true,
          "internalType": "address"
        }
      ],
      "anonymous": false
    },
    {
      "type": "error",
      "name": "InvalidInitialization",
      "inputs": []
    },
    {
      "type": "error",
      "name": "InvalidParameters",
      "inputs": []
    },
    {
      "type": "error",
      "name": "NotInitializing",
      "inputs": []
    },
    {
      "type": "error",
      "name": "OwnableInvalidOwner",
      "inputs": [
        {
          "name": "owner",
          "type": "address",
          "internalType": "address"
        }
      ]
    },
    {
      "type": "error",
      "name": "OwnableUnauthorizedAccount",
      "inputs": [
        {
          "name": "account",
          "type": "address",
          "internalType": "address"
        }
      ]
    },
    {
      "type": "error",
      "name": "StateAlreadyUpdated",
      "inputs": []
    },
    {
      "type": "error",
      "name": "WrapperNotAvailable",
      "inputs": []
    }
  ],
  "bytecode": {
    "object": "0x608060405234801561000f575f80fd5b50611e0f8061001d5f395ff3fe608060405234801561000f575f80fd5b50600436106100cb575f3560e01c806379980597116100885780639498bd71116100635780639498bd711461021d578063a84315d214610230578063cb8d653c14610243578063f2fde38b14610256575f80fd5b806379980597146101b95780637d8a0ea5146101d05780638da5cb5b146101e3575f80fd5b8063151086c3146100cf5780632bbd59ca146100e45780633cf7f1d41461011b57806342fd2d671461013e5780635e92c0e01461015e578063715018a6146101b1575b5f80fd5b6100e26100dd366004611122565b610269565b005b6101066100f2366004611193565b5f6020819052908152604090205460ff1681565b60405190151581526020015b60405180910390f35b61012e610129366004611193565b610546565b60405161011294939291906111f7565b61015161014c366004611193565b6105fd565b604051610112919061126d565b61019161016c366004611193565b600160208190525f918252604090912080549101546001600160a01b03918216911682565b604080516001600160a01b03938416815292909116602083015201610112565b6100e2610788565b6101c260045481565b604051908152602001610112565b6101516101de366004611193565b61079b565b7f9016d09d72d40fdae2fd8ceac6b6234c7706214fd39c1cd1e609a0528c199300546040516001600160a01b039091168152602001610112565b6100e261022b366004611193565b610823565b6100e261023e366004611394565b610934565b6100e26102513660046114a2565b61097e565b6100e2610264366004611586565b610ba3565b82355f90815260016020818152604092839020835180850190945280546001600160a01b039081168086529190930154909216908301526102bd576040516354b30cf360e11b815260040160405180910390fd5b5f846040516020016102cf9190611691565b60408051601f1981840301815291815281516020928301205f8181526002909352912054909150156103145760405163165f4e1360e31b815260040160405180910390fd5b8151602083015160405163f91821ad60e01b81526001600160a01b039092169163f91821ad9161034e918a9186918a918a91600401611763565b5f604051808303815f87803b158015610365575f80fd5b505af1158015610377573d5f803e3d5ffd5b5050505f8281526002602052604090208691506103948282611a0a565b505f905061041c6103a8602088018861179c565b808060200260200160405190810160405280939291908181526020018383602002808284375f920191909152506103e692505050608089018961179c565b808060200260200160405190810160405280939291908181526020018383602002808284375f92019190915250610be092505050565b90506001600160a01b0381161561053d575f6001600160a01b038216873561044a60808a0160608b01611586565b61045760408b018b6117f5565b8b60a00135604051602401610470959493929190611b24565b60408051601f198184030181529181526020820180516001600160e01b031663ecb8171f60e01b179052516104a59190611b60565b5f604051808303815f865af19150503d805f81146104de576040519150601f19603f3d011682016040523d82523d5f602084013e6104e3565b606091505b505090508061053b576001600160a01b0382167f4897072d9871071be999d77763d358428c4fcb1b89c417f416e0854944db8a5b61052460408a018a6117f5565b604051610532929190611b7b565b60405180910390a25b505b50505050505050565b600260208190525f91825260409091208054918101805461056690611837565b80601f016020809104026020016040519081016040528092919081815260200182805461059290611837565b80156105dd5780601f106105b4576101008083540402835291602001916105dd565b820191905f5260205f20905b8154815290600101906020018083116105c057829003601f168201915b50505050600383015460059093015491926001600160a01b031691905084565b610605610fef565b5f82815260036020908152604091829020825160c081018452815481526001820180548551818602810186019096528086529194929385810193929083018282801561066e57602002820191905f5260205f20905b81548152602001906001019080831161065a575b5050505050815260200160028201805461068790611837565b80601f01602080910402602001604051908101604052809291908181526020018280546106b390611837565b80156106fe5780601f106106d5576101008083540402835291602001916106fe565b820191905f5260205f20905b8154815290600101906020018083116106e157829003601f168201915b505050918352505060038201546001600160a01b0316602080830191909152600483018054604080518285028101850182528281529401939283018282801561076e57602002820191905f5260205f20905b81546001600160a01b03168152600190910190602001808311610750575b505050505081526020016005820154815250509050919050565b610790610cc8565b6107995f610d23565b565b6107a3610fef565b5f82815260026020908152604091829020825160c081018452815481526001820180548551818602810186019096528086529194929385810193929083018282801561066e57602002820191905f5260205f209081548152602001906001019080831161065a575050505050815260200160028201805461068790611837565b7ff0c57e16840df040f15088dc2f81fe391c3923bec73e23a9662efc9c229c6a008054600160401b810460ff1615906001600160401b03165f811580156108675750825b90505f826001600160401b031660011480156108825750303b155b905081158015610890575080155b156108ae5760405163f92ee8a960e01b815260040160405180910390fd5b845467ffffffffffffffff1916600117855583156108d857845460ff60401b1916600160401b1785555b60048690556108e633610d93565b831561092c57845460ff60401b19168555604051600181527fc7f505b2f371ae2175ee4913f4499e1f2633a7b5936321eed1cdaeb6115181d29060200160405180910390a15b505050505050565b61093c610cc8565b5f918252600160208181526040909320825181546001600160a01b039182166001600160a01b0319918216178355939094015191018054919093169116179055565b83518551146109a057604051630e52390960e41b815260040160405180910390fd5b6109b985855f600189516109b49190611b96565b610da4565b5f6040518060c00160405280600454815260200187815260200184848080601f0160208091040260200160405190810160405280939291908181526020018383808284375f92018290525093855250503360208085019190915260408085018b9052606090940189905292519394509092610a37928592500161126d565b60408051601f1981840301815291815281516020928301205f8181529283905291205490915060ff1615610aa95760405162461bcd60e51b815260206004820152601460248201527313595cdcd859d948185b1c9958591e481cd95b9d60621b60448201526064015b60405180910390fd5b5f81815260208181526040808320805460ff191660019081179091556003835292208451815584820151805186949293610ae793850192019061102e565b5060408201516002820190610afc9082611ba9565b5060608201516003820180546001600160a01b0319166001600160a01b0390921691909117905560808201518051610b3e916004840191602090910190611077565b5060a08201518160050155905050336001600160a01b03166004547f58f2e975d76099ef17c6f5603a4c1a7dcdaa153e47be7e0f516772474a9474588987878b8b88604051610b9296959493929190611c64565b60405180910390a350505050505050565b610bab610cc8565b6001600160a01b038116610bd457604051631e4fbdf760e01b81525f6004820152602401610aa0565b610bdd81610d23565b50565b5f82515f03610bf057505f610cc2565b5f8060018551610c009190611b96565b90505b808213610cbc575f6002610c178484611d07565b610c219190611d2d565b610c2b9084611d65565b9050600454868281518110610c4257610c42611d8c565b602002602001015103610c7357848181518110610c6157610c61611d8c565b60200260200101519350505050610cc2565b600454868281518110610c8857610c88611d8c565b60200260200101511015610ca857610ca1816001611d65565b9250610cb6565b610cb3600182611d07565b91505b50610c03565b5f925050505b92915050565b33610cfa7f9016d09d72d40fdae2fd8ceac6b6234c7706214fd39c1cd1e609a0528c199300546001600160a01b031690565b6001600160a01b0316146107995760405163118cdaa760e01b8152336004820152602401610aa0565b7f9016d09d72d40fdae2fd8ceac6b6234c7706214fd39c1cd1e609a0528c19930080546001600160a01b031981166001600160a01b03848116918217845560405192169182907f8be0079c531659141344cd1fd0a4f28419497f9722a3daafe3b4186f6b6457e0905f90a3505050565b610d9b610f9e565b610bdd81610fe7565b8181808203610db4575050610f98565b5f866002610dc28787611d07565b610dcc9190611d2d565b610dd69087611d65565b81518110610de657610de6611d8c565b602002602001015190505b818313610f70575b80878481518110610e0c57610e0c611d8c565b60200260200101511015610e2c5782610e2481611da0565b935050610df9565b868281518110610e3e57610e3e611d8c565b6020026020010151811015610e5f5781610e5781611dbe565b925050610e2c565b818313610f6b57868281518110610e7857610e78611d8c565b6020026020010151878481518110610e9257610e92611d8c565b6020026020010151888581518110610eac57610eac611d8c565b60200260200101898581518110610ec557610ec5611d8c565b6020026020010182815250828152505050858281518110610ee857610ee8611d8c565b6020026020010151868481518110610f0257610f02611d8c565b6020026020010151878581518110610f1c57610f1c611d8c565b60200260200101888581518110610f3557610f35611d8c565b6001600160a01b0393841660209182029290920101529116905282610f5981611da0565b9350508180610f6790611dbe565b9250505b610df1565b81851215610f8457610f8487878785610da4565b8383121561053d5761053d87878587610da4565b50505050565b7ff0c57e16840df040f15088dc2f81fe391c3923bec73e23a9662efc9c229c6a0054600160401b900460ff1661079957604051631afcd79f60e31b815260040160405180910390fd5b610bab610f9e565b6040518060c001604052805f801916815260200160608152602001606081526020015f6001600160a01b03168152602001606081526020015f81525090565b828054828255905f5260205f20908101928215611067579160200282015b8281111561106757825182559160200191906001019061104c565b506110739291506110ca565b5090565b828054828255905f5260205f20908101928215611067579160200282015b8281111561106757825182546001600160a01b0319166001600160a01b03909116178255602090920191600190910190611095565b5b80821115611073575f81556001016110cb565b5f8083601f8401126110ee575f80fd5b5081356001600160401b03811115611104575f80fd5b60208301915083602082850101111561111b575f80fd5b9250929050565b5f805f8060608587031215611135575f80fd5b8435935060208501356001600160401b0380821115611152575f80fd5b9086019060c08289031215611165575f80fd5b9093506040860135908082111561117a575f80fd5b50611187878288016110de565b95989497509550505050565b5f602082840312156111a3575f80fd5b5035919050565b5f5b838110156111c45781810151838201526020016111ac565b50505f910152565b5f81518084526111e38160208601602086016111aa565b601f01601f19169290920160200192915050565b848152608060208201525f61120f60808301866111cc565b6001600160a01b03949094166040830152506060015292915050565b5f8151808452602080850194508084015f5b838110156112625781516001600160a01b03168752958201959082019060010161123d565b509495945050505050565b60208082528251828201528281015160c06040840152805160e084018190525f929182019083906101008601905b808310156112bb578351825292840192600192909201919084019061129b565b5060408701519350601f199250828682030160608701526112dc81856111cc565b9350505060608501516112fa60808601826001600160a01b03169052565b506080850151818584030160a0860152611314838261122b565b9250505060a084015160c08401528091505092915050565b634e487b7160e01b5f52604160045260245ffd5b604051601f8201601f191681016001600160401b03811182821017156113685761136861132c565b604052919050565b6001600160a01b0381168114610bdd575f80fd5b803561138f81611370565b919050565b5f8082840360608112156113a6575f80fd5b833592506040601f19820112156113bb575f80fd5b50604051604081018181106001600160401b03821117156113de576113de61132c565b60405260208401356113ef81611370565b815260408401356113ff81611370565b6020820152919491935090915050565b5f6001600160401b038211156114275761142761132c565b5060051b60200190565b5f82601f830112611440575f80fd5b813560206114556114508361140f565b611340565b82815260059290921b84018101918181019086841115611473575f80fd5b8286015b8481101561149757803561148a81611370565b8352918301918301611477565b509695505050505050565b5f805f805f608086880312156114b6575f80fd5b85356001600160401b03808211156114cc575f80fd5b818801915088601f8301126114df575f80fd5b813560206114ef6114508361140f565b82815260059290921b8401810191818101908c84111561150d575f80fd5b948201945b8386101561152b57853582529482019490820190611512565b99505089013592505080821115611540575f80fd5b61154c89838a01611431565b9550604088013594506060880135915080821115611568575f80fd5b50611575888289016110de565b969995985093965092949392505050565b5f60208284031215611596575f80fd5b81356115a181611370565b9392505050565b5f808335601e198436030181126115bd575f80fd5b83016020810192503590506001600160401b038111156115db575f80fd5b8060051b360382131561111b575f80fd5b5f808335601e19843603018112611601575f80fd5b83016020810192503590506001600160401b0381111561161f575f80fd5b80360382131561111b575f80fd5b81835281816020850137505f828201602090810191909152601f909101601f19169091010190565b8183525f60208085019450825f5b8581101561126257813561167681611370565b6001600160a01b031687529582019590820190600101611663565b60208152813560208201525f6116aa60208401846115a8565b60c0604085015260e084018190526101006001600160fb1b038211156116ce575f80fd5b8160051b915081838287013781850192506116ec60408701876115ec565b925060e0868503016060870152611706828501848361162d565b935050505061171760608501611384565b6001600160a01b03811660808501525061173460808501856115a8565b848303601f190160a086015261174b838284611655565b9250505060a084013560c08401528091505092915050565b858152846020820152608060408201525f61178260808301858761162d565b905060018060a01b03831660608301529695505050505050565b5f808335601e198436030181126117b1575f80fd5b8301803591506001600160401b038211156117ca575f80fd5b6020019150600581901b360382131561111b575f80fd5b634e487b7160e01b5f52601160045260245ffd5b5f808335601e1984360301811261180a575f80fd5b8301803591506001600160401b03821115611823575f80fd5b60200191503681900382131561111b575f80fd5b600181811c9082168061184b57607f821691505b60208210810361186957634e487b7160e01b5f52602260045260245ffd5b50919050565b5b81811015611883575f8155600101611870565b5050565b601f8211156118c157805f5260205f20601f840160051c810160208510156118ac5750805b6118be601f850160051c83018261186f565b50505b505050565b6001600160401b038311156118dd576118dd61132c565b6118f1836118eb8354611837565b83611887565b5f601f841160018114611922575f851561190b5750838201355b5f19600387901b1c1916600186901b1783556118be565b5f83815260209020601f19861690835b828110156119525786850135825560209485019460019092019101611932565b508682101561196e575f1960f88860031b161c19848701351681555b505060018560011b0183555050505050565b5f8135610cc281611370565b6001600160401b038311156119a3576119a361132c565b600160401b8311156119b7576119b761132c565b8054838255808410156119db57815f5260205f206119d982820186830161186f565b505b5081815f526020805f205f5b8681101561053d5783356119fa81611370565b82820155928201926001016119e7565b8135815560018082016020611a218186018661179c565b6001600160401b03811115611a3857611a3861132c565b600160401b811115611a4c57611a4c61132c565b835481855580821015611a7f575f8581528481208381019083015b80821015611a7b5782825590880190611a67565b5050505b505f93845260208420935b81811015611aa357823585820155918301918501611a8a565b505050505050611ab660408301836117f5565b611ac48183600286016118c6565b5050611af9611ad560608401611980565b6003830180546001600160a01b0319166001600160a01b0392909216919091179055565b611b06608083018361179c565b611b1481836004860161198c565b505060a082013560058201555050565b8581526001600160a01b03851660208201526080604082018190525f90611b4e908301858761162d565b90508260608301529695505050505050565b5f8251611b718184602087016111aa565b9190910192915050565b602081525f611b8e60208301848661162d565b949350505050565b81810381811115610cc257610cc26117e1565b81516001600160401b03811115611bc257611bc261132c565b611bd681611bd08454611837565b84611887565b602080601f831160018114611c09575f8415611bf25750858301515b5f19600386901b1c1916600185901b17855561092c565b5f85815260208120601f198616915b82811015611c3757888601518255948401946001909101908401611c18565b5085821015611c5457878501515f19600388901b60f8161c191681555b5050505050600190811b01905550565b60a080825287519082018190525f9060209060c0840190828b01845b82811015611c9c57815184529284019290840190600101611c80565b50505083810382850152611cb181898b61162d565b848103604086015287518082528389019250908301905f5b81811015611cee5783516001600160a01b031683529284019291840191600101611cc9565b5050606085019690965250505060800152949350505050565b8181035f831280158383131683831282161715611d2657611d266117e1565b5092915050565b5f82611d4757634e487b7160e01b5f52601260045260245ffd5b600160ff1b82145f1984141615611d6057611d606117e1565b500590565b8082018281125f831280158216821582161715611d8457611d846117e1565b505092915050565b634e487b7160e01b5f52603260045260245ffd5b5f6001600160ff1b018201611db757611db76117e1565b5060010190565b5f600160ff1b8201611dd257611dd26117e1565b505f19019056fea26469706673582212206b8259a0335f2df6cc1514a5052509bdadf6075e756d473d9c525e2ecbdfeaf064736f6c63430008150033",
    "linkReferences": {}
  },
  "methodIdentifiers": {
    "addOrUpdateWrapper(bytes32,(address,address))": "a84315d2",
    "getSendMessage(bytes32)": "42fd2d67",
    "getVerifiedMessage(bytes32)": "7d8a0ea5",
    "initialize(bytes32)": "9498bd71",
    "messages(bytes32)": "2bbd59ca",
    "nexusAppID()": "79980597",
    "owner()": "8da5cb5b",
    "receiveMessage(uint256,(bytes32,bytes32[],bytes,address,address[],uint256),bytes)": "151086c3",
    "renounceOwnership()": "715018a6",
    "sendMessage(bytes32[],address[],uint256,bytes)": "cb8d653c",
    "transferOwnership(address)": "f2fde38b",
    "verifiedMessages(bytes32)": "3cf7f1d4",
    "verifierWrappers(bytes32)": "5e92c0e0"
  },
  "id": 23
}