{"abi":[{"type":"function","name":"addOrUpdateWrapper","inputs":[{"name":"wrapperChainId","type":"bytes32","internalType":"bytes32"},{"name":"wrapper","type":"address","internalType":"contract INexusVerifierWrapper"}],"outputs":[],"stateMutability":"nonpayable"},{"type":"function","name":"initialize","inputs":[{"name":"_nexusAppID","type":"bytes32","internalType":"bytes32"}],"outputs":[],"stateMutability":"nonpayable"},{"type":"function","name":"messages","inputs":[{"name":"","type":"bytes32","internalType":"bytes32"}],"outputs":[{"name":"","type":"bool","internalType":"bool"}],"stateMutability":"view"},{"type":"function","name":"nexusAppID","inputs":[],"outputs":[{"name":"","type":"bytes32","internalType":"bytes32"}],"stateMutability":"view"},{"type":"function","name":"owner","inputs":[],"outputs":[{"name":"","type":"address","internalType":"address"}],"stateMutability":"view"},{"type":"function","name":"receiveMessage","inputs":[{"name":"chainblockNumber","type":"uint256","internalType":"uint256"},{"name":"receipt","type":"tuple","internalType":"struct MailboxMessage","components":[{"name":"nexusAppIDFrom","type":"bytes32","internalType":"bytes32"},{"name":"nexusAppIDTo","type":"bytes32[]","internalType":"bytes32[]"},{"name":"data","type":"bytes","internalType":"bytes"},{"name":"from","type":"address","internalType":"address"},{"name":"to","type":"address[]","internalType":"address[]"},{"name":"nonce","type":"uint256","internalType":"uint256"}]},{"name":"proof","type":"bytes","internalType":"bytes"}],"outputs":[],"stateMutability":"nonpayable"},{"type":"function","name":"renounceOwnership","inputs":[],"outputs":[],"stateMutability":"nonpayable"},{"type":"function","name":"sendMessage","inputs":[{"name":"nexusAppIDTo","type":"bytes32[]","internalType":"bytes32[]"},{"name":"to","type":"address[]","internalType":"address[]"},{"name":"nonce","type":"uint256","internalType":"uint256"},{"name":"data","type":"bytes","internalType":"bytes"}],"outputs":[],"stateMutability":"nonpayable"},{"type":"function","name":"transferOwnership","inputs":[{"name":"newOwner","type":"address","internalType":"address"}],"outputs":[],"stateMutability":"nonpayable"},{"type":"function","name":"verifiedReceipts","inputs":[{"name":"","type":"bytes32","internalType":"bytes32"}],"outputs":[{"name":"nexusAppIDFrom","type":"bytes32","internalType":"bytes32"},{"name":"data","type":"bytes","internalType":"bytes"},{"name":"from","type":"address","internalType":"address"},{"name":"nonce","type":"uint256","internalType":"uint256"}],"stateMutability":"view"},{"type":"function","name":"verifierWrappers","inputs":[{"name":"","type":"bytes32","internalType":"bytes32"}],"outputs":[{"name":"","type":"address","internalType":"contract INexusVerifierWrapper"}],"stateMutability":"view"},{"type":"event","name":"CallbackFailed","inputs":[{"name":"to","type":"address","indexed":true,"internalType":"address"},{"name":"data","type":"bytes","indexed":false,"internalType":"bytes"}],"anonymous":false},{"type":"event","name":"Initialized","inputs":[{"name":"version","type":"uint64","indexed":false,"internalType":"uint64"}],"anonymous":false},{"type":"event","name":"MailboxEvent","inputs":[{"name":"nexusAppIDFrom","type":"bytes32","indexed":true,"internalType":"bytes32"},{"name":"nexusAppIDTo","type":"bytes32[]","indexed":false,"internalType":"bytes32[]"},{"name":"data","type":"bytes","indexed":false,"internalType":"bytes"},{"name":"from","type":"address","indexed":true,"internalType":"address"},{"name":"to","type":"address[]","indexed":false,"internalType":"address[]"},{"name":"nonce","type":"uint256","indexed":false,"internalType":"uint256"}],"anonymous":false},{"type":"event","name":"OwnershipTransferred","inputs":[{"name":"previousOwner","type":"address","indexed":true,"internalType":"address"},{"name":"newOwner","type":"address","indexed":true,"internalType":"address"}],"anonymous":false},{"type":"error","name":"InvalidInitialization","inputs":[]},{"type":"error","name":"InvalidParameters","inputs":[]},{"type":"error","name":"NotInitializing","inputs":[]},{"type":"error","name":"OwnableInvalidOwner","inputs":[{"name":"owner","type":"address","internalType":"address"}]},{"type":"error","name":"OwnableUnauthorizedAccount","inputs":[{"name":"account","type":"address","internalType":"address"}]},{"type":"error","name":"StateAlreadyUpdated","inputs":[]},{"type":"error","name":"WrapperNotAvailable","inputs":[]}],"bytecode":{"object":"0x6080604052348015600e575f80fd5b5061183a8061001c5f395ff3fe608060405234801561000f575f80fd5b50600436106100a6575f3560e01c8063799805971161006e57806379980597146101615780638da5cb5b146101785780638f97acba146101a85780639498bd71146101bb578063cb8d653c146101ce578063f2fde38b146101e1575f80fd5b8063151086c3146100aa5780632bbd59ca146100bf5780635e92c0e0146100f65780636a55926b14610136578063715018a614610159575b5f80fd5b6100bd6100b8366004610cde565b6101f4565b005b6100e16100cd366004610d4f565b5f6020819052908152604090205460ff1681565b60405190151581526020015b60405180910390f35b61011e610104366004610d4f565b60016020525f90815260409020546001600160a01b031681565b6040516001600160a01b0390911681526020016100ed565b610149610144366004610d4f565b6104ab565b6040516100ed9493929190610d94565b6100bd610562565b61016a60035481565b6040519081526020016100ed565b7f9016d09d72d40fdae2fd8ceac6b6234c7706214fd39c1cd1e609a0528c199300546001600160a01b031661011e565b6100bd6101b6366004610ddc565b610575565b6100bd6101c9366004610d4f565b6105aa565b6100bd6101dc366004610ef5565b6106bb565b6100bd6101ef366004610fd9565b61084e565b82355f908152600160205260409020546001600160a01b03168061022b576040516354b30cf360e11b815260040160405180910390fd5b5f8460405160200161023d91906110ef565b60408051601f1981840301815291815281516020928301205f8181526002909352912054909150156102825760405163165f4e1360e31b815260040160405180910390fd5b6040516290dbd960e81b81526001600160a01b038316906390dbd900906102b39089908590899089906004016111c1565b5f604051808303815f87803b1580156102ca575f80fd5b505af11580156102dc573d5f803e3d5ffd5b5050505f8281526002602052604090208691506102f98282611457565b505f905061038161030d60208801886111ea565b808060200260200160405190810160405280939291908181526020018383602002808284375f9201919091525061034b9250505060808901896111ea565b808060200260200160405190810160405280939291908181526020018383602002808284375f9201919091525061088b92505050565b90506001600160a01b038116156104a2575f6001600160a01b03821687356103af60808a0160608b01610fd9565b6103bc60408b018b611243565b8b60a001356040516024016103d5959493929190611572565b60408051601f198184030181529181526020820180516001600160e01b0316631b908d5760e01b1790525161040a91906115ae565b5f604051808303815f865af19150503d805f8114610443576040519150601f19603f3d011682016040523d82523d5f602084013e610448565b606091505b50509050806104a0576001600160a01b0382167f4897072d9871071be999d77763d358428c4fcb1b89c417f416e0854944db8a5b61048960408a018a611243565b6040516104979291906115c4565b60405180910390a25b505b50505050505050565b600260208190525f9182526040909120805491810180546104cb90611285565b80601f01602080910402602001604051908101604052809291908181526020018280546104f790611285565b80156105425780601f1061051957610100808354040283529160200191610542565b820191905f5260205f20905b81548152906001019060200180831161052557829003601f168201915b50505050600383015460059093015491926001600160a01b031691905084565b61056a610973565b6105735f6109ce565b565b61057d610973565b5f9182526001602052604090912080546001600160a01b0319166001600160a01b03909216919091179055565b7ff0c57e16840df040f15088dc2f81fe391c3923bec73e23a9662efc9c229c6a008054600160401b810460ff1615906001600160401b03165f811580156105ee5750825b90505f826001600160401b031660011480156106095750303b155b905081158015610617575080155b156106355760405163f92ee8a960e01b815260040160405180910390fd5b845467ffffffffffffffff19166001178555831561065f57845460ff60401b1916600160401b1785555b600386905561066d33610a3e565b83156106b357845460ff60401b19168555604051600181527fc7f505b2f371ae2175ee4913f4499e1f2633a7b5936321eed1cdaeb6115181d29060200160405180910390a15b505050505050565b83518551146106dd57604051630e52390960e41b815260040160405180910390fd5b6106f685855f600189516106f191906115df565b610a4f565b5f6040518060c00160405280600354815260200187815260200184848080601f0160208091040260200160405190810160405280939291908181526020018383808284375f92018290525093855250503360208085019190915260408085018b90526060909401899052925193945090926107749285925001611659565b60408051601f1981840301815291815281516020928301205f8181529283905291205490915060ff16156107e65760405162461bcd60e51b815260206004820152601460248201527313595cdcd859d948185b1c9958591e481cd95b9d60621b60448201526064015b60405180910390fd5b5f8181526020819052604090819020805460ff1916600117905560035490513391907ff1b3058c48e9d16d14aee262e1eba9bbe849f66827471b3c19ea0625b06a4df49061083d908b90899089908d908d906116e6565b60405180910390a350505050505050565b610856610973565b6001600160a01b03811661087f57604051631e4fbdf760e01b81525f60048201526024016107dd565b610888816109ce565b50565b5f82515f0361089b57505f61096d565b5f80600185516108ab91906115df565b90505b808213610967575f60026108c28484611732565b6108cc9190611758565b6108d69084611790565b90506003548682815181106108ed576108ed6117b7565b60200260200101510361091e5784818151811061090c5761090c6117b7565b6020026020010151935050505061096d565b600354868281518110610933576109336117b7565b602002602001015110156109535761094c816001611790565b9250610961565b61095e600182611732565b91505b506108ae565b5f925050505b92915050565b336109a57f9016d09d72d40fdae2fd8ceac6b6234c7706214fd39c1cd1e609a0528c199300546001600160a01b031690565b6001600160a01b0316146105735760405163118cdaa760e01b81523360048201526024016107dd565b7f9016d09d72d40fdae2fd8ceac6b6234c7706214fd39c1cd1e609a0528c19930080546001600160a01b031981166001600160a01b03848116918217845560405192169182907f8be0079c531659141344cd1fd0a4f28419497f9722a3daafe3b4186f6b6457e0905f90a3505050565b610a46610c49565b61088881610c92565b8181808203610a5f575050610c43565b5f866002610a6d8787611732565b610a779190611758565b610a819087611790565b81518110610a9157610a916117b7565b602002602001015190505b818313610c1b575b80878481518110610ab757610ab76117b7565b60200260200101511015610ad75782610acf816117cb565b935050610aa4565b868281518110610ae957610ae96117b7565b6020026020010151811015610b0a5781610b02816117e9565b925050610ad7565b818313610c1657868281518110610b2357610b236117b7565b6020026020010151878481518110610b3d57610b3d6117b7565b6020026020010151888581518110610b5757610b576117b7565b60200260200101898581518110610b7057610b706117b7565b6020026020010182815250828152505050858281518110610b9357610b936117b7565b6020026020010151868481518110610bad57610bad6117b7565b6020026020010151878581518110610bc757610bc76117b7565b60200260200101888581518110610be057610be06117b7565b6001600160a01b0393841660209182029290920101529116905282610c04816117cb565b9350508180610c12906117e9565b9250505b610a9c565b81851215610c2f57610c2f87878785610a4f565b838312156104a2576104a287878587610a4f565b50505050565b7ff0c57e16840df040f15088dc2f81fe391c3923bec73e23a9662efc9c229c6a0054600160401b900460ff1661057357604051631afcd79f60e31b815260040160405180910390fd5b610856610c49565b5f8083601f840112610caa575f80fd5b5081356001600160401b03811115610cc0575f80fd5b602083019150836020828501011115610cd7575f80fd5b9250929050565b5f805f8060608587031215610cf1575f80fd5b8435935060208501356001600160401b0380821115610d0e575f80fd5b9086019060c08289031215610d21575f80fd5b90935060408601359080821115610d36575f80fd5b50610d4387828801610c9a565b95989497509550505050565b5f60208284031215610d5f575f80fd5b5035919050565b5f81518084528060208401602086015e5f602082860101526020601f19601f83011685010191505092915050565b848152608060208201525f610dac6080830186610d66565b6001600160a01b03949094166040830152506060015292915050565b6001600160a01b0381168114610888575f80fd5b5f8060408385031215610ded575f80fd5b823591506020830135610dff81610dc8565b809150509250929050565b634e487b7160e01b5f52604160045260245ffd5b604051601f8201601f191681016001600160401b0381118282101715610e4657610e46610e0a565b604052919050565b5f6001600160401b03821115610e6657610e66610e0a565b5060051b60200190565b8035610e7b81610dc8565b919050565b5f82601f830112610e8f575f80fd5b81356020610ea4610e9f83610e4e565b610e1e565b8083825260208201915060208460051b870101935086841115610ec5575f80fd5b602086015b84811015610eea578035610edd81610dc8565b8352918301918301610eca565b509695505050505050565b5f805f805f60808688031215610f09575f80fd5b85356001600160401b0380821115610f1f575f80fd5b818801915088601f830112610f32575f80fd5b81356020610f42610e9f83610e4e565b82815260059290921b8401810191818101908c841115610f60575f80fd5b948201945b83861015610f7e57853582529482019490820190610f65565b99505089013592505080821115610f93575f80fd5b610f9f89838a01610e80565b9550604088013594506060880135915080821115610fbb575f80fd5b50610fc888828901610c9a565b969995985093965092949392505050565b5f60208284031215610fe9575f80fd5b8135610ff481610dc8565b9392505050565b5f808335601e19843603018112611010575f80fd5b83016020810192503590506001600160401b0381111561102e575f80fd5b8060051b3603821315610cd7575f80fd5b5f808335601e19843603018112611054575f80fd5b83016020810192503590506001600160401b03811115611072575f80fd5b803603821315610cd7575f80fd5b81835281816020850137505f828201602090810191909152601f909101601f19169091010190565b8183525f60208085019450825f5b858110156110e45781356110c981610dc8565b6001600160a01b0316875295820195908201906001016110b6565b509495945050505050565b60208152813560208201525f6111086020840184610ffb565b60c0604085015260e084018190526101006001600160fb1b0382111561112c575f80fd5b8160051b9150818382870137818501925061114a604087018761103f565b925060e08685030160608701526111648285018483611080565b935050505061117560608501610e70565b6001600160a01b0381166080850152506111926080850185610ffb565b848303601f190160a08601526111a98382846110a8565b9250505060a084013560c08401528091505092915050565b848152836020820152606060408201525f6111e0606083018486611080565b9695505050505050565b5f808335601e198436030181126111ff575f80fd5b8301803591506001600160401b03821115611218575f80fd5b6020019150600581901b3603821315610cd7575f80fd5b634e487b7160e01b5f52601160045260245ffd5b5f808335601e19843603018112611258575f80fd5b8301803591506001600160401b03821115611271575f80fd5b602001915036819003821315610cd7575f80fd5b600181811c9082168061129957607f821691505b6020821081036112b757634e487b7160e01b5f52602260045260245ffd5b50919050565b5b818110156112d1575f81556001016112be565b5050565b601f82111561130f57805f5260205f20601f840160051c810160208510156112fa5750805b61130c601f850160051c8301826112bd565b50505b505050565b6001600160401b0383111561132b5761132b610e0a565b61133f836113398354611285565b836112d5565b5f601f841160018114611370575f85156113595750838201355b5f19600387901b1c1916600186901b17835561130c565b5f83815260208120601f198716915b8281101561139f578685013582556020948501946001909201910161137f565b50868210156113bb575f1960f88860031b161c19848701351681555b505060018560011b0183555050505050565b5f813561096d81610dc8565b6001600160401b038311156113f0576113f0610e0a565b600160401b83111561140457611404610e0a565b80548382558084101561142857815f5260205f206114268282018683016112bd565b505b5081815f526020805f205f5b868110156104a257833561144781610dc8565b8282015592820192600101611434565b813581556001808201602061146f60208601866111ea565b6001600160401b0381111561148657611486610e0a565b600160401b81111561149a5761149a610e0a565b8354818555808210156114cd575f858152602090208281019082015b808210156114ca575f8255908701906114b6565b50505b505f93845260208420935b818110156114f1578235858201559183019185016114d8565b5050505050506115046040830183611243565b611512818360028601611314565b5050611547611523606084016113cd565b6003830180546001600160a01b0319166001600160a01b0392909216919091179055565b61155460808301836111ea565b6115628183600486016113d9565b505060a082013560058201555050565b8581526001600160a01b03851660208201526080604082018190525f9061159c9083018587611080565b90508260608301529695505050505050565b5f82518060208501845e5f920191825250919050565b602081525f6115d7602083018486611080565b949350505050565b8181038181111561096d5761096d61122f565b5f815180845260208085019450602084015f5b838110156110e457815187529582019590820190600101611605565b5f815180845260208085019450602084015f5b838110156110e45781516001600160a01b031687529582019590820190600101611634565b60208152815160208201525f602083015160c0604084015261167e60e08401826115f2565b90506040840151601f198085840301606086015261169c8383610d66565b60608701516001600160a01b031660808781019190915287015186820390920160a0870152925090506116cf8282611621565b91505060a084015160c08401528091505092915050565b608081525f6116f860808301886115f2565b828103602084015261170b818789611080565b9050828103604084015261171f8186611621565b9150508260608301529695505050505050565b8181035f8312801583831316838312821617156117515761175161122f565b5092915050565b5f8261177257634e487b7160e01b5f52601260045260245ffd5b600160ff1b82145f198414161561178b5761178b61122f565b500590565b8082018281125f8312801582168215821617156117af576117af61122f565b505092915050565b634e487b7160e01b5f52603260045260245ffd5b5f6001600160ff1b0182016117e2576117e261122f565b5060010190565b5f600160ff1b82016117fd576117fd61122f565b505f19019056fea2646970667358221220801911c165dea5b0b3379d38e77cb1be0ca38a0c9696b4b7fea699d6fed7c51964736f6c63430008190033","linkReferences":{}},"methodIdentifiers":{"addOrUpdateWrapper(bytes32,address)":"8f97acba","initialize(bytes32)":"9498bd71","messages(bytes32)":"2bbd59ca","nexusAppID()":"79980597","owner()":"8da5cb5b","receiveMessage(uint256,(bytes32,bytes32[],bytes,address,address[],uint256),bytes)":"151086c3","renounceOwnership()":"715018a6","sendMessage(bytes32[],address[],uint256,bytes)":"cb8d653c","transferOwnership(address)":"f2fde38b","verifiedReceipts(bytes32)":"6a55926b","verifierWrappers(bytes32)":"5e92c0e0"},"id":41}