{"abi":[{"type":"function","name":"addOrUpdateWrapper","inputs":[{"name":"wrapperChainId","type":"bytes32","internalType":"bytes32"},{"name":"wrapper","type":"address","internalType":"contract INexusVerifierWrapper"}],"outputs":[],"stateMutability":"nonpayable"},{"type":"function","name":"initialize","inputs":[{"name":"_nexusAppId","type":"bytes32","internalType":"bytes32"}],"outputs":[],"stateMutability":"nonpayable"},{"type":"function","name":"messages","inputs":[{"name":"","type":"bytes32","internalType":"bytes32"}],"outputs":[{"name":"","type":"bytes32","internalType":"bytes32"}],"stateMutability":"view"},{"type":"function","name":"nexusAppId","inputs":[],"outputs":[{"name":"","type":"bytes32","internalType":"bytes32"}],"stateMutability":"view"},{"type":"function","name":"owner","inputs":[],"outputs":[{"name":"","type":"address","internalType":"address"}],"stateMutability":"view"},{"type":"function","name":"receiveMessage","inputs":[{"name":"chainblockNumber","type":"uint256","internalType":"uint256"},{"name":"receipt","type":"tuple","internalType":"struct MailboxMessage","components":[{"name":"nexusAppIdFrom","type":"bytes32","internalType":"bytes32"},{"name":"nexusAppIdTo","type":"bytes32[]","internalType":"bytes32[]"},{"name":"data","type":"bytes","internalType":"bytes"},{"name":"from","type":"address","internalType":"address"},{"name":"to","type":"address[]","internalType":"address[]"},{"name":"nonce","type":"uint256","internalType":"uint256"}]},{"name":"proof","type":"bytes","internalType":"bytes"}],"outputs":[],"stateMutability":"nonpayable"},{"type":"function","name":"renounceOwnership","inputs":[],"outputs":[],"stateMutability":"nonpayable"},{"type":"function","name":"sendMessage","inputs":[{"name":"nexusAppIdTo","type":"bytes32[]","internalType":"bytes32[]"},{"name":"to","type":"address[]","internalType":"address[]"},{"name":"nonce","type":"uint256","internalType":"uint256"},{"name":"data","type":"bytes","internalType":"bytes"}],"outputs":[],"stateMutability":"nonpayable"},{"type":"function","name":"transferOwnership","inputs":[{"name":"newOwner","type":"address","internalType":"address"}],"outputs":[],"stateMutability":"nonpayable"},{"type":"function","name":"verifiedReceipts","inputs":[{"name":"","type":"bytes32","internalType":"bytes32"}],"outputs":[{"name":"nexusAppIdFrom","type":"bytes32","internalType":"bytes32"},{"name":"data","type":"bytes","internalType":"bytes"},{"name":"from","type":"address","internalType":"address"},{"name":"nonce","type":"uint256","internalType":"uint256"}],"stateMutability":"view"},{"type":"function","name":"verifierWrappers","inputs":[{"name":"","type":"bytes32","internalType":"bytes32"}],"outputs":[{"name":"","type":"address","internalType":"contract INexusVerifierWrapper"}],"stateMutability":"view"},{"type":"event","name":"CallbackFailed","inputs":[{"name":"to","type":"address","indexed":true,"internalType":"address"},{"name":"data","type":"bytes","indexed":false,"internalType":"bytes"}],"anonymous":false},{"type":"event","name":"Initialized","inputs":[{"name":"version","type":"uint64","indexed":false,"internalType":"uint64"}],"anonymous":false},{"type":"event","name":"MailboxEvent","inputs":[{"name":"nexusAppIdFrom","type":"bytes32","indexed":true,"internalType":"bytes32"},{"name":"nexusAppIdTo","type":"bytes32[]","indexed":false,"internalType":"bytes32[]"},{"name":"data","type":"bytes","indexed":false,"internalType":"bytes"},{"name":"from","type":"address","indexed":true,"internalType":"address"},{"name":"to","type":"address[]","indexed":false,"internalType":"address[]"},{"name":"nonce","type":"uint256","indexed":false,"internalType":"uint256"}],"anonymous":false},{"type":"event","name":"OwnershipTransferred","inputs":[{"name":"previousOwner","type":"address","indexed":true,"internalType":"address"},{"name":"newOwner","type":"address","indexed":true,"internalType":"address"}],"anonymous":false},{"type":"error","name":"InvalidInitialization","inputs":[]},{"type":"error","name":"InvalidParameters","inputs":[]},{"type":"error","name":"NotInitializing","inputs":[]},{"type":"error","name":"OwnableInvalidOwner","inputs":[{"name":"owner","type":"address","internalType":"address"}]},{"type":"error","name":"OwnableUnauthorizedAccount","inputs":[{"name":"account","type":"address","internalType":"address"}]},{"type":"error","name":"StateAlreadyUpdated","inputs":[]},{"type":"error","name":"WrapperNotAvailable","inputs":[]}],"bytecode":{"object":"0x6080604052348015600e575f80fd5b506118088061001c5f395ff3fe608060405234801561000f575f80fd5b50600436106100a6575f3560e01c8063715018a61161006e578063715018a61461015d5780638da5cb5b146101655780638f97acba146101955780639498bd71146101a8578063cb8d653c146101bb578063f2fde38b146101ce575f80fd5b806313ee8e41146100aa578063151086c3146100c65780632bbd59ca146100db5780635e92c0e0146100fa5780636a55926b1461013a575b5f80fd5b6100b360035481565b6040519081526020015b60405180910390f35b6100d96100d4366004610cbe565b6101e1565b005b6100b36100e9366004610d2f565b5f6020819052908152604090205481565b610122610108366004610d2f565b60016020525f90815260409020546001600160a01b031681565b6040516001600160a01b0390911681526020016100bd565b61014d610148366004610d2f565b6104ba565b6040516100bd9493929190610d74565b6100d9610571565b7f9016d09d72d40fdae2fd8ceac6b6234c7706214fd39c1cd1e609a0528c199300546001600160a01b0316610122565b6100d96101a3366004610dbc565b610584565b6100d96101b6366004610d2f565b6105b9565b6100d96101c9366004610ed5565b6106ca565b6100d96101dc366004610fb9565b610825565b82355f908152600160205260409020546001600160a01b031680610218576040516354b30cf360e11b815260040160405180910390fd5b5f8460405160200161022a91906110cf565b60408051601f198184030181528282528051602091820120883582850152838301819052825180850384018152606090940183528351938201939093205f81815260029092529190205491925090156102965760405163165f4e1360e31b815260040160405180910390fd5b6040516290dbd960e81b81526001600160a01b038416906390dbd900906102c7908a9086908a908a906004016111a1565b5f604051808303815f87803b1580156102de575f80fd5b505af11580156102f0573d5f803e3d5ffd5b5050505f82815260026020526040902087915061030d8282611437565b505f905061039561032160208901896111ca565b808060200260200160405190810160405280939291908181526020018383602002808284375f9201919091525061035f9250505060808a018a6111ca565b808060200260200160405190810160405280939291908181526020018383602002808284375f9201919091525061086792505050565b90506001600160a01b038116156104b0575f6001600160a01b03821688356103c360808b0160608c01610fb9565b6103d060408c018c611223565b6040516024016103e39493929190611552565b60408051601f198184030181529181526020820180516001600160e01b03166328393aad60e11b17905251610418919061157c565b5f604051808303815f865af19150503d805f8114610451576040519150601f19603f3d011682016040523d82523d5f602084013e610456565b606091505b50509050806104ae576001600160a01b0382167f4897072d9871071be999d77763d358428c4fcb1b89c417f416e0854944db8a5b61049760408b018b611223565b6040516104a5929190611592565b60405180910390a25b505b5050505050505050565b600260208190525f9182526040909120805491810180546104da90611265565b80601f016020809104026020016040519081016040528092919081815260200182805461050690611265565b80156105515780601f1061052857610100808354040283529160200191610551565b820191905f5260205f20905b81548152906001019060200180831161053457829003601f168201915b50505050600383015460059093015491926001600160a01b031691905084565b61057961094f565b6105825f6109aa565b565b61058c61094f565b5f9182526001602052604090912080546001600160a01b0319166001600160a01b03909216919091179055565b7ff0c57e16840df040f15088dc2f81fe391c3923bec73e23a9662efc9c229c6a008054600160401b810460ff1615906001600160401b03165f811580156105fd5750825b90505f826001600160401b031660011480156106185750303b155b905081158015610626575080155b156106445760405163f92ee8a960e01b815260040160405180910390fd5b845467ffffffffffffffff19166001178555831561066e57845460ff60401b1916600160401b1785555b600386905561067c33610a1a565b83156106c257845460ff60401b19168555604051600181527fc7f505b2f371ae2175ee4913f4499e1f2633a7b5936321eed1cdaeb6115181d29060200160405180910390a15b505050505050565b83518551146106ec57604051630e52390960e41b815260040160405180910390fd5b61070585855f6001895161070091906115ad565b610a2b565b5f6040518060c00160405280600354815260200187815260200184848080601f0160208091040260200160405190810160405280939291908181526020018383808284375f92018290525093855250503360208085019190915260408085018b90526060909401899052925193945090926107839285925001611627565b60408051601f198184030181528282528051602091820120339184019190915290820181905291505f9060600160408051601f1981840301815282825280516020918201205f8181529182905291902084905560035490925033917ff1b3058c48e9d16d14aee262e1eba9bbe849f66827471b3c19ea0625b06a4df490610813908c908a908a908e908e906116b4565b60405180910390a35050505050505050565b61082d61094f565b6001600160a01b03811661085b57604051631e4fbdf760e01b81525f60048201526024015b60405180910390fd5b610864816109aa565b50565b5f82515f0361087757505f610949565b5f806001855161088791906115ad565b90505b808213610943575f600261089e8484611700565b6108a89190611726565b6108b2908461175e565b90506003548682815181106108c9576108c9611785565b6020026020010151036108fa578481815181106108e8576108e8611785565b60200260200101519350505050610949565b60035486828151811061090f5761090f611785565b6020026020010151101561092f5761092881600161175e565b925061093d565b61093a600182611700565b91505b5061088a565b5f925050505b92915050565b336109817f9016d09d72d40fdae2fd8ceac6b6234c7706214fd39c1cd1e609a0528c199300546001600160a01b031690565b6001600160a01b0316146105825760405163118cdaa760e01b8152336004820152602401610852565b7f9016d09d72d40fdae2fd8ceac6b6234c7706214fd39c1cd1e609a0528c19930080546001600160a01b031981166001600160a01b03848116918217845560405192169182907f8be0079c531659141344cd1fd0a4f28419497f9722a3daafe3b4186f6b6457e0905f90a3505050565b610a22610c29565b61086481610c72565b8181808203610a3b575050610c23565b5f866002610a498787611700565b610a539190611726565b610a5d908761175e565b81518110610a6d57610a6d611785565b602002602001015190505b818313610bf7575b80878481518110610a9357610a93611785565b60200260200101511015610ab35782610aab81611799565b935050610a80565b868281518110610ac557610ac5611785565b6020026020010151811015610ae65781610ade816117b7565b925050610ab3565b818313610bf257868281518110610aff57610aff611785565b6020026020010151878481518110610b1957610b19611785565b6020026020010151888581518110610b3357610b33611785565b60200260200101898581518110610b4c57610b4c611785565b6020026020010182815250828152505050858281518110610b6f57610b6f611785565b6020026020010151868481518110610b8957610b89611785565b6020026020010151878581518110610ba357610ba3611785565b60200260200101888581518110610bbc57610bbc611785565b6001600160a01b0393841660209182029290920101529116905282610be081611799565b9350508180610bee906117b7565b9250505b610a78565b81851215610c0b57610c0b87878785610a2b565b83831215610c1f57610c1f87878587610a2b565b5050505b50505050565b7ff0c57e16840df040f15088dc2f81fe391c3923bec73e23a9662efc9c229c6a0054600160401b900460ff1661058257604051631afcd79f60e31b815260040160405180910390fd5b61082d610c29565b5f8083601f840112610c8a575f80fd5b5081356001600160401b03811115610ca0575f80fd5b602083019150836020828501011115610cb7575f80fd5b9250929050565b5f805f8060608587031215610cd1575f80fd5b8435935060208501356001600160401b0380821115610cee575f80fd5b9086019060c08289031215610d01575f80fd5b90935060408601359080821115610d16575f80fd5b50610d2387828801610c7a565b95989497509550505050565b5f60208284031215610d3f575f80fd5b5035919050565b5f81518084528060208401602086015e5f602082860101526020601f19601f83011685010191505092915050565b848152608060208201525f610d8c6080830186610d46565b6001600160a01b03949094166040830152506060015292915050565b6001600160a01b0381168114610864575f80fd5b5f8060408385031215610dcd575f80fd5b823591506020830135610ddf81610da8565b809150509250929050565b634e487b7160e01b5f52604160045260245ffd5b604051601f8201601f191681016001600160401b0381118282101715610e2657610e26610dea565b604052919050565b5f6001600160401b03821115610e4657610e46610dea565b5060051b60200190565b8035610e5b81610da8565b919050565b5f82601f830112610e6f575f80fd5b81356020610e84610e7f83610e2e565b610dfe565b8083825260208201915060208460051b870101935086841115610ea5575f80fd5b602086015b84811015610eca578035610ebd81610da8565b8352918301918301610eaa565b509695505050505050565b5f805f805f60808688031215610ee9575f80fd5b85356001600160401b0380821115610eff575f80fd5b818801915088601f830112610f12575f80fd5b81356020610f22610e7f83610e2e565b82815260059290921b8401810191818101908c841115610f40575f80fd5b948201945b83861015610f5e57853582529482019490820190610f45565b99505089013592505080821115610f73575f80fd5b610f7f89838a01610e60565b9550604088013594506060880135915080821115610f9b575f80fd5b50610fa888828901610c7a565b969995985093965092949392505050565b5f60208284031215610fc9575f80fd5b8135610fd481610da8565b9392505050565b5f808335601e19843603018112610ff0575f80fd5b83016020810192503590506001600160401b0381111561100e575f80fd5b8060051b3603821315610cb7575f80fd5b5f808335601e19843603018112611034575f80fd5b83016020810192503590506001600160401b03811115611052575f80fd5b803603821315610cb7575f80fd5b81835281816020850137505f828201602090810191909152601f909101601f19169091010190565b8183525f60208085019450825f5b858110156110c45781356110a981610da8565b6001600160a01b031687529582019590820190600101611096565b509495945050505050565b60208152813560208201525f6110e86020840184610fdb565b60c0604085015260e084018190526101006001600160fb1b0382111561110c575f80fd5b8160051b9150818382870137818501925061112a604087018761101f565b925060e08685030160608701526111448285018483611060565b935050505061115560608501610e50565b6001600160a01b0381166080850152506111726080850185610fdb565b848303601f190160a0860152611189838284611088565b9250505060a084013560c08401528091505092915050565b848152836020820152606060408201525f6111c0606083018486611060565b9695505050505050565b5f808335601e198436030181126111df575f80fd5b8301803591506001600160401b038211156111f8575f80fd5b6020019150600581901b3603821315610cb7575f80fd5b634e487b7160e01b5f52601160045260245ffd5b5f808335601e19843603018112611238575f80fd5b8301803591506001600160401b03821115611251575f80fd5b602001915036819003821315610cb7575f80fd5b600181811c9082168061127957607f821691505b60208210810361129757634e487b7160e01b5f52602260045260245ffd5b50919050565b5b818110156112b1575f815560010161129e565b5050565b601f8211156112ef57805f5260205f20601f840160051c810160208510156112da5750805b6112ec601f850160051c83018261129d565b50505b505050565b6001600160401b0383111561130b5761130b610dea565b61131f836113198354611265565b836112b5565b5f601f841160018114611350575f85156113395750838201355b5f19600387901b1c1916600186901b1783556112ec565b5f83815260208120601f198716915b8281101561137f578685013582556020948501946001909201910161135f565b508682101561139b575f1960f88860031b161c19848701351681555b505060018560011b0183555050505050565b5f813561094981610da8565b6001600160401b038311156113d0576113d0610dea565b600160401b8311156113e4576113e4610dea565b80548382558084101561140857815f5260205f2061140682820186830161129d565b505b5081815f526020805f205f5b86811015610c1f57833561142781610da8565b8282015592820192600101611414565b813581556001808201602061144f60208601866111ca565b6001600160401b0381111561146657611466610dea565b600160401b81111561147a5761147a610dea565b8354818555808210156114ad575f858152602090208281019082015b808210156114aa575f825590870190611496565b50505b505f93845260208420935b818110156114d1578235858201559183019185016114b8565b5050505050506114e46040830183611223565b6114f28183600286016112f4565b5050611527611503606084016113ad565b6003830180546001600160a01b0319166001600160a01b0392909216919091179055565b61153460808301836111ca565b6115428183600486016113b9565b505060a082013560058201555050565b8481526001600160a01b03841660208201526060604082018190525f906111c09083018486611060565b5f82518060208501845e5f920191825250919050565b602081525f6115a5602083018486611060565b949350505050565b818103818111156109495761094961120f565b5f815180845260208085019450602084015f5b838110156110c4578151875295820195908201906001016115d3565b5f815180845260208085019450602084015f5b838110156110c45781516001600160a01b031687529582019590820190600101611602565b60208152815160208201525f602083015160c0604084015261164c60e08401826115c0565b90506040840151601f198085840301606086015261166a8383610d46565b60608701516001600160a01b031660808781019190915287015186820390920160a08701529250905061169d82826115ef565b91505060a084015160c08401528091505092915050565b608081525f6116c660808301886115c0565b82810360208401526116d9818789611060565b905082810360408401526116ed81866115ef565b9150508260608301529695505050505050565b8181035f83128015838313168383128216171561171f5761171f61120f565b5092915050565b5f8261174057634e487b7160e01b5f52601260045260245ffd5b600160ff1b82145f19841416156117595761175961120f565b500590565b8082018281125f83128015821682158216171561177d5761177d61120f565b505092915050565b634e487b7160e01b5f52603260045260245ffd5b5f6001600160ff1b0182016117b0576117b061120f565b5060010190565b5f600160ff1b82016117cb576117cb61120f565b505f19019056fea26469706673582212200f8177f8bbe0d32525e61686cfa60f5c6f12b6b5ccee8ac0bcf2e95d5f6af70564736f6c63430008190033","linkReferences":{}},"methodIdentifiers":{"addOrUpdateWrapper(bytes32,address)":"8f97acba","initialize(bytes32)":"9498bd71","messages(bytes32)":"2bbd59ca","nexusAppId()":"13ee8e41","owner()":"8da5cb5b","receiveMessage(uint256,(bytes32,bytes32[],bytes,address,address[],uint256),bytes)":"151086c3","renounceOwnership()":"715018a6","sendMessage(bytes32[],address[],uint256,bytes)":"cb8d653c","transferOwnership(address)":"f2fde38b","verifiedReceipts(bytes32)":"6a55926b","verifierWrappers(bytes32)":"5e92c0e0"},"id":41}