{"abi":[{"type":"function","name":"DEFAULT_ADMIN_ROLE","inputs":[],"outputs":[{"name":"","type":"bytes32","internalType":"bytes32"}],"stateMutability":"view"},{"type":"function","name":"acceptDefaultAdminTransfer","inputs":[],"outputs":[],"stateMutability":"nonpayable"},{"type":"function","name":"avail","inputs":[],"outputs":[{"name":"","type":"address","internalType":"contract IAvail"}],"stateMutability":"view"},{"type":"function","name":"beginDefaultAdminTransfer","inputs":[{"name":"newAdmin","type":"address","internalType":"address"}],"outputs":[],"stateMutability":"nonpayable"},{"type":"function","name":"cancelDefaultAdminTransfer","inputs":[],"outputs":[],"stateMutability":"nonpayable"},{"type":"function","name":"chainId","inputs":[],"outputs":[{"name":"","type":"bytes32","internalType":"bytes32"}],"stateMutability":"view"},{"type":"function","name":"changeDefaultAdminDelay","inputs":[{"name":"newDelay","type":"uint48","internalType":"uint48"}],"outputs":[],"stateMutability":"nonpayable"},{"type":"function","name":"defaultAdmin","inputs":[],"outputs":[{"name":"","type":"address","internalType":"address"}],"stateMutability":"view"},{"type":"function","name":"defaultAdminDelay","inputs":[],"outputs":[{"name":"","type":"uint48","internalType":"uint48"}],"stateMutability":"view"},{"type":"function","name":"defaultAdminDelayIncreaseWait","inputs":[],"outputs":[{"name":"","type":"uint48","internalType":"uint48"}],"stateMutability":"view"},{"type":"function","name":"feePerByte","inputs":[],"outputs":[{"name":"","type":"uint256","internalType":"uint256"}],"stateMutability":"view"},{"type":"function","name":"feeRecipient","inputs":[],"outputs":[{"name":"","type":"address","internalType":"address"}],"stateMutability":"view"},{"type":"function","name":"fees","inputs":[],"outputs":[{"name":"","type":"uint256","internalType":"uint256"}],"stateMutability":"view"},{"type":"function","name":"getFee","inputs":[{"name":"length","type":"uint256","internalType":"uint256"}],"outputs":[{"name":"","type":"uint256","internalType":"uint256"}],"stateMutability":"view"},{"type":"function","name":"getRoleAdmin","inputs":[{"name":"role","type":"bytes32","internalType":"bytes32"}],"outputs":[{"name":"","type":"bytes32","internalType":"bytes32"}],"stateMutability":"view"},{"type":"function","name":"grantRole","inputs":[{"name":"role","type":"bytes32","internalType":"bytes32"},{"name":"account","type":"address","internalType":"address"}],"outputs":[],"stateMutability":"nonpayable"},{"type":"function","name":"hasRole","inputs":[{"name":"role","type":"bytes32","internalType":"bytes32"},{"name":"account","type":"address","internalType":"address"}],"outputs":[{"name":"","type":"bool","internalType":"bool"}],"stateMutability":"view"},{"type":"function","name":"initialize","inputs":[{"name":"newFeePerByte","type":"uint256","internalType":"uint256"},{"name":"newFeeRecipient","type":"address","internalType":"address"},{"name":"newAvail","type":"address","internalType":"contract IAvail"},{"name":"governance","type":"address","internalType":"address"},{"name":"pauser","type":"address","internalType":"address"},{"name":"nexusStateManager","type":"address","internalType":"contract INexusProofManager"},{"name":"currentChainId","type":"bytes32","internalType":"bytes32"},{"name":"_verifier","type":"address","internalType":"contract EthereumVerifier"}],"outputs":[],"stateMutability":"nonpayable"},{"type":"function","name":"isBridged","inputs":[{"name":"","type":"bytes32","internalType":"bytes32"}],"outputs":[{"name":"","type":"bool","internalType":"bool"}],"stateMutability":"view"},{"type":"function","name":"isSent","inputs":[{"name":"","type":"uint256","internalType":"uint256"}],"outputs":[{"name":"","type":"bytes32","internalType":"bytes32"}],"stateMutability":"view"},{"type":"function","name":"messageId","inputs":[],"outputs":[{"name":"","type":"uint256","internalType":"uint256"}],"stateMutability":"view"},{"type":"function","name":"nexus","inputs":[],"outputs":[{"name":"","type":"address","internalType":"contract INexusProofManager"}],"stateMutability":"view"},{"type":"function","name":"nexusTokens","inputs":[{"name":"","type":"bytes32","internalType":"bytes32"}],"outputs":[{"name":"","type":"address","internalType":"address"}],"stateMutability":"view"},{"type":"function","name":"owner","inputs":[],"outputs":[{"name":"","type":"address","internalType":"address"}],"stateMutability":"view"},{"type":"function","name":"paused","inputs":[],"outputs":[{"name":"","type":"bool","internalType":"bool"}],"stateMutability":"view"},{"type":"function","name":"pendingDefaultAdmin","inputs":[],"outputs":[{"name":"newAdmin","type":"address","internalType":"address"},{"name":"schedule","type":"uint48","internalType":"uint48"}],"stateMutability":"view"},{"type":"function","name":"pendingDefaultAdminDelay","inputs":[],"outputs":[{"name":"newDelay","type":"uint48","internalType":"uint48"},{"name":"schedule","type":"uint48","internalType":"uint48"}],"stateMutability":"view"},{"type":"function","name":"receiveERC20","inputs":[{"name":"message","type":"tuple","internalType":"struct INexusBridge.MessageReceieve","components":[{"name":"messageType","type":"bytes1","internalType":"bytes1"},{"name":"from","type":"bytes32","internalType":"bytes32"},{"name":"to","type":"bytes32","internalType":"bytes32"},{"name":"data","type":"bytes","internalType":"bytes"},{"name":"messageId","type":"uint64","internalType":"uint64"},{"name":"storageProof","type":"bytes","internalType":"bytes"},{"name":"storageSlot","type":"bytes32","internalType":"bytes32"}]},{"name":"input","type":"bytes","internalType":"bytes"}],"outputs":[],"stateMutability":"nonpayable"},{"type":"function","name":"receiveETH","inputs":[{"name":"message","type":"tuple","internalType":"struct INexusBridge.MessageReceieve","components":[{"name":"messageType","type":"bytes1","internalType":"bytes1"},{"name":"from","type":"bytes32","internalType":"bytes32"},{"name":"to","type":"bytes32","internalType":"bytes32"},{"name":"data","type":"bytes","internalType":"bytes"},{"name":"messageId","type":"uint64","internalType":"uint64"},{"name":"storageProof","type":"bytes","internalType":"bytes"},{"name":"storageSlot","type":"bytes32","internalType":"bytes32"}]},{"name":"input","type":"bytes","internalType":"bytes"}],"outputs":[],"stateMutability":"nonpayable"},{"type":"function","name":"receiveMessage","inputs":[{"name":"message","type":"tuple","internalType":"struct INexusBridge.MessageReceieve","components":[{"name":"messageType","type":"bytes1","internalType":"bytes1"},{"name":"from","type":"bytes32","internalType":"bytes32"},{"name":"to","type":"bytes32","internalType":"bytes32"},{"name":"data","type":"bytes","internalType":"bytes"},{"name":"messageId","type":"uint64","internalType":"uint64"},{"name":"storageProof","type":"bytes","internalType":"bytes"},{"name":"storageSlot","type":"bytes32","internalType":"bytes32"}]},{"name":"input","type":"bytes","internalType":"bytes"}],"outputs":[],"stateMutability":"nonpayable"},{"type":"function","name":"renounceRole","inputs":[{"name":"role","type":"bytes32","internalType":"bytes32"},{"name":"account","type":"address","internalType":"address"}],"outputs":[],"stateMutability":"nonpayable"},{"type":"function","name":"revokeRole","inputs":[{"name":"role","type":"bytes32","internalType":"bytes32"},{"name":"account","type":"address","internalType":"address"}],"outputs":[],"stateMutability":"nonpayable"},{"type":"function","name":"rollbackDefaultAdminDelay","inputs":[],"outputs":[],"stateMutability":"nonpayable"},{"type":"function","name":"sendERC20","inputs":[{"name":"assetId","type":"bytes32","internalType":"bytes32"},{"name":"recipient","type":"bytes32","internalType":"bytes32"},{"name":"amount","type":"uint256","internalType":"uint256"}],"outputs":[],"stateMutability":"nonpayable"},{"type":"function","name":"sendETH","inputs":[{"name":"recipient","type":"bytes32","internalType":"bytes32"}],"outputs":[],"stateMutability":"payable"},{"type":"function","name":"sendMessage","inputs":[{"name":"recipient","type":"bytes32","internalType":"bytes32"},{"name":"data","type":"bytes","internalType":"bytes"}],"outputs":[],"stateMutability":"payable"},{"type":"function","name":"setPaused","inputs":[{"name":"status","type":"bool","internalType":"bool"}],"outputs":[],"stateMutability":"nonpayable"},{"type":"function","name":"supportsInterface","inputs":[{"name":"interfaceId","type":"bytes4","internalType":"bytes4"}],"outputs":[{"name":"","type":"bool","internalType":"bool"}],"stateMutability":"view"},{"type":"function","name":"tokens","inputs":[{"name":"","type":"bytes32","internalType":"bytes32"}],"outputs":[{"name":"","type":"address","internalType":"address"}],"stateMutability":"view"},{"type":"function","name":"updateFeePerByte","inputs":[{"name":"newFeePerByte","type":"uint256","internalType":"uint256"}],"outputs":[],"stateMutability":"nonpayable"},{"type":"function","name":"updateFeeRecipient","inputs":[{"name":"newFeeRecipient","type":"address","internalType":"address"}],"outputs":[],"stateMutability":"nonpayable"},{"type":"function","name":"updateNexusTokens","inputs":[{"name":"assetIds","type":"bytes32[]","internalType":"bytes32[]"},{"name":"tokenAddresses","type":"address[]","internalType":"address[]"}],"outputs":[],"stateMutability":"nonpayable"},{"type":"function","name":"updateTokens","inputs":[{"name":"assetIds","type":"bytes32[]","internalType":"bytes32[]"},{"name":"tokenAddresses","type":"address[]","internalType":"address[]"}],"outputs":[],"stateMutability":"nonpayable"},{"type":"function","name":"verifier","inputs":[],"outputs":[{"name":"","type":"address","internalType":"contract EthereumVerifier"}],"stateMutability":"view"},{"type":"function","name":"withdrawFees","inputs":[],"outputs":[],"stateMutability":"nonpayable"},{"type":"event","name":"DefaultAdminDelayChangeCanceled","inputs":[],"anonymous":false},{"type":"event","name":"DefaultAdminDelayChangeScheduled","inputs":[{"name":"newDelay","type":"uint48","indexed":false,"internalType":"uint48"},{"name":"effectSchedule","type":"uint48","indexed":false,"internalType":"uint48"}],"anonymous":false},{"type":"event","name":"DefaultAdminTransferCanceled","inputs":[],"anonymous":false},{"type":"event","name":"DefaultAdminTransferScheduled","inputs":[{"name":"newAdmin","type":"address","indexed":true,"internalType":"address"},{"name":"acceptSchedule","type":"uint48","indexed":false,"internalType":"uint48"}],"anonymous":false},{"type":"event","name":"Initialized","inputs":[{"name":"version","type":"uint64","indexed":false,"internalType":"uint64"}],"anonymous":false},{"type":"event","name":"MessageReceived","inputs":[{"name":"from","type":"bytes32","indexed":true,"internalType":"bytes32"},{"name":"to","type":"address","indexed":true,"internalType":"address"},{"name":"messageId","type":"uint256","indexed":false,"internalType":"uint256"}],"anonymous":false},{"type":"event","name":"MessageSent","inputs":[{"name":"from","type":"address","indexed":true,"internalType":"address"},{"name":"to","type":"bytes32","indexed":true,"internalType":"bytes32"},{"name":"messageId","type":"uint256","indexed":false,"internalType":"uint256"}],"anonymous":false},{"type":"event","name":"Paused","inputs":[{"name":"account","type":"address","indexed":false,"internalType":"address"}],"anonymous":false},{"type":"event","name":"RoleAdminChanged","inputs":[{"name":"role","type":"bytes32","indexed":true,"internalType":"bytes32"},{"name":"previousAdminRole","type":"bytes32","indexed":true,"internalType":"bytes32"},{"name":"newAdminRole","type":"bytes32","indexed":true,"internalType":"bytes32"}],"anonymous":false},{"type":"event","name":"RoleGranted","inputs":[{"name":"role","type":"bytes32","indexed":true,"internalType":"bytes32"},{"name":"account","type":"address","indexed":true,"internalType":"address"},{"name":"sender","type":"address","indexed":true,"internalType":"address"}],"anonymous":false},{"type":"event","name":"RoleRevoked","inputs":[{"name":"role","type":"bytes32","indexed":true,"internalType":"bytes32"},{"name":"account","type":"address","indexed":true,"internalType":"address"},{"name":"sender","type":"address","indexed":true,"internalType":"address"}],"anonymous":false},{"type":"event","name":"Unpaused","inputs":[{"name":"account","type":"address","indexed":false,"internalType":"address"}],"anonymous":false},{"type":"error","name":"AccessControlBadConfirmation","inputs":[]},{"type":"error","name":"AccessControlEnforcedDefaultAdminDelay","inputs":[{"name":"schedule","type":"uint48","internalType":"uint48"}]},{"type":"error","name":"AccessControlEnforcedDefaultAdminRules","inputs":[]},{"type":"error","name":"AccessControlInvalidDefaultAdmin","inputs":[{"name":"defaultAdmin","type":"address","internalType":"address"}]},{"type":"error","name":"AccessControlUnauthorizedAccount","inputs":[{"name":"account","type":"address","internalType":"address"},{"name":"neededRole","type":"bytes32","internalType":"bytes32"}]},{"type":"error","name":"AddressEmptyCode","inputs":[{"name":"target","type":"address","internalType":"address"}]},{"type":"error","name":"AddressInsufficientBalance","inputs":[{"name":"account","type":"address","internalType":"address"}]},{"type":"error","name":"AlreadyBridged","inputs":[]},{"type":"error","name":"ArrayLengthMismatch","inputs":[]},{"type":"error","name":"BlobRootEmpty","inputs":[]},{"type":"error","name":"BridgeRootEmpty","inputs":[]},{"type":"error","name":"DataRootCommitmentEmpty","inputs":[]},{"type":"error","name":"EnforcedPause","inputs":[]},{"type":"error","name":"ExpectedPause","inputs":[]},{"type":"error","name":"FailedInnerCall","inputs":[]},{"type":"error","name":"FeeTooLow","inputs":[]},{"type":"error","name":"InvalidAssetId","inputs":[]},{"type":"error","name":"InvalidDataLength","inputs":[]},{"type":"error","name":"InvalidDataRootProof","inputs":[]},{"type":"error","name":"InvalidDestinationOrAmount","inputs":[]},{"type":"error","name":"InvalidDomain","inputs":[]},{"type":"error","name":"InvalidFungibleTokenTransfer","inputs":[]},{"type":"error","name":"InvalidInitialization","inputs":[]},{"type":"error","name":"InvalidLeaf","inputs":[]},{"type":"error","name":"InvalidMerkleProof","inputs":[]},{"type":"error","name":"InvalidMessage","inputs":[]},{"type":"error","name":"NotInitializing","inputs":[]},{"type":"error","name":"ReentrancyGuardReentrantCall","inputs":[]},{"type":"error","name":"SafeCastOverflowedUintDowncast","inputs":[{"name":"bits","type":"uint8","internalType":"uint8"},{"name":"value","type":"uint256","internalType":"uint256"}]},{"type":"error","name":"SafeERC20FailedOperation","inputs":[{"name":"token","type":"address","internalType":"address"}]},{"type":"error","name":"UnlockFailed","inputs":[]},{"type":"error","name":"WithdrawFailed","inputs":[]}],"bytecode":{"object":"0x608060405234801561001057600080fd5b50612efb806100206000396000f3fe6080604052600436106102725760003560e01c8063694487f51161014f578063a3f5c1d2116100c1578063d602b9fd1161007a578063d602b9fd14610795578063dc7ca82c146107aa578063e12a6659146107ca578063f160d369146107ea578063f60bbe2a1461080a578063fcee45f41461082057600080fd5b8063a3f5c1d2146106d0578063cc8463c8146106f0578063cefc142914610705578063cf6eefb71461071a578063d547741f14610755578063d590bd341461077557600080fd5b8063904194a311610113578063904194a31461060557806391d148541461063b5780639a8a05921461065b5780639af1d35a14610671578063a1eda53c14610687578063a217fddf146106bb57600080fd5b8063694487f51461056b578063701bbfe81461058b578063758f666f146105bb57806384ef8ffc146105db5780638da5cb5b146105f057600080fd5b806346904840116101e85780635e6c8c6c116101ac5780635e6c8c6c146104a8578063609158a3146104c8578063634e93da146104e857806363d91f4014610508578063649a5ec714610535578063669f618b1461055557600080fd5b8063469048401461040e578063476343ee1461042e5780634ee13e6b146104435780635bdeac42146104635780635c975abb1461048357600080fd5b806323c640e71161023a57806323c640e71461031f578063248a9ca3146103325780632b7ac3f3146103605780632f2ff15d1461039857806336568abe146103b857806338c4810d146103d857600080fd5b806301ffc9a714610277578063022d63fb146102ac5780630846691f146102d55780630aa6220b146102ea57806316c38b3c146102ff575b600080fd5b34801561028357600080fd5b5061029761029236600461279b565b610840565b60405190151581526020015b60405180910390f35b3480156102b857600080fd5b50620697805b60405165ffffffffffff90911681526020016102a3565b6102e86102e33660046127c5565b61086b565b005b3480156102f657600080fd5b506102e8610985565b34801561030b57600080fd5b506102e861031a3660046127ec565b61099b565b6102e861032d366004612851565b6109df565b34801561033e57600080fd5b5061035261034d3660046127c5565b610b55565b6040519081526020016102a3565b34801561036c57600080fd5b50600654610380906001600160a01b031681565b6040516001600160a01b0390911681526020016102a3565b3480156103a457600080fd5b506102e86103b33660046128b1565b610b77565b3480156103c457600080fd5b506102e86103d33660046128b1565b610b9f565b3480156103e457600080fd5b506103806103f33660046127c5565b6003602052600090815260409020546001600160a01b031681565b34801561041a57600080fd5b50600754610380906001600160a01b031681565b34801561043a57600080fd5b506102e8610c68565b34801561044f57600080fd5b506102e861045e3660046128e1565b610ce8565b34801561046f57600080fd5b50600454610380906001600160a01b031681565b34801561048f57600080fd5b50600080516020612e668339815191525460ff16610297565b3480156104b457600080fd5b506102e86104c33660046127c5565b610d9d565b3480156104d457600080fd5b506102e86104e33660046128e1565b610dae565b3480156104f457600080fd5b506102e8610503366004612944565b610f9d565b34801561051457600080fd5b506103526105233660046127c5565b60006020819052908152604090205481565b34801561054157600080fd5b506102e8610550366004612961565b610fb1565b34801561056157600080fd5b50610352600a5481565b34801561057757600080fd5b506102e86105863660046128e1565b610fc5565b34801561059757600080fd5b506102976105a63660046127c5565b60016020526000908152604090205460ff1681565b3480156105c757600080fd5b506102e86105d6366004612989565b6111ba565b3480156105e757600080fd5b50610380611469565b3480156105fc57600080fd5b50610380611485565b34801561061157600080fd5b506103806106203660046127c5565b6002602052600090815260409020546001600160a01b031681565b34801561064757600080fd5b506102976106563660046128b1565b611494565b34801561066757600080fd5b50610352600b5481565b34801561067d57600080fd5b5061035260085481565b34801561069357600080fd5b5061069c6114cc565b6040805165ffffffffffff9384168152929091166020830152016102a3565b3480156106c757600080fd5b50610352600081565b3480156106dc57600080fd5b50600554610380906001600160a01b031681565b3480156106fc57600080fd5b506102be61153f565b34801561071157600080fd5b506102e86115bd565b34801561072657600080fd5b5061072f6115fd565b604080516001600160a01b03909316835265ffffffffffff9091166020830152016102a3565b34801561076157600080fd5b506102e86107703660046128b1565b61162b565b34801561078157600080fd5b506102e86107903660046129f9565b611653565b3480156107a157600080fd5b506102e861179b565b3480156107b657600080fd5b506102e86107c5366004612a64565b6117ae565b3480156107d657600080fd5b506102e86107e53660046129f9565b611954565b3480156107f657600080fd5b506102e8610805366004612944565b611a93565b34801561081657600080fd5b5061035260095481565b34801561082c57600080fd5b5061035261083b3660046127c5565b611ac1565b60006001600160e01b031982166318a4c3c360e11b1480610865575061086582611ad1565b92915050565b610873611b06565b8034811580610880575080155b8061089157506001600160801b0381115b156108af576040516329fd423f60e01b815260040160405180910390fd5b600a8054600181019091556040805160a081018252600160f91b815233606090811b6001600160601b03191660208084019190915282840188905283516208aa8960eb1b8183015234818601528451808203860181529083018552918301919091526001600160401b03841660808301529151909161093091839101612b1f565b60408051601f1981840301815282825280516020918201206000868152918290529190205585903390600080516020612de6833981519152906109769086815260200190565b60405180910390a35050505050565b600061099081611b39565b610998611b43565b50565b7f65d7a28e3265b37a6474929f336521b332c1681b933f6cb9f3376673440d862a6109c581611b39565b81156109d7576109d3611b4e565b5050565b6109d3611bb1565b6109e7611b06565b808015806109f757506201900081115b15610a1557604051630dfe930960e41b815260040160405180910390fd5b610a1e81611ac1565b341015610a3e5760405163732f941360e01b815260040160405180910390fd5b600a80546001810190915560088054349190600090610a5e908490612ba8565b9250508190555060006040518060a00160405280600160f81b6001600160f81b03191681526020013360601b6bffffffffffffffffffffffff1916815260200187815260200186868080601f0160208091040260200160405190810160405280939291908181526020018383808284376000920191909152505050908252506001600160401b038416602091820152604051919250610aff91839101612b1f565b60408051601f1981840301815282825280516020918201206000868152918290529190205586903390600080516020612de683398151915290610b459086815260200190565b60405180910390a3505050505050565b6000908152600080516020612e46833981519152602052604090206001015490565b81610b9557604051631fe1e13d60e11b815260040160405180910390fd5b6109d38282611bf7565b600080516020612e2683398151915282158015610bd45750610bbf611469565b6001600160a01b0316826001600160a01b0316145b15610c5957600080610be46115fd565b90925090506001600160a01b038216151580610c06575065ffffffffffff8116155b80610c1957504265ffffffffffff821610155b15610c46576040516319ca5ebb60e01b815265ffffffffffff821660048201526024015b60405180910390fd5b5050805465ffffffffffff60a01b191681555b610c638383611c13565b505050565b600880546000918290556007546040519192916001600160a01b039091169083908381818185875af1925050503d8060008114610cc1576040519150601f19603f3d011682016040523d82523d6000602084013e610cc6565b606091505b50509050806109d357604051631d42c86760e21b815260040160405180910390fd5b610cf0611b06565b610cf8611c46565b600160f81b610d0a6020850185612bbb565b6001600160f81b03191614610d3257604051636eca2e4b60e01b815260040160405180910390fd5b610d3d838383611c7e565b604083013560601c806020850135600080516020612e06833981519152610d6a60a0880160808901612be5565b6040516001600160401b03909116815260200160405180910390a350610c636001600080516020612e8683398151915255565b6000610da881611b39565b50600955565b610db6611b06565b610dc36020840184612bbb565b6001600160f81b03198116600160f91b14610df15760405163c51b845360e01b815260040160405180910390fd5b610df9611c46565b600080610e096060870187612c0e565b810190610e169190612c54565b91509150610e25868686611c7e565b60208601356001600160a01b03811681600080516020612e06833981519152610e5460a08b0160808c01612be5565b6040516001600160401b03909116815260200160405180910390a36000838152600360205260409020546001600160a01b031615610f0757600083815260036020526040908190205490516340c10f1960e01b81526001600160a01b03838116600483015260248201859052909116906340c10f1990604401600060405180830381600087803b158015610ee757600080fd5b505af1158015610efb573d6000803e3d6000fd5b50505050505050610f80565b6000816001600160a01b03168360405160006040518083038185875af1925050503d8060008114610f54576040519150601f19603f3d011682016040523d82523d6000602084013e610f59565b606091505b5050905080610f7b57604051635f0ad7b760e11b815260040160405180910390fd5b505050505b610f976001600080516020612e8683398151915255565b50505050565b6000610fa881611b39565b6109d382611e85565b6000610fbc81611b39565b6109d382611ef8565b610fcd611b06565b610fda6020840184612bbb565b6001600160f81b03198116600160f91b146110085760405163c51b845360e01b815260040160405180910390fd5b611010611c46565b6000806110206060870187612c0e565b81019061102d9190612c54565b60008281526002602052604090205491935091506001600160a01b031680156110c25761105b878787611c7e565b60208701356001600160a01b03811681600080516020612e0683398151915261108a60a08c0160808d01612be5565b6040516001600160401b03909116815260200160405180910390a36110b96001600160a01b0383168285611f68565b50505050610f80565b506000828152600360205260409020546001600160a01b031680156111a1576110ec878787611c7e565b60208701356001600160a01b03811681600080516020612e0683398151915261111b60a08c0160808d01612be5565b6040516001600160401b03909116815260200160405180910390a36040516340c10f1960e01b81526001600160a01b038281166004830152602482018590528316906340c10f1990604401600060405180830381600087803b15801561118057600080fd5b505af1158015611194573d6000803e3d6000fd5b5050505050505050610f80565b6040516307d7e52d60e51b815260040160405180910390fd5b6111c2611b06565b81818115806111cf575080155b806111e057506001600160801b0381115b156111fe576040516329fd423f60e01b815260040160405180910390fd5b6000858152600260205260409020546001600160a01b0316801561130c57600a8054600181019091556040805160a081018252600160f91b815233606090811b6001600160601b0319166020808401919091528284018a905283519081018b905292830188905260009281830191016040516020818303038152906040528152602001836001600160401b03168152509050806040516020016112a19190612b1f565b60408051601f1981840301815282825280516020918201206000868152918290529190205587903390600080516020612de6833981519152906112e79086815260200190565b60405180910390a36113046001600160a01b038416333089611fc7565b505050611462565b506000858152600360205260409020546001600160a01b031680156111a157600a8054600181019091556040805160a081018252600160f91b815233606090811b6001600160601b0319166020808401919091528284018a905283519081018b905292830188905260009281830191016040516020818303038152906040528152602001836001600160401b03168152509050806040516020016113b09190612b1f565b60408051601f1981840301815282825280516020918201206000868152918290529190205587903390600080516020612de6833981519152906113f69086815260200190565b60405180910390a3604051632770a7eb60e21b8152336004820152602481018790526001600160a01b03841690639dc29fac90604401600060405180830381600087803b15801561144657600080fd5b505af115801561145a573d6000803e3d6000fd5b505050505050505b5050505050565b600080516020612ea6833981519152546001600160a01b031690565b600061148f611469565b905090565b6000918252600080516020612e46833981519152602090815260408084206001600160a01b0393909316845291905290205460ff1690565b600080516020612ea683398151915254600090600160d01b900465ffffffffffff16600080516020612e26833981519152811580159061151457504265ffffffffffff831610155b61152057600080611536565b6001810154600160a01b900465ffffffffffff16825b92509250509091565b600080516020612ea683398151915254600090600080516020612e2683398151915290600160d01b900465ffffffffffff16801580159061158757504265ffffffffffff8216105b6115a1578154600160d01b900465ffffffffffff166115b6565b6001820154600160a01b900465ffffffffffff165b9250505090565b60006115c76115fd565b509050336001600160a01b038216146115f557604051636116401160e11b8152336004820152602401610c3d565b610998612000565b600080516020612e26833981519152546001600160a01b03811691600160a01b90910465ffffffffffff1690565b8161164957604051631fe1e13d60e11b815260040160405180910390fd5b6109d3828261209d565b600061165e81611b39565b8382811461167f5760405163512509d360e11b815260040160405180910390fd5b60005b818110156117925760006003818989858181106116a1576116a1612c76565b60209081029290920135835250810191909152604001600020546001600160a01b0316146117115760405162461bcd60e51b815260206004820152601d60248201527f61737365742069642075736564206279206e6578757320746f6b656e730000006044820152606401610c3d565b84848281811061172357611723612c76565b90506020020160208101906117389190612944565b6002600089898581811061174e5761174e612c76565b90506020020135815260200190815260200160002060006101000a8154816001600160a01b0302191690836001600160a01b03160217905550806001019050611682565b50505050505050565b60006117a681611b39565b6109986120b9565b7ff0c57e16840df040f15088dc2f81fe391c3923bec73e23a9662efc9c229c6a008054600160401b810460ff1615906001600160401b03166000811580156117f35750825b90506000826001600160401b0316600114801561180f5750303b155b90508115801561181d575080155b1561183b5760405163f92ee8a960e01b815260040160405180910390fd5b845467ffffffffffffffff19166001178555831561186557845460ff60401b1916600160401b1785555b60098d9055600780546001600160a01b03808f166001600160a01b031992831617909255600480548e8416908316179055600580548b8416908316179055600b89905560068054928916929091169190911790556118c460008b6120c4565b6118ee7f65d7a28e3265b37a6474929f336521b332c1681b933f6cb9f3376673440d862a8a6120d6565b506118f761214d565b6118ff61215d565b831561194557845460ff60401b19168555604051600181527fc7f505b2f371ae2175ee4913f4499e1f2633a7b5936321eed1cdaeb6115181d29060200160405180910390a15b50505050505050505050505050565b600061195f81611b39565b838281146119805760405163512509d360e11b815260040160405180910390fd5b60005b818110156117925760006002818989858181106119a2576119a2612c76565b60209081029290920135835250810191909152604001600020546001600160a01b031614611a125760405162461bcd60e51b815260206004820181905260248201527f61737365742069642075736564206279207374616e6461726420746f6b656e736044820152606401610c3d565b848482818110611a2457611a24612c76565b9050602002016020810190611a399190612944565b60036000898985818110611a4f57611a4f612c76565b90506020020135815260200190815260200160002060006101000a8154816001600160a01b0302191690836001600160a01b03160217905550806001019050611983565b6000611a9e81611b39565b50600780546001600160a01b0319166001600160a01b0392909216919091179055565b6000600954826108659190612c8c565b60006001600160e01b03198216637965db0b60e01b148061086557506301ffc9a760e01b6001600160e01b0319831614610865565b600080516020612e668339815191525460ff1615611b375760405163d93c066560e01b815260040160405180910390fd5b565b610998813361216d565b611b376000806121a6565b611b56611b06565b600080516020612e66833981519152805460ff191660011781557f62e78cea01bee320cd4e420270b5ea74000d11b0c9f74754ebdbfc544b05a258335b6040516001600160a01b03909116815260200160405180910390a150565b611bb9612281565b600080516020612e66833981519152805460ff191681557f5db9ee0a495bf2e6ff9c91a7834c1ba4fdd244a5e8aa4e537bd38aeae4b073aa33611b93565b611c0082610b55565b611c0981611b39565b610f9783836120d6565b6001600160a01b0381163314611c3c5760405163334bd91960e11b815260040160405180910390fd5b610c6382826122b1565b600080516020612e86833981519152805460011901611c7857604051633ee5aeb560e01b815260040160405180910390fd5b60029055565b600554600b5460405163266218bb60e21b81526000926001600160a01b03169163998862ec91611cbb918591600401918252602082015260400190565b6020604051808303816000875af1158015611cda573d6000803e3d6000fd5b505050506040513d601f19601f82011682018060405250810190611cfe9190612ca3565b60065460408051637f1b8c7360e01b81529293506000926001600160a01b0390921691637f1b8c7391611d3d918691899189918c013590600401612ce5565b608060405180830381865afa158015611d5a573d6000803e3d6000fd5b505050506040513d601f19601f82011682018060405250810190611d7e9190612d18565b93505050507f56e81f171bcc55a6ff8345e692c0f86e5b48e01b996cadc001622fb5e363b42160001b8103611de55760405162461bcd60e51b815260206004820152600d60248201526c696e76616c696420656e74727960981b6044820152606401610c3d565b6006546001600160a01b0316636f7096dc8260c0880135611e0960a08a018a612c0e565b6040518563ffffffff1660e01b8152600401611e289493929190612d4e565b602060405180830381865afa158015611e45573d6000803e3d6000fd5b505050506040513d601f19601f82011682018060405250810190611e699190612ca3565b505050505050565b6001600080516020612e8683398151915255565b6000611e8f61153f565b611e984261230a565b611ea29190612d6e565b9050611eae8282612341565b60405165ffffffffffff821681526001600160a01b038316907f3377dc44241e779dd06afab5b788a35ca5f3b778836e2990bdb26a2a4b2e5ed69060200160405180910390a25050565b6000611f03826123ce565b611f0c4261230a565b611f169190612d6e565b9050611f2282826121a6565b6040805165ffffffffffff8085168252831660208201527ff1038c18cf84a56e432fdbfaf746924b7ea511dfe03a6506a0ceba4888788d9b910160405180910390a15050565b6040516001600160a01b03838116602483015260448201839052610c6391859182169063a9059cbb906064015b604051602081830303815290604052915060e01b6020820180516001600160e01b03838183161783525050505061241d565b6040516001600160a01b038481166024830152838116604483015260648201839052610f979186918216906323b872dd90608401611f95565b600080516020612e2683398151915260008061201a6115fd565b9150915061202f8165ffffffffffff16151590565b158061204357504265ffffffffffff821610155b1561206b576040516319ca5ebb60e01b815265ffffffffffff82166004820152602401610c3d565b61207d6000612078611469565b6122b1565b506120896000836120d6565b505081546001600160d01b03191690915550565b6120a682610b55565b6120af81611b39565b610f9783836122b1565b611b37600080612341565b6120cc612480565b6109d382826124c9565b6000600080516020612e268339815191528361213b5760006120f6611469565b6001600160a01b03161461211d57604051631fe1e13d60e11b815260040160405180910390fd5b6001810180546001600160a01b0319166001600160a01b0385161790555b6121458484612532565b949350505050565b612155612480565b611b376125de565b612165612480565b611b376125ff565b6121778282611494565b6109d35760405163e2517d3f60e01b81526001600160a01b038216600482015260248101839052604401610c3d565b600080516020612ea683398151915254600080516020612e2683398151915290600160d01b900465ffffffffffff168015612243574265ffffffffffff8216101561221957600182015482546001600160d01b0316600160a01b90910465ffffffffffff16600160d01b02178255612243565b6040517f2b1fa2edafe6f7b9e97c1a9e0c3660e645beb2dcaa2d45bdbf9beaf5472e1ec590600090a15b5060010180546001600160a01b0316600160a01b65ffffffffffff948516026001600160d01b031617600160d01b9290931691909102919091179055565b600080516020612e668339815191525460ff16611b3757604051638dfc202b60e01b815260040160405180910390fd5b6000600080516020612e26833981519152831580156122e857506122d3611469565b6001600160a01b0316836001600160a01b0316145b15612300576001810180546001600160a01b03191690555b6121458484612607565b600065ffffffffffff82111561233d576040516306dfcc6560e41b81526030600482015260248101839052604401610c3d565b5090565b600080516020612e26833981519152600061235a6115fd565b835465ffffffffffff8616600160a01b026001600160d01b03199091166001600160a01b03881617178455915061239a90508165ffffffffffff16151590565b15610f97576040517f8886ebfc4259abdbc16601dd8fb5678e54878f47b3c34836cfc51154a960510990600090a150505050565b6000806123d961153f565b90508065ffffffffffff168365ffffffffffff1611612401576123fc8382612d8d565b612416565b61241665ffffffffffff841662069780612683565b9392505050565b60006124326001600160a01b03841683612699565b905080516000141580156124575750808060200190518101906124559190612dac565b155b15610c6357604051635274afe760e01b81526001600160a01b0384166004820152602401610c3d565b7ff0c57e16840df040f15088dc2f81fe391c3923bec73e23a9662efc9c229c6a0054600160401b900460ff16611b3757604051631afcd79f60e31b815260040160405180910390fd5b6124d1612480565b600080516020612e268339815191526001600160a01b03821661250a57604051636116401160e11b815260006004820152602401610c3d565b80546001600160d01b0316600160d01b65ffffffffffff851602178155610f976000836120d6565b6000600080516020612e4683398151915261254d8484611494565b6125cd576000848152602082815260408083206001600160a01b03871684529091529020805460ff191660011790556125833390565b6001600160a01b0316836001600160a01b0316857f2f8788117e7eff1d82e926ec794901d17c78024a50270940304540a733656f0d60405160405180910390a46001915050610865565b6000915050610865565b5092915050565b6125e6612480565b600080516020612e66833981519152805460ff19169055565b611e71612480565b6000600080516020612e468339815191526126228484611494565b156125cd576000848152602082815260408083206001600160a01b0387168085529252808320805460ff1916905551339287917ff6391f5c32d9c69d2a47ea670b442974b53935d1edc7fd64eb21e047a839171b9190a46001915050610865565b60008183106126925781612416565b5090919050565b60606124168383600084600080856001600160a01b031684866040516126bf9190612dc9565b60006040518083038185875af1925050503d80600081146126fc576040519150601f19603f3d011682016040523d82523d6000602084013e612701565b606091505b509150915061271186838361271b565b9695505050505050565b60608261272b576123fc82612772565b815115801561274257506001600160a01b0384163b155b1561276b57604051639996b31560e01b81526001600160a01b0385166004820152602401610c3d565b5080612416565b8051156127825780518082602001fd5b604051630a12f52160e11b815260040160405180910390fd5b6000602082840312156127ad57600080fd5b81356001600160e01b03198116811461241657600080fd5b6000602082840312156127d757600080fd5b5035919050565b801515811461099857600080fd5b6000602082840312156127fe57600080fd5b8135612416816127de565b60008083601f84011261281b57600080fd5b5081356001600160401b0381111561283257600080fd5b60208301915083602082850101111561284a57600080fd5b9250929050565b60008060006040848603121561286657600080fd5b8335925060208401356001600160401b0381111561288357600080fd5b61288f86828701612809565b9497909650939450505050565b6001600160a01b038116811461099857600080fd5b600080604083850312156128c457600080fd5b8235915060208301356128d68161289c565b809150509250929050565b6000806000604084860312156128f657600080fd5b83356001600160401b038082111561290d57600080fd5b9085019060e0828803121561292157600080fd5b9093506020850135908082111561293757600080fd5b5061288f86828701612809565b60006020828403121561295657600080fd5b81356124168161289c565b60006020828403121561297357600080fd5b813565ffffffffffff8116811461241657600080fd5b60008060006060848603121561299e57600080fd5b505081359360208301359350604090920135919050565b60008083601f8401126129c757600080fd5b5081356001600160401b038111156129de57600080fd5b6020830191508360208260051b850101111561284a57600080fd5b60008060008060408587031215612a0f57600080fd5b84356001600160401b0380821115612a2657600080fd5b612a32888389016129b5565b90965094506020870135915080821115612a4b57600080fd5b50612a58878288016129b5565b95989497509550505050565b600080600080600080600080610100898b031215612a8157600080fd5b883597506020890135612a938161289c565b96506040890135612aa38161289c565b95506060890135612ab38161289c565b94506080890135612ac38161289c565b935060a0890135612ad38161289c565b925060c0890135915060e0890135612aea8161289c565b809150509295985092959890939650565b60005b83811015612b16578181015183820152602001612afe565b50506000910152565b6020815260ff60f81b825116602082015260208201516040820152604082015160608201526000606083015160a0608084015280518060c0850152612b6b8160e0860160208501612afb565b608094909401516001600160401b031660a0840152505060e0601f909201601f1916010190565b634e487b7160e01b600052601160045260246000fd5b8082018082111561086557610865612b92565b600060208284031215612bcd57600080fd5b81356001600160f81b03198116811461241657600080fd5b600060208284031215612bf757600080fd5b81356001600160401b038116811461241657600080fd5b6000808335601e19843603018112612c2557600080fd5b8301803591506001600160401b03821115612c3f57600080fd5b60200191503681900382131561284a57600080fd5b60008060408385031215612c6757600080fd5b50508035926020909101359150565b634e487b7160e01b600052603260045260246000fd5b808202811582820484141761086557610865612b92565b600060208284031215612cb557600080fd5b5051919050565b81835281816020850137506000828201602090810191909152601f909101601f19169091010190565b848152606060208201526000612cff606083018587612cbc565b905060018060a01b038316604083015295945050505050565b60008060008060808587031215612d2e57600080fd5b505082516020840151604085015160609095015191969095509092509050565b848152836020820152606060408201526000612711606083018486612cbc565b65ffffffffffff8181168382160190808211156125d7576125d7612b92565b65ffffffffffff8281168282160390808211156125d7576125d7612b92565b600060208284031215612dbe57600080fd5b8151612416816127de565b60008251612ddb818460208701612afb565b919091019291505056fe06fd209663be9278f96bc53dfbf6cf3cdcf2172c38b5de30abff93ba443d653a4ad8286366216a121ffbecdd11163a134fc364cdf7cc99aae4cc3221d8d92269eef3dac4538c82c8ace4063ab0acd2d15cdb5883aa1dff7c2673abb3d869840002dd7bc7dec4dceedda775e58dd541e08a116c6c53815c0bd028192f7b626800cd5ed15c6e187e77e9aee88184c21f4f2182ab5827cb3b7e07fbedcd63f033009b779b17422d0df92223018b32b4d1fa46e071723d6817e2486d003becc55f00eef3dac4538c82c8ace4063ab0acd2d15cdb5883aa1dff7c2673abb3d8698401a264697066735822122054b736141e58459ad33658659994c608c284a89212d1ee9845405a7deba8903964736f6c63430008140033","linkReferences":{}},"methodIdentifiers":{"DEFAULT_ADMIN_ROLE()":"a217fddf","acceptDefaultAdminTransfer()":"cefc1429","avail()":"5bdeac42","beginDefaultAdminTransfer(address)":"634e93da","cancelDefaultAdminTransfer()":"d602b9fd","chainId()":"9a8a0592","changeDefaultAdminDelay(uint48)":"649a5ec7","defaultAdmin()":"84ef8ffc","defaultAdminDelay()":"cc8463c8","defaultAdminDelayIncreaseWait()":"022d63fb","feePerByte()":"f60bbe2a","feeRecipient()":"46904840","fees()":"9af1d35a","getFee(uint256)":"fcee45f4","getRoleAdmin(bytes32)":"248a9ca3","grantRole(bytes32,address)":"2f2ff15d","hasRole(bytes32,address)":"91d14854","initialize(uint256,address,address,address,address,address,bytes32,address)":"dc7ca82c","isBridged(bytes32)":"701bbfe8","isSent(uint256)":"63d91f40","messageId()":"669f618b","nexus()":"a3f5c1d2","nexusTokens(bytes32)":"38c4810d","owner()":"8da5cb5b","paused()":"5c975abb","pendingDefaultAdmin()":"cf6eefb7","pendingDefaultAdminDelay()":"a1eda53c","receiveERC20((bytes1,bytes32,bytes32,bytes,uint64,bytes,bytes32),bytes)":"694487f5","receiveETH((bytes1,bytes32,bytes32,bytes,uint64,bytes,bytes32),bytes)":"609158a3","receiveMessage((bytes1,bytes32,bytes32,bytes,uint64,bytes,bytes32),bytes)":"4ee13e6b","renounceRole(bytes32,address)":"36568abe","revokeRole(bytes32,address)":"d547741f","rollbackDefaultAdminDelay()":"0aa6220b","sendERC20(bytes32,bytes32,uint256)":"758f666f","sendETH(bytes32)":"0846691f","sendMessage(bytes32,bytes)":"23c640e7","setPaused(bool)":"16c38b3c","supportsInterface(bytes4)":"01ffc9a7","tokens(bytes32)":"904194a3","updateFeePerByte(uint256)":"5e6c8c6c","updateFeeRecipient(address)":"f160d369","updateNexusTokens(bytes32[],address[])":"e12a6659","updateTokens(bytes32[],address[])":"d590bd34","verifier()":"2b7ac3f3","withdrawFees()":"476343ee"},"id":1}