{"abi":[{"type":"function","name":"DEFAULT_ADMIN_ROLE","inputs":[],"outputs":[{"name":"","type":"bytes32","internalType":"bytes32"}],"stateMutability":"view"},{"type":"function","name":"acceptDefaultAdminTransfer","inputs":[],"outputs":[],"stateMutability":"nonpayable"},{"type":"function","name":"avail","inputs":[],"outputs":[{"name":"","type":"address","internalType":"contract IAvail"}],"stateMutability":"view"},{"type":"function","name":"beginDefaultAdminTransfer","inputs":[{"name":"newAdmin","type":"address","internalType":"address"}],"outputs":[],"stateMutability":"nonpayable"},{"type":"function","name":"cancelDefaultAdminTransfer","inputs":[],"outputs":[],"stateMutability":"nonpayable"},{"type":"function","name":"chainId","inputs":[],"outputs":[{"name":"","type":"bytes32","internalType":"bytes32"}],"stateMutability":"view"},{"type":"function","name":"changeDefaultAdminDelay","inputs":[{"name":"newDelay","type":"uint48","internalType":"uint48"}],"outputs":[],"stateMutability":"nonpayable"},{"type":"function","name":"defaultAdmin","inputs":[],"outputs":[{"name":"","type":"address","internalType":"address"}],"stateMutability":"view"},{"type":"function","name":"defaultAdminDelay","inputs":[],"outputs":[{"name":"","type":"uint48","internalType":"uint48"}],"stateMutability":"view"},{"type":"function","name":"defaultAdminDelayIncreaseWait","inputs":[],"outputs":[{"name":"","type":"uint48","internalType":"uint48"}],"stateMutability":"view"},{"type":"function","name":"feePerByte","inputs":[],"outputs":[{"name":"","type":"uint256","internalType":"uint256"}],"stateMutability":"view"},{"type":"function","name":"feeRecipient","inputs":[],"outputs":[{"name":"","type":"address","internalType":"address"}],"stateMutability":"view"},{"type":"function","name":"fees","inputs":[],"outputs":[{"name":"","type":"uint256","internalType":"uint256"}],"stateMutability":"view"},{"type":"function","name":"getFee","inputs":[{"name":"length","type":"uint256","internalType":"uint256"}],"outputs":[{"name":"","type":"uint256","internalType":"uint256"}],"stateMutability":"view"},{"type":"function","name":"getRoleAdmin","inputs":[{"name":"role","type":"bytes32","internalType":"bytes32"}],"outputs":[{"name":"","type":"bytes32","internalType":"bytes32"}],"stateMutability":"view"},{"type":"function","name":"grantRole","inputs":[{"name":"role","type":"bytes32","internalType":"bytes32"},{"name":"account","type":"address","internalType":"address"}],"outputs":[],"stateMutability":"nonpayable"},{"type":"function","name":"hasRole","inputs":[{"name":"role","type":"bytes32","internalType":"bytes32"},{"name":"account","type":"address","internalType":"address"}],"outputs":[{"name":"","type":"bool","internalType":"bool"}],"stateMutability":"view"},{"type":"function","name":"initialize","inputs":[{"name":"newFeePerByte","type":"uint256","internalType":"uint256"},{"name":"newFeeRecipient","type":"address","internalType":"address"},{"name":"newAvail","type":"address","internalType":"contract IAvail"},{"name":"governance","type":"address","internalType":"address"},{"name":"pauser","type":"address","internalType":"address"},{"name":"nexusStateManager","type":"address","internalType":"contract INexusProofManager"},{"name":"currentChainId","type":"bytes32","internalType":"bytes32"}],"outputs":[],"stateMutability":"nonpayable"},{"type":"function","name":"isBridged","inputs":[{"name":"","type":"bytes32","internalType":"bytes32"}],"outputs":[{"name":"","type":"bool","internalType":"bool"}],"stateMutability":"view"},{"type":"function","name":"isSent","inputs":[{"name":"","type":"uint256","internalType":"uint256"}],"outputs":[{"name":"","type":"bytes32","internalType":"bytes32"}],"stateMutability":"view"},{"type":"function","name":"messageId","inputs":[],"outputs":[{"name":"","type":"uint256","internalType":"uint256"}],"stateMutability":"view"},{"type":"function","name":"nexus","inputs":[],"outputs":[{"name":"","type":"address","internalType":"contract INexusProofManager"}],"stateMutability":"view"},{"type":"function","name":"nexusTokens","inputs":[{"name":"","type":"bytes32","internalType":"bytes32"}],"outputs":[{"name":"","type":"address","internalType":"address"}],"stateMutability":"view"},{"type":"function","name":"owner","inputs":[],"outputs":[{"name":"","type":"address","internalType":"address"}],"stateMutability":"view"},{"type":"function","name":"paused","inputs":[],"outputs":[{"name":"","type":"bool","internalType":"bool"}],"stateMutability":"view"},{"type":"function","name":"pendingDefaultAdmin","inputs":[],"outputs":[{"name":"newAdmin","type":"address","internalType":"address"},{"name":"schedule","type":"uint48","internalType":"uint48"}],"stateMutability":"view"},{"type":"function","name":"pendingDefaultAdminDelay","inputs":[],"outputs":[{"name":"newDelay","type":"uint48","internalType":"uint48"},{"name":"schedule","type":"uint48","internalType":"uint48"}],"stateMutability":"view"},{"type":"function","name":"receiveERC20","inputs":[{"name":"message","type":"tuple","internalType":"struct INexusBridge.MessageReceieve","components":[{"name":"messageType","type":"bytes1","internalType":"bytes1"},{"name":"from","type":"bytes32","internalType":"bytes32"},{"name":"to","type":"bytes32","internalType":"bytes32"},{"name":"data","type":"bytes","internalType":"bytes"},{"name":"messageId","type":"uint64","internalType":"uint64"},{"name":"storageProof","type":"bytes","internalType":"bytes"},{"name":"storageSlot","type":"bytes32","internalType":"bytes32"}]},{"name":"input","type":"bytes","internalType":"bytes"}],"outputs":[],"stateMutability":"nonpayable"},{"type":"function","name":"receiveETH","inputs":[{"name":"message","type":"tuple","internalType":"struct INexusBridge.MessageReceieve","components":[{"name":"messageType","type":"bytes1","internalType":"bytes1"},{"name":"from","type":"bytes32","internalType":"bytes32"},{"name":"to","type":"bytes32","internalType":"bytes32"},{"name":"data","type":"bytes","internalType":"bytes"},{"name":"messageId","type":"uint64","internalType":"uint64"},{"name":"storageProof","type":"bytes","internalType":"bytes"},{"name":"storageSlot","type":"bytes32","internalType":"bytes32"}]},{"name":"input","type":"bytes","internalType":"bytes"}],"outputs":[],"stateMutability":"nonpayable"},{"type":"function","name":"receiveMessage","inputs":[{"name":"message","type":"tuple","internalType":"struct INexusBridge.MessageReceieve","components":[{"name":"messageType","type":"bytes1","internalType":"bytes1"},{"name":"from","type":"bytes32","internalType":"bytes32"},{"name":"to","type":"bytes32","internalType":"bytes32"},{"name":"data","type":"bytes","internalType":"bytes"},{"name":"messageId","type":"uint64","internalType":"uint64"},{"name":"storageProof","type":"bytes","internalType":"bytes"},{"name":"storageSlot","type":"bytes32","internalType":"bytes32"}]},{"name":"input","type":"bytes","internalType":"bytes"}],"outputs":[],"stateMutability":"nonpayable"},{"type":"function","name":"renounceRole","inputs":[{"name":"role","type":"bytes32","internalType":"bytes32"},{"name":"account","type":"address","internalType":"address"}],"outputs":[],"stateMutability":"nonpayable"},{"type":"function","name":"revokeRole","inputs":[{"name":"role","type":"bytes32","internalType":"bytes32"},{"name":"account","type":"address","internalType":"address"}],"outputs":[],"stateMutability":"nonpayable"},{"type":"function","name":"rollbackDefaultAdminDelay","inputs":[],"outputs":[],"stateMutability":"nonpayable"},{"type":"function","name":"sendERC20","inputs":[{"name":"assetId","type":"bytes32","internalType":"bytes32"},{"name":"recipient","type":"bytes32","internalType":"bytes32"},{"name":"amount","type":"uint256","internalType":"uint256"}],"outputs":[],"stateMutability":"nonpayable"},{"type":"function","name":"sendETH","inputs":[{"name":"recipient","type":"bytes32","internalType":"bytes32"}],"outputs":[],"stateMutability":"payable"},{"type":"function","name":"sendMessage","inputs":[{"name":"recipient","type":"bytes32","internalType":"bytes32"},{"name":"data","type":"bytes","internalType":"bytes"}],"outputs":[],"stateMutability":"payable"},{"type":"function","name":"setPaused","inputs":[{"name":"status","type":"bool","internalType":"bool"}],"outputs":[],"stateMutability":"nonpayable"},{"type":"function","name":"supportsInterface","inputs":[{"name":"interfaceId","type":"bytes4","internalType":"bytes4"}],"outputs":[{"name":"","type":"bool","internalType":"bool"}],"stateMutability":"view"},{"type":"function","name":"tokens","inputs":[{"name":"","type":"bytes32","internalType":"bytes32"}],"outputs":[{"name":"","type":"address","internalType":"address"}],"stateMutability":"view"},{"type":"function","name":"updateFeePerByte","inputs":[{"name":"newFeePerByte","type":"uint256","internalType":"uint256"}],"outputs":[],"stateMutability":"nonpayable"},{"type":"function","name":"updateFeeRecipient","inputs":[{"name":"newFeeRecipient","type":"address","internalType":"address"}],"outputs":[],"stateMutability":"nonpayable"},{"type":"function","name":"updateNexusTokens","inputs":[{"name":"assetIds","type":"bytes32[]","internalType":"bytes32[]"},{"name":"tokenAddresses","type":"address[]","internalType":"address[]"}],"outputs":[],"stateMutability":"nonpayable"},{"type":"function","name":"updateTokens","inputs":[{"name":"assetIds","type":"bytes32[]","internalType":"bytes32[]"},{"name":"tokenAddresses","type":"address[]","internalType":"address[]"}],"outputs":[],"stateMutability":"nonpayable"},{"type":"function","name":"withdrawFees","inputs":[],"outputs":[],"stateMutability":"nonpayable"},{"type":"event","name":"DefaultAdminDelayChangeCanceled","inputs":[],"anonymous":false},{"type":"event","name":"DefaultAdminDelayChangeScheduled","inputs":[{"name":"newDelay","type":"uint48","indexed":false,"internalType":"uint48"},{"name":"effectSchedule","type":"uint48","indexed":false,"internalType":"uint48"}],"anonymous":false},{"type":"event","name":"DefaultAdminTransferCanceled","inputs":[],"anonymous":false},{"type":"event","name":"DefaultAdminTransferScheduled","inputs":[{"name":"newAdmin","type":"address","indexed":true,"internalType":"address"},{"name":"acceptSchedule","type":"uint48","indexed":false,"internalType":"uint48"}],"anonymous":false},{"type":"event","name":"Initialized","inputs":[{"name":"version","type":"uint64","indexed":false,"internalType":"uint64"}],"anonymous":false},{"type":"event","name":"MessageReceived","inputs":[{"name":"from","type":"bytes32","indexed":true,"internalType":"bytes32"},{"name":"to","type":"address","indexed":true,"internalType":"address"},{"name":"messageId","type":"uint256","indexed":false,"internalType":"uint256"}],"anonymous":false},{"type":"event","name":"MessageSent","inputs":[{"name":"from","type":"address","indexed":true,"internalType":"address"},{"name":"to","type":"bytes32","indexed":true,"internalType":"bytes32"},{"name":"messageId","type":"uint256","indexed":false,"internalType":"uint256"}],"anonymous":false},{"type":"event","name":"Paused","inputs":[{"name":"account","type":"address","indexed":false,"internalType":"address"}],"anonymous":false},{"type":"event","name":"RoleAdminChanged","inputs":[{"name":"role","type":"bytes32","indexed":true,"internalType":"bytes32"},{"name":"previousAdminRole","type":"bytes32","indexed":true,"internalType":"bytes32"},{"name":"newAdminRole","type":"bytes32","indexed":true,"internalType":"bytes32"}],"anonymous":false},{"type":"event","name":"RoleGranted","inputs":[{"name":"role","type":"bytes32","indexed":true,"internalType":"bytes32"},{"name":"account","type":"address","indexed":true,"internalType":"address"},{"name":"sender","type":"address","indexed":true,"internalType":"address"}],"anonymous":false},{"type":"event","name":"RoleRevoked","inputs":[{"name":"role","type":"bytes32","indexed":true,"internalType":"bytes32"},{"name":"account","type":"address","indexed":true,"internalType":"address"},{"name":"sender","type":"address","indexed":true,"internalType":"address"}],"anonymous":false},{"type":"event","name":"Unpaused","inputs":[{"name":"account","type":"address","indexed":false,"internalType":"address"}],"anonymous":false},{"type":"error","name":"AccessControlBadConfirmation","inputs":[]},{"type":"error","name":"AccessControlEnforcedDefaultAdminDelay","inputs":[{"name":"schedule","type":"uint48","internalType":"uint48"}]},{"type":"error","name":"AccessControlEnforcedDefaultAdminRules","inputs":[]},{"type":"error","name":"AccessControlInvalidDefaultAdmin","inputs":[{"name":"defaultAdmin","type":"address","internalType":"address"}]},{"type":"error","name":"AccessControlUnauthorizedAccount","inputs":[{"name":"account","type":"address","internalType":"address"},{"name":"neededRole","type":"bytes32","internalType":"bytes32"}]},{"type":"error","name":"AddressEmptyCode","inputs":[{"name":"target","type":"address","internalType":"address"}]},{"type":"error","name":"AddressInsufficientBalance","inputs":[{"name":"account","type":"address","internalType":"address"}]},{"type":"error","name":"AlreadyBridged","inputs":[]},{"type":"error","name":"ArrayLengthMismatch","inputs":[]},{"type":"error","name":"BlobRootEmpty","inputs":[]},{"type":"error","name":"BridgeRootEmpty","inputs":[]},{"type":"error","name":"DataRootCommitmentEmpty","inputs":[]},{"type":"error","name":"EnforcedPause","inputs":[]},{"type":"error","name":"ExpectedPause","inputs":[]},{"type":"error","name":"FailedInnerCall","inputs":[]},{"type":"error","name":"FeeTooLow","inputs":[]},{"type":"error","name":"InvalidAssetId","inputs":[]},{"type":"error","name":"InvalidDataLength","inputs":[]},{"type":"error","name":"InvalidDataRootProof","inputs":[]},{"type":"error","name":"InvalidDestinationOrAmount","inputs":[]},{"type":"error","name":"InvalidDomain","inputs":[]},{"type":"error","name":"InvalidFungibleTokenTransfer","inputs":[]},{"type":"error","name":"InvalidInitialization","inputs":[]},{"type":"error","name":"InvalidLeaf","inputs":[]},{"type":"error","name":"InvalidMerkleProof","inputs":[]},{"type":"error","name":"InvalidMessage","inputs":[]},{"type":"error","name":"NotInitializing","inputs":[]},{"type":"error","name":"ReentrancyGuardReentrantCall","inputs":[]},{"type":"error","name":"SafeCastOverflowedUintDowncast","inputs":[{"name":"bits","type":"uint8","internalType":"uint8"},{"name":"value","type":"uint256","internalType":"uint256"}]},{"type":"error","name":"SafeERC20FailedOperation","inputs":[{"name":"token","type":"address","internalType":"address"}]},{"type":"error","name":"UnlockFailed","inputs":[]},{"type":"error","name":"WithdrawFailed","inputs":[]}],"bytecode":{"object":"0x608060405234801561001057600080fd5b50612eae806100206000396000f3fe6080604052600436106102675760003560e01c8063701bbfe811610144578063a3f5c1d2116100b6578063d590bd341161007a578063d590bd341461076a578063d602b9fd1461078a578063e12a66591461079f578063f160d369146107bf578063f60bbe2a146107df578063fcee45f4146107f557600080fd5b8063a3f5c1d2146106c5578063cc8463c8146106e5578063cefc1429146106fa578063cf6eefb71461070f578063d547741f1461074a57600080fd5b8063904194a311610108578063904194a3146105fa57806391d14854146106305780639a8a0592146106505780639af1d35a14610666578063a1eda53c1461067c578063a217fddf146106b057600080fd5b8063701bbfe814610560578063758f666f146105905780637f0a41b7146105b057806384ef8ffc146105d05780638da5cb5b146105e557600080fd5b8063476343ee116101dd578063609158a3116101a1578063609158a31461049d578063634e93da146104bd57806363d91f40146104dd578063649a5ec71461050a578063669f618b1461052a578063694487f51461054057600080fd5b8063476343ee146104035780634ee13e6b146104185780635bdeac42146104385780635c975abb146104585780635e6c8c6c1461047d57600080fd5b806323c640e71161022f57806323c640e714610314578063248a9ca3146103275780632f2ff15d1461035557806336568abe1461037557806338c4810d1461039557806346904840146103e357600080fd5b806301ffc9a71461026c578063022d63fb146102a15780630846691f146102ca5780630aa6220b146102df57806316c38b3c146102f4575b600080fd5b34801561027857600080fd5b5061028c610287366004612761565b610815565b60405190151581526020015b60405180910390f35b3480156102ad57600080fd5b50620697805b60405165ffffffffffff9091168152602001610298565b6102dd6102d836600461278b565b610840565b005b3480156102eb57600080fd5b506102dd61095a565b34801561030057600080fd5b506102dd61030f3660046127b2565b610970565b6102dd610322366004612817565b6109b4565b34801561033357600080fd5b5061034761034236600461278b565b610b2a565b604051908152602001610298565b34801561036157600080fd5b506102dd610370366004612877565b610b4c565b34801561038157600080fd5b506102dd610390366004612877565b610b74565b3480156103a157600080fd5b506103cb6103b036600461278b565b6003602052600090815260409020546001600160a01b031681565b6040516001600160a01b039091168152602001610298565b3480156103ef57600080fd5b506006546103cb906001600160a01b031681565b34801561040f57600080fd5b506102dd610c3d565b34801561042457600080fd5b506102dd6104333660046128a7565b610cbd565b34801561044457600080fd5b506004546103cb906001600160a01b031681565b34801561046457600080fd5b50600080516020612e198339815191525460ff1661028c565b34801561048957600080fd5b506102dd61049836600461278b565b610d72565b3480156104a957600080fd5b506102dd6104b83660046128a7565b610d83565b3480156104c957600080fd5b506102dd6104d836600461290a565b610f72565b3480156104e957600080fd5b506103476104f836600461278b565b60006020819052908152604090205481565b34801561051657600080fd5b506102dd610525366004612927565b610f86565b34801561053657600080fd5b5061034760095481565b34801561054c57600080fd5b506102dd61055b3660046128a7565b610f9a565b34801561056c57600080fd5b5061028c61057b36600461278b565b60016020526000908152604090205460ff1681565b34801561059c57600080fd5b506102dd6105ab36600461294f565b61118f565b3480156105bc57600080fd5b506102dd6105cb36600461297b565b61143e565b3480156105dc57600080fd5b506103cb6115d5565b3480156105f157600080fd5b506103cb6115f1565b34801561060657600080fd5b506103cb61061536600461278b565b6002602052600090815260409020546001600160a01b031681565b34801561063c57600080fd5b5061028c61064b366004612877565b611600565b34801561065c57600080fd5b50610347600a5481565b34801561067257600080fd5b5061034760075481565b34801561068857600080fd5b50610691611638565b6040805165ffffffffffff938416815292909116602083015201610298565b3480156106bc57600080fd5b50610347600081565b3480156106d157600080fd5b506005546103cb906001600160a01b031681565b3480156106f157600080fd5b506102b36116ab565b34801561070657600080fd5b506102dd611729565b34801561071b57600080fd5b50610724611769565b604080516001600160a01b03909316835265ffffffffffff909116602083015201610298565b34801561075657600080fd5b506102dd610765366004612877565b611797565b34801561077657600080fd5b506102dd610785366004612a43565b6117bf565b34801561079657600080fd5b506102dd611907565b3480156107ab57600080fd5b506102dd6107ba366004612a43565b61191a565b3480156107cb57600080fd5b506102dd6107da36600461290a565b611a59565b3480156107eb57600080fd5b5061034760085481565b34801561080157600080fd5b5061034761081036600461278b565b611a87565b60006001600160e01b031982166318a4c3c360e11b148061083a575061083a82611a97565b92915050565b610848611acc565b8034811580610855575080155b8061086657506001600160801b0381115b15610884576040516329fd423f60e01b815260040160405180910390fd5b60098054600181019091556040805160a081018252600160f91b815233606090811b6001600160601b03191660208084019190915282840188905283516208aa8960eb1b8183015234818601528451808203860181529083018552918301919091526001600160401b03841660808301529151909161090591839101612ad2565b60408051601f1981840301815282825280516020918201206000868152918290529190205585903390600080516020612d998339815191529061094b9086815260200190565b60405180910390a35050505050565b600061096581611aff565b61096d611b09565b50565b7f65d7a28e3265b37a6474929f336521b332c1681b933f6cb9f3376673440d862a61099a81611aff565b81156109ac576109a8611b14565b5050565b6109a8611b77565b6109bc611acc565b808015806109cc57506201900081115b156109ea57604051630dfe930960e41b815260040160405180910390fd5b6109f381611a87565b341015610a135760405163732f941360e01b815260040160405180910390fd5b600980546001810190915560078054349190600090610a33908490612b5b565b9250508190555060006040518060a00160405280600160f81b6001600160f81b03191681526020013360601b6bffffffffffffffffffffffff1916815260200187815260200186868080601f0160208091040260200160405190810160405280939291908181526020018383808284376000920191909152505050908252506001600160401b038416602091820152604051919250610ad491839101612ad2565b60408051601f1981840301815282825280516020918201206000868152918290529190205586903390600080516020612d9983398151915290610b1a9086815260200190565b60405180910390a3505050505050565b6000908152600080516020612df9833981519152602052604090206001015490565b81610b6a57604051631fe1e13d60e11b815260040160405180910390fd5b6109a88282611bbd565b600080516020612dd983398151915282158015610ba95750610b946115d5565b6001600160a01b0316826001600160a01b0316145b15610c2e57600080610bb9611769565b90925090506001600160a01b038216151580610bdb575065ffffffffffff8116155b80610bee57504265ffffffffffff821610155b15610c1b576040516319ca5ebb60e01b815265ffffffffffff821660048201526024015b60405180910390fd5b5050805465ffffffffffff60a01b191681555b610c388383611bd9565b505050565b600780546000918290556006546040519192916001600160a01b039091169083908381818185875af1925050503d8060008114610c96576040519150601f19603f3d011682016040523d82523d6000602084013e610c9b565b606091505b50509050806109a857604051631d42c86760e21b815260040160405180910390fd5b610cc5611acc565b610ccd611c0c565b600160f81b610cdf6020850185612b6e565b6001600160f81b03191614610d0757604051636eca2e4b60e01b815260040160405180910390fd5b610d12838383611c44565b604083013560601c806020850135600080516020612db9833981519152610d3f60a0880160808901612b98565b6040516001600160401b03909116815260200160405180910390a350610c386001600080516020612e3983398151915255565b6000610d7d81611aff565b50600855565b610d8b611acc565b610d986020840184612b6e565b6001600160f81b03198116600160f91b14610dc65760405163c51b845360e01b815260040160405180910390fd5b610dce611c0c565b600080610dde6060870187612bc1565b810190610deb9190612c07565b91509150610dfa868686611c44565b60208601356001600160a01b03811681600080516020612db9833981519152610e2960a08b0160808c01612b98565b6040516001600160401b03909116815260200160405180910390a36000838152600360205260409020546001600160a01b031615610edc57600083815260036020526040908190205490516340c10f1960e01b81526001600160a01b03838116600483015260248201859052909116906340c10f1990604401600060405180830381600087803b158015610ebc57600080fd5b505af1158015610ed0573d6000803e3d6000fd5b50505050505050610f55565b6000816001600160a01b03168360405160006040518083038185875af1925050503d8060008114610f29576040519150601f19603f3d011682016040523d82523d6000602084013e610f2e565b606091505b5050905080610f5057604051635f0ad7b760e11b815260040160405180910390fd5b505050505b610f6c6001600080516020612e3983398151915255565b50505050565b6000610f7d81611aff565b6109a882611e4b565b6000610f9181611aff565b6109a882611ebe565b610fa2611acc565b610faf6020840184612b6e565b6001600160f81b03198116600160f91b14610fdd5760405163c51b845360e01b815260040160405180910390fd5b610fe5611c0c565b600080610ff56060870187612bc1565b8101906110029190612c07565b60008281526002602052604090205491935091506001600160a01b0316801561109757611030878787611c44565b60208701356001600160a01b03811681600080516020612db983398151915261105f60a08c0160808d01612b98565b6040516001600160401b03909116815260200160405180910390a361108e6001600160a01b0383168285611f2e565b50505050610f55565b506000828152600360205260409020546001600160a01b03168015611176576110c1878787611c44565b60208701356001600160a01b03811681600080516020612db98339815191526110f060a08c0160808d01612b98565b6040516001600160401b03909116815260200160405180910390a36040516340c10f1960e01b81526001600160a01b038281166004830152602482018590528316906340c10f1990604401600060405180830381600087803b15801561115557600080fd5b505af1158015611169573d6000803e3d6000fd5b5050505050505050610f55565b6040516307d7e52d60e51b815260040160405180910390fd5b611197611acc565b81818115806111a4575080155b806111b557506001600160801b0381115b156111d3576040516329fd423f60e01b815260040160405180910390fd5b6000858152600260205260409020546001600160a01b031680156112e15760098054600181019091556040805160a081018252600160f91b815233606090811b6001600160601b0319166020808401919091528284018a905283519081018b905292830188905260009281830191016040516020818303038152906040528152602001836001600160401b03168152509050806040516020016112769190612ad2565b60408051601f1981840301815282825280516020918201206000868152918290529190205587903390600080516020612d99833981519152906112bc9086815260200190565b60405180910390a36112d96001600160a01b038416333089611f8d565b505050611437565b506000858152600360205260409020546001600160a01b031680156111765760098054600181019091556040805160a081018252600160f91b815233606090811b6001600160601b0319166020808401919091528284018a905283519081018b905292830188905260009281830191016040516020818303038152906040528152602001836001600160401b03168152509050806040516020016113859190612ad2565b60408051601f1981840301815282825280516020918201206000868152918290529190205587903390600080516020612d99833981519152906113cb9086815260200190565b60405180910390a3604051632770a7eb60e21b8152336004820152602481018790526001600160a01b03841690639dc29fac90604401600060405180830381600087803b15801561141b57600080fd5b505af115801561142f573d6000803e3d6000fd5b505050505050505b5050505050565b7ff0c57e16840df040f15088dc2f81fe391c3923bec73e23a9662efc9c229c6a008054600160401b810460ff1615906001600160401b03166000811580156114835750825b90506000826001600160401b0316600114801561149f5750303b155b9050811580156114ad575080155b156114cb5760405163f92ee8a960e01b815260040160405180910390fd5b845467ffffffffffffffff1916600117855583156114f557845460ff60401b1916600160401b1785555b60088c9055600680546001600160a01b03808e166001600160a01b031992831617909255600480548d841690831617905560058054928a1692909116919091179055600a86905561154760008a611fc6565b6115717f65d7a28e3265b37a6474929f336521b332c1681b933f6cb9f3376673440d862a89611fd8565b5061157a61204f565b61158261205f565b831561142f57845460ff60401b19168555604051600181527fc7f505b2f371ae2175ee4913f4499e1f2633a7b5936321eed1cdaeb6115181d29060200160405180910390a1505050505050505050505050565b600080516020612e59833981519152546001600160a01b031690565b60006115fb6115d5565b905090565b6000918252600080516020612df9833981519152602090815260408084206001600160a01b0393909316845291905290205460ff1690565b600080516020612e5983398151915254600090600160d01b900465ffffffffffff16600080516020612dd9833981519152811580159061168057504265ffffffffffff831610155b61168c576000806116a2565b6001810154600160a01b900465ffffffffffff16825b92509250509091565b600080516020612e5983398151915254600090600080516020612dd983398151915290600160d01b900465ffffffffffff1680158015906116f357504265ffffffffffff8216105b61170d578154600160d01b900465ffffffffffff16611722565b6001820154600160a01b900465ffffffffffff165b9250505090565b6000611733611769565b509050336001600160a01b0382161461176157604051636116401160e11b8152336004820152602401610c12565b61096d61206f565b600080516020612dd9833981519152546001600160a01b03811691600160a01b90910465ffffffffffff1690565b816117b557604051631fe1e13d60e11b815260040160405180910390fd5b6109a8828261210c565b60006117ca81611aff565b838281146117eb5760405163512509d360e11b815260040160405180910390fd5b60005b818110156118fe57600060038189898581811061180d5761180d612c29565b60209081029290920135835250810191909152604001600020546001600160a01b03161461187d5760405162461bcd60e51b815260206004820152601d60248201527f61737365742069642075736564206279206e6578757320746f6b656e730000006044820152606401610c12565b84848281811061188f5761188f612c29565b90506020020160208101906118a4919061290a565b600260008989858181106118ba576118ba612c29565b90506020020135815260200190815260200160002060006101000a8154816001600160a01b0302191690836001600160a01b031602179055508060010190506117ee565b50505050505050565b600061191281611aff565b61096d612128565b600061192581611aff565b838281146119465760405163512509d360e11b815260040160405180910390fd5b60005b818110156118fe57600060028189898581811061196857611968612c29565b60209081029290920135835250810191909152604001600020546001600160a01b0316146119d85760405162461bcd60e51b815260206004820181905260248201527f61737365742069642075736564206279207374616e6461726420746f6b656e736044820152606401610c12565b8484828181106119ea576119ea612c29565b90506020020160208101906119ff919061290a565b60036000898985818110611a1557611a15612c29565b90506020020135815260200190815260200160002060006101000a8154816001600160a01b0302191690836001600160a01b03160217905550806001019050611949565b6000611a6481611aff565b50600680546001600160a01b0319166001600160a01b0392909216919091179055565b60006008548261083a9190612c3f565b60006001600160e01b03198216637965db0b60e01b148061083a57506301ffc9a760e01b6001600160e01b031983161461083a565b600080516020612e198339815191525460ff1615611afd5760405163d93c066560e01b815260040160405180910390fd5b565b61096d8133612133565b611afd60008061216c565b611b1c611acc565b600080516020612e19833981519152805460ff191660011781557f62e78cea01bee320cd4e420270b5ea74000d11b0c9f74754ebdbfc544b05a258335b6040516001600160a01b03909116815260200160405180910390a150565b611b7f612247565b600080516020612e19833981519152805460ff191681557f5db9ee0a495bf2e6ff9c91a7834c1ba4fdd244a5e8aa4e537bd38aeae4b073aa33611b59565b611bc682610b2a565b611bcf81611aff565b610f6c8383611fd8565b6001600160a01b0381163314611c025760405163334bd91960e11b815260040160405180910390fd5b610c388282612277565b600080516020612e39833981519152805460011901611c3e57604051633ee5aeb560e01b815260040160405180910390fd5b60029055565b600554600a5460405163266218bb60e21b81526000926001600160a01b03169163998862ec91611c81918591600401918252602082015260400190565b6020604051808303816000875af1158015611ca0573d6000803e3d6000fd5b505050506040513d601f19601f82011682018060405250810190611cc49190612c56565b60055460408051637f1b8c7360e01b81529293506000926001600160a01b0390921691637f1b8c7391611d03918691899189918c013590600401612c98565b608060405180830381865afa158015611d20573d6000803e3d6000fd5b505050506040513d601f19601f82011682018060405250810190611d449190612ccb565b93505050507f56e81f171bcc55a6ff8345e692c0f86e5b48e01b996cadc001622fb5e363b42160001b8103611dab5760405162461bcd60e51b815260206004820152600d60248201526c696e76616c696420656e74727960981b6044820152606401610c12565b6005546001600160a01b0316636f7096dc8260c0880135611dcf60a08a018a612bc1565b6040518563ffffffff1660e01b8152600401611dee9493929190612d01565b602060405180830381865afa158015611e0b573d6000803e3d6000fd5b505050506040513d601f19601f82011682018060405250810190611e2f9190612c56565b505050505050565b6001600080516020612e3983398151915255565b6000611e556116ab565b611e5e426122d0565b611e689190612d21565b9050611e748282612307565b60405165ffffffffffff821681526001600160a01b038316907f3377dc44241e779dd06afab5b788a35ca5f3b778836e2990bdb26a2a4b2e5ed69060200160405180910390a25050565b6000611ec982612394565b611ed2426122d0565b611edc9190612d21565b9050611ee8828261216c565b6040805165ffffffffffff8085168252831660208201527ff1038c18cf84a56e432fdbfaf746924b7ea511dfe03a6506a0ceba4888788d9b910160405180910390a15050565b6040516001600160a01b03838116602483015260448201839052610c3891859182169063a9059cbb906064015b604051602081830303815290604052915060e01b6020820180516001600160e01b0383818316178352505050506123e3565b6040516001600160a01b038481166024830152838116604483015260648201839052610f6c9186918216906323b872dd90608401611f5b565b611fce612446565b6109a8828261248f565b6000600080516020612dd98339815191528361203d576000611ff86115d5565b6001600160a01b03161461201f57604051631fe1e13d60e11b815260040160405180910390fd5b6001810180546001600160a01b0319166001600160a01b0385161790555b61204784846124f8565b949350505050565b612057612446565b611afd6125a4565b612067612446565b611afd6125c5565b600080516020612dd9833981519152600080612089611769565b9150915061209e8165ffffffffffff16151590565b15806120b257504265ffffffffffff821610155b156120da576040516319ca5ebb60e01b815265ffffffffffff82166004820152602401610c12565b6120ec60006120e76115d5565b612277565b506120f8600083611fd8565b505081546001600160d01b03191690915550565b61211582610b2a565b61211e81611aff565b610f6c8383612277565b611afd600080612307565b61213d8282611600565b6109a85760405163e2517d3f60e01b81526001600160a01b038216600482015260248101839052604401610c12565b600080516020612e5983398151915254600080516020612dd983398151915290600160d01b900465ffffffffffff168015612209574265ffffffffffff821610156121df57600182015482546001600160d01b0316600160a01b90910465ffffffffffff16600160d01b02178255612209565b6040517f2b1fa2edafe6f7b9e97c1a9e0c3660e645beb2dcaa2d45bdbf9beaf5472e1ec590600090a15b5060010180546001600160a01b0316600160a01b65ffffffffffff948516026001600160d01b031617600160d01b9290931691909102919091179055565b600080516020612e198339815191525460ff16611afd57604051638dfc202b60e01b815260040160405180910390fd5b6000600080516020612dd9833981519152831580156122ae57506122996115d5565b6001600160a01b0316836001600160a01b0316145b156122c6576001810180546001600160a01b03191690555b61204784846125cd565b600065ffffffffffff821115612303576040516306dfcc6560e41b81526030600482015260248101839052604401610c12565b5090565b600080516020612dd98339815191526000612320611769565b835465ffffffffffff8616600160a01b026001600160d01b03199091166001600160a01b03881617178455915061236090508165ffffffffffff16151590565b15610f6c576040517f8886ebfc4259abdbc16601dd8fb5678e54878f47b3c34836cfc51154a960510990600090a150505050565b60008061239f6116ab565b90508065ffffffffffff168365ffffffffffff16116123c7576123c28382612d40565b6123dc565b6123dc65ffffffffffff841662069780612649565b9392505050565b60006123f86001600160a01b0384168361265f565b9050805160001415801561241d57508080602001905181019061241b9190612d5f565b155b15610c3857604051635274afe760e01b81526001600160a01b0384166004820152602401610c12565b7ff0c57e16840df040f15088dc2f81fe391c3923bec73e23a9662efc9c229c6a0054600160401b900460ff16611afd57604051631afcd79f60e31b815260040160405180910390fd5b612497612446565b600080516020612dd98339815191526001600160a01b0382166124d057604051636116401160e11b815260006004820152602401610c12565b80546001600160d01b0316600160d01b65ffffffffffff851602178155610f6c600083611fd8565b6000600080516020612df98339815191526125138484611600565b612593576000848152602082815260408083206001600160a01b03871684529091529020805460ff191660011790556125493390565b6001600160a01b0316836001600160a01b0316857f2f8788117e7eff1d82e926ec794901d17c78024a50270940304540a733656f0d60405160405180910390a4600191505061083a565b600091505061083a565b5092915050565b6125ac612446565b600080516020612e19833981519152805460ff19169055565b611e37612446565b6000600080516020612df98339815191526125e88484611600565b15612593576000848152602082815260408083206001600160a01b0387168085529252808320805460ff1916905551339287917ff6391f5c32d9c69d2a47ea670b442974b53935d1edc7fd64eb21e047a839171b9190a4600191505061083a565b600081831061265857816123dc565b5090919050565b60606123dc8383600084600080856001600160a01b031684866040516126859190612d7c565b60006040518083038185875af1925050503d80600081146126c2576040519150601f19603f3d011682016040523d82523d6000602084013e6126c7565b606091505b50915091506126d78683836126e1565b9695505050505050565b6060826126f1576123c282612738565b815115801561270857506001600160a01b0384163b155b1561273157604051639996b31560e01b81526001600160a01b0385166004820152602401610c12565b50806123dc565b8051156127485780518082602001fd5b604051630a12f52160e11b815260040160405180910390fd5b60006020828403121561277357600080fd5b81356001600160e01b0319811681146123dc57600080fd5b60006020828403121561279d57600080fd5b5035919050565b801515811461096d57600080fd5b6000602082840312156127c457600080fd5b81356123dc816127a4565b60008083601f8401126127e157600080fd5b5081356001600160401b038111156127f857600080fd5b60208301915083602082850101111561281057600080fd5b9250929050565b60008060006040848603121561282c57600080fd5b8335925060208401356001600160401b0381111561284957600080fd5b612855868287016127cf565b9497909650939450505050565b6001600160a01b038116811461096d57600080fd5b6000806040838503121561288a57600080fd5b82359150602083013561289c81612862565b809150509250929050565b6000806000604084860312156128bc57600080fd5b83356001600160401b03808211156128d357600080fd5b9085019060e082880312156128e757600080fd5b909350602085013590808211156128fd57600080fd5b50612855868287016127cf565b60006020828403121561291c57600080fd5b81356123dc81612862565b60006020828403121561293957600080fd5b813565ffffffffffff811681146123dc57600080fd5b60008060006060848603121561296457600080fd5b505081359360208301359350604090920135919050565b600080600080600080600060e0888a03121561299657600080fd5b8735965060208801356129a881612862565b955060408801356129b881612862565b945060608801356129c881612862565b935060808801356129d881612862565b925060a08801356129e881612862565b8092505060c0880135905092959891949750929550565b60008083601f840112612a1157600080fd5b5081356001600160401b03811115612a2857600080fd5b6020830191508360208260051b850101111561281057600080fd5b60008060008060408587031215612a5957600080fd5b84356001600160401b0380821115612a7057600080fd5b612a7c888389016129ff565b90965094506020870135915080821115612a9557600080fd5b50612aa2878288016129ff565b95989497509550505050565b60005b83811015612ac9578181015183820152602001612ab1565b50506000910152565b6020815260ff60f81b825116602082015260208201516040820152604082015160608201526000606083015160a0608084015280518060c0850152612b1e8160e0860160208501612aae565b608094909401516001600160401b031660a0840152505060e0601f909201601f1916010190565b634e487b7160e01b600052601160045260246000fd5b8082018082111561083a5761083a612b45565b600060208284031215612b8057600080fd5b81356001600160f81b0319811681146123dc57600080fd5b600060208284031215612baa57600080fd5b81356001600160401b03811681146123dc57600080fd5b6000808335601e19843603018112612bd857600080fd5b8301803591506001600160401b03821115612bf257600080fd5b60200191503681900382131561281057600080fd5b60008060408385031215612c1a57600080fd5b50508035926020909101359150565b634e487b7160e01b600052603260045260246000fd5b808202811582820484141761083a5761083a612b45565b600060208284031215612c6857600080fd5b5051919050565b81835281816020850137506000828201602090810191909152601f909101601f19169091010190565b848152606060208201526000612cb2606083018587612c6f565b905060018060a01b038316604083015295945050505050565b60008060008060808587031215612ce157600080fd5b505082516020840151604085015160609095015191969095509092509050565b8481528360208201526060604082015260006126d7606083018486612c6f565b65ffffffffffff81811683821601908082111561259d5761259d612b45565b65ffffffffffff82811682821603908082111561259d5761259d612b45565b600060208284031215612d7157600080fd5b81516123dc816127a4565b60008251612d8e818460208701612aae565b919091019291505056fe06fd209663be9278f96bc53dfbf6cf3cdcf2172c38b5de30abff93ba443d653a4ad8286366216a121ffbecdd11163a134fc364cdf7cc99aae4cc3221d8d92269eef3dac4538c82c8ace4063ab0acd2d15cdb5883aa1dff7c2673abb3d869840002dd7bc7dec4dceedda775e58dd541e08a116c6c53815c0bd028192f7b626800cd5ed15c6e187e77e9aee88184c21f4f2182ab5827cb3b7e07fbedcd63f033009b779b17422d0df92223018b32b4d1fa46e071723d6817e2486d003becc55f00eef3dac4538c82c8ace4063ab0acd2d15cdb5883aa1dff7c2673abb3d8698401a2646970667358221220a4288cacd4f06bcfb5f80a51e5cee4d00ac84e467b425c932e363db275f8960e64736f6c63430008140033","linkReferences":{}},"methodIdentifiers":{"DEFAULT_ADMIN_ROLE()":"a217fddf","acceptDefaultAdminTransfer()":"cefc1429","avail()":"5bdeac42","beginDefaultAdminTransfer(address)":"634e93da","cancelDefaultAdminTransfer()":"d602b9fd","chainId()":"9a8a0592","changeDefaultAdminDelay(uint48)":"649a5ec7","defaultAdmin()":"84ef8ffc","defaultAdminDelay()":"cc8463c8","defaultAdminDelayIncreaseWait()":"022d63fb","feePerByte()":"f60bbe2a","feeRecipient()":"46904840","fees()":"9af1d35a","getFee(uint256)":"fcee45f4","getRoleAdmin(bytes32)":"248a9ca3","grantRole(bytes32,address)":"2f2ff15d","hasRole(bytes32,address)":"91d14854","initialize(uint256,address,address,address,address,address,bytes32)":"7f0a41b7","isBridged(bytes32)":"701bbfe8","isSent(uint256)":"63d91f40","messageId()":"669f618b","nexus()":"a3f5c1d2","nexusTokens(bytes32)":"38c4810d","owner()":"8da5cb5b","paused()":"5c975abb","pendingDefaultAdmin()":"cf6eefb7","pendingDefaultAdminDelay()":"a1eda53c","receiveERC20((bytes1,bytes32,bytes32,bytes,uint64,bytes,bytes32),bytes)":"694487f5","receiveETH((bytes1,bytes32,bytes32,bytes,uint64,bytes,bytes32),bytes)":"609158a3","receiveMessage((bytes1,bytes32,bytes32,bytes,uint64,bytes,bytes32),bytes)":"4ee13e6b","renounceRole(bytes32,address)":"36568abe","revokeRole(bytes32,address)":"d547741f","rollbackDefaultAdminDelay()":"0aa6220b","sendERC20(bytes32,bytes32,uint256)":"758f666f","sendETH(bytes32)":"0846691f","sendMessage(bytes32,bytes)":"23c640e7","setPaused(bool)":"16c38b3c","supportsInterface(bytes4)":"01ffc9a7","tokens(bytes32)":"904194a3","updateFeePerByte(uint256)":"5e6c8c6c","updateFeeRecipient(address)":"f160d369","updateNexusTokens(bytes32[],address[])":"e12a6659","updateTokens(bytes32[],address[])":"d590bd34","withdrawFees()":"476343ee"},"id":2}