{"abi":[{"type":"function","name":"DEFAULT_ADMIN_ROLE","inputs":[],"outputs":[{"name":"","type":"bytes32","internalType":"bytes32"}],"stateMutability":"view"},{"type":"function","name":"acceptDefaultAdminTransfer","inputs":[],"outputs":[],"stateMutability":"nonpayable"},{"type":"function","name":"avail","inputs":[],"outputs":[{"name":"","type":"address","internalType":"contract IAvail"}],"stateMutability":"view"},{"type":"function","name":"beginDefaultAdminTransfer","inputs":[{"name":"newAdmin","type":"address","internalType":"address"}],"outputs":[],"stateMutability":"nonpayable"},{"type":"function","name":"cancelDefaultAdminTransfer","inputs":[],"outputs":[],"stateMutability":"nonpayable"},{"type":"function","name":"chainId","inputs":[],"outputs":[{"name":"","type":"bytes32","internalType":"bytes32"}],"stateMutability":"view"},{"type":"function","name":"changeDefaultAdminDelay","inputs":[{"name":"newDelay","type":"uint48","internalType":"uint48"}],"outputs":[],"stateMutability":"nonpayable"},{"type":"function","name":"defaultAdmin","inputs":[],"outputs":[{"name":"","type":"address","internalType":"address"}],"stateMutability":"view"},{"type":"function","name":"defaultAdminDelay","inputs":[],"outputs":[{"name":"","type":"uint48","internalType":"uint48"}],"stateMutability":"view"},{"type":"function","name":"defaultAdminDelayIncreaseWait","inputs":[],"outputs":[{"name":"","type":"uint48","internalType":"uint48"}],"stateMutability":"view"},{"type":"function","name":"feePerByte","inputs":[],"outputs":[{"name":"","type":"uint256","internalType":"uint256"}],"stateMutability":"view"},{"type":"function","name":"feeRecipient","inputs":[],"outputs":[{"name":"","type":"address","internalType":"address"}],"stateMutability":"view"},{"type":"function","name":"fees","inputs":[],"outputs":[{"name":"","type":"uint256","internalType":"uint256"}],"stateMutability":"view"},{"type":"function","name":"getFee","inputs":[{"name":"length","type":"uint256","internalType":"uint256"}],"outputs":[{"name":"","type":"uint256","internalType":"uint256"}],"stateMutability":"view"},{"type":"function","name":"getRoleAdmin","inputs":[{"name":"role","type":"bytes32","internalType":"bytes32"}],"outputs":[{"name":"","type":"bytes32","internalType":"bytes32"}],"stateMutability":"view"},{"type":"function","name":"grantRole","inputs":[{"name":"role","type":"bytes32","internalType":"bytes32"},{"name":"account","type":"address","internalType":"address"}],"outputs":[],"stateMutability":"nonpayable"},{"type":"function","name":"hasRole","inputs":[{"name":"role","type":"bytes32","internalType":"bytes32"},{"name":"account","type":"address","internalType":"address"}],"outputs":[{"name":"","type":"bool","internalType":"bool"}],"stateMutability":"view"},{"type":"function","name":"initialize","inputs":[{"name":"newFeePerByte","type":"uint256","internalType":"uint256"},{"name":"newFeeRecipient","type":"address","internalType":"address"},{"name":"newAvail","type":"address","internalType":"contract IAvail"},{"name":"governance","type":"address","internalType":"address"},{"name":"pauser","type":"address","internalType":"address"},{"name":"nexusStateManager","type":"address","internalType":"contract INexusProofManager"},{"name":"currentChainId","type":"bytes32","internalType":"bytes32"},{"name":"_verifier","type":"address","internalType":"contract EthereumVerifier"}],"outputs":[],"stateMutability":"nonpayable"},{"type":"function","name":"isBridged","inputs":[{"name":"","type":"bytes32","internalType":"bytes32"}],"outputs":[{"name":"","type":"bool","internalType":"bool"}],"stateMutability":"view"},{"type":"function","name":"isSent","inputs":[{"name":"","type":"uint256","internalType":"uint256"}],"outputs":[{"name":"","type":"bytes32","internalType":"bytes32"}],"stateMutability":"view"},{"type":"function","name":"messageId","inputs":[],"outputs":[{"name":"","type":"uint256","internalType":"uint256"}],"stateMutability":"view"},{"type":"function","name":"nexus","inputs":[],"outputs":[{"name":"","type":"address","internalType":"contract INexusProofManager"}],"stateMutability":"view"},{"type":"function","name":"nexusTokens","inputs":[{"name":"","type":"bytes32","internalType":"bytes32"}],"outputs":[{"name":"","type":"address","internalType":"address"}],"stateMutability":"view"},{"type":"function","name":"owner","inputs":[],"outputs":[{"name":"","type":"address","internalType":"address"}],"stateMutability":"view"},{"type":"function","name":"paused","inputs":[],"outputs":[{"name":"","type":"bool","internalType":"bool"}],"stateMutability":"view"},{"type":"function","name":"pendingDefaultAdmin","inputs":[],"outputs":[{"name":"newAdmin","type":"address","internalType":"address"},{"name":"schedule","type":"uint48","internalType":"uint48"}],"stateMutability":"view"},{"type":"function","name":"pendingDefaultAdminDelay","inputs":[],"outputs":[{"name":"newDelay","type":"uint48","internalType":"uint48"},{"name":"schedule","type":"uint48","internalType":"uint48"}],"stateMutability":"view"},{"type":"function","name":"receiveERC20","inputs":[{"name":"message","type":"tuple","internalType":"struct INexusBridge.MessageReceieve","components":[{"name":"messageType","type":"bytes1","internalType":"bytes1"},{"name":"from","type":"bytes32","internalType":"bytes32"},{"name":"to","type":"bytes32","internalType":"bytes32"},{"name":"data","type":"bytes","internalType":"bytes"},{"name":"messageId","type":"uint64","internalType":"uint64"},{"name":"storageProof","type":"bytes","internalType":"bytes"},{"name":"storageSlot","type":"bytes32","internalType":"bytes32"},{"name":"slotValue","type":"bytes32","internalType":"bytes32"}]},{"name":"input","type":"bytes","internalType":"bytes"}],"outputs":[],"stateMutability":"nonpayable"},{"type":"function","name":"receiveETH","inputs":[{"name":"message","type":"tuple","internalType":"struct INexusBridge.MessageReceieve","components":[{"name":"messageType","type":"bytes1","internalType":"bytes1"},{"name":"from","type":"bytes32","internalType":"bytes32"},{"name":"to","type":"bytes32","internalType":"bytes32"},{"name":"data","type":"bytes","internalType":"bytes"},{"name":"messageId","type":"uint64","internalType":"uint64"},{"name":"storageProof","type":"bytes","internalType":"bytes"},{"name":"storageSlot","type":"bytes32","internalType":"bytes32"},{"name":"slotValue","type":"bytes32","internalType":"bytes32"}]},{"name":"input","type":"bytes","internalType":"bytes"}],"outputs":[],"stateMutability":"nonpayable"},{"type":"function","name":"receiveMessage","inputs":[{"name":"message","type":"tuple","internalType":"struct INexusBridge.MessageReceieve","components":[{"name":"messageType","type":"bytes1","internalType":"bytes1"},{"name":"from","type":"bytes32","internalType":"bytes32"},{"name":"to","type":"bytes32","internalType":"bytes32"},{"name":"data","type":"bytes","internalType":"bytes"},{"name":"messageId","type":"uint64","internalType":"uint64"},{"name":"storageProof","type":"bytes","internalType":"bytes"},{"name":"storageSlot","type":"bytes32","internalType":"bytes32"},{"name":"slotValue","type":"bytes32","internalType":"bytes32"}]},{"name":"input","type":"bytes","internalType":"bytes"}],"outputs":[],"stateMutability":"nonpayable"},{"type":"function","name":"renounceRole","inputs":[{"name":"role","type":"bytes32","internalType":"bytes32"},{"name":"account","type":"address","internalType":"address"}],"outputs":[],"stateMutability":"nonpayable"},{"type":"function","name":"revokeRole","inputs":[{"name":"role","type":"bytes32","internalType":"bytes32"},{"name":"account","type":"address","internalType":"address"}],"outputs":[],"stateMutability":"nonpayable"},{"type":"function","name":"rollbackDefaultAdminDelay","inputs":[],"outputs":[],"stateMutability":"nonpayable"},{"type":"function","name":"sendERC20","inputs":[{"name":"assetId","type":"bytes32","internalType":"bytes32"},{"name":"recipient","type":"bytes32","internalType":"bytes32"},{"name":"amount","type":"uint256","internalType":"uint256"}],"outputs":[],"stateMutability":"nonpayable"},{"type":"function","name":"sendETH","inputs":[{"name":"recipient","type":"bytes32","internalType":"bytes32"}],"outputs":[],"stateMutability":"payable"},{"type":"function","name":"sendMessage","inputs":[{"name":"recipient","type":"bytes32","internalType":"bytes32"},{"name":"data","type":"bytes","internalType":"bytes"}],"outputs":[],"stateMutability":"payable"},{"type":"function","name":"setPaused","inputs":[{"name":"status","type":"bool","internalType":"bool"}],"outputs":[],"stateMutability":"nonpayable"},{"type":"function","name":"supportsInterface","inputs":[{"name":"interfaceId","type":"bytes4","internalType":"bytes4"}],"outputs":[{"name":"","type":"bool","internalType":"bool"}],"stateMutability":"view"},{"type":"function","name":"tokens","inputs":[{"name":"","type":"bytes32","internalType":"bytes32"}],"outputs":[{"name":"","type":"address","internalType":"address"}],"stateMutability":"view"},{"type":"function","name":"updateFeePerByte","inputs":[{"name":"newFeePerByte","type":"uint256","internalType":"uint256"}],"outputs":[],"stateMutability":"nonpayable"},{"type":"function","name":"updateFeeRecipient","inputs":[{"name":"newFeeRecipient","type":"address","internalType":"address"}],"outputs":[],"stateMutability":"nonpayable"},{"type":"function","name":"updateNexusTokens","inputs":[{"name":"assetIds","type":"bytes32[]","internalType":"bytes32[]"},{"name":"tokenAddresses","type":"address[]","internalType":"address[]"}],"outputs":[],"stateMutability":"nonpayable"},{"type":"function","name":"updateTokens","inputs":[{"name":"assetIds","type":"bytes32[]","internalType":"bytes32[]"},{"name":"tokenAddresses","type":"address[]","internalType":"address[]"}],"outputs":[],"stateMutability":"nonpayable"},{"type":"function","name":"verifier","inputs":[],"outputs":[{"name":"","type":"address","internalType":"contract EthereumVerifier"}],"stateMutability":"view"},{"type":"function","name":"withdrawFees","inputs":[],"outputs":[],"stateMutability":"nonpayable"},{"type":"event","name":"DefaultAdminDelayChangeCanceled","inputs":[],"anonymous":false},{"type":"event","name":"DefaultAdminDelayChangeScheduled","inputs":[{"name":"newDelay","type":"uint48","indexed":false,"internalType":"uint48"},{"name":"effectSchedule","type":"uint48","indexed":false,"internalType":"uint48"}],"anonymous":false},{"type":"event","name":"DefaultAdminTransferCanceled","inputs":[],"anonymous":false},{"type":"event","name":"DefaultAdminTransferScheduled","inputs":[{"name":"newAdmin","type":"address","indexed":true,"internalType":"address"},{"name":"acceptSchedule","type":"uint48","indexed":false,"internalType":"uint48"}],"anonymous":false},{"type":"event","name":"Initialized","inputs":[{"name":"version","type":"uint64","indexed":false,"internalType":"uint64"}],"anonymous":false},{"type":"event","name":"MessageReceived","inputs":[{"name":"from","type":"bytes32","indexed":true,"internalType":"bytes32"},{"name":"to","type":"address","indexed":true,"internalType":"address"},{"name":"messageId","type":"uint256","indexed":false,"internalType":"uint256"}],"anonymous":false},{"type":"event","name":"MessageSent","inputs":[{"name":"from","type":"address","indexed":true,"internalType":"address"},{"name":"to","type":"bytes32","indexed":true,"internalType":"bytes32"},{"name":"messageId","type":"uint256","indexed":false,"internalType":"uint256"}],"anonymous":false},{"type":"event","name":"Paused","inputs":[{"name":"account","type":"address","indexed":false,"internalType":"address"}],"anonymous":false},{"type":"event","name":"RoleAdminChanged","inputs":[{"name":"role","type":"bytes32","indexed":true,"internalType":"bytes32"},{"name":"previousAdminRole","type":"bytes32","indexed":true,"internalType":"bytes32"},{"name":"newAdminRole","type":"bytes32","indexed":true,"internalType":"bytes32"}],"anonymous":false},{"type":"event","name":"RoleGranted","inputs":[{"name":"role","type":"bytes32","indexed":true,"internalType":"bytes32"},{"name":"account","type":"address","indexed":true,"internalType":"address"},{"name":"sender","type":"address","indexed":true,"internalType":"address"}],"anonymous":false},{"type":"event","name":"RoleRevoked","inputs":[{"name":"role","type":"bytes32","indexed":true,"internalType":"bytes32"},{"name":"account","type":"address","indexed":true,"internalType":"address"},{"name":"sender","type":"address","indexed":true,"internalType":"address"}],"anonymous":false},{"type":"event","name":"Unpaused","inputs":[{"name":"account","type":"address","indexed":false,"internalType":"address"}],"anonymous":false},{"type":"error","name":"AccessControlBadConfirmation","inputs":[]},{"type":"error","name":"AccessControlEnforcedDefaultAdminDelay","inputs":[{"name":"schedule","type":"uint48","internalType":"uint48"}]},{"type":"error","name":"AccessControlEnforcedDefaultAdminRules","inputs":[]},{"type":"error","name":"AccessControlInvalidDefaultAdmin","inputs":[{"name":"defaultAdmin","type":"address","internalType":"address"}]},{"type":"error","name":"AccessControlUnauthorizedAccount","inputs":[{"name":"account","type":"address","internalType":"address"},{"name":"neededRole","type":"bytes32","internalType":"bytes32"}]},{"type":"error","name":"AddressEmptyCode","inputs":[{"name":"target","type":"address","internalType":"address"}]},{"type":"error","name":"AddressInsufficientBalance","inputs":[{"name":"account","type":"address","internalType":"address"}]},{"type":"error","name":"AlreadyBridged","inputs":[]},{"type":"error","name":"ArrayLengthMismatch","inputs":[]},{"type":"error","name":"BlobRootEmpty","inputs":[]},{"type":"error","name":"BridgeRootEmpty","inputs":[]},{"type":"error","name":"DataRootCommitmentEmpty","inputs":[]},{"type":"error","name":"EnforcedPause","inputs":[]},{"type":"error","name":"ExpectedPause","inputs":[]},{"type":"error","name":"FailedInnerCall","inputs":[]},{"type":"error","name":"FeeTooLow","inputs":[]},{"type":"error","name":"InvalidAssetId","inputs":[]},{"type":"error","name":"InvalidDataLength","inputs":[]},{"type":"error","name":"InvalidDataRootProof","inputs":[]},{"type":"error","name":"InvalidDestinationOrAmount","inputs":[]},{"type":"error","name":"InvalidDomain","inputs":[]},{"type":"error","name":"InvalidFungibleTokenTransfer","inputs":[]},{"type":"error","name":"InvalidInitialization","inputs":[]},{"type":"error","name":"InvalidLeaf","inputs":[]},{"type":"error","name":"InvalidMerkleProof","inputs":[]},{"type":"error","name":"InvalidMessage","inputs":[]},{"type":"error","name":"NotInitializing","inputs":[]},{"type":"error","name":"ReentrancyGuardReentrantCall","inputs":[]},{"type":"error","name":"SafeCastOverflowedUintDowncast","inputs":[{"name":"bits","type":"uint8","internalType":"uint8"},{"name":"value","type":"uint256","internalType":"uint256"}]},{"type":"error","name":"SafeERC20FailedOperation","inputs":[{"name":"token","type":"address","internalType":"address"}]},{"type":"error","name":"UnlockFailed","inputs":[]},{"type":"error","name":"WithdrawFailed","inputs":[]}],"bytecode":{"object":"0x6080604052348015600e575f80fd5b50612e1f8061001c5f395ff3fe60806040526004361061026a575f3560e01c8063701bbfe81161014a578063a3f5c1d2116100be578063d602b9fd11610078578063d602b9fd14610761578063dc7ca82c14610775578063e12a665914610794578063f160d369146107b3578063f60bbe2a146107d2578063fcee45f4146107e7575f80fd5b8063a3f5c1d2146106a2578063cc8463c8146106c1578063cefc1429146106d5578063cf6eefb7146106e9578063d547741f14610723578063d590bd3414610742575f80fd5b8063904194a31161010f578063904194a3146105df57806391d14854146106135780639a8a0592146106325780639af1d35a14610647578063a1eda53c1461065c578063a217fddf1461068f575f80fd5b8063701bbfe81461054b57806373854bfb14610579578063758f666f1461059857806384ef8ffc146105b75780638da5cb5b146105cb575f80fd5b8063413dfeff116101e15780635e6c8c6c116101a65780635e6c8c6c1461048f578063634e93da146104ae57806363d91f40146104cd578063649a5ec7146104f8578063669f618b146105175780636cc891f61461052c575f80fd5b8063413dfeff146103fb578063469048401461041a578063476343ee146104395780635bdeac421461044d5780635c975abb1461046c575f80fd5b806323c640e71161023257806323c640e714610312578063248a9ca3146103255780632b7ac3f3146103525780632f2ff15d1461038957806336568abe146103a857806338c4810d146103c7575f80fd5b806301ffc9a71461026e578063022d63fb146102a25780630846691f146102ca5780630aa6220b146102df57806316c38b3c146102f3575b5f80fd5b348015610279575f80fd5b5061028d61028836600461272e565b610806565b60405190151581526020015b60405180910390f35b3480156102ad575f80fd5b50620697805b60405165ffffffffffff9091168152602001610299565b6102dd6102d8366004612755565b610830565b005b3480156102ea575f80fd5b506102dd610948565b3480156102fe575f80fd5b506102dd61030d366004612779565b61095d565b6102dd6103203660046127d8565b6109a1565b348015610330575f80fd5b5061034461033f366004612755565b610b12565b604051908152602001610299565b34801561035d575f80fd5b50600654610371906001600160a01b031681565b6040516001600160a01b039091168152602001610299565b348015610394575f80fd5b506102dd6103a3366004612833565b610b32565b3480156103b3575f80fd5b506102dd6103c2366004612833565b610b5a565b3480156103d2575f80fd5b506103716103e1366004612755565b60036020525f90815260409020546001600160a01b031681565b348015610406575f80fd5b506102dd610415366004612861565b610c21565b348015610425575f80fd5b50600754610371906001600160a01b031681565b348015610444575f80fd5b506102dd610cd4565b348015610458575f80fd5b50600454610371906001600160a01b031681565b348015610477575f80fd5b505f80516020612d8a8339815191525460ff1661028d565b34801561049a575f80fd5b506102dd6104a9366004612755565b610d51565b3480156104b9575f80fd5b506102dd6104c83660046128bf565b610d61565b3480156104d8575f80fd5b506103446104e7366004612755565b5f6020819052908152604090205481565b348015610503575f80fd5b506102dd6105123660046128da565b610d74565b348015610522575f80fd5b50610344600a5481565b348015610537575f80fd5b506102dd610546366004612861565b610d87565b348015610556575f80fd5b5061028d610565366004612755565b60016020525f908152604090205460ff1681565b348015610584575f80fd5b506102dd610593366004612861565b610f8e565b3480156105a3575f80fd5b506102dd6105b23660046128ff565b611168565b3480156105c2575f80fd5b5061037161140a565b3480156105d6575f80fd5b50610371611425565b3480156105ea575f80fd5b506103716105f9366004612755565b60026020525f90815260409020546001600160a01b031681565b34801561061e575f80fd5b5061028d61062d366004612833565b611433565b34801561063d575f80fd5b50610344600b5481565b348015610652575f80fd5b5061034460085481565b348015610667575f80fd5b50610670611469565b6040805165ffffffffffff938416815292909116602083015201610299565b34801561069a575f80fd5b506103445f81565b3480156106ad575f80fd5b50600554610371906001600160a01b031681565b3480156106cc575f80fd5b506102b36114d8565b3480156106e0575f80fd5b506102dd611553565b3480156106f4575f80fd5b506106fd611592565b604080516001600160a01b03909316835265ffffffffffff909116602083015201610299565b34801561072e575f80fd5b506102dd61073d366004612833565b6115bf565b34801561074d575f80fd5b506102dd61075c366004612968565b6115e7565b34801561076c575f80fd5b506102dd611728565b348015610780575f80fd5b506102dd61078f3660046129ce565b61173a565b34801561079f575f80fd5b506102dd6107ae366004612968565b6118dd565b3480156107be575f80fd5b506102dd6107cd3660046128bf565b611a15565b3480156107dd575f80fd5b5061034460095481565b3480156107f2575f80fd5b50610344610801366004612755565b611a42565b5f6001600160e01b031982166318a4c3c360e11b148061082a575061082a82611a51565b92915050565b610838611a85565b8034811580610845575080155b8061085657506001600160801b0381115b15610874576040516329fd423f60e01b815260040160405180910390fd5b600a8054600181019091556040805160a081018252600160f91b815233606090811b6001600160601b03191660208084019190915282840188905283516208aa8960eb1b8183015234818601528451808203860181529083018552918301919091526001600160401b0384166080830152915190916108f591839101612a60565b60408051601f1981840301815282825280516020918201205f8681529182905291902055859033905f80516020612d0a833981519152906109399086815260200190565b60405180910390a35050505050565b5f61095281611ab7565b61095a611ac1565b50565b7f65d7a28e3265b37a6474929f336521b332c1681b933f6cb9f3376673440d862a61098781611ab7565b811561099957610995611acb565b5050565b610995611b2d565b6109a9611a85565b808015806109b957506201900081115b156109d757604051630dfe930960e41b815260040160405180910390fd5b6109e081611a42565b341015610a005760405163732f941360e01b815260040160405180910390fd5b600a805460018101909155600880543491905f90610a1f908490612aea565b925050819055505f6040518060a00160405280600160f81b6001600160f81b03191681526020013360601b6bffffffffffffffffffffffff1916815260200187815260200186868080601f0160208091040260200160405190810160405280939291908181526020018383808284375f920191909152505050908252506001600160401b038416602091820152604051919250610abe91839101612a60565b60408051601f1981840301815282825280516020918201205f8681529182905291902055869033905f80516020612d0a83398151915290610b029086815260200190565b60405180910390a3505050505050565b5f9081525f80516020612d6a833981519152602052604090206001015490565b81610b5057604051631fe1e13d60e11b815260040160405180910390fd5b6109958282611b72565b5f80516020612d4a83398151915282158015610b8e5750610b7961140a565b6001600160a01b0316826001600160a01b0316145b15610c12575f80610b9d611592565b90925090506001600160a01b038216151580610bbf575065ffffffffffff8116155b80610bd257504265ffffffffffff821610155b15610bff576040516319ca5ebb60e01b815265ffffffffffff821660048201526024015b60405180910390fd5b5050805465ffffffffffff60a01b191681555b610c1c8383611b8e565b505050565b610c29611a85565b610c31611bc1565b600160f81b610c436020850185612afd565b6001600160f81b03191614610c6b57604051636eca2e4b60e01b815260040160405180910390fd5b610c76838383611bf8565b604083013560601c8060208501355f80516020612d2a833981519152610ca260a0880160808901612b24565b6040516001600160401b03909116815260200160405180910390a350610c1c60015f80516020612daa83398151915255565b600880545f918290556007546040519192916001600160a01b039091169083908381818185875af1925050503d805f8114610d2a576040519150601f19603f3d011682016040523d82523d5f602084013e610d2f565b606091505b505090508061099557604051631d42c86760e21b815260040160405180910390fd5b5f610d5b81611ab7565b50600955565b5f610d6b81611ab7565b61099582611e40565b5f610d7e81611ab7565b61099582611eb2565b610d8f611a85565b610d9c6020840184612afd565b6001600160f81b03198116600160f91b14610dca5760405163c51b845360e01b815260040160405180910390fd5b610dd2611bc1565b5f80610de16060870187612b4a565b810190610dee9190612b8c565b5f8281526002602052604090205491935091506001600160a01b03168015610e8157610e1b878787611bf8565b60208701356001600160a01b038116815f80516020612d2a833981519152610e4960a08c0160808d01612b24565b6040516001600160401b03909116815260200160405180910390a3610e786001600160a01b0383168285611f21565b50505050610f72565b505f828152600360205260409020546001600160a01b03168015610f5957610eaa878787611bf8565b60208701356001600160a01b038116815f80516020612d2a833981519152610ed860a08c0160808d01612b24565b6040516001600160401b03909116815260200160405180910390a36040516340c10f1960e01b81526001600160a01b038281166004830152602482018590528316906340c10f19906044015f604051808303815f87803b158015610f3a575f80fd5b505af1158015610f4c573d5f803e3d5ffd5b5050505050505050610f72565b6040516307d7e52d60e51b815260040160405180910390fd5b610f8860015f80516020612daa83398151915255565b50505050565b610f96611a85565b610fa36020840184612afd565b6001600160f81b03198116600160f91b14610fd15760405163c51b845360e01b815260040160405180910390fd5b610fd9611bc1565b5f80610fe86060870187612b4a565b810190610ff59190612b8c565b91509150611004868686611bf8565b60208601356001600160a01b038116815f80516020612d2a83398151915261103260a08b0160808c01612b24565b6040516001600160401b03909116815260200160405180910390a35f838152600360205260409020546001600160a01b0316156110de575f83815260036020526040908190205490516340c10f1960e01b81526001600160a01b03838116600483015260248201859052909116906340c10f19906044015f604051808303815f87803b1580156110c0575f80fd5b505af11580156110d2573d5f803e3d5ffd5b50505050505050610f72565b5f816001600160a01b0316836040515f6040518083038185875af1925050503d805f8114611127576040519150601f19603f3d011682016040523d82523d5f602084013e61112c565b606091505b505090508061114e57604051635f0ad7b760e11b815260040160405180910390fd5b50505050610f8860015f80516020612daa83398151915255565b611170611a85565b818181158061117d575080155b8061118e57506001600160801b0381115b156111ac576040516329fd423f60e01b815260040160405180910390fd5b5f858152600260205260409020546001600160a01b031680156112b657600a8054600181019091556040805160a081018252600160f91b815233606090811b6001600160601b0319166020808401919091528284018a905283519081018b90529283018890525f9281830191016040516020818303038152906040528152602001836001600160401b031681525090508060405160200161124d9190612a60565b60408051601f1981840301815282825280516020918201205f8681529182905291902055879033905f80516020612d0a833981519152906112919086815260200190565b60405180910390a36112ae6001600160a01b038416333089611f80565b505050611403565b505f858152600360205260409020546001600160a01b03168015610f5957600a8054600181019091556040805160a081018252600160f91b815233606090811b6001600160601b0319166020808401919091528284018a905283519081018b90529283018890525f9281830191016040516020818303038152906040528152602001836001600160401b03168152509050806040516020016113589190612a60565b60408051601f1981840301815282825280516020918201205f8681529182905291902055879033905f80516020612d0a8339815191529061139c9086815260200190565b60405180910390a3604051632770a7eb60e21b8152336004820152602481018790526001600160a01b03841690639dc29fac906044015f604051808303815f87803b1580156113e9575f80fd5b505af11580156113fb573d5f803e3d5ffd5b505050505050505b5050505050565b5f80516020612dca833981519152546001600160a01b031690565b5f61142e61140a565b905090565b5f9182525f80516020612d6a833981519152602090815260408084206001600160a01b0393909316845291905290205460ff1690565b5f80516020612dca833981519152545f90600160d01b900465ffffffffffff165f80516020612d4a83398151915281158015906114ae57504265ffffffffffff831610155b6114b9575f806114cf565b6001810154600160a01b900465ffffffffffff16825b92509250509091565b5f80516020612dca833981519152545f905f80516020612d4a83398151915290600160d01b900465ffffffffffff16801580159061151d57504265ffffffffffff8216105b611537578154600160d01b900465ffffffffffff1661154c565b6001820154600160a01b900465ffffffffffff165b9250505090565b5f61155c611592565b509050336001600160a01b0382161461158a57604051636116401160e11b8152336004820152602401610bf6565b61095a611fb9565b5f80516020612d4a833981519152546001600160a01b03811691600160a01b90910465ffffffffffff1690565b816115dd57604051631fe1e13d60e11b815260040160405180910390fd5b6109958282612052565b5f6115f181611ab7565b838281146116125760405163512509d360e11b815260040160405180910390fd5b5f5b8181101561171f575f60038189898581811061163257611632612bac565b602090810292909201358352508101919091526040015f20546001600160a01b0316146116a15760405162461bcd60e51b815260206004820152601d60248201527f61737365742069642075736564206279206e6578757320746f6b656e730000006044820152606401610bf6565b8484828181106116b3576116b3612bac565b90506020020160208101906116c891906128bf565b60025f8989858181106116dd576116dd612bac565b9050602002013581526020019081526020015f205f6101000a8154816001600160a01b0302191690836001600160a01b03160217905550806001019050611614565b50505050505050565b5f61173281611ab7565b61095a61206e565b7ff0c57e16840df040f15088dc2f81fe391c3923bec73e23a9662efc9c229c6a008054600160401b810460ff1615906001600160401b03165f8115801561177e5750825b90505f826001600160401b031660011480156117995750303b155b9050811580156117a7575080155b156117c55760405163f92ee8a960e01b815260040160405180910390fd5b845467ffffffffffffffff1916600117855583156117ef57845460ff60401b1916600160401b1785555b60098d9055600780546001600160a01b03808f166001600160a01b031992831617909255600480548e8416908316179055600580548b8416908316179055600b899055600680549289169290911691909117905561184d5f8b612078565b6118777f65d7a28e3265b37a6474929f336521b332c1681b933f6cb9f3376673440d862a8a61208a565b506118806120fe565b61188861210e565b83156118ce57845460ff60401b19168555604051600181527fc7f505b2f371ae2175ee4913f4499e1f2633a7b5936321eed1cdaeb6115181d29060200160405180910390a15b50505050505050505050505050565b5f6118e781611ab7565b838281146119085760405163512509d360e11b815260040160405180910390fd5b5f5b8181101561171f575f60028189898581811061192857611928612bac565b602090810292909201358352508101919091526040015f20546001600160a01b0316146119975760405162461bcd60e51b815260206004820181905260248201527f61737365742069642075736564206279207374616e6461726420746f6b656e736044820152606401610bf6565b8484828181106119a9576119a9612bac565b90506020020160208101906119be91906128bf565b60035f8989858181106119d3576119d3612bac565b9050602002013581526020019081526020015f205f6101000a8154816001600160a01b0302191690836001600160a01b0316021790555080600101905061190a565b5f611a1f81611ab7565b50600780546001600160a01b0319166001600160a01b0392909216919091179055565b5f6009548261082a9190612bc0565b5f6001600160e01b03198216637965db0b60e01b148061082a57506301ffc9a760e01b6001600160e01b031983161461082a565b5f80516020612d8a8339815191525460ff1615611ab55760405163d93c066560e01b815260040160405180910390fd5b565b61095a813361211e565b611ab55f80612157565b611ad3611a85565b5f80516020612d8a833981519152805460ff191660011781557f62e78cea01bee320cd4e420270b5ea74000d11b0c9f74754ebdbfc544b05a258335b6040516001600160a01b03909116815260200160405180910390a150565b611b3561222f565b5f80516020612d8a833981519152805460ff191681557f5db9ee0a495bf2e6ff9c91a7834c1ba4fdd244a5e8aa4e537bd38aeae4b073aa33611b0f565b611b7b82610b12565b611b8481611ab7565b610f88838361208a565b6001600160a01b0381163314611bb75760405163334bd91960e11b815260040160405180910390fd5b610c1c828261225e565b5f80516020612daa833981519152805460011901611bf257604051633ee5aeb560e01b815260040160405180910390fd5b60029055565b600554600b5460405163266218bb60e21b81525f926001600160a01b03169163998862ec91611c34918591600401918252602082015260400190565b6020604051808303815f875af1158015611c50573d5f803e3d5ffd5b505050506040513d601f19601f82011682018060405250810190611c749190612bd7565b60065460408051637f1b8c7360e01b81529293505f926001600160a01b0390921691637f1b8c7391611cb2918691899189918c013590600401612c16565b608060405180830381865afa158015611ccd573d5f803e3d5ffd5b505050506040513d601f19601f82011682018060405250810190611cf19190612c48565b93505050507f56e81f171bcc55a6ff8345e692c0f86e5b48e01b996cadc001622fb5e363b4215f1b8103611d575760405162461bcd60e51b815260206004820152600d60248201526c696e76616c696420656e74727960981b6044820152606401610bf6565b6006545f906001600160a01b0316636f7096dc8360c0890135611d7d60a08b018b612b4a565b6040518563ffffffff1660e01b8152600401611d9c9493929190612c7b565b602060405180830381865afa158015611db7573d5f803e3d5ffd5b505050506040513d601f19601f82011682018060405250810190611ddb9190612bd7565b90508560e001358114611e255760405162461bcd60e51b8152602060048201526012602482015271496e76616c696420736c6f742076616c756560701b6044820152606401610bf6565b505050505050565b60015f80516020612daa83398151915255565b5f611e496114d8565b611e52426122b5565b611e5c9190612c9a565b9050611e6882826122eb565b60405165ffffffffffff821681526001600160a01b038316907f3377dc44241e779dd06afab5b788a35ca5f3b778836e2990bdb26a2a4b2e5ed69060200160405180910390a25050565b5f611ebc82612375565b611ec5426122b5565b611ecf9190612c9a565b9050611edb8282612157565b6040805165ffffffffffff8085168252831660208201527ff1038c18cf84a56e432fdbfaf746924b7ea511dfe03a6506a0ceba4888788d9b910160405180910390a15050565b6040516001600160a01b03838116602483015260448201839052610c1c91859182169063a9059cbb906064015b604051602081830303815290604052915060e01b6020820180516001600160e01b0383818316178352505050506123c3565b6040516001600160a01b038481166024830152838116604483015260648201839052610f889186918216906323b872dd90608401611f4e565b5f80516020612d4a8339815191525f80611fd1611592565b91509150611fe68165ffffffffffff16151590565b1580611ffa57504265ffffffffffff821610155b15612022576040516319ca5ebb60e01b815265ffffffffffff82166004820152602401610bf6565b6120335f61202e61140a565b61225e565b5061203e5f8361208a565b505081546001600160d01b03191690915550565b61205b82610b12565b61206481611ab7565b610f88838361225e565b611ab55f806122eb565b612080612424565b610995828261246d565b5f5f80516020612d4a833981519152836120ec575f6120a761140a565b6001600160a01b0316146120ce57604051631fe1e13d60e11b815260040160405180910390fd5b6001810180546001600160a01b0319166001600160a01b0385161790555b6120f684846124d3565b949350505050565b612106612424565b611ab561257b565b612116612424565b611ab561259b565b6121288282611433565b6109955760405163e2517d3f60e01b81526001600160a01b038216600482015260248101839052604401610bf6565b5f80516020612dca833981519152545f80516020612d4a83398151915290600160d01b900465ffffffffffff1680156121f1574265ffffffffffff821610156121c857600182015482546001600160d01b0316600160a01b90910465ffffffffffff16600160d01b021782556121f1565b6040517f2b1fa2edafe6f7b9e97c1a9e0c3660e645beb2dcaa2d45bdbf9beaf5472e1ec5905f90a15b5060010180546001600160a01b0316600160a01b65ffffffffffff948516026001600160d01b031617600160d01b9290931691909102919091179055565b5f80516020612d8a8339815191525460ff16611ab557604051638dfc202b60e01b815260040160405180910390fd5b5f5f80516020612d4a83398151915283158015612293575061227e61140a565b6001600160a01b0316836001600160a01b0316145b156122ab576001810180546001600160a01b03191690555b6120f684846125a3565b5f65ffffffffffff8211156122e7576040516306dfcc6560e41b81526030600482015260248101839052604401610bf6565b5090565b5f80516020612d4a8339815191525f612302611592565b835465ffffffffffff8616600160a01b026001600160d01b03199091166001600160a01b03881617178455915061234290508165ffffffffffff16151590565b15610f88576040517f8886ebfc4259abdbc16601dd8fb5678e54878f47b3c34836cfc51154a9605109905f90a150505050565b5f8061237f6114d8565b90508065ffffffffffff168365ffffffffffff16116123a7576123a28382612cb9565b6123bc565b6123bc65ffffffffffff84166206978061261c565b9392505050565b5f6123d76001600160a01b03841683612631565b905080515f141580156123fb5750808060200190518101906123f99190612cd8565b155b15610c1c57604051635274afe760e01b81526001600160a01b0384166004820152602401610bf6565b7ff0c57e16840df040f15088dc2f81fe391c3923bec73e23a9662efc9c229c6a0054600160401b900460ff16611ab557604051631afcd79f60e31b815260040160405180910390fd5b612475612424565b5f80516020612d4a8339815191526001600160a01b0382166124ac57604051636116401160e11b81525f6004820152602401610bf6565b80546001600160d01b0316600160d01b65ffffffffffff851602178155610f885f8361208a565b5f5f80516020612d6a8339815191526124ec8484611433565b61256b575f848152602082815260408083206001600160a01b03871684529091529020805460ff191660011790556125213390565b6001600160a01b0316836001600160a01b0316857f2f8788117e7eff1d82e926ec794901d17c78024a50270940304540a733656f0d60405160405180910390a4600191505061082a565b5f91505061082a565b5092915050565b612583612424565b5f80516020612d8a833981519152805460ff19169055565b611e2d612424565b5f5f80516020612d6a8339815191526125bc8484611433565b1561256b575f848152602082815260408083206001600160a01b0387168085529252808320805460ff1916905551339287917ff6391f5c32d9c69d2a47ea670b442974b53935d1edc7fd64eb21e047a839171b9190a4600191505061082a565b5f81831061262a57816123bc565b5090919050565b60606123bc83835f845f80856001600160a01b031684866040516126559190612cf3565b5f6040518083038185875af1925050503d805f811461268f576040519150601f19603f3d011682016040523d82523d5f602084013e612694565b606091505b50915091506126a48683836126ae565b9695505050505050565b6060826126be576123a282612705565b81511580156126d557506001600160a01b0384163b155b156126fe57604051639996b31560e01b81526001600160a01b0385166004820152602401610bf6565b50806123bc565b8051156127155780518082602001fd5b604051630a12f52160e11b815260040160405180910390fd5b5f6020828403121561273e575f80fd5b81356001600160e01b0319811681146123bc575f80fd5b5f60208284031215612765575f80fd5b5035919050565b801515811461095a575f80fd5b5f60208284031215612789575f80fd5b81356123bc8161276c565b5f8083601f8401126127a4575f80fd5b5081356001600160401b038111156127ba575f80fd5b6020830191508360208285010111156127d1575f80fd5b9250929050565b5f805f604084860312156127ea575f80fd5b8335925060208401356001600160401b03811115612806575f80fd5b61281286828701612794565b9497909650939450505050565b6001600160a01b038116811461095a575f80fd5b5f8060408385031215612844575f80fd5b8235915060208301356128568161281f565b809150509250929050565b5f805f60408486031215612873575f80fd5b83356001600160401b0380821115612889575f80fd5b90850190610100828803121561289d575f80fd5b909350602085013590808211156128b2575f80fd5b5061281286828701612794565b5f602082840312156128cf575f80fd5b81356123bc8161281f565b5f602082840312156128ea575f80fd5b813565ffffffffffff811681146123bc575f80fd5b5f805f60608486031215612911575f80fd5b505081359360208301359350604090920135919050565b5f8083601f840112612938575f80fd5b5081356001600160401b0381111561294e575f80fd5b6020830191508360208260051b85010111156127d1575f80fd5b5f805f806040858703121561297b575f80fd5b84356001600160401b0380821115612991575f80fd5b61299d88838901612928565b909650945060208701359150808211156129b5575f80fd5b506129c287828801612928565b95989497509550505050565b5f805f805f805f80610100898b0312156129e6575f80fd5b8835975060208901356129f88161281f565b96506040890135612a088161281f565b95506060890135612a188161281f565b94506080890135612a288161281f565b935060a0890135612a388161281f565b925060c0890135915060e0890135612a4f8161281f565b809150509295985092959890939650565b6020815260ff60f81b825116602082015260208201516040820152604082015160608201525f606083015160a0608084015280518060c0850152806020830160e086015e5f60e082860101526001600160401b0360808601511660a085015260e0601f19601f8301168501019250505092915050565b634e487b7160e01b5f52601160045260245ffd5b8082018082111561082a5761082a612ad6565b5f60208284031215612b0d575f80fd5b81356001600160f81b0319811681146123bc575f80fd5b5f60208284031215612b34575f80fd5b81356001600160401b03811681146123bc575f80fd5b5f808335601e19843603018112612b5f575f80fd5b8301803591506001600160401b03821115612b78575f80fd5b6020019150368190038213156127d1575f80fd5b5f8060408385031215612b9d575f80fd5b50508035926020909101359150565b634e487b7160e01b5f52603260045260245ffd5b808202811582820484141761082a5761082a612ad6565b5f60208284031215612be7575f80fd5b5051919050565b81835281816020850137505f828201602090810191909152601f909101601f19169091010190565b848152606060208201525f612c2f606083018587612bee565b905060018060a01b038316604083015295945050505050565b5f805f8060808587031215612c5b575f80fd5b505082516020840151604085015160609095015191969095509092509050565b848152836020820152606060408201525f6126a4606083018486612bee565b65ffffffffffff81811683821601908082111561257457612574612ad6565b65ffffffffffff82811682821603908082111561257457612574612ad6565b5f60208284031215612ce8575f80fd5b81516123bc8161276c565b5f82518060208501845e5f92019182525091905056fe06fd209663be9278f96bc53dfbf6cf3cdcf2172c38b5de30abff93ba443d653a4ad8286366216a121ffbecdd11163a134fc364cdf7cc99aae4cc3221d8d92269eef3dac4538c82c8ace4063ab0acd2d15cdb5883aa1dff7c2673abb3d869840002dd7bc7dec4dceedda775e58dd541e08a116c6c53815c0bd028192f7b626800cd5ed15c6e187e77e9aee88184c21f4f2182ab5827cb3b7e07fbedcd63f033009b779b17422d0df92223018b32b4d1fa46e071723d6817e2486d003becc55f00eef3dac4538c82c8ace4063ab0acd2d15cdb5883aa1dff7c2673abb3d8698401a2646970667358221220bc0c9e8008b5247a3c21baa121eb84997aa803b5930cc295f9ade64e54bc5c9f64736f6c63430008190033","linkReferences":{}},"methodIdentifiers":{"DEFAULT_ADMIN_ROLE()":"a217fddf","acceptDefaultAdminTransfer()":"cefc1429","avail()":"5bdeac42","beginDefaultAdminTransfer(address)":"634e93da","cancelDefaultAdminTransfer()":"d602b9fd","chainId()":"9a8a0592","changeDefaultAdminDelay(uint48)":"649a5ec7","defaultAdmin()":"84ef8ffc","defaultAdminDelay()":"cc8463c8","defaultAdminDelayIncreaseWait()":"022d63fb","feePerByte()":"f60bbe2a","feeRecipient()":"46904840","fees()":"9af1d35a","getFee(uint256)":"fcee45f4","getRoleAdmin(bytes32)":"248a9ca3","grantRole(bytes32,address)":"2f2ff15d","hasRole(bytes32,address)":"91d14854","initialize(uint256,address,address,address,address,address,bytes32,address)":"dc7ca82c","isBridged(bytes32)":"701bbfe8","isSent(uint256)":"63d91f40","messageId()":"669f618b","nexus()":"a3f5c1d2","nexusTokens(bytes32)":"38c4810d","owner()":"8da5cb5b","paused()":"5c975abb","pendingDefaultAdmin()":"cf6eefb7","pendingDefaultAdminDelay()":"a1eda53c","receiveERC20((bytes1,bytes32,bytes32,bytes,uint64,bytes,bytes32,bytes32),bytes)":"6cc891f6","receiveETH((bytes1,bytes32,bytes32,bytes,uint64,bytes,bytes32,bytes32),bytes)":"73854bfb","receiveMessage((bytes1,bytes32,bytes32,bytes,uint64,bytes,bytes32,bytes32),bytes)":"413dfeff","renounceRole(bytes32,address)":"36568abe","revokeRole(bytes32,address)":"d547741f","rollbackDefaultAdminDelay()":"0aa6220b","sendERC20(bytes32,bytes32,uint256)":"758f666f","sendETH(bytes32)":"0846691f","sendMessage(bytes32,bytes)":"23c640e7","setPaused(bool)":"16c38b3c","supportsInterface(bytes4)":"01ffc9a7","tokens(bytes32)":"904194a3","updateFeePerByte(uint256)":"5e6c8c6c","updateFeeRecipient(address)":"f160d369","updateNexusTokens(bytes32[],address[])":"e12a6659","updateTokens(bytes32[],address[])":"d590bd34","verifier()":"2b7ac3f3","withdrawFees()":"476343ee"},"id":0}