{"abi":[{"type":"constructor","inputs":[{"name":"initialSupply","type":"uint256","internalType":"uint256"}],"stateMutability":"nonpayable"},{"type":"function","name":"allowance","inputs":[{"name":"owner","type":"address","internalType":"address"},{"name":"spender","type":"address","internalType":"address"}],"outputs":[{"name":"","type":"uint256","internalType":"uint256"}],"stateMutability":"view"},{"type":"function","name":"approve","inputs":[{"name":"spender","type":"address","internalType":"address"},{"name":"value","type":"uint256","internalType":"uint256"}],"outputs":[{"name":"","type":"bool","internalType":"bool"}],"stateMutability":"nonpayable"},{"type":"function","name":"balanceOf","inputs":[{"name":"account","type":"address","internalType":"address"}],"outputs":[{"name":"","type":"uint256","internalType":"uint256"}],"stateMutability":"view"},{"type":"function","name":"decimals","inputs":[],"outputs":[{"name":"","type":"uint8","internalType":"uint8"}],"stateMutability":"view"},{"type":"function","name":"name","inputs":[],"outputs":[{"name":"","type":"string","internalType":"string"}],"stateMutability":"view"},{"type":"function","name":"owner","inputs":[],"outputs":[{"name":"","type":"address","internalType":"address"}],"stateMutability":"view"},{"type":"function","name":"renounceOwnership","inputs":[],"outputs":[],"stateMutability":"nonpayable"},{"type":"function","name":"symbol","inputs":[],"outputs":[{"name":"","type":"string","internalType":"string"}],"stateMutability":"view"},{"type":"function","name":"totalSupply","inputs":[],"outputs":[{"name":"","type":"uint256","internalType":"uint256"}],"stateMutability":"view"},{"type":"function","name":"transfer","inputs":[{"name":"to","type":"address","internalType":"address"},{"name":"value","type":"uint256","internalType":"uint256"}],"outputs":[{"name":"","type":"bool","internalType":"bool"}],"stateMutability":"nonpayable"},{"type":"function","name":"transferFrom","inputs":[{"name":"from","type":"address","internalType":"address"},{"name":"to","type":"address","internalType":"address"},{"name":"value","type":"uint256","internalType":"uint256"}],"outputs":[{"name":"","type":"bool","internalType":"bool"}],"stateMutability":"nonpayable"},{"type":"function","name":"transferOwnership","inputs":[{"name":"newOwner","type":"address","internalType":"address"}],"outputs":[],"stateMutability":"nonpayable"},{"type":"event","name":"Approval","inputs":[{"name":"owner","type":"address","indexed":true,"internalType":"address"},{"name":"spender","type":"address","indexed":true,"internalType":"address"},{"name":"value","type":"uint256","indexed":false,"internalType":"uint256"}],"anonymous":false},{"type":"event","name":"OwnershipTransferred","inputs":[{"name":"previousOwner","type":"address","indexed":true,"internalType":"address"},{"name":"newOwner","type":"address","indexed":true,"internalType":"address"}],"anonymous":false},{"type":"event","name":"Transfer","inputs":[{"name":"from","type":"address","indexed":true,"internalType":"address"},{"name":"to","type":"address","indexed":true,"internalType":"address"},{"name":"value","type":"uint256","indexed":false,"internalType":"uint256"}],"anonymous":false},{"type":"error","name":"ERC20InsufficientAllowance","inputs":[{"name":"spender","type":"address","internalType":"address"},{"name":"allowance","type":"uint256","internalType":"uint256"},{"name":"needed","type":"uint256","internalType":"uint256"}]},{"type":"error","name":"ERC20InsufficientBalance","inputs":[{"name":"sender","type":"address","internalType":"address"},{"name":"balance","type":"uint256","internalType":"uint256"},{"name":"needed","type":"uint256","internalType":"uint256"}]},{"type":"error","name":"ERC20InvalidApprover","inputs":[{"name":"approver","type":"address","internalType":"address"}]},{"type":"error","name":"ERC20InvalidReceiver","inputs":[{"name":"receiver","type":"address","internalType":"address"}]},{"type":"error","name":"ERC20InvalidSender","inputs":[{"name":"sender","type":"address","internalType":"address"}]},{"type":"error","name":"ERC20InvalidSpender","inputs":[{"name":"spender","type":"address","internalType":"address"}]},{"type":"error","name":"OwnableInvalidOwner","inputs":[{"name":"owner","type":"address","internalType":"address"}]},{"type":"error","name":"OwnableUnauthorizedAccount","inputs":[{"name":"account","type":"address","internalType":"address"}]}],"bytecode":{"object":"0x608060405234801561000f575f80fd5b50604051610c2a380380610c2a83398101604081905261002e91610281565b336040518060400160405280600781526020016626bcaa37b5b2b760c91b815250604051806040016040528060038152602001624d544b60e81b815250816003908161007a9190610330565b5060046100878282610330565b5050506001600160a01b0381166100b857604051631e4fbdf760e01b81525f60048201526024015b60405180910390fd5b6100c1816100d2565b506100cc3382610123565b50610414565b600580546001600160a01b038381166001600160a01b0319831681179093556040519116919082907f8be0079c531659141344cd1fd0a4f28419497f9722a3daafe3b4186f6b6457e0905f90a35050565b6001600160a01b03821661014c5760405163ec442f0560e01b81525f60048201526024016100af565b6101575f838361015b565b5050565b6001600160a01b038316610185578060025f82825461017a91906103ef565b909155506101f59050565b6001600160a01b0383165f90815260208190526040902054818110156101d75760405163391434e360e21b81526001600160a01b038516600482015260248101829052604481018390526064016100af565b6001600160a01b0384165f9081526020819052604090209082900390555b6001600160a01b0382166102115760028054829003905561022f565b6001600160a01b0382165f9081526020819052604090208054820190555b816001600160a01b0316836001600160a01b03167fddf252ad1be2c89b69c2b068fc378daa952ba7f163c4a11628f55a4df523b3ef8360405161027491815260200190565b60405180910390a3505050565b5f60208284031215610291575f80fd5b5051919050565b634e487b7160e01b5f52604160045260245ffd5b600181811c908216806102c057607f821691505b6020821081036102de57634e487b7160e01b5f52602260045260245ffd5b50919050565b601f82111561032b57805f5260205f20601f840160051c810160208510156103095750805b601f840160051c820191505b81811015610328575f8155600101610315565b50505b505050565b81516001600160401b0381111561034957610349610298565b61035d8161035784546102ac565b846102e4565b602080601f831160018114610390575f84156103795750858301515b5f19600386901b1c1916600185901b1785556103e7565b5f85815260208120601f198616915b828110156103be5788860151825594840194600190910190840161039f565b50858210156103db57878501515f19600388901b60f8161c191681555b505060018460011b0185555b505050505050565b8082018082111561040e57634e487b7160e01b5f52601160045260245ffd5b92915050565b610809806104215f395ff3fe608060405234801561000f575f80fd5b50600436106100b1575f3560e01c8063715018a61161006e578063715018a6146101525780638da5cb5b1461015c57806395d89b4114610177578063a9059cbb1461017f578063dd62ed3e14610192578063f2fde38b146101ca575f80fd5b806306fdde03146100b5578063095ea7b3146100d357806318160ddd146100f657806323b872dd14610108578063313ce5671461011b57806370a082311461012a575b5f80fd5b6100bd6101dd565b6040516100ca919061067a565b60405180910390f35b6100e66100e13660046106ca565b61026d565b60405190151581526020016100ca565b6002545b6040519081526020016100ca565b6100e66101163660046106f2565b610286565b604051601281526020016100ca565b6100fa61013836600461072b565b6001600160a01b03165f9081526020819052604090205490565b61015a6102a9565b005b6005546040516001600160a01b0390911681526020016100ca565b6100bd6102bc565b6100e661018d3660046106ca565b6102cb565b6100fa6101a036600461074b565b6001600160a01b039182165f90815260016020908152604080832093909416825291909152205490565b61015a6101d836600461072b565b6102d8565b6060600380546101ec9061077c565b80601f01602080910402602001604051908101604052809291908181526020018280546102189061077c565b80156102635780601f1061023a57610100808354040283529160200191610263565b820191905f5260205f20905b81548152906001019060200180831161024657829003601f168201915b5050505050905090565b5f3361027a81858561031a565b60019150505b92915050565b5f3361029385828561032c565b61029e8585856103a7565b506001949350505050565b6102b1610404565b6102ba5f610431565b565b6060600480546101ec9061077c565b5f3361027a8185856103a7565b6102e0610404565b6001600160a01b03811661030e57604051631e4fbdf760e01b81525f60048201526024015b60405180910390fd5b61031781610431565b50565b6103278383836001610482565b505050565b6001600160a01b038381165f908152600160209081526040808320938616835292905220545f1981146103a1578181101561039357604051637dc7a0d960e11b81526001600160a01b03841660048201526024810182905260448101839052606401610305565b6103a184848484035f610482565b50505050565b6001600160a01b0383166103d057604051634b637e8f60e11b81525f6004820152602401610305565b6001600160a01b0382166103f95760405163ec442f0560e01b81525f6004820152602401610305565b610327838383610554565b6005546001600160a01b031633146102ba5760405163118cdaa760e01b8152336004820152602401610305565b600580546001600160a01b038381166001600160a01b0319831681179093556040519116919082907f8be0079c531659141344cd1fd0a4f28419497f9722a3daafe3b4186f6b6457e0905f90a35050565b6001600160a01b0384166104ab5760405163e602df0560e01b81525f6004820152602401610305565b6001600160a01b0383166104d457604051634a1406b160e11b81525f6004820152602401610305565b6001600160a01b038085165f90815260016020908152604080832093871683529290522082905580156103a157826001600160a01b0316846001600160a01b03167f8c5be1e5ebec7d5bd14f71427d1e84f3dd0314c0f7b2291e5b200ac8c7c3b9258460405161054691815260200190565b60405180910390a350505050565b6001600160a01b03831661057e578060025f82825461057391906107b4565b909155506105ee9050565b6001600160a01b0383165f90815260208190526040902054818110156105d05760405163391434e360e21b81526001600160a01b03851660048201526024810182905260448101839052606401610305565b6001600160a01b0384165f9081526020819052604090209082900390555b6001600160a01b03821661060a57600280548290039055610628565b6001600160a01b0382165f9081526020819052604090208054820190555b816001600160a01b0316836001600160a01b03167fddf252ad1be2c89b69c2b068fc378daa952ba7f163c4a11628f55a4df523b3ef8360405161066d91815260200190565b60405180910390a3505050565b602081525f82518060208401528060208501604085015e5f604082850101526040601f19601f83011684010191505092915050565b80356001600160a01b03811681146106c5575f80fd5b919050565b5f80604083850312156106db575f80fd5b6106e4836106af565b946020939093013593505050565b5f805f60608486031215610704575f80fd5b61070d846106af565b925061071b602085016106af565b9150604084013590509250925092565b5f6020828403121561073b575f80fd5b610744826106af565b9392505050565b5f806040838503121561075c575f80fd5b610765836106af565b9150610773602084016106af565b90509250929050565b600181811c9082168061079057607f821691505b6020821081036107ae57634e487b7160e01b5f52602260045260245ffd5b50919050565b8082018082111561028057634e487b7160e01b5f52601160045260245ffdfea264697066735822122022bad330191e7b0e72d349d828cd65d209dc59edc86d009fc634730e8836406f64736f6c63430008190033","linkReferences":{}},"methodIdentifiers":{"allowance(address,address)":"dd62ed3e","approve(address,uint256)":"095ea7b3","balanceOf(address)":"70a08231","decimals()":"313ce567","name()":"06fdde03","owner()":"8da5cb5b","renounceOwnership()":"715018a6","symbol()":"95d89b41","totalSupply()":"18160ddd","transfer(address,uint256)":"a9059cbb","transferFrom(address,address,uint256)":"23b872dd","transferOwnership(address)":"f2fde38b"},"id":11}